{
	"Executive_Problem/020fc6afbb603263f80b08100e158f4d49b3492a52357406cde10cbfd3593275 (1)/contracts/CrainExecutive.sol": {
		"CrainExecutive": {
			"abi": [
				{
					"inputs": [],
					"stateMutability": "payable",
					"type": "constructor"
				},
				{
					"inputs": [
						{
							"internalType": "uint256",
							"name": "",
							"type": "uint256"
						}
					],
					"name": "Executives",
					"outputs": [
						{
							"internalType": "address",
							"name": "",
							"type": "address"
						}
					],
					"stateMutability": "view",
					"type": "function"
				},
				{
					"inputs": [
						{
							"internalType": "address",
							"name": "",
							"type": "address"
						}
					],
					"name": "balanceOf",
					"outputs": [
						{
							"internalType": "uint256",
							"name": "",
							"type": "uint256"
						}
					],
					"stateMutability": "view",
					"type": "function"
				},
				{
					"inputs": [],
					"name": "becomeEmployee",
					"outputs": [],
					"stateMutability": "nonpayable",
					"type": "function"
				},
				{
					"inputs": [],
					"name": "becomeExecutive",
					"outputs": [],
					"stateMutability": "nonpayable",
					"type": "function"
				},
				{
					"inputs": [],
					"name": "becomeManager",
					"outputs": [],
					"stateMutability": "nonpayable",
					"type": "function"
				},
				{
					"inputs": [],
					"name": "buyCredit",
					"outputs": [],
					"stateMutability": "payable",
					"type": "function"
				},
				{
					"inputs": [],
					"name": "claimStartingBonus",
					"outputs": [],
					"stateMutability": "nonpayable",
					"type": "function"
				},
				{
					"inputs": [
						{
							"internalType": "address",
							"name": "",
							"type": "address"
						}
					],
					"name": "hasTakeBonus",
					"outputs": [
						{
							"internalType": "bool",
							"name": "",
							"type": "bool"
						}
					],
					"stateMutability": "view",
					"type": "function"
				},
				{
					"inputs": [
						{
							"internalType": "address",
							"name": "",
							"type": "address"
						}
					],
					"name": "isEmployee",
					"outputs": [
						{
							"internalType": "bool",
							"name": "",
							"type": "bool"
						}
					],
					"stateMutability": "view",
					"type": "function"
				},
				{
					"inputs": [
						{
							"internalType": "address",
							"name": "",
							"type": "address"
						}
					],
					"name": "isExecutive",
					"outputs": [
						{
							"internalType": "bool",
							"name": "",
							"type": "bool"
						}
					],
					"stateMutability": "view",
					"type": "function"
				},
				{
					"inputs": [
						{
							"internalType": "address",
							"name": "",
							"type": "address"
						}
					],
					"name": "isManager",
					"outputs": [
						{
							"internalType": "bool",
							"name": "",
							"type": "bool"
						}
					],
					"stateMutability": "view",
					"type": "function"
				},
				{
					"inputs": [],
					"name": "owner",
					"outputs": [
						{
							"internalType": "address",
							"name": "",
							"type": "address"
						}
					],
					"stateMutability": "view",
					"type": "function"
				},
				{
					"inputs": [
						{
							"internalType": "address",
							"name": "",
							"type": "address"
						}
					],
					"name": "permissionToExchange",
					"outputs": [
						{
							"internalType": "bool",
							"name": "",
							"type": "bool"
						}
					],
					"stateMutability": "view",
					"type": "function"
				},
				{
					"inputs": [
						{
							"internalType": "uint256",
							"name": "_amount",
							"type": "uint256"
						}
					],
					"name": "sellCredit",
					"outputs": [],
					"stateMutability": "nonpayable",
					"type": "function"
				},
				{
					"inputs": [],
					"name": "totalSupply",
					"outputs": [
						{
							"internalType": "uint256",
							"name": "",
							"type": "uint256"
						}
					],
					"stateMutability": "view",
					"type": "function"
				},
				{
					"inputs": [
						{
							"internalType": "address",
							"name": "to",
							"type": "address"
						},
						{
							"internalType": "uint256",
							"name": "_amount",
							"type": "uint256"
						},
						{
							"internalType": "bytes",
							"name": "_message",
							"type": "bytes"
						}
					],
					"name": "transfer",
					"outputs": [],
					"stateMutability": "nonpayable",
					"type": "function"
				}
			],
			"devdoc": {
				"kind": "dev",
				"methods": {},
				"version": 1
			},
			"evm": {
				"assembly": "    /* \"Executive_Problem/020fc6afbb603263f80b08100e158f4d49b3492a52357406cde10cbfd3593275 (1)/contracts/CrainExecutive.sol\":58:2906  contract CrainExecutive{... */\n  mstore(0x40, 0x80)\n    /* \"Executive_Problem/020fc6afbb603263f80b08100e158f4d49b3492a52357406cde10cbfd3593275 (1)/contracts/CrainExecutive.sol\":1050:1060  msg.sender */\n  caller\n    /* \"Executive_Problem/020fc6afbb603263f80b08100e158f4d49b3492a52357406cde10cbfd3593275 (1)/contracts/CrainExecutive.sol\":1042:1047  owner */\n  0x00\n  dup1\n    /* \"Executive_Problem/020fc6afbb603263f80b08100e158f4d49b3492a52357406cde10cbfd3593275 (1)/contracts/CrainExecutive.sol\":1042:1060  owner = msg.sender */\n  0x0100\n  exp\n  dup2\n  sload\n  dup2\n  0xffffffffffffffffffffffffffffffffffffffff\n  mul\n  not\n  and\n  swap1\n  dup4\n  0xffffffffffffffffffffffffffffffffffffffff\n  and\n  mul\n  or\n  swap1\n  sstore\n  pop\n    /* \"Executive_Problem/020fc6afbb603263f80b08100e158f4d49b3492a52357406cde10cbfd3593275 (1)/contracts/CrainExecutive.sol\":1084:1092  50 ether */\n  0x02b5e3af16b1880000\n    /* \"Executive_Problem/020fc6afbb603263f80b08100e158f4d49b3492a52357406cde10cbfd3593275 (1)/contracts/CrainExecutive.sol\":1070:1081  totalSupply */\n  0x01\n    /* \"Executive_Problem/020fc6afbb603263f80b08100e158f4d49b3492a52357406cde10cbfd3593275 (1)/contracts/CrainExecutive.sol\":1070:1092  totalSupply = 50 ether */\n  dup2\n  swap1\n  sstore\n  pop\n    /* \"Executive_Problem/020fc6afbb603263f80b08100e158f4d49b3492a52357406cde10cbfd3593275 (1)/contracts/CrainExecutive.sol\":1126:1134  25 ether */\n  0x015af1d78b58c40000\n    /* \"Executive_Problem/020fc6afbb603263f80b08100e158f4d49b3492a52357406cde10cbfd3593275 (1)/contracts/CrainExecutive.sol\":1102:1111  balanceOf */\n  0x03\n    /* \"Executive_Problem/020fc6afbb603263f80b08100e158f4d49b3492a52357406cde10cbfd3593275 (1)/contracts/CrainExecutive.sol\":1102:1123  balanceOf[msg.sender] */\n  0x00\n    /* \"Executive_Problem/020fc6afbb603263f80b08100e158f4d49b3492a52357406cde10cbfd3593275 (1)/contracts/CrainExecutive.sol\":1112:1122  msg.sender */\n  caller\n    /* \"Executive_Problem/020fc6afbb603263f80b08100e158f4d49b3492a52357406cde10cbfd3593275 (1)/contracts/CrainExecutive.sol\":1102:1123  balanceOf[msg.sender] */\n  0xffffffffffffffffffffffffffffffffffffffff\n  and\n  0xffffffffffffffffffffffffffffffffffffffff\n  and\n  dup2\n  mstore\n  0x20\n  add\n  swap1\n  dup2\n  mstore\n  0x20\n  add\n  0x00\n  keccak256\n    /* \"Executive_Problem/020fc6afbb603263f80b08100e158f4d49b3492a52357406cde10cbfd3593275 (1)/contracts/CrainExecutive.sol\":1102:1134  balanceOf[msg.sender] = 25 ether */\n  dup2\n  swap1\n  sstore\n  pop\n    /* \"Executive_Problem/020fc6afbb603263f80b08100e158f4d49b3492a52357406cde10cbfd3593275 (1)/contracts/CrainExecutive.sol\":58:2906  contract CrainExecutive{... */\n  dataSize(sub_0)\n  dup1\n  dataOffset(sub_0)\n  0x00\n  codecopy\n  0x00\n  return\nstop\n\nsub_0: assembly {\n        /* \"Executive_Problem/020fc6afbb603263f80b08100e158f4d49b3492a52357406cde10cbfd3593275 (1)/contracts/CrainExecutive.sol\":58:2906  contract CrainExecutive{... */\n      mstore(0x40, 0x80)\n      jumpi(tag_1, lt(calldatasize, 0x04))\n      shr(0xe0, calldataload(0x00))\n      dup1\n      0x8e4e6f06\n      gt\n      tag_18\n      jumpi\n      dup1\n      0xbe45fd62\n      gt\n      tag_19\n      jumpi\n      dup1\n      0xbe45fd62\n      eq\n      tag_14\n      jumpi\n      dup1\n      0xd6165e9b\n      eq\n      tag_15\n      jumpi\n      dup1\n      0xea66543f\n      eq\n      tag_16\n      jumpi\n      dup1\n      0xf3ae2415\n      eq\n      tag_17\n      jumpi\n      jump(tag_1)\n    tag_19:\n      dup1\n      0x8e4e6f06\n      eq\n      tag_10\n      jumpi\n      dup1\n      0xac300db8\n      eq\n      tag_11\n      jumpi\n      dup1\n      0xb6b8b3c7\n      eq\n      tag_12\n      jumpi\n      dup1\n      0xbc4e3172\n      eq\n      tag_13\n      jumpi\n      jump(tag_1)\n    tag_18:\n      dup1\n      0x60a22a05\n      gt\n      tag_20\n      jumpi\n      dup1\n      0x60a22a05\n      eq\n      tag_6\n      jumpi\n      dup1\n      0x6a286981\n      eq\n      tag_7\n      jumpi\n      dup1\n      0x70a08231\n      eq\n      tag_8\n      jumpi\n      dup1\n      0x8da5cb5b\n      eq\n      tag_9\n      jumpi\n      jump(tag_1)\n    tag_20:\n      dup1\n      0x18160ddd\n      eq\n      tag_2\n      jumpi\n      dup1\n      0x392e396d\n      eq\n      tag_3\n      jumpi\n      dup1\n      0x4ad6cbd4\n      eq\n      tag_4\n      jumpi\n      dup1\n      0x4f3add0f\n      eq\n      tag_5\n      jumpi\n    tag_1:\n      0x00\n      dup1\n      revert\n        /* \"Executive_Problem/020fc6afbb603263f80b08100e158f4d49b3492a52357406cde10cbfd3593275 (1)/contracts/CrainExecutive.sol\":118:144  uint256 public totalSupply */\n    tag_2:\n      callvalue\n      dup1\n      iszero\n      tag_21\n      jumpi\n      0x00\n      dup1\n      revert\n    tag_21:\n      pop\n      tag_22\n      tag_23\n      jump\t// in\n    tag_22:\n      mload(0x40)\n      tag_24\n      swap2\n      swap1\n      tag_25\n      jump\t// in\n    tag_24:\n      mload(0x40)\n      dup1\n      swap2\n      sub\n      swap1\n      return\n        /* \"Executive_Problem/020fc6afbb603263f80b08100e158f4d49b3492a52357406cde10cbfd3593275 (1)/contracts/CrainExecutive.sol\":293:337  mapping(address => bool) public hasTakeBonus */\n    tag_3:\n      callvalue\n      dup1\n      iszero\n      tag_26\n      jumpi\n      0x00\n      dup1\n      revert\n    tag_26:\n      pop\n      tag_27\n      0x04\n      dup1\n      calldatasize\n      sub\n      dup2\n      add\n      swap1\n      tag_28\n      swap2\n      swap1\n      tag_29\n      jump\t// in\n    tag_28:\n      tag_30\n      jump\t// in\n    tag_27:\n      mload(0x40)\n      tag_31\n      swap2\n      swap1\n      tag_32\n      jump\t// in\n    tag_31:\n      mload(0x40)\n      dup1\n      swap2\n      sub\n      swap1\n      return\n        /* \"Executive_Problem/020fc6afbb603263f80b08100e158f4d49b3492a52357406cde10cbfd3593275 (1)/contracts/CrainExecutive.sol\":234:286  mapping(address => bool) public permissionToExchange */\n    tag_4:\n      callvalue\n      dup1\n      iszero\n      tag_33\n      jumpi\n      0x00\n      dup1\n      revert\n    tag_33:\n      pop\n      tag_34\n      0x04\n      dup1\n      calldatasize\n      sub\n      dup2\n      add\n      swap1\n      tag_35\n      swap2\n      swap1\n      tag_29\n      jump\t// in\n    tag_35:\n      tag_36\n      jump\t// in\n    tag_34:\n      mload(0x40)\n      tag_37\n      swap2\n      swap1\n      tag_32\n      jump\t// in\n    tag_37:\n      mload(0x40)\n      dup1\n      swap2\n      sub\n      swap1\n      return\n        /* \"Executive_Problem/020fc6afbb603263f80b08100e158f4d49b3492a52357406cde10cbfd3593275 (1)/contracts/CrainExecutive.sol\":1374:1627  function becomeManager() public _onlyEmployee{... */\n    tag_5:\n      callvalue\n      dup1\n      iszero\n      tag_38\n      jumpi\n      0x00\n      dup1\n      revert\n    tag_38:\n      pop\n      tag_39\n      tag_40\n      jump\t// in\n    tag_39:\n      stop\n        /* \"Executive_Problem/020fc6afbb603263f80b08100e158f4d49b3492a52357406cde10cbfd3593275 (1)/contracts/CrainExecutive.sol\":151:178  address[] public Executives */\n    tag_6:\n      callvalue\n      dup1\n      iszero\n      tag_41\n      jumpi\n      0x00\n      dup1\n      revert\n    tag_41:\n      pop\n      tag_42\n      0x04\n      dup1\n      calldatasize\n      sub\n      dup2\n      add\n      swap1\n      tag_43\n      swap2\n      swap1\n      tag_44\n      jump\t// in\n    tag_43:\n      tag_45\n      jump\t// in\n    tag_42:\n      mload(0x40)\n      tag_46\n      swap2\n      swap1\n      tag_47\n      jump\t// in\n    tag_46:\n      mload(0x40)\n      dup1\n      swap2\n      sub\n      swap1\n      return\n        /* \"Executive_Problem/020fc6afbb603263f80b08100e158f4d49b3492a52357406cde10cbfd3593275 (1)/contracts/CrainExecutive.sol\":1147:1283  function claimStartingBonus() public _onlyOnePerEmployee{... */\n    tag_7:\n      callvalue\n      dup1\n      iszero\n      tag_48\n      jumpi\n      0x00\n      dup1\n      revert\n    tag_48:\n      pop\n      tag_49\n      tag_50\n      jump\t// in\n    tag_49:\n      stop\n        /* \"Executive_Problem/020fc6afbb603263f80b08100e158f4d49b3492a52357406cde10cbfd3593275 (1)/contracts/CrainExecutive.sol\":184:228  mapping(address => uint256) public balanceOf */\n    tag_8:\n      callvalue\n      dup1\n      iszero\n      tag_51\n      jumpi\n      0x00\n      dup1\n      revert\n    tag_51:\n      pop\n      tag_52\n      0x04\n      dup1\n      calldatasize\n      sub\n      dup2\n      add\n      swap1\n      tag_53\n      swap2\n      swap1\n      tag_29\n      jump\t// in\n    tag_53:\n      tag_54\n      jump\t// in\n    tag_52:\n      mload(0x40)\n      tag_55\n      swap2\n      swap1\n      tag_25\n      jump\t// in\n    tag_55:\n      mload(0x40)\n      dup1\n      swap2\n      sub\n      swap1\n      return\n        /* \"Executive_Problem/020fc6afbb603263f80b08100e158f4d49b3492a52357406cde10cbfd3593275 (1)/contracts/CrainExecutive.sol\":92:112  address public owner */\n    tag_9:\n      callvalue\n      dup1\n      iszero\n      tag_56\n      jumpi\n      0x00\n      dup1\n      revert\n    tag_56:\n      pop\n      tag_57\n      tag_58\n      jump\t// in\n    tag_57:\n      mload(0x40)\n      tag_59\n      swap2\n      swap1\n      tag_47\n      jump\t// in\n    tag_59:\n      mload(0x40)\n      dup1\n      swap2\n      sub\n      swap1\n      return\n        /* \"Executive_Problem/020fc6afbb603263f80b08100e158f4d49b3492a52357406cde10cbfd3593275 (1)/contracts/CrainExecutive.sol\":1898:2138  function buyCredit() public payable _onlyEmployee{... */\n    tag_10:\n      tag_60\n      tag_61\n      jump\t// in\n    tag_60:\n      stop\n        /* \"Executive_Problem/020fc6afbb603263f80b08100e158f4d49b3492a52357406cde10cbfd3593275 (1)/contracts/CrainExecutive.sol\":1634:1892  function becomeExecutive() public {... */\n    tag_11:\n      callvalue\n      dup1\n      iszero\n      tag_62\n      jumpi\n      0x00\n      dup1\n      revert\n    tag_62:\n      pop\n      tag_63\n      tag_64\n      jump\t// in\n    tag_63:\n      stop\n        /* \"Executive_Problem/020fc6afbb603263f80b08100e158f4d49b3492a52357406cde10cbfd3593275 (1)/contracts/CrainExecutive.sol\":2144:2399  function sellCredit(uint256 _amount) public _onlyEmployee{... */\n    tag_12:\n      callvalue\n      dup1\n      iszero\n      tag_65\n      jumpi\n      0x00\n      dup1\n      revert\n    tag_65:\n      pop\n      tag_66\n      0x04\n      dup1\n      calldatasize\n      sub\n      dup2\n      add\n      swap1\n      tag_67\n      swap2\n      swap1\n      tag_44\n      jump\t// in\n    tag_67:\n      tag_68\n      jump\t// in\n    tag_66:\n      stop\n        /* \"Executive_Problem/020fc6afbb603263f80b08100e158f4d49b3492a52357406cde10cbfd3593275 (1)/contracts/CrainExecutive.sol\":1289:1368  function becomeEmployee() public {... */\n    tag_13:\n      callvalue\n      dup1\n      iszero\n      tag_69\n      jumpi\n      0x00\n      dup1\n      revert\n    tag_69:\n      pop\n      tag_70\n      tag_71\n      jump\t// in\n    tag_70:\n      stop\n        /* \"Executive_Problem/020fc6afbb603263f80b08100e158f4d49b3492a52357406cde10cbfd3593275 (1)/contracts/CrainExecutive.sol\":2405:2903  function transfer(address to, uint256 _amount, bytes memory _message) public _onlyExecutive{... */\n    tag_14:\n      callvalue\n      dup1\n      iszero\n      tag_72\n      jumpi\n      0x00\n      dup1\n      revert\n    tag_72:\n      pop\n      tag_73\n      0x04\n      dup1\n      calldatasize\n      sub\n      dup2\n      add\n      swap1\n      tag_74\n      swap2\n      swap1\n      tag_75\n      jump\t// in\n    tag_74:\n      tag_76\n      jump\t// in\n    tag_73:\n      stop\n        /* \"Executive_Problem/020fc6afbb603263f80b08100e158f4d49b3492a52357406cde10cbfd3593275 (1)/contracts/CrainExecutive.sol\":438:481  mapping(address => bool) public isExecutive */\n    tag_15:\n      callvalue\n      dup1\n      iszero\n      tag_77\n      jumpi\n      0x00\n      dup1\n      revert\n    tag_77:\n      pop\n      tag_78\n      0x04\n      dup1\n      calldatasize\n      sub\n      dup2\n      add\n      swap1\n      tag_79\n      swap2\n      swap1\n      tag_29\n      jump\t// in\n    tag_79:\n      tag_80\n      jump\t// in\n    tag_78:\n      mload(0x40)\n      tag_81\n      swap2\n      swap1\n      tag_32\n      jump\t// in\n    tag_81:\n      mload(0x40)\n      dup1\n      swap2\n      sub\n      swap1\n      return\n        /* \"Executive_Problem/020fc6afbb603263f80b08100e158f4d49b3492a52357406cde10cbfd3593275 (1)/contracts/CrainExecutive.sol\":343:385  mapping(address => bool) public isEmployee */\n    tag_16:\n      callvalue\n      dup1\n      iszero\n      tag_82\n      jumpi\n      0x00\n      dup1\n      revert\n    tag_82:\n      pop\n      tag_83\n      0x04\n      dup1\n      calldatasize\n      sub\n      dup2\n      add\n      swap1\n      tag_84\n      swap2\n      swap1\n      tag_29\n      jump\t// in\n    tag_84:\n      tag_85\n      jump\t// in\n    tag_83:\n      mload(0x40)\n      tag_86\n      swap2\n      swap1\n      tag_32\n      jump\t// in\n    tag_86:\n      mload(0x40)\n      dup1\n      swap2\n      sub\n      swap1\n      return\n        /* \"Executive_Problem/020fc6afbb603263f80b08100e158f4d49b3492a52357406cde10cbfd3593275 (1)/contracts/CrainExecutive.sol\":391:432  mapping(address => bool) public isManager */\n    tag_17:\n      callvalue\n      dup1\n      iszero\n      tag_87\n      jumpi\n      0x00\n      dup1\n      revert\n    tag_87:\n      pop\n      tag_88\n      0x04\n      dup1\n      calldatasize\n      sub\n      dup2\n      add\n      swap1\n      tag_89\n      swap2\n      swap1\n      tag_29\n      jump\t// in\n    tag_89:\n      tag_90\n      jump\t// in\n    tag_88:\n      mload(0x40)\n      tag_91\n      swap2\n      swap1\n      tag_32\n      jump\t// in\n    tag_91:\n      mload(0x40)\n      dup1\n      swap2\n      sub\n      swap1\n      return\n        /* \"Executive_Problem/020fc6afbb603263f80b08100e158f4d49b3492a52357406cde10cbfd3593275 (1)/contracts/CrainExecutive.sol\":118:144  uint256 public totalSupply */\n    tag_23:\n      sload(0x01)\n      dup2\n      jump\t// out\n        /* \"Executive_Problem/020fc6afbb603263f80b08100e158f4d49b3492a52357406cde10cbfd3593275 (1)/contracts/CrainExecutive.sol\":293:337  mapping(address => bool) public hasTakeBonus */\n    tag_30:\n      mstore(0x20, 0x05)\n      dup1\n      0x00\n      mstore\n      keccak256(0x00, 0x40)\n      0x00\n      swap2\n      pop\n      sload\n      swap1\n      0x0100\n      exp\n      swap1\n      div\n      0xff\n      and\n      dup2\n      jump\t// out\n        /* \"Executive_Problem/020fc6afbb603263f80b08100e158f4d49b3492a52357406cde10cbfd3593275 (1)/contracts/CrainExecutive.sol\":234:286  mapping(address => bool) public permissionToExchange */\n    tag_36:\n      mstore(0x20, 0x04)\n      dup1\n      0x00\n      mstore\n      keccak256(0x00, 0x40)\n      0x00\n      swap2\n      pop\n      sload\n      swap1\n      0x0100\n      exp\n      swap1\n      div\n      0xff\n      and\n      dup2\n      jump\t// out\n        /* \"Executive_Problem/020fc6afbb603263f80b08100e158f4d49b3492a52357406cde10cbfd3593275 (1)/contracts/CrainExecutive.sol\":1374:1627  function becomeManager() public _onlyEmployee{... */\n    tag_40:\n        /* \"Executive_Problem/020fc6afbb603263f80b08100e158f4d49b3492a52357406cde10cbfd3593275 (1)/contracts/CrainExecutive.sol\":951:955  true */\n      0x01\n        /* \"Executive_Problem/020fc6afbb603263f80b08100e158f4d49b3492a52357406cde10cbfd3593275 (1)/contracts/CrainExecutive.sol\":925:955  isEmployee[msg.sender] == true */\n      iszero\n      iszero\n        /* \"Executive_Problem/020fc6afbb603263f80b08100e158f4d49b3492a52357406cde10cbfd3593275 (1)/contracts/CrainExecutive.sol\":925:935  isEmployee */\n      0x06\n        /* \"Executive_Problem/020fc6afbb603263f80b08100e158f4d49b3492a52357406cde10cbfd3593275 (1)/contracts/CrainExecutive.sol\":925:947  isEmployee[msg.sender] */\n      0x00\n        /* \"Executive_Problem/020fc6afbb603263f80b08100e158f4d49b3492a52357406cde10cbfd3593275 (1)/contracts/CrainExecutive.sol\":936:946  msg.sender */\n      caller\n        /* \"Executive_Problem/020fc6afbb603263f80b08100e158f4d49b3492a52357406cde10cbfd3593275 (1)/contracts/CrainExecutive.sol\":925:947  isEmployee[msg.sender] */\n      0xffffffffffffffffffffffffffffffffffffffff\n      and\n      0xffffffffffffffffffffffffffffffffffffffff\n      and\n      dup2\n      mstore\n      0x20\n      add\n      swap1\n      dup2\n      mstore\n      0x20\n      add\n      0x00\n      keccak256\n      0x00\n      swap1\n      sload\n      swap1\n      0x0100\n      exp\n      swap1\n      div\n      0xff\n      and\n        /* \"Executive_Problem/020fc6afbb603263f80b08100e158f4d49b3492a52357406cde10cbfd3593275 (1)/contracts/CrainExecutive.sol\":925:955  isEmployee[msg.sender] == true */\n      iszero\n      iszero\n      eq\n        /* \"Executive_Problem/020fc6afbb603263f80b08100e158f4d49b3492a52357406cde10cbfd3593275 (1)/contracts/CrainExecutive.sol\":917:987  require(isEmployee[msg.sender] == true, \"Only Employee can exchange!\") */\n      tag_93\n      jumpi\n      mload(0x40)\n      0x08c379a000000000000000000000000000000000000000000000000000000000\n      dup2\n      mstore\n      0x04\n      add\n      tag_94\n      swap1\n      tag_95\n      jump\t// in\n    tag_94:\n      mload(0x40)\n      dup1\n      swap2\n      sub\n      swap1\n      revert\n    tag_93:\n        /* \"Executive_Problem/020fc6afbb603263f80b08100e158f4d49b3492a52357406cde10cbfd3593275 (1)/contracts/CrainExecutive.sol\":1462:1469  1 ether */\n      0x0de0b6b3a7640000\n        /* \"Executive_Problem/020fc6afbb603263f80b08100e158f4d49b3492a52357406cde10cbfd3593275 (1)/contracts/CrainExecutive.sol\":1437:1446  balanceOf */\n      0x03\n        /* \"Executive_Problem/020fc6afbb603263f80b08100e158f4d49b3492a52357406cde10cbfd3593275 (1)/contracts/CrainExecutive.sol\":1437:1458  balanceOf[msg.sender] */\n      0x00\n        /* \"Executive_Problem/020fc6afbb603263f80b08100e158f4d49b3492a52357406cde10cbfd3593275 (1)/contracts/CrainExecutive.sol\":1447:1457  msg.sender */\n      caller\n        /* \"Executive_Problem/020fc6afbb603263f80b08100e158f4d49b3492a52357406cde10cbfd3593275 (1)/contracts/CrainExecutive.sol\":1437:1458  balanceOf[msg.sender] */\n      0xffffffffffffffffffffffffffffffffffffffff\n      and\n      0xffffffffffffffffffffffffffffffffffffffff\n      and\n      dup2\n      mstore\n      0x20\n      add\n      swap1\n      dup2\n      mstore\n      0x20\n      add\n      0x00\n      keccak256\n      sload\n        /* \"Executive_Problem/020fc6afbb603263f80b08100e158f4d49b3492a52357406cde10cbfd3593275 (1)/contracts/CrainExecutive.sol\":1437:1469  balanceOf[msg.sender] >= 1 ether */\n      lt\n      iszero\n        /* \"Executive_Problem/020fc6afbb603263f80b08100e158f4d49b3492a52357406cde10cbfd3593275 (1)/contracts/CrainExecutive.sol\":1429:1500  require(balanceOf[msg.sender] >= 1 ether, \"Must have at least 1 ether\") */\n      tag_97\n      jumpi\n      mload(0x40)\n      0x08c379a000000000000000000000000000000000000000000000000000000000\n      dup2\n      mstore\n      0x04\n      add\n      tag_98\n      swap1\n      tag_99\n      jump\t// in\n    tag_98:\n      mload(0x40)\n      dup1\n      swap2\n      sub\n      swap1\n      revert\n    tag_97:\n        /* \"Executive_Problem/020fc6afbb603263f80b08100e158f4d49b3492a52357406cde10cbfd3593275 (1)/contracts/CrainExecutive.sol\":1544:1548  true */\n      0x01\n        /* \"Executive_Problem/020fc6afbb603263f80b08100e158f4d49b3492a52357406cde10cbfd3593275 (1)/contracts/CrainExecutive.sol\":1518:1548  isEmployee[msg.sender] == true */\n      iszero\n      iszero\n        /* \"Executive_Problem/020fc6afbb603263f80b08100e158f4d49b3492a52357406cde10cbfd3593275 (1)/contracts/CrainExecutive.sol\":1518:1528  isEmployee */\n      0x06\n        /* \"Executive_Problem/020fc6afbb603263f80b08100e158f4d49b3492a52357406cde10cbfd3593275 (1)/contracts/CrainExecutive.sol\":1518:1540  isEmployee[msg.sender] */\n      0x00\n        /* \"Executive_Problem/020fc6afbb603263f80b08100e158f4d49b3492a52357406cde10cbfd3593275 (1)/contracts/CrainExecutive.sol\":1529:1539  msg.sender */\n      caller\n        /* \"Executive_Problem/020fc6afbb603263f80b08100e158f4d49b3492a52357406cde10cbfd3593275 (1)/contracts/CrainExecutive.sol\":1518:1540  isEmployee[msg.sender] */\n      0xffffffffffffffffffffffffffffffffffffffff\n      and\n      0xffffffffffffffffffffffffffffffffffffffff\n      and\n      dup2\n      mstore\n      0x20\n      add\n      swap1\n      dup2\n      mstore\n      0x20\n      add\n      0x00\n      keccak256\n      0x00\n      swap1\n      sload\n      swap1\n      0x0100\n      exp\n      swap1\n      div\n      0xff\n      and\n        /* \"Executive_Problem/020fc6afbb603263f80b08100e158f4d49b3492a52357406cde10cbfd3593275 (1)/contracts/CrainExecutive.sol\":1518:1548  isEmployee[msg.sender] == true */\n      iszero\n      iszero\n      eq\n        /* \"Executive_Problem/020fc6afbb603263f80b08100e158f4d49b3492a52357406cde10cbfd3593275 (1)/contracts/CrainExecutive.sol\":1510:1582  require(isEmployee[msg.sender] == true, \"Only Employee can be promoted\") */\n      tag_100\n      jumpi\n      mload(0x40)\n      0x08c379a000000000000000000000000000000000000000000000000000000000\n      dup2\n      mstore\n      0x04\n      add\n      tag_101\n      swap1\n      tag_102\n      jump\t// in\n    tag_101:\n      mload(0x40)\n      dup1\n      swap2\n      sub\n      swap1\n      revert\n    tag_100:\n        /* \"Executive_Problem/020fc6afbb603263f80b08100e158f4d49b3492a52357406cde10cbfd3593275 (1)/contracts/CrainExecutive.sol\":1616:1620  true */\n      0x01\n        /* \"Executive_Problem/020fc6afbb603263f80b08100e158f4d49b3492a52357406cde10cbfd3593275 (1)/contracts/CrainExecutive.sol\":1592:1601  isManager */\n      0x07\n        /* \"Executive_Problem/020fc6afbb603263f80b08100e158f4d49b3492a52357406cde10cbfd3593275 (1)/contracts/CrainExecutive.sol\":1592:1613  isManager[msg.sender] */\n      0x00\n        /* \"Executive_Problem/020fc6afbb603263f80b08100e158f4d49b3492a52357406cde10cbfd3593275 (1)/contracts/CrainExecutive.sol\":1602:1612  msg.sender */\n      caller\n        /* \"Executive_Problem/020fc6afbb603263f80b08100e158f4d49b3492a52357406cde10cbfd3593275 (1)/contracts/CrainExecutive.sol\":1592:1613  isManager[msg.sender] */\n      0xffffffffffffffffffffffffffffffffffffffff\n      and\n      0xffffffffffffffffffffffffffffffffffffffff\n      and\n      dup2\n      mstore\n      0x20\n      add\n      swap1\n      dup2\n      mstore\n      0x20\n      add\n      0x00\n      keccak256\n      0x00\n        /* \"Executive_Problem/020fc6afbb603263f80b08100e158f4d49b3492a52357406cde10cbfd3593275 (1)/contracts/CrainExecutive.sol\":1592:1620  isManager[msg.sender] = true */\n      0x0100\n      exp\n      dup2\n      sload\n      dup2\n      0xff\n      mul\n      not\n      and\n      swap1\n      dup4\n      iszero\n      iszero\n      mul\n      or\n      swap1\n      sstore\n      pop\n        /* \"Executive_Problem/020fc6afbb603263f80b08100e158f4d49b3492a52357406cde10cbfd3593275 (1)/contracts/CrainExecutive.sol\":1374:1627  function becomeManager() public _onlyEmployee{... */\n      jump\t// out\n        /* \"Executive_Problem/020fc6afbb603263f80b08100e158f4d49b3492a52357406cde10cbfd3593275 (1)/contracts/CrainExecutive.sol\":151:178  address[] public Executives */\n    tag_45:\n      0x02\n      dup2\n      dup2\n      sload\n      dup2\n      lt\n      tag_103\n      jumpi\n      0x00\n      dup1\n      revert\n    tag_103:\n      swap1\n      0x00\n      mstore\n      keccak256(0x00, 0x20)\n      add\n      0x00\n      swap2\n      pop\n      sload\n      swap1\n      0x0100\n      exp\n      swap1\n      div\n      0xffffffffffffffffffffffffffffffffffffffff\n      and\n      dup2\n      jump\t// out\n        /* \"Executive_Problem/020fc6afbb603263f80b08100e158f4d49b3492a52357406cde10cbfd3593275 (1)/contracts/CrainExecutive.sol\":1147:1283  function claimStartingBonus() public _onlyOnePerEmployee{... */\n    tag_50:\n        /* \"Executive_Problem/020fc6afbb603263f80b08100e158f4d49b3492a52357406cde10cbfd3593275 (1)/contracts/CrainExecutive.sol\":564:569  false */\n      0x00\n        /* \"Executive_Problem/020fc6afbb603263f80b08100e158f4d49b3492a52357406cde10cbfd3593275 (1)/contracts/CrainExecutive.sol\":536:569  hasTakeBonus[msg.sender] == false */\n      iszero\n      iszero\n        /* \"Executive_Problem/020fc6afbb603263f80b08100e158f4d49b3492a52357406cde10cbfd3593275 (1)/contracts/CrainExecutive.sol\":536:548  hasTakeBonus */\n      0x05\n        /* \"Executive_Problem/020fc6afbb603263f80b08100e158f4d49b3492a52357406cde10cbfd3593275 (1)/contracts/CrainExecutive.sol\":536:560  hasTakeBonus[msg.sender] */\n      0x00\n        /* \"Executive_Problem/020fc6afbb603263f80b08100e158f4d49b3492a52357406cde10cbfd3593275 (1)/contracts/CrainExecutive.sol\":549:559  msg.sender */\n      caller\n        /* \"Executive_Problem/020fc6afbb603263f80b08100e158f4d49b3492a52357406cde10cbfd3593275 (1)/contracts/CrainExecutive.sol\":536:560  hasTakeBonus[msg.sender] */\n      0xffffffffffffffffffffffffffffffffffffffff\n      and\n      0xffffffffffffffffffffffffffffffffffffffff\n      and\n      dup2\n      mstore\n      0x20\n      add\n      swap1\n      dup2\n      mstore\n      0x20\n      add\n      0x00\n      keccak256\n      0x00\n      swap1\n      sload\n      swap1\n      0x0100\n      exp\n      swap1\n      div\n      0xff\n      and\n        /* \"Executive_Problem/020fc6afbb603263f80b08100e158f4d49b3492a52357406cde10cbfd3593275 (1)/contracts/CrainExecutive.sol\":536:569  hasTakeBonus[msg.sender] == false */\n      iszero\n      iszero\n      eq\n        /* \"Executive_Problem/020fc6afbb603263f80b08100e158f4d49b3492a52357406cde10cbfd3593275 (1)/contracts/CrainExecutive.sol\":528:603  require(hasTakeBonus[msg.sender] == false, \"Bonus can only be taken once!\") */\n      tag_106\n      jumpi\n      mload(0x40)\n      0x08c379a000000000000000000000000000000000000000000000000000000000\n      dup2\n      mstore\n      0x04\n      add\n      tag_107\n      swap1\n      tag_108\n      jump\t// in\n    tag_107:\n      mload(0x40)\n      dup1\n      swap2\n      sub\n      swap1\n      revert\n    tag_106:\n        /* \"Executive_Problem/020fc6afbb603263f80b08100e158f4d49b3492a52357406cde10cbfd3593275 (1)/contracts/CrainExecutive.sol\":1233:1237  1e18 */\n      0x0de0b6b3a7640000\n        /* \"Executive_Problem/020fc6afbb603263f80b08100e158f4d49b3492a52357406cde10cbfd3593275 (1)/contracts/CrainExecutive.sol\":1213:1222  balanceOf */\n      0x03\n        /* \"Executive_Problem/020fc6afbb603263f80b08100e158f4d49b3492a52357406cde10cbfd3593275 (1)/contracts/CrainExecutive.sol\":1213:1229  balanceOf[owner] */\n      0x00\n        /* \"Executive_Problem/020fc6afbb603263f80b08100e158f4d49b3492a52357406cde10cbfd3593275 (1)/contracts/CrainExecutive.sol\":1223:1228  owner */\n      dup1\n      0x00\n      swap1\n      sload\n      swap1\n      0x0100\n      exp\n      swap1\n      div\n      0xffffffffffffffffffffffffffffffffffffffff\n      and\n        /* \"Executive_Problem/020fc6afbb603263f80b08100e158f4d49b3492a52357406cde10cbfd3593275 (1)/contracts/CrainExecutive.sol\":1213:1229  balanceOf[owner] */\n      0xffffffffffffffffffffffffffffffffffffffff\n      and\n      0xffffffffffffffffffffffffffffffffffffffff\n      and\n      dup2\n      mstore\n      0x20\n      add\n      swap1\n      dup2\n      mstore\n      0x20\n      add\n      0x00\n      keccak256\n      0x00\n        /* \"Executive_Problem/020fc6afbb603263f80b08100e158f4d49b3492a52357406cde10cbfd3593275 (1)/contracts/CrainExecutive.sol\":1213:1237  balanceOf[owner] -= 1e18 */\n      dup3\n      dup3\n      sload\n      tag_110\n      swap2\n      swap1\n      tag_111\n      jump\t// in\n    tag_110:\n      swap3\n      pop\n      pop\n      dup2\n      swap1\n      sstore\n      pop\n        /* \"Executive_Problem/020fc6afbb603263f80b08100e158f4d49b3492a52357406cde10cbfd3593275 (1)/contracts/CrainExecutive.sol\":1272:1276  1e18 */\n      0x0de0b6b3a7640000\n        /* \"Executive_Problem/020fc6afbb603263f80b08100e158f4d49b3492a52357406cde10cbfd3593275 (1)/contracts/CrainExecutive.sol\":1247:1256  balanceOf */\n      0x03\n        /* \"Executive_Problem/020fc6afbb603263f80b08100e158f4d49b3492a52357406cde10cbfd3593275 (1)/contracts/CrainExecutive.sol\":1247:1268  balanceOf[msg.sender] */\n      0x00\n        /* \"Executive_Problem/020fc6afbb603263f80b08100e158f4d49b3492a52357406cde10cbfd3593275 (1)/contracts/CrainExecutive.sol\":1257:1267  msg.sender */\n      caller\n        /* \"Executive_Problem/020fc6afbb603263f80b08100e158f4d49b3492a52357406cde10cbfd3593275 (1)/contracts/CrainExecutive.sol\":1247:1268  balanceOf[msg.sender] */\n      0xffffffffffffffffffffffffffffffffffffffff\n      and\n      0xffffffffffffffffffffffffffffffffffffffff\n      and\n      dup2\n      mstore\n      0x20\n      add\n      swap1\n      dup2\n      mstore\n      0x20\n      add\n      0x00\n      keccak256\n      0x00\n        /* \"Executive_Problem/020fc6afbb603263f80b08100e158f4d49b3492a52357406cde10cbfd3593275 (1)/contracts/CrainExecutive.sol\":1247:1276  balanceOf[msg.sender] += 1e18 */\n      dup3\n      dup3\n      sload\n      tag_112\n      swap2\n      swap1\n      tag_113\n      jump\t// in\n    tag_112:\n      swap3\n      pop\n      pop\n      dup2\n      swap1\n      sstore\n      pop\n        /* \"Executive_Problem/020fc6afbb603263f80b08100e158f4d49b3492a52357406cde10cbfd3593275 (1)/contracts/CrainExecutive.sol\":1147:1283  function claimStartingBonus() public _onlyOnePerEmployee{... */\n      jump\t// out\n        /* \"Executive_Problem/020fc6afbb603263f80b08100e158f4d49b3492a52357406cde10cbfd3593275 (1)/contracts/CrainExecutive.sol\":184:228  mapping(address => uint256) public balanceOf */\n    tag_54:\n      mstore(0x20, 0x03)\n      dup1\n      0x00\n      mstore\n      keccak256(0x00, 0x40)\n      0x00\n      swap2\n      pop\n      swap1\n      pop\n      sload\n      dup2\n      jump\t// out\n        /* \"Executive_Problem/020fc6afbb603263f80b08100e158f4d49b3492a52357406cde10cbfd3593275 (1)/contracts/CrainExecutive.sol\":92:112  address public owner */\n    tag_58:\n      0x00\n      dup1\n      sload\n      swap1\n      0x0100\n      exp\n      swap1\n      div\n      0xffffffffffffffffffffffffffffffffffffffff\n      and\n      dup2\n      jump\t// out\n        /* \"Executive_Problem/020fc6afbb603263f80b08100e158f4d49b3492a52357406cde10cbfd3593275 (1)/contracts/CrainExecutive.sol\":1898:2138  function buyCredit() public payable _onlyEmployee{... */\n    tag_61:\n        /* \"Executive_Problem/020fc6afbb603263f80b08100e158f4d49b3492a52357406cde10cbfd3593275 (1)/contracts/CrainExecutive.sol\":951:955  true */\n      0x01\n        /* \"Executive_Problem/020fc6afbb603263f80b08100e158f4d49b3492a52357406cde10cbfd3593275 (1)/contracts/CrainExecutive.sol\":925:955  isEmployee[msg.sender] == true */\n      iszero\n      iszero\n        /* \"Executive_Problem/020fc6afbb603263f80b08100e158f4d49b3492a52357406cde10cbfd3593275 (1)/contracts/CrainExecutive.sol\":925:935  isEmployee */\n      0x06\n        /* \"Executive_Problem/020fc6afbb603263f80b08100e158f4d49b3492a52357406cde10cbfd3593275 (1)/contracts/CrainExecutive.sol\":925:947  isEmployee[msg.sender] */\n      0x00\n        /* \"Executive_Problem/020fc6afbb603263f80b08100e158f4d49b3492a52357406cde10cbfd3593275 (1)/contracts/CrainExecutive.sol\":936:946  msg.sender */\n      caller\n        /* \"Executive_Problem/020fc6afbb603263f80b08100e158f4d49b3492a52357406cde10cbfd3593275 (1)/contracts/CrainExecutive.sol\":925:947  isEmployee[msg.sender] */\n      0xffffffffffffffffffffffffffffffffffffffff\n      and\n      0xffffffffffffffffffffffffffffffffffffffff\n      and\n      dup2\n      mstore\n      0x20\n      add\n      swap1\n      dup2\n      mstore\n      0x20\n      add\n      0x00\n      keccak256\n      0x00\n      swap1\n      sload\n      swap1\n      0x0100\n      exp\n      swap1\n      div\n      0xff\n      and\n        /* \"Executive_Problem/020fc6afbb603263f80b08100e158f4d49b3492a52357406cde10cbfd3593275 (1)/contracts/CrainExecutive.sol\":925:955  isEmployee[msg.sender] == true */\n      iszero\n      iszero\n      eq\n        /* \"Executive_Problem/020fc6afbb603263f80b08100e158f4d49b3492a52357406cde10cbfd3593275 (1)/contracts/CrainExecutive.sol\":917:987  require(isEmployee[msg.sender] == true, \"Only Employee can exchange!\") */\n      tag_115\n      jumpi\n      mload(0x40)\n      0x08c379a000000000000000000000000000000000000000000000000000000000\n      dup2\n      mstore\n      0x04\n      add\n      tag_116\n      swap1\n      tag_95\n      jump\t// in\n    tag_116:\n      mload(0x40)\n      dup1\n      swap2\n      sub\n      swap1\n      revert\n    tag_115:\n        /* \"Executive_Problem/020fc6afbb603263f80b08100e158f4d49b3492a52357406cde10cbfd3593275 (1)/contracts/CrainExecutive.sol\":1978:1985  1 ether */\n      0x0de0b6b3a7640000\n        /* \"Executive_Problem/020fc6afbb603263f80b08100e158f4d49b3492a52357406cde10cbfd3593275 (1)/contracts/CrainExecutive.sol\":1965:1974  msg.value */\n      callvalue\n        /* \"Executive_Problem/020fc6afbb603263f80b08100e158f4d49b3492a52357406cde10cbfd3593275 (1)/contracts/CrainExecutive.sol\":1965:1985  msg.value >= 1 ether */\n      lt\n      iszero\n        /* \"Executive_Problem/020fc6afbb603263f80b08100e158f4d49b3492a52357406cde10cbfd3593275 (1)/contracts/CrainExecutive.sol\":1957:2008  require(msg.value >= 1 ether, \"Minimum is 1 Ether\") */\n      tag_118\n      jumpi\n      mload(0x40)\n      0x08c379a000000000000000000000000000000000000000000000000000000000\n      dup2\n      mstore\n      0x04\n      add\n      tag_119\n      swap1\n      tag_120\n      jump\t// in\n    tag_119:\n      mload(0x40)\n      dup1\n      swap2\n      sub\n      swap1\n      revert\n    tag_118:\n        /* \"Executive_Problem/020fc6afbb603263f80b08100e158f4d49b3492a52357406cde10cbfd3593275 (1)/contracts/CrainExecutive.sol\":2018:2037  uint256 totalBought */\n      0x00\n        /* \"Executive_Problem/020fc6afbb603263f80b08100e158f4d49b3492a52357406cde10cbfd3593275 (1)/contracts/CrainExecutive.sol\":2040:2049  msg.value */\n      callvalue\n        /* \"Executive_Problem/020fc6afbb603263f80b08100e158f4d49b3492a52357406cde10cbfd3593275 (1)/contracts/CrainExecutive.sol\":2018:2049  uint256 totalBought = msg.value */\n      swap1\n      pop\n        /* \"Executive_Problem/020fc6afbb603263f80b08100e158f4d49b3492a52357406cde10cbfd3593275 (1)/contracts/CrainExecutive.sol\":2084:2095  totalBought */\n      dup1\n        /* \"Executive_Problem/020fc6afbb603263f80b08100e158f4d49b3492a52357406cde10cbfd3593275 (1)/contracts/CrainExecutive.sol\":2059:2068  balanceOf */\n      0x03\n        /* \"Executive_Problem/020fc6afbb603263f80b08100e158f4d49b3492a52357406cde10cbfd3593275 (1)/contracts/CrainExecutive.sol\":2059:2080  balanceOf[msg.sender] */\n      0x00\n        /* \"Executive_Problem/020fc6afbb603263f80b08100e158f4d49b3492a52357406cde10cbfd3593275 (1)/contracts/CrainExecutive.sol\":2069:2079  msg.sender */\n      caller\n        /* \"Executive_Problem/020fc6afbb603263f80b08100e158f4d49b3492a52357406cde10cbfd3593275 (1)/contracts/CrainExecutive.sol\":2059:2080  balanceOf[msg.sender] */\n      0xffffffffffffffffffffffffffffffffffffffff\n      and\n      0xffffffffffffffffffffffffffffffffffffffff\n      and\n      dup2\n      mstore\n      0x20\n      add\n      swap1\n      dup2\n      mstore\n      0x20\n      add\n      0x00\n      keccak256\n      0x00\n        /* \"Executive_Problem/020fc6afbb603263f80b08100e158f4d49b3492a52357406cde10cbfd3593275 (1)/contracts/CrainExecutive.sol\":2059:2095  balanceOf[msg.sender] += totalBought */\n      dup3\n      dup3\n      sload\n      tag_121\n      swap2\n      swap1\n      tag_113\n      jump\t// in\n    tag_121:\n      swap3\n      pop\n      pop\n      dup2\n      swap1\n      sstore\n      pop\n        /* \"Executive_Problem/020fc6afbb603263f80b08100e158f4d49b3492a52357406cde10cbfd3593275 (1)/contracts/CrainExecutive.sol\":2120:2131  totalBought */\n      dup1\n        /* \"Executive_Problem/020fc6afbb603263f80b08100e158f4d49b3492a52357406cde10cbfd3593275 (1)/contracts/CrainExecutive.sol\":2105:2116  totalSupply */\n      0x01\n      0x00\n        /* \"Executive_Problem/020fc6afbb603263f80b08100e158f4d49b3492a52357406cde10cbfd3593275 (1)/contracts/CrainExecutive.sol\":2105:2131  totalSupply += totalBought */\n      dup3\n      dup3\n      sload\n      tag_122\n      swap2\n      swap1\n      tag_113\n      jump\t// in\n    tag_122:\n      swap3\n      pop\n      pop\n      dup2\n      swap1\n      sstore\n      pop\n        /* \"Executive_Problem/020fc6afbb603263f80b08100e158f4d49b3492a52357406cde10cbfd3593275 (1)/contracts/CrainExecutive.sol\":1947:2138  {... */\n      pop\n        /* \"Executive_Problem/020fc6afbb603263f80b08100e158f4d49b3492a52357406cde10cbfd3593275 (1)/contracts/CrainExecutive.sol\":1898:2138  function buyCredit() public payable _onlyEmployee{... */\n      jump\t// out\n        /* \"Executive_Problem/020fc6afbb603263f80b08100e158f4d49b3492a52357406cde10cbfd3593275 (1)/contracts/CrainExecutive.sol\":1634:1892  function becomeExecutive() public {... */\n    tag_64:\n        /* \"Executive_Problem/020fc6afbb603263f80b08100e158f4d49b3492a52357406cde10cbfd3593275 (1)/contracts/CrainExecutive.sol\":1712:1716  true */\n      0x01\n        /* \"Executive_Problem/020fc6afbb603263f80b08100e158f4d49b3492a52357406cde10cbfd3593275 (1)/contracts/CrainExecutive.sol\":1686:1716  isEmployee[msg.sender] == true */\n      iszero\n      iszero\n        /* \"Executive_Problem/020fc6afbb603263f80b08100e158f4d49b3492a52357406cde10cbfd3593275 (1)/contracts/CrainExecutive.sol\":1686:1696  isEmployee */\n      0x06\n        /* \"Executive_Problem/020fc6afbb603263f80b08100e158f4d49b3492a52357406cde10cbfd3593275 (1)/contracts/CrainExecutive.sol\":1686:1708  isEmployee[msg.sender] */\n      0x00\n        /* \"Executive_Problem/020fc6afbb603263f80b08100e158f4d49b3492a52357406cde10cbfd3593275 (1)/contracts/CrainExecutive.sol\":1697:1707  msg.sender */\n      caller\n        /* \"Executive_Problem/020fc6afbb603263f80b08100e158f4d49b3492a52357406cde10cbfd3593275 (1)/contracts/CrainExecutive.sol\":1686:1708  isEmployee[msg.sender] */\n      0xffffffffffffffffffffffffffffffffffffffff\n      and\n      0xffffffffffffffffffffffffffffffffffffffff\n      and\n      dup2\n      mstore\n      0x20\n      add\n      swap1\n      dup2\n      mstore\n      0x20\n      add\n      0x00\n      keccak256\n      0x00\n      swap1\n      sload\n      swap1\n      0x0100\n      exp\n      swap1\n      div\n      0xff\n      and\n        /* \"Executive_Problem/020fc6afbb603263f80b08100e158f4d49b3492a52357406cde10cbfd3593275 (1)/contracts/CrainExecutive.sol\":1686:1716  isEmployee[msg.sender] == true */\n      iszero\n      iszero\n      eq\n        /* \"Executive_Problem/020fc6afbb603263f80b08100e158f4d49b3492a52357406cde10cbfd3593275 (1)/contracts/CrainExecutive.sol\":1686:1749  isEmployee[msg.sender] == true && isManager[msg.sender] == true */\n      dup1\n      iszero\n      tag_124\n      jumpi\n      pop\n        /* \"Executive_Problem/020fc6afbb603263f80b08100e158f4d49b3492a52357406cde10cbfd3593275 (1)/contracts/CrainExecutive.sol\":1745:1749  true */\n      0x01\n        /* \"Executive_Problem/020fc6afbb603263f80b08100e158f4d49b3492a52357406cde10cbfd3593275 (1)/contracts/CrainExecutive.sol\":1720:1749  isManager[msg.sender] == true */\n      iszero\n      iszero\n        /* \"Executive_Problem/020fc6afbb603263f80b08100e158f4d49b3492a52357406cde10cbfd3593275 (1)/contracts/CrainExecutive.sol\":1720:1729  isManager */\n      0x07\n        /* \"Executive_Problem/020fc6afbb603263f80b08100e158f4d49b3492a52357406cde10cbfd3593275 (1)/contracts/CrainExecutive.sol\":1720:1741  isManager[msg.sender] */\n      0x00\n        /* \"Executive_Problem/020fc6afbb603263f80b08100e158f4d49b3492a52357406cde10cbfd3593275 (1)/contracts/CrainExecutive.sol\":1730:1740  msg.sender */\n      caller\n        /* \"Executive_Problem/020fc6afbb603263f80b08100e158f4d49b3492a52357406cde10cbfd3593275 (1)/contracts/CrainExecutive.sol\":1720:1741  isManager[msg.sender] */\n      0xffffffffffffffffffffffffffffffffffffffff\n      and\n      0xffffffffffffffffffffffffffffffffffffffff\n      and\n      dup2\n      mstore\n      0x20\n      add\n      swap1\n      dup2\n      mstore\n      0x20\n      add\n      0x00\n      keccak256\n      0x00\n      swap1\n      sload\n      swap1\n      0x0100\n      exp\n      swap1\n      div\n      0xff\n      and\n        /* \"Executive_Problem/020fc6afbb603263f80b08100e158f4d49b3492a52357406cde10cbfd3593275 (1)/contracts/CrainExecutive.sol\":1720:1749  isManager[msg.sender] == true */\n      iszero\n      iszero\n      eq\n        /* \"Executive_Problem/020fc6afbb603263f80b08100e158f4d49b3492a52357406cde10cbfd3593275 (1)/contracts/CrainExecutive.sol\":1686:1749  isEmployee[msg.sender] == true && isManager[msg.sender] == true */\n    tag_124:\n        /* \"Executive_Problem/020fc6afbb603263f80b08100e158f4d49b3492a52357406cde10cbfd3593275 (1)/contracts/CrainExecutive.sol\":1678:1750  require(isEmployee[msg.sender] == true && isManager[msg.sender] == true) */\n      tag_125\n      jumpi\n      0x00\n      dup1\n      revert\n    tag_125:\n        /* \"Executive_Problem/020fc6afbb603263f80b08100e158f4d49b3492a52357406cde10cbfd3593275 (1)/contracts/CrainExecutive.sol\":1793:1800  5 ether */\n      0x4563918244f40000\n        /* \"Executive_Problem/020fc6afbb603263f80b08100e158f4d49b3492a52357406cde10cbfd3593275 (1)/contracts/CrainExecutive.sol\":1768:1777  balanceOf */\n      0x03\n        /* \"Executive_Problem/020fc6afbb603263f80b08100e158f4d49b3492a52357406cde10cbfd3593275 (1)/contracts/CrainExecutive.sol\":1768:1789  balanceOf[msg.sender] */\n      0x00\n        /* \"Executive_Problem/020fc6afbb603263f80b08100e158f4d49b3492a52357406cde10cbfd3593275 (1)/contracts/CrainExecutive.sol\":1778:1788  msg.sender */\n      caller\n        /* \"Executive_Problem/020fc6afbb603263f80b08100e158f4d49b3492a52357406cde10cbfd3593275 (1)/contracts/CrainExecutive.sol\":1768:1789  balanceOf[msg.sender] */\n      0xffffffffffffffffffffffffffffffffffffffff\n      and\n      0xffffffffffffffffffffffffffffffffffffffff\n      and\n      dup2\n      mstore\n      0x20\n      add\n      swap1\n      dup2\n      mstore\n      0x20\n      add\n      0x00\n      keccak256\n      sload\n        /* \"Executive_Problem/020fc6afbb603263f80b08100e158f4d49b3492a52357406cde10cbfd3593275 (1)/contracts/CrainExecutive.sol\":1768:1800  balanceOf[msg.sender] >= 5 ether */\n      lt\n      iszero\n        /* \"Executive_Problem/020fc6afbb603263f80b08100e158f4d49b3492a52357406cde10cbfd3593275 (1)/contracts/CrainExecutive.sol\":1760:1845  require(balanceOf[msg.sender] >= 5 ether, \"Must be that Rich to become an Executive\") */\n      tag_126\n      jumpi\n      mload(0x40)\n      0x08c379a000000000000000000000000000000000000000000000000000000000\n      dup2\n      mstore\n      0x04\n      add\n      tag_127\n      swap1\n      tag_128\n      jump\t// in\n    tag_127:\n      mload(0x40)\n      dup1\n      swap2\n      sub\n      swap1\n      revert\n    tag_126:\n        /* \"Executive_Problem/020fc6afbb603263f80b08100e158f4d49b3492a52357406cde10cbfd3593275 (1)/contracts/CrainExecutive.sol\":1881:1885  true */\n      0x01\n        /* \"Executive_Problem/020fc6afbb603263f80b08100e158f4d49b3492a52357406cde10cbfd3593275 (1)/contracts/CrainExecutive.sol\":1855:1866  isExecutive */\n      0x08\n        /* \"Executive_Problem/020fc6afbb603263f80b08100e158f4d49b3492a52357406cde10cbfd3593275 (1)/contracts/CrainExecutive.sol\":1855:1878  isExecutive[msg.sender] */\n      0x00\n        /* \"Executive_Problem/020fc6afbb603263f80b08100e158f4d49b3492a52357406cde10cbfd3593275 (1)/contracts/CrainExecutive.sol\":1867:1877  msg.sender */\n      caller\n        /* \"Executive_Problem/020fc6afbb603263f80b08100e158f4d49b3492a52357406cde10cbfd3593275 (1)/contracts/CrainExecutive.sol\":1855:1878  isExecutive[msg.sender] */\n      0xffffffffffffffffffffffffffffffffffffffff\n      and\n      0xffffffffffffffffffffffffffffffffffffffff\n      and\n      dup2\n      mstore\n      0x20\n      add\n      swap1\n      dup2\n      mstore\n      0x20\n      add\n      0x00\n      keccak256\n      0x00\n        /* \"Executive_Problem/020fc6afbb603263f80b08100e158f4d49b3492a52357406cde10cbfd3593275 (1)/contracts/CrainExecutive.sol\":1855:1885  isExecutive[msg.sender] = true */\n      0x0100\n      exp\n      dup2\n      sload\n      dup2\n      0xff\n      mul\n      not\n      and\n      swap1\n      dup4\n      iszero\n      iszero\n      mul\n      or\n      swap1\n      sstore\n      pop\n        /* \"Executive_Problem/020fc6afbb603263f80b08100e158f4d49b3492a52357406cde10cbfd3593275 (1)/contracts/CrainExecutive.sol\":1634:1892  function becomeExecutive() public {... */\n      jump\t// out\n        /* \"Executive_Problem/020fc6afbb603263f80b08100e158f4d49b3492a52357406cde10cbfd3593275 (1)/contracts/CrainExecutive.sol\":2144:2399  function sellCredit(uint256 _amount) public _onlyEmployee{... */\n    tag_68:\n        /* \"Executive_Problem/020fc6afbb603263f80b08100e158f4d49b3492a52357406cde10cbfd3593275 (1)/contracts/CrainExecutive.sol\":951:955  true */\n      0x01\n        /* \"Executive_Problem/020fc6afbb603263f80b08100e158f4d49b3492a52357406cde10cbfd3593275 (1)/contracts/CrainExecutive.sol\":925:955  isEmployee[msg.sender] == true */\n      iszero\n      iszero\n        /* \"Executive_Problem/020fc6afbb603263f80b08100e158f4d49b3492a52357406cde10cbfd3593275 (1)/contracts/CrainExecutive.sol\":925:935  isEmployee */\n      0x06\n        /* \"Executive_Problem/020fc6afbb603263f80b08100e158f4d49b3492a52357406cde10cbfd3593275 (1)/contracts/CrainExecutive.sol\":925:947  isEmployee[msg.sender] */\n      0x00\n        /* \"Executive_Problem/020fc6afbb603263f80b08100e158f4d49b3492a52357406cde10cbfd3593275 (1)/contracts/CrainExecutive.sol\":936:946  msg.sender */\n      caller\n        /* \"Executive_Problem/020fc6afbb603263f80b08100e158f4d49b3492a52357406cde10cbfd3593275 (1)/contracts/CrainExecutive.sol\":925:947  isEmployee[msg.sender] */\n      0xffffffffffffffffffffffffffffffffffffffff\n      and\n      0xffffffffffffffffffffffffffffffffffffffff\n      and\n      dup2\n      mstore\n      0x20\n      add\n      swap1\n      dup2\n      mstore\n      0x20\n      add\n      0x00\n      keccak256\n      0x00\n      swap1\n      sload\n      swap1\n      0x0100\n      exp\n      swap1\n      div\n      0xff\n      and\n        /* \"Executive_Problem/020fc6afbb603263f80b08100e158f4d49b3492a52357406cde10cbfd3593275 (1)/contracts/CrainExecutive.sol\":925:955  isEmployee[msg.sender] == true */\n      iszero\n      iszero\n      eq\n        /* \"Executive_Problem/020fc6afbb603263f80b08100e158f4d49b3492a52357406cde10cbfd3593275 (1)/contracts/CrainExecutive.sol\":917:987  require(isEmployee[msg.sender] == true, \"Only Employee can exchange!\") */\n      tag_130\n      jumpi\n      mload(0x40)\n      0x08c379a000000000000000000000000000000000000000000000000000000000\n      dup2\n      mstore\n      0x04\n      add\n      tag_131\n      swap1\n      tag_95\n      jump\t// in\n    tag_131:\n      mload(0x40)\n      dup1\n      swap2\n      sub\n      swap1\n      revert\n    tag_130:\n        /* \"Executive_Problem/020fc6afbb603263f80b08100e158f4d49b3492a52357406cde10cbfd3593275 (1)/contracts/CrainExecutive.sol\":2254:2255  0 */\n      0x00\n        /* \"Executive_Problem/020fc6afbb603263f80b08100e158f4d49b3492a52357406cde10cbfd3593275 (1)/contracts/CrainExecutive.sol\":2243:2250  _amount */\n      dup2\n        /* \"Executive_Problem/020fc6afbb603263f80b08100e158f4d49b3492a52357406cde10cbfd3593275 (1)/contracts/CrainExecutive.sol\":2219:2228  balanceOf */\n      0x03\n        /* \"Executive_Problem/020fc6afbb603263f80b08100e158f4d49b3492a52357406cde10cbfd3593275 (1)/contracts/CrainExecutive.sol\":2219:2240  balanceOf[msg.sender] */\n      0x00\n        /* \"Executive_Problem/020fc6afbb603263f80b08100e158f4d49b3492a52357406cde10cbfd3593275 (1)/contracts/CrainExecutive.sol\":2229:2239  msg.sender */\n      caller\n        /* \"Executive_Problem/020fc6afbb603263f80b08100e158f4d49b3492a52357406cde10cbfd3593275 (1)/contracts/CrainExecutive.sol\":2219:2240  balanceOf[msg.sender] */\n      0xffffffffffffffffffffffffffffffffffffffff\n      and\n      0xffffffffffffffffffffffffffffffffffffffff\n      and\n      dup2\n      mstore\n      0x20\n      add\n      swap1\n      dup2\n      mstore\n      0x20\n      add\n      0x00\n      keccak256\n      sload\n        /* \"Executive_Problem/020fc6afbb603263f80b08100e158f4d49b3492a52357406cde10cbfd3593275 (1)/contracts/CrainExecutive.sol\":2219:2250  balanceOf[msg.sender] - _amount */\n      tag_133\n      swap2\n      swap1\n      tag_111\n      jump\t// in\n    tag_133:\n        /* \"Executive_Problem/020fc6afbb603263f80b08100e158f4d49b3492a52357406cde10cbfd3593275 (1)/contracts/CrainExecutive.sol\":2219:2255  balanceOf[msg.sender] - _amount >= 0 */\n      lt\n      iszero\n        /* \"Executive_Problem/020fc6afbb603263f80b08100e158f4d49b3492a52357406cde10cbfd3593275 (1)/contracts/CrainExecutive.sol\":2211:2277  require(balanceOf[msg.sender] - _amount >= 0, \"Not Enough Credit\") */\n      tag_134\n      jumpi\n      mload(0x40)\n      0x08c379a000000000000000000000000000000000000000000000000000000000\n      dup2\n      mstore\n      0x04\n      add\n      tag_135\n      swap1\n      tag_136\n      jump\t// in\n    tag_135:\n      mload(0x40)\n      dup1\n      swap2\n      sub\n      swap1\n      revert\n    tag_134:\n        /* \"Executive_Problem/020fc6afbb603263f80b08100e158f4d49b3492a52357406cde10cbfd3593275 (1)/contracts/CrainExecutive.sol\":2287:2304  uint256 totalSold */\n      0x00\n        /* \"Executive_Problem/020fc6afbb603263f80b08100e158f4d49b3492a52357406cde10cbfd3593275 (1)/contracts/CrainExecutive.sol\":2307:2314  _amount */\n      dup2\n        /* \"Executive_Problem/020fc6afbb603263f80b08100e158f4d49b3492a52357406cde10cbfd3593275 (1)/contracts/CrainExecutive.sol\":2287:2314  uint256 totalSold = _amount */\n      swap1\n      pop\n        /* \"Executive_Problem/020fc6afbb603263f80b08100e158f4d49b3492a52357406cde10cbfd3593275 (1)/contracts/CrainExecutive.sol\":2349:2358  totalSold */\n      dup1\n        /* \"Executive_Problem/020fc6afbb603263f80b08100e158f4d49b3492a52357406cde10cbfd3593275 (1)/contracts/CrainExecutive.sol\":2324:2333  balanceOf */\n      0x03\n        /* \"Executive_Problem/020fc6afbb603263f80b08100e158f4d49b3492a52357406cde10cbfd3593275 (1)/contracts/CrainExecutive.sol\":2324:2345  balanceOf[msg.sender] */\n      0x00\n        /* \"Executive_Problem/020fc6afbb603263f80b08100e158f4d49b3492a52357406cde10cbfd3593275 (1)/contracts/CrainExecutive.sol\":2334:2344  msg.sender */\n      caller\n        /* \"Executive_Problem/020fc6afbb603263f80b08100e158f4d49b3492a52357406cde10cbfd3593275 (1)/contracts/CrainExecutive.sol\":2324:2345  balanceOf[msg.sender] */\n      0xffffffffffffffffffffffffffffffffffffffff\n      and\n      0xffffffffffffffffffffffffffffffffffffffff\n      and\n      dup2\n      mstore\n      0x20\n      add\n      swap1\n      dup2\n      mstore\n      0x20\n      add\n      0x00\n      keccak256\n      0x00\n        /* \"Executive_Problem/020fc6afbb603263f80b08100e158f4d49b3492a52357406cde10cbfd3593275 (1)/contracts/CrainExecutive.sol\":2324:2358  balanceOf[msg.sender] -= totalSold */\n      dup3\n      dup3\n      sload\n      tag_137\n      swap2\n      swap1\n      tag_111\n      jump\t// in\n    tag_137:\n      swap3\n      pop\n      pop\n      dup2\n      swap1\n      sstore\n      pop\n        /* \"Executive_Problem/020fc6afbb603263f80b08100e158f4d49b3492a52357406cde10cbfd3593275 (1)/contracts/CrainExecutive.sol\":2383:2392  totalSold */\n      dup1\n        /* \"Executive_Problem/020fc6afbb603263f80b08100e158f4d49b3492a52357406cde10cbfd3593275 (1)/contracts/CrainExecutive.sol\":2368:2379  totalSupply */\n      0x01\n      0x00\n        /* \"Executive_Problem/020fc6afbb603263f80b08100e158f4d49b3492a52357406cde10cbfd3593275 (1)/contracts/CrainExecutive.sol\":2368:2392  totalSupply -= totalSold */\n      dup3\n      dup3\n      sload\n      tag_138\n      swap2\n      swap1\n      tag_111\n      jump\t// in\n    tag_138:\n      swap3\n      pop\n      pop\n      dup2\n      swap1\n      sstore\n      pop\n        /* \"Executive_Problem/020fc6afbb603263f80b08100e158f4d49b3492a52357406cde10cbfd3593275 (1)/contracts/CrainExecutive.sol\":2201:2399  {... */\n      pop\n        /* \"Executive_Problem/020fc6afbb603263f80b08100e158f4d49b3492a52357406cde10cbfd3593275 (1)/contracts/CrainExecutive.sol\":2144:2399  function sellCredit(uint256 _amount) public _onlyEmployee{... */\n      pop\n      jump\t// out\n        /* \"Executive_Problem/020fc6afbb603263f80b08100e158f4d49b3492a52357406cde10cbfd3593275 (1)/contracts/CrainExecutive.sol\":1289:1368  function becomeEmployee() public {... */\n    tag_71:\n        /* \"Executive_Problem/020fc6afbb603263f80b08100e158f4d49b3492a52357406cde10cbfd3593275 (1)/contracts/CrainExecutive.sol\":1357:1361  true */\n      0x01\n        /* \"Executive_Problem/020fc6afbb603263f80b08100e158f4d49b3492a52357406cde10cbfd3593275 (1)/contracts/CrainExecutive.sol\":1332:1342  isEmployee */\n      0x06\n        /* \"Executive_Problem/020fc6afbb603263f80b08100e158f4d49b3492a52357406cde10cbfd3593275 (1)/contracts/CrainExecutive.sol\":1332:1354  isEmployee[msg.sender] */\n      0x00\n        /* \"Executive_Problem/020fc6afbb603263f80b08100e158f4d49b3492a52357406cde10cbfd3593275 (1)/contracts/CrainExecutive.sol\":1343:1353  msg.sender */\n      caller\n        /* \"Executive_Problem/020fc6afbb603263f80b08100e158f4d49b3492a52357406cde10cbfd3593275 (1)/contracts/CrainExecutive.sol\":1332:1354  isEmployee[msg.sender] */\n      0xffffffffffffffffffffffffffffffffffffffff\n      and\n      0xffffffffffffffffffffffffffffffffffffffff\n      and\n      dup2\n      mstore\n      0x20\n      add\n      swap1\n      dup2\n      mstore\n      0x20\n      add\n      0x00\n      keccak256\n      0x00\n        /* \"Executive_Problem/020fc6afbb603263f80b08100e158f4d49b3492a52357406cde10cbfd3593275 (1)/contracts/CrainExecutive.sol\":1332:1361  isEmployee[msg.sender] = true */\n      0x0100\n      exp\n      dup2\n      sload\n      dup2\n      0xff\n      mul\n      not\n      and\n      swap1\n      dup4\n      iszero\n      iszero\n      mul\n      or\n      swap1\n      sstore\n      pop\n        /* \"Executive_Problem/020fc6afbb603263f80b08100e158f4d49b3492a52357406cde10cbfd3593275 (1)/contracts/CrainExecutive.sol\":1289:1368  function becomeEmployee() public {... */\n      jump\t// out\n        /* \"Executive_Problem/020fc6afbb603263f80b08100e158f4d49b3492a52357406cde10cbfd3593275 (1)/contracts/CrainExecutive.sol\":2405:2903  function transfer(address to, uint256 _amount, bytes memory _message) public _onlyExecutive{... */\n    tag_76:\n        /* \"Executive_Problem/020fc6afbb603263f80b08100e158f4d49b3492a52357406cde10cbfd3593275 (1)/contracts/CrainExecutive.sol\":697:701  true */\n      0x01\n        /* \"Executive_Problem/020fc6afbb603263f80b08100e158f4d49b3492a52357406cde10cbfd3593275 (1)/contracts/CrainExecutive.sol\":670:701  isExecutive[msg.sender] == true */\n      iszero\n      iszero\n        /* \"Executive_Problem/020fc6afbb603263f80b08100e158f4d49b3492a52357406cde10cbfd3593275 (1)/contracts/CrainExecutive.sol\":670:681  isExecutive */\n      0x08\n        /* \"Executive_Problem/020fc6afbb603263f80b08100e158f4d49b3492a52357406cde10cbfd3593275 (1)/contracts/CrainExecutive.sol\":670:693  isExecutive[msg.sender] */\n      0x00\n        /* \"Executive_Problem/020fc6afbb603263f80b08100e158f4d49b3492a52357406cde10cbfd3593275 (1)/contracts/CrainExecutive.sol\":682:692  msg.sender */\n      caller\n        /* \"Executive_Problem/020fc6afbb603263f80b08100e158f4d49b3492a52357406cde10cbfd3593275 (1)/contracts/CrainExecutive.sol\":670:693  isExecutive[msg.sender] */\n      0xffffffffffffffffffffffffffffffffffffffff\n      and\n      0xffffffffffffffffffffffffffffffffffffffff\n      and\n      dup2\n      mstore\n      0x20\n      add\n      swap1\n      dup2\n      mstore\n      0x20\n      add\n      0x00\n      keccak256\n      0x00\n      swap1\n      sload\n      swap1\n      0x0100\n      exp\n      swap1\n      div\n      0xff\n      and\n        /* \"Executive_Problem/020fc6afbb603263f80b08100e158f4d49b3492a52357406cde10cbfd3593275 (1)/contracts/CrainExecutive.sol\":670:701  isExecutive[msg.sender] == true */\n      iszero\n      iszero\n      eq\n        /* \"Executive_Problem/020fc6afbb603263f80b08100e158f4d49b3492a52357406cde10cbfd3593275 (1)/contracts/CrainExecutive.sol\":662:733  require(isExecutive[msg.sender] == true, \"Only Higher Ups can access!\") */\n      tag_141\n      jumpi\n      mload(0x40)\n      0x08c379a000000000000000000000000000000000000000000000000000000000\n      dup2\n      mstore\n      0x04\n      add\n      tag_142\n      swap1\n      tag_143\n      jump\t// in\n    tag_142:\n      mload(0x40)\n      dup1\n      swap2\n      sub\n      swap1\n      revert\n    tag_141:\n        /* \"Executive_Problem/020fc6afbb603263f80b08100e158f4d49b3492a52357406cde10cbfd3593275 (1)/contracts/CrainExecutive.sol\":2528:2529  0 */\n      0x00\n        /* \"Executive_Problem/020fc6afbb603263f80b08100e158f4d49b3492a52357406cde10cbfd3593275 (1)/contracts/CrainExecutive.sol\":2514:2530  to != address(0) */\n      0xffffffffffffffffffffffffffffffffffffffff\n      and\n        /* \"Executive_Problem/020fc6afbb603263f80b08100e158f4d49b3492a52357406cde10cbfd3593275 (1)/contracts/CrainExecutive.sol\":2514:2516  to */\n      dup4\n        /* \"Executive_Problem/020fc6afbb603263f80b08100e158f4d49b3492a52357406cde10cbfd3593275 (1)/contracts/CrainExecutive.sol\":2514:2530  to != address(0) */\n      0xffffffffffffffffffffffffffffffffffffffff\n      and\n      sub\n        /* \"Executive_Problem/020fc6afbb603263f80b08100e158f4d49b3492a52357406cde10cbfd3593275 (1)/contracts/CrainExecutive.sol\":2506:2552  require(to != address(0), \"Invalid Recipient\") */\n      tag_145\n      jumpi\n      mload(0x40)\n      0x08c379a000000000000000000000000000000000000000000000000000000000\n      dup2\n      mstore\n      0x04\n      add\n      tag_146\n      swap1\n      tag_147\n      jump\t// in\n    tag_146:\n      mload(0x40)\n      dup1\n      swap2\n      sub\n      swap1\n      revert\n    tag_145:\n        /* \"Executive_Problem/020fc6afbb603263f80b08100e158f4d49b3492a52357406cde10cbfd3593275 (1)/contracts/CrainExecutive.sol\":2605:2606  0 */\n      0x00\n        /* \"Executive_Problem/020fc6afbb603263f80b08100e158f4d49b3492a52357406cde10cbfd3593275 (1)/contracts/CrainExecutive.sol\":2594:2601  _amount */\n      dup3\n        /* \"Executive_Problem/020fc6afbb603263f80b08100e158f4d49b3492a52357406cde10cbfd3593275 (1)/contracts/CrainExecutive.sol\":2570:2579  balanceOf */\n      0x03\n        /* \"Executive_Problem/020fc6afbb603263f80b08100e158f4d49b3492a52357406cde10cbfd3593275 (1)/contracts/CrainExecutive.sol\":2570:2591  balanceOf[msg.sender] */\n      0x00\n        /* \"Executive_Problem/020fc6afbb603263f80b08100e158f4d49b3492a52357406cde10cbfd3593275 (1)/contracts/CrainExecutive.sol\":2580:2590  msg.sender */\n      caller\n        /* \"Executive_Problem/020fc6afbb603263f80b08100e158f4d49b3492a52357406cde10cbfd3593275 (1)/contracts/CrainExecutive.sol\":2570:2591  balanceOf[msg.sender] */\n      0xffffffffffffffffffffffffffffffffffffffff\n      and\n      0xffffffffffffffffffffffffffffffffffffffff\n      and\n      dup2\n      mstore\n      0x20\n      add\n      swap1\n      dup2\n      mstore\n      0x20\n      add\n      0x00\n      keccak256\n      sload\n        /* \"Executive_Problem/020fc6afbb603263f80b08100e158f4d49b3492a52357406cde10cbfd3593275 (1)/contracts/CrainExecutive.sol\":2570:2601  balanceOf[msg.sender] - _amount */\n      tag_148\n      swap2\n      swap1\n      tag_111\n      jump\t// in\n    tag_148:\n        /* \"Executive_Problem/020fc6afbb603263f80b08100e158f4d49b3492a52357406cde10cbfd3593275 (1)/contracts/CrainExecutive.sol\":2570:2606  balanceOf[msg.sender] - _amount >= 0 */\n      lt\n      iszero\n        /* \"Executive_Problem/020fc6afbb603263f80b08100e158f4d49b3492a52357406cde10cbfd3593275 (1)/contracts/CrainExecutive.sol\":2562:2628  require(balanceOf[msg.sender] - _amount >= 0, \"Not enough Credit\") */\n      tag_149\n      jumpi\n      mload(0x40)\n      0x08c379a000000000000000000000000000000000000000000000000000000000\n      dup2\n      mstore\n      0x04\n      add\n      tag_150\n      swap1\n      tag_151\n      jump\t// in\n    tag_150:\n      mload(0x40)\n      dup1\n      swap2\n      sub\n      swap1\n      revert\n    tag_149:\n        /* \"Executive_Problem/020fc6afbb603263f80b08100e158f4d49b3492a52357406cde10cbfd3593275 (1)/contracts/CrainExecutive.sol\":2638:2655  uint256 totalSent */\n      0x00\n        /* \"Executive_Problem/020fc6afbb603263f80b08100e158f4d49b3492a52357406cde10cbfd3593275 (1)/contracts/CrainExecutive.sol\":2658:2665  _amount */\n      dup3\n        /* \"Executive_Problem/020fc6afbb603263f80b08100e158f4d49b3492a52357406cde10cbfd3593275 (1)/contracts/CrainExecutive.sol\":2638:2665  uint256 totalSent = _amount */\n      swap1\n      pop\n        /* \"Executive_Problem/020fc6afbb603263f80b08100e158f4d49b3492a52357406cde10cbfd3593275 (1)/contracts/CrainExecutive.sol\":2700:2709  totalSent */\n      dup1\n        /* \"Executive_Problem/020fc6afbb603263f80b08100e158f4d49b3492a52357406cde10cbfd3593275 (1)/contracts/CrainExecutive.sol\":2675:2684  balanceOf */\n      0x03\n        /* \"Executive_Problem/020fc6afbb603263f80b08100e158f4d49b3492a52357406cde10cbfd3593275 (1)/contracts/CrainExecutive.sol\":2675:2696  balanceOf[msg.sender] */\n      0x00\n        /* \"Executive_Problem/020fc6afbb603263f80b08100e158f4d49b3492a52357406cde10cbfd3593275 (1)/contracts/CrainExecutive.sol\":2685:2695  msg.sender */\n      caller\n        /* \"Executive_Problem/020fc6afbb603263f80b08100e158f4d49b3492a52357406cde10cbfd3593275 (1)/contracts/CrainExecutive.sol\":2675:2696  balanceOf[msg.sender] */\n      0xffffffffffffffffffffffffffffffffffffffff\n      and\n      0xffffffffffffffffffffffffffffffffffffffff\n      and\n      dup2\n      mstore\n      0x20\n      add\n      swap1\n      dup2\n      mstore\n      0x20\n      add\n      0x00\n      keccak256\n      0x00\n        /* \"Executive_Problem/020fc6afbb603263f80b08100e158f4d49b3492a52357406cde10cbfd3593275 (1)/contracts/CrainExecutive.sol\":2675:2709  balanceOf[msg.sender] -= totalSent */\n      dup3\n      dup3\n      sload\n      tag_152\n      swap2\n      swap1\n      tag_111\n      jump\t// in\n    tag_152:\n      swap3\n      pop\n      pop\n      dup2\n      swap1\n      sstore\n      pop\n        /* \"Executive_Problem/020fc6afbb603263f80b08100e158f4d49b3492a52357406cde10cbfd3593275 (1)/contracts/CrainExecutive.sol\":2736:2745  totalSent */\n      dup1\n        /* \"Executive_Problem/020fc6afbb603263f80b08100e158f4d49b3492a52357406cde10cbfd3593275 (1)/contracts/CrainExecutive.sol\":2719:2728  balanceOf */\n      0x03\n        /* \"Executive_Problem/020fc6afbb603263f80b08100e158f4d49b3492a52357406cde10cbfd3593275 (1)/contracts/CrainExecutive.sol\":2719:2732  balanceOf[to] */\n      0x00\n        /* \"Executive_Problem/020fc6afbb603263f80b08100e158f4d49b3492a52357406cde10cbfd3593275 (1)/contracts/CrainExecutive.sol\":2729:2731  to */\n      dup7\n        /* \"Executive_Problem/020fc6afbb603263f80b08100e158f4d49b3492a52357406cde10cbfd3593275 (1)/contracts/CrainExecutive.sol\":2719:2732  balanceOf[to] */\n      0xffffffffffffffffffffffffffffffffffffffff\n      and\n      0xffffffffffffffffffffffffffffffffffffffff\n      and\n      dup2\n      mstore\n      0x20\n      add\n      swap1\n      dup2\n      mstore\n      0x20\n      add\n      0x00\n      keccak256\n      0x00\n        /* \"Executive_Problem/020fc6afbb603263f80b08100e158f4d49b3492a52357406cde10cbfd3593275 (1)/contracts/CrainExecutive.sol\":2719:2745  balanceOf[to] += totalSent */\n      dup3\n      dup3\n      sload\n      tag_153\n      swap2\n      swap1\n      tag_113\n      jump\t// in\n    tag_153:\n      swap3\n      pop\n      pop\n      dup2\n      swap1\n      sstore\n      pop\n        /* \"Executive_Problem/020fc6afbb603263f80b08100e158f4d49b3492a52357406cde10cbfd3593275 (1)/contracts/CrainExecutive.sol\":2756:2771  bool transfered */\n      0x00\n        /* \"Executive_Problem/020fc6afbb603263f80b08100e158f4d49b3492a52357406cde10cbfd3593275 (1)/contracts/CrainExecutive.sol\":2785:2787  to */\n      dup5\n        /* \"Executive_Problem/020fc6afbb603263f80b08100e158f4d49b3492a52357406cde10cbfd3593275 (1)/contracts/CrainExecutive.sol\":2777:2793  payable(to).call */\n      0xffffffffffffffffffffffffffffffffffffffff\n      and\n        /* \"Executive_Problem/020fc6afbb603263f80b08100e158f4d49b3492a52357406cde10cbfd3593275 (1)/contracts/CrainExecutive.sol\":2801:2808  _amount */\n      dup5\n        /* \"Executive_Problem/020fc6afbb603263f80b08100e158f4d49b3492a52357406cde10cbfd3593275 (1)/contracts/CrainExecutive.sol\":2827:2835  _message */\n      dup5\n        /* \"Executive_Problem/020fc6afbb603263f80b08100e158f4d49b3492a52357406cde10cbfd3593275 (1)/contracts/CrainExecutive.sol\":2810:2836  abi.encodePacked(_message) */\n      add(0x20, mload(0x40))\n      tag_154\n      swap2\n      swap1\n      tag_155\n      jump\t// in\n    tag_154:\n      mload(0x40)\n      0x20\n      dup2\n      dup4\n      sub\n      sub\n      dup2\n      mstore\n      swap1\n      0x40\n      mstore\n        /* \"Executive_Problem/020fc6afbb603263f80b08100e158f4d49b3492a52357406cde10cbfd3593275 (1)/contracts/CrainExecutive.sol\":2777:2837  payable(to).call{value: _amount}(abi.encodePacked(_message)) */\n      mload(0x40)\n      tag_156\n      swap2\n      swap1\n      tag_155\n      jump\t// in\n    tag_156:\n      0x00\n      mload(0x40)\n      dup1\n      dup4\n      sub\n      dup2\n      dup6\n      dup8\n      gas\n      call\n      swap3\n      pop\n      pop\n      pop\n      returndatasize\n      dup1\n      0x00\n      dup2\n      eq\n      tag_159\n      jumpi\n      mload(0x40)\n      swap2\n      pop\n      and(add(returndatasize, 0x3f), not(0x1f))\n      dup3\n      add\n      0x40\n      mstore\n      returndatasize\n      dup3\n      mstore\n      returndatasize\n      0x00\n      0x20\n      dup5\n      add\n      returndatacopy\n      jump(tag_158)\n    tag_159:\n      0x60\n      swap2\n      pop\n    tag_158:\n      pop\n        /* \"Executive_Problem/020fc6afbb603263f80b08100e158f4d49b3492a52357406cde10cbfd3593275 (1)/contracts/CrainExecutive.sol\":2755:2837  (bool transfered, ) = payable(to).call{value: _amount}(abi.encodePacked(_message)) */\n      pop\n      swap1\n      pop\n        /* \"Executive_Problem/020fc6afbb603263f80b08100e158f4d49b3492a52357406cde10cbfd3593275 (1)/contracts/CrainExecutive.sol\":2855:2865  transfered */\n      dup1\n        /* \"Executive_Problem/020fc6afbb603263f80b08100e158f4d49b3492a52357406cde10cbfd3593275 (1)/contracts/CrainExecutive.sol\":2847:2896  require(transfered, \"Failed to Transfer Credit!\") */\n      tag_160\n      jumpi\n      mload(0x40)\n      0x08c379a000000000000000000000000000000000000000000000000000000000\n      dup2\n      mstore\n      0x04\n      add\n      tag_161\n      swap1\n      tag_162\n      jump\t// in\n    tag_161:\n      mload(0x40)\n      dup1\n      swap2\n      sub\n      swap1\n      revert\n    tag_160:\n        /* \"Executive_Problem/020fc6afbb603263f80b08100e158f4d49b3492a52357406cde10cbfd3593275 (1)/contracts/CrainExecutive.sol\":2496:2903  {... */\n      pop\n      pop\n        /* \"Executive_Problem/020fc6afbb603263f80b08100e158f4d49b3492a52357406cde10cbfd3593275 (1)/contracts/CrainExecutive.sol\":2405:2903  function transfer(address to, uint256 _amount, bytes memory _message) public _onlyExecutive{... */\n      pop\n      pop\n      pop\n      jump\t// out\n        /* \"Executive_Problem/020fc6afbb603263f80b08100e158f4d49b3492a52357406cde10cbfd3593275 (1)/contracts/CrainExecutive.sol\":438:481  mapping(address => bool) public isExecutive */\n    tag_80:\n      mstore(0x20, 0x08)\n      dup1\n      0x00\n      mstore\n      keccak256(0x00, 0x40)\n      0x00\n      swap2\n      pop\n      sload\n      swap1\n      0x0100\n      exp\n      swap1\n      div\n      0xff\n      and\n      dup2\n      jump\t// out\n        /* \"Executive_Problem/020fc6afbb603263f80b08100e158f4d49b3492a52357406cde10cbfd3593275 (1)/contracts/CrainExecutive.sol\":343:385  mapping(address => bool) public isEmployee */\n    tag_85:\n      mstore(0x20, 0x06)\n      dup1\n      0x00\n      mstore\n      keccak256(0x00, 0x40)\n      0x00\n      swap2\n      pop\n      sload\n      swap1\n      0x0100\n      exp\n      swap1\n      div\n      0xff\n      and\n      dup2\n      jump\t// out\n        /* \"Executive_Problem/020fc6afbb603263f80b08100e158f4d49b3492a52357406cde10cbfd3593275 (1)/contracts/CrainExecutive.sol\":391:432  mapping(address => bool) public isManager */\n    tag_90:\n      mstore(0x20, 0x07)\n      dup1\n      0x00\n      mstore\n      keccak256(0x00, 0x40)\n      0x00\n      swap2\n      pop\n      sload\n      swap1\n      0x0100\n      exp\n      swap1\n      div\n      0xff\n      and\n      dup2\n      jump\t// out\n        /* \"#utility.yul\":7:84   */\n    tag_163:\n        /* \"#utility.yul\":44:51   */\n      0x00\n        /* \"#utility.yul\":73:78   */\n      dup2\n        /* \"#utility.yul\":62:78   */\n      swap1\n      pop\n        /* \"#utility.yul\":7:84   */\n      swap2\n      swap1\n      pop\n      jump\t// out\n        /* \"#utility.yul\":90:208   */\n    tag_164:\n        /* \"#utility.yul\":177:201   */\n      tag_218\n        /* \"#utility.yul\":195:200   */\n      dup2\n        /* \"#utility.yul\":177:201   */\n      tag_163\n      jump\t// in\n    tag_218:\n        /* \"#utility.yul\":172:175   */\n      dup3\n        /* \"#utility.yul\":165:202   */\n      mstore\n        /* \"#utility.yul\":90:208   */\n      pop\n      pop\n      jump\t// out\n        /* \"#utility.yul\":214:436   */\n    tag_25:\n        /* \"#utility.yul\":307:311   */\n      0x00\n        /* \"#utility.yul\":345:347   */\n      0x20\n        /* \"#utility.yul\":334:343   */\n      dup3\n        /* \"#utility.yul\":330:348   */\n      add\n        /* \"#utility.yul\":322:348   */\n      swap1\n      pop\n        /* \"#utility.yul\":358:429   */\n      tag_220\n        /* \"#utility.yul\":426:427   */\n      0x00\n        /* \"#utility.yul\":415:424   */\n      dup4\n        /* \"#utility.yul\":411:428   */\n      add\n        /* \"#utility.yul\":402:408   */\n      dup5\n        /* \"#utility.yul\":358:429   */\n      tag_164\n      jump\t// in\n    tag_220:\n        /* \"#utility.yul\":214:436   */\n      swap3\n      swap2\n      pop\n      pop\n      jump\t// out\n        /* \"#utility.yul\":442:517   */\n    tag_165:\n        /* \"#utility.yul\":475:481   */\n      0x00\n        /* \"#utility.yul\":508:510   */\n      0x40\n        /* \"#utility.yul\":502:511   */\n      mload\n        /* \"#utility.yul\":492:511   */\n      swap1\n      pop\n        /* \"#utility.yul\":442:517   */\n      swap1\n      jump\t// out\n        /* \"#utility.yul\":523:640   */\n    tag_166:\n        /* \"#utility.yul\":632:633   */\n      0x00\n        /* \"#utility.yul\":629:630   */\n      dup1\n        /* \"#utility.yul\":622:634   */\n      revert\n        /* \"#utility.yul\":646:763   */\n    tag_167:\n        /* \"#utility.yul\":755:756   */\n      0x00\n        /* \"#utility.yul\":752:753   */\n      dup1\n        /* \"#utility.yul\":745:757   */\n      revert\n        /* \"#utility.yul\":769:895   */\n    tag_168:\n        /* \"#utility.yul\":806:813   */\n      0x00\n        /* \"#utility.yul\":846:888   */\n      0xffffffffffffffffffffffffffffffffffffffff\n        /* \"#utility.yul\":839:844   */\n      dup3\n        /* \"#utility.yul\":835:889   */\n      and\n        /* \"#utility.yul\":824:889   */\n      swap1\n      pop\n        /* \"#utility.yul\":769:895   */\n      swap2\n      swap1\n      pop\n      jump\t// out\n        /* \"#utility.yul\":901:997   */\n    tag_169:\n        /* \"#utility.yul\":938:945   */\n      0x00\n        /* \"#utility.yul\":967:991   */\n      tag_226\n        /* \"#utility.yul\":985:990   */\n      dup3\n        /* \"#utility.yul\":967:991   */\n      tag_168\n      jump\t// in\n    tag_226:\n        /* \"#utility.yul\":956:991   */\n      swap1\n      pop\n        /* \"#utility.yul\":901:997   */\n      swap2\n      swap1\n      pop\n      jump\t// out\n        /* \"#utility.yul\":1003:1125   */\n    tag_170:\n        /* \"#utility.yul\":1076:1100   */\n      tag_228\n        /* \"#utility.yul\":1094:1099   */\n      dup2\n        /* \"#utility.yul\":1076:1100   */\n      tag_169\n      jump\t// in\n    tag_228:\n        /* \"#utility.yul\":1069:1074   */\n      dup2\n        /* \"#utility.yul\":1066:1101   */\n      eq\n        /* \"#utility.yul\":1056:1119   */\n      tag_229\n      jumpi\n        /* \"#utility.yul\":1115:1116   */\n      0x00\n        /* \"#utility.yul\":1112:1113   */\n      dup1\n        /* \"#utility.yul\":1105:1117   */\n      revert\n        /* \"#utility.yul\":1056:1119   */\n    tag_229:\n        /* \"#utility.yul\":1003:1125   */\n      pop\n      jump\t// out\n        /* \"#utility.yul\":1131:1270   */\n    tag_171:\n        /* \"#utility.yul\":1177:1182   */\n      0x00\n        /* \"#utility.yul\":1215:1221   */\n      dup2\n        /* \"#utility.yul\":1202:1222   */\n      calldataload\n        /* \"#utility.yul\":1193:1222   */\n      swap1\n      pop\n        /* \"#utility.yul\":1231:1264   */\n      tag_231\n        /* \"#utility.yul\":1258:1263   */\n      dup2\n        /* \"#utility.yul\":1231:1264   */\n      tag_170\n      jump\t// in\n    tag_231:\n        /* \"#utility.yul\":1131:1270   */\n      swap3\n      swap2\n      pop\n      pop\n      jump\t// out\n        /* \"#utility.yul\":1276:1605   */\n    tag_29:\n        /* \"#utility.yul\":1335:1341   */\n      0x00\n        /* \"#utility.yul\":1384:1386   */\n      0x20\n        /* \"#utility.yul\":1372:1381   */\n      dup3\n        /* \"#utility.yul\":1363:1370   */\n      dup5\n        /* \"#utility.yul\":1359:1382   */\n      sub\n        /* \"#utility.yul\":1355:1387   */\n      slt\n        /* \"#utility.yul\":1352:1471   */\n      iszero\n      tag_233\n      jumpi\n        /* \"#utility.yul\":1390:1469   */\n      tag_234\n      tag_166\n      jump\t// in\n    tag_234:\n        /* \"#utility.yul\":1352:1471   */\n    tag_233:\n        /* \"#utility.yul\":1510:1511   */\n      0x00\n        /* \"#utility.yul\":1535:1588   */\n      tag_235\n        /* \"#utility.yul\":1580:1587   */\n      dup5\n        /* \"#utility.yul\":1571:1577   */\n      dup3\n        /* \"#utility.yul\":1560:1569   */\n      dup6\n        /* \"#utility.yul\":1556:1578   */\n      add\n        /* \"#utility.yul\":1535:1588   */\n      tag_171\n      jump\t// in\n    tag_235:\n        /* \"#utility.yul\":1525:1588   */\n      swap2\n      pop\n        /* \"#utility.yul\":1481:1598   */\n      pop\n        /* \"#utility.yul\":1276:1605   */\n      swap3\n      swap2\n      pop\n      pop\n      jump\t// out\n        /* \"#utility.yul\":1611:1701   */\n    tag_172:\n        /* \"#utility.yul\":1645:1652   */\n      0x00\n        /* \"#utility.yul\":1688:1693   */\n      dup2\n        /* \"#utility.yul\":1681:1694   */\n      iszero\n        /* \"#utility.yul\":1674:1695   */\n      iszero\n        /* \"#utility.yul\":1663:1695   */\n      swap1\n      pop\n        /* \"#utility.yul\":1611:1701   */\n      swap2\n      swap1\n      pop\n      jump\t// out\n        /* \"#utility.yul\":1707:1816   */\n    tag_173:\n        /* \"#utility.yul\":1788:1809   */\n      tag_238\n        /* \"#utility.yul\":1803:1808   */\n      dup2\n        /* \"#utility.yul\":1788:1809   */\n      tag_172\n      jump\t// in\n    tag_238:\n        /* \"#utility.yul\":1783:1786   */\n      dup3\n        /* \"#utility.yul\":1776:1810   */\n      mstore\n        /* \"#utility.yul\":1707:1816   */\n      pop\n      pop\n      jump\t// out\n        /* \"#utility.yul\":1822:2032   */\n    tag_32:\n        /* \"#utility.yul\":1909:1913   */\n      0x00\n        /* \"#utility.yul\":1947:1949   */\n      0x20\n        /* \"#utility.yul\":1936:1945   */\n      dup3\n        /* \"#utility.yul\":1932:1950   */\n      add\n        /* \"#utility.yul\":1924:1950   */\n      swap1\n      pop\n        /* \"#utility.yul\":1960:2025   */\n      tag_240\n        /* \"#utility.yul\":2022:2023   */\n      0x00\n        /* \"#utility.yul\":2011:2020   */\n      dup4\n        /* \"#utility.yul\":2007:2024   */\n      add\n        /* \"#utility.yul\":1998:2004   */\n      dup5\n        /* \"#utility.yul\":1960:2025   */\n      tag_173\n      jump\t// in\n    tag_240:\n        /* \"#utility.yul\":1822:2032   */\n      swap3\n      swap2\n      pop\n      pop\n      jump\t// out\n        /* \"#utility.yul\":2038:2160   */\n    tag_174:\n        /* \"#utility.yul\":2111:2135   */\n      tag_242\n        /* \"#utility.yul\":2129:2134   */\n      dup2\n        /* \"#utility.yul\":2111:2135   */\n      tag_163\n      jump\t// in\n    tag_242:\n        /* \"#utility.yul\":2104:2109   */\n      dup2\n        /* \"#utility.yul\":2101:2136   */\n      eq\n        /* \"#utility.yul\":2091:2154   */\n      tag_243\n      jumpi\n        /* \"#utility.yul\":2150:2151   */\n      0x00\n        /* \"#utility.yul\":2147:2148   */\n      dup1\n        /* \"#utility.yul\":2140:2152   */\n      revert\n        /* \"#utility.yul\":2091:2154   */\n    tag_243:\n        /* \"#utility.yul\":2038:2160   */\n      pop\n      jump\t// out\n        /* \"#utility.yul\":2166:2305   */\n    tag_175:\n        /* \"#utility.yul\":2212:2217   */\n      0x00\n        /* \"#utility.yul\":2250:2256   */\n      dup2\n        /* \"#utility.yul\":2237:2257   */\n      calldataload\n        /* \"#utility.yul\":2228:2257   */\n      swap1\n      pop\n        /* \"#utility.yul\":2266:2299   */\n      tag_245\n        /* \"#utility.yul\":2293:2298   */\n      dup2\n        /* \"#utility.yul\":2266:2299   */\n      tag_174\n      jump\t// in\n    tag_245:\n        /* \"#utility.yul\":2166:2305   */\n      swap3\n      swap2\n      pop\n      pop\n      jump\t// out\n        /* \"#utility.yul\":2311:2640   */\n    tag_44:\n        /* \"#utility.yul\":2370:2376   */\n      0x00\n        /* \"#utility.yul\":2419:2421   */\n      0x20\n        /* \"#utility.yul\":2407:2416   */\n      dup3\n        /* \"#utility.yul\":2398:2405   */\n      dup5\n        /* \"#utility.yul\":2394:2417   */\n      sub\n        /* \"#utility.yul\":2390:2422   */\n      slt\n        /* \"#utility.yul\":2387:2506   */\n      iszero\n      tag_247\n      jumpi\n        /* \"#utility.yul\":2425:2504   */\n      tag_248\n      tag_166\n      jump\t// in\n    tag_248:\n        /* \"#utility.yul\":2387:2506   */\n    tag_247:\n        /* \"#utility.yul\":2545:2546   */\n      0x00\n        /* \"#utility.yul\":2570:2623   */\n      tag_249\n        /* \"#utility.yul\":2615:2622   */\n      dup5\n        /* \"#utility.yul\":2606:2612   */\n      dup3\n        /* \"#utility.yul\":2595:2604   */\n      dup6\n        /* \"#utility.yul\":2591:2613   */\n      add\n        /* \"#utility.yul\":2570:2623   */\n      tag_175\n      jump\t// in\n    tag_249:\n        /* \"#utility.yul\":2560:2623   */\n      swap2\n      pop\n        /* \"#utility.yul\":2516:2633   */\n      pop\n        /* \"#utility.yul\":2311:2640   */\n      swap3\n      swap2\n      pop\n      pop\n      jump\t// out\n        /* \"#utility.yul\":2646:2764   */\n    tag_176:\n        /* \"#utility.yul\":2733:2757   */\n      tag_251\n        /* \"#utility.yul\":2751:2756   */\n      dup2\n        /* \"#utility.yul\":2733:2757   */\n      tag_169\n      jump\t// in\n    tag_251:\n        /* \"#utility.yul\":2728:2731   */\n      dup3\n        /* \"#utility.yul\":2721:2758   */\n      mstore\n        /* \"#utility.yul\":2646:2764   */\n      pop\n      pop\n      jump\t// out\n        /* \"#utility.yul\":2770:2992   */\n    tag_47:\n        /* \"#utility.yul\":2863:2867   */\n      0x00\n        /* \"#utility.yul\":2901:2903   */\n      0x20\n        /* \"#utility.yul\":2890:2899   */\n      dup3\n        /* \"#utility.yul\":2886:2904   */\n      add\n        /* \"#utility.yul\":2878:2904   */\n      swap1\n      pop\n        /* \"#utility.yul\":2914:2985   */\n      tag_253\n        /* \"#utility.yul\":2982:2983   */\n      0x00\n        /* \"#utility.yul\":2971:2980   */\n      dup4\n        /* \"#utility.yul\":2967:2984   */\n      add\n        /* \"#utility.yul\":2958:2964   */\n      dup5\n        /* \"#utility.yul\":2914:2985   */\n      tag_176\n      jump\t// in\n    tag_253:\n        /* \"#utility.yul\":2770:2992   */\n      swap3\n      swap2\n      pop\n      pop\n      jump\t// out\n        /* \"#utility.yul\":2998:3115   */\n    tag_177:\n        /* \"#utility.yul\":3107:3108   */\n      0x00\n        /* \"#utility.yul\":3104:3105   */\n      dup1\n        /* \"#utility.yul\":3097:3109   */\n      revert\n        /* \"#utility.yul\":3121:3238   */\n    tag_178:\n        /* \"#utility.yul\":3230:3231   */\n      0x00\n        /* \"#utility.yul\":3227:3228   */\n      dup1\n        /* \"#utility.yul\":3220:3232   */\n      revert\n        /* \"#utility.yul\":3244:3346   */\n    tag_179:\n        /* \"#utility.yul\":3285:3291   */\n      0x00\n        /* \"#utility.yul\":3336:3338   */\n      0x1f\n        /* \"#utility.yul\":3332:3339   */\n      not\n        /* \"#utility.yul\":3327:3329   */\n      0x1f\n        /* \"#utility.yul\":3320:3325   */\n      dup4\n        /* \"#utility.yul\":3316:3330   */\n      add\n        /* \"#utility.yul\":3312:3340   */\n      and\n        /* \"#utility.yul\":3302:3340   */\n      swap1\n      pop\n        /* \"#utility.yul\":3244:3346   */\n      swap2\n      swap1\n      pop\n      jump\t// out\n        /* \"#utility.yul\":3352:3532   */\n    tag_180:\n        /* \"#utility.yul\":3400:3477   */\n      0x4e487b7100000000000000000000000000000000000000000000000000000000\n        /* \"#utility.yul\":3397:3398   */\n      0x00\n        /* \"#utility.yul\":3390:3478   */\n      mstore\n        /* \"#utility.yul\":3497:3501   */\n      0x41\n        /* \"#utility.yul\":3494:3495   */\n      0x04\n        /* \"#utility.yul\":3487:3502   */\n      mstore\n        /* \"#utility.yul\":3521:3525   */\n      0x24\n        /* \"#utility.yul\":3518:3519   */\n      0x00\n        /* \"#utility.yul\":3511:3526   */\n      revert\n        /* \"#utility.yul\":3538:3819   */\n    tag_181:\n        /* \"#utility.yul\":3621:3648   */\n      tag_259\n        /* \"#utility.yul\":3643:3647   */\n      dup3\n        /* \"#utility.yul\":3621:3648   */\n      tag_179\n      jump\t// in\n    tag_259:\n        /* \"#utility.yul\":3613:3619   */\n      dup2\n        /* \"#utility.yul\":3609:3649   */\n      add\n        /* \"#utility.yul\":3751:3757   */\n      dup2\n        /* \"#utility.yul\":3739:3749   */\n      dup2\n        /* \"#utility.yul\":3736:3758   */\n      lt\n        /* \"#utility.yul\":3715:3733   */\n      0xffffffffffffffff\n        /* \"#utility.yul\":3703:3713   */\n      dup3\n        /* \"#utility.yul\":3700:3734   */\n      gt\n        /* \"#utility.yul\":3697:3759   */\n      or\n        /* \"#utility.yul\":3694:3782   */\n      iszero\n      tag_260\n      jumpi\n        /* \"#utility.yul\":3762:3780   */\n      tag_261\n      tag_180\n      jump\t// in\n    tag_261:\n        /* \"#utility.yul\":3694:3782   */\n    tag_260:\n        /* \"#utility.yul\":3802:3812   */\n      dup1\n        /* \"#utility.yul\":3798:3800   */\n      0x40\n        /* \"#utility.yul\":3791:3813   */\n      mstore\n        /* \"#utility.yul\":3581:3819   */\n      pop\n        /* \"#utility.yul\":3538:3819   */\n      pop\n      pop\n      jump\t// out\n        /* \"#utility.yul\":3825:3954   */\n    tag_182:\n        /* \"#utility.yul\":3859:3865   */\n      0x00\n        /* \"#utility.yul\":3886:3906   */\n      tag_263\n      tag_165\n      jump\t// in\n    tag_263:\n        /* \"#utility.yul\":3876:3906   */\n      swap1\n      pop\n        /* \"#utility.yul\":3915:3948   */\n      tag_264\n        /* \"#utility.yul\":3943:3947   */\n      dup3\n        /* \"#utility.yul\":3935:3941   */\n      dup3\n        /* \"#utility.yul\":3915:3948   */\n      tag_181\n      jump\t// in\n    tag_264:\n        /* \"#utility.yul\":3825:3954   */\n      swap2\n      swap1\n      pop\n      jump\t// out\n        /* \"#utility.yul\":3960:4267   */\n    tag_183:\n        /* \"#utility.yul\":4021:4025   */\n      0x00\n        /* \"#utility.yul\":4111:4129   */\n      0xffffffffffffffff\n        /* \"#utility.yul\":4103:4109   */\n      dup3\n        /* \"#utility.yul\":4100:4130   */\n      gt\n        /* \"#utility.yul\":4097:4153   */\n      iszero\n      tag_266\n      jumpi\n        /* \"#utility.yul\":4133:4151   */\n      tag_267\n      tag_180\n      jump\t// in\n    tag_267:\n        /* \"#utility.yul\":4097:4153   */\n    tag_266:\n        /* \"#utility.yul\":4171:4200   */\n      tag_268\n        /* \"#utility.yul\":4193:4199   */\n      dup3\n        /* \"#utility.yul\":4171:4200   */\n      tag_179\n      jump\t// in\n    tag_268:\n        /* \"#utility.yul\":4163:4200   */\n      swap1\n      pop\n        /* \"#utility.yul\":4255:4259   */\n      0x20\n        /* \"#utility.yul\":4249:4253   */\n      dup2\n        /* \"#utility.yul\":4245:4260   */\n      add\n        /* \"#utility.yul\":4237:4260   */\n      swap1\n      pop\n        /* \"#utility.yul\":3960:4267   */\n      swap2\n      swap1\n      pop\n      jump\t// out\n        /* \"#utility.yul\":4273:4421   */\n    tag_184:\n        /* \"#utility.yul\":4371:4377   */\n      dup3\n        /* \"#utility.yul\":4366:4369   */\n      dup2\n        /* \"#utility.yul\":4361:4364   */\n      dup4\n        /* \"#utility.yul\":4348:4378   */\n      calldatacopy\n        /* \"#utility.yul\":4412:4413   */\n      0x00\n        /* \"#utility.yul\":4403:4409   */\n      dup4\n        /* \"#utility.yul\":4398:4401   */\n      dup4\n        /* \"#utility.yul\":4394:4410   */\n      add\n        /* \"#utility.yul\":4387:4414   */\n      mstore\n        /* \"#utility.yul\":4273:4421   */\n      pop\n      pop\n      pop\n      jump\t// out\n        /* \"#utility.yul\":4427:4850   */\n    tag_185:\n        /* \"#utility.yul\":4504:4509   */\n      0x00\n        /* \"#utility.yul\":4529:4594   */\n      tag_271\n        /* \"#utility.yul\":4545:4593   */\n      tag_272\n        /* \"#utility.yul\":4586:4592   */\n      dup5\n        /* \"#utility.yul\":4545:4593   */\n      tag_183\n      jump\t// in\n    tag_272:\n        /* \"#utility.yul\":4529:4594   */\n      tag_182\n      jump\t// in\n    tag_271:\n        /* \"#utility.yul\":4520:4594   */\n      swap1\n      pop\n        /* \"#utility.yul\":4617:4623   */\n      dup3\n        /* \"#utility.yul\":4610:4615   */\n      dup2\n        /* \"#utility.yul\":4603:4624   */\n      mstore\n        /* \"#utility.yul\":4655:4659   */\n      0x20\n        /* \"#utility.yul\":4648:4653   */\n      dup2\n        /* \"#utility.yul\":4644:4660   */\n      add\n        /* \"#utility.yul\":4693:4696   */\n      dup5\n        /* \"#utility.yul\":4684:4690   */\n      dup5\n        /* \"#utility.yul\":4679:4682   */\n      dup5\n        /* \"#utility.yul\":4675:4691   */\n      add\n        /* \"#utility.yul\":4672:4697   */\n      gt\n        /* \"#utility.yul\":4669:4781   */\n      iszero\n      tag_273\n      jumpi\n        /* \"#utility.yul\":4700:4779   */\n      tag_274\n      tag_178\n      jump\t// in\n    tag_274:\n        /* \"#utility.yul\":4669:4781   */\n    tag_273:\n        /* \"#utility.yul\":4790:4844   */\n      tag_275\n        /* \"#utility.yul\":4837:4843   */\n      dup5\n        /* \"#utility.yul\":4832:4835   */\n      dup3\n        /* \"#utility.yul\":4827:4830   */\n      dup6\n        /* \"#utility.yul\":4790:4844   */\n      tag_184\n      jump\t// in\n    tag_275:\n        /* \"#utility.yul\":4510:4850   */\n      pop\n        /* \"#utility.yul\":4427:4850   */\n      swap4\n      swap3\n      pop\n      pop\n      pop\n      jump\t// out\n        /* \"#utility.yul\":4869:5207   */\n    tag_186:\n        /* \"#utility.yul\":4924:4929   */\n      0x00\n        /* \"#utility.yul\":4973:4976   */\n      dup3\n        /* \"#utility.yul\":4966:4970   */\n      0x1f\n        /* \"#utility.yul\":4958:4964   */\n      dup4\n        /* \"#utility.yul\":4954:4971   */\n      add\n        /* \"#utility.yul\":4950:4977   */\n      slt\n        /* \"#utility.yul\":4940:5062   */\n      tag_277\n      jumpi\n        /* \"#utility.yul\":4981:5060   */\n      tag_278\n      tag_177\n      jump\t// in\n    tag_278:\n        /* \"#utility.yul\":4940:5062   */\n    tag_277:\n        /* \"#utility.yul\":5098:5104   */\n      dup2\n        /* \"#utility.yul\":5085:5105   */\n      calldataload\n        /* \"#utility.yul\":5123:5201   */\n      tag_279\n        /* \"#utility.yul\":5197:5200   */\n      dup5\n        /* \"#utility.yul\":5189:5195   */\n      dup3\n        /* \"#utility.yul\":5182:5186   */\n      0x20\n        /* \"#utility.yul\":5174:5180   */\n      dup7\n        /* \"#utility.yul\":5170:5187   */\n      add\n        /* \"#utility.yul\":5123:5201   */\n      tag_185\n      jump\t// in\n    tag_279:\n        /* \"#utility.yul\":5114:5201   */\n      swap2\n      pop\n        /* \"#utility.yul\":4930:5207   */\n      pop\n        /* \"#utility.yul\":4869:5207   */\n      swap3\n      swap2\n      pop\n      pop\n      jump\t// out\n        /* \"#utility.yul\":5213:6010   */\n    tag_75:\n        /* \"#utility.yul\":5299:5305   */\n      0x00\n        /* \"#utility.yul\":5307:5313   */\n      dup1\n        /* \"#utility.yul\":5315:5321   */\n      0x00\n        /* \"#utility.yul\":5364:5366   */\n      0x60\n        /* \"#utility.yul\":5352:5361   */\n      dup5\n        /* \"#utility.yul\":5343:5350   */\n      dup7\n        /* \"#utility.yul\":5339:5362   */\n      sub\n        /* \"#utility.yul\":5335:5367   */\n      slt\n        /* \"#utility.yul\":5332:5451   */\n      iszero\n      tag_281\n      jumpi\n        /* \"#utility.yul\":5370:5449   */\n      tag_282\n      tag_166\n      jump\t// in\n    tag_282:\n        /* \"#utility.yul\":5332:5451   */\n    tag_281:\n        /* \"#utility.yul\":5490:5491   */\n      0x00\n        /* \"#utility.yul\":5515:5568   */\n      tag_283\n        /* \"#utility.yul\":5560:5567   */\n      dup7\n        /* \"#utility.yul\":5551:5557   */\n      dup3\n        /* \"#utility.yul\":5540:5549   */\n      dup8\n        /* \"#utility.yul\":5536:5558   */\n      add\n        /* \"#utility.yul\":5515:5568   */\n      tag_171\n      jump\t// in\n    tag_283:\n        /* \"#utility.yul\":5505:5568   */\n      swap4\n      pop\n        /* \"#utility.yul\":5461:5578   */\n      pop\n        /* \"#utility.yul\":5617:5619   */\n      0x20\n        /* \"#utility.yul\":5643:5696   */\n      tag_284\n        /* \"#utility.yul\":5688:5695   */\n      dup7\n        /* \"#utility.yul\":5679:5685   */\n      dup3\n        /* \"#utility.yul\":5668:5677   */\n      dup8\n        /* \"#utility.yul\":5664:5686   */\n      add\n        /* \"#utility.yul\":5643:5696   */\n      tag_175\n      jump\t// in\n    tag_284:\n        /* \"#utility.yul\":5633:5696   */\n      swap3\n      pop\n        /* \"#utility.yul\":5588:5706   */\n      pop\n        /* \"#utility.yul\":5773:5775   */\n      0x40\n        /* \"#utility.yul\":5762:5771   */\n      dup5\n        /* \"#utility.yul\":5758:5776   */\n      add\n        /* \"#utility.yul\":5745:5777   */\n      calldataload\n        /* \"#utility.yul\":5804:5822   */\n      0xffffffffffffffff\n        /* \"#utility.yul\":5796:5802   */\n      dup2\n        /* \"#utility.yul\":5793:5823   */\n      gt\n        /* \"#utility.yul\":5790:5907   */\n      iszero\n      tag_285\n      jumpi\n        /* \"#utility.yul\":5826:5905   */\n      tag_286\n      tag_167\n      jump\t// in\n    tag_286:\n        /* \"#utility.yul\":5790:5907   */\n    tag_285:\n        /* \"#utility.yul\":5931:5993   */\n      tag_287\n        /* \"#utility.yul\":5985:5992   */\n      dup7\n        /* \"#utility.yul\":5976:5982   */\n      dup3\n        /* \"#utility.yul\":5965:5974   */\n      dup8\n        /* \"#utility.yul\":5961:5983   */\n      add\n        /* \"#utility.yul\":5931:5993   */\n      tag_186\n      jump\t// in\n    tag_287:\n        /* \"#utility.yul\":5921:5993   */\n      swap2\n      pop\n        /* \"#utility.yul\":5716:6003   */\n      pop\n        /* \"#utility.yul\":5213:6010   */\n      swap3\n      pop\n      swap3\n      pop\n      swap3\n      jump\t// out\n        /* \"#utility.yul\":6016:6185   */\n    tag_187:\n        /* \"#utility.yul\":6100:6111   */\n      0x00\n        /* \"#utility.yul\":6134:6140   */\n      dup3\n        /* \"#utility.yul\":6129:6132   */\n      dup3\n        /* \"#utility.yul\":6122:6141   */\n      mstore\n        /* \"#utility.yul\":6174:6178   */\n      0x20\n        /* \"#utility.yul\":6169:6172   */\n      dup3\n        /* \"#utility.yul\":6165:6179   */\n      add\n        /* \"#utility.yul\":6150:6179   */\n      swap1\n      pop\n        /* \"#utility.yul\":6016:6185   */\n      swap3\n      swap2\n      pop\n      pop\n      jump\t// out\n        /* \"#utility.yul\":6191:6368   */\n    tag_188:\n        /* \"#utility.yul\":6331:6360   */\n      0x4f6e6c7920456d706c6f7965652063616e2065786368616e6765210000000000\n        /* \"#utility.yul\":6327:6328   */\n      0x00\n        /* \"#utility.yul\":6319:6325   */\n      dup3\n        /* \"#utility.yul\":6315:6329   */\n      add\n        /* \"#utility.yul\":6308:6361   */\n      mstore\n        /* \"#utility.yul\":6191:6368   */\n      pop\n      jump\t// out\n        /* \"#utility.yul\":6374:6740   */\n    tag_189:\n        /* \"#utility.yul\":6516:6519   */\n      0x00\n        /* \"#utility.yul\":6537:6604   */\n      tag_291\n        /* \"#utility.yul\":6601:6603   */\n      0x1b\n        /* \"#utility.yul\":6596:6599   */\n      dup4\n        /* \"#utility.yul\":6537:6604   */\n      tag_187\n      jump\t// in\n    tag_291:\n        /* \"#utility.yul\":6530:6604   */\n      swap2\n      pop\n        /* \"#utility.yul\":6613:6706   */\n      tag_292\n        /* \"#utility.yul\":6702:6705   */\n      dup3\n        /* \"#utility.yul\":6613:6706   */\n      tag_188\n      jump\t// in\n    tag_292:\n        /* \"#utility.yul\":6731:6733   */\n      0x20\n        /* \"#utility.yul\":6726:6729   */\n      dup3\n        /* \"#utility.yul\":6722:6734   */\n      add\n        /* \"#utility.yul\":6715:6734   */\n      swap1\n      pop\n        /* \"#utility.yul\":6374:6740   */\n      swap2\n      swap1\n      pop\n      jump\t// out\n        /* \"#utility.yul\":6746:7165   */\n    tag_95:\n        /* \"#utility.yul\":6912:6916   */\n      0x00\n        /* \"#utility.yul\":6950:6952   */\n      0x20\n        /* \"#utility.yul\":6939:6948   */\n      dup3\n        /* \"#utility.yul\":6935:6953   */\n      add\n        /* \"#utility.yul\":6927:6953   */\n      swap1\n      pop\n        /* \"#utility.yul\":6999:7008   */\n      dup2\n        /* \"#utility.yul\":6993:6997   */\n      dup2\n        /* \"#utility.yul\":6989:7009   */\n      sub\n        /* \"#utility.yul\":6985:6986   */\n      0x00\n        /* \"#utility.yul\":6974:6983   */\n      dup4\n        /* \"#utility.yul\":6970:6987   */\n      add\n        /* \"#utility.yul\":6963:7010   */\n      mstore\n        /* \"#utility.yul\":7027:7158   */\n      tag_294\n        /* \"#utility.yul\":7153:7157   */\n      dup2\n        /* \"#utility.yul\":7027:7158   */\n      tag_189\n      jump\t// in\n    tag_294:\n        /* \"#utility.yul\":7019:7158   */\n      swap1\n      pop\n        /* \"#utility.yul\":6746:7165   */\n      swap2\n      swap1\n      pop\n      jump\t// out\n        /* \"#utility.yul\":7171:7347   */\n    tag_190:\n        /* \"#utility.yul\":7311:7339   */\n      0x4d7573742068617665206174206c656173742031206574686572000000000000\n        /* \"#utility.yul\":7307:7308   */\n      0x00\n        /* \"#utility.yul\":7299:7305   */\n      dup3\n        /* \"#utility.yul\":7295:7309   */\n      add\n        /* \"#utility.yul\":7288:7340   */\n      mstore\n        /* \"#utility.yul\":7171:7347   */\n      pop\n      jump\t// out\n        /* \"#utility.yul\":7353:7719   */\n    tag_191:\n        /* \"#utility.yul\":7495:7498   */\n      0x00\n        /* \"#utility.yul\":7516:7583   */\n      tag_297\n        /* \"#utility.yul\":7580:7582   */\n      0x1a\n        /* \"#utility.yul\":7575:7578   */\n      dup4\n        /* \"#utility.yul\":7516:7583   */\n      tag_187\n      jump\t// in\n    tag_297:\n        /* \"#utility.yul\":7509:7583   */\n      swap2\n      pop\n        /* \"#utility.yul\":7592:7685   */\n      tag_298\n        /* \"#utility.yul\":7681:7684   */\n      dup3\n        /* \"#utility.yul\":7592:7685   */\n      tag_190\n      jump\t// in\n    tag_298:\n        /* \"#utility.yul\":7710:7712   */\n      0x20\n        /* \"#utility.yul\":7705:7708   */\n      dup3\n        /* \"#utility.yul\":7701:7713   */\n      add\n        /* \"#utility.yul\":7694:7713   */\n      swap1\n      pop\n        /* \"#utility.yul\":7353:7719   */\n      swap2\n      swap1\n      pop\n      jump\t// out\n        /* \"#utility.yul\":7725:8144   */\n    tag_99:\n        /* \"#utility.yul\":7891:7895   */\n      0x00\n        /* \"#utility.yul\":7929:7931   */\n      0x20\n        /* \"#utility.yul\":7918:7927   */\n      dup3\n        /* \"#utility.yul\":7914:7932   */\n      add\n        /* \"#utility.yul\":7906:7932   */\n      swap1\n      pop\n        /* \"#utility.yul\":7978:7987   */\n      dup2\n        /* \"#utility.yul\":7972:7976   */\n      dup2\n        /* \"#utility.yul\":7968:7988   */\n      sub\n        /* \"#utility.yul\":7964:7965   */\n      0x00\n        /* \"#utility.yul\":7953:7962   */\n      dup4\n        /* \"#utility.yul\":7949:7966   */\n      add\n        /* \"#utility.yul\":7942:7989   */\n      mstore\n        /* \"#utility.yul\":8006:8137   */\n      tag_300\n        /* \"#utility.yul\":8132:8136   */\n      dup2\n        /* \"#utility.yul\":8006:8137   */\n      tag_191\n      jump\t// in\n    tag_300:\n        /* \"#utility.yul\":7998:8137   */\n      swap1\n      pop\n        /* \"#utility.yul\":7725:8144   */\n      swap2\n      swap1\n      pop\n      jump\t// out\n        /* \"#utility.yul\":8150:8329   */\n    tag_192:\n        /* \"#utility.yul\":8290:8321   */\n      0x4f6e6c7920456d706c6f7965652063616e2062652070726f6d6f746564000000\n        /* \"#utility.yul\":8286:8287   */\n      0x00\n        /* \"#utility.yul\":8278:8284   */\n      dup3\n        /* \"#utility.yul\":8274:8288   */\n      add\n        /* \"#utility.yul\":8267:8322   */\n      mstore\n        /* \"#utility.yul\":8150:8329   */\n      pop\n      jump\t// out\n        /* \"#utility.yul\":8335:8701   */\n    tag_193:\n        /* \"#utility.yul\":8477:8480   */\n      0x00\n        /* \"#utility.yul\":8498:8565   */\n      tag_303\n        /* \"#utility.yul\":8562:8564   */\n      0x1d\n        /* \"#utility.yul\":8557:8560   */\n      dup4\n        /* \"#utility.yul\":8498:8565   */\n      tag_187\n      jump\t// in\n    tag_303:\n        /* \"#utility.yul\":8491:8565   */\n      swap2\n      pop\n        /* \"#utility.yul\":8574:8667   */\n      tag_304\n        /* \"#utility.yul\":8663:8666   */\n      dup3\n        /* \"#utility.yul\":8574:8667   */\n      tag_192\n      jump\t// in\n    tag_304:\n        /* \"#utility.yul\":8692:8694   */\n      0x20\n        /* \"#utility.yul\":8687:8690   */\n      dup3\n        /* \"#utility.yul\":8683:8695   */\n      add\n        /* \"#utility.yul\":8676:8695   */\n      swap1\n      pop\n        /* \"#utility.yul\":8335:8701   */\n      swap2\n      swap1\n      pop\n      jump\t// out\n        /* \"#utility.yul\":8707:9126   */\n    tag_102:\n        /* \"#utility.yul\":8873:8877   */\n      0x00\n        /* \"#utility.yul\":8911:8913   */\n      0x20\n        /* \"#utility.yul\":8900:8909   */\n      dup3\n        /* \"#utility.yul\":8896:8914   */\n      add\n        /* \"#utility.yul\":8888:8914   */\n      swap1\n      pop\n        /* \"#utility.yul\":8960:8969   */\n      dup2\n        /* \"#utility.yul\":8954:8958   */\n      dup2\n        /* \"#utility.yul\":8950:8970   */\n      sub\n        /* \"#utility.yul\":8946:8947   */\n      0x00\n        /* \"#utility.yul\":8935:8944   */\n      dup4\n        /* \"#utility.yul\":8931:8948   */\n      add\n        /* \"#utility.yul\":8924:8971   */\n      mstore\n        /* \"#utility.yul\":8988:9119   */\n      tag_306\n        /* \"#utility.yul\":9114:9118   */\n      dup2\n        /* \"#utility.yul\":8988:9119   */\n      tag_193\n      jump\t// in\n    tag_306:\n        /* \"#utility.yul\":8980:9119   */\n      swap1\n      pop\n        /* \"#utility.yul\":8707:9126   */\n      swap2\n      swap1\n      pop\n      jump\t// out\n        /* \"#utility.yul\":9132:9311   */\n    tag_194:\n        /* \"#utility.yul\":9272:9303   */\n      0x426f6e75732063616e206f6e6c792062652074616b656e206f6e636521000000\n        /* \"#utility.yul\":9268:9269   */\n      0x00\n        /* \"#utility.yul\":9260:9266   */\n      dup3\n        /* \"#utility.yul\":9256:9270   */\n      add\n        /* \"#utility.yul\":9249:9304   */\n      mstore\n        /* \"#utility.yul\":9132:9311   */\n      pop\n      jump\t// out\n        /* \"#utility.yul\":9317:9683   */\n    tag_195:\n        /* \"#utility.yul\":9459:9462   */\n      0x00\n        /* \"#utility.yul\":9480:9547   */\n      tag_309\n        /* \"#utility.yul\":9544:9546   */\n      0x1d\n        /* \"#utility.yul\":9539:9542   */\n      dup4\n        /* \"#utility.yul\":9480:9547   */\n      tag_187\n      jump\t// in\n    tag_309:\n        /* \"#utility.yul\":9473:9547   */\n      swap2\n      pop\n        /* \"#utility.yul\":9556:9649   */\n      tag_310\n        /* \"#utility.yul\":9645:9648   */\n      dup3\n        /* \"#utility.yul\":9556:9649   */\n      tag_194\n      jump\t// in\n    tag_310:\n        /* \"#utility.yul\":9674:9676   */\n      0x20\n        /* \"#utility.yul\":9669:9672   */\n      dup3\n        /* \"#utility.yul\":9665:9677   */\n      add\n        /* \"#utility.yul\":9658:9677   */\n      swap1\n      pop\n        /* \"#utility.yul\":9317:9683   */\n      swap2\n      swap1\n      pop\n      jump\t// out\n        /* \"#utility.yul\":9689:10108   */\n    tag_108:\n        /* \"#utility.yul\":9855:9859   */\n      0x00\n        /* \"#utility.yul\":9893:9895   */\n      0x20\n        /* \"#utility.yul\":9882:9891   */\n      dup3\n        /* \"#utility.yul\":9878:9896   */\n      add\n        /* \"#utility.yul\":9870:9896   */\n      swap1\n      pop\n        /* \"#utility.yul\":9942:9951   */\n      dup2\n        /* \"#utility.yul\":9936:9940   */\n      dup2\n        /* \"#utility.yul\":9932:9952   */\n      sub\n        /* \"#utility.yul\":9928:9929   */\n      0x00\n        /* \"#utility.yul\":9917:9926   */\n      dup4\n        /* \"#utility.yul\":9913:9930   */\n      add\n        /* \"#utility.yul\":9906:9953   */\n      mstore\n        /* \"#utility.yul\":9970:10101   */\n      tag_312\n        /* \"#utility.yul\":10096:10100   */\n      dup2\n        /* \"#utility.yul\":9970:10101   */\n      tag_195\n      jump\t// in\n    tag_312:\n        /* \"#utility.yul\":9962:10101   */\n      swap1\n      pop\n        /* \"#utility.yul\":9689:10108   */\n      swap2\n      swap1\n      pop\n      jump\t// out\n        /* \"#utility.yul\":10114:10294   */\n    tag_196:\n        /* \"#utility.yul\":10162:10239   */\n      0x4e487b7100000000000000000000000000000000000000000000000000000000\n        /* \"#utility.yul\":10159:10160   */\n      0x00\n        /* \"#utility.yul\":10152:10240   */\n      mstore\n        /* \"#utility.yul\":10259:10263   */\n      0x11\n        /* \"#utility.yul\":10256:10257   */\n      0x04\n        /* \"#utility.yul\":10249:10264   */\n      mstore\n        /* \"#utility.yul\":10283:10287   */\n      0x24\n        /* \"#utility.yul\":10280:10281   */\n      0x00\n        /* \"#utility.yul\":10273:10288   */\n      revert\n        /* \"#utility.yul\":10300:10494   */\n    tag_111:\n        /* \"#utility.yul\":10340:10344   */\n      0x00\n        /* \"#utility.yul\":10360:10380   */\n      tag_315\n        /* \"#utility.yul\":10378:10379   */\n      dup3\n        /* \"#utility.yul\":10360:10380   */\n      tag_163\n      jump\t// in\n    tag_315:\n        /* \"#utility.yul\":10355:10380   */\n      swap2\n      pop\n        /* \"#utility.yul\":10394:10414   */\n      tag_316\n        /* \"#utility.yul\":10412:10413   */\n      dup4\n        /* \"#utility.yul\":10394:10414   */\n      tag_163\n      jump\t// in\n    tag_316:\n        /* \"#utility.yul\":10389:10414   */\n      swap3\n      pop\n        /* \"#utility.yul\":10438:10439   */\n      dup3\n        /* \"#utility.yul\":10435:10436   */\n      dup3\n        /* \"#utility.yul\":10431:10440   */\n      sub\n        /* \"#utility.yul\":10423:10440   */\n      swap1\n      pop\n        /* \"#utility.yul\":10462:10463   */\n      dup2\n        /* \"#utility.yul\":10456:10460   */\n      dup2\n        /* \"#utility.yul\":10453:10464   */\n      gt\n        /* \"#utility.yul\":10450:10487   */\n      iszero\n      tag_317\n      jumpi\n        /* \"#utility.yul\":10467:10485   */\n      tag_318\n      tag_196\n      jump\t// in\n    tag_318:\n        /* \"#utility.yul\":10450:10487   */\n    tag_317:\n        /* \"#utility.yul\":10300:10494   */\n      swap3\n      swap2\n      pop\n      pop\n      jump\t// out\n        /* \"#utility.yul\":10500:10691   */\n    tag_113:\n        /* \"#utility.yul\":10540:10543   */\n      0x00\n        /* \"#utility.yul\":10559:10579   */\n      tag_320\n        /* \"#utility.yul\":10577:10578   */\n      dup3\n        /* \"#utility.yul\":10559:10579   */\n      tag_163\n      jump\t// in\n    tag_320:\n        /* \"#utility.yul\":10554:10579   */\n      swap2\n      pop\n        /* \"#utility.yul\":10593:10613   */\n      tag_321\n        /* \"#utility.yul\":10611:10612   */\n      dup4\n        /* \"#utility.yul\":10593:10613   */\n      tag_163\n      jump\t// in\n    tag_321:\n        /* \"#utility.yul\":10588:10613   */\n      swap3\n      pop\n        /* \"#utility.yul\":10636:10637   */\n      dup3\n        /* \"#utility.yul\":10633:10634   */\n      dup3\n        /* \"#utility.yul\":10629:10638   */\n      add\n        /* \"#utility.yul\":10622:10638   */\n      swap1\n      pop\n        /* \"#utility.yul\":10657:10660   */\n      dup1\n        /* \"#utility.yul\":10654:10655   */\n      dup3\n        /* \"#utility.yul\":10651:10661   */\n      gt\n        /* \"#utility.yul\":10648:10684   */\n      iszero\n      tag_322\n      jumpi\n        /* \"#utility.yul\":10664:10682   */\n      tag_323\n      tag_196\n      jump\t// in\n    tag_323:\n        /* \"#utility.yul\":10648:10684   */\n    tag_322:\n        /* \"#utility.yul\":10500:10691   */\n      swap3\n      swap2\n      pop\n      pop\n      jump\t// out\n        /* \"#utility.yul\":10697:10865   */\n    tag_197:\n        /* \"#utility.yul\":10837:10857   */\n      0x4d696e696d756d20697320312045746865720000000000000000000000000000\n        /* \"#utility.yul\":10833:10834   */\n      0x00\n        /* \"#utility.yul\":10825:10831   */\n      dup3\n        /* \"#utility.yul\":10821:10835   */\n      add\n        /* \"#utility.yul\":10814:10858   */\n      mstore\n        /* \"#utility.yul\":10697:10865   */\n      pop\n      jump\t// out\n        /* \"#utility.yul\":10871:11237   */\n    tag_198:\n        /* \"#utility.yul\":11013:11016   */\n      0x00\n        /* \"#utility.yul\":11034:11101   */\n      tag_326\n        /* \"#utility.yul\":11098:11100   */\n      0x12\n        /* \"#utility.yul\":11093:11096   */\n      dup4\n        /* \"#utility.yul\":11034:11101   */\n      tag_187\n      jump\t// in\n    tag_326:\n        /* \"#utility.yul\":11027:11101   */\n      swap2\n      pop\n        /* \"#utility.yul\":11110:11203   */\n      tag_327\n        /* \"#utility.yul\":11199:11202   */\n      dup3\n        /* \"#utility.yul\":11110:11203   */\n      tag_197\n      jump\t// in\n    tag_327:\n        /* \"#utility.yul\":11228:11230   */\n      0x20\n        /* \"#utility.yul\":11223:11226   */\n      dup3\n        /* \"#utility.yul\":11219:11231   */\n      add\n        /* \"#utility.yul\":11212:11231   */\n      swap1\n      pop\n        /* \"#utility.yul\":10871:11237   */\n      swap2\n      swap1\n      pop\n      jump\t// out\n        /* \"#utility.yul\":11243:11662   */\n    tag_120:\n        /* \"#utility.yul\":11409:11413   */\n      0x00\n        /* \"#utility.yul\":11447:11449   */\n      0x20\n        /* \"#utility.yul\":11436:11445   */\n      dup3\n        /* \"#utility.yul\":11432:11450   */\n      add\n        /* \"#utility.yul\":11424:11450   */\n      swap1\n      pop\n        /* \"#utility.yul\":11496:11505   */\n      dup2\n        /* \"#utility.yul\":11490:11494   */\n      dup2\n        /* \"#utility.yul\":11486:11506   */\n      sub\n        /* \"#utility.yul\":11482:11483   */\n      0x00\n        /* \"#utility.yul\":11471:11480   */\n      dup4\n        /* \"#utility.yul\":11467:11484   */\n      add\n        /* \"#utility.yul\":11460:11507   */\n      mstore\n        /* \"#utility.yul\":11524:11655   */\n      tag_329\n        /* \"#utility.yul\":11650:11654   */\n      dup2\n        /* \"#utility.yul\":11524:11655   */\n      tag_198\n      jump\t// in\n    tag_329:\n        /* \"#utility.yul\":11516:11655   */\n      swap1\n      pop\n        /* \"#utility.yul\":11243:11662   */\n      swap2\n      swap1\n      pop\n      jump\t// out\n        /* \"#utility.yul\":11668:11895   */\n    tag_199:\n        /* \"#utility.yul\":11808:11842   */\n      0x4d7573742062652074686174205269636820746f206265636f6d6520616e2045\n        /* \"#utility.yul\":11804:11805   */\n      0x00\n        /* \"#utility.yul\":11796:11802   */\n      dup3\n        /* \"#utility.yul\":11792:11806   */\n      add\n        /* \"#utility.yul\":11785:11843   */\n      mstore\n        /* \"#utility.yul\":11877:11887   */\n      0x7865637574697665000000000000000000000000000000000000000000000000\n        /* \"#utility.yul\":11872:11874   */\n      0x20\n        /* \"#utility.yul\":11864:11870   */\n      dup3\n        /* \"#utility.yul\":11860:11875   */\n      add\n        /* \"#utility.yul\":11853:11888   */\n      mstore\n        /* \"#utility.yul\":11668:11895   */\n      pop\n      jump\t// out\n        /* \"#utility.yul\":11901:12267   */\n    tag_200:\n        /* \"#utility.yul\":12043:12046   */\n      0x00\n        /* \"#utility.yul\":12064:12131   */\n      tag_332\n        /* \"#utility.yul\":12128:12130   */\n      0x28\n        /* \"#utility.yul\":12123:12126   */\n      dup4\n        /* \"#utility.yul\":12064:12131   */\n      tag_187\n      jump\t// in\n    tag_332:\n        /* \"#utility.yul\":12057:12131   */\n      swap2\n      pop\n        /* \"#utility.yul\":12140:12233   */\n      tag_333\n        /* \"#utility.yul\":12229:12232   */\n      dup3\n        /* \"#utility.yul\":12140:12233   */\n      tag_199\n      jump\t// in\n    tag_333:\n        /* \"#utility.yul\":12258:12260   */\n      0x40\n        /* \"#utility.yul\":12253:12256   */\n      dup3\n        /* \"#utility.yul\":12249:12261   */\n      add\n        /* \"#utility.yul\":12242:12261   */\n      swap1\n      pop\n        /* \"#utility.yul\":11901:12267   */\n      swap2\n      swap1\n      pop\n      jump\t// out\n        /* \"#utility.yul\":12273:12692   */\n    tag_128:\n        /* \"#utility.yul\":12439:12443   */\n      0x00\n        /* \"#utility.yul\":12477:12479   */\n      0x20\n        /* \"#utility.yul\":12466:12475   */\n      dup3\n        /* \"#utility.yul\":12462:12480   */\n      add\n        /* \"#utility.yul\":12454:12480   */\n      swap1\n      pop\n        /* \"#utility.yul\":12526:12535   */\n      dup2\n        /* \"#utility.yul\":12520:12524   */\n      dup2\n        /* \"#utility.yul\":12516:12536   */\n      sub\n        /* \"#utility.yul\":12512:12513   */\n      0x00\n        /* \"#utility.yul\":12501:12510   */\n      dup4\n        /* \"#utility.yul\":12497:12514   */\n      add\n        /* \"#utility.yul\":12490:12537   */\n      mstore\n        /* \"#utility.yul\":12554:12685   */\n      tag_335\n        /* \"#utility.yul\":12680:12684   */\n      dup2\n        /* \"#utility.yul\":12554:12685   */\n      tag_200\n      jump\t// in\n    tag_335:\n        /* \"#utility.yul\":12546:12685   */\n      swap1\n      pop\n        /* \"#utility.yul\":12273:12692   */\n      swap2\n      swap1\n      pop\n      jump\t// out\n        /* \"#utility.yul\":12698:12865   */\n    tag_201:\n        /* \"#utility.yul\":12838:12857   */\n      0x4e6f7420456e6f75676820437265646974000000000000000000000000000000\n        /* \"#utility.yul\":12834:12835   */\n      0x00\n        /* \"#utility.yul\":12826:12832   */\n      dup3\n        /* \"#utility.yul\":12822:12836   */\n      add\n        /* \"#utility.yul\":12815:12858   */\n      mstore\n        /* \"#utility.yul\":12698:12865   */\n      pop\n      jump\t// out\n        /* \"#utility.yul\":12871:13237   */\n    tag_202:\n        /* \"#utility.yul\":13013:13016   */\n      0x00\n        /* \"#utility.yul\":13034:13101   */\n      tag_338\n        /* \"#utility.yul\":13098:13100   */\n      0x11\n        /* \"#utility.yul\":13093:13096   */\n      dup4\n        /* \"#utility.yul\":13034:13101   */\n      tag_187\n      jump\t// in\n    tag_338:\n        /* \"#utility.yul\":13027:13101   */\n      swap2\n      pop\n        /* \"#utility.yul\":13110:13203   */\n      tag_339\n        /* \"#utility.yul\":13199:13202   */\n      dup3\n        /* \"#utility.yul\":13110:13203   */\n      tag_201\n      jump\t// in\n    tag_339:\n        /* \"#utility.yul\":13228:13230   */\n      0x20\n        /* \"#utility.yul\":13223:13226   */\n      dup3\n        /* \"#utility.yul\":13219:13231   */\n      add\n        /* \"#utility.yul\":13212:13231   */\n      swap1\n      pop\n        /* \"#utility.yul\":12871:13237   */\n      swap2\n      swap1\n      pop\n      jump\t// out\n        /* \"#utility.yul\":13243:13662   */\n    tag_136:\n        /* \"#utility.yul\":13409:13413   */\n      0x00\n        /* \"#utility.yul\":13447:13449   */\n      0x20\n        /* \"#utility.yul\":13436:13445   */\n      dup3\n        /* \"#utility.yul\":13432:13450   */\n      add\n        /* \"#utility.yul\":13424:13450   */\n      swap1\n      pop\n        /* \"#utility.yul\":13496:13505   */\n      dup2\n        /* \"#utility.yul\":13490:13494   */\n      dup2\n        /* \"#utility.yul\":13486:13506   */\n      sub\n        /* \"#utility.yul\":13482:13483   */\n      0x00\n        /* \"#utility.yul\":13471:13480   */\n      dup4\n        /* \"#utility.yul\":13467:13484   */\n      add\n        /* \"#utility.yul\":13460:13507   */\n      mstore\n        /* \"#utility.yul\":13524:13655   */\n      tag_341\n        /* \"#utility.yul\":13650:13654   */\n      dup2\n        /* \"#utility.yul\":13524:13655   */\n      tag_202\n      jump\t// in\n    tag_341:\n        /* \"#utility.yul\":13516:13655   */\n      swap1\n      pop\n        /* \"#utility.yul\":13243:13662   */\n      swap2\n      swap1\n      pop\n      jump\t// out\n        /* \"#utility.yul\":13668:13845   */\n    tag_203:\n        /* \"#utility.yul\":13808:13837   */\n      0x4f6e6c7920486967686572205570732063616e20616363657373210000000000\n        /* \"#utility.yul\":13804:13805   */\n      0x00\n        /* \"#utility.yul\":13796:13802   */\n      dup3\n        /* \"#utility.yul\":13792:13806   */\n      add\n        /* \"#utility.yul\":13785:13838   */\n      mstore\n        /* \"#utility.yul\":13668:13845   */\n      pop\n      jump\t// out\n        /* \"#utility.yul\":13851:14217   */\n    tag_204:\n        /* \"#utility.yul\":13993:13996   */\n      0x00\n        /* \"#utility.yul\":14014:14081   */\n      tag_344\n        /* \"#utility.yul\":14078:14080   */\n      0x1b\n        /* \"#utility.yul\":14073:14076   */\n      dup4\n        /* \"#utility.yul\":14014:14081   */\n      tag_187\n      jump\t// in\n    tag_344:\n        /* \"#utility.yul\":14007:14081   */\n      swap2\n      pop\n        /* \"#utility.yul\":14090:14183   */\n      tag_345\n        /* \"#utility.yul\":14179:14182   */\n      dup3\n        /* \"#utility.yul\":14090:14183   */\n      tag_203\n      jump\t// in\n    tag_345:\n        /* \"#utility.yul\":14208:14210   */\n      0x20\n        /* \"#utility.yul\":14203:14206   */\n      dup3\n        /* \"#utility.yul\":14199:14211   */\n      add\n        /* \"#utility.yul\":14192:14211   */\n      swap1\n      pop\n        /* \"#utility.yul\":13851:14217   */\n      swap2\n      swap1\n      pop\n      jump\t// out\n        /* \"#utility.yul\":14223:14642   */\n    tag_143:\n        /* \"#utility.yul\":14389:14393   */\n      0x00\n        /* \"#utility.yul\":14427:14429   */\n      0x20\n        /* \"#utility.yul\":14416:14425   */\n      dup3\n        /* \"#utility.yul\":14412:14430   */\n      add\n        /* \"#utility.yul\":14404:14430   */\n      swap1\n      pop\n        /* \"#utility.yul\":14476:14485   */\n      dup2\n        /* \"#utility.yul\":14470:14474   */\n      dup2\n        /* \"#utility.yul\":14466:14486   */\n      sub\n        /* \"#utility.yul\":14462:14463   */\n      0x00\n        /* \"#utility.yul\":14451:14460   */\n      dup4\n        /* \"#utility.yul\":14447:14464   */\n      add\n        /* \"#utility.yul\":14440:14487   */\n      mstore\n        /* \"#utility.yul\":14504:14635   */\n      tag_347\n        /* \"#utility.yul\":14630:14634   */\n      dup2\n        /* \"#utility.yul\":14504:14635   */\n      tag_204\n      jump\t// in\n    tag_347:\n        /* \"#utility.yul\":14496:14635   */\n      swap1\n      pop\n        /* \"#utility.yul\":14223:14642   */\n      swap2\n      swap1\n      pop\n      jump\t// out\n        /* \"#utility.yul\":14648:14815   */\n    tag_205:\n        /* \"#utility.yul\":14788:14807   */\n      0x496e76616c696420526563697069656e74000000000000000000000000000000\n        /* \"#utility.yul\":14784:14785   */\n      0x00\n        /* \"#utility.yul\":14776:14782   */\n      dup3\n        /* \"#utility.yul\":14772:14786   */\n      add\n        /* \"#utility.yul\":14765:14808   */\n      mstore\n        /* \"#utility.yul\":14648:14815   */\n      pop\n      jump\t// out\n        /* \"#utility.yul\":14821:15187   */\n    tag_206:\n        /* \"#utility.yul\":14963:14966   */\n      0x00\n        /* \"#utility.yul\":14984:15051   */\n      tag_350\n        /* \"#utility.yul\":15048:15050   */\n      0x11\n        /* \"#utility.yul\":15043:15046   */\n      dup4\n        /* \"#utility.yul\":14984:15051   */\n      tag_187\n      jump\t// in\n    tag_350:\n        /* \"#utility.yul\":14977:15051   */\n      swap2\n      pop\n        /* \"#utility.yul\":15060:15153   */\n      tag_351\n        /* \"#utility.yul\":15149:15152   */\n      dup3\n        /* \"#utility.yul\":15060:15153   */\n      tag_205\n      jump\t// in\n    tag_351:\n        /* \"#utility.yul\":15178:15180   */\n      0x20\n        /* \"#utility.yul\":15173:15176   */\n      dup3\n        /* \"#utility.yul\":15169:15181   */\n      add\n        /* \"#utility.yul\":15162:15181   */\n      swap1\n      pop\n        /* \"#utility.yul\":14821:15187   */\n      swap2\n      swap1\n      pop\n      jump\t// out\n        /* \"#utility.yul\":15193:15612   */\n    tag_147:\n        /* \"#utility.yul\":15359:15363   */\n      0x00\n        /* \"#utility.yul\":15397:15399   */\n      0x20\n        /* \"#utility.yul\":15386:15395   */\n      dup3\n        /* \"#utility.yul\":15382:15400   */\n      add\n        /* \"#utility.yul\":15374:15400   */\n      swap1\n      pop\n        /* \"#utility.yul\":15446:15455   */\n      dup2\n        /* \"#utility.yul\":15440:15444   */\n      dup2\n        /* \"#utility.yul\":15436:15456   */\n      sub\n        /* \"#utility.yul\":15432:15433   */\n      0x00\n        /* \"#utility.yul\":15421:15430   */\n      dup4\n        /* \"#utility.yul\":15417:15434   */\n      add\n        /* \"#utility.yul\":15410:15457   */\n      mstore\n        /* \"#utility.yul\":15474:15605   */\n      tag_353\n        /* \"#utility.yul\":15600:15604   */\n      dup2\n        /* \"#utility.yul\":15474:15605   */\n      tag_206\n      jump\t// in\n    tag_353:\n        /* \"#utility.yul\":15466:15605   */\n      swap1\n      pop\n        /* \"#utility.yul\":15193:15612   */\n      swap2\n      swap1\n      pop\n      jump\t// out\n        /* \"#utility.yul\":15618:15785   */\n    tag_207:\n        /* \"#utility.yul\":15758:15777   */\n      0x4e6f7420656e6f75676820437265646974000000000000000000000000000000\n        /* \"#utility.yul\":15754:15755   */\n      0x00\n        /* \"#utility.yul\":15746:15752   */\n      dup3\n        /* \"#utility.yul\":15742:15756   */\n      add\n        /* \"#utility.yul\":15735:15778   */\n      mstore\n        /* \"#utility.yul\":15618:15785   */\n      pop\n      jump\t// out\n        /* \"#utility.yul\":15791:16157   */\n    tag_208:\n        /* \"#utility.yul\":15933:15936   */\n      0x00\n        /* \"#utility.yul\":15954:16021   */\n      tag_356\n        /* \"#utility.yul\":16018:16020   */\n      0x11\n        /* \"#utility.yul\":16013:16016   */\n      dup4\n        /* \"#utility.yul\":15954:16021   */\n      tag_187\n      jump\t// in\n    tag_356:\n        /* \"#utility.yul\":15947:16021   */\n      swap2\n      pop\n        /* \"#utility.yul\":16030:16123   */\n      tag_357\n        /* \"#utility.yul\":16119:16122   */\n      dup3\n        /* \"#utility.yul\":16030:16123   */\n      tag_207\n      jump\t// in\n    tag_357:\n        /* \"#utility.yul\":16148:16150   */\n      0x20\n        /* \"#utility.yul\":16143:16146   */\n      dup3\n        /* \"#utility.yul\":16139:16151   */\n      add\n        /* \"#utility.yul\":16132:16151   */\n      swap1\n      pop\n        /* \"#utility.yul\":15791:16157   */\n      swap2\n      swap1\n      pop\n      jump\t// out\n        /* \"#utility.yul\":16163:16582   */\n    tag_151:\n        /* \"#utility.yul\":16329:16333   */\n      0x00\n        /* \"#utility.yul\":16367:16369   */\n      0x20\n        /* \"#utility.yul\":16356:16365   */\n      dup3\n        /* \"#utility.yul\":16352:16370   */\n      add\n        /* \"#utility.yul\":16344:16370   */\n      swap1\n      pop\n        /* \"#utility.yul\":16416:16425   */\n      dup2\n        /* \"#utility.yul\":16410:16414   */\n      dup2\n        /* \"#utility.yul\":16406:16426   */\n      sub\n        /* \"#utility.yul\":16402:16403   */\n      0x00\n        /* \"#utility.yul\":16391:16400   */\n      dup4\n        /* \"#utility.yul\":16387:16404   */\n      add\n        /* \"#utility.yul\":16380:16427   */\n      mstore\n        /* \"#utility.yul\":16444:16575   */\n      tag_359\n        /* \"#utility.yul\":16570:16574   */\n      dup2\n        /* \"#utility.yul\":16444:16575   */\n      tag_208\n      jump\t// in\n    tag_359:\n        /* \"#utility.yul\":16436:16575   */\n      swap1\n      pop\n        /* \"#utility.yul\":16163:16582   */\n      swap2\n      swap1\n      pop\n      jump\t// out\n        /* \"#utility.yul\":16588:16686   */\n    tag_209:\n        /* \"#utility.yul\":16639:16645   */\n      0x00\n        /* \"#utility.yul\":16673:16678   */\n      dup2\n        /* \"#utility.yul\":16667:16679   */\n      mload\n        /* \"#utility.yul\":16657:16679   */\n      swap1\n      pop\n        /* \"#utility.yul\":16588:16686   */\n      swap2\n      swap1\n      pop\n      jump\t// out\n        /* \"#utility.yul\":16692:16839   */\n    tag_210:\n        /* \"#utility.yul\":16793:16804   */\n      0x00\n        /* \"#utility.yul\":16830:16833   */\n      dup2\n        /* \"#utility.yul\":16815:16833   */\n      swap1\n      pop\n        /* \"#utility.yul\":16692:16839   */\n      swap3\n      swap2\n      pop\n      pop\n      jump\t// out\n        /* \"#utility.yul\":16845:16984   */\n    tag_211:\n        /* \"#utility.yul\":16934:16940   */\n      dup3\n        /* \"#utility.yul\":16929:16932   */\n      dup2\n        /* \"#utility.yul\":16924:16927   */\n      dup4\n        /* \"#utility.yul\":16918:16941   */\n      mcopy\n        /* \"#utility.yul\":16975:16976   */\n      0x00\n        /* \"#utility.yul\":16966:16972   */\n      dup4\n        /* \"#utility.yul\":16961:16964   */\n      dup4\n        /* \"#utility.yul\":16957:16973   */\n      add\n        /* \"#utility.yul\":16950:16977   */\n      mstore\n        /* \"#utility.yul\":16845:16984   */\n      pop\n      pop\n      pop\n      jump\t// out\n        /* \"#utility.yul\":16990:17376   */\n    tag_212:\n        /* \"#utility.yul\":17094:17097   */\n      0x00\n        /* \"#utility.yul\":17122:17160   */\n      tag_364\n        /* \"#utility.yul\":17154:17159   */\n      dup3\n        /* \"#utility.yul\":17122:17160   */\n      tag_209\n      jump\t// in\n    tag_364:\n        /* \"#utility.yul\":17176:17264   */\n      tag_365\n        /* \"#utility.yul\":17257:17263   */\n      dup2\n        /* \"#utility.yul\":17252:17255   */\n      dup6\n        /* \"#utility.yul\":17176:17264   */\n      tag_210\n      jump\t// in\n    tag_365:\n        /* \"#utility.yul\":17169:17264   */\n      swap4\n      pop\n        /* \"#utility.yul\":17273:17338   */\n      tag_366\n        /* \"#utility.yul\":17331:17337   */\n      dup2\n        /* \"#utility.yul\":17326:17329   */\n      dup6\n        /* \"#utility.yul\":17319:17323   */\n      0x20\n        /* \"#utility.yul\":17312:17317   */\n      dup7\n        /* \"#utility.yul\":17308:17324   */\n      add\n        /* \"#utility.yul\":17273:17338   */\n      tag_211\n      jump\t// in\n    tag_366:\n        /* \"#utility.yul\":17363:17369   */\n      dup1\n        /* \"#utility.yul\":17358:17361   */\n      dup5\n        /* \"#utility.yul\":17354:17370   */\n      add\n        /* \"#utility.yul\":17347:17370   */\n      swap2\n      pop\n        /* \"#utility.yul\":17098:17376   */\n      pop\n        /* \"#utility.yul\":16990:17376   */\n      swap3\n      swap2\n      pop\n      pop\n      jump\t// out\n        /* \"#utility.yul\":17382:17653   */\n    tag_155:\n        /* \"#utility.yul\":17512:17515   */\n      0x00\n        /* \"#utility.yul\":17534:17627   */\n      tag_368\n        /* \"#utility.yul\":17623:17626   */\n      dup3\n        /* \"#utility.yul\":17614:17620   */\n      dup5\n        /* \"#utility.yul\":17534:17627   */\n      tag_212\n      jump\t// in\n    tag_368:\n        /* \"#utility.yul\":17527:17627   */\n      swap2\n      pop\n        /* \"#utility.yul\":17644:17647   */\n      dup2\n        /* \"#utility.yul\":17637:17647   */\n      swap1\n      pop\n        /* \"#utility.yul\":17382:17653   */\n      swap3\n      swap2\n      pop\n      pop\n      jump\t// out\n        /* \"#utility.yul\":17659:17835   */\n    tag_213:\n        /* \"#utility.yul\":17799:17827   */\n      0x4661696c656420746f205472616e736665722043726564697421000000000000\n        /* \"#utility.yul\":17795:17796   */\n      0x00\n        /* \"#utility.yul\":17787:17793   */\n      dup3\n        /* \"#utility.yul\":17783:17797   */\n      add\n        /* \"#utility.yul\":17776:17828   */\n      mstore\n        /* \"#utility.yul\":17659:17835   */\n      pop\n      jump\t// out\n        /* \"#utility.yul\":17841:18207   */\n    tag_214:\n        /* \"#utility.yul\":17983:17986   */\n      0x00\n        /* \"#utility.yul\":18004:18071   */\n      tag_371\n        /* \"#utility.yul\":18068:18070   */\n      0x1a\n        /* \"#utility.yul\":18063:18066   */\n      dup4\n        /* \"#utility.yul\":18004:18071   */\n      tag_187\n      jump\t// in\n    tag_371:\n        /* \"#utility.yul\":17997:18071   */\n      swap2\n      pop\n        /* \"#utility.yul\":18080:18173   */\n      tag_372\n        /* \"#utility.yul\":18169:18172   */\n      dup3\n        /* \"#utility.yul\":18080:18173   */\n      tag_213\n      jump\t// in\n    tag_372:\n        /* \"#utility.yul\":18198:18200   */\n      0x20\n        /* \"#utility.yul\":18193:18196   */\n      dup3\n        /* \"#utility.yul\":18189:18201   */\n      add\n        /* \"#utility.yul\":18182:18201   */\n      swap1\n      pop\n        /* \"#utility.yul\":17841:18207   */\n      swap2\n      swap1\n      pop\n      jump\t// out\n        /* \"#utility.yul\":18213:18632   */\n    tag_162:\n        /* \"#utility.yul\":18379:18383   */\n      0x00\n        /* \"#utility.yul\":18417:18419   */\n      0x20\n        /* \"#utility.yul\":18406:18415   */\n      dup3\n        /* \"#utility.yul\":18402:18420   */\n      add\n        /* \"#utility.yul\":18394:18420   */\n      swap1\n      pop\n        /* \"#utility.yul\":18466:18475   */\n      dup2\n        /* \"#utility.yul\":18460:18464   */\n      dup2\n        /* \"#utility.yul\":18456:18476   */\n      sub\n        /* \"#utility.yul\":18452:18453   */\n      0x00\n        /* \"#utility.yul\":18441:18450   */\n      dup4\n        /* \"#utility.yul\":18437:18454   */\n      add\n        /* \"#utility.yul\":18430:18477   */\n      mstore\n        /* \"#utility.yul\":18494:18625   */\n      tag_374\n        /* \"#utility.yul\":18620:18624   */\n      dup2\n        /* \"#utility.yul\":18494:18625   */\n      tag_214\n      jump\t// in\n    tag_374:\n        /* \"#utility.yul\":18486:18625   */\n      swap1\n      pop\n        /* \"#utility.yul\":18213:18632   */\n      swap2\n      swap1\n      pop\n      jump\t// out\n\n    auxdata: 0xa264697066735822122050b587ed50ac218f978ecd0b0ef1e6b462e2d7ee188059b7a5d6c8486650127064736f6c634300081a0033\n}\n",
				"bytecode": {
					"linkReferences": {},
					"object": "6080604052335f806101000a81548173ffffffffffffffffffffffffffffffffffffffff021916908373ffffffffffffffffffffffffffffffffffffffff1602179055506802b5e3af16b188000060018190555068015af1d78b58c4000060035f3373ffffffffffffffffffffffffffffffffffffffff1673ffffffffffffffffffffffffffffffffffffffff1681526020019081526020015f20819055506118d4806100ab5f395ff3fe6080604052600436106100f2575f3560e01c80638e4e6f0611610089578063be45fd6211610058578063be45fd62146102c4578063d6165e9b146102ec578063ea66543f14610328578063f3ae241514610364576100f2565b80638e4e6f0614610266578063ac300db814610270578063b6b8b3c714610286578063bc4e3172146102ae576100f2565b806360a22a05116100c557806360a22a05146101ae5780636a286981146101ea57806370a08231146102005780638da5cb5b1461023c576100f2565b806318160ddd146100f6578063392e396d146101205780634ad6cbd41461015c5780634f3add0f14610198575b5f80fd5b348015610101575f80fd5b5061010a6103a0565b6040516101179190610fee565b60405180910390f35b34801561012b575f80fd5b5061014660048036038101906101419190611072565b6103a6565b60405161015391906110b7565b60405180910390f35b348015610167575f80fd5b50610182600480360381019061017d9190611072565b6103c3565b60405161018f91906110b7565b60405180910390f35b3480156101a3575f80fd5b506101ac6103e0565b005b3480156101b9575f80fd5b506101d460048036038101906101cf91906110fa565b6105df565b6040516101e19190611134565b60405180910390f35b3480156101f5575f80fd5b506101fe61061a565b005b34801561020b575f80fd5b5061022660048036038101906102219190611072565b610781565b6040516102339190610fee565b60405180910390f35b348015610247575f80fd5b50610250610796565b60405161025d9190611134565b60405180910390f35b61026e6107b9565b005b34801561027b575f80fd5b50610284610906565b005b348015610291575f80fd5b506102ac60048036038101906102a791906110fa565b610a97565b005b3480156102b9575f80fd5b506102c2610c25565b005b3480156102cf575f80fd5b506102ea60048036038101906102e59190611289565b610c7c565b005b3480156102f7575f80fd5b50610312600480360381019061030d9190611072565b610f7f565b60405161031f91906110b7565b60405180910390f35b348015610333575f80fd5b5061034e60048036038101906103499190611072565b610f9c565b60405161035b91906110b7565b60405180910390f35b34801561036f575f80fd5b5061038a60048036038101906103859190611072565b610fb9565b60405161039791906110b7565b60405180910390f35b60015481565b6005602052805f5260405f205f915054906101000a900460ff1681565b6004602052805f5260405f205f915054906101000a900460ff1681565b6001151560065f3373ffffffffffffffffffffffffffffffffffffffff1673ffffffffffffffffffffffffffffffffffffffff1681526020019081526020015f205f9054906101000a900460ff16151514610470576040517f08c379a00000000000000000000000000000000000000000000000000000000081526004016104679061134f565b60405180910390fd5b670de0b6b3a764000060035f3373ffffffffffffffffffffffffffffffffffffffff1673ffffffffffffffffffffffffffffffffffffffff1681526020019081526020015f205410156104f8576040517f08c379a00000000000000000000000000000000000000000000000000000000081526004016104ef906113b7565b60405180910390fd5b6001151560065f3373ffffffffffffffffffffffffffffffffffffffff1673ffffffffffffffffffffffffffffffffffffffff1681526020019081526020015f205f9054906101000a900460ff16151514610588576040517f08c379a000000000000000000000000000000000000000000000000000000000815260040161057f9061141f565b60405180910390fd5b600160075f3373ffffffffffffffffffffffffffffffffffffffff1673ffffffffffffffffffffffffffffffffffffffff1681526020019081526020015f205f6101000a81548160ff021916908315150217905550565b600281815481106105ee575f80fd5b905f5260205f20015f915054906101000a900473ffffffffffffffffffffffffffffffffffffffff1681565b5f151560055f3373ffffffffffffffffffffffffffffffffffffffff1673ffffffffffffffffffffffffffffffffffffffff1681526020019081526020015f205f9054906101000a900460ff161515146106a9576040517f08c379a00000000000000000000000000000000000000000000000000000000081526004016106a090611487565b60405180910390fd5b670de0b6b3a764000060035f805f9054906101000a900473ffffffffffffffffffffffffffffffffffffffff1673ffffffffffffffffffffffffffffffffffffffff1673ffffffffffffffffffffffffffffffffffffffff1681526020019081526020015f205f82825461071d91906114d2565b92505081905550670de0b6b3a764000060035f3373ffffffffffffffffffffffffffffffffffffffff1673ffffffffffffffffffffffffffffffffffffffff1681526020019081526020015f205f8282546107789190611505565b92505081905550565b6003602052805f5260405f205f915090505481565b5f8054906101000a900473ffffffffffffffffffffffffffffffffffffffff1681565b6001151560065f3373ffffffffffffffffffffffffffffffffffffffff1673ffffffffffffffffffffffffffffffffffffffff1681526020019081526020015f205f9054906101000a900460ff16151514610849576040517f08c379a00000000000000000000000000000000000000000000000000000000081526004016108409061134f565b60405180910390fd5b670de0b6b3a7640000341015610894576040517f08c379a000000000000000000000000000000000000000000000000000000000815260040161088b90611582565b60405180910390fd5b5f3490508060035f3373ffffffffffffffffffffffffffffffffffffffff1673ffffffffffffffffffffffffffffffffffffffff1681526020019081526020015f205f8282546108e49190611505565b925050819055508060015f8282546108fc9190611505565b9250508190555050565b6001151560065f3373ffffffffffffffffffffffffffffffffffffffff1673ffffffffffffffffffffffffffffffffffffffff1681526020019081526020015f205f9054906101000a900460ff1615151480156109b057506001151560075f3373ffffffffffffffffffffffffffffffffffffffff1673ffffffffffffffffffffffffffffffffffffffff1681526020019081526020015f205f9054906101000a900460ff161515145b6109b8575f80fd5b674563918244f4000060035f3373ffffffffffffffffffffffffffffffffffffffff1673ffffffffffffffffffffffffffffffffffffffff1681526020019081526020015f20541015610a40576040517f08c379a0000000000000000000000000000000000000000000000000000000008152600401610a3790611610565b60405180910390fd5b600160085f3373ffffffffffffffffffffffffffffffffffffffff1673ffffffffffffffffffffffffffffffffffffffff1681526020019081526020015f205f6101000a81548160ff021916908315150217905550565b6001151560065f3373ffffffffffffffffffffffffffffffffffffffff1673ffffffffffffffffffffffffffffffffffffffff1681526020019081526020015f205f9054906101000a900460ff16151514610b27576040517f08c379a0000000000000000000000000000000000000000000000000000000008152600401610b1e9061134f565b60405180910390fd5b5f8160035f3373ffffffffffffffffffffffffffffffffffffffff1673ffffffffffffffffffffffffffffffffffffffff1681526020019081526020015f2054610b7191906114d2565b1015610bb2576040517f08c379a0000000000000000000000000000000000000000000000000000000008152600401610ba990611678565b60405180910390fd5b5f8190508060035f3373ffffffffffffffffffffffffffffffffffffffff1673ffffffffffffffffffffffffffffffffffffffff1681526020019081526020015f205f828254610c0291906114d2565b925050819055508060015f828254610c1a91906114d2565b925050819055505050565b600160065f3373ffffffffffffffffffffffffffffffffffffffff1673ffffffffffffffffffffffffffffffffffffffff1681526020019081526020015f205f6101000a81548160ff021916908315150217905550565b6001151560085f3373ffffffffffffffffffffffffffffffffffffffff1673ffffffffffffffffffffffffffffffffffffffff1681526020019081526020015f205f9054906101000a900460ff16151514610d0c576040517f08c379a0000000000000000000000000000000000000000000000000000000008152600401610d03906116e0565b60405180910390fd5b5f73ffffffffffffffffffffffffffffffffffffffff168373ffffffffffffffffffffffffffffffffffffffff1603610d7a576040517f08c379a0000000000000000000000000000000000000000000000000000000008152600401610d7190611748565b60405180910390fd5b5f8260035f3373ffffffffffffffffffffffffffffffffffffffff1673ffffffffffffffffffffffffffffffffffffffff1681526020019081526020015f2054610dc491906114d2565b1015610e05576040517f08c379a0000000000000000000000000000000000000000000000000000000008152600401610dfc906117b0565b60405180910390fd5b5f8290508060035f3373ffffffffffffffffffffffffffffffffffffffff1673ffffffffffffffffffffffffffffffffffffffff1681526020019081526020015f205f828254610e5591906114d2565b925050819055508060035f8673ffffffffffffffffffffffffffffffffffffffff1673ffffffffffffffffffffffffffffffffffffffff1681526020019081526020015f205f828254610ea89190611505565b925050819055505f8473ffffffffffffffffffffffffffffffffffffffff168484604051602001610ed99190611820565b604051602081830303815290604052604051610ef59190611820565b5f6040518083038185875af1925050503d805f8114610f2f576040519150601f19603f3d011682016040523d82523d5f602084013e610f34565b606091505b5050905080610f78576040517f08c379a0000000000000000000000000000000000000000000000000000000008152600401610f6f90611880565b60405180910390fd5b5050505050565b6008602052805f5260405f205f915054906101000a900460ff1681565b6006602052805f5260405f205f915054906101000a900460ff1681565b6007602052805f5260405f205f915054906101000a900460ff1681565b5f819050919050565b610fe881610fd6565b82525050565b5f6020820190506110015f830184610fdf565b92915050565b5f604051905090565b5f80fd5b5f80fd5b5f73ffffffffffffffffffffffffffffffffffffffff82169050919050565b5f61104182611018565b9050919050565b61105181611037565b811461105b575f80fd5b50565b5f8135905061106c81611048565b92915050565b5f6020828403121561108757611086611010565b5b5f6110948482850161105e565b91505092915050565b5f8115159050919050565b6110b18161109d565b82525050565b5f6020820190506110ca5f8301846110a8565b92915050565b6110d981610fd6565b81146110e3575f80fd5b50565b5f813590506110f4816110d0565b92915050565b5f6020828403121561110f5761110e611010565b5b5f61111c848285016110e6565b91505092915050565b61112e81611037565b82525050565b5f6020820190506111475f830184611125565b92915050565b5f80fd5b5f80fd5b5f601f19601f8301169050919050565b7f4e487b71000000000000000000000000000000000000000000000000000000005f52604160045260245ffd5b61119b82611155565b810181811067ffffffffffffffff821117156111ba576111b9611165565b5b80604052505050565b5f6111cc611007565b90506111d88282611192565b919050565b5f67ffffffffffffffff8211156111f7576111f6611165565b5b61120082611155565b9050602081019050919050565b828183375f83830152505050565b5f61122d611228846111dd565b6111c3565b90508281526020810184848401111561124957611248611151565b5b61125484828561120d565b509392505050565b5f82601f8301126112705761126f61114d565b5b813561128084826020860161121b565b91505092915050565b5f805f606084860312156112a05761129f611010565b5b5f6112ad8682870161105e565b93505060206112be868287016110e6565b925050604084013567ffffffffffffffff8111156112df576112de611014565b5b6112eb8682870161125c565b9150509250925092565b5f82825260208201905092915050565b7f4f6e6c7920456d706c6f7965652063616e2065786368616e67652100000000005f82015250565b5f611339601b836112f5565b915061134482611305565b602082019050919050565b5f6020820190508181035f8301526113668161132d565b9050919050565b7f4d7573742068617665206174206c6561737420312065746865720000000000005f82015250565b5f6113a1601a836112f5565b91506113ac8261136d565b602082019050919050565b5f6020820190508181035f8301526113ce81611395565b9050919050565b7f4f6e6c7920456d706c6f7965652063616e2062652070726f6d6f7465640000005f82015250565b5f611409601d836112f5565b9150611414826113d5565b602082019050919050565b5f6020820190508181035f830152611436816113fd565b9050919050565b7f426f6e75732063616e206f6e6c792062652074616b656e206f6e6365210000005f82015250565b5f611471601d836112f5565b915061147c8261143d565b602082019050919050565b5f6020820190508181035f83015261149e81611465565b9050919050565b7f4e487b71000000000000000000000000000000000000000000000000000000005f52601160045260245ffd5b5f6114dc82610fd6565b91506114e783610fd6565b92508282039050818111156114ff576114fe6114a5565b5b92915050565b5f61150f82610fd6565b915061151a83610fd6565b9250828201905080821115611532576115316114a5565b5b92915050565b7f4d696e696d756d206973203120457468657200000000000000000000000000005f82015250565b5f61156c6012836112f5565b915061157782611538565b602082019050919050565b5f6020820190508181035f83015261159981611560565b9050919050565b7f4d7573742062652074686174205269636820746f206265636f6d6520616e20455f8201527f7865637574697665000000000000000000000000000000000000000000000000602082015250565b5f6115fa6028836112f5565b9150611605826115a0565b604082019050919050565b5f6020820190508181035f830152611627816115ee565b9050919050565b7f4e6f7420456e6f756768204372656469740000000000000000000000000000005f82015250565b5f6116626011836112f5565b915061166d8261162e565b602082019050919050565b5f6020820190508181035f83015261168f81611656565b9050919050565b7f4f6e6c7920486967686572205570732063616e206163636573732100000000005f82015250565b5f6116ca601b836112f5565b91506116d582611696565b602082019050919050565b5f6020820190508181035f8301526116f7816116be565b9050919050565b7f496e76616c696420526563697069656e740000000000000000000000000000005f82015250565b5f6117326011836112f5565b915061173d826116fe565b602082019050919050565b5f6020820190508181035f83015261175f81611726565b9050919050565b7f4e6f7420656e6f756768204372656469740000000000000000000000000000005f82015250565b5f61179a6011836112f5565b91506117a582611766565b602082019050919050565b5f6020820190508181035f8301526117c78161178e565b9050919050565b5f81519050919050565b5f81905092915050565b8281835e5f83830152505050565b5f6117fa826117ce565b61180481856117d8565b93506118148185602086016117e2565b80840191505092915050565b5f61182b82846117f0565b915081905092915050565b7f4661696c656420746f205472616e7366657220437265646974210000000000005f82015250565b5f61186a601a836112f5565b915061187582611836565b602082019050919050565b5f6020820190508181035f8301526118978161185e565b905091905056fea264697066735822122050b587ed50ac218f978ecd0b0ef1e6b462e2d7ee188059b7a5d6c8486650127064736f6c634300081a0033",
					"opcodes": "PUSH1 0x80 PUSH1 0x40 MSTORE CALLER PUSH0 DUP1 PUSH2 0x100 EXP DUP2 SLOAD DUP2 PUSH20 0xFFFFFFFFFFFFFFFFFFFFFFFFFFFFFFFFFFFFFFFF MUL NOT AND SWAP1 DUP4 PUSH20 0xFFFFFFFFFFFFFFFFFFFFFFFFFFFFFFFFFFFFFFFF AND MUL OR SWAP1 SSTORE POP PUSH9 0x2B5E3AF16B1880000 PUSH1 0x1 DUP2 SWAP1 SSTORE POP PUSH9 0x15AF1D78B58C40000 PUSH1 0x3 PUSH0 CALLER PUSH20 0xFFFFFFFFFFFFFFFFFFFFFFFFFFFFFFFFFFFFFFFF AND PUSH20 0xFFFFFFFFFFFFFFFFFFFFFFFFFFFFFFFFFFFFFFFF AND DUP2 MSTORE PUSH1 0x20 ADD SWAP1 DUP2 MSTORE PUSH1 0x20 ADD PUSH0 KECCAK256 DUP2 SWAP1 SSTORE POP PUSH2 0x18D4 DUP1 PUSH2 0xAB PUSH0 CODECOPY PUSH0 RETURN INVALID PUSH1 0x80 PUSH1 0x40 MSTORE PUSH1 0x4 CALLDATASIZE LT PUSH2 0xF2 JUMPI PUSH0 CALLDATALOAD PUSH1 0xE0 SHR DUP1 PUSH4 0x8E4E6F06 GT PUSH2 0x89 JUMPI DUP1 PUSH4 0xBE45FD62 GT PUSH2 0x58 JUMPI DUP1 PUSH4 0xBE45FD62 EQ PUSH2 0x2C4 JUMPI DUP1 PUSH4 0xD6165E9B EQ PUSH2 0x2EC JUMPI DUP1 PUSH4 0xEA66543F EQ PUSH2 0x328 JUMPI DUP1 PUSH4 0xF3AE2415 EQ PUSH2 0x364 JUMPI PUSH2 0xF2 JUMP JUMPDEST DUP1 PUSH4 0x8E4E6F06 EQ PUSH2 0x266 JUMPI DUP1 PUSH4 0xAC300DB8 EQ PUSH2 0x270 JUMPI DUP1 PUSH4 0xB6B8B3C7 EQ PUSH2 0x286 JUMPI DUP1 PUSH4 0xBC4E3172 EQ PUSH2 0x2AE JUMPI PUSH2 0xF2 JUMP JUMPDEST DUP1 PUSH4 0x60A22A05 GT PUSH2 0xC5 JUMPI DUP1 PUSH4 0x60A22A05 EQ PUSH2 0x1AE JUMPI DUP1 PUSH4 0x6A286981 EQ PUSH2 0x1EA JUMPI DUP1 PUSH4 0x70A08231 EQ PUSH2 0x200 JUMPI DUP1 PUSH4 0x8DA5CB5B EQ PUSH2 0x23C JUMPI PUSH2 0xF2 JUMP JUMPDEST DUP1 PUSH4 0x18160DDD EQ PUSH2 0xF6 JUMPI DUP1 PUSH4 0x392E396D EQ PUSH2 0x120 JUMPI DUP1 PUSH4 0x4AD6CBD4 EQ PUSH2 0x15C JUMPI DUP1 PUSH4 0x4F3ADD0F EQ PUSH2 0x198 JUMPI JUMPDEST PUSH0 DUP1 REVERT JUMPDEST CALLVALUE DUP1 ISZERO PUSH2 0x101 JUMPI PUSH0 DUP1 REVERT JUMPDEST POP PUSH2 0x10A PUSH2 0x3A0 JUMP JUMPDEST PUSH1 0x40 MLOAD PUSH2 0x117 SWAP2 SWAP1 PUSH2 0xFEE JUMP JUMPDEST PUSH1 0x40 MLOAD DUP1 SWAP2 SUB SWAP1 RETURN JUMPDEST CALLVALUE DUP1 ISZERO PUSH2 0x12B JUMPI PUSH0 DUP1 REVERT JUMPDEST POP PUSH2 0x146 PUSH1 0x4 DUP1 CALLDATASIZE SUB DUP2 ADD SWAP1 PUSH2 0x141 SWAP2 SWAP1 PUSH2 0x1072 JUMP JUMPDEST PUSH2 0x3A6 JUMP JUMPDEST PUSH1 0x40 MLOAD PUSH2 0x153 SWAP2 SWAP1 PUSH2 0x10B7 JUMP JUMPDEST PUSH1 0x40 MLOAD DUP1 SWAP2 SUB SWAP1 RETURN JUMPDEST CALLVALUE DUP1 ISZERO PUSH2 0x167 JUMPI PUSH0 DUP1 REVERT JUMPDEST POP PUSH2 0x182 PUSH1 0x4 DUP1 CALLDATASIZE SUB DUP2 ADD SWAP1 PUSH2 0x17D SWAP2 SWAP1 PUSH2 0x1072 JUMP JUMPDEST PUSH2 0x3C3 JUMP JUMPDEST PUSH1 0x40 MLOAD PUSH2 0x18F SWAP2 SWAP1 PUSH2 0x10B7 JUMP JUMPDEST PUSH1 0x40 MLOAD DUP1 SWAP2 SUB SWAP1 RETURN JUMPDEST CALLVALUE DUP1 ISZERO PUSH2 0x1A3 JUMPI PUSH0 DUP1 REVERT JUMPDEST POP PUSH2 0x1AC PUSH2 0x3E0 JUMP JUMPDEST STOP JUMPDEST CALLVALUE DUP1 ISZERO PUSH2 0x1B9 JUMPI PUSH0 DUP1 REVERT JUMPDEST POP PUSH2 0x1D4 PUSH1 0x4 DUP1 CALLDATASIZE SUB DUP2 ADD SWAP1 PUSH2 0x1CF SWAP2 SWAP1 PUSH2 0x10FA JUMP JUMPDEST PUSH2 0x5DF JUMP JUMPDEST PUSH1 0x40 MLOAD PUSH2 0x1E1 SWAP2 SWAP1 PUSH2 0x1134 JUMP JUMPDEST PUSH1 0x40 MLOAD DUP1 SWAP2 SUB SWAP1 RETURN JUMPDEST CALLVALUE DUP1 ISZERO PUSH2 0x1F5 JUMPI PUSH0 DUP1 REVERT JUMPDEST POP PUSH2 0x1FE PUSH2 0x61A JUMP JUMPDEST STOP JUMPDEST CALLVALUE DUP1 ISZERO PUSH2 0x20B JUMPI PUSH0 DUP1 REVERT JUMPDEST POP PUSH2 0x226 PUSH1 0x4 DUP1 CALLDATASIZE SUB DUP2 ADD SWAP1 PUSH2 0x221 SWAP2 SWAP1 PUSH2 0x1072 JUMP JUMPDEST PUSH2 0x781 JUMP JUMPDEST PUSH1 0x40 MLOAD PUSH2 0x233 SWAP2 SWAP1 PUSH2 0xFEE JUMP JUMPDEST PUSH1 0x40 MLOAD DUP1 SWAP2 SUB SWAP1 RETURN JUMPDEST CALLVALUE DUP1 ISZERO PUSH2 0x247 JUMPI PUSH0 DUP1 REVERT JUMPDEST POP PUSH2 0x250 PUSH2 0x796 JUMP JUMPDEST PUSH1 0x40 MLOAD PUSH2 0x25D SWAP2 SWAP1 PUSH2 0x1134 JUMP JUMPDEST PUSH1 0x40 MLOAD DUP1 SWAP2 SUB SWAP1 RETURN JUMPDEST PUSH2 0x26E PUSH2 0x7B9 JUMP JUMPDEST STOP JUMPDEST CALLVALUE DUP1 ISZERO PUSH2 0x27B JUMPI PUSH0 DUP1 REVERT JUMPDEST POP PUSH2 0x284 PUSH2 0x906 JUMP JUMPDEST STOP JUMPDEST CALLVALUE DUP1 ISZERO PUSH2 0x291 JUMPI PUSH0 DUP1 REVERT JUMPDEST POP PUSH2 0x2AC PUSH1 0x4 DUP1 CALLDATASIZE SUB DUP2 ADD SWAP1 PUSH2 0x2A7 SWAP2 SWAP1 PUSH2 0x10FA JUMP JUMPDEST PUSH2 0xA97 JUMP JUMPDEST STOP JUMPDEST CALLVALUE DUP1 ISZERO PUSH2 0x2B9 JUMPI PUSH0 DUP1 REVERT JUMPDEST POP PUSH2 0x2C2 PUSH2 0xC25 JUMP JUMPDEST STOP JUMPDEST CALLVALUE DUP1 ISZERO PUSH2 0x2CF JUMPI PUSH0 DUP1 REVERT JUMPDEST POP PUSH2 0x2EA PUSH1 0x4 DUP1 CALLDATASIZE SUB DUP2 ADD SWAP1 PUSH2 0x2E5 SWAP2 SWAP1 PUSH2 0x1289 JUMP JUMPDEST PUSH2 0xC7C JUMP JUMPDEST STOP JUMPDEST CALLVALUE DUP1 ISZERO PUSH2 0x2F7 JUMPI PUSH0 DUP1 REVERT JUMPDEST POP PUSH2 0x312 PUSH1 0x4 DUP1 CALLDATASIZE SUB DUP2 ADD SWAP1 PUSH2 0x30D SWAP2 SWAP1 PUSH2 0x1072 JUMP JUMPDEST PUSH2 0xF7F JUMP JUMPDEST PUSH1 0x40 MLOAD PUSH2 0x31F SWAP2 SWAP1 PUSH2 0x10B7 JUMP JUMPDEST PUSH1 0x40 MLOAD DUP1 SWAP2 SUB SWAP1 RETURN JUMPDEST CALLVALUE DUP1 ISZERO PUSH2 0x333 JUMPI PUSH0 DUP1 REVERT JUMPDEST POP PUSH2 0x34E PUSH1 0x4 DUP1 CALLDATASIZE SUB DUP2 ADD SWAP1 PUSH2 0x349 SWAP2 SWAP1 PUSH2 0x1072 JUMP JUMPDEST PUSH2 0xF9C JUMP JUMPDEST PUSH1 0x40 MLOAD PUSH2 0x35B SWAP2 SWAP1 PUSH2 0x10B7 JUMP JUMPDEST PUSH1 0x40 MLOAD DUP1 SWAP2 SUB SWAP1 RETURN JUMPDEST CALLVALUE DUP1 ISZERO PUSH2 0x36F JUMPI PUSH0 DUP1 REVERT JUMPDEST POP PUSH2 0x38A PUSH1 0x4 DUP1 CALLDATASIZE SUB DUP2 ADD SWAP1 PUSH2 0x385 SWAP2 SWAP1 PUSH2 0x1072 JUMP JUMPDEST PUSH2 0xFB9 JUMP JUMPDEST PUSH1 0x40 MLOAD PUSH2 0x397 SWAP2 SWAP1 PUSH2 0x10B7 JUMP JUMPDEST PUSH1 0x40 MLOAD DUP1 SWAP2 SUB SWAP1 RETURN JUMPDEST PUSH1 0x1 SLOAD DUP2 JUMP JUMPDEST PUSH1 0x5 PUSH1 0x20 MSTORE DUP1 PUSH0 MSTORE PUSH1 0x40 PUSH0 KECCAK256 PUSH0 SWAP2 POP SLOAD SWAP1 PUSH2 0x100 EXP SWAP1 DIV PUSH1 0xFF AND DUP2 JUMP JUMPDEST PUSH1 0x4 PUSH1 0x20 MSTORE DUP1 PUSH0 MSTORE PUSH1 0x40 PUSH0 KECCAK256 PUSH0 SWAP2 POP SLOAD SWAP1 PUSH2 0x100 EXP SWAP1 DIV PUSH1 0xFF AND DUP2 JUMP JUMPDEST PUSH1 0x1 ISZERO ISZERO PUSH1 0x6 PUSH0 CALLER PUSH20 0xFFFFFFFFFFFFFFFFFFFFFFFFFFFFFFFFFFFFFFFF AND PUSH20 0xFFFFFFFFFFFFFFFFFFFFFFFFFFFFFFFFFFFFFFFF AND DUP2 MSTORE PUSH1 0x20 ADD SWAP1 DUP2 MSTORE PUSH1 0x20 ADD PUSH0 KECCAK256 PUSH0 SWAP1 SLOAD SWAP1 PUSH2 0x100 EXP SWAP1 DIV PUSH1 0xFF AND ISZERO ISZERO EQ PUSH2 0x470 JUMPI PUSH1 0x40 MLOAD PUSH32 0x8C379A000000000000000000000000000000000000000000000000000000000 DUP2 MSTORE PUSH1 0x4 ADD PUSH2 0x467 SWAP1 PUSH2 0x134F JUMP JUMPDEST PUSH1 0x40 MLOAD DUP1 SWAP2 SUB SWAP1 REVERT JUMPDEST PUSH8 0xDE0B6B3A7640000 PUSH1 0x3 PUSH0 CALLER PUSH20 0xFFFFFFFFFFFFFFFFFFFFFFFFFFFFFFFFFFFFFFFF AND PUSH20 0xFFFFFFFFFFFFFFFFFFFFFFFFFFFFFFFFFFFFFFFF AND DUP2 MSTORE PUSH1 0x20 ADD SWAP1 DUP2 MSTORE PUSH1 0x20 ADD PUSH0 KECCAK256 SLOAD LT ISZERO PUSH2 0x4F8 JUMPI PUSH1 0x40 MLOAD PUSH32 0x8C379A000000000000000000000000000000000000000000000000000000000 DUP2 MSTORE PUSH1 0x4 ADD PUSH2 0x4EF SWAP1 PUSH2 0x13B7 JUMP JUMPDEST PUSH1 0x40 MLOAD DUP1 SWAP2 SUB SWAP1 REVERT JUMPDEST PUSH1 0x1 ISZERO ISZERO PUSH1 0x6 PUSH0 CALLER PUSH20 0xFFFFFFFFFFFFFFFFFFFFFFFFFFFFFFFFFFFFFFFF AND PUSH20 0xFFFFFFFFFFFFFFFFFFFFFFFFFFFFFFFFFFFFFFFF AND DUP2 MSTORE PUSH1 0x20 ADD SWAP1 DUP2 MSTORE PUSH1 0x20 ADD PUSH0 KECCAK256 PUSH0 SWAP1 SLOAD SWAP1 PUSH2 0x100 EXP SWAP1 DIV PUSH1 0xFF AND ISZERO ISZERO EQ PUSH2 0x588 JUMPI PUSH1 0x40 MLOAD PUSH32 0x8C379A000000000000000000000000000000000000000000000000000000000 DUP2 MSTORE PUSH1 0x4 ADD PUSH2 0x57F SWAP1 PUSH2 0x141F JUMP JUMPDEST PUSH1 0x40 MLOAD DUP1 SWAP2 SUB SWAP1 REVERT JUMPDEST PUSH1 0x1 PUSH1 0x7 PUSH0 CALLER PUSH20 0xFFFFFFFFFFFFFFFFFFFFFFFFFFFFFFFFFFFFFFFF AND PUSH20 0xFFFFFFFFFFFFFFFFFFFFFFFFFFFFFFFFFFFFFFFF AND DUP2 MSTORE PUSH1 0x20 ADD SWAP1 DUP2 MSTORE PUSH1 0x20 ADD PUSH0 KECCAK256 PUSH0 PUSH2 0x100 EXP DUP2 SLOAD DUP2 PUSH1 0xFF MUL NOT AND SWAP1 DUP4 ISZERO ISZERO MUL OR SWAP1 SSTORE POP JUMP JUMPDEST PUSH1 0x2 DUP2 DUP2 SLOAD DUP2 LT PUSH2 0x5EE JUMPI PUSH0 DUP1 REVERT JUMPDEST SWAP1 PUSH0 MSTORE PUSH1 0x20 PUSH0 KECCAK256 ADD PUSH0 SWAP2 POP SLOAD SWAP1 PUSH2 0x100 EXP SWAP1 DIV PUSH20 0xFFFFFFFFFFFFFFFFFFFFFFFFFFFFFFFFFFFFFFFF AND DUP2 JUMP JUMPDEST PUSH0 ISZERO ISZERO PUSH1 0x5 PUSH0 CALLER PUSH20 0xFFFFFFFFFFFFFFFFFFFFFFFFFFFFFFFFFFFFFFFF AND PUSH20 0xFFFFFFFFFFFFFFFFFFFFFFFFFFFFFFFFFFFFFFFF AND DUP2 MSTORE PUSH1 0x20 ADD SWAP1 DUP2 MSTORE PUSH1 0x20 ADD PUSH0 KECCAK256 PUSH0 SWAP1 SLOAD SWAP1 PUSH2 0x100 EXP SWAP1 DIV PUSH1 0xFF AND ISZERO ISZERO EQ PUSH2 0x6A9 JUMPI PUSH1 0x40 MLOAD PUSH32 0x8C379A000000000000000000000000000000000000000000000000000000000 DUP2 MSTORE PUSH1 0x4 ADD PUSH2 0x6A0 SWAP1 PUSH2 0x1487 JUMP JUMPDEST PUSH1 0x40 MLOAD DUP1 SWAP2 SUB SWAP1 REVERT JUMPDEST PUSH8 0xDE0B6B3A7640000 PUSH1 0x3 PUSH0 DUP1 PUSH0 SWAP1 SLOAD SWAP1 PUSH2 0x100 EXP SWAP1 DIV PUSH20 0xFFFFFFFFFFFFFFFFFFFFFFFFFFFFFFFFFFFFFFFF AND PUSH20 0xFFFFFFFFFFFFFFFFFFFFFFFFFFFFFFFFFFFFFFFF AND PUSH20 0xFFFFFFFFFFFFFFFFFFFFFFFFFFFFFFFFFFFFFFFF AND DUP2 MSTORE PUSH1 0x20 ADD SWAP1 DUP2 MSTORE PUSH1 0x20 ADD PUSH0 KECCAK256 PUSH0 DUP3 DUP3 SLOAD PUSH2 0x71D SWAP2 SWAP1 PUSH2 0x14D2 JUMP JUMPDEST SWAP3 POP POP DUP2 SWAP1 SSTORE POP PUSH8 0xDE0B6B3A7640000 PUSH1 0x3 PUSH0 CALLER PUSH20 0xFFFFFFFFFFFFFFFFFFFFFFFFFFFFFFFFFFFFFFFF AND PUSH20 0xFFFFFFFFFFFFFFFFFFFFFFFFFFFFFFFFFFFFFFFF AND DUP2 MSTORE PUSH1 0x20 ADD SWAP1 DUP2 MSTORE PUSH1 0x20 ADD PUSH0 KECCAK256 PUSH0 DUP3 DUP3 SLOAD PUSH2 0x778 SWAP2 SWAP1 PUSH2 0x1505 JUMP JUMPDEST SWAP3 POP POP DUP2 SWAP1 SSTORE POP JUMP JUMPDEST PUSH1 0x3 PUSH1 0x20 MSTORE DUP1 PUSH0 MSTORE PUSH1 0x40 PUSH0 KECCAK256 PUSH0 SWAP2 POP SWAP1 POP SLOAD DUP2 JUMP JUMPDEST PUSH0 DUP1 SLOAD SWAP1 PUSH2 0x100 EXP SWAP1 DIV PUSH20 0xFFFFFFFFFFFFFFFFFFFFFFFFFFFFFFFFFFFFFFFF AND DUP2 JUMP JUMPDEST PUSH1 0x1 ISZERO ISZERO PUSH1 0x6 PUSH0 CALLER PUSH20 0xFFFFFFFFFFFFFFFFFFFFFFFFFFFFFFFFFFFFFFFF AND PUSH20 0xFFFFFFFFFFFFFFFFFFFFFFFFFFFFFFFFFFFFFFFF AND DUP2 MSTORE PUSH1 0x20 ADD SWAP1 DUP2 MSTORE PUSH1 0x20 ADD PUSH0 KECCAK256 PUSH0 SWAP1 SLOAD SWAP1 PUSH2 0x100 EXP SWAP1 DIV PUSH1 0xFF AND ISZERO ISZERO EQ PUSH2 0x849 JUMPI PUSH1 0x40 MLOAD PUSH32 0x8C379A000000000000000000000000000000000000000000000000000000000 DUP2 MSTORE PUSH1 0x4 ADD PUSH2 0x840 SWAP1 PUSH2 0x134F JUMP JUMPDEST PUSH1 0x40 MLOAD DUP1 SWAP2 SUB SWAP1 REVERT JUMPDEST PUSH8 0xDE0B6B3A7640000 CALLVALUE LT ISZERO PUSH2 0x894 JUMPI PUSH1 0x40 MLOAD PUSH32 0x8C379A000000000000000000000000000000000000000000000000000000000 DUP2 MSTORE PUSH1 0x4 ADD PUSH2 0x88B SWAP1 PUSH2 0x1582 JUMP JUMPDEST PUSH1 0x40 MLOAD DUP1 SWAP2 SUB SWAP1 REVERT JUMPDEST PUSH0 CALLVALUE SWAP1 POP DUP1 PUSH1 0x3 PUSH0 CALLER PUSH20 0xFFFFFFFFFFFFFFFFFFFFFFFFFFFFFFFFFFFFFFFF AND PUSH20 0xFFFFFFFFFFFFFFFFFFFFFFFFFFFFFFFFFFFFFFFF AND DUP2 MSTORE PUSH1 0x20 ADD SWAP1 DUP2 MSTORE PUSH1 0x20 ADD PUSH0 KECCAK256 PUSH0 DUP3 DUP3 SLOAD PUSH2 0x8E4 SWAP2 SWAP1 PUSH2 0x1505 JUMP JUMPDEST SWAP3 POP POP DUP2 SWAP1 SSTORE POP DUP1 PUSH1 0x1 PUSH0 DUP3 DUP3 SLOAD PUSH2 0x8FC SWAP2 SWAP1 PUSH2 0x1505 JUMP JUMPDEST SWAP3 POP POP DUP2 SWAP1 SSTORE POP POP JUMP JUMPDEST PUSH1 0x1 ISZERO ISZERO PUSH1 0x6 PUSH0 CALLER PUSH20 0xFFFFFFFFFFFFFFFFFFFFFFFFFFFFFFFFFFFFFFFF AND PUSH20 0xFFFFFFFFFFFFFFFFFFFFFFFFFFFFFFFFFFFFFFFF AND DUP2 MSTORE PUSH1 0x20 ADD SWAP1 DUP2 MSTORE PUSH1 0x20 ADD PUSH0 KECCAK256 PUSH0 SWAP1 SLOAD SWAP1 PUSH2 0x100 EXP SWAP1 DIV PUSH1 0xFF AND ISZERO ISZERO EQ DUP1 ISZERO PUSH2 0x9B0 JUMPI POP PUSH1 0x1 ISZERO ISZERO PUSH1 0x7 PUSH0 CALLER PUSH20 0xFFFFFFFFFFFFFFFFFFFFFFFFFFFFFFFFFFFFFFFF AND PUSH20 0xFFFFFFFFFFFFFFFFFFFFFFFFFFFFFFFFFFFFFFFF AND DUP2 MSTORE PUSH1 0x20 ADD SWAP1 DUP2 MSTORE PUSH1 0x20 ADD PUSH0 KECCAK256 PUSH0 SWAP1 SLOAD SWAP1 PUSH2 0x100 EXP SWAP1 DIV PUSH1 0xFF AND ISZERO ISZERO EQ JUMPDEST PUSH2 0x9B8 JUMPI PUSH0 DUP1 REVERT JUMPDEST PUSH8 0x4563918244F40000 PUSH1 0x3 PUSH0 CALLER PUSH20 0xFFFFFFFFFFFFFFFFFFFFFFFFFFFFFFFFFFFFFFFF AND PUSH20 0xFFFFFFFFFFFFFFFFFFFFFFFFFFFFFFFFFFFFFFFF AND DUP2 MSTORE PUSH1 0x20 ADD SWAP1 DUP2 MSTORE PUSH1 0x20 ADD PUSH0 KECCAK256 SLOAD LT ISZERO PUSH2 0xA40 JUMPI PUSH1 0x40 MLOAD PUSH32 0x8C379A000000000000000000000000000000000000000000000000000000000 DUP2 MSTORE PUSH1 0x4 ADD PUSH2 0xA37 SWAP1 PUSH2 0x1610 JUMP JUMPDEST PUSH1 0x40 MLOAD DUP1 SWAP2 SUB SWAP1 REVERT JUMPDEST PUSH1 0x1 PUSH1 0x8 PUSH0 CALLER PUSH20 0xFFFFFFFFFFFFFFFFFFFFFFFFFFFFFFFFFFFFFFFF AND PUSH20 0xFFFFFFFFFFFFFFFFFFFFFFFFFFFFFFFFFFFFFFFF AND DUP2 MSTORE PUSH1 0x20 ADD SWAP1 DUP2 MSTORE PUSH1 0x20 ADD PUSH0 KECCAK256 PUSH0 PUSH2 0x100 EXP DUP2 SLOAD DUP2 PUSH1 0xFF MUL NOT AND SWAP1 DUP4 ISZERO ISZERO MUL OR SWAP1 SSTORE POP JUMP JUMPDEST PUSH1 0x1 ISZERO ISZERO PUSH1 0x6 PUSH0 CALLER PUSH20 0xFFFFFFFFFFFFFFFFFFFFFFFFFFFFFFFFFFFFFFFF AND PUSH20 0xFFFFFFFFFFFFFFFFFFFFFFFFFFFFFFFFFFFFFFFF AND DUP2 MSTORE PUSH1 0x20 ADD SWAP1 DUP2 MSTORE PUSH1 0x20 ADD PUSH0 KECCAK256 PUSH0 SWAP1 SLOAD SWAP1 PUSH2 0x100 EXP SWAP1 DIV PUSH1 0xFF AND ISZERO ISZERO EQ PUSH2 0xB27 JUMPI PUSH1 0x40 MLOAD PUSH32 0x8C379A000000000000000000000000000000000000000000000000000000000 DUP2 MSTORE PUSH1 0x4 ADD PUSH2 0xB1E SWAP1 PUSH2 0x134F JUMP JUMPDEST PUSH1 0x40 MLOAD DUP1 SWAP2 SUB SWAP1 REVERT JUMPDEST PUSH0 DUP2 PUSH1 0x3 PUSH0 CALLER PUSH20 0xFFFFFFFFFFFFFFFFFFFFFFFFFFFFFFFFFFFFFFFF AND PUSH20 0xFFFFFFFFFFFFFFFFFFFFFFFFFFFFFFFFFFFFFFFF AND DUP2 MSTORE PUSH1 0x20 ADD SWAP1 DUP2 MSTORE PUSH1 0x20 ADD PUSH0 KECCAK256 SLOAD PUSH2 0xB71 SWAP2 SWAP1 PUSH2 0x14D2 JUMP JUMPDEST LT ISZERO PUSH2 0xBB2 JUMPI PUSH1 0x40 MLOAD PUSH32 0x8C379A000000000000000000000000000000000000000000000000000000000 DUP2 MSTORE PUSH1 0x4 ADD PUSH2 0xBA9 SWAP1 PUSH2 0x1678 JUMP JUMPDEST PUSH1 0x40 MLOAD DUP1 SWAP2 SUB SWAP1 REVERT JUMPDEST PUSH0 DUP2 SWAP1 POP DUP1 PUSH1 0x3 PUSH0 CALLER PUSH20 0xFFFFFFFFFFFFFFFFFFFFFFFFFFFFFFFFFFFFFFFF AND PUSH20 0xFFFFFFFFFFFFFFFFFFFFFFFFFFFFFFFFFFFFFFFF AND DUP2 MSTORE PUSH1 0x20 ADD SWAP1 DUP2 MSTORE PUSH1 0x20 ADD PUSH0 KECCAK256 PUSH0 DUP3 DUP3 SLOAD PUSH2 0xC02 SWAP2 SWAP1 PUSH2 0x14D2 JUMP JUMPDEST SWAP3 POP POP DUP2 SWAP1 SSTORE POP DUP1 PUSH1 0x1 PUSH0 DUP3 DUP3 SLOAD PUSH2 0xC1A SWAP2 SWAP1 PUSH2 0x14D2 JUMP JUMPDEST SWAP3 POP POP DUP2 SWAP1 SSTORE POP POP POP JUMP JUMPDEST PUSH1 0x1 PUSH1 0x6 PUSH0 CALLER PUSH20 0xFFFFFFFFFFFFFFFFFFFFFFFFFFFFFFFFFFFFFFFF AND PUSH20 0xFFFFFFFFFFFFFFFFFFFFFFFFFFFFFFFFFFFFFFFF AND DUP2 MSTORE PUSH1 0x20 ADD SWAP1 DUP2 MSTORE PUSH1 0x20 ADD PUSH0 KECCAK256 PUSH0 PUSH2 0x100 EXP DUP2 SLOAD DUP2 PUSH1 0xFF MUL NOT AND SWAP1 DUP4 ISZERO ISZERO MUL OR SWAP1 SSTORE POP JUMP JUMPDEST PUSH1 0x1 ISZERO ISZERO PUSH1 0x8 PUSH0 CALLER PUSH20 0xFFFFFFFFFFFFFFFFFFFFFFFFFFFFFFFFFFFFFFFF AND PUSH20 0xFFFFFFFFFFFFFFFFFFFFFFFFFFFFFFFFFFFFFFFF AND DUP2 MSTORE PUSH1 0x20 ADD SWAP1 DUP2 MSTORE PUSH1 0x20 ADD PUSH0 KECCAK256 PUSH0 SWAP1 SLOAD SWAP1 PUSH2 0x100 EXP SWAP1 DIV PUSH1 0xFF AND ISZERO ISZERO EQ PUSH2 0xD0C JUMPI PUSH1 0x40 MLOAD PUSH32 0x8C379A000000000000000000000000000000000000000000000000000000000 DUP2 MSTORE PUSH1 0x4 ADD PUSH2 0xD03 SWAP1 PUSH2 0x16E0 JUMP JUMPDEST PUSH1 0x40 MLOAD DUP1 SWAP2 SUB SWAP1 REVERT JUMPDEST PUSH0 PUSH20 0xFFFFFFFFFFFFFFFFFFFFFFFFFFFFFFFFFFFFFFFF AND DUP4 PUSH20 0xFFFFFFFFFFFFFFFFFFFFFFFFFFFFFFFFFFFFFFFF AND SUB PUSH2 0xD7A JUMPI PUSH1 0x40 MLOAD PUSH32 0x8C379A000000000000000000000000000000000000000000000000000000000 DUP2 MSTORE PUSH1 0x4 ADD PUSH2 0xD71 SWAP1 PUSH2 0x1748 JUMP JUMPDEST PUSH1 0x40 MLOAD DUP1 SWAP2 SUB SWAP1 REVERT JUMPDEST PUSH0 DUP3 PUSH1 0x3 PUSH0 CALLER PUSH20 0xFFFFFFFFFFFFFFFFFFFFFFFFFFFFFFFFFFFFFFFF AND PUSH20 0xFFFFFFFFFFFFFFFFFFFFFFFFFFFFFFFFFFFFFFFF AND DUP2 MSTORE PUSH1 0x20 ADD SWAP1 DUP2 MSTORE PUSH1 0x20 ADD PUSH0 KECCAK256 SLOAD PUSH2 0xDC4 SWAP2 SWAP1 PUSH2 0x14D2 JUMP JUMPDEST LT ISZERO PUSH2 0xE05 JUMPI PUSH1 0x40 MLOAD PUSH32 0x8C379A000000000000000000000000000000000000000000000000000000000 DUP2 MSTORE PUSH1 0x4 ADD PUSH2 0xDFC SWAP1 PUSH2 0x17B0 JUMP JUMPDEST PUSH1 0x40 MLOAD DUP1 SWAP2 SUB SWAP1 REVERT JUMPDEST PUSH0 DUP3 SWAP1 POP DUP1 PUSH1 0x3 PUSH0 CALLER PUSH20 0xFFFFFFFFFFFFFFFFFFFFFFFFFFFFFFFFFFFFFFFF AND PUSH20 0xFFFFFFFFFFFFFFFFFFFFFFFFFFFFFFFFFFFFFFFF AND DUP2 MSTORE PUSH1 0x20 ADD SWAP1 DUP2 MSTORE PUSH1 0x20 ADD PUSH0 KECCAK256 PUSH0 DUP3 DUP3 SLOAD PUSH2 0xE55 SWAP2 SWAP1 PUSH2 0x14D2 JUMP JUMPDEST SWAP3 POP POP DUP2 SWAP1 SSTORE POP DUP1 PUSH1 0x3 PUSH0 DUP7 PUSH20 0xFFFFFFFFFFFFFFFFFFFFFFFFFFFFFFFFFFFFFFFF AND PUSH20 0xFFFFFFFFFFFFFFFFFFFFFFFFFFFFFFFFFFFFFFFF AND DUP2 MSTORE PUSH1 0x20 ADD SWAP1 DUP2 MSTORE PUSH1 0x20 ADD PUSH0 KECCAK256 PUSH0 DUP3 DUP3 SLOAD PUSH2 0xEA8 SWAP2 SWAP1 PUSH2 0x1505 JUMP JUMPDEST SWAP3 POP POP DUP2 SWAP1 SSTORE POP PUSH0 DUP5 PUSH20 0xFFFFFFFFFFFFFFFFFFFFFFFFFFFFFFFFFFFFFFFF AND DUP5 DUP5 PUSH1 0x40 MLOAD PUSH1 0x20 ADD PUSH2 0xED9 SWAP2 SWAP1 PUSH2 0x1820 JUMP JUMPDEST PUSH1 0x40 MLOAD PUSH1 0x20 DUP2 DUP4 SUB SUB DUP2 MSTORE SWAP1 PUSH1 0x40 MSTORE PUSH1 0x40 MLOAD PUSH2 0xEF5 SWAP2 SWAP1 PUSH2 0x1820 JUMP JUMPDEST PUSH0 PUSH1 0x40 MLOAD DUP1 DUP4 SUB DUP2 DUP6 DUP8 GAS CALL SWAP3 POP POP POP RETURNDATASIZE DUP1 PUSH0 DUP2 EQ PUSH2 0xF2F JUMPI PUSH1 0x40 MLOAD SWAP2 POP PUSH1 0x1F NOT PUSH1 0x3F RETURNDATASIZE ADD AND DUP3 ADD PUSH1 0x40 MSTORE RETURNDATASIZE DUP3 MSTORE RETURNDATASIZE PUSH0 PUSH1 0x20 DUP5 ADD RETURNDATACOPY PUSH2 0xF34 JUMP JUMPDEST PUSH1 0x60 SWAP2 POP JUMPDEST POP POP SWAP1 POP DUP1 PUSH2 0xF78 JUMPI PUSH1 0x40 MLOAD PUSH32 0x8C379A000000000000000000000000000000000000000000000000000000000 DUP2 MSTORE PUSH1 0x4 ADD PUSH2 0xF6F SWAP1 PUSH2 0x1880 JUMP JUMPDEST PUSH1 0x40 MLOAD DUP1 SWAP2 SUB SWAP1 REVERT JUMPDEST POP POP POP POP POP JUMP JUMPDEST PUSH1 0x8 PUSH1 0x20 MSTORE DUP1 PUSH0 MSTORE PUSH1 0x40 PUSH0 KECCAK256 PUSH0 SWAP2 POP SLOAD SWAP1 PUSH2 0x100 EXP SWAP1 DIV PUSH1 0xFF AND DUP2 JUMP JUMPDEST PUSH1 0x6 PUSH1 0x20 MSTORE DUP1 PUSH0 MSTORE PUSH1 0x40 PUSH0 KECCAK256 PUSH0 SWAP2 POP SLOAD SWAP1 PUSH2 0x100 EXP SWAP1 DIV PUSH1 0xFF AND DUP2 JUMP JUMPDEST PUSH1 0x7 PUSH1 0x20 MSTORE DUP1 PUSH0 MSTORE PUSH1 0x40 PUSH0 KECCAK256 PUSH0 SWAP2 POP SLOAD SWAP1 PUSH2 0x100 EXP SWAP1 DIV PUSH1 0xFF AND DUP2 JUMP JUMPDEST PUSH0 DUP2 SWAP1 POP SWAP2 SWAP1 POP JUMP JUMPDEST PUSH2 0xFE8 DUP2 PUSH2 0xFD6 JUMP JUMPDEST DUP3 MSTORE POP POP JUMP JUMPDEST PUSH0 PUSH1 0x20 DUP3 ADD SWAP1 POP PUSH2 0x1001 PUSH0 DUP4 ADD DUP5 PUSH2 0xFDF JUMP JUMPDEST SWAP3 SWAP2 POP POP JUMP JUMPDEST PUSH0 PUSH1 0x40 MLOAD SWAP1 POP SWAP1 JUMP JUMPDEST PUSH0 DUP1 REVERT JUMPDEST PUSH0 DUP1 REVERT JUMPDEST PUSH0 PUSH20 0xFFFFFFFFFFFFFFFFFFFFFFFFFFFFFFFFFFFFFFFF DUP3 AND SWAP1 POP SWAP2 SWAP1 POP JUMP JUMPDEST PUSH0 PUSH2 0x1041 DUP3 PUSH2 0x1018 JUMP JUMPDEST SWAP1 POP SWAP2 SWAP1 POP JUMP JUMPDEST PUSH2 0x1051 DUP2 PUSH2 0x1037 JUMP JUMPDEST DUP2 EQ PUSH2 0x105B JUMPI PUSH0 DUP1 REVERT JUMPDEST POP JUMP JUMPDEST PUSH0 DUP2 CALLDATALOAD SWAP1 POP PUSH2 0x106C DUP2 PUSH2 0x1048 JUMP JUMPDEST SWAP3 SWAP2 POP POP JUMP JUMPDEST PUSH0 PUSH1 0x20 DUP3 DUP5 SUB SLT ISZERO PUSH2 0x1087 JUMPI PUSH2 0x1086 PUSH2 0x1010 JUMP JUMPDEST JUMPDEST PUSH0 PUSH2 0x1094 DUP5 DUP3 DUP6 ADD PUSH2 0x105E JUMP JUMPDEST SWAP2 POP POP SWAP3 SWAP2 POP POP JUMP JUMPDEST PUSH0 DUP2 ISZERO ISZERO SWAP1 POP SWAP2 SWAP1 POP JUMP JUMPDEST PUSH2 0x10B1 DUP2 PUSH2 0x109D JUMP JUMPDEST DUP3 MSTORE POP POP JUMP JUMPDEST PUSH0 PUSH1 0x20 DUP3 ADD SWAP1 POP PUSH2 0x10CA PUSH0 DUP4 ADD DUP5 PUSH2 0x10A8 JUMP JUMPDEST SWAP3 SWAP2 POP POP JUMP JUMPDEST PUSH2 0x10D9 DUP2 PUSH2 0xFD6 JUMP JUMPDEST DUP2 EQ PUSH2 0x10E3 JUMPI PUSH0 DUP1 REVERT JUMPDEST POP JUMP JUMPDEST PUSH0 DUP2 CALLDATALOAD SWAP1 POP PUSH2 0x10F4 DUP2 PUSH2 0x10D0 JUMP JUMPDEST SWAP3 SWAP2 POP POP JUMP JUMPDEST PUSH0 PUSH1 0x20 DUP3 DUP5 SUB SLT ISZERO PUSH2 0x110F JUMPI PUSH2 0x110E PUSH2 0x1010 JUMP JUMPDEST JUMPDEST PUSH0 PUSH2 0x111C DUP5 DUP3 DUP6 ADD PUSH2 0x10E6 JUMP JUMPDEST SWAP2 POP POP SWAP3 SWAP2 POP POP JUMP JUMPDEST PUSH2 0x112E DUP2 PUSH2 0x1037 JUMP JUMPDEST DUP3 MSTORE POP POP JUMP JUMPDEST PUSH0 PUSH1 0x20 DUP3 ADD SWAP1 POP PUSH2 0x1147 PUSH0 DUP4 ADD DUP5 PUSH2 0x1125 JUMP JUMPDEST SWAP3 SWAP2 POP POP JUMP JUMPDEST PUSH0 DUP1 REVERT JUMPDEST PUSH0 DUP1 REVERT JUMPDEST PUSH0 PUSH1 0x1F NOT PUSH1 0x1F DUP4 ADD AND SWAP1 POP SWAP2 SWAP1 POP JUMP JUMPDEST PUSH32 0x4E487B7100000000000000000000000000000000000000000000000000000000 PUSH0 MSTORE PUSH1 0x41 PUSH1 0x4 MSTORE PUSH1 0x24 PUSH0 REVERT JUMPDEST PUSH2 0x119B DUP3 PUSH2 0x1155 JUMP JUMPDEST DUP2 ADD DUP2 DUP2 LT PUSH8 0xFFFFFFFFFFFFFFFF DUP3 GT OR ISZERO PUSH2 0x11BA JUMPI PUSH2 0x11B9 PUSH2 0x1165 JUMP JUMPDEST JUMPDEST DUP1 PUSH1 0x40 MSTORE POP POP POP JUMP JUMPDEST PUSH0 PUSH2 0x11CC PUSH2 0x1007 JUMP JUMPDEST SWAP1 POP PUSH2 0x11D8 DUP3 DUP3 PUSH2 0x1192 JUMP JUMPDEST SWAP2 SWAP1 POP JUMP JUMPDEST PUSH0 PUSH8 0xFFFFFFFFFFFFFFFF DUP3 GT ISZERO PUSH2 0x11F7 JUMPI PUSH2 0x11F6 PUSH2 0x1165 JUMP JUMPDEST JUMPDEST PUSH2 0x1200 DUP3 PUSH2 0x1155 JUMP JUMPDEST SWAP1 POP PUSH1 0x20 DUP2 ADD SWAP1 POP SWAP2 SWAP1 POP JUMP JUMPDEST DUP3 DUP2 DUP4 CALLDATACOPY PUSH0 DUP4 DUP4 ADD MSTORE POP POP POP JUMP JUMPDEST PUSH0 PUSH2 0x122D PUSH2 0x1228 DUP5 PUSH2 0x11DD JUMP JUMPDEST PUSH2 0x11C3 JUMP JUMPDEST SWAP1 POP DUP3 DUP2 MSTORE PUSH1 0x20 DUP2 ADD DUP5 DUP5 DUP5 ADD GT ISZERO PUSH2 0x1249 JUMPI PUSH2 0x1248 PUSH2 0x1151 JUMP JUMPDEST JUMPDEST PUSH2 0x1254 DUP5 DUP3 DUP6 PUSH2 0x120D JUMP JUMPDEST POP SWAP4 SWAP3 POP POP POP JUMP JUMPDEST PUSH0 DUP3 PUSH1 0x1F DUP4 ADD SLT PUSH2 0x1270 JUMPI PUSH2 0x126F PUSH2 0x114D JUMP JUMPDEST JUMPDEST DUP2 CALLDATALOAD PUSH2 0x1280 DUP5 DUP3 PUSH1 0x20 DUP7 ADD PUSH2 0x121B JUMP JUMPDEST SWAP2 POP POP SWAP3 SWAP2 POP POP JUMP JUMPDEST PUSH0 DUP1 PUSH0 PUSH1 0x60 DUP5 DUP7 SUB SLT ISZERO PUSH2 0x12A0 JUMPI PUSH2 0x129F PUSH2 0x1010 JUMP JUMPDEST JUMPDEST PUSH0 PUSH2 0x12AD DUP7 DUP3 DUP8 ADD PUSH2 0x105E JUMP JUMPDEST SWAP4 POP POP PUSH1 0x20 PUSH2 0x12BE DUP7 DUP3 DUP8 ADD PUSH2 0x10E6 JUMP JUMPDEST SWAP3 POP POP PUSH1 0x40 DUP5 ADD CALLDATALOAD PUSH8 0xFFFFFFFFFFFFFFFF DUP2 GT ISZERO PUSH2 0x12DF JUMPI PUSH2 0x12DE PUSH2 0x1014 JUMP JUMPDEST JUMPDEST PUSH2 0x12EB DUP7 DUP3 DUP8 ADD PUSH2 0x125C JUMP JUMPDEST SWAP2 POP POP SWAP3 POP SWAP3 POP SWAP3 JUMP JUMPDEST PUSH0 DUP3 DUP3 MSTORE PUSH1 0x20 DUP3 ADD SWAP1 POP SWAP3 SWAP2 POP POP JUMP JUMPDEST PUSH32 0x4F6E6C7920456D706C6F7965652063616E2065786368616E6765210000000000 PUSH0 DUP3 ADD MSTORE POP JUMP JUMPDEST PUSH0 PUSH2 0x1339 PUSH1 0x1B DUP4 PUSH2 0x12F5 JUMP JUMPDEST SWAP2 POP PUSH2 0x1344 DUP3 PUSH2 0x1305 JUMP JUMPDEST PUSH1 0x20 DUP3 ADD SWAP1 POP SWAP2 SWAP1 POP JUMP JUMPDEST PUSH0 PUSH1 0x20 DUP3 ADD SWAP1 POP DUP2 DUP2 SUB PUSH0 DUP4 ADD MSTORE PUSH2 0x1366 DUP2 PUSH2 0x132D JUMP JUMPDEST SWAP1 POP SWAP2 SWAP1 POP JUMP JUMPDEST PUSH32 0x4D7573742068617665206174206C656173742031206574686572000000000000 PUSH0 DUP3 ADD MSTORE POP JUMP JUMPDEST PUSH0 PUSH2 0x13A1 PUSH1 0x1A DUP4 PUSH2 0x12F5 JUMP JUMPDEST SWAP2 POP PUSH2 0x13AC DUP3 PUSH2 0x136D JUMP JUMPDEST PUSH1 0x20 DUP3 ADD SWAP1 POP SWAP2 SWAP1 POP JUMP JUMPDEST PUSH0 PUSH1 0x20 DUP3 ADD SWAP1 POP DUP2 DUP2 SUB PUSH0 DUP4 ADD MSTORE PUSH2 0x13CE DUP2 PUSH2 0x1395 JUMP JUMPDEST SWAP1 POP SWAP2 SWAP1 POP JUMP JUMPDEST PUSH32 0x4F6E6C7920456D706C6F7965652063616E2062652070726F6D6F746564000000 PUSH0 DUP3 ADD MSTORE POP JUMP JUMPDEST PUSH0 PUSH2 0x1409 PUSH1 0x1D DUP4 PUSH2 0x12F5 JUMP JUMPDEST SWAP2 POP PUSH2 0x1414 DUP3 PUSH2 0x13D5 JUMP JUMPDEST PUSH1 0x20 DUP3 ADD SWAP1 POP SWAP2 SWAP1 POP JUMP JUMPDEST PUSH0 PUSH1 0x20 DUP3 ADD SWAP1 POP DUP2 DUP2 SUB PUSH0 DUP4 ADD MSTORE PUSH2 0x1436 DUP2 PUSH2 0x13FD JUMP JUMPDEST SWAP1 POP SWAP2 SWAP1 POP JUMP JUMPDEST PUSH32 0x426F6E75732063616E206F6E6C792062652074616B656E206F6E636521000000 PUSH0 DUP3 ADD MSTORE POP JUMP JUMPDEST PUSH0 PUSH2 0x1471 PUSH1 0x1D DUP4 PUSH2 0x12F5 JUMP JUMPDEST SWAP2 POP PUSH2 0x147C DUP3 PUSH2 0x143D JUMP JUMPDEST PUSH1 0x20 DUP3 ADD SWAP1 POP SWAP2 SWAP1 POP JUMP JUMPDEST PUSH0 PUSH1 0x20 DUP3 ADD SWAP1 POP DUP2 DUP2 SUB PUSH0 DUP4 ADD MSTORE PUSH2 0x149E DUP2 PUSH2 0x1465 JUMP JUMPDEST SWAP1 POP SWAP2 SWAP1 POP JUMP JUMPDEST PUSH32 0x4E487B7100000000000000000000000000000000000000000000000000000000 PUSH0 MSTORE PUSH1 0x11 PUSH1 0x4 MSTORE PUSH1 0x24 PUSH0 REVERT JUMPDEST PUSH0 PUSH2 0x14DC DUP3 PUSH2 0xFD6 JUMP JUMPDEST SWAP2 POP PUSH2 0x14E7 DUP4 PUSH2 0xFD6 JUMP JUMPDEST SWAP3 POP DUP3 DUP3 SUB SWAP1 POP DUP2 DUP2 GT ISZERO PUSH2 0x14FF JUMPI PUSH2 0x14FE PUSH2 0x14A5 JUMP JUMPDEST JUMPDEST SWAP3 SWAP2 POP POP JUMP JUMPDEST PUSH0 PUSH2 0x150F DUP3 PUSH2 0xFD6 JUMP JUMPDEST SWAP2 POP PUSH2 0x151A DUP4 PUSH2 0xFD6 JUMP JUMPDEST SWAP3 POP DUP3 DUP3 ADD SWAP1 POP DUP1 DUP3 GT ISZERO PUSH2 0x1532 JUMPI PUSH2 0x1531 PUSH2 0x14A5 JUMP JUMPDEST JUMPDEST SWAP3 SWAP2 POP POP JUMP JUMPDEST PUSH32 0x4D696E696D756D20697320312045746865720000000000000000000000000000 PUSH0 DUP3 ADD MSTORE POP JUMP JUMPDEST PUSH0 PUSH2 0x156C PUSH1 0x12 DUP4 PUSH2 0x12F5 JUMP JUMPDEST SWAP2 POP PUSH2 0x1577 DUP3 PUSH2 0x1538 JUMP JUMPDEST PUSH1 0x20 DUP3 ADD SWAP1 POP SWAP2 SWAP1 POP JUMP JUMPDEST PUSH0 PUSH1 0x20 DUP3 ADD SWAP1 POP DUP2 DUP2 SUB PUSH0 DUP4 ADD MSTORE PUSH2 0x1599 DUP2 PUSH2 0x1560 JUMP JUMPDEST SWAP1 POP SWAP2 SWAP1 POP JUMP JUMPDEST PUSH32 0x4D7573742062652074686174205269636820746F206265636F6D6520616E2045 PUSH0 DUP3 ADD MSTORE PUSH32 0x7865637574697665000000000000000000000000000000000000000000000000 PUSH1 0x20 DUP3 ADD MSTORE POP JUMP JUMPDEST PUSH0 PUSH2 0x15FA PUSH1 0x28 DUP4 PUSH2 0x12F5 JUMP JUMPDEST SWAP2 POP PUSH2 0x1605 DUP3 PUSH2 0x15A0 JUMP JUMPDEST PUSH1 0x40 DUP3 ADD SWAP1 POP SWAP2 SWAP1 POP JUMP JUMPDEST PUSH0 PUSH1 0x20 DUP3 ADD SWAP1 POP DUP2 DUP2 SUB PUSH0 DUP4 ADD MSTORE PUSH2 0x1627 DUP2 PUSH2 0x15EE JUMP JUMPDEST SWAP1 POP SWAP2 SWAP1 POP JUMP JUMPDEST PUSH32 0x4E6F7420456E6F75676820437265646974000000000000000000000000000000 PUSH0 DUP3 ADD MSTORE POP JUMP JUMPDEST PUSH0 PUSH2 0x1662 PUSH1 0x11 DUP4 PUSH2 0x12F5 JUMP JUMPDEST SWAP2 POP PUSH2 0x166D DUP3 PUSH2 0x162E JUMP JUMPDEST PUSH1 0x20 DUP3 ADD SWAP1 POP SWAP2 SWAP1 POP JUMP JUMPDEST PUSH0 PUSH1 0x20 DUP3 ADD SWAP1 POP DUP2 DUP2 SUB PUSH0 DUP4 ADD MSTORE PUSH2 0x168F DUP2 PUSH2 0x1656 JUMP JUMPDEST SWAP1 POP SWAP2 SWAP1 POP JUMP JUMPDEST PUSH32 0x4F6E6C7920486967686572205570732063616E20616363657373210000000000 PUSH0 DUP3 ADD MSTORE POP JUMP JUMPDEST PUSH0 PUSH2 0x16CA PUSH1 0x1B DUP4 PUSH2 0x12F5 JUMP JUMPDEST SWAP2 POP PUSH2 0x16D5 DUP3 PUSH2 0x1696 JUMP JUMPDEST PUSH1 0x20 DUP3 ADD SWAP1 POP SWAP2 SWAP1 POP JUMP JUMPDEST PUSH0 PUSH1 0x20 DUP3 ADD SWAP1 POP DUP2 DUP2 SUB PUSH0 DUP4 ADD MSTORE PUSH2 0x16F7 DUP2 PUSH2 0x16BE JUMP JUMPDEST SWAP1 POP SWAP2 SWAP1 POP JUMP JUMPDEST PUSH32 0x496E76616C696420526563697069656E74000000000000000000000000000000 PUSH0 DUP3 ADD MSTORE POP JUMP JUMPDEST PUSH0 PUSH2 0x1732 PUSH1 0x11 DUP4 PUSH2 0x12F5 JUMP JUMPDEST SWAP2 POP PUSH2 0x173D DUP3 PUSH2 0x16FE JUMP JUMPDEST PUSH1 0x20 DUP3 ADD SWAP1 POP SWAP2 SWAP1 POP JUMP JUMPDEST PUSH0 PUSH1 0x20 DUP3 ADD SWAP1 POP DUP2 DUP2 SUB PUSH0 DUP4 ADD MSTORE PUSH2 0x175F DUP2 PUSH2 0x1726 JUMP JUMPDEST SWAP1 POP SWAP2 SWAP1 POP JUMP JUMPDEST PUSH32 0x4E6F7420656E6F75676820437265646974000000000000000000000000000000 PUSH0 DUP3 ADD MSTORE POP JUMP JUMPDEST PUSH0 PUSH2 0x179A PUSH1 0x11 DUP4 PUSH2 0x12F5 JUMP JUMPDEST SWAP2 POP PUSH2 0x17A5 DUP3 PUSH2 0x1766 JUMP JUMPDEST PUSH1 0x20 DUP3 ADD SWAP1 POP SWAP2 SWAP1 POP JUMP JUMPDEST PUSH0 PUSH1 0x20 DUP3 ADD SWAP1 POP DUP2 DUP2 SUB PUSH0 DUP4 ADD MSTORE PUSH2 0x17C7 DUP2 PUSH2 0x178E JUMP JUMPDEST SWAP1 POP SWAP2 SWAP1 POP JUMP JUMPDEST PUSH0 DUP2 MLOAD SWAP1 POP SWAP2 SWAP1 POP JUMP JUMPDEST PUSH0 DUP2 SWAP1 POP SWAP3 SWAP2 POP POP JUMP JUMPDEST DUP3 DUP2 DUP4 MCOPY PUSH0 DUP4 DUP4 ADD MSTORE POP POP POP JUMP JUMPDEST PUSH0 PUSH2 0x17FA DUP3 PUSH2 0x17CE JUMP JUMPDEST PUSH2 0x1804 DUP2 DUP6 PUSH2 0x17D8 JUMP JUMPDEST SWAP4 POP PUSH2 0x1814 DUP2 DUP6 PUSH1 0x20 DUP7 ADD PUSH2 0x17E2 JUMP JUMPDEST DUP1 DUP5 ADD SWAP2 POP POP SWAP3 SWAP2 POP POP JUMP JUMPDEST PUSH0 PUSH2 0x182B DUP3 DUP5 PUSH2 0x17F0 JUMP JUMPDEST SWAP2 POP DUP2 SWAP1 POP SWAP3 SWAP2 POP POP JUMP JUMPDEST PUSH32 0x4661696C656420746F205472616E736665722043726564697421000000000000 PUSH0 DUP3 ADD MSTORE POP JUMP JUMPDEST PUSH0 PUSH2 0x186A PUSH1 0x1A DUP4 PUSH2 0x12F5 JUMP JUMPDEST SWAP2 POP PUSH2 0x1875 DUP3 PUSH2 0x1836 JUMP JUMPDEST PUSH1 0x20 DUP3 ADD SWAP1 POP SWAP2 SWAP1 POP JUMP JUMPDEST PUSH0 PUSH1 0x20 DUP3 ADD SWAP1 POP DUP2 DUP2 SUB PUSH0 DUP4 ADD MSTORE PUSH2 0x1897 DUP2 PUSH2 0x185E JUMP JUMPDEST SWAP1 POP SWAP2 SWAP1 POP JUMP INVALID LOG2 PUSH5 0x6970667358 0x22 SLT KECCAK256 POP 0xB5 DUP8 0xED POP 0xAC 0x21 DUP16 SWAP8 DUP15 0xCD SIGNEXTEND 0xE CALL 0xE6 0xB4 PUSH3 0xE2D7EE XOR DUP1 MSIZE 0xB7 0xA5 0xD6 0xC8 BASEFEE PUSH7 0x50127064736F6C PUSH4 0x4300081A STOP CALLER "
				},
				"gasEstimates": {
					"creation": {
						"codeDepositCost": "1271200",
						"executionCost": "69876",
						"totalCost": "1341076"
					},
					"external": {
						"Executives(uint256)": "4967",
						"balanceOf(address)": "2869",
						"becomeEmployee()": "24585",
						"becomeExecutive()": "31276",
						"becomeManager()": "31313",
						"buyCredit()": "infinite",
						"claimStartingBonus()": "infinite",
						"hasTakeBonus(address)": "2879",
						"isEmployee(address)": "2899",
						"isExecutive(address)": "2877",
						"isManager(address)": "2921",
						"owner()": "2594",
						"permissionToExchange(address)": "2901",
						"sellCredit(uint256)": "infinite",
						"totalSupply()": "2449",
						"transfer(address,uint256,bytes)": "infinite"
					}
				},
				"methodIdentifiers": {
					"Executives(uint256)": "60a22a05",
					"balanceOf(address)": "70a08231",
					"becomeEmployee()": "bc4e3172",
					"becomeExecutive()": "ac300db8",
					"becomeManager()": "4f3add0f",
					"buyCredit()": "8e4e6f06",
					"claimStartingBonus()": "6a286981",
					"hasTakeBonus(address)": "392e396d",
					"isEmployee(address)": "ea66543f",
					"isExecutive(address)": "d6165e9b",
					"isManager(address)": "f3ae2415",
					"owner()": "8da5cb5b",
					"permissionToExchange(address)": "4ad6cbd4",
					"sellCredit(uint256)": "b6b8b3c7",
					"totalSupply()": "18160ddd",
					"transfer(address,uint256,bytes)": "be45fd62"
				}
			},
			"storageLayout": {
				"storage": [
					{
						"astId": 60,
						"contract": "Executive_Problem/020fc6afbb603263f80b08100e158f4d49b3492a52357406cde10cbfd3593275 (1)/contracts/CrainExecutive.sol:CrainExecutive",
						"label": "owner",
						"offset": 0,
						"slot": "0",
						"type": "t_address"
					},
					{
						"astId": 62,
						"contract": "Executive_Problem/020fc6afbb603263f80b08100e158f4d49b3492a52357406cde10cbfd3593275 (1)/contracts/CrainExecutive.sol:CrainExecutive",
						"label": "totalSupply",
						"offset": 0,
						"slot": "1",
						"type": "t_uint256"
					},
					{
						"astId": 65,
						"contract": "Executive_Problem/020fc6afbb603263f80b08100e158f4d49b3492a52357406cde10cbfd3593275 (1)/contracts/CrainExecutive.sol:CrainExecutive",
						"label": "Executives",
						"offset": 0,
						"slot": "2",
						"type": "t_array(t_address)dyn_storage"
					},
					{
						"astId": 69,
						"contract": "Executive_Problem/020fc6afbb603263f80b08100e158f4d49b3492a52357406cde10cbfd3593275 (1)/contracts/CrainExecutive.sol:CrainExecutive",
						"label": "balanceOf",
						"offset": 0,
						"slot": "3",
						"type": "t_mapping(t_address,t_uint256)"
					},
					{
						"astId": 73,
						"contract": "Executive_Problem/020fc6afbb603263f80b08100e158f4d49b3492a52357406cde10cbfd3593275 (1)/contracts/CrainExecutive.sol:CrainExecutive",
						"label": "permissionToExchange",
						"offset": 0,
						"slot": "4",
						"type": "t_mapping(t_address,t_bool)"
					},
					{
						"astId": 77,
						"contract": "Executive_Problem/020fc6afbb603263f80b08100e158f4d49b3492a52357406cde10cbfd3593275 (1)/contracts/CrainExecutive.sol:CrainExecutive",
						"label": "hasTakeBonus",
						"offset": 0,
						"slot": "5",
						"type": "t_mapping(t_address,t_bool)"
					},
					{
						"astId": 81,
						"contract": "Executive_Problem/020fc6afbb603263f80b08100e158f4d49b3492a52357406cde10cbfd3593275 (1)/contracts/CrainExecutive.sol:CrainExecutive",
						"label": "isEmployee",
						"offset": 0,
						"slot": "6",
						"type": "t_mapping(t_address,t_bool)"
					},
					{
						"astId": 85,
						"contract": "Executive_Problem/020fc6afbb603263f80b08100e158f4d49b3492a52357406cde10cbfd3593275 (1)/contracts/CrainExecutive.sol:CrainExecutive",
						"label": "isManager",
						"offset": 0,
						"slot": "7",
						"type": "t_mapping(t_address,t_bool)"
					},
					{
						"astId": 89,
						"contract": "Executive_Problem/020fc6afbb603263f80b08100e158f4d49b3492a52357406cde10cbfd3593275 (1)/contracts/CrainExecutive.sol:CrainExecutive",
						"label": "isExecutive",
						"offset": 0,
						"slot": "8",
						"type": "t_mapping(t_address,t_bool)"
					}
				],
				"types": {
					"t_address": {
						"encoding": "inplace",
						"label": "address",
						"numberOfBytes": "20"
					},
					"t_array(t_address)dyn_storage": {
						"base": "t_address",
						"encoding": "dynamic_array",
						"label": "address[]",
						"numberOfBytes": "32"
					},
					"t_bool": {
						"encoding": "inplace",
						"label": "bool",
						"numberOfBytes": "1"
					},
					"t_mapping(t_address,t_bool)": {
						"encoding": "mapping",
						"key": "t_address",
						"label": "mapping(address => bool)",
						"numberOfBytes": "32",
						"value": "t_bool"
					},
					"t_mapping(t_address,t_uint256)": {
						"encoding": "mapping",
						"key": "t_address",
						"label": "mapping(address => uint256)",
						"numberOfBytes": "32",
						"value": "t_uint256"
					},
					"t_uint256": {
						"encoding": "inplace",
						"label": "uint256",
						"numberOfBytes": "32"
					}
				}
			},
			"userdoc": {
				"kind": "user",
				"methods": {},
				"version": 1
			}
		}
	}
}