{
	"Executive_Problem/020fc6afbb603263f80b08100e158f4d49b3492a52357406cde10cbfd3593275 (1)/contracts/Test.sol": {
		"Test": {
			"abi": [
				{
					"inputs": [],
					"stateMutability": "nonpayable",
					"type": "constructor"
				},
				{
					"inputs": [
						{
							"internalType": "address",
							"name": "_new",
							"type": "address"
						}
					],
					"name": "changeAddress",
					"outputs": [],
					"stateMutability": "nonpayable",
					"type": "function"
				},
				{
					"inputs": [
						{
							"internalType": "address",
							"name": "_new",
							"type": "address"
						}
					],
					"name": "changeAddress2",
					"outputs": [],
					"stateMutability": "payable",
					"type": "function"
				},
				{
					"inputs": [],
					"name": "test",
					"outputs": [
						{
							"internalType": "address",
							"name": "",
							"type": "address"
						}
					],
					"stateMutability": "view",
					"type": "function"
				},
				{
					"stateMutability": "payable",
					"type": "receive"
				}
			],
			"devdoc": {
				"kind": "dev",
				"methods": {},
				"version": 1
			},
			"evm": {
				"assembly": "    /* \"Executive_Problem/020fc6afbb603263f80b08100e158f4d49b3492a52357406cde10cbfd3593275 (1)/contracts/Test.sol\":60:371  contract Test {... */\n  mstore(0x40, 0x80)\n    /* \"Executive_Problem/020fc6afbb603263f80b08100e158f4d49b3492a52357406cde10cbfd3593275 (1)/contracts/Test.sol\":107:157  constructor(){... */\n  callvalue\n  dup1\n  iszero\n  tag_1\n  jumpi\n  0x00\n  dup1\n  revert\ntag_1:\n  pop\n    /* \"Executive_Problem/020fc6afbb603263f80b08100e158f4d49b3492a52357406cde10cbfd3593275 (1)/contracts/Test.sol\":146:148  10 */\n  0x0a\n    /* \"Executive_Problem/020fc6afbb603263f80b08100e158f4d49b3492a52357406cde10cbfd3593275 (1)/contracts/Test.sol\":131:135  test */\n  0x00\n  dup1\n    /* \"Executive_Problem/020fc6afbb603263f80b08100e158f4d49b3492a52357406cde10cbfd3593275 (1)/contracts/Test.sol\":131:149  test = address(10) */\n  0x0100\n  exp\n  dup2\n  sload\n  dup2\n  0xffffffffffffffffffffffffffffffffffffffff\n  mul\n  not\n  and\n  swap1\n  dup4\n  0xffffffffffffffffffffffffffffffffffffffff\n  and\n  mul\n  or\n  swap1\n  sstore\n  pop\n    /* \"Executive_Problem/020fc6afbb603263f80b08100e158f4d49b3492a52357406cde10cbfd3593275 (1)/contracts/Test.sol\":60:371  contract Test {... */\n  dataSize(sub_0)\n  dup1\n  dataOffset(sub_0)\n  0x00\n  codecopy\n  0x00\n  return\nstop\n\nsub_0: assembly {\n        /* \"Executive_Problem/020fc6afbb603263f80b08100e158f4d49b3492a52357406cde10cbfd3593275 (1)/contracts/Test.sol\":60:371  contract Test {... */\n      mstore(0x40, 0x80)\n      jumpi(tag_1, lt(calldatasize, 0x04))\n      shr(0xe0, calldataload(0x00))\n      dup1\n      0x6fb7389c\n      eq\n      tag_3\n      jumpi\n      dup1\n      0xf8a8fd6d\n      eq\n      tag_4\n      jumpi\n      dup1\n      0xfe64d6ff\n      eq\n      tag_5\n      jumpi\n      jump(tag_2)\n    tag_1:\n      jumpi(tag_2, calldatasize)\n      stop\n    tag_2:\n      0x00\n      dup1\n      revert\n        /* \"Executive_Problem/020fc6afbb603263f80b08100e158f4d49b3492a52357406cde10cbfd3593275 (1)/contracts/Test.sol\":247:330  function changeAddress2(address _new) public payable {... */\n    tag_3:\n      tag_8\n      0x04\n      dup1\n      calldatasize\n      sub\n      dup2\n      add\n      swap1\n      tag_9\n      swap2\n      swap1\n      tag_10\n      jump\t// in\n    tag_9:\n      tag_11\n      jump\t// in\n    tag_8:\n      stop\n        /* \"Executive_Problem/020fc6afbb603263f80b08100e158f4d49b3492a52357406cde10cbfd3593275 (1)/contracts/Test.sol\":81:100  address public test */\n    tag_4:\n      callvalue\n      dup1\n      iszero\n      tag_12\n      jumpi\n      0x00\n      dup1\n      revert\n    tag_12:\n      pop\n      tag_13\n      tag_14\n      jump\t// in\n    tag_13:\n      mload(0x40)\n      tag_15\n      swap2\n      swap1\n      tag_16\n      jump\t// in\n    tag_15:\n      mload(0x40)\n      dup1\n      swap2\n      sub\n      swap1\n      return\n        /* \"Executive_Problem/020fc6afbb603263f80b08100e158f4d49b3492a52357406cde10cbfd3593275 (1)/contracts/Test.sol\":165:239  function changeAddress(address _new) public {... */\n    tag_5:\n      callvalue\n      dup1\n      iszero\n      tag_17\n      jumpi\n      0x00\n      dup1\n      revert\n    tag_17:\n      pop\n      tag_18\n      0x04\n      dup1\n      calldatasize\n      sub\n      dup2\n      add\n      swap1\n      tag_19\n      swap2\n      swap1\n      tag_10\n      jump\t// in\n    tag_19:\n      tag_20\n      jump\t// in\n    tag_18:\n      stop\n        /* \"Executive_Problem/020fc6afbb603263f80b08100e158f4d49b3492a52357406cde10cbfd3593275 (1)/contracts/Test.sol\":247:330  function changeAddress2(address _new) public payable {... */\n    tag_11:\n        /* \"Executive_Problem/020fc6afbb603263f80b08100e158f4d49b3492a52357406cde10cbfd3593275 (1)/contracts/Test.sol\":318:322  _new */\n      dup1\n        /* \"Executive_Problem/020fc6afbb603263f80b08100e158f4d49b3492a52357406cde10cbfd3593275 (1)/contracts/Test.sol\":311:315  test */\n      0x00\n      dup1\n        /* \"Executive_Problem/020fc6afbb603263f80b08100e158f4d49b3492a52357406cde10cbfd3593275 (1)/contracts/Test.sol\":311:322  test = _new */\n      0x0100\n      exp\n      dup2\n      sload\n      dup2\n      0xffffffffffffffffffffffffffffffffffffffff\n      mul\n      not\n      and\n      swap1\n      dup4\n      0xffffffffffffffffffffffffffffffffffffffff\n      and\n      mul\n      or\n      swap1\n      sstore\n      pop\n        /* \"Executive_Problem/020fc6afbb603263f80b08100e158f4d49b3492a52357406cde10cbfd3593275 (1)/contracts/Test.sol\":247:330  function changeAddress2(address _new) public payable {... */\n      pop\n      jump\t// out\n        /* \"Executive_Problem/020fc6afbb603263f80b08100e158f4d49b3492a52357406cde10cbfd3593275 (1)/contracts/Test.sol\":81:100  address public test */\n    tag_14:\n      0x00\n      dup1\n      sload\n      swap1\n      0x0100\n      exp\n      swap1\n      div\n      0xffffffffffffffffffffffffffffffffffffffff\n      and\n      dup2\n      jump\t// out\n        /* \"Executive_Problem/020fc6afbb603263f80b08100e158f4d49b3492a52357406cde10cbfd3593275 (1)/contracts/Test.sol\":165:239  function changeAddress(address _new) public {... */\n    tag_20:\n        /* \"Executive_Problem/020fc6afbb603263f80b08100e158f4d49b3492a52357406cde10cbfd3593275 (1)/contracts/Test.sol\":227:231  _new */\n      dup1\n        /* \"Executive_Problem/020fc6afbb603263f80b08100e158f4d49b3492a52357406cde10cbfd3593275 (1)/contracts/Test.sol\":220:224  test */\n      0x00\n      dup1\n        /* \"Executive_Problem/020fc6afbb603263f80b08100e158f4d49b3492a52357406cde10cbfd3593275 (1)/contracts/Test.sol\":220:231  test = _new */\n      0x0100\n      exp\n      dup2\n      sload\n      dup2\n      0xffffffffffffffffffffffffffffffffffffffff\n      mul\n      not\n      and\n      swap1\n      dup4\n      0xffffffffffffffffffffffffffffffffffffffff\n      and\n      mul\n      or\n      swap1\n      sstore\n      pop\n        /* \"Executive_Problem/020fc6afbb603263f80b08100e158f4d49b3492a52357406cde10cbfd3593275 (1)/contracts/Test.sol\":165:239  function changeAddress(address _new) public {... */\n      pop\n      jump\t// out\n        /* \"#utility.yul\":88:205   */\n    tag_24:\n        /* \"#utility.yul\":197:198   */\n      0x00\n        /* \"#utility.yul\":194:195   */\n      dup1\n        /* \"#utility.yul\":187:199   */\n      revert\n        /* \"#utility.yul\":334:460   */\n    tag_26:\n        /* \"#utility.yul\":371:378   */\n      0x00\n        /* \"#utility.yul\":411:453   */\n      0xffffffffffffffffffffffffffffffffffffffff\n        /* \"#utility.yul\":404:409   */\n      dup3\n        /* \"#utility.yul\":400:454   */\n      and\n        /* \"#utility.yul\":389:454   */\n      swap1\n      pop\n        /* \"#utility.yul\":334:460   */\n      swap2\n      swap1\n      pop\n      jump\t// out\n        /* \"#utility.yul\":466:562   */\n    tag_27:\n        /* \"#utility.yul\":503:510   */\n      0x00\n        /* \"#utility.yul\":532:556   */\n      tag_37\n        /* \"#utility.yul\":550:555   */\n      dup3\n        /* \"#utility.yul\":532:556   */\n      tag_26\n      jump\t// in\n    tag_37:\n        /* \"#utility.yul\":521:556   */\n      swap1\n      pop\n        /* \"#utility.yul\":466:562   */\n      swap2\n      swap1\n      pop\n      jump\t// out\n        /* \"#utility.yul\":568:690   */\n    tag_28:\n        /* \"#utility.yul\":641:665   */\n      tag_39\n        /* \"#utility.yul\":659:664   */\n      dup2\n        /* \"#utility.yul\":641:665   */\n      tag_27\n      jump\t// in\n    tag_39:\n        /* \"#utility.yul\":634:639   */\n      dup2\n        /* \"#utility.yul\":631:666   */\n      eq\n        /* \"#utility.yul\":621:684   */\n      tag_40\n      jumpi\n        /* \"#utility.yul\":680:681   */\n      0x00\n        /* \"#utility.yul\":677:678   */\n      dup1\n        /* \"#utility.yul\":670:682   */\n      revert\n        /* \"#utility.yul\":621:684   */\n    tag_40:\n        /* \"#utility.yul\":568:690   */\n      pop\n      jump\t// out\n        /* \"#utility.yul\":696:835   */\n    tag_29:\n        /* \"#utility.yul\":742:747   */\n      0x00\n        /* \"#utility.yul\":780:786   */\n      dup2\n        /* \"#utility.yul\":767:787   */\n      calldataload\n        /* \"#utility.yul\":758:787   */\n      swap1\n      pop\n        /* \"#utility.yul\":796:829   */\n      tag_42\n        /* \"#utility.yul\":823:828   */\n      dup2\n        /* \"#utility.yul\":796:829   */\n      tag_28\n      jump\t// in\n    tag_42:\n        /* \"#utility.yul\":696:835   */\n      swap3\n      swap2\n      pop\n      pop\n      jump\t// out\n        /* \"#utility.yul\":841:1170   */\n    tag_10:\n        /* \"#utility.yul\":900:906   */\n      0x00\n        /* \"#utility.yul\":949:951   */\n      0x20\n        /* \"#utility.yul\":937:946   */\n      dup3\n        /* \"#utility.yul\":928:935   */\n      dup5\n        /* \"#utility.yul\":924:947   */\n      sub\n        /* \"#utility.yul\":920:952   */\n      slt\n        /* \"#utility.yul\":917:1036   */\n      iszero\n      tag_44\n      jumpi\n        /* \"#utility.yul\":955:1034   */\n      tag_45\n      tag_24\n      jump\t// in\n    tag_45:\n        /* \"#utility.yul\":917:1036   */\n    tag_44:\n        /* \"#utility.yul\":1075:1076   */\n      0x00\n        /* \"#utility.yul\":1100:1153   */\n      tag_46\n        /* \"#utility.yul\":1145:1152   */\n      dup5\n        /* \"#utility.yul\":1136:1142   */\n      dup3\n        /* \"#utility.yul\":1125:1134   */\n      dup6\n        /* \"#utility.yul\":1121:1143   */\n      add\n        /* \"#utility.yul\":1100:1153   */\n      tag_29\n      jump\t// in\n    tag_46:\n        /* \"#utility.yul\":1090:1153   */\n      swap2\n      pop\n        /* \"#utility.yul\":1046:1163   */\n      pop\n        /* \"#utility.yul\":841:1170   */\n      swap3\n      swap2\n      pop\n      pop\n      jump\t// out\n        /* \"#utility.yul\":1176:1294   */\n    tag_30:\n        /* \"#utility.yul\":1263:1287   */\n      tag_48\n        /* \"#utility.yul\":1281:1286   */\n      dup2\n        /* \"#utility.yul\":1263:1287   */\n      tag_27\n      jump\t// in\n    tag_48:\n        /* \"#utility.yul\":1258:1261   */\n      dup3\n        /* \"#utility.yul\":1251:1288   */\n      mstore\n        /* \"#utility.yul\":1176:1294   */\n      pop\n      pop\n      jump\t// out\n        /* \"#utility.yul\":1300:1522   */\n    tag_16:\n        /* \"#utility.yul\":1393:1397   */\n      0x00\n        /* \"#utility.yul\":1431:1433   */\n      0x20\n        /* \"#utility.yul\":1420:1429   */\n      dup3\n        /* \"#utility.yul\":1416:1434   */\n      add\n        /* \"#utility.yul\":1408:1434   */\n      swap1\n      pop\n        /* \"#utility.yul\":1444:1515   */\n      tag_50\n        /* \"#utility.yul\":1512:1513   */\n      0x00\n        /* \"#utility.yul\":1501:1510   */\n      dup4\n        /* \"#utility.yul\":1497:1514   */\n      add\n        /* \"#utility.yul\":1488:1494   */\n      dup5\n        /* \"#utility.yul\":1444:1515   */\n      tag_30\n      jump\t// in\n    tag_50:\n        /* \"#utility.yul\":1300:1522   */\n      swap3\n      swap2\n      pop\n      pop\n      jump\t// out\n\n    auxdata: 0xa2646970667358221220db14b5ac42ba86f494aac0eb4a852dfe404e38aee00d9a7fca0b7388d461067d64736f6c634300081a0033\n}\n",
				"bytecode": {
					"linkReferences": {},
					"object": "6080604052348015600e575f80fd5b50600a5f806101000a81548173ffffffffffffffffffffffffffffffffffffffff021916908373ffffffffffffffffffffffffffffffffffffffff16021790555061023e8061005c5f395ff3fe608060405260043610610037575f3560e01c80636fb7389c14610042578063f8a8fd6d1461005e578063fe64d6ff146100885761003e565b3661003e57005b5f80fd5b61005c600480360381019061005791906101b5565b6100b0565b005b348015610069575f80fd5b506100726100f2565b60405161007f91906101ef565b60405180910390f35b348015610093575f80fd5b506100ae60048036038101906100a991906101b5565b610115565b005b805f806101000a81548173ffffffffffffffffffffffffffffffffffffffff021916908373ffffffffffffffffffffffffffffffffffffffff16021790555050565b5f8054906101000a900473ffffffffffffffffffffffffffffffffffffffff1681565b805f806101000a81548173ffffffffffffffffffffffffffffffffffffffff021916908373ffffffffffffffffffffffffffffffffffffffff16021790555050565b5f80fd5b5f73ffffffffffffffffffffffffffffffffffffffff82169050919050565b5f6101848261015b565b9050919050565b6101948161017a565b811461019e575f80fd5b50565b5f813590506101af8161018b565b92915050565b5f602082840312156101ca576101c9610157565b5b5f6101d7848285016101a1565b91505092915050565b6101e98161017a565b82525050565b5f6020820190506102025f8301846101e0565b9291505056fea2646970667358221220db14b5ac42ba86f494aac0eb4a852dfe404e38aee00d9a7fca0b7388d461067d64736f6c634300081a0033",
					"opcodes": "PUSH1 0x80 PUSH1 0x40 MSTORE CALLVALUE DUP1 ISZERO PUSH1 0xE JUMPI PUSH0 DUP1 REVERT JUMPDEST POP PUSH1 0xA PUSH0 DUP1 PUSH2 0x100 EXP DUP2 SLOAD DUP2 PUSH20 0xFFFFFFFFFFFFFFFFFFFFFFFFFFFFFFFFFFFFFFFF MUL NOT AND SWAP1 DUP4 PUSH20 0xFFFFFFFFFFFFFFFFFFFFFFFFFFFFFFFFFFFFFFFF AND MUL OR SWAP1 SSTORE POP PUSH2 0x23E DUP1 PUSH2 0x5C PUSH0 CODECOPY PUSH0 RETURN INVALID PUSH1 0x80 PUSH1 0x40 MSTORE PUSH1 0x4 CALLDATASIZE LT PUSH2 0x37 JUMPI PUSH0 CALLDATALOAD PUSH1 0xE0 SHR DUP1 PUSH4 0x6FB7389C EQ PUSH2 0x42 JUMPI DUP1 PUSH4 0xF8A8FD6D EQ PUSH2 0x5E JUMPI DUP1 PUSH4 0xFE64D6FF EQ PUSH2 0x88 JUMPI PUSH2 0x3E JUMP JUMPDEST CALLDATASIZE PUSH2 0x3E JUMPI STOP JUMPDEST PUSH0 DUP1 REVERT JUMPDEST PUSH2 0x5C PUSH1 0x4 DUP1 CALLDATASIZE SUB DUP2 ADD SWAP1 PUSH2 0x57 SWAP2 SWAP1 PUSH2 0x1B5 JUMP JUMPDEST PUSH2 0xB0 JUMP JUMPDEST STOP JUMPDEST CALLVALUE DUP1 ISZERO PUSH2 0x69 JUMPI PUSH0 DUP1 REVERT JUMPDEST POP PUSH2 0x72 PUSH2 0xF2 JUMP JUMPDEST PUSH1 0x40 MLOAD PUSH2 0x7F SWAP2 SWAP1 PUSH2 0x1EF JUMP JUMPDEST PUSH1 0x40 MLOAD DUP1 SWAP2 SUB SWAP1 RETURN JUMPDEST CALLVALUE DUP1 ISZERO PUSH2 0x93 JUMPI PUSH0 DUP1 REVERT JUMPDEST POP PUSH2 0xAE PUSH1 0x4 DUP1 CALLDATASIZE SUB DUP2 ADD SWAP1 PUSH2 0xA9 SWAP2 SWAP1 PUSH2 0x1B5 JUMP JUMPDEST PUSH2 0x115 JUMP JUMPDEST STOP JUMPDEST DUP1 PUSH0 DUP1 PUSH2 0x100 EXP DUP2 SLOAD DUP2 PUSH20 0xFFFFFFFFFFFFFFFFFFFFFFFFFFFFFFFFFFFFFFFF MUL NOT AND SWAP1 DUP4 PUSH20 0xFFFFFFFFFFFFFFFFFFFFFFFFFFFFFFFFFFFFFFFF AND MUL OR SWAP1 SSTORE POP POP JUMP JUMPDEST PUSH0 DUP1 SLOAD SWAP1 PUSH2 0x100 EXP SWAP1 DIV PUSH20 0xFFFFFFFFFFFFFFFFFFFFFFFFFFFFFFFFFFFFFFFF AND DUP2 JUMP JUMPDEST DUP1 PUSH0 DUP1 PUSH2 0x100 EXP DUP2 SLOAD DUP2 PUSH20 0xFFFFFFFFFFFFFFFFFFFFFFFFFFFFFFFFFFFFFFFF MUL NOT AND SWAP1 DUP4 PUSH20 0xFFFFFFFFFFFFFFFFFFFFFFFFFFFFFFFFFFFFFFFF AND MUL OR SWAP1 SSTORE POP POP JUMP JUMPDEST PUSH0 DUP1 REVERT JUMPDEST PUSH0 PUSH20 0xFFFFFFFFFFFFFFFFFFFFFFFFFFFFFFFFFFFFFFFF DUP3 AND SWAP1 POP SWAP2 SWAP1 POP JUMP JUMPDEST PUSH0 PUSH2 0x184 DUP3 PUSH2 0x15B JUMP JUMPDEST SWAP1 POP SWAP2 SWAP1 POP JUMP JUMPDEST PUSH2 0x194 DUP2 PUSH2 0x17A JUMP JUMPDEST DUP2 EQ PUSH2 0x19E JUMPI PUSH0 DUP1 REVERT JUMPDEST POP JUMP JUMPDEST PUSH0 DUP2 CALLDATALOAD SWAP1 POP PUSH2 0x1AF DUP2 PUSH2 0x18B JUMP JUMPDEST SWAP3 SWAP2 POP POP JUMP JUMPDEST PUSH0 PUSH1 0x20 DUP3 DUP5 SUB SLT ISZERO PUSH2 0x1CA JUMPI PUSH2 0x1C9 PUSH2 0x157 JUMP JUMPDEST JUMPDEST PUSH0 PUSH2 0x1D7 DUP5 DUP3 DUP6 ADD PUSH2 0x1A1 JUMP JUMPDEST SWAP2 POP POP SWAP3 SWAP2 POP POP JUMP JUMPDEST PUSH2 0x1E9 DUP2 PUSH2 0x17A JUMP JUMPDEST DUP3 MSTORE POP POP JUMP JUMPDEST PUSH0 PUSH1 0x20 DUP3 ADD SWAP1 POP PUSH2 0x202 PUSH0 DUP4 ADD DUP5 PUSH2 0x1E0 JUMP JUMPDEST SWAP3 SWAP2 POP POP JUMP INVALID LOG2 PUSH5 0x6970667358 0x22 SLT KECCAK256 0xDB EQ 0xB5 0xAC TIMESTAMP 0xBA DUP7 DELEGATECALL SWAP5 0xAA 0xC0 0xEB BLOBBASEFEE DUP6 0x2D INVALID BLOCKHASH 0x4E CODESIZE 0xAE 0xE0 0xD SWAP11 PUSH32 0xCA0B7388D461067D64736F6C634300081A003300000000000000000000000000 "
				},
				"gasEstimates": {
					"creation": {
						"codeDepositCost": "114800",
						"executionCost": "24423",
						"totalCost": "139223"
					},
					"external": {
						"changeAddress(address)": "24737",
						"changeAddress2(address)": "24669",
						"test()": "2505"
					}
				},
				"methodIdentifiers": {
					"changeAddress(address)": "fe64d6ff",
					"changeAddress2(address)": "6fb7389c",
					"test()": "f8a8fd6d"
				}
			},
			"storageLayout": {
				"storage": [
					{
						"astId": 3,
						"contract": "Executive_Problem/020fc6afbb603263f80b08100e158f4d49b3492a52357406cde10cbfd3593275 (1)/contracts/Test.sol:Test",
						"label": "test",
						"offset": 0,
						"slot": "0",
						"type": "t_address"
					}
				],
				"types": {
					"t_address": {
						"encoding": "inplace",
						"label": "address",
						"numberOfBytes": "20"
					}
				}
			},
			"userdoc": {
				"kind": "user",
				"methods": {},
				"version": 1
			}
		}
	}
}