{
	"Executive_Problem/020fc6afbb603263f80b08100e158f4d49b3492a52357406cde10cbfd3593275 (1)/contracts/Test1.sol": {
		"Attacker": {
			"abi": [
				{
					"inputs": [
						{
							"internalType": "address",
							"name": "_vic",
							"type": "address"
						},
						{
							"internalType": "address",
							"name": "_owner",
							"type": "address"
						}
					],
					"stateMutability": "nonpayable",
					"type": "constructor"
				},
				{
					"anonymous": false,
					"inputs": [
						{
							"indexed": false,
							"internalType": "address",
							"name": "",
							"type": "address"
						}
					],
					"name": "check",
					"type": "event"
				},
				{
					"stateMutability": "payable",
					"type": "fallback"
				},
				{
					"inputs": [],
					"name": "getHm",
					"outputs": [
						{
							"internalType": "uint256",
							"name": "",
							"type": "uint256"
						}
					],
					"stateMutability": "view",
					"type": "function"
				},
				{
					"inputs": [],
					"name": "getOwner",
					"outputs": [
						{
							"internalType": "address",
							"name": "",
							"type": "address"
						}
					],
					"stateMutability": "view",
					"type": "function"
				},
				{
					"inputs": [],
					"name": "getWho",
					"outputs": [
						{
							"internalType": "address",
							"name": "",
							"type": "address"
						}
					],
					"stateMutability": "view",
					"type": "function"
				},
				{
					"inputs": [],
					"name": "owner",
					"outputs": [
						{
							"internalType": "address",
							"name": "",
							"type": "address"
						}
					],
					"stateMutability": "view",
					"type": "function"
				},
				{
					"inputs": [],
					"name": "vic",
					"outputs": [
						{
							"internalType": "contract Victim",
							"name": "",
							"type": "address"
						}
					],
					"stateMutability": "view",
					"type": "function"
				}
			],
			"devdoc": {
				"kind": "dev",
				"methods": {},
				"version": 1
			},
			"evm": {
				"assembly": "    /* \"Executive_Problem/020fc6afbb603263f80b08100e158f4d49b3492a52357406cde10cbfd3593275 (1)/contracts/Test1.sol\":60:677  contract Attacker {  ... */\n  mstore(0x40, 0x80)\n    /* \"Executive_Problem/020fc6afbb603263f80b08100e158f4d49b3492a52357406cde10cbfd3593275 (1)/contracts/Test1.sol\":169:272  constructor(address _vic, address _owner){... */\n  callvalue\n  dup1\n  iszero\n  tag_1\n  jumpi\n  0x00\n  dup1\n  revert\ntag_1:\n  pop\n  mload(0x40)\n  sub(codesize, bytecodeSize)\n  dup1\n  bytecodeSize\n  dup4\n  codecopy\n  dup2\n  dup2\n  add\n  0x40\n  mstore\n  dup2\n  add\n  swap1\n  tag_2\n  swap2\n  swap1\n  tag_3\n  jump\t// in\ntag_2:\n    /* \"Executive_Problem/020fc6afbb603263f80b08100e158f4d49b3492a52357406cde10cbfd3593275 (1)/contracts/Test1.sol\":229:235  _owner */\n  dup1\n    /* \"Executive_Problem/020fc6afbb603263f80b08100e158f4d49b3492a52357406cde10cbfd3593275 (1)/contracts/Test1.sol\":221:226  owner */\n  0x00\n  dup1\n    /* \"Executive_Problem/020fc6afbb603263f80b08100e158f4d49b3492a52357406cde10cbfd3593275 (1)/contracts/Test1.sol\":221:235  owner = _owner */\n  0x0100\n  exp\n  dup2\n  sload\n  dup2\n  0xffffffffffffffffffffffffffffffffffffffff\n  mul\n  not\n  and\n  swap1\n  dup4\n  0xffffffffffffffffffffffffffffffffffffffff\n  and\n  mul\n  or\n  swap1\n  sstore\n  pop\n    /* \"Executive_Problem/020fc6afbb603263f80b08100e158f4d49b3492a52357406cde10cbfd3593275 (1)/contracts/Test1.sol\":259:263  _vic */\n  dup2\n    /* \"Executive_Problem/020fc6afbb603263f80b08100e158f4d49b3492a52357406cde10cbfd3593275 (1)/contracts/Test1.sol\":246:249  vic */\n  0x01\n  0x00\n    /* \"Executive_Problem/020fc6afbb603263f80b08100e158f4d49b3492a52357406cde10cbfd3593275 (1)/contracts/Test1.sol\":246:264  vic = Victim(_vic) */\n  0x0100\n  exp\n  dup2\n  sload\n  dup2\n  0xffffffffffffffffffffffffffffffffffffffff\n  mul\n  not\n  and\n  swap1\n  dup4\n  0xffffffffffffffffffffffffffffffffffffffff\n  and\n  mul\n  or\n  swap1\n  sstore\n  pop\n    /* \"Executive_Problem/020fc6afbb603263f80b08100e158f4d49b3492a52357406cde10cbfd3593275 (1)/contracts/Test1.sol\":169:272  constructor(address _vic, address _owner){... */\n  pop\n  pop\n    /* \"Executive_Problem/020fc6afbb603263f80b08100e158f4d49b3492a52357406cde10cbfd3593275 (1)/contracts/Test1.sol\":60:677  contract Attacker {  ... */\n  jump(tag_6)\n    /* \"#utility.yul\":88:205   */\ntag_8:\n    /* \"#utility.yul\":197:198   */\n  0x00\n    /* \"#utility.yul\":194:195   */\n  dup1\n    /* \"#utility.yul\":187:199   */\n  revert\n    /* \"#utility.yul\":334:460   */\ntag_10:\n    /* \"#utility.yul\":371:378   */\n  0x00\n    /* \"#utility.yul\":411:453   */\n  0xffffffffffffffffffffffffffffffffffffffff\n    /* \"#utility.yul\":404:409   */\n  dup3\n    /* \"#utility.yul\":400:454   */\n  and\n    /* \"#utility.yul\":389:454   */\n  swap1\n  pop\n    /* \"#utility.yul\":334:460   */\n  swap2\n  swap1\n  pop\n  jump\t// out\n    /* \"#utility.yul\":466:562   */\ntag_11:\n    /* \"#utility.yul\":503:510   */\n  0x00\n    /* \"#utility.yul\":532:556   */\n  tag_20\n    /* \"#utility.yul\":550:555   */\n  dup3\n    /* \"#utility.yul\":532:556   */\n  tag_10\n  jump\t// in\ntag_20:\n    /* \"#utility.yul\":521:556   */\n  swap1\n  pop\n    /* \"#utility.yul\":466:562   */\n  swap2\n  swap1\n  pop\n  jump\t// out\n    /* \"#utility.yul\":568:690   */\ntag_12:\n    /* \"#utility.yul\":641:665   */\n  tag_22\n    /* \"#utility.yul\":659:664   */\n  dup2\n    /* \"#utility.yul\":641:665   */\n  tag_11\n  jump\t// in\ntag_22:\n    /* \"#utility.yul\":634:639   */\n  dup2\n    /* \"#utility.yul\":631:666   */\n  eq\n    /* \"#utility.yul\":621:684   */\n  tag_23\n  jumpi\n    /* \"#utility.yul\":680:681   */\n  0x00\n    /* \"#utility.yul\":677:678   */\n  dup1\n    /* \"#utility.yul\":670:682   */\n  revert\n    /* \"#utility.yul\":621:684   */\ntag_23:\n    /* \"#utility.yul\":568:690   */\n  pop\n  jump\t// out\n    /* \"#utility.yul\":696:839   */\ntag_13:\n    /* \"#utility.yul\":753:758   */\n  0x00\n    /* \"#utility.yul\":784:790   */\n  dup2\n    /* \"#utility.yul\":778:791   */\n  mload\n    /* \"#utility.yul\":769:791   */\n  swap1\n  pop\n    /* \"#utility.yul\":800:833   */\n  tag_25\n    /* \"#utility.yul\":827:832   */\n  dup2\n    /* \"#utility.yul\":800:833   */\n  tag_12\n  jump\t// in\ntag_25:\n    /* \"#utility.yul\":696:839   */\n  swap3\n  swap2\n  pop\n  pop\n  jump\t// out\n    /* \"#utility.yul\":845:1352   */\ntag_3:\n    /* \"#utility.yul\":924:930   */\n  0x00\n    /* \"#utility.yul\":932:938   */\n  dup1\n    /* \"#utility.yul\":981:983   */\n  0x40\n    /* \"#utility.yul\":969:978   */\n  dup4\n    /* \"#utility.yul\":960:967   */\n  dup6\n    /* \"#utility.yul\":956:979   */\n  sub\n    /* \"#utility.yul\":952:984   */\n  slt\n    /* \"#utility.yul\":949:1068   */\n  iszero\n  tag_27\n  jumpi\n    /* \"#utility.yul\":987:1066   */\n  tag_28\n  tag_8\n  jump\t// in\ntag_28:\n    /* \"#utility.yul\":949:1068   */\ntag_27:\n    /* \"#utility.yul\":1107:1108   */\n  0x00\n    /* \"#utility.yul\":1132:1196   */\n  tag_29\n    /* \"#utility.yul\":1188:1195   */\n  dup6\n    /* \"#utility.yul\":1179:1185   */\n  dup3\n    /* \"#utility.yul\":1168:1177   */\n  dup7\n    /* \"#utility.yul\":1164:1186   */\n  add\n    /* \"#utility.yul\":1132:1196   */\n  tag_13\n  jump\t// in\ntag_29:\n    /* \"#utility.yul\":1122:1196   */\n  swap3\n  pop\n    /* \"#utility.yul\":1078:1206   */\n  pop\n    /* \"#utility.yul\":1245:1247   */\n  0x20\n    /* \"#utility.yul\":1271:1335   */\n  tag_30\n    /* \"#utility.yul\":1327:1334   */\n  dup6\n    /* \"#utility.yul\":1318:1324   */\n  dup3\n    /* \"#utility.yul\":1307:1316   */\n  dup7\n    /* \"#utility.yul\":1303:1325   */\n  add\n    /* \"#utility.yul\":1271:1335   */\n  tag_13\n  jump\t// in\ntag_30:\n    /* \"#utility.yul\":1261:1335   */\n  swap2\n  pop\n    /* \"#utility.yul\":1216:1345   */\n  pop\n    /* \"#utility.yul\":845:1352   */\n  swap3\n  pop\n  swap3\n  swap1\n  pop\n  jump\t// out\n    /* \"Executive_Problem/020fc6afbb603263f80b08100e158f4d49b3492a52357406cde10cbfd3593275 (1)/contracts/Test1.sol\":60:677  contract Attacker {  ... */\ntag_6:\n  dataSize(sub_0)\n  dup1\n  dataOffset(sub_0)\n  0x00\n  codecopy\n  0x00\n  return\nstop\n\nsub_0: assembly {\n        /* \"Executive_Problem/020fc6afbb603263f80b08100e158f4d49b3492a52357406cde10cbfd3593275 (1)/contracts/Test1.sol\":60:677  contract Attacker {  ... */\n      mstore(0x40, 0x80)\n      jumpi(tag_1, lt(calldatasize, 0x04))\n      shr(0xe0, calldataload(0x00))\n      dup1\n      0x140be2be\n      eq\n      tag_3\n      jumpi\n      dup1\n      0x1a2c69ea\n      eq\n      tag_4\n      jumpi\n      dup1\n      0x3e964a8f\n      eq\n      tag_5\n      jumpi\n      dup1\n      0x893d20e8\n      eq\n      tag_6\n      jumpi\n      dup1\n      0x8da5cb5b\n      eq\n      tag_7\n      jumpi\n      jump(tag_2)\n    tag_1:\n    tag_2:\n        /* \"Executive_Problem/020fc6afbb603263f80b08100e158f4d49b3492a52357406cde10cbfd3593275 (1)/contracts/Test1.sol\":602:619  check(msg.sender) */\n      0xc23697a8dc5b7e1acdf7b4786ba5c15f8f14b005f3b96680b860fd918f7b2a66\n        /* \"Executive_Problem/020fc6afbb603263f80b08100e158f4d49b3492a52357406cde10cbfd3593275 (1)/contracts/Test1.sol\":608:618  msg.sender */\n      caller\n        /* \"Executive_Problem/020fc6afbb603263f80b08100e158f4d49b3492a52357406cde10cbfd3593275 (1)/contracts/Test1.sol\":602:619  check(msg.sender) */\n      mload(0x40)\n      tag_10\n      swap2\n      swap1\n      tag_11\n      jump\t// in\n    tag_10:\n      mload(0x40)\n      dup1\n      swap2\n      sub\n      swap1\n      log1\n        /* \"Executive_Problem/020fc6afbb603263f80b08100e158f4d49b3492a52357406cde10cbfd3593275 (1)/contracts/Test1.sol\":639:642  vic */\n      0x01\n      0x00\n      swap1\n      sload\n      swap1\n      0x0100\n      exp\n      swap1\n      div\n      0xffffffffffffffffffffffffffffffffffffffff\n      and\n        /* \"Executive_Problem/020fc6afbb603263f80b08100e158f4d49b3492a52357406cde10cbfd3593275 (1)/contracts/Test1.sol\":631:656  address(vic).delegatecall */\n      0xffffffffffffffffffffffffffffffffffffffff\n      and\n        /* \"Executive_Problem/020fc6afbb603263f80b08100e158f4d49b3492a52357406cde10cbfd3593275 (1)/contracts/Test1.sol\":657:665  msg.data */\n      0x00\n      calldatasize\n        /* \"Executive_Problem/020fc6afbb603263f80b08100e158f4d49b3492a52357406cde10cbfd3593275 (1)/contracts/Test1.sol\":631:666  address(vic).delegatecall(msg.data) */\n      mload(0x40)\n      tag_12\n      swap3\n      swap2\n      swap1\n      tag_13\n      jump\t// in\n    tag_12:\n      0x00\n      mload(0x40)\n      dup1\n      dup4\n      sub\n      dup2\n      dup6\n      gas\n      delegatecall\n      swap2\n      pop\n      pop\n      returndatasize\n      dup1\n      0x00\n      dup2\n      eq\n      tag_16\n      jumpi\n      mload(0x40)\n      swap2\n      pop\n      and(add(returndatasize, 0x3f), not(0x1f))\n      dup3\n      add\n      0x40\n      mstore\n      returndatasize\n      dup3\n      mstore\n      returndatasize\n      0x00\n      0x20\n      dup5\n      add\n      returndatacopy\n      jump(tag_15)\n    tag_16:\n      0x60\n      swap2\n      pop\n    tag_15:\n      stop\n        /* \"Executive_Problem/020fc6afbb603263f80b08100e158f4d49b3492a52357406cde10cbfd3593275 (1)/contracts/Test1.sol\":374:456  function getWho() public view returns (address){... */\n    tag_3:\n      callvalue\n      dup1\n      iszero\n      tag_17\n      jumpi\n      0x00\n      dup1\n      revert\n    tag_17:\n      pop\n      tag_18\n      tag_19\n      jump\t// in\n    tag_18:\n      mload(0x40)\n      tag_20\n      swap2\n      swap1\n      tag_11\n      jump\t// in\n    tag_20:\n      mload(0x40)\n      dup1\n      swap2\n      sub\n      swap1\n      return\n        /* \"Executive_Problem/020fc6afbb603263f80b08100e158f4d49b3492a52357406cde10cbfd3593275 (1)/contracts/Test1.sol\":114:131  Victim public vic */\n    tag_4:\n      callvalue\n      dup1\n      iszero\n      tag_21\n      jumpi\n      0x00\n      dup1\n      revert\n    tag_21:\n      pop\n      tag_22\n      tag_23\n      jump\t// in\n    tag_22:\n      mload(0x40)\n      tag_24\n      swap2\n      swap1\n      tag_25\n      jump\t// in\n    tag_24:\n      mload(0x40)\n      dup1\n      swap2\n      sub\n      swap1\n      return\n        /* \"Executive_Problem/020fc6afbb603263f80b08100e158f4d49b3492a52357406cde10cbfd3593275 (1)/contracts/Test1.sol\":464:546  function getHm() public  view returns (uint256){... */\n    tag_5:\n      callvalue\n      dup1\n      iszero\n      tag_26\n      jumpi\n      0x00\n      dup1\n      revert\n    tag_26:\n      pop\n      tag_27\n      tag_28\n      jump\t// in\n    tag_27:\n      mload(0x40)\n      tag_29\n      swap2\n      swap1\n      tag_30\n      jump\t// in\n    tag_29:\n      mload(0x40)\n      dup1\n      swap2\n      sub\n      swap1\n      return\n        /* \"Executive_Problem/020fc6afbb603263f80b08100e158f4d49b3492a52357406cde10cbfd3593275 (1)/contracts/Test1.sol\":280:366  function getOwner() public view returns (address){... */\n    tag_6:\n      callvalue\n      dup1\n      iszero\n      tag_31\n      jumpi\n      0x00\n      dup1\n      revert\n    tag_31:\n      pop\n      tag_32\n      tag_33\n      jump\t// in\n    tag_32:\n      mload(0x40)\n      tag_34\n      swap2\n      swap1\n      tag_11\n      jump\t// in\n    tag_34:\n      mload(0x40)\n      dup1\n      swap2\n      sub\n      swap1\n      return\n        /* \"Executive_Problem/020fc6afbb603263f80b08100e158f4d49b3492a52357406cde10cbfd3593275 (1)/contracts/Test1.sol\":87:107  address public owner */\n    tag_7:\n      callvalue\n      dup1\n      iszero\n      tag_35\n      jumpi\n      0x00\n      dup1\n      revert\n    tag_35:\n      pop\n      tag_36\n      tag_37\n      jump\t// in\n    tag_36:\n      mload(0x40)\n      tag_38\n      swap2\n      swap1\n      tag_11\n      jump\t// in\n    tag_38:\n      mload(0x40)\n      dup1\n      swap2\n      sub\n      swap1\n      return\n        /* \"Executive_Problem/020fc6afbb603263f80b08100e158f4d49b3492a52357406cde10cbfd3593275 (1)/contracts/Test1.sol\":374:456  function getWho() public view returns (address){... */\n    tag_19:\n        /* \"Executive_Problem/020fc6afbb603263f80b08100e158f4d49b3492a52357406cde10cbfd3593275 (1)/contracts/Test1.sol\":413:420  address */\n      0x00\n        /* \"Executive_Problem/020fc6afbb603263f80b08100e158f4d49b3492a52357406cde10cbfd3593275 (1)/contracts/Test1.sol\":439:442  vic */\n      0x01\n      0x00\n      swap1\n      sload\n      swap1\n      0x0100\n      exp\n      swap1\n      div\n      0xffffffffffffffffffffffffffffffffffffffff\n      and\n        /* \"Executive_Problem/020fc6afbb603263f80b08100e158f4d49b3492a52357406cde10cbfd3593275 (1)/contracts/Test1.sol\":439:446  vic.who */\n      0xffffffffffffffffffffffffffffffffffffffff\n      and\n      0xd6d21dfd\n        /* \"Executive_Problem/020fc6afbb603263f80b08100e158f4d49b3492a52357406cde10cbfd3593275 (1)/contracts/Test1.sol\":439:448  vic.who() */\n      mload(0x40)\n      dup2\n      0xffffffff\n      and\n      0xe0\n      shl\n      dup2\n      mstore\n      0x04\n      add\n      0x20\n      mload(0x40)\n      dup1\n      dup4\n      sub\n      dup2\n      dup7\n      gas\n      staticcall\n      iszero\n      dup1\n      iszero\n      tag_41\n      jumpi\n      returndatasize\n      0x00\n      dup1\n      returndatacopy\n      revert(0x00, returndatasize)\n    tag_41:\n      pop\n      pop\n      pop\n      pop\n      mload(0x40)\n      returndatasize\n      not(0x1f)\n      0x1f\n      dup3\n      add\n      and\n      dup3\n      add\n      dup1\n      0x40\n      mstore\n      pop\n      dup2\n      add\n      swap1\n      tag_42\n      swap2\n      swap1\n      tag_43\n      jump\t// in\n    tag_42:\n        /* \"Executive_Problem/020fc6afbb603263f80b08100e158f4d49b3492a52357406cde10cbfd3593275 (1)/contracts/Test1.sol\":432:448  return vic.who() */\n      swap1\n      pop\n        /* \"Executive_Problem/020fc6afbb603263f80b08100e158f4d49b3492a52357406cde10cbfd3593275 (1)/contracts/Test1.sol\":374:456  function getWho() public view returns (address){... */\n      swap1\n      jump\t// out\n        /* \"Executive_Problem/020fc6afbb603263f80b08100e158f4d49b3492a52357406cde10cbfd3593275 (1)/contracts/Test1.sol\":114:131  Victim public vic */\n    tag_23:\n      0x01\n      0x00\n      swap1\n      sload\n      swap1\n      0x0100\n      exp\n      swap1\n      div\n      0xffffffffffffffffffffffffffffffffffffffff\n      and\n      dup2\n      jump\t// out\n        /* \"Executive_Problem/020fc6afbb603263f80b08100e158f4d49b3492a52357406cde10cbfd3593275 (1)/contracts/Test1.sol\":464:546  function getHm() public  view returns (uint256){... */\n    tag_28:\n        /* \"Executive_Problem/020fc6afbb603263f80b08100e158f4d49b3492a52357406cde10cbfd3593275 (1)/contracts/Test1.sol\":503:510  uint256 */\n      0x00\n        /* \"Executive_Problem/020fc6afbb603263f80b08100e158f4d49b3492a52357406cde10cbfd3593275 (1)/contracts/Test1.sol\":529:532  vic */\n      0x01\n      0x00\n      swap1\n      sload\n      swap1\n      0x0100\n      exp\n      swap1\n      div\n      0xffffffffffffffffffffffffffffffffffffffff\n      and\n        /* \"Executive_Problem/020fc6afbb603263f80b08100e158f4d49b3492a52357406cde10cbfd3593275 (1)/contracts/Test1.sol\":529:536  vic.hmm */\n      0xffffffffffffffffffffffffffffffffffffffff\n      and\n      0x693247b8\n        /* \"Executive_Problem/020fc6afbb603263f80b08100e158f4d49b3492a52357406cde10cbfd3593275 (1)/contracts/Test1.sol\":529:538  vic.hmm() */\n      mload(0x40)\n      dup2\n      0xffffffff\n      and\n      0xe0\n      shl\n      dup2\n      mstore\n      0x04\n      add\n      0x20\n      mload(0x40)\n      dup1\n      dup4\n      sub\n      dup2\n      dup7\n      gas\n      staticcall\n      iszero\n      dup1\n      iszero\n      tag_46\n      jumpi\n      returndatasize\n      0x00\n      dup1\n      returndatacopy\n      revert(0x00, returndatasize)\n    tag_46:\n      pop\n      pop\n      pop\n      pop\n      mload(0x40)\n      returndatasize\n      not(0x1f)\n      0x1f\n      dup3\n      add\n      and\n      dup3\n      add\n      dup1\n      0x40\n      mstore\n      pop\n      dup2\n      add\n      swap1\n      tag_47\n      swap2\n      swap1\n      tag_48\n      jump\t// in\n    tag_47:\n        /* \"Executive_Problem/020fc6afbb603263f80b08100e158f4d49b3492a52357406cde10cbfd3593275 (1)/contracts/Test1.sol\":522:538  return vic.hmm() */\n      swap1\n      pop\n        /* \"Executive_Problem/020fc6afbb603263f80b08100e158f4d49b3492a52357406cde10cbfd3593275 (1)/contracts/Test1.sol\":464:546  function getHm() public  view returns (uint256){... */\n      swap1\n      jump\t// out\n        /* \"Executive_Problem/020fc6afbb603263f80b08100e158f4d49b3492a52357406cde10cbfd3593275 (1)/contracts/Test1.sol\":280:366  function getOwner() public view returns (address){... */\n    tag_33:\n        /* \"Executive_Problem/020fc6afbb603263f80b08100e158f4d49b3492a52357406cde10cbfd3593275 (1)/contracts/Test1.sol\":321:328  address */\n      0x00\n        /* \"Executive_Problem/020fc6afbb603263f80b08100e158f4d49b3492a52357406cde10cbfd3593275 (1)/contracts/Test1.sol\":347:350  vic */\n      0x01\n      0x00\n      swap1\n      sload\n      swap1\n      0x0100\n      exp\n      swap1\n      div\n      0xffffffffffffffffffffffffffffffffffffffff\n      and\n        /* \"Executive_Problem/020fc6afbb603263f80b08100e158f4d49b3492a52357406cde10cbfd3593275 (1)/contracts/Test1.sol\":347:356  vic.owner */\n      0xffffffffffffffffffffffffffffffffffffffff\n      and\n      0x8da5cb5b\n        /* \"Executive_Problem/020fc6afbb603263f80b08100e158f4d49b3492a52357406cde10cbfd3593275 (1)/contracts/Test1.sol\":347:358  vic.owner() */\n      mload(0x40)\n      dup2\n      0xffffffff\n      and\n      0xe0\n      shl\n      dup2\n      mstore\n      0x04\n      add\n      0x20\n      mload(0x40)\n      dup1\n      dup4\n      sub\n      dup2\n      dup7\n      gas\n      staticcall\n      iszero\n      dup1\n      iszero\n      tag_51\n      jumpi\n      returndatasize\n      0x00\n      dup1\n      returndatacopy\n      revert(0x00, returndatasize)\n    tag_51:\n      pop\n      pop\n      pop\n      pop\n      mload(0x40)\n      returndatasize\n      not(0x1f)\n      0x1f\n      dup3\n      add\n      and\n      dup3\n      add\n      dup1\n      0x40\n      mstore\n      pop\n      dup2\n      add\n      swap1\n      tag_52\n      swap2\n      swap1\n      tag_43\n      jump\t// in\n    tag_52:\n        /* \"Executive_Problem/020fc6afbb603263f80b08100e158f4d49b3492a52357406cde10cbfd3593275 (1)/contracts/Test1.sol\":340:358  return vic.owner() */\n      swap1\n      pop\n        /* \"Executive_Problem/020fc6afbb603263f80b08100e158f4d49b3492a52357406cde10cbfd3593275 (1)/contracts/Test1.sol\":280:366  function getOwner() public view returns (address){... */\n      swap1\n      jump\t// out\n        /* \"Executive_Problem/020fc6afbb603263f80b08100e158f4d49b3492a52357406cde10cbfd3593275 (1)/contracts/Test1.sol\":87:107  address public owner */\n    tag_37:\n      0x00\n      dup1\n      sload\n      swap1\n      0x0100\n      exp\n      swap1\n      div\n      0xffffffffffffffffffffffffffffffffffffffff\n      and\n      dup2\n      jump\t// out\n        /* \"#utility.yul\":7:133   */\n    tag_53:\n        /* \"#utility.yul\":44:51   */\n      0x00\n        /* \"#utility.yul\":84:126   */\n      0xffffffffffffffffffffffffffffffffffffffff\n        /* \"#utility.yul\":77:82   */\n      dup3\n        /* \"#utility.yul\":73:127   */\n      and\n        /* \"#utility.yul\":62:127   */\n      swap1\n      pop\n        /* \"#utility.yul\":7:133   */\n      swap2\n      swap1\n      pop\n      jump\t// out\n        /* \"#utility.yul\":139:235   */\n    tag_54:\n        /* \"#utility.yul\":176:183   */\n      0x00\n        /* \"#utility.yul\":205:229   */\n      tag_76\n        /* \"#utility.yul\":223:228   */\n      dup3\n        /* \"#utility.yul\":205:229   */\n      tag_53\n      jump\t// in\n    tag_76:\n        /* \"#utility.yul\":194:229   */\n      swap1\n      pop\n        /* \"#utility.yul\":139:235   */\n      swap2\n      swap1\n      pop\n      jump\t// out\n        /* \"#utility.yul\":241:359   */\n    tag_55:\n        /* \"#utility.yul\":328:352   */\n      tag_78\n        /* \"#utility.yul\":346:351   */\n      dup2\n        /* \"#utility.yul\":328:352   */\n      tag_54\n      jump\t// in\n    tag_78:\n        /* \"#utility.yul\":323:326   */\n      dup3\n        /* \"#utility.yul\":316:353   */\n      mstore\n        /* \"#utility.yul\":241:359   */\n      pop\n      pop\n      jump\t// out\n        /* \"#utility.yul\":365:587   */\n    tag_11:\n        /* \"#utility.yul\":458:462   */\n      0x00\n        /* \"#utility.yul\":496:498   */\n      0x20\n        /* \"#utility.yul\":485:494   */\n      dup3\n        /* \"#utility.yul\":481:499   */\n      add\n        /* \"#utility.yul\":473:499   */\n      swap1\n      pop\n        /* \"#utility.yul\":509:580   */\n      tag_80\n        /* \"#utility.yul\":577:578   */\n      0x00\n        /* \"#utility.yul\":566:575   */\n      dup4\n        /* \"#utility.yul\":562:579   */\n      add\n        /* \"#utility.yul\":553:559   */\n      dup5\n        /* \"#utility.yul\":509:580   */\n      tag_55\n      jump\t// in\n    tag_80:\n        /* \"#utility.yul\":365:587   */\n      swap3\n      swap2\n      pop\n      pop\n      jump\t// out\n        /* \"#utility.yul\":593:740   */\n    tag_56:\n        /* \"#utility.yul\":694:705   */\n      0x00\n        /* \"#utility.yul\":731:734   */\n      dup2\n        /* \"#utility.yul\":716:734   */\n      swap1\n      pop\n        /* \"#utility.yul\":593:740   */\n      swap3\n      swap2\n      pop\n      pop\n      jump\t// out\n        /* \"#utility.yul\":746:894   */\n    tag_57:\n        /* \"#utility.yul\":844:850   */\n      dup3\n        /* \"#utility.yul\":839:842   */\n      dup2\n        /* \"#utility.yul\":834:837   */\n      dup4\n        /* \"#utility.yul\":821:851   */\n      calldatacopy\n        /* \"#utility.yul\":885:886   */\n      0x00\n        /* \"#utility.yul\":876:882   */\n      dup4\n        /* \"#utility.yul\":871:874   */\n      dup4\n        /* \"#utility.yul\":867:883   */\n      add\n        /* \"#utility.yul\":860:887   */\n      mstore\n        /* \"#utility.yul\":746:894   */\n      pop\n      pop\n      pop\n      jump\t// out\n        /* \"#utility.yul\":922:1249   */\n    tag_58:\n        /* \"#utility.yul\":1036:1039   */\n      0x00\n        /* \"#utility.yul\":1057:1145   */\n      tag_84\n        /* \"#utility.yul\":1138:1144   */\n      dup4\n        /* \"#utility.yul\":1133:1136   */\n      dup6\n        /* \"#utility.yul\":1057:1145   */\n      tag_56\n      jump\t// in\n    tag_84:\n        /* \"#utility.yul\":1050:1145   */\n      swap4\n      pop\n        /* \"#utility.yul\":1155:1211   */\n      tag_85\n        /* \"#utility.yul\":1204:1210   */\n      dup4\n        /* \"#utility.yul\":1199:1202   */\n      dup6\n        /* \"#utility.yul\":1192:1197   */\n      dup5\n        /* \"#utility.yul\":1155:1211   */\n      tag_57\n      jump\t// in\n    tag_85:\n        /* \"#utility.yul\":1236:1242   */\n      dup3\n        /* \"#utility.yul\":1231:1234   */\n      dup5\n        /* \"#utility.yul\":1227:1243   */\n      add\n        /* \"#utility.yul\":1220:1243   */\n      swap1\n      pop\n        /* \"#utility.yul\":922:1249   */\n      swap4\n      swap3\n      pop\n      pop\n      pop\n      jump\t// out\n        /* \"#utility.yul\":1255:1546   */\n    tag_13:\n        /* \"#utility.yul\":1395:1398   */\n      0x00\n        /* \"#utility.yul\":1417:1520   */\n      tag_87\n        /* \"#utility.yul\":1516:1519   */\n      dup3\n        /* \"#utility.yul\":1507:1513   */\n      dup5\n        /* \"#utility.yul\":1499:1505   */\n      dup7\n        /* \"#utility.yul\":1417:1520   */\n      tag_58\n      jump\t// in\n    tag_87:\n        /* \"#utility.yul\":1410:1520   */\n      swap2\n      pop\n        /* \"#utility.yul\":1537:1540   */\n      dup2\n        /* \"#utility.yul\":1530:1540   */\n      swap1\n      pop\n        /* \"#utility.yul\":1255:1546   */\n      swap4\n      swap3\n      pop\n      pop\n      pop\n      jump\t// out\n        /* \"#utility.yul\":1552:1612   */\n    tag_59:\n        /* \"#utility.yul\":1580:1583   */\n      0x00\n        /* \"#utility.yul\":1601:1606   */\n      dup2\n        /* \"#utility.yul\":1594:1606   */\n      swap1\n      pop\n        /* \"#utility.yul\":1552:1612   */\n      swap2\n      swap1\n      pop\n      jump\t// out\n        /* \"#utility.yul\":1618:1760   */\n    tag_60:\n        /* \"#utility.yul\":1668:1677   */\n      0x00\n        /* \"#utility.yul\":1701:1754   */\n      tag_90\n        /* \"#utility.yul\":1719:1753   */\n      tag_91\n        /* \"#utility.yul\":1728:1752   */\n      tag_92\n        /* \"#utility.yul\":1746:1751   */\n      dup5\n        /* \"#utility.yul\":1728:1752   */\n      tag_53\n      jump\t// in\n    tag_92:\n        /* \"#utility.yul\":1719:1753   */\n      tag_59\n      jump\t// in\n    tag_91:\n        /* \"#utility.yul\":1701:1754   */\n      tag_53\n      jump\t// in\n    tag_90:\n        /* \"#utility.yul\":1688:1754   */\n      swap1\n      pop\n        /* \"#utility.yul\":1618:1760   */\n      swap2\n      swap1\n      pop\n      jump\t// out\n        /* \"#utility.yul\":1766:1892   */\n    tag_61:\n        /* \"#utility.yul\":1816:1825   */\n      0x00\n        /* \"#utility.yul\":1849:1886   */\n      tag_94\n        /* \"#utility.yul\":1880:1885   */\n      dup3\n        /* \"#utility.yul\":1849:1886   */\n      tag_60\n      jump\t// in\n    tag_94:\n        /* \"#utility.yul\":1836:1886   */\n      swap1\n      pop\n        /* \"#utility.yul\":1766:1892   */\n      swap2\n      swap1\n      pop\n      jump\t// out\n        /* \"#utility.yul\":1898:2038   */\n    tag_62:\n        /* \"#utility.yul\":1962:1971   */\n      0x00\n        /* \"#utility.yul\":1995:2032   */\n      tag_96\n        /* \"#utility.yul\":2026:2031   */\n      dup3\n        /* \"#utility.yul\":1995:2032   */\n      tag_61\n      jump\t// in\n    tag_96:\n        /* \"#utility.yul\":1982:2032   */\n      swap1\n      pop\n        /* \"#utility.yul\":1898:2038   */\n      swap2\n      swap1\n      pop\n      jump\t// out\n        /* \"#utility.yul\":2044:2203   */\n    tag_63:\n        /* \"#utility.yul\":2145:2196   */\n      tag_98\n        /* \"#utility.yul\":2190:2195   */\n      dup2\n        /* \"#utility.yul\":2145:2196   */\n      tag_62\n      jump\t// in\n    tag_98:\n        /* \"#utility.yul\":2140:2143   */\n      dup3\n        /* \"#utility.yul\":2133:2197   */\n      mstore\n        /* \"#utility.yul\":2044:2203   */\n      pop\n      pop\n      jump\t// out\n        /* \"#utility.yul\":2209:2459   */\n    tag_25:\n        /* \"#utility.yul\":2316:2320   */\n      0x00\n        /* \"#utility.yul\":2354:2356   */\n      0x20\n        /* \"#utility.yul\":2343:2352   */\n      dup3\n        /* \"#utility.yul\":2339:2357   */\n      add\n        /* \"#utility.yul\":2331:2357   */\n      swap1\n      pop\n        /* \"#utility.yul\":2367:2452   */\n      tag_100\n        /* \"#utility.yul\":2449:2450   */\n      0x00\n        /* \"#utility.yul\":2438:2447   */\n      dup4\n        /* \"#utility.yul\":2434:2451   */\n      add\n        /* \"#utility.yul\":2425:2431   */\n      dup5\n        /* \"#utility.yul\":2367:2452   */\n      tag_63\n      jump\t// in\n    tag_100:\n        /* \"#utility.yul\":2209:2459   */\n      swap3\n      swap2\n      pop\n      pop\n      jump\t// out\n        /* \"#utility.yul\":2465:2542   */\n    tag_64:\n        /* \"#utility.yul\":2502:2509   */\n      0x00\n        /* \"#utility.yul\":2531:2536   */\n      dup2\n        /* \"#utility.yul\":2520:2536   */\n      swap1\n      pop\n        /* \"#utility.yul\":2465:2542   */\n      swap2\n      swap1\n      pop\n      jump\t// out\n        /* \"#utility.yul\":2548:2666   */\n    tag_65:\n        /* \"#utility.yul\":2635:2659   */\n      tag_103\n        /* \"#utility.yul\":2653:2658   */\n      dup2\n        /* \"#utility.yul\":2635:2659   */\n      tag_64\n      jump\t// in\n    tag_103:\n        /* \"#utility.yul\":2630:2633   */\n      dup3\n        /* \"#utility.yul\":2623:2660   */\n      mstore\n        /* \"#utility.yul\":2548:2666   */\n      pop\n      pop\n      jump\t// out\n        /* \"#utility.yul\":2672:2894   */\n    tag_30:\n        /* \"#utility.yul\":2765:2769   */\n      0x00\n        /* \"#utility.yul\":2803:2805   */\n      0x20\n        /* \"#utility.yul\":2792:2801   */\n      dup3\n        /* \"#utility.yul\":2788:2806   */\n      add\n        /* \"#utility.yul\":2780:2806   */\n      swap1\n      pop\n        /* \"#utility.yul\":2816:2887   */\n      tag_105\n        /* \"#utility.yul\":2884:2885   */\n      0x00\n        /* \"#utility.yul\":2873:2882   */\n      dup4\n        /* \"#utility.yul\":2869:2886   */\n      add\n        /* \"#utility.yul\":2860:2866   */\n      dup5\n        /* \"#utility.yul\":2816:2887   */\n      tag_65\n      jump\t// in\n    tag_105:\n        /* \"#utility.yul\":2672:2894   */\n      swap3\n      swap2\n      pop\n      pop\n      jump\t// out\n        /* \"#utility.yul\":2981:3098   */\n    tag_67:\n        /* \"#utility.yul\":3090:3091   */\n      0x00\n        /* \"#utility.yul\":3087:3088   */\n      dup1\n        /* \"#utility.yul\":3080:3092   */\n      revert\n        /* \"#utility.yul\":3227:3349   */\n    tag_69:\n        /* \"#utility.yul\":3300:3324   */\n      tag_110\n        /* \"#utility.yul\":3318:3323   */\n      dup2\n        /* \"#utility.yul\":3300:3324   */\n      tag_54\n      jump\t// in\n    tag_110:\n        /* \"#utility.yul\":3293:3298   */\n      dup2\n        /* \"#utility.yul\":3290:3325   */\n      eq\n        /* \"#utility.yul\":3280:3343   */\n      tag_111\n      jumpi\n        /* \"#utility.yul\":3339:3340   */\n      0x00\n        /* \"#utility.yul\":3336:3337   */\n      dup1\n        /* \"#utility.yul\":3329:3341   */\n      revert\n        /* \"#utility.yul\":3280:3343   */\n    tag_111:\n        /* \"#utility.yul\":3227:3349   */\n      pop\n      jump\t// out\n        /* \"#utility.yul\":3355:3498   */\n    tag_70:\n        /* \"#utility.yul\":3412:3417   */\n      0x00\n        /* \"#utility.yul\":3443:3449   */\n      dup2\n        /* \"#utility.yul\":3437:3450   */\n      mload\n        /* \"#utility.yul\":3428:3450   */\n      swap1\n      pop\n        /* \"#utility.yul\":3459:3492   */\n      tag_113\n        /* \"#utility.yul\":3486:3491   */\n      dup2\n        /* \"#utility.yul\":3459:3492   */\n      tag_69\n      jump\t// in\n    tag_113:\n        /* \"#utility.yul\":3355:3498   */\n      swap3\n      swap2\n      pop\n      pop\n      jump\t// out\n        /* \"#utility.yul\":3504:3855   */\n    tag_43:\n        /* \"#utility.yul\":3574:3580   */\n      0x00\n        /* \"#utility.yul\":3623:3625   */\n      0x20\n        /* \"#utility.yul\":3611:3620   */\n      dup3\n        /* \"#utility.yul\":3602:3609   */\n      dup5\n        /* \"#utility.yul\":3598:3621   */\n      sub\n        /* \"#utility.yul\":3594:3626   */\n      slt\n        /* \"#utility.yul\":3591:3710   */\n      iszero\n      tag_115\n      jumpi\n        /* \"#utility.yul\":3629:3708   */\n      tag_116\n      tag_67\n      jump\t// in\n    tag_116:\n        /* \"#utility.yul\":3591:3710   */\n    tag_115:\n        /* \"#utility.yul\":3749:3750   */\n      0x00\n        /* \"#utility.yul\":3774:3838   */\n      tag_117\n        /* \"#utility.yul\":3830:3837   */\n      dup5\n        /* \"#utility.yul\":3821:3827   */\n      dup3\n        /* \"#utility.yul\":3810:3819   */\n      dup6\n        /* \"#utility.yul\":3806:3828   */\n      add\n        /* \"#utility.yul\":3774:3838   */\n      tag_70\n      jump\t// in\n    tag_117:\n        /* \"#utility.yul\":3764:3838   */\n      swap2\n      pop\n        /* \"#utility.yul\":3720:3848   */\n      pop\n        /* \"#utility.yul\":3504:3855   */\n      swap3\n      swap2\n      pop\n      pop\n      jump\t// out\n        /* \"#utility.yul\":3861:3983   */\n    tag_71:\n        /* \"#utility.yul\":3934:3958   */\n      tag_119\n        /* \"#utility.yul\":3952:3957   */\n      dup2\n        /* \"#utility.yul\":3934:3958   */\n      tag_64\n      jump\t// in\n    tag_119:\n        /* \"#utility.yul\":3927:3932   */\n      dup2\n        /* \"#utility.yul\":3924:3959   */\n      eq\n        /* \"#utility.yul\":3914:3977   */\n      tag_120\n      jumpi\n        /* \"#utility.yul\":3973:3974   */\n      0x00\n        /* \"#utility.yul\":3970:3971   */\n      dup1\n        /* \"#utility.yul\":3963:3975   */\n      revert\n        /* \"#utility.yul\":3914:3977   */\n    tag_120:\n        /* \"#utility.yul\":3861:3983   */\n      pop\n      jump\t// out\n        /* \"#utility.yul\":3989:4132   */\n    tag_72:\n        /* \"#utility.yul\":4046:4051   */\n      0x00\n        /* \"#utility.yul\":4077:4083   */\n      dup2\n        /* \"#utility.yul\":4071:4084   */\n      mload\n        /* \"#utility.yul\":4062:4084   */\n      swap1\n      pop\n        /* \"#utility.yul\":4093:4126   */\n      tag_122\n        /* \"#utility.yul\":4120:4125   */\n      dup2\n        /* \"#utility.yul\":4093:4126   */\n      tag_71\n      jump\t// in\n    tag_122:\n        /* \"#utility.yul\":3989:4132   */\n      swap3\n      swap2\n      pop\n      pop\n      jump\t// out\n        /* \"#utility.yul\":4138:4489   */\n    tag_48:\n        /* \"#utility.yul\":4208:4214   */\n      0x00\n        /* \"#utility.yul\":4257:4259   */\n      0x20\n        /* \"#utility.yul\":4245:4254   */\n      dup3\n        /* \"#utility.yul\":4236:4243   */\n      dup5\n        /* \"#utility.yul\":4232:4255   */\n      sub\n        /* \"#utility.yul\":4228:4260   */\n      slt\n        /* \"#utility.yul\":4225:4344   */\n      iszero\n      tag_124\n      jumpi\n        /* \"#utility.yul\":4263:4342   */\n      tag_125\n      tag_67\n      jump\t// in\n    tag_125:\n        /* \"#utility.yul\":4225:4344   */\n    tag_124:\n        /* \"#utility.yul\":4383:4384   */\n      0x00\n        /* \"#utility.yul\":4408:4472   */\n      tag_126\n        /* \"#utility.yul\":4464:4471   */\n      dup5\n        /* \"#utility.yul\":4455:4461   */\n      dup3\n        /* \"#utility.yul\":4444:4453   */\n      dup6\n        /* \"#utility.yul\":4440:4462   */\n      add\n        /* \"#utility.yul\":4408:4472   */\n      tag_72\n      jump\t// in\n    tag_126:\n        /* \"#utility.yul\":4398:4472   */\n      swap2\n      pop\n        /* \"#utility.yul\":4354:4482   */\n      pop\n        /* \"#utility.yul\":4138:4489   */\n      swap3\n      swap2\n      pop\n      pop\n      jump\t// out\n\n    auxdata: 0xa2646970667358221220e9ce5787ab56b36e75181e75eeaaa7bc205736bb70405014c0be783c0c44c87964736f6c634300081a0033\n}\n",
				"bytecode": {
					"linkReferences": {},
					"object": "608060405234801561000f575f80fd5b5060405161077738038061077783398181016040528101906100319190610115565b805f806101000a81548173ffffffffffffffffffffffffffffffffffffffff021916908373ffffffffffffffffffffffffffffffffffffffff1602179055508160015f6101000a81548173ffffffffffffffffffffffffffffffffffffffff021916908373ffffffffffffffffffffffffffffffffffffffff1602179055505050610153565b5f80fd5b5f73ffffffffffffffffffffffffffffffffffffffff82169050919050565b5f6100e4826100bb565b9050919050565b6100f4816100da565b81146100fe575f80fd5b50565b5f8151905061010f816100eb565b92915050565b5f806040838503121561012b5761012a6100b7565b5b5f61013885828601610101565b925050602061014985828601610101565b9150509250929050565b610617806101605f395ff3fe60806040526004361061004d575f3560e01c8063140be2be1461010c5780631a2c69ea146101365780633e964a8f14610160578063893d20e81461018a5780638da5cb5b146101b45761004e565b5b7fc23697a8dc5b7e1acdf7b4786ba5c15f8f14b005f3b96680b860fd918f7b2a663360405161007d9190610421565b60405180910390a160015f9054906101000a900473ffffffffffffffffffffffffffffffffffffffff1673ffffffffffffffffffffffffffffffffffffffff165f366040516100cd929190610476565b5f60405180830381855af49150503d805f8114610105576040519150601f19603f3d011682016040523d82523d5f602084013e61010a565b606091505b005b348015610117575f80fd5b506101206101de565b60405161012d9190610421565b60405180910390f35b348015610141575f80fd5b5061014a610272565b60405161015791906104e9565b60405180910390f35b34801561016b575f80fd5b50610174610297565b604051610181919061051a565b60405180910390f35b348015610195575f80fd5b5061019e61032b565b6040516101ab9190610421565b60405180910390f35b3480156101bf575f80fd5b506101c86103bf565b6040516101d59190610421565b60405180910390f35b5f60015f9054906101000a900473ffffffffffffffffffffffffffffffffffffffff1673ffffffffffffffffffffffffffffffffffffffff1663d6d21dfd6040518163ffffffff1660e01b8152600401602060405180830381865afa158015610249573d5f803e3d5ffd5b505050506040513d601f19601f8201168201806040525081019061026d9190610561565b905090565b60015f9054906101000a900473ffffffffffffffffffffffffffffffffffffffff1681565b5f60015f9054906101000a900473ffffffffffffffffffffffffffffffffffffffff1673ffffffffffffffffffffffffffffffffffffffff1663693247b86040518163ffffffff1660e01b8152600401602060405180830381865afa158015610302573d5f803e3d5ffd5b505050506040513d601f19601f8201168201806040525081019061032691906105b6565b905090565b5f60015f9054906101000a900473ffffffffffffffffffffffffffffffffffffffff1673ffffffffffffffffffffffffffffffffffffffff16638da5cb5b6040518163ffffffff1660e01b8152600401602060405180830381865afa158015610396573d5f803e3d5ffd5b505050506040513d601f19601f820116820180604052508101906103ba9190610561565b905090565b5f8054906101000a900473ffffffffffffffffffffffffffffffffffffffff1681565b5f73ffffffffffffffffffffffffffffffffffffffff82169050919050565b5f61040b826103e2565b9050919050565b61041b81610401565b82525050565b5f6020820190506104345f830184610412565b92915050565b5f81905092915050565b828183375f83830152505050565b5f61045d838561043a565b935061046a838584610444565b82840190509392505050565b5f610482828486610452565b91508190509392505050565b5f819050919050565b5f6104b16104ac6104a7846103e2565b61048e565b6103e2565b9050919050565b5f6104c282610497565b9050919050565b5f6104d3826104b8565b9050919050565b6104e3816104c9565b82525050565b5f6020820190506104fc5f8301846104da565b92915050565b5f819050919050565b61051481610502565b82525050565b5f60208201905061052d5f83018461050b565b92915050565b5f80fd5b61054081610401565b811461054a575f80fd5b50565b5f8151905061055b81610537565b92915050565b5f6020828403121561057657610575610533565b5b5f6105838482850161054d565b91505092915050565b61059581610502565b811461059f575f80fd5b50565b5f815190506105b08161058c565b92915050565b5f602082840312156105cb576105ca610533565b5b5f6105d8848285016105a2565b9150509291505056fea2646970667358221220e9ce5787ab56b36e75181e75eeaaa7bc205736bb70405014c0be783c0c44c87964736f6c634300081a0033",
					"opcodes": "PUSH1 0x80 PUSH1 0x40 MSTORE CALLVALUE DUP1 ISZERO PUSH2 0xF JUMPI PUSH0 DUP1 REVERT JUMPDEST POP PUSH1 0x40 MLOAD PUSH2 0x777 CODESIZE SUB DUP1 PUSH2 0x777 DUP4 CODECOPY DUP2 DUP2 ADD PUSH1 0x40 MSTORE DUP2 ADD SWAP1 PUSH2 0x31 SWAP2 SWAP1 PUSH2 0x115 JUMP JUMPDEST DUP1 PUSH0 DUP1 PUSH2 0x100 EXP DUP2 SLOAD DUP2 PUSH20 0xFFFFFFFFFFFFFFFFFFFFFFFFFFFFFFFFFFFFFFFF MUL NOT AND SWAP1 DUP4 PUSH20 0xFFFFFFFFFFFFFFFFFFFFFFFFFFFFFFFFFFFFFFFF AND MUL OR SWAP1 SSTORE POP DUP2 PUSH1 0x1 PUSH0 PUSH2 0x100 EXP DUP2 SLOAD DUP2 PUSH20 0xFFFFFFFFFFFFFFFFFFFFFFFFFFFFFFFFFFFFFFFF MUL NOT AND SWAP1 DUP4 PUSH20 0xFFFFFFFFFFFFFFFFFFFFFFFFFFFFFFFFFFFFFFFF AND MUL OR SWAP1 SSTORE POP POP POP PUSH2 0x153 JUMP JUMPDEST PUSH0 DUP1 REVERT JUMPDEST PUSH0 PUSH20 0xFFFFFFFFFFFFFFFFFFFFFFFFFFFFFFFFFFFFFFFF DUP3 AND SWAP1 POP SWAP2 SWAP1 POP JUMP JUMPDEST PUSH0 PUSH2 0xE4 DUP3 PUSH2 0xBB JUMP JUMPDEST SWAP1 POP SWAP2 SWAP1 POP JUMP JUMPDEST PUSH2 0xF4 DUP2 PUSH2 0xDA JUMP JUMPDEST DUP2 EQ PUSH2 0xFE JUMPI PUSH0 DUP1 REVERT JUMPDEST POP JUMP JUMPDEST PUSH0 DUP2 MLOAD SWAP1 POP PUSH2 0x10F DUP2 PUSH2 0xEB JUMP JUMPDEST SWAP3 SWAP2 POP POP JUMP JUMPDEST PUSH0 DUP1 PUSH1 0x40 DUP4 DUP6 SUB SLT ISZERO PUSH2 0x12B JUMPI PUSH2 0x12A PUSH2 0xB7 JUMP JUMPDEST JUMPDEST PUSH0 PUSH2 0x138 DUP6 DUP3 DUP7 ADD PUSH2 0x101 JUMP JUMPDEST SWAP3 POP POP PUSH1 0x20 PUSH2 0x149 DUP6 DUP3 DUP7 ADD PUSH2 0x101 JUMP JUMPDEST SWAP2 POP POP SWAP3 POP SWAP3 SWAP1 POP JUMP JUMPDEST PUSH2 0x617 DUP1 PUSH2 0x160 PUSH0 CODECOPY PUSH0 RETURN INVALID PUSH1 0x80 PUSH1 0x40 MSTORE PUSH1 0x4 CALLDATASIZE LT PUSH2 0x4D JUMPI PUSH0 CALLDATALOAD PUSH1 0xE0 SHR DUP1 PUSH4 0x140BE2BE EQ PUSH2 0x10C JUMPI DUP1 PUSH4 0x1A2C69EA EQ PUSH2 0x136 JUMPI DUP1 PUSH4 0x3E964A8F EQ PUSH2 0x160 JUMPI DUP1 PUSH4 0x893D20E8 EQ PUSH2 0x18A JUMPI DUP1 PUSH4 0x8DA5CB5B EQ PUSH2 0x1B4 JUMPI PUSH2 0x4E JUMP JUMPDEST JUMPDEST PUSH32 0xC23697A8DC5B7E1ACDF7B4786BA5C15F8F14B005F3B96680B860FD918F7B2A66 CALLER PUSH1 0x40 MLOAD PUSH2 0x7D SWAP2 SWAP1 PUSH2 0x421 JUMP JUMPDEST PUSH1 0x40 MLOAD DUP1 SWAP2 SUB SWAP1 LOG1 PUSH1 0x1 PUSH0 SWAP1 SLOAD SWAP1 PUSH2 0x100 EXP SWAP1 DIV PUSH20 0xFFFFFFFFFFFFFFFFFFFFFFFFFFFFFFFFFFFFFFFF AND PUSH20 0xFFFFFFFFFFFFFFFFFFFFFFFFFFFFFFFFFFFFFFFF AND PUSH0 CALLDATASIZE PUSH1 0x40 MLOAD PUSH2 0xCD SWAP3 SWAP2 SWAP1 PUSH2 0x476 JUMP JUMPDEST PUSH0 PUSH1 0x40 MLOAD DUP1 DUP4 SUB DUP2 DUP6 GAS DELEGATECALL SWAP2 POP POP RETURNDATASIZE DUP1 PUSH0 DUP2 EQ PUSH2 0x105 JUMPI PUSH1 0x40 MLOAD SWAP2 POP PUSH1 0x1F NOT PUSH1 0x3F RETURNDATASIZE ADD AND DUP3 ADD PUSH1 0x40 MSTORE RETURNDATASIZE DUP3 MSTORE RETURNDATASIZE PUSH0 PUSH1 0x20 DUP5 ADD RETURNDATACOPY PUSH2 0x10A JUMP JUMPDEST PUSH1 0x60 SWAP2 POP JUMPDEST STOP JUMPDEST CALLVALUE DUP1 ISZERO PUSH2 0x117 JUMPI PUSH0 DUP1 REVERT JUMPDEST POP PUSH2 0x120 PUSH2 0x1DE JUMP JUMPDEST PUSH1 0x40 MLOAD PUSH2 0x12D SWAP2 SWAP1 PUSH2 0x421 JUMP JUMPDEST PUSH1 0x40 MLOAD DUP1 SWAP2 SUB SWAP1 RETURN JUMPDEST CALLVALUE DUP1 ISZERO PUSH2 0x141 JUMPI PUSH0 DUP1 REVERT JUMPDEST POP PUSH2 0x14A PUSH2 0x272 JUMP JUMPDEST PUSH1 0x40 MLOAD PUSH2 0x157 SWAP2 SWAP1 PUSH2 0x4E9 JUMP JUMPDEST PUSH1 0x40 MLOAD DUP1 SWAP2 SUB SWAP1 RETURN JUMPDEST CALLVALUE DUP1 ISZERO PUSH2 0x16B JUMPI PUSH0 DUP1 REVERT JUMPDEST POP PUSH2 0x174 PUSH2 0x297 JUMP JUMPDEST PUSH1 0x40 MLOAD PUSH2 0x181 SWAP2 SWAP1 PUSH2 0x51A JUMP JUMPDEST PUSH1 0x40 MLOAD DUP1 SWAP2 SUB SWAP1 RETURN JUMPDEST CALLVALUE DUP1 ISZERO PUSH2 0x195 JUMPI PUSH0 DUP1 REVERT JUMPDEST POP PUSH2 0x19E PUSH2 0x32B JUMP JUMPDEST PUSH1 0x40 MLOAD PUSH2 0x1AB SWAP2 SWAP1 PUSH2 0x421 JUMP JUMPDEST PUSH1 0x40 MLOAD DUP1 SWAP2 SUB SWAP1 RETURN JUMPDEST CALLVALUE DUP1 ISZERO PUSH2 0x1BF JUMPI PUSH0 DUP1 REVERT JUMPDEST POP PUSH2 0x1C8 PUSH2 0x3BF JUMP JUMPDEST PUSH1 0x40 MLOAD PUSH2 0x1D5 SWAP2 SWAP1 PUSH2 0x421 JUMP JUMPDEST PUSH1 0x40 MLOAD DUP1 SWAP2 SUB SWAP1 RETURN JUMPDEST PUSH0 PUSH1 0x1 PUSH0 SWAP1 SLOAD SWAP1 PUSH2 0x100 EXP SWAP1 DIV PUSH20 0xFFFFFFFFFFFFFFFFFFFFFFFFFFFFFFFFFFFFFFFF AND PUSH20 0xFFFFFFFFFFFFFFFFFFFFFFFFFFFFFFFFFFFFFFFF AND PUSH4 0xD6D21DFD PUSH1 0x40 MLOAD DUP2 PUSH4 0xFFFFFFFF AND PUSH1 0xE0 SHL DUP2 MSTORE PUSH1 0x4 ADD PUSH1 0x20 PUSH1 0x40 MLOAD DUP1 DUP4 SUB DUP2 DUP7 GAS STATICCALL ISZERO DUP1 ISZERO PUSH2 0x249 JUMPI RETURNDATASIZE PUSH0 DUP1 RETURNDATACOPY RETURNDATASIZE PUSH0 REVERT JUMPDEST POP POP POP POP PUSH1 0x40 MLOAD RETURNDATASIZE PUSH1 0x1F NOT PUSH1 0x1F DUP3 ADD AND DUP3 ADD DUP1 PUSH1 0x40 MSTORE POP DUP2 ADD SWAP1 PUSH2 0x26D SWAP2 SWAP1 PUSH2 0x561 JUMP JUMPDEST SWAP1 POP SWAP1 JUMP JUMPDEST PUSH1 0x1 PUSH0 SWAP1 SLOAD SWAP1 PUSH2 0x100 EXP SWAP1 DIV PUSH20 0xFFFFFFFFFFFFFFFFFFFFFFFFFFFFFFFFFFFFFFFF AND DUP2 JUMP JUMPDEST PUSH0 PUSH1 0x1 PUSH0 SWAP1 SLOAD SWAP1 PUSH2 0x100 EXP SWAP1 DIV PUSH20 0xFFFFFFFFFFFFFFFFFFFFFFFFFFFFFFFFFFFFFFFF AND PUSH20 0xFFFFFFFFFFFFFFFFFFFFFFFFFFFFFFFFFFFFFFFF AND PUSH4 0x693247B8 PUSH1 0x40 MLOAD DUP2 PUSH4 0xFFFFFFFF AND PUSH1 0xE0 SHL DUP2 MSTORE PUSH1 0x4 ADD PUSH1 0x20 PUSH1 0x40 MLOAD DUP1 DUP4 SUB DUP2 DUP7 GAS STATICCALL ISZERO DUP1 ISZERO PUSH2 0x302 JUMPI RETURNDATASIZE PUSH0 DUP1 RETURNDATACOPY RETURNDATASIZE PUSH0 REVERT JUMPDEST POP POP POP POP PUSH1 0x40 MLOAD RETURNDATASIZE PUSH1 0x1F NOT PUSH1 0x1F DUP3 ADD AND DUP3 ADD DUP1 PUSH1 0x40 MSTORE POP DUP2 ADD SWAP1 PUSH2 0x326 SWAP2 SWAP1 PUSH2 0x5B6 JUMP JUMPDEST SWAP1 POP SWAP1 JUMP JUMPDEST PUSH0 PUSH1 0x1 PUSH0 SWAP1 SLOAD SWAP1 PUSH2 0x100 EXP SWAP1 DIV PUSH20 0xFFFFFFFFFFFFFFFFFFFFFFFFFFFFFFFFFFFFFFFF AND PUSH20 0xFFFFFFFFFFFFFFFFFFFFFFFFFFFFFFFFFFFFFFFF AND PUSH4 0x8DA5CB5B PUSH1 0x40 MLOAD DUP2 PUSH4 0xFFFFFFFF AND PUSH1 0xE0 SHL DUP2 MSTORE PUSH1 0x4 ADD PUSH1 0x20 PUSH1 0x40 MLOAD DUP1 DUP4 SUB DUP2 DUP7 GAS STATICCALL ISZERO DUP1 ISZERO PUSH2 0x396 JUMPI RETURNDATASIZE PUSH0 DUP1 RETURNDATACOPY RETURNDATASIZE PUSH0 REVERT JUMPDEST POP POP POP POP PUSH1 0x40 MLOAD RETURNDATASIZE PUSH1 0x1F NOT PUSH1 0x1F DUP3 ADD AND DUP3 ADD DUP1 PUSH1 0x40 MSTORE POP DUP2 ADD SWAP1 PUSH2 0x3BA SWAP2 SWAP1 PUSH2 0x561 JUMP JUMPDEST SWAP1 POP SWAP1 JUMP JUMPDEST PUSH0 DUP1 SLOAD SWAP1 PUSH2 0x100 EXP SWAP1 DIV PUSH20 0xFFFFFFFFFFFFFFFFFFFFFFFFFFFFFFFFFFFFFFFF AND DUP2 JUMP JUMPDEST PUSH0 PUSH20 0xFFFFFFFFFFFFFFFFFFFFFFFFFFFFFFFFFFFFFFFF DUP3 AND SWAP1 POP SWAP2 SWAP1 POP JUMP JUMPDEST PUSH0 PUSH2 0x40B DUP3 PUSH2 0x3E2 JUMP JUMPDEST SWAP1 POP SWAP2 SWAP1 POP JUMP JUMPDEST PUSH2 0x41B DUP2 PUSH2 0x401 JUMP JUMPDEST DUP3 MSTORE POP POP JUMP JUMPDEST PUSH0 PUSH1 0x20 DUP3 ADD SWAP1 POP PUSH2 0x434 PUSH0 DUP4 ADD DUP5 PUSH2 0x412 JUMP JUMPDEST SWAP3 SWAP2 POP POP JUMP JUMPDEST PUSH0 DUP2 SWAP1 POP SWAP3 SWAP2 POP POP JUMP JUMPDEST DUP3 DUP2 DUP4 CALLDATACOPY PUSH0 DUP4 DUP4 ADD MSTORE POP POP POP JUMP JUMPDEST PUSH0 PUSH2 0x45D DUP4 DUP6 PUSH2 0x43A JUMP JUMPDEST SWAP4 POP PUSH2 0x46A DUP4 DUP6 DUP5 PUSH2 0x444 JUMP JUMPDEST DUP3 DUP5 ADD SWAP1 POP SWAP4 SWAP3 POP POP POP JUMP JUMPDEST PUSH0 PUSH2 0x482 DUP3 DUP5 DUP7 PUSH2 0x452 JUMP JUMPDEST SWAP2 POP DUP2 SWAP1 POP SWAP4 SWAP3 POP POP POP JUMP JUMPDEST PUSH0 DUP2 SWAP1 POP SWAP2 SWAP1 POP JUMP JUMPDEST PUSH0 PUSH2 0x4B1 PUSH2 0x4AC PUSH2 0x4A7 DUP5 PUSH2 0x3E2 JUMP JUMPDEST PUSH2 0x48E JUMP JUMPDEST PUSH2 0x3E2 JUMP JUMPDEST SWAP1 POP SWAP2 SWAP1 POP JUMP JUMPDEST PUSH0 PUSH2 0x4C2 DUP3 PUSH2 0x497 JUMP JUMPDEST SWAP1 POP SWAP2 SWAP1 POP JUMP JUMPDEST PUSH0 PUSH2 0x4D3 DUP3 PUSH2 0x4B8 JUMP JUMPDEST SWAP1 POP SWAP2 SWAP1 POP JUMP JUMPDEST PUSH2 0x4E3 DUP2 PUSH2 0x4C9 JUMP JUMPDEST DUP3 MSTORE POP POP JUMP JUMPDEST PUSH0 PUSH1 0x20 DUP3 ADD SWAP1 POP PUSH2 0x4FC PUSH0 DUP4 ADD DUP5 PUSH2 0x4DA JUMP JUMPDEST SWAP3 SWAP2 POP POP JUMP JUMPDEST PUSH0 DUP2 SWAP1 POP SWAP2 SWAP1 POP JUMP JUMPDEST PUSH2 0x514 DUP2 PUSH2 0x502 JUMP JUMPDEST DUP3 MSTORE POP POP JUMP JUMPDEST PUSH0 PUSH1 0x20 DUP3 ADD SWAP1 POP PUSH2 0x52D PUSH0 DUP4 ADD DUP5 PUSH2 0x50B JUMP JUMPDEST SWAP3 SWAP2 POP POP JUMP JUMPDEST PUSH0 DUP1 REVERT JUMPDEST PUSH2 0x540 DUP2 PUSH2 0x401 JUMP JUMPDEST DUP2 EQ PUSH2 0x54A JUMPI PUSH0 DUP1 REVERT JUMPDEST POP JUMP JUMPDEST PUSH0 DUP2 MLOAD SWAP1 POP PUSH2 0x55B DUP2 PUSH2 0x537 JUMP JUMPDEST SWAP3 SWAP2 POP POP JUMP JUMPDEST PUSH0 PUSH1 0x20 DUP3 DUP5 SUB SLT ISZERO PUSH2 0x576 JUMPI PUSH2 0x575 PUSH2 0x533 JUMP JUMPDEST JUMPDEST PUSH0 PUSH2 0x583 DUP5 DUP3 DUP6 ADD PUSH2 0x54D JUMP JUMPDEST SWAP2 POP POP SWAP3 SWAP2 POP POP JUMP JUMPDEST PUSH2 0x595 DUP2 PUSH2 0x502 JUMP JUMPDEST DUP2 EQ PUSH2 0x59F JUMPI PUSH0 DUP1 REVERT JUMPDEST POP JUMP JUMPDEST PUSH0 DUP2 MLOAD SWAP1 POP PUSH2 0x5B0 DUP2 PUSH2 0x58C JUMP JUMPDEST SWAP3 SWAP2 POP POP JUMP JUMPDEST PUSH0 PUSH1 0x20 DUP3 DUP5 SUB SLT ISZERO PUSH2 0x5CB JUMPI PUSH2 0x5CA PUSH2 0x533 JUMP JUMPDEST JUMPDEST PUSH0 PUSH2 0x5D8 DUP5 DUP3 DUP6 ADD PUSH2 0x5A2 JUMP JUMPDEST SWAP2 POP POP SWAP3 SWAP2 POP POP JUMP INVALID LOG2 PUSH5 0x6970667358 0x22 SLT KECCAK256 0xE9 0xCE JUMPI DUP8 0xAB JUMP 0xB3 PUSH15 0x75181E75EEAAA7BC205736BB704050 EQ 0xC0 0xBE PUSH25 0x3C0C44C87964736F6C634300081A0033000000000000000000 "
				},
				"gasEstimates": {
					"creation": {
						"codeDepositCost": "311800",
						"executionCost": "infinite",
						"totalCost": "infinite"
					},
					"external": {
						"": "infinite",
						"getHm()": "infinite",
						"getOwner()": "infinite",
						"getWho()": "infinite",
						"owner()": "2571",
						"vic()": "infinite"
					}
				},
				"methodIdentifiers": {
					"getHm()": "3e964a8f",
					"getOwner()": "893d20e8",
					"getWho()": "140be2be",
					"owner()": "8da5cb5b",
					"vic()": "1a2c69ea"
				}
			},
			"storageLayout": {
				"storage": [
					{
						"astId": 3,
						"contract": "Executive_Problem/020fc6afbb603263f80b08100e158f4d49b3492a52357406cde10cbfd3593275 (1)/contracts/Test1.sol:Attacker",
						"label": "owner",
						"offset": 0,
						"slot": "0",
						"type": "t_address"
					},
					{
						"astId": 6,
						"contract": "Executive_Problem/020fc6afbb603263f80b08100e158f4d49b3492a52357406cde10cbfd3593275 (1)/contracts/Test1.sol:Attacker",
						"label": "vic",
						"offset": 0,
						"slot": "1",
						"type": "t_contract(Victim)136"
					}
				],
				"types": {
					"t_address": {
						"encoding": "inplace",
						"label": "address",
						"numberOfBytes": "20"
					},
					"t_contract(Victim)136": {
						"encoding": "inplace",
						"label": "contract Victim",
						"numberOfBytes": "20"
					}
				}
			},
			"userdoc": {
				"kind": "user",
				"methods": {},
				"version": 1
			}
		}
	}
}