{
	"Executive_Problem/020fc6afbb603263f80b08100e158f4d49b3492a52357406cde10cbfd3593275 (1)/contracts/Test1.sol": {
		"Victim": {
			"abi": [
				{
					"inputs": [],
					"stateMutability": "nonpayable",
					"type": "constructor"
				},
				{
					"inputs": [
						{
							"internalType": "uint256",
							"name": "_new",
							"type": "uint256"
						}
					],
					"name": "changeHm",
					"outputs": [],
					"stateMutability": "nonpayable",
					"type": "function"
				},
				{
					"inputs": [
						{
							"internalType": "address",
							"name": "_new",
							"type": "address"
						}
					],
					"name": "changeWho",
					"outputs": [],
					"stateMutability": "nonpayable",
					"type": "function"
				},
				{
					"inputs": [],
					"name": "hmm",
					"outputs": [
						{
							"internalType": "uint256",
							"name": "",
							"type": "uint256"
						}
					],
					"stateMutability": "view",
					"type": "function"
				},
				{
					"inputs": [],
					"name": "owner",
					"outputs": [
						{
							"internalType": "address",
							"name": "",
							"type": "address"
						}
					],
					"stateMutability": "view",
					"type": "function"
				},
				{
					"inputs": [],
					"name": "who",
					"outputs": [
						{
							"internalType": "address",
							"name": "",
							"type": "address"
						}
					],
					"stateMutability": "view",
					"type": "function"
				}
			],
			"devdoc": {
				"kind": "dev",
				"methods": {},
				"version": 1
			},
			"evm": {
				"assembly": "    /* \"Executive_Problem/020fc6afbb603263f80b08100e158f4d49b3492a52357406cde10cbfd3593275 (1)/contracts/Test1.sol\":681:1131  contract Victim {... */\n  mstore(0x40, 0x80)\n    /* \"Executive_Problem/020fc6afbb603263f80b08100e158f4d49b3492a52357406cde10cbfd3593275 (1)/contracts/Test1.sol\":777:779  10 */\n  0x0a\n    /* \"Executive_Problem/020fc6afbb603263f80b08100e158f4d49b3492a52357406cde10cbfd3593275 (1)/contracts/Test1.sol\":756:779  uint256 public hmm = 10 */\n  0x02\n  sstore\n    /* \"Executive_Problem/020fc6afbb603263f80b08100e158f4d49b3492a52357406cde10cbfd3593275 (1)/contracts/Test1.sol\":874:956  constructor(){... */\n  callvalue\n  dup1\n  iszero\n  tag_1\n  jumpi\n  0x00\n  dup1\n  revert\ntag_1:\n  pop\n    /* \"Executive_Problem/020fc6afbb603263f80b08100e158f4d49b3492a52357406cde10cbfd3593275 (1)/contracts/Test1.sol\":906:916  msg.sender */\n  caller\n    /* \"Executive_Problem/020fc6afbb603263f80b08100e158f4d49b3492a52357406cde10cbfd3593275 (1)/contracts/Test1.sol\":898:903  owner */\n  0x00\n  dup1\n    /* \"Executive_Problem/020fc6afbb603263f80b08100e158f4d49b3492a52357406cde10cbfd3593275 (1)/contracts/Test1.sol\":898:916  owner = msg.sender */\n  0x0100\n  exp\n  dup2\n  sload\n  dup2\n  0xffffffffffffffffffffffffffffffffffffffff\n  mul\n  not\n  and\n  swap1\n  dup4\n  0xffffffffffffffffffffffffffffffffffffffff\n  and\n  mul\n  or\n  swap1\n  sstore\n  pop\n    /* \"Executive_Problem/020fc6afbb603263f80b08100e158f4d49b3492a52357406cde10cbfd3593275 (1)/contracts/Test1.sol\":941:947  0x1337 */\n  0x1337\n    /* \"Executive_Problem/020fc6afbb603263f80b08100e158f4d49b3492a52357406cde10cbfd3593275 (1)/contracts/Test1.sol\":927:930  who */\n  0x01\n  0x00\n    /* \"Executive_Problem/020fc6afbb603263f80b08100e158f4d49b3492a52357406cde10cbfd3593275 (1)/contracts/Test1.sol\":927:948  who = address(0x1337) */\n  0x0100\n  exp\n  dup2\n  sload\n  dup2\n  0xffffffffffffffffffffffffffffffffffffffff\n  mul\n  not\n  and\n  swap1\n  dup4\n  0xffffffffffffffffffffffffffffffffffffffff\n  and\n  mul\n  or\n  swap1\n  sstore\n  pop\n    /* \"Executive_Problem/020fc6afbb603263f80b08100e158f4d49b3492a52357406cde10cbfd3593275 (1)/contracts/Test1.sol\":681:1131  contract Victim {... */\n  dataSize(sub_0)\n  dup1\n  dataOffset(sub_0)\n  0x00\n  codecopy\n  0x00\n  return\nstop\n\nsub_0: assembly {\n        /* \"Executive_Problem/020fc6afbb603263f80b08100e158f4d49b3492a52357406cde10cbfd3593275 (1)/contracts/Test1.sol\":681:1131  contract Victim {... */\n      mstore(0x40, 0x80)\n      callvalue\n      dup1\n      iszero\n      tag_1\n      jumpi\n      0x00\n      dup1\n      revert\n    tag_1:\n      pop\n      jumpi(tag_2, lt(calldatasize, 0x04))\n      shr(0xe0, calldataload(0x00))\n      dup1\n      0x693247b8\n      eq\n      tag_3\n      jumpi\n      dup1\n      0x76bc9448\n      eq\n      tag_4\n      jumpi\n      dup1\n      0x8da5cb5b\n      eq\n      tag_5\n      jumpi\n      dup1\n      0xc7fd5cdf\n      eq\n      tag_6\n      jumpi\n      dup1\n      0xd6d21dfd\n      eq\n      tag_7\n      jumpi\n    tag_2:\n      0x00\n      dup1\n      revert\n        /* \"Executive_Problem/020fc6afbb603263f80b08100e158f4d49b3492a52357406cde10cbfd3593275 (1)/contracts/Test1.sol\":756:779  uint256 public hmm = 10 */\n    tag_3:\n      tag_8\n      tag_9\n      jump\t// in\n    tag_8:\n      mload(0x40)\n      tag_10\n      swap2\n      swap1\n      tag_11\n      jump\t// in\n    tag_10:\n      mload(0x40)\n      dup1\n      swap2\n      sub\n      swap1\n      return\n        /* \"Executive_Problem/020fc6afbb603263f80b08100e158f4d49b3492a52357406cde10cbfd3593275 (1)/contracts/Test1.sol\":964:1042  function changeWho(address _new) public onlyOwner{... */\n    tag_4:\n      tag_12\n      0x04\n      dup1\n      calldatasize\n      sub\n      dup2\n      add\n      swap1\n      tag_13\n      swap2\n      swap1\n      tag_14\n      jump\t// in\n    tag_13:\n      tag_15\n      jump\t// in\n    tag_12:\n      stop\n        /* \"Executive_Problem/020fc6afbb603263f80b08100e158f4d49b3492a52357406cde10cbfd3593275 (1)/contracts/Test1.sol\":704:724  address public owner */\n    tag_5:\n      tag_16\n      tag_17\n      jump\t// in\n    tag_16:\n      mload(0x40)\n      tag_18\n      swap2\n      swap1\n      tag_19\n      jump\t// in\n    tag_18:\n      mload(0x40)\n      dup1\n      swap2\n      sub\n      swap1\n      return\n        /* \"Executive_Problem/020fc6afbb603263f80b08100e158f4d49b3492a52357406cde10cbfd3593275 (1)/contracts/Test1.sol\":1050:1128  function changeHm(uint256 _new) public onlyOwner {... */\n    tag_6:\n      tag_20\n      0x04\n      dup1\n      calldatasize\n      sub\n      dup2\n      add\n      swap1\n      tag_21\n      swap2\n      swap1\n      tag_22\n      jump\t// in\n    tag_21:\n      tag_23\n      jump\t// in\n    tag_20:\n      stop\n        /* \"Executive_Problem/020fc6afbb603263f80b08100e158f4d49b3492a52357406cde10cbfd3593275 (1)/contracts/Test1.sol\":731:749  address public who */\n    tag_7:\n      tag_24\n      tag_25\n      jump\t// in\n    tag_24:\n      mload(0x40)\n      tag_26\n      swap2\n      swap1\n      tag_19\n      jump\t// in\n    tag_26:\n      mload(0x40)\n      dup1\n      swap2\n      sub\n      swap1\n      return\n        /* \"Executive_Problem/020fc6afbb603263f80b08100e158f4d49b3492a52357406cde10cbfd3593275 (1)/contracts/Test1.sol\":756:779  uint256 public hmm = 10 */\n    tag_9:\n      sload(0x02)\n      dup2\n      jump\t// out\n        /* \"Executive_Problem/020fc6afbb603263f80b08100e158f4d49b3492a52357406cde10cbfd3593275 (1)/contracts/Test1.sol\":964:1042  function changeWho(address _new) public onlyOwner{... */\n    tag_15:\n        /* \"Executive_Problem/020fc6afbb603263f80b08100e158f4d49b3492a52357406cde10cbfd3593275 (1)/contracts/Test1.sol\":840:845  owner */\n      0x00\n      dup1\n      sload\n      swap1\n      0x0100\n      exp\n      swap1\n      div\n      0xffffffffffffffffffffffffffffffffffffffff\n      and\n        /* \"Executive_Problem/020fc6afbb603263f80b08100e158f4d49b3492a52357406cde10cbfd3593275 (1)/contracts/Test1.sol\":826:845  msg.sender == owner */\n      0xffffffffffffffffffffffffffffffffffffffff\n      and\n        /* \"Executive_Problem/020fc6afbb603263f80b08100e158f4d49b3492a52357406cde10cbfd3593275 (1)/contracts/Test1.sol\":826:836  msg.sender */\n      caller\n        /* \"Executive_Problem/020fc6afbb603263f80b08100e158f4d49b3492a52357406cde10cbfd3593275 (1)/contracts/Test1.sol\":826:845  msg.sender == owner */\n      0xffffffffffffffffffffffffffffffffffffffff\n      and\n      eq\n        /* \"Executive_Problem/020fc6afbb603263f80b08100e158f4d49b3492a52357406cde10cbfd3593275 (1)/contracts/Test1.sol\":818:846  require(msg.sender == owner) */\n      tag_28\n      jumpi\n      0x00\n      dup1\n      revert\n    tag_28:\n        /* \"Executive_Problem/020fc6afbb603263f80b08100e158f4d49b3492a52357406cde10cbfd3593275 (1)/contracts/Test1.sol\":1030:1034  _new */\n      dup1\n        /* \"Executive_Problem/020fc6afbb603263f80b08100e158f4d49b3492a52357406cde10cbfd3593275 (1)/contracts/Test1.sol\":1024:1027  who */\n      0x01\n      0x00\n        /* \"Executive_Problem/020fc6afbb603263f80b08100e158f4d49b3492a52357406cde10cbfd3593275 (1)/contracts/Test1.sol\":1024:1034  who = _new */\n      0x0100\n      exp\n      dup2\n      sload\n      dup2\n      0xffffffffffffffffffffffffffffffffffffffff\n      mul\n      not\n      and\n      swap1\n      dup4\n      0xffffffffffffffffffffffffffffffffffffffff\n      and\n      mul\n      or\n      swap1\n      sstore\n      pop\n        /* \"Executive_Problem/020fc6afbb603263f80b08100e158f4d49b3492a52357406cde10cbfd3593275 (1)/contracts/Test1.sol\":964:1042  function changeWho(address _new) public onlyOwner{... */\n      pop\n      jump\t// out\n        /* \"Executive_Problem/020fc6afbb603263f80b08100e158f4d49b3492a52357406cde10cbfd3593275 (1)/contracts/Test1.sol\":704:724  address public owner */\n    tag_17:\n      0x00\n      dup1\n      sload\n      swap1\n      0x0100\n      exp\n      swap1\n      div\n      0xffffffffffffffffffffffffffffffffffffffff\n      and\n      dup2\n      jump\t// out\n        /* \"Executive_Problem/020fc6afbb603263f80b08100e158f4d49b3492a52357406cde10cbfd3593275 (1)/contracts/Test1.sol\":1050:1128  function changeHm(uint256 _new) public onlyOwner {... */\n    tag_23:\n        /* \"Executive_Problem/020fc6afbb603263f80b08100e158f4d49b3492a52357406cde10cbfd3593275 (1)/contracts/Test1.sol\":840:845  owner */\n      0x00\n      dup1\n      sload\n      swap1\n      0x0100\n      exp\n      swap1\n      div\n      0xffffffffffffffffffffffffffffffffffffffff\n      and\n        /* \"Executive_Problem/020fc6afbb603263f80b08100e158f4d49b3492a52357406cde10cbfd3593275 (1)/contracts/Test1.sol\":826:845  msg.sender == owner */\n      0xffffffffffffffffffffffffffffffffffffffff\n      and\n        /* \"Executive_Problem/020fc6afbb603263f80b08100e158f4d49b3492a52357406cde10cbfd3593275 (1)/contracts/Test1.sol\":826:836  msg.sender */\n      caller\n        /* \"Executive_Problem/020fc6afbb603263f80b08100e158f4d49b3492a52357406cde10cbfd3593275 (1)/contracts/Test1.sol\":826:845  msg.sender == owner */\n      0xffffffffffffffffffffffffffffffffffffffff\n      and\n      eq\n        /* \"Executive_Problem/020fc6afbb603263f80b08100e158f4d49b3492a52357406cde10cbfd3593275 (1)/contracts/Test1.sol\":818:846  require(msg.sender == owner) */\n      tag_31\n      jumpi\n      0x00\n      dup1\n      revert\n    tag_31:\n        /* \"Executive_Problem/020fc6afbb603263f80b08100e158f4d49b3492a52357406cde10cbfd3593275 (1)/contracts/Test1.sol\":1116:1120  _new */\n      dup1\n        /* \"Executive_Problem/020fc6afbb603263f80b08100e158f4d49b3492a52357406cde10cbfd3593275 (1)/contracts/Test1.sol\":1110:1113  hmm */\n      0x02\n        /* \"Executive_Problem/020fc6afbb603263f80b08100e158f4d49b3492a52357406cde10cbfd3593275 (1)/contracts/Test1.sol\":1110:1120  hmm = _new */\n      dup2\n      swap1\n      sstore\n      pop\n        /* \"Executive_Problem/020fc6afbb603263f80b08100e158f4d49b3492a52357406cde10cbfd3593275 (1)/contracts/Test1.sol\":1050:1128  function changeHm(uint256 _new) public onlyOwner {... */\n      pop\n      jump\t// out\n        /* \"Executive_Problem/020fc6afbb603263f80b08100e158f4d49b3492a52357406cde10cbfd3593275 (1)/contracts/Test1.sol\":731:749  address public who */\n    tag_25:\n      0x01\n      0x00\n      swap1\n      sload\n      swap1\n      0x0100\n      exp\n      swap1\n      div\n      0xffffffffffffffffffffffffffffffffffffffff\n      and\n      dup2\n      jump\t// out\n        /* \"#utility.yul\":7:84   */\n    tag_33:\n        /* \"#utility.yul\":44:51   */\n      0x00\n        /* \"#utility.yul\":73:78   */\n      dup2\n        /* \"#utility.yul\":62:78   */\n      swap1\n      pop\n        /* \"#utility.yul\":7:84   */\n      swap2\n      swap1\n      pop\n      jump\t// out\n        /* \"#utility.yul\":90:208   */\n    tag_34:\n        /* \"#utility.yul\":177:201   */\n      tag_48\n        /* \"#utility.yul\":195:200   */\n      dup2\n        /* \"#utility.yul\":177:201   */\n      tag_33\n      jump\t// in\n    tag_48:\n        /* \"#utility.yul\":172:175   */\n      dup3\n        /* \"#utility.yul\":165:202   */\n      mstore\n        /* \"#utility.yul\":90:208   */\n      pop\n      pop\n      jump\t// out\n        /* \"#utility.yul\":214:436   */\n    tag_11:\n        /* \"#utility.yul\":307:311   */\n      0x00\n        /* \"#utility.yul\":345:347   */\n      0x20\n        /* \"#utility.yul\":334:343   */\n      dup3\n        /* \"#utility.yul\":330:348   */\n      add\n        /* \"#utility.yul\":322:348   */\n      swap1\n      pop\n        /* \"#utility.yul\":358:429   */\n      tag_50\n        /* \"#utility.yul\":426:427   */\n      0x00\n        /* \"#utility.yul\":415:424   */\n      dup4\n        /* \"#utility.yul\":411:428   */\n      add\n        /* \"#utility.yul\":402:408   */\n      dup5\n        /* \"#utility.yul\":358:429   */\n      tag_34\n      jump\t// in\n    tag_50:\n        /* \"#utility.yul\":214:436   */\n      swap3\n      swap2\n      pop\n      pop\n      jump\t// out\n        /* \"#utility.yul\":523:640   */\n    tag_36:\n        /* \"#utility.yul\":632:633   */\n      0x00\n        /* \"#utility.yul\":629:630   */\n      dup1\n        /* \"#utility.yul\":622:634   */\n      revert\n        /* \"#utility.yul\":769:895   */\n    tag_38:\n        /* \"#utility.yul\":806:813   */\n      0x00\n        /* \"#utility.yul\":846:888   */\n      0xffffffffffffffffffffffffffffffffffffffff\n        /* \"#utility.yul\":839:844   */\n      dup3\n        /* \"#utility.yul\":835:889   */\n      and\n        /* \"#utility.yul\":824:889   */\n      swap1\n      pop\n        /* \"#utility.yul\":769:895   */\n      swap2\n      swap1\n      pop\n      jump\t// out\n        /* \"#utility.yul\":901:997   */\n    tag_39:\n        /* \"#utility.yul\":938:945   */\n      0x00\n        /* \"#utility.yul\":967:991   */\n      tag_56\n        /* \"#utility.yul\":985:990   */\n      dup3\n        /* \"#utility.yul\":967:991   */\n      tag_38\n      jump\t// in\n    tag_56:\n        /* \"#utility.yul\":956:991   */\n      swap1\n      pop\n        /* \"#utility.yul\":901:997   */\n      swap2\n      swap1\n      pop\n      jump\t// out\n        /* \"#utility.yul\":1003:1125   */\n    tag_40:\n        /* \"#utility.yul\":1076:1100   */\n      tag_58\n        /* \"#utility.yul\":1094:1099   */\n      dup2\n        /* \"#utility.yul\":1076:1100   */\n      tag_39\n      jump\t// in\n    tag_58:\n        /* \"#utility.yul\":1069:1074   */\n      dup2\n        /* \"#utility.yul\":1066:1101   */\n      eq\n        /* \"#utility.yul\":1056:1119   */\n      tag_59\n      jumpi\n        /* \"#utility.yul\":1115:1116   */\n      0x00\n        /* \"#utility.yul\":1112:1113   */\n      dup1\n        /* \"#utility.yul\":1105:1117   */\n      revert\n        /* \"#utility.yul\":1056:1119   */\n    tag_59:\n        /* \"#utility.yul\":1003:1125   */\n      pop\n      jump\t// out\n        /* \"#utility.yul\":1131:1270   */\n    tag_41:\n        /* \"#utility.yul\":1177:1182   */\n      0x00\n        /* \"#utility.yul\":1215:1221   */\n      dup2\n        /* \"#utility.yul\":1202:1222   */\n      calldataload\n        /* \"#utility.yul\":1193:1222   */\n      swap1\n      pop\n        /* \"#utility.yul\":1231:1264   */\n      tag_61\n        /* \"#utility.yul\":1258:1263   */\n      dup2\n        /* \"#utility.yul\":1231:1264   */\n      tag_40\n      jump\t// in\n    tag_61:\n        /* \"#utility.yul\":1131:1270   */\n      swap3\n      swap2\n      pop\n      pop\n      jump\t// out\n        /* \"#utility.yul\":1276:1605   */\n    tag_14:\n        /* \"#utility.yul\":1335:1341   */\n      0x00\n        /* \"#utility.yul\":1384:1386   */\n      0x20\n        /* \"#utility.yul\":1372:1381   */\n      dup3\n        /* \"#utility.yul\":1363:1370   */\n      dup5\n        /* \"#utility.yul\":1359:1382   */\n      sub\n        /* \"#utility.yul\":1355:1387   */\n      slt\n        /* \"#utility.yul\":1352:1471   */\n      iszero\n      tag_63\n      jumpi\n        /* \"#utility.yul\":1390:1469   */\n      tag_64\n      tag_36\n      jump\t// in\n    tag_64:\n        /* \"#utility.yul\":1352:1471   */\n    tag_63:\n        /* \"#utility.yul\":1510:1511   */\n      0x00\n        /* \"#utility.yul\":1535:1588   */\n      tag_65\n        /* \"#utility.yul\":1580:1587   */\n      dup5\n        /* \"#utility.yul\":1571:1577   */\n      dup3\n        /* \"#utility.yul\":1560:1569   */\n      dup6\n        /* \"#utility.yul\":1556:1578   */\n      add\n        /* \"#utility.yul\":1535:1588   */\n      tag_41\n      jump\t// in\n    tag_65:\n        /* \"#utility.yul\":1525:1588   */\n      swap2\n      pop\n        /* \"#utility.yul\":1481:1598   */\n      pop\n        /* \"#utility.yul\":1276:1605   */\n      swap3\n      swap2\n      pop\n      pop\n      jump\t// out\n        /* \"#utility.yul\":1611:1729   */\n    tag_42:\n        /* \"#utility.yul\":1698:1722   */\n      tag_67\n        /* \"#utility.yul\":1716:1721   */\n      dup2\n        /* \"#utility.yul\":1698:1722   */\n      tag_39\n      jump\t// in\n    tag_67:\n        /* \"#utility.yul\":1693:1696   */\n      dup3\n        /* \"#utility.yul\":1686:1723   */\n      mstore\n        /* \"#utility.yul\":1611:1729   */\n      pop\n      pop\n      jump\t// out\n        /* \"#utility.yul\":1735:1957   */\n    tag_19:\n        /* \"#utility.yul\":1828:1832   */\n      0x00\n        /* \"#utility.yul\":1866:1868   */\n      0x20\n        /* \"#utility.yul\":1855:1864   */\n      dup3\n        /* \"#utility.yul\":1851:1869   */\n      add\n        /* \"#utility.yul\":1843:1869   */\n      swap1\n      pop\n        /* \"#utility.yul\":1879:1950   */\n      tag_69\n        /* \"#utility.yul\":1947:1948   */\n      0x00\n        /* \"#utility.yul\":1936:1945   */\n      dup4\n        /* \"#utility.yul\":1932:1949   */\n      add\n        /* \"#utility.yul\":1923:1929   */\n      dup5\n        /* \"#utility.yul\":1879:1950   */\n      tag_42\n      jump\t// in\n    tag_69:\n        /* \"#utility.yul\":1735:1957   */\n      swap3\n      swap2\n      pop\n      pop\n      jump\t// out\n        /* \"#utility.yul\":1963:2085   */\n    tag_43:\n        /* \"#utility.yul\":2036:2060   */\n      tag_71\n        /* \"#utility.yul\":2054:2059   */\n      dup2\n        /* \"#utility.yul\":2036:2060   */\n      tag_33\n      jump\t// in\n    tag_71:\n        /* \"#utility.yul\":2029:2034   */\n      dup2\n        /* \"#utility.yul\":2026:2061   */\n      eq\n        /* \"#utility.yul\":2016:2079   */\n      tag_72\n      jumpi\n        /* \"#utility.yul\":2075:2076   */\n      0x00\n        /* \"#utility.yul\":2072:2073   */\n      dup1\n        /* \"#utility.yul\":2065:2077   */\n      revert\n        /* \"#utility.yul\":2016:2079   */\n    tag_72:\n        /* \"#utility.yul\":1963:2085   */\n      pop\n      jump\t// out\n        /* \"#utility.yul\":2091:2230   */\n    tag_44:\n        /* \"#utility.yul\":2137:2142   */\n      0x00\n        /* \"#utility.yul\":2175:2181   */\n      dup2\n        /* \"#utility.yul\":2162:2182   */\n      calldataload\n        /* \"#utility.yul\":2153:2182   */\n      swap1\n      pop\n        /* \"#utility.yul\":2191:2224   */\n      tag_74\n        /* \"#utility.yul\":2218:2223   */\n      dup2\n        /* \"#utility.yul\":2191:2224   */\n      tag_43\n      jump\t// in\n    tag_74:\n        /* \"#utility.yul\":2091:2230   */\n      swap3\n      swap2\n      pop\n      pop\n      jump\t// out\n        /* \"#utility.yul\":2236:2565   */\n    tag_22:\n        /* \"#utility.yul\":2295:2301   */\n      0x00\n        /* \"#utility.yul\":2344:2346   */\n      0x20\n        /* \"#utility.yul\":2332:2341   */\n      dup3\n        /* \"#utility.yul\":2323:2330   */\n      dup5\n        /* \"#utility.yul\":2319:2342   */\n      sub\n        /* \"#utility.yul\":2315:2347   */\n      slt\n        /* \"#utility.yul\":2312:2431   */\n      iszero\n      tag_76\n      jumpi\n        /* \"#utility.yul\":2350:2429   */\n      tag_77\n      tag_36\n      jump\t// in\n    tag_77:\n        /* \"#utility.yul\":2312:2431   */\n    tag_76:\n        /* \"#utility.yul\":2470:2471   */\n      0x00\n        /* \"#utility.yul\":2495:2548   */\n      tag_78\n        /* \"#utility.yul\":2540:2547   */\n      dup5\n        /* \"#utility.yul\":2531:2537   */\n      dup3\n        /* \"#utility.yul\":2520:2529   */\n      dup6\n        /* \"#utility.yul\":2516:2538   */\n      add\n        /* \"#utility.yul\":2495:2548   */\n      tag_44\n      jump\t// in\n    tag_78:\n        /* \"#utility.yul\":2485:2548   */\n      swap2\n      pop\n        /* \"#utility.yul\":2441:2558   */\n      pop\n        /* \"#utility.yul\":2236:2565   */\n      swap3\n      swap2\n      pop\n      pop\n      jump\t// out\n\n    auxdata: 0xa2646970667358221220e26a8573d7de18ddbb54fb518905003e4c6bd9509a02d5b0b003d9036a31998e64736f6c634300081a0033\n}\n",
				"bytecode": {
					"linkReferences": {},
					"object": "6080604052600a6002553480156013575f80fd5b50335f806101000a81548173ffffffffffffffffffffffffffffffffffffffff021916908373ffffffffffffffffffffffffffffffffffffffff16021790555061133760015f6101000a81548173ffffffffffffffffffffffffffffffffffffffff021916908373ffffffffffffffffffffffffffffffffffffffff16021790555061039f806100a25f395ff3fe608060405234801561000f575f80fd5b5060043610610055575f3560e01c8063693247b81461005957806376bc9448146100775780638da5cb5b14610093578063c7fd5cdf146100b1578063d6d21dfd146100cd575b5f80fd5b6100616100eb565b60405161006e919061024a565b60405180910390f35b610091600480360381019061008c91906102c1565b6100f1565b005b61009b61018a565b6040516100a891906102fb565b60405180910390f35b6100cb60048036038101906100c6919061033e565b6101ad565b005b6100d561020d565b6040516100e291906102fb565b60405180910390f35b60025481565b5f8054906101000a900473ffffffffffffffffffffffffffffffffffffffff1673ffffffffffffffffffffffffffffffffffffffff163373ffffffffffffffffffffffffffffffffffffffff1614610147575f80fd5b8060015f6101000a81548173ffffffffffffffffffffffffffffffffffffffff021916908373ffffffffffffffffffffffffffffffffffffffff16021790555050565b5f8054906101000a900473ffffffffffffffffffffffffffffffffffffffff1681565b5f8054906101000a900473ffffffffffffffffffffffffffffffffffffffff1673ffffffffffffffffffffffffffffffffffffffff163373ffffffffffffffffffffffffffffffffffffffff1614610203575f80fd5b8060028190555050565b60015f9054906101000a900473ffffffffffffffffffffffffffffffffffffffff1681565b5f819050919050565b61024481610232565b82525050565b5f60208201905061025d5f83018461023b565b92915050565b5f80fd5b5f73ffffffffffffffffffffffffffffffffffffffff82169050919050565b5f61029082610267565b9050919050565b6102a081610286565b81146102aa575f80fd5b50565b5f813590506102bb81610297565b92915050565b5f602082840312156102d6576102d5610263565b5b5f6102e3848285016102ad565b91505092915050565b6102f581610286565b82525050565b5f60208201905061030e5f8301846102ec565b92915050565b61031d81610232565b8114610327575f80fd5b50565b5f8135905061033881610314565b92915050565b5f6020828403121561035357610352610263565b5b5f6103608482850161032a565b9150509291505056fea2646970667358221220e26a8573d7de18ddbb54fb518905003e4c6bd9509a02d5b0b003d9036a31998e64736f6c634300081a0033",
					"opcodes": "PUSH1 0x80 PUSH1 0x40 MSTORE PUSH1 0xA PUSH1 0x2 SSTORE CALLVALUE DUP1 ISZERO PUSH1 0x13 JUMPI PUSH0 DUP1 REVERT JUMPDEST POP CALLER PUSH0 DUP1 PUSH2 0x100 EXP DUP2 SLOAD DUP2 PUSH20 0xFFFFFFFFFFFFFFFFFFFFFFFFFFFFFFFFFFFFFFFF MUL NOT AND SWAP1 DUP4 PUSH20 0xFFFFFFFFFFFFFFFFFFFFFFFFFFFFFFFFFFFFFFFF AND MUL OR SWAP1 SSTORE POP PUSH2 0x1337 PUSH1 0x1 PUSH0 PUSH2 0x100 EXP DUP2 SLOAD DUP2 PUSH20 0xFFFFFFFFFFFFFFFFFFFFFFFFFFFFFFFFFFFFFFFF MUL NOT AND SWAP1 DUP4 PUSH20 0xFFFFFFFFFFFFFFFFFFFFFFFFFFFFFFFFFFFFFFFF AND MUL OR SWAP1 SSTORE POP PUSH2 0x39F DUP1 PUSH2 0xA2 PUSH0 CODECOPY PUSH0 RETURN INVALID PUSH1 0x80 PUSH1 0x40 MSTORE CALLVALUE DUP1 ISZERO PUSH2 0xF JUMPI PUSH0 DUP1 REVERT JUMPDEST POP PUSH1 0x4 CALLDATASIZE LT PUSH2 0x55 JUMPI PUSH0 CALLDATALOAD PUSH1 0xE0 SHR DUP1 PUSH4 0x693247B8 EQ PUSH2 0x59 JUMPI DUP1 PUSH4 0x76BC9448 EQ PUSH2 0x77 JUMPI DUP1 PUSH4 0x8DA5CB5B EQ PUSH2 0x93 JUMPI DUP1 PUSH4 0xC7FD5CDF EQ PUSH2 0xB1 JUMPI DUP1 PUSH4 0xD6D21DFD EQ PUSH2 0xCD JUMPI JUMPDEST PUSH0 DUP1 REVERT JUMPDEST PUSH2 0x61 PUSH2 0xEB JUMP JUMPDEST PUSH1 0x40 MLOAD PUSH2 0x6E SWAP2 SWAP1 PUSH2 0x24A JUMP JUMPDEST PUSH1 0x40 MLOAD DUP1 SWAP2 SUB SWAP1 RETURN JUMPDEST PUSH2 0x91 PUSH1 0x4 DUP1 CALLDATASIZE SUB DUP2 ADD SWAP1 PUSH2 0x8C SWAP2 SWAP1 PUSH2 0x2C1 JUMP JUMPDEST PUSH2 0xF1 JUMP JUMPDEST STOP JUMPDEST PUSH2 0x9B PUSH2 0x18A JUMP JUMPDEST PUSH1 0x40 MLOAD PUSH2 0xA8 SWAP2 SWAP1 PUSH2 0x2FB JUMP JUMPDEST PUSH1 0x40 MLOAD DUP1 SWAP2 SUB SWAP1 RETURN JUMPDEST PUSH2 0xCB PUSH1 0x4 DUP1 CALLDATASIZE SUB DUP2 ADD SWAP1 PUSH2 0xC6 SWAP2 SWAP1 PUSH2 0x33E JUMP JUMPDEST PUSH2 0x1AD JUMP JUMPDEST STOP JUMPDEST PUSH2 0xD5 PUSH2 0x20D JUMP JUMPDEST PUSH1 0x40 MLOAD PUSH2 0xE2 SWAP2 SWAP1 PUSH2 0x2FB JUMP JUMPDEST PUSH1 0x40 MLOAD DUP1 SWAP2 SUB SWAP1 RETURN JUMPDEST PUSH1 0x2 SLOAD DUP2 JUMP JUMPDEST PUSH0 DUP1 SLOAD SWAP1 PUSH2 0x100 EXP SWAP1 DIV PUSH20 0xFFFFFFFFFFFFFFFFFFFFFFFFFFFFFFFFFFFFFFFF AND PUSH20 0xFFFFFFFFFFFFFFFFFFFFFFFFFFFFFFFFFFFFFFFF AND CALLER PUSH20 0xFFFFFFFFFFFFFFFFFFFFFFFFFFFFFFFFFFFFFFFF AND EQ PUSH2 0x147 JUMPI PUSH0 DUP1 REVERT JUMPDEST DUP1 PUSH1 0x1 PUSH0 PUSH2 0x100 EXP DUP2 SLOAD DUP2 PUSH20 0xFFFFFFFFFFFFFFFFFFFFFFFFFFFFFFFFFFFFFFFF MUL NOT AND SWAP1 DUP4 PUSH20 0xFFFFFFFFFFFFFFFFFFFFFFFFFFFFFFFFFFFFFFFF AND MUL OR SWAP1 SSTORE POP POP JUMP JUMPDEST PUSH0 DUP1 SLOAD SWAP1 PUSH2 0x100 EXP SWAP1 DIV PUSH20 0xFFFFFFFFFFFFFFFFFFFFFFFFFFFFFFFFFFFFFFFF AND DUP2 JUMP JUMPDEST PUSH0 DUP1 SLOAD SWAP1 PUSH2 0x100 EXP SWAP1 DIV PUSH20 0xFFFFFFFFFFFFFFFFFFFFFFFFFFFFFFFFFFFFFFFF AND PUSH20 0xFFFFFFFFFFFFFFFFFFFFFFFFFFFFFFFFFFFFFFFF AND CALLER PUSH20 0xFFFFFFFFFFFFFFFFFFFFFFFFFFFFFFFFFFFFFFFF AND EQ PUSH2 0x203 JUMPI PUSH0 DUP1 REVERT JUMPDEST DUP1 PUSH1 0x2 DUP2 SWAP1 SSTORE POP POP JUMP JUMPDEST PUSH1 0x1 PUSH0 SWAP1 SLOAD SWAP1 PUSH2 0x100 EXP SWAP1 DIV PUSH20 0xFFFFFFFFFFFFFFFFFFFFFFFFFFFFFFFFFFFFFFFF AND DUP2 JUMP JUMPDEST PUSH0 DUP2 SWAP1 POP SWAP2 SWAP1 POP JUMP JUMPDEST PUSH2 0x244 DUP2 PUSH2 0x232 JUMP JUMPDEST DUP3 MSTORE POP POP JUMP JUMPDEST PUSH0 PUSH1 0x20 DUP3 ADD SWAP1 POP PUSH2 0x25D PUSH0 DUP4 ADD DUP5 PUSH2 0x23B JUMP JUMPDEST SWAP3 SWAP2 POP POP JUMP JUMPDEST PUSH0 DUP1 REVERT JUMPDEST PUSH0 PUSH20 0xFFFFFFFFFFFFFFFFFFFFFFFFFFFFFFFFFFFFFFFF DUP3 AND SWAP1 POP SWAP2 SWAP1 POP JUMP JUMPDEST PUSH0 PUSH2 0x290 DUP3 PUSH2 0x267 JUMP JUMPDEST SWAP1 POP SWAP2 SWAP1 POP JUMP JUMPDEST PUSH2 0x2A0 DUP2 PUSH2 0x286 JUMP JUMPDEST DUP2 EQ PUSH2 0x2AA JUMPI PUSH0 DUP1 REVERT JUMPDEST POP JUMP JUMPDEST PUSH0 DUP2 CALLDATALOAD SWAP1 POP PUSH2 0x2BB DUP2 PUSH2 0x297 JUMP JUMPDEST SWAP3 SWAP2 POP POP JUMP JUMPDEST PUSH0 PUSH1 0x20 DUP3 DUP5 SUB SLT ISZERO PUSH2 0x2D6 JUMPI PUSH2 0x2D5 PUSH2 0x263 JUMP JUMPDEST JUMPDEST PUSH0 PUSH2 0x2E3 DUP5 DUP3 DUP6 ADD PUSH2 0x2AD JUMP JUMPDEST SWAP2 POP POP SWAP3 SWAP2 POP POP JUMP JUMPDEST PUSH2 0x2F5 DUP2 PUSH2 0x286 JUMP JUMPDEST DUP3 MSTORE POP POP JUMP JUMPDEST PUSH0 PUSH1 0x20 DUP3 ADD SWAP1 POP PUSH2 0x30E PUSH0 DUP4 ADD DUP5 PUSH2 0x2EC JUMP JUMPDEST SWAP3 SWAP2 POP POP JUMP JUMPDEST PUSH2 0x31D DUP2 PUSH2 0x232 JUMP JUMPDEST DUP2 EQ PUSH2 0x327 JUMPI PUSH0 DUP1 REVERT JUMPDEST POP JUMP JUMPDEST PUSH0 DUP2 CALLDATALOAD SWAP1 POP PUSH2 0x338 DUP2 PUSH2 0x314 JUMP JUMPDEST SWAP3 SWAP2 POP POP JUMP JUMPDEST PUSH0 PUSH1 0x20 DUP3 DUP5 SUB SLT ISZERO PUSH2 0x353 JUMPI PUSH2 0x352 PUSH2 0x263 JUMP JUMPDEST JUMPDEST PUSH0 PUSH2 0x360 DUP5 DUP3 DUP6 ADD PUSH2 0x32A JUMP JUMPDEST SWAP2 POP POP SWAP3 SWAP2 POP POP JUMP INVALID LOG2 PUSH5 0x6970667358 0x22 SLT KECCAK256 0xE2 PUSH11 0x8573D7DE18DDBB54FB5189 SDIV STOP RETURNDATACOPY 0x4C PUSH12 0xD9509A02D5B0B003D9036A31 SWAP10 DUP15 PUSH5 0x736F6C6343 STOP ADDMOD BYTE STOP CALLER "
				},
				"gasEstimates": {
					"creation": {
						"codeDepositCost": "185400",
						"executionCost": "70861",
						"totalCost": "256261"
					},
					"external": {
						"changeHm(uint256)": "24725",
						"changeWho(address)": "26881",
						"hmm()": "2403",
						"owner()": "2527",
						"who()": "2574"
					}
				},
				"methodIdentifiers": {
					"changeHm(uint256)": "c7fd5cdf",
					"changeWho(address)": "76bc9448",
					"hmm()": "693247b8",
					"owner()": "8da5cb5b",
					"who()": "d6d21dfd"
				}
			},
			"storageLayout": {
				"storage": [
					{
						"astId": 79,
						"contract": "Executive_Problem/020fc6afbb603263f80b08100e158f4d49b3492a52357406cde10cbfd3593275 (1)/contracts/Test1.sol:Victim",
						"label": "owner",
						"offset": 0,
						"slot": "0",
						"type": "t_address"
					},
					{
						"astId": 81,
						"contract": "Executive_Problem/020fc6afbb603263f80b08100e158f4d49b3492a52357406cde10cbfd3593275 (1)/contracts/Test1.sol:Victim",
						"label": "who",
						"offset": 0,
						"slot": "1",
						"type": "t_address"
					},
					{
						"astId": 84,
						"contract": "Executive_Problem/020fc6afbb603263f80b08100e158f4d49b3492a52357406cde10cbfd3593275 (1)/contracts/Test1.sol:Victim",
						"label": "hmm",
						"offset": 0,
						"slot": "2",
						"type": "t_uint256"
					}
				],
				"types": {
					"t_address": {
						"encoding": "inplace",
						"label": "address",
						"numberOfBytes": "20"
					},
					"t_uint256": {
						"encoding": "inplace",
						"label": "uint256",
						"numberOfBytes": "32"
					}
				}
			},
			"userdoc": {
				"kind": "user",
				"methods": {},
				"version": 1
			}
		}
	}
}