{
	"Executive_Problem/020fc6afbb603263f80b08100e158f4d49b3492a52357406cde10cbfd3593275 (1)/contracts/Test1.sol": {
		"ThirdParty": {
			"abi": [
				{
					"inputs": [],
					"stateMutability": "nonpayable",
					"type": "constructor"
				},
				{
					"inputs": [
						{
							"internalType": "address",
							"name": "_to",
							"type": "address"
						}
					],
					"name": "attack",
					"outputs": [],
					"stateMutability": "nonpayable",
					"type": "function"
				},
				{
					"inputs": [],
					"name": "test",
					"outputs": [
						{
							"internalType": "contract Victim",
							"name": "",
							"type": "address"
						}
					],
					"stateMutability": "view",
					"type": "function"
				}
			],
			"devdoc": {
				"kind": "dev",
				"methods": {},
				"version": 1
			},
			"evm": {
				"assembly": "    /* \"Executive_Problem/020fc6afbb603263f80b08100e158f4d49b3492a52357406cde10cbfd3593275 (1)/contracts/Test1.sol\":1135:1474  contract ThirdParty {... */\n  mstore(0x40, 0x80)\n    /* \"Executive_Problem/020fc6afbb603263f80b08100e158f4d49b3492a52357406cde10cbfd3593275 (1)/contracts/Test1.sol\":1189:1240  constructor(){... */\n  callvalue\n  dup1\n  iszero\n  tag_1\n  jumpi\n  0x00\n  dup1\n  revert\ntag_1:\n  pop\n    /* \"Executive_Problem/020fc6afbb603263f80b08100e158f4d49b3492a52357406cde10cbfd3593275 (1)/contracts/Test1.sol\":1220:1232  new Victim() */\n  mload(0x40)\n  tag_4\n  swap1\n  tag_5\n  jump\t// in\ntag_4:\n  mload(0x40)\n  dup1\n  swap2\n  sub\n  swap1\n  0x00\n  create\n  dup1\n  iszero\n  dup1\n  iszero\n  tag_6\n  jumpi\n  returndatasize\n  0x00\n  dup1\n  returndatacopy\n  revert(0x00, returndatasize)\ntag_6:\n  pop\n    /* \"Executive_Problem/020fc6afbb603263f80b08100e158f4d49b3492a52357406cde10cbfd3593275 (1)/contracts/Test1.sol\":1213:1217  test */\n  0x00\n  dup1\n    /* \"Executive_Problem/020fc6afbb603263f80b08100e158f4d49b3492a52357406cde10cbfd3593275 (1)/contracts/Test1.sol\":1213:1232  test = new Victim() */\n  0x0100\n  exp\n  dup2\n  sload\n  dup2\n  0xffffffffffffffffffffffffffffffffffffffff\n  mul\n  not\n  and\n  swap1\n  dup4\n  0xffffffffffffffffffffffffffffffffffffffff\n  and\n  mul\n  or\n  swap1\n  sstore\n  pop\n    /* \"Executive_Problem/020fc6afbb603263f80b08100e158f4d49b3492a52357406cde10cbfd3593275 (1)/contracts/Test1.sol\":1135:1474  contract ThirdParty {... */\n  jump(tag_7)\ntag_5:\n  dataSize(sub_1)\n  dup1\n  dataOffset(sub_1)\n  dup4\n  codecopy\n  add\n  swap1\n  jump\t// out\ntag_7:\n  dataSize(sub_0)\n  dup1\n  dataOffset(sub_0)\n  0x00\n  codecopy\n  0x00\n  return\nstop\n\nsub_0: assembly {\n        /* \"Executive_Problem/020fc6afbb603263f80b08100e158f4d49b3492a52357406cde10cbfd3593275 (1)/contracts/Test1.sol\":1135:1474  contract ThirdParty {... */\n      mstore(0x40, 0x80)\n      callvalue\n      dup1\n      iszero\n      tag_1\n      jumpi\n      0x00\n      dup1\n      revert\n    tag_1:\n      pop\n      jumpi(tag_2, lt(calldatasize, 0x04))\n      shr(0xe0, calldataload(0x00))\n      dup1\n      0xd018db3e\n      eq\n      tag_3\n      jumpi\n      dup1\n      0xf8a8fd6d\n      eq\n      tag_4\n      jumpi\n    tag_2:\n      0x00\n      dup1\n      revert\n        /* \"Executive_Problem/020fc6afbb603263f80b08100e158f4d49b3492a52357406cde10cbfd3593275 (1)/contracts/Test1.sol\":1248:1471  function attack(address _to) public {... */\n    tag_3:\n      tag_5\n      0x04\n      dup1\n      calldatasize\n      sub\n      dup2\n      add\n      swap1\n      tag_6\n      swap2\n      swap1\n      tag_7\n      jump\t// in\n    tag_6:\n      tag_8\n      jump\t// in\n    tag_5:\n      stop\n        /* \"Executive_Problem/020fc6afbb603263f80b08100e158f4d49b3492a52357406cde10cbfd3593275 (1)/contracts/Test1.sol\":1162:1180  Victim public test */\n    tag_4:\n      tag_9\n      tag_10\n      jump\t// in\n    tag_9:\n      mload(0x40)\n      tag_11\n      swap2\n      swap1\n      tag_12\n      jump\t// in\n    tag_11:\n      mload(0x40)\n      dup1\n      swap2\n      sub\n      swap1\n      return\n        /* \"Executive_Problem/020fc6afbb603263f80b08100e158f4d49b3492a52357406cde10cbfd3593275 (1)/contracts/Test1.sol\":1248:1471  function attack(address _to) public {... */\n    tag_8:\n        /* \"Executive_Problem/020fc6afbb603263f80b08100e158f4d49b3492a52357406cde10cbfd3593275 (1)/contracts/Test1.sol\":1296:1311  bool transfered */\n      0x00\n        /* \"Executive_Problem/020fc6afbb603263f80b08100e158f4d49b3492a52357406cde10cbfd3593275 (1)/contracts/Test1.sol\":1325:1328  _to */\n      dup2\n        /* \"Executive_Problem/020fc6afbb603263f80b08100e158f4d49b3492a52357406cde10cbfd3593275 (1)/contracts/Test1.sol\":1317:1334  payable(_to).call */\n      0xffffffffffffffffffffffffffffffffffffffff\n      and\n        /* \"Executive_Problem/020fc6afbb603263f80b08100e158f4d49b3492a52357406cde10cbfd3593275 (1)/contracts/Test1.sol\":1397:1400  100 */\n      0x64\n        /* \"Executive_Problem/020fc6afbb603263f80b08100e158f4d49b3492a52357406cde10cbfd3593275 (1)/contracts/Test1.sol\":1352:1401  abi.encodeWithSignature(\"changeHm(uint256)\", 100) */\n      add(0x24, mload(0x40))\n      tag_14\n      swap2\n      swap1\n      tag_15\n      jump\t// in\n    tag_14:\n      mload(0x40)\n      0x20\n      dup2\n      dup4\n      sub\n      sub\n      dup2\n      mstore\n      swap1\n      0x40\n      mstore\n      and(not(0xffffffffffffffffffffffffffffffffffffffffffffffffffffffff), 0xc7fd5cdf00000000000000000000000000000000000000000000000000000000)\n      0x20\n      dup3\n      add\n      dup1\n      mload\n      0xffffffffffffffffffffffffffffffffffffffffffffffffffffffff\n      dup4\n      dup2\n      dup4\n      and\n      or\n      dup4\n      mstore\n      pop\n      pop\n      pop\n      pop\n        /* \"Executive_Problem/020fc6afbb603263f80b08100e158f4d49b3492a52357406cde10cbfd3593275 (1)/contracts/Test1.sol\":1335:1402  abi.encodePacked(abi.encodeWithSignature(\"changeHm(uint256)\", 100)) */\n      add(0x20, mload(0x40))\n      tag_16\n      swap2\n      swap1\n      tag_17\n      jump\t// in\n    tag_16:\n      mload(0x40)\n      0x20\n      dup2\n      dup4\n      sub\n      sub\n      dup2\n      mstore\n      swap1\n      0x40\n      mstore\n        /* \"Executive_Problem/020fc6afbb603263f80b08100e158f4d49b3492a52357406cde10cbfd3593275 (1)/contracts/Test1.sol\":1317:1403  payable(_to).call(abi.encodePacked(abi.encodeWithSignature(\"changeHm(uint256)\", 100))) */\n      mload(0x40)\n      tag_18\n      swap2\n      swap1\n      tag_17\n      jump\t// in\n    tag_18:\n      0x00\n      mload(0x40)\n      dup1\n      dup4\n      sub\n      dup2\n      0x00\n      dup7\n      gas\n      call\n      swap2\n      pop\n      pop\n      returndatasize\n      dup1\n      0x00\n      dup2\n      eq\n      tag_21\n      jumpi\n      mload(0x40)\n      swap2\n      pop\n      and(add(returndatasize, 0x3f), not(0x1f))\n      dup3\n      add\n      0x40\n      mstore\n      returndatasize\n      dup3\n      mstore\n      returndatasize\n      0x00\n      0x20\n      dup5\n      add\n      returndatacopy\n      jump(tag_20)\n    tag_21:\n      0x60\n      swap2\n      pop\n    tag_20:\n      pop\n        /* \"Executive_Problem/020fc6afbb603263f80b08100e158f4d49b3492a52357406cde10cbfd3593275 (1)/contracts/Test1.sol\":1295:1403  (bool transfered, ) = payable(_to).call(abi.encodePacked(abi.encodeWithSignature(\"changeHm(uint256)\", 100))) */\n      pop\n      swap1\n      pop\n        /* \"Executive_Problem/020fc6afbb603263f80b08100e158f4d49b3492a52357406cde10cbfd3593275 (1)/contracts/Test1.sol\":1422:1432  transfered */\n      dup1\n        /* \"Executive_Problem/020fc6afbb603263f80b08100e158f4d49b3492a52357406cde10cbfd3593275 (1)/contracts/Test1.sol\":1414:1463  require(transfered, \"Failed to Transfer Credit!\") */\n      tag_22\n      jumpi\n      mload(0x40)\n      0x08c379a000000000000000000000000000000000000000000000000000000000\n      dup2\n      mstore\n      0x04\n      add\n      tag_23\n      swap1\n      tag_24\n      jump\t// in\n    tag_23:\n      mload(0x40)\n      dup1\n      swap2\n      sub\n      swap1\n      revert\n    tag_22:\n        /* \"Executive_Problem/020fc6afbb603263f80b08100e158f4d49b3492a52357406cde10cbfd3593275 (1)/contracts/Test1.sol\":1284:1471  {... */\n      pop\n        /* \"Executive_Problem/020fc6afbb603263f80b08100e158f4d49b3492a52357406cde10cbfd3593275 (1)/contracts/Test1.sol\":1248:1471  function attack(address _to) public {... */\n      pop\n      jump\t// out\n        /* \"Executive_Problem/020fc6afbb603263f80b08100e158f4d49b3492a52357406cde10cbfd3593275 (1)/contracts/Test1.sol\":1162:1180  Victim public test */\n    tag_10:\n      0x00\n      dup1\n      sload\n      swap1\n      0x0100\n      exp\n      swap1\n      div\n      0xffffffffffffffffffffffffffffffffffffffff\n      and\n      dup2\n      jump\t// out\n        /* \"#utility.yul\":88:205   */\n    tag_26:\n        /* \"#utility.yul\":197:198   */\n      0x00\n        /* \"#utility.yul\":194:195   */\n      dup1\n        /* \"#utility.yul\":187:199   */\n      revert\n        /* \"#utility.yul\":334:460   */\n    tag_28:\n        /* \"#utility.yul\":371:378   */\n      0x00\n        /* \"#utility.yul\":411:453   */\n      0xffffffffffffffffffffffffffffffffffffffff\n        /* \"#utility.yul\":404:409   */\n      dup3\n        /* \"#utility.yul\":400:454   */\n      and\n        /* \"#utility.yul\":389:454   */\n      swap1\n      pop\n        /* \"#utility.yul\":334:460   */\n      swap2\n      swap1\n      pop\n      jump\t// out\n        /* \"#utility.yul\":466:562   */\n    tag_29:\n        /* \"#utility.yul\":503:510   */\n      0x00\n        /* \"#utility.yul\":532:556   */\n      tag_54\n        /* \"#utility.yul\":550:555   */\n      dup3\n        /* \"#utility.yul\":532:556   */\n      tag_28\n      jump\t// in\n    tag_54:\n        /* \"#utility.yul\":521:556   */\n      swap1\n      pop\n        /* \"#utility.yul\":466:562   */\n      swap2\n      swap1\n      pop\n      jump\t// out\n        /* \"#utility.yul\":568:690   */\n    tag_30:\n        /* \"#utility.yul\":641:665   */\n      tag_56\n        /* \"#utility.yul\":659:664   */\n      dup2\n        /* \"#utility.yul\":641:665   */\n      tag_29\n      jump\t// in\n    tag_56:\n        /* \"#utility.yul\":634:639   */\n      dup2\n        /* \"#utility.yul\":631:666   */\n      eq\n        /* \"#utility.yul\":621:684   */\n      tag_57\n      jumpi\n        /* \"#utility.yul\":680:681   */\n      0x00\n        /* \"#utility.yul\":677:678   */\n      dup1\n        /* \"#utility.yul\":670:682   */\n      revert\n        /* \"#utility.yul\":621:684   */\n    tag_57:\n        /* \"#utility.yul\":568:690   */\n      pop\n      jump\t// out\n        /* \"#utility.yul\":696:835   */\n    tag_31:\n        /* \"#utility.yul\":742:747   */\n      0x00\n        /* \"#utility.yul\":780:786   */\n      dup2\n        /* \"#utility.yul\":767:787   */\n      calldataload\n        /* \"#utility.yul\":758:787   */\n      swap1\n      pop\n        /* \"#utility.yul\":796:829   */\n      tag_59\n        /* \"#utility.yul\":823:828   */\n      dup2\n        /* \"#utility.yul\":796:829   */\n      tag_30\n      jump\t// in\n    tag_59:\n        /* \"#utility.yul\":696:835   */\n      swap3\n      swap2\n      pop\n      pop\n      jump\t// out\n        /* \"#utility.yul\":841:1170   */\n    tag_7:\n        /* \"#utility.yul\":900:906   */\n      0x00\n        /* \"#utility.yul\":949:951   */\n      0x20\n        /* \"#utility.yul\":937:946   */\n      dup3\n        /* \"#utility.yul\":928:935   */\n      dup5\n        /* \"#utility.yul\":924:947   */\n      sub\n        /* \"#utility.yul\":920:952   */\n      slt\n        /* \"#utility.yul\":917:1036   */\n      iszero\n      tag_61\n      jumpi\n        /* \"#utility.yul\":955:1034   */\n      tag_62\n      tag_26\n      jump\t// in\n    tag_62:\n        /* \"#utility.yul\":917:1036   */\n    tag_61:\n        /* \"#utility.yul\":1075:1076   */\n      0x00\n        /* \"#utility.yul\":1100:1153   */\n      tag_63\n        /* \"#utility.yul\":1145:1152   */\n      dup5\n        /* \"#utility.yul\":1136:1142   */\n      dup3\n        /* \"#utility.yul\":1125:1134   */\n      dup6\n        /* \"#utility.yul\":1121:1143   */\n      add\n        /* \"#utility.yul\":1100:1153   */\n      tag_31\n      jump\t// in\n    tag_63:\n        /* \"#utility.yul\":1090:1153   */\n      swap2\n      pop\n        /* \"#utility.yul\":1046:1163   */\n      pop\n        /* \"#utility.yul\":841:1170   */\n      swap3\n      swap2\n      pop\n      pop\n      jump\t// out\n        /* \"#utility.yul\":1176:1236   */\n    tag_32:\n        /* \"#utility.yul\":1204:1207   */\n      0x00\n        /* \"#utility.yul\":1225:1230   */\n      dup2\n        /* \"#utility.yul\":1218:1230   */\n      swap1\n      pop\n        /* \"#utility.yul\":1176:1236   */\n      swap2\n      swap1\n      pop\n      jump\t// out\n        /* \"#utility.yul\":1242:1384   */\n    tag_33:\n        /* \"#utility.yul\":1292:1301   */\n      0x00\n        /* \"#utility.yul\":1325:1378   */\n      tag_66\n        /* \"#utility.yul\":1343:1377   */\n      tag_67\n        /* \"#utility.yul\":1352:1376   */\n      tag_68\n        /* \"#utility.yul\":1370:1375   */\n      dup5\n        /* \"#utility.yul\":1352:1376   */\n      tag_28\n      jump\t// in\n    tag_68:\n        /* \"#utility.yul\":1343:1377   */\n      tag_32\n      jump\t// in\n    tag_67:\n        /* \"#utility.yul\":1325:1378   */\n      tag_28\n      jump\t// in\n    tag_66:\n        /* \"#utility.yul\":1312:1378   */\n      swap1\n      pop\n        /* \"#utility.yul\":1242:1384   */\n      swap2\n      swap1\n      pop\n      jump\t// out\n        /* \"#utility.yul\":1390:1516   */\n    tag_34:\n        /* \"#utility.yul\":1440:1449   */\n      0x00\n        /* \"#utility.yul\":1473:1510   */\n      tag_70\n        /* \"#utility.yul\":1504:1509   */\n      dup3\n        /* \"#utility.yul\":1473:1510   */\n      tag_33\n      jump\t// in\n    tag_70:\n        /* \"#utility.yul\":1460:1510   */\n      swap1\n      pop\n        /* \"#utility.yul\":1390:1516   */\n      swap2\n      swap1\n      pop\n      jump\t// out\n        /* \"#utility.yul\":1522:1662   */\n    tag_35:\n        /* \"#utility.yul\":1586:1595   */\n      0x00\n        /* \"#utility.yul\":1619:1656   */\n      tag_72\n        /* \"#utility.yul\":1650:1655   */\n      dup3\n        /* \"#utility.yul\":1619:1656   */\n      tag_34\n      jump\t// in\n    tag_72:\n        /* \"#utility.yul\":1606:1656   */\n      swap1\n      pop\n        /* \"#utility.yul\":1522:1662   */\n      swap2\n      swap1\n      pop\n      jump\t// out\n        /* \"#utility.yul\":1668:1827   */\n    tag_36:\n        /* \"#utility.yul\":1769:1820   */\n      tag_74\n        /* \"#utility.yul\":1814:1819   */\n      dup2\n        /* \"#utility.yul\":1769:1820   */\n      tag_35\n      jump\t// in\n    tag_74:\n        /* \"#utility.yul\":1764:1767   */\n      dup3\n        /* \"#utility.yul\":1757:1821   */\n      mstore\n        /* \"#utility.yul\":1668:1827   */\n      pop\n      pop\n      jump\t// out\n        /* \"#utility.yul\":1833:2083   */\n    tag_12:\n        /* \"#utility.yul\":1940:1944   */\n      0x00\n        /* \"#utility.yul\":1978:1980   */\n      0x20\n        /* \"#utility.yul\":1967:1976   */\n      dup3\n        /* \"#utility.yul\":1963:1981   */\n      add\n        /* \"#utility.yul\":1955:1981   */\n      swap1\n      pop\n        /* \"#utility.yul\":1991:2076   */\n      tag_76\n        /* \"#utility.yul\":2073:2074   */\n      0x00\n        /* \"#utility.yul\":2062:2071   */\n      dup4\n        /* \"#utility.yul\":2058:2075   */\n      add\n        /* \"#utility.yul\":2049:2055   */\n      dup5\n        /* \"#utility.yul\":1991:2076   */\n      tag_36\n      jump\t// in\n    tag_76:\n        /* \"#utility.yul\":1833:2083   */\n      swap3\n      swap2\n      pop\n      pop\n      jump\t// out\n        /* \"#utility.yul\":2089:2176   */\n    tag_37:\n        /* \"#utility.yul\":2136:2143   */\n      0x00\n        /* \"#utility.yul\":2165:2170   */\n      dup2\n        /* \"#utility.yul\":2154:2170   */\n      swap1\n      pop\n        /* \"#utility.yul\":2089:2176   */\n      swap2\n      swap1\n      pop\n      jump\t// out\n        /* \"#utility.yul\":2182:2268   */\n    tag_38:\n        /* \"#utility.yul\":2217:2224   */\n      0x00\n        /* \"#utility.yul\":2257:2261   */\n      0xff\n        /* \"#utility.yul\":2250:2255   */\n      dup3\n        /* \"#utility.yul\":2246:2262   */\n      and\n        /* \"#utility.yul\":2235:2262   */\n      swap1\n      pop\n        /* \"#utility.yul\":2182:2268   */\n      swap2\n      swap1\n      pop\n      jump\t// out\n        /* \"#utility.yul\":2274:2432   */\n    tag_39:\n        /* \"#utility.yul\":2332:2341   */\n      0x00\n        /* \"#utility.yul\":2365:2426   */\n      tag_80\n        /* \"#utility.yul\":2381:2425   */\n      tag_81\n        /* \"#utility.yul\":2390:2424   */\n      tag_82\n        /* \"#utility.yul\":2418:2423   */\n      dup5\n        /* \"#utility.yul\":2390:2424   */\n      tag_37\n      jump\t// in\n    tag_82:\n        /* \"#utility.yul\":2381:2425   */\n      tag_32\n      jump\t// in\n    tag_81:\n        /* \"#utility.yul\":2365:2426   */\n      tag_38\n      jump\t// in\n    tag_80:\n        /* \"#utility.yul\":2352:2426   */\n      swap1\n      pop\n        /* \"#utility.yul\":2274:2432   */\n      swap2\n      swap1\n      pop\n      jump\t// out\n        /* \"#utility.yul\":2438:2585   */\n    tag_40:\n        /* \"#utility.yul\":2533:2578   */\n      tag_84\n        /* \"#utility.yul\":2572:2577   */\n      dup2\n        /* \"#utility.yul\":2533:2578   */\n      tag_39\n      jump\t// in\n    tag_84:\n        /* \"#utility.yul\":2528:2531   */\n      dup3\n        /* \"#utility.yul\":2521:2579   */\n      mstore\n        /* \"#utility.yul\":2438:2585   */\n      pop\n      pop\n      jump\t// out\n        /* \"#utility.yul\":2591:2829   */\n    tag_15:\n        /* \"#utility.yul\":2692:2696   */\n      0x00\n        /* \"#utility.yul\":2730:2732   */\n      0x20\n        /* \"#utility.yul\":2719:2728   */\n      dup3\n        /* \"#utility.yul\":2715:2733   */\n      add\n        /* \"#utility.yul\":2707:2733   */\n      swap1\n      pop\n        /* \"#utility.yul\":2743:2822   */\n      tag_86\n        /* \"#utility.yul\":2819:2820   */\n      0x00\n        /* \"#utility.yul\":2808:2817   */\n      dup4\n        /* \"#utility.yul\":2804:2821   */\n      add\n        /* \"#utility.yul\":2795:2801   */\n      dup5\n        /* \"#utility.yul\":2743:2822   */\n      tag_40\n      jump\t// in\n    tag_86:\n        /* \"#utility.yul\":2591:2829   */\n      swap3\n      swap2\n      pop\n      pop\n      jump\t// out\n        /* \"#utility.yul\":2835:2933   */\n    tag_41:\n        /* \"#utility.yul\":2886:2892   */\n      0x00\n        /* \"#utility.yul\":2920:2925   */\n      dup2\n        /* \"#utility.yul\":2914:2926   */\n      mload\n        /* \"#utility.yul\":2904:2926   */\n      swap1\n      pop\n        /* \"#utility.yul\":2835:2933   */\n      swap2\n      swap1\n      pop\n      jump\t// out\n        /* \"#utility.yul\":2939:3086   */\n    tag_42:\n        /* \"#utility.yul\":3040:3051   */\n      0x00\n        /* \"#utility.yul\":3077:3080   */\n      dup2\n        /* \"#utility.yul\":3062:3080   */\n      swap1\n      pop\n        /* \"#utility.yul\":2939:3086   */\n      swap3\n      swap2\n      pop\n      pop\n      jump\t// out\n        /* \"#utility.yul\":3092:3231   */\n    tag_43:\n        /* \"#utility.yul\":3181:3187   */\n      dup3\n        /* \"#utility.yul\":3176:3179   */\n      dup2\n        /* \"#utility.yul\":3171:3174   */\n      dup4\n        /* \"#utility.yul\":3165:3188   */\n      mcopy\n        /* \"#utility.yul\":3222:3223   */\n      0x00\n        /* \"#utility.yul\":3213:3219   */\n      dup4\n        /* \"#utility.yul\":3208:3211   */\n      dup4\n        /* \"#utility.yul\":3204:3220   */\n      add\n        /* \"#utility.yul\":3197:3224   */\n      mstore\n        /* \"#utility.yul\":3092:3231   */\n      pop\n      pop\n      pop\n      jump\t// out\n        /* \"#utility.yul\":3237:3623   */\n    tag_44:\n        /* \"#utility.yul\":3341:3344   */\n      0x00\n        /* \"#utility.yul\":3369:3407   */\n      tag_91\n        /* \"#utility.yul\":3401:3406   */\n      dup3\n        /* \"#utility.yul\":3369:3407   */\n      tag_41\n      jump\t// in\n    tag_91:\n        /* \"#utility.yul\":3423:3511   */\n      tag_92\n        /* \"#utility.yul\":3504:3510   */\n      dup2\n        /* \"#utility.yul\":3499:3502   */\n      dup6\n        /* \"#utility.yul\":3423:3511   */\n      tag_42\n      jump\t// in\n    tag_92:\n        /* \"#utility.yul\":3416:3511   */\n      swap4\n      pop\n        /* \"#utility.yul\":3520:3585   */\n      tag_93\n        /* \"#utility.yul\":3578:3584   */\n      dup2\n        /* \"#utility.yul\":3573:3576   */\n      dup6\n        /* \"#utility.yul\":3566:3570   */\n      0x20\n        /* \"#utility.yul\":3559:3564   */\n      dup7\n        /* \"#utility.yul\":3555:3571   */\n      add\n        /* \"#utility.yul\":3520:3585   */\n      tag_43\n      jump\t// in\n    tag_93:\n        /* \"#utility.yul\":3610:3616   */\n      dup1\n        /* \"#utility.yul\":3605:3608   */\n      dup5\n        /* \"#utility.yul\":3601:3617   */\n      add\n        /* \"#utility.yul\":3594:3617   */\n      swap2\n      pop\n        /* \"#utility.yul\":3345:3623   */\n      pop\n        /* \"#utility.yul\":3237:3623   */\n      swap3\n      swap2\n      pop\n      pop\n      jump\t// out\n        /* \"#utility.yul\":3629:3900   */\n    tag_17:\n        /* \"#utility.yul\":3759:3762   */\n      0x00\n        /* \"#utility.yul\":3781:3874   */\n      tag_95\n        /* \"#utility.yul\":3870:3873   */\n      dup3\n        /* \"#utility.yul\":3861:3867   */\n      dup5\n        /* \"#utility.yul\":3781:3874   */\n      tag_44\n      jump\t// in\n    tag_95:\n        /* \"#utility.yul\":3774:3874   */\n      swap2\n      pop\n        /* \"#utility.yul\":3891:3894   */\n      dup2\n        /* \"#utility.yul\":3884:3894   */\n      swap1\n      pop\n        /* \"#utility.yul\":3629:3900   */\n      swap3\n      swap2\n      pop\n      pop\n      jump\t// out\n        /* \"#utility.yul\":3906:4075   */\n    tag_45:\n        /* \"#utility.yul\":3990:4001   */\n      0x00\n        /* \"#utility.yul\":4024:4030   */\n      dup3\n        /* \"#utility.yul\":4019:4022   */\n      dup3\n        /* \"#utility.yul\":4012:4031   */\n      mstore\n        /* \"#utility.yul\":4064:4068   */\n      0x20\n        /* \"#utility.yul\":4059:4062   */\n      dup3\n        /* \"#utility.yul\":4055:4069   */\n      add\n        /* \"#utility.yul\":4040:4069   */\n      swap1\n      pop\n        /* \"#utility.yul\":3906:4075   */\n      swap3\n      swap2\n      pop\n      pop\n      jump\t// out\n        /* \"#utility.yul\":4081:4257   */\n    tag_46:\n        /* \"#utility.yul\":4221:4249   */\n      0x4661696c656420746f205472616e736665722043726564697421000000000000\n        /* \"#utility.yul\":4217:4218   */\n      0x00\n        /* \"#utility.yul\":4209:4215   */\n      dup3\n        /* \"#utility.yul\":4205:4219   */\n      add\n        /* \"#utility.yul\":4198:4250   */\n      mstore\n        /* \"#utility.yul\":4081:4257   */\n      pop\n      jump\t// out\n        /* \"#utility.yul\":4263:4629   */\n    tag_47:\n        /* \"#utility.yul\":4405:4408   */\n      0x00\n        /* \"#utility.yul\":4426:4493   */\n      tag_99\n        /* \"#utility.yul\":4490:4492   */\n      0x1a\n        /* \"#utility.yul\":4485:4488   */\n      dup4\n        /* \"#utility.yul\":4426:4493   */\n      tag_45\n      jump\t// in\n    tag_99:\n        /* \"#utility.yul\":4419:4493   */\n      swap2\n      pop\n        /* \"#utility.yul\":4502:4595   */\n      tag_100\n        /* \"#utility.yul\":4591:4594   */\n      dup3\n        /* \"#utility.yul\":4502:4595   */\n      tag_46\n      jump\t// in\n    tag_100:\n        /* \"#utility.yul\":4620:4622   */\n      0x20\n        /* \"#utility.yul\":4615:4618   */\n      dup3\n        /* \"#utility.yul\":4611:4623   */\n      add\n        /* \"#utility.yul\":4604:4623   */\n      swap1\n      pop\n        /* \"#utility.yul\":4263:4629   */\n      swap2\n      swap1\n      pop\n      jump\t// out\n        /* \"#utility.yul\":4635:5054   */\n    tag_24:\n        /* \"#utility.yul\":4801:4805   */\n      0x00\n        /* \"#utility.yul\":4839:4841   */\n      0x20\n        /* \"#utility.yul\":4828:4837   */\n      dup3\n        /* \"#utility.yul\":4824:4842   */\n      add\n        /* \"#utility.yul\":4816:4842   */\n      swap1\n      pop\n        /* \"#utility.yul\":4888:4897   */\n      dup2\n        /* \"#utility.yul\":4882:4886   */\n      dup2\n        /* \"#utility.yul\":4878:4898   */\n      sub\n        /* \"#utility.yul\":4874:4875   */\n      0x00\n        /* \"#utility.yul\":4863:4872   */\n      dup4\n        /* \"#utility.yul\":4859:4876   */\n      add\n        /* \"#utility.yul\":4852:4899   */\n      mstore\n        /* \"#utility.yul\":4916:5047   */\n      tag_102\n        /* \"#utility.yul\":5042:5046   */\n      dup2\n        /* \"#utility.yul\":4916:5047   */\n      tag_47\n      jump\t// in\n    tag_102:\n        /* \"#utility.yul\":4908:5047   */\n      swap1\n      pop\n        /* \"#utility.yul\":4635:5054   */\n      swap2\n      swap1\n      pop\n      jump\t// out\n\n    auxdata: 0xa264697066735822122098a93e037a16fac02ca83e2aa26ba0d0b23efde15355b549c99f6c5960fd619364736f6c634300081a0033\n}\n\nsub_1: assembly {\n        /* \"Executive_Problem/020fc6afbb603263f80b08100e158f4d49b3492a52357406cde10cbfd3593275 (1)/contracts/Test1.sol\":681:1131  contract Victim {... */\n      mstore(0x40, 0x80)\n        /* \"Executive_Problem/020fc6afbb603263f80b08100e158f4d49b3492a52357406cde10cbfd3593275 (1)/contracts/Test1.sol\":777:779  10 */\n      0x0a\n        /* \"Executive_Problem/020fc6afbb603263f80b08100e158f4d49b3492a52357406cde10cbfd3593275 (1)/contracts/Test1.sol\":756:779  uint256 public hmm = 10 */\n      0x02\n      sstore\n        /* \"Executive_Problem/020fc6afbb603263f80b08100e158f4d49b3492a52357406cde10cbfd3593275 (1)/contracts/Test1.sol\":874:956  constructor(){... */\n      callvalue\n      dup1\n      iszero\n      tag_1\n      jumpi\n      0x00\n      dup1\n      revert\n    tag_1:\n      pop\n        /* \"Executive_Problem/020fc6afbb603263f80b08100e158f4d49b3492a52357406cde10cbfd3593275 (1)/contracts/Test1.sol\":906:916  msg.sender */\n      caller\n        /* \"Executive_Problem/020fc6afbb603263f80b08100e158f4d49b3492a52357406cde10cbfd3593275 (1)/contracts/Test1.sol\":898:903  owner */\n      0x00\n      dup1\n        /* \"Executive_Problem/020fc6afbb603263f80b08100e158f4d49b3492a52357406cde10cbfd3593275 (1)/contracts/Test1.sol\":898:916  owner = msg.sender */\n      0x0100\n      exp\n      dup2\n      sload\n      dup2\n      0xffffffffffffffffffffffffffffffffffffffff\n      mul\n      not\n      and\n      swap1\n      dup4\n      0xffffffffffffffffffffffffffffffffffffffff\n      and\n      mul\n      or\n      swap1\n      sstore\n      pop\n        /* \"Executive_Problem/020fc6afbb603263f80b08100e158f4d49b3492a52357406cde10cbfd3593275 (1)/contracts/Test1.sol\":941:947  0x1337 */\n      0x1337\n        /* \"Executive_Problem/020fc6afbb603263f80b08100e158f4d49b3492a52357406cde10cbfd3593275 (1)/contracts/Test1.sol\":927:930  who */\n      0x01\n      0x00\n        /* \"Executive_Problem/020fc6afbb603263f80b08100e158f4d49b3492a52357406cde10cbfd3593275 (1)/contracts/Test1.sol\":927:948  who = address(0x1337) */\n      0x0100\n      exp\n      dup2\n      sload\n      dup2\n      0xffffffffffffffffffffffffffffffffffffffff\n      mul\n      not\n      and\n      swap1\n      dup4\n      0xffffffffffffffffffffffffffffffffffffffff\n      and\n      mul\n      or\n      swap1\n      sstore\n      pop\n        /* \"Executive_Problem/020fc6afbb603263f80b08100e158f4d49b3492a52357406cde10cbfd3593275 (1)/contracts/Test1.sol\":681:1131  contract Victim {... */\n      dataSize(sub_0)\n      dup1\n      dataOffset(sub_0)\n      0x00\n      codecopy\n      0x00\n      return\n    stop\n\n    sub_0: assembly {\n            /* \"Executive_Problem/020fc6afbb603263f80b08100e158f4d49b3492a52357406cde10cbfd3593275 (1)/contracts/Test1.sol\":681:1131  contract Victim {... */\n          mstore(0x40, 0x80)\n          callvalue\n          dup1\n          iszero\n          tag_1\n          jumpi\n          0x00\n          dup1\n          revert\n        tag_1:\n          pop\n          jumpi(tag_2, lt(calldatasize, 0x04))\n          shr(0xe0, calldataload(0x00))\n          dup1\n          0x693247b8\n          eq\n          tag_3\n          jumpi\n          dup1\n          0x76bc9448\n          eq\n          tag_4\n          jumpi\n          dup1\n          0x8da5cb5b\n          eq\n          tag_5\n          jumpi\n          dup1\n          0xc7fd5cdf\n          eq\n          tag_6\n          jumpi\n          dup1\n          0xd6d21dfd\n          eq\n          tag_7\n          jumpi\n        tag_2:\n          0x00\n          dup1\n          revert\n            /* \"Executive_Problem/020fc6afbb603263f80b08100e158f4d49b3492a52357406cde10cbfd3593275 (1)/contracts/Test1.sol\":756:779  uint256 public hmm = 10 */\n        tag_3:\n          tag_8\n          tag_9\n          jump\t// in\n        tag_8:\n          mload(0x40)\n          tag_10\n          swap2\n          swap1\n          tag_11\n          jump\t// in\n        tag_10:\n          mload(0x40)\n          dup1\n          swap2\n          sub\n          swap1\n          return\n            /* \"Executive_Problem/020fc6afbb603263f80b08100e158f4d49b3492a52357406cde10cbfd3593275 (1)/contracts/Test1.sol\":964:1042  function changeWho(address _new) public onlyOwner{... */\n        tag_4:\n          tag_12\n          0x04\n          dup1\n          calldatasize\n          sub\n          dup2\n          add\n          swap1\n          tag_13\n          swap2\n          swap1\n          tag_14\n          jump\t// in\n        tag_13:\n          tag_15\n          jump\t// in\n        tag_12:\n          stop\n            /* \"Executive_Problem/020fc6afbb603263f80b08100e158f4d49b3492a52357406cde10cbfd3593275 (1)/contracts/Test1.sol\":704:724  address public owner */\n        tag_5:\n          tag_16\n          tag_17\n          jump\t// in\n        tag_16:\n          mload(0x40)\n          tag_18\n          swap2\n          swap1\n          tag_19\n          jump\t// in\n        tag_18:\n          mload(0x40)\n          dup1\n          swap2\n          sub\n          swap1\n          return\n            /* \"Executive_Problem/020fc6afbb603263f80b08100e158f4d49b3492a52357406cde10cbfd3593275 (1)/contracts/Test1.sol\":1050:1128  function changeHm(uint256 _new) public onlyOwner {... */\n        tag_6:\n          tag_20\n          0x04\n          dup1\n          calldatasize\n          sub\n          dup2\n          add\n          swap1\n          tag_21\n          swap2\n          swap1\n          tag_22\n          jump\t// in\n        tag_21:\n          tag_23\n          jump\t// in\n        tag_20:\n          stop\n            /* \"Executive_Problem/020fc6afbb603263f80b08100e158f4d49b3492a52357406cde10cbfd3593275 (1)/contracts/Test1.sol\":731:749  address public who */\n        tag_7:\n          tag_24\n          tag_25\n          jump\t// in\n        tag_24:\n          mload(0x40)\n          tag_26\n          swap2\n          swap1\n          tag_19\n          jump\t// in\n        tag_26:\n          mload(0x40)\n          dup1\n          swap2\n          sub\n          swap1\n          return\n            /* \"Executive_Problem/020fc6afbb603263f80b08100e158f4d49b3492a52357406cde10cbfd3593275 (1)/contracts/Test1.sol\":756:779  uint256 public hmm = 10 */\n        tag_9:\n          sload(0x02)\n          dup2\n          jump\t// out\n            /* \"Executive_Problem/020fc6afbb603263f80b08100e158f4d49b3492a52357406cde10cbfd3593275 (1)/contracts/Test1.sol\":964:1042  function changeWho(address _new) public onlyOwner{... */\n        tag_15:\n            /* \"Executive_Problem/020fc6afbb603263f80b08100e158f4d49b3492a52357406cde10cbfd3593275 (1)/contracts/Test1.sol\":840:845  owner */\n          0x00\n          dup1\n          sload\n          swap1\n          0x0100\n          exp\n          swap1\n          div\n          0xffffffffffffffffffffffffffffffffffffffff\n          and\n            /* \"Executive_Problem/020fc6afbb603263f80b08100e158f4d49b3492a52357406cde10cbfd3593275 (1)/contracts/Test1.sol\":826:845  msg.sender == owner */\n          0xffffffffffffffffffffffffffffffffffffffff\n          and\n            /* \"Executive_Problem/020fc6afbb603263f80b08100e158f4d49b3492a52357406cde10cbfd3593275 (1)/contracts/Test1.sol\":826:836  msg.sender */\n          caller\n            /* \"Executive_Problem/020fc6afbb603263f80b08100e158f4d49b3492a52357406cde10cbfd3593275 (1)/contracts/Test1.sol\":826:845  msg.sender == owner */\n          0xffffffffffffffffffffffffffffffffffffffff\n          and\n          eq\n            /* \"Executive_Problem/020fc6afbb603263f80b08100e158f4d49b3492a52357406cde10cbfd3593275 (1)/contracts/Test1.sol\":818:846  require(msg.sender == owner) */\n          tag_28\n          jumpi\n          0x00\n          dup1\n          revert\n        tag_28:\n            /* \"Executive_Problem/020fc6afbb603263f80b08100e158f4d49b3492a52357406cde10cbfd3593275 (1)/contracts/Test1.sol\":1030:1034  _new */\n          dup1\n            /* \"Executive_Problem/020fc6afbb603263f80b08100e158f4d49b3492a52357406cde10cbfd3593275 (1)/contracts/Test1.sol\":1024:1027  who */\n          0x01\n          0x00\n            /* \"Executive_Problem/020fc6afbb603263f80b08100e158f4d49b3492a52357406cde10cbfd3593275 (1)/contracts/Test1.sol\":1024:1034  who = _new */\n          0x0100\n          exp\n          dup2\n          sload\n          dup2\n          0xffffffffffffffffffffffffffffffffffffffff\n          mul\n          not\n          and\n          swap1\n          dup4\n          0xffffffffffffffffffffffffffffffffffffffff\n          and\n          mul\n          or\n          swap1\n          sstore\n          pop\n            /* \"Executive_Problem/020fc6afbb603263f80b08100e158f4d49b3492a52357406cde10cbfd3593275 (1)/contracts/Test1.sol\":964:1042  function changeWho(address _new) public onlyOwner{... */\n          pop\n          jump\t// out\n            /* \"Executive_Problem/020fc6afbb603263f80b08100e158f4d49b3492a52357406cde10cbfd3593275 (1)/contracts/Test1.sol\":704:724  address public owner */\n        tag_17:\n          0x00\n          dup1\n          sload\n          swap1\n          0x0100\n          exp\n          swap1\n          div\n          0xffffffffffffffffffffffffffffffffffffffff\n          and\n          dup2\n          jump\t// out\n            /* \"Executive_Problem/020fc6afbb603263f80b08100e158f4d49b3492a52357406cde10cbfd3593275 (1)/contracts/Test1.sol\":1050:1128  function changeHm(uint256 _new) public onlyOwner {... */\n        tag_23:\n            /* \"Executive_Problem/020fc6afbb603263f80b08100e158f4d49b3492a52357406cde10cbfd3593275 (1)/contracts/Test1.sol\":840:845  owner */\n          0x00\n          dup1\n          sload\n          swap1\n          0x0100\n          exp\n          swap1\n          div\n          0xffffffffffffffffffffffffffffffffffffffff\n          and\n            /* \"Executive_Problem/020fc6afbb603263f80b08100e158f4d49b3492a52357406cde10cbfd3593275 (1)/contracts/Test1.sol\":826:845  msg.sender == owner */\n          0xffffffffffffffffffffffffffffffffffffffff\n          and\n            /* \"Executive_Problem/020fc6afbb603263f80b08100e158f4d49b3492a52357406cde10cbfd3593275 (1)/contracts/Test1.sol\":826:836  msg.sender */\n          caller\n            /* \"Executive_Problem/020fc6afbb603263f80b08100e158f4d49b3492a52357406cde10cbfd3593275 (1)/contracts/Test1.sol\":826:845  msg.sender == owner */\n          0xffffffffffffffffffffffffffffffffffffffff\n          and\n          eq\n            /* \"Executive_Problem/020fc6afbb603263f80b08100e158f4d49b3492a52357406cde10cbfd3593275 (1)/contracts/Test1.sol\":818:846  require(msg.sender == owner) */\n          tag_31\n          jumpi\n          0x00\n          dup1\n          revert\n        tag_31:\n            /* \"Executive_Problem/020fc6afbb603263f80b08100e158f4d49b3492a52357406cde10cbfd3593275 (1)/contracts/Test1.sol\":1116:1120  _new */\n          dup1\n            /* \"Executive_Problem/020fc6afbb603263f80b08100e158f4d49b3492a52357406cde10cbfd3593275 (1)/contracts/Test1.sol\":1110:1113  hmm */\n          0x02\n            /* \"Executive_Problem/020fc6afbb603263f80b08100e158f4d49b3492a52357406cde10cbfd3593275 (1)/contracts/Test1.sol\":1110:1120  hmm = _new */\n          dup2\n          swap1\n          sstore\n          pop\n            /* \"Executive_Problem/020fc6afbb603263f80b08100e158f4d49b3492a52357406cde10cbfd3593275 (1)/contracts/Test1.sol\":1050:1128  function changeHm(uint256 _new) public onlyOwner {... */\n          pop\n          jump\t// out\n            /* \"Executive_Problem/020fc6afbb603263f80b08100e158f4d49b3492a52357406cde10cbfd3593275 (1)/contracts/Test1.sol\":731:749  address public who */\n        tag_25:\n          0x01\n          0x00\n          swap1\n          sload\n          swap1\n          0x0100\n          exp\n          swap1\n          div\n          0xffffffffffffffffffffffffffffffffffffffff\n          and\n          dup2\n          jump\t// out\n            /* \"#utility.yul\":7:84   */\n        tag_33:\n            /* \"#utility.yul\":44:51   */\n          0x00\n            /* \"#utility.yul\":73:78   */\n          dup2\n            /* \"#utility.yul\":62:78   */\n          swap1\n          pop\n            /* \"#utility.yul\":7:84   */\n          swap2\n          swap1\n          pop\n          jump\t// out\n            /* \"#utility.yul\":90:208   */\n        tag_34:\n            /* \"#utility.yul\":177:201   */\n          tag_48\n            /* \"#utility.yul\":195:200   */\n          dup2\n            /* \"#utility.yul\":177:201   */\n          tag_33\n          jump\t// in\n        tag_48:\n            /* \"#utility.yul\":172:175   */\n          dup3\n            /* \"#utility.yul\":165:202   */\n          mstore\n            /* \"#utility.yul\":90:208   */\n          pop\n          pop\n          jump\t// out\n            /* \"#utility.yul\":214:436   */\n        tag_11:\n            /* \"#utility.yul\":307:311   */\n          0x00\n            /* \"#utility.yul\":345:347   */\n          0x20\n            /* \"#utility.yul\":334:343   */\n          dup3\n            /* \"#utility.yul\":330:348   */\n          add\n            /* \"#utility.yul\":322:348   */\n          swap1\n          pop\n            /* \"#utility.yul\":358:429   */\n          tag_50\n            /* \"#utility.yul\":426:427   */\n          0x00\n            /* \"#utility.yul\":415:424   */\n          dup4\n            /* \"#utility.yul\":411:428   */\n          add\n            /* \"#utility.yul\":402:408   */\n          dup5\n            /* \"#utility.yul\":358:429   */\n          tag_34\n          jump\t// in\n        tag_50:\n            /* \"#utility.yul\":214:436   */\n          swap3\n          swap2\n          pop\n          pop\n          jump\t// out\n            /* \"#utility.yul\":523:640   */\n        tag_36:\n            /* \"#utility.yul\":632:633   */\n          0x00\n            /* \"#utility.yul\":629:630   */\n          dup1\n            /* \"#utility.yul\":622:634   */\n          revert\n            /* \"#utility.yul\":769:895   */\n        tag_38:\n            /* \"#utility.yul\":806:813   */\n          0x00\n            /* \"#utility.yul\":846:888   */\n          0xffffffffffffffffffffffffffffffffffffffff\n            /* \"#utility.yul\":839:844   */\n          dup3\n            /* \"#utility.yul\":835:889   */\n          and\n            /* \"#utility.yul\":824:889   */\n          swap1\n          pop\n            /* \"#utility.yul\":769:895   */\n          swap2\n          swap1\n          pop\n          jump\t// out\n            /* \"#utility.yul\":901:997   */\n        tag_39:\n            /* \"#utility.yul\":938:945   */\n          0x00\n            /* \"#utility.yul\":967:991   */\n          tag_56\n            /* \"#utility.yul\":985:990   */\n          dup3\n            /* \"#utility.yul\":967:991   */\n          tag_38\n          jump\t// in\n        tag_56:\n            /* \"#utility.yul\":956:991   */\n          swap1\n          pop\n            /* \"#utility.yul\":901:997   */\n          swap2\n          swap1\n          pop\n          jump\t// out\n            /* \"#utility.yul\":1003:1125   */\n        tag_40:\n            /* \"#utility.yul\":1076:1100   */\n          tag_58\n            /* \"#utility.yul\":1094:1099   */\n          dup2\n            /* \"#utility.yul\":1076:1100   */\n          tag_39\n          jump\t// in\n        tag_58:\n            /* \"#utility.yul\":1069:1074   */\n          dup2\n            /* \"#utility.yul\":1066:1101   */\n          eq\n            /* \"#utility.yul\":1056:1119   */\n          tag_59\n          jumpi\n            /* \"#utility.yul\":1115:1116   */\n          0x00\n            /* \"#utility.yul\":1112:1113   */\n          dup1\n            /* \"#utility.yul\":1105:1117   */\n          revert\n            /* \"#utility.yul\":1056:1119   */\n        tag_59:\n            /* \"#utility.yul\":1003:1125   */\n          pop\n          jump\t// out\n            /* \"#utility.yul\":1131:1270   */\n        tag_41:\n            /* \"#utility.yul\":1177:1182   */\n          0x00\n            /* \"#utility.yul\":1215:1221   */\n          dup2\n            /* \"#utility.yul\":1202:1222   */\n          calldataload\n            /* \"#utility.yul\":1193:1222   */\n          swap1\n          pop\n            /* \"#utility.yul\":1231:1264   */\n          tag_61\n            /* \"#utility.yul\":1258:1263   */\n          dup2\n            /* \"#utility.yul\":1231:1264   */\n          tag_40\n          jump\t// in\n        tag_61:\n            /* \"#utility.yul\":1131:1270   */\n          swap3\n          swap2\n          pop\n          pop\n          jump\t// out\n            /* \"#utility.yul\":1276:1605   */\n        tag_14:\n            /* \"#utility.yul\":1335:1341   */\n          0x00\n            /* \"#utility.yul\":1384:1386   */\n          0x20\n            /* \"#utility.yul\":1372:1381   */\n          dup3\n            /* \"#utility.yul\":1363:1370   */\n          dup5\n            /* \"#utility.yul\":1359:1382   */\n          sub\n            /* \"#utility.yul\":1355:1387   */\n          slt\n            /* \"#utility.yul\":1352:1471   */\n          iszero\n          tag_63\n          jumpi\n            /* \"#utility.yul\":1390:1469   */\n          tag_64\n          tag_36\n          jump\t// in\n        tag_64:\n            /* \"#utility.yul\":1352:1471   */\n        tag_63:\n            /* \"#utility.yul\":1510:1511   */\n          0x00\n            /* \"#utility.yul\":1535:1588   */\n          tag_65\n            /* \"#utility.yul\":1580:1587   */\n          dup5\n            /* \"#utility.yul\":1571:1577   */\n          dup3\n            /* \"#utility.yul\":1560:1569   */\n          dup6\n            /* \"#utility.yul\":1556:1578   */\n          add\n            /* \"#utility.yul\":1535:1588   */\n          tag_41\n          jump\t// in\n        tag_65:\n            /* \"#utility.yul\":1525:1588   */\n          swap2\n          pop\n            /* \"#utility.yul\":1481:1598   */\n          pop\n            /* \"#utility.yul\":1276:1605   */\n          swap3\n          swap2\n          pop\n          pop\n          jump\t// out\n            /* \"#utility.yul\":1611:1729   */\n        tag_42:\n            /* \"#utility.yul\":1698:1722   */\n          tag_67\n            /* \"#utility.yul\":1716:1721   */\n          dup2\n            /* \"#utility.yul\":1698:1722   */\n          tag_39\n          jump\t// in\n        tag_67:\n            /* \"#utility.yul\":1693:1696   */\n          dup3\n            /* \"#utility.yul\":1686:1723   */\n          mstore\n            /* \"#utility.yul\":1611:1729   */\n          pop\n          pop\n          jump\t// out\n            /* \"#utility.yul\":1735:1957   */\n        tag_19:\n            /* \"#utility.yul\":1828:1832   */\n          0x00\n            /* \"#utility.yul\":1866:1868   */\n          0x20\n            /* \"#utility.yul\":1855:1864   */\n          dup3\n            /* \"#utility.yul\":1851:1869   */\n          add\n            /* \"#utility.yul\":1843:1869   */\n          swap1\n          pop\n            /* \"#utility.yul\":1879:1950   */\n          tag_69\n            /* \"#utility.yul\":1947:1948   */\n          0x00\n            /* \"#utility.yul\":1936:1945   */\n          dup4\n            /* \"#utility.yul\":1932:1949   */\n          add\n            /* \"#utility.yul\":1923:1929   */\n          dup5\n            /* \"#utility.yul\":1879:1950   */\n          tag_42\n          jump\t// in\n        tag_69:\n            /* \"#utility.yul\":1735:1957   */\n          swap3\n          swap2\n          pop\n          pop\n          jump\t// out\n            /* \"#utility.yul\":1963:2085   */\n        tag_43:\n            /* \"#utility.yul\":2036:2060   */\n          tag_71\n            /* \"#utility.yul\":2054:2059   */\n          dup2\n            /* \"#utility.yul\":2036:2060   */\n          tag_33\n          jump\t// in\n        tag_71:\n            /* \"#utility.yul\":2029:2034   */\n          dup2\n            /* \"#utility.yul\":2026:2061   */\n          eq\n            /* \"#utility.yul\":2016:2079   */\n          tag_72\n          jumpi\n            /* \"#utility.yul\":2075:2076   */\n          0x00\n            /* \"#utility.yul\":2072:2073   */\n          dup1\n            /* \"#utility.yul\":2065:2077   */\n          revert\n            /* \"#utility.yul\":2016:2079   */\n        tag_72:\n            /* \"#utility.yul\":1963:2085   */\n          pop\n          jump\t// out\n            /* \"#utility.yul\":2091:2230   */\n        tag_44:\n            /* \"#utility.yul\":2137:2142   */\n          0x00\n            /* \"#utility.yul\":2175:2181   */\n          dup2\n            /* \"#utility.yul\":2162:2182   */\n          calldataload\n            /* \"#utility.yul\":2153:2182   */\n          swap1\n          pop\n            /* \"#utility.yul\":2191:2224   */\n          tag_74\n            /* \"#utility.yul\":2218:2223   */\n          dup2\n            /* \"#utility.yul\":2191:2224   */\n          tag_43\n          jump\t// in\n        tag_74:\n            /* \"#utility.yul\":2091:2230   */\n          swap3\n          swap2\n          pop\n          pop\n          jump\t// out\n            /* \"#utility.yul\":2236:2565   */\n        tag_22:\n            /* \"#utility.yul\":2295:2301   */\n          0x00\n            /* \"#utility.yul\":2344:2346   */\n          0x20\n            /* \"#utility.yul\":2332:2341   */\n          dup3\n            /* \"#utility.yul\":2323:2330   */\n          dup5\n            /* \"#utility.yul\":2319:2342   */\n          sub\n            /* \"#utility.yul\":2315:2347   */\n          slt\n            /* \"#utility.yul\":2312:2431   */\n          iszero\n          tag_76\n          jumpi\n            /* \"#utility.yul\":2350:2429   */\n          tag_77\n          tag_36\n          jump\t// in\n        tag_77:\n            /* \"#utility.yul\":2312:2431   */\n        tag_76:\n            /* \"#utility.yul\":2470:2471   */\n          0x00\n            /* \"#utility.yul\":2495:2548   */\n          tag_78\n            /* \"#utility.yul\":2540:2547   */\n          dup5\n            /* \"#utility.yul\":2531:2537   */\n          dup3\n            /* \"#utility.yul\":2520:2529   */\n          dup6\n            /* \"#utility.yul\":2516:2538   */\n          add\n            /* \"#utility.yul\":2495:2548   */\n          tag_44\n          jump\t// in\n        tag_78:\n            /* \"#utility.yul\":2485:2548   */\n          swap2\n          pop\n            /* \"#utility.yul\":2441:2558   */\n          pop\n            /* \"#utility.yul\":2236:2565   */\n          swap3\n          swap2\n          pop\n          pop\n          jump\t// out\n\n        auxdata: 0xa2646970667358221220e26a8573d7de18ddbb54fb518905003e4c6bd9509a02d5b0b003d9036a31998e64736f6c634300081a0033\n    }\n}\n",
				"bytecode": {
					"linkReferences": {},
					"object": "6080604052348015600e575f80fd5b506040516019906074565b604051809103905ff0801580156031573d5f803e3d5ffd5b505f806101000a81548173ffffffffffffffffffffffffffffffffffffffff021916908373ffffffffffffffffffffffffffffffffffffffff1602179055506081565b610441806104ed83390190565b61045f8061008e5f395ff3fe608060405234801561000f575f80fd5b5060043610610034575f3560e01c8063d018db3e14610038578063f8a8fd6d14610054575b5f80fd5b610052600480360381019061004d919061024c565b610072565b005b61005c6101cb565b60405161006991906102d2565b60405180910390f35b5f8173ffffffffffffffffffffffffffffffffffffffff16606460405160240161009c9190610330565b6040516020818303038152906040527fc7fd5cdf000000000000000000000000000000000000000000000000000000007bffffffffffffffffffffffffffffffffffffffffffffffffffffffff19166020820180517bffffffffffffffffffffffffffffffffffffffffffffffffffffffff8381831617835250505050604051602001610129919061039b565b604051602081830303815290604052604051610145919061039b565b5f604051808303815f865af19150503d805f811461017e576040519150601f19603f3d011682016040523d82523d5f602084013e610183565b606091505b50509050806101c7576040517f08c379a00000000000000000000000000000000000000000000000000000000081526004016101be9061040b565b60405180910390fd5b5050565b5f8054906101000a900473ffffffffffffffffffffffffffffffffffffffff1681565b5f80fd5b5f73ffffffffffffffffffffffffffffffffffffffff82169050919050565b5f61021b826101f2565b9050919050565b61022b81610211565b8114610235575f80fd5b50565b5f8135905061024681610222565b92915050565b5f60208284031215610261576102606101ee565b5b5f61026e84828501610238565b91505092915050565b5f819050919050565b5f61029a610295610290846101f2565b610277565b6101f2565b9050919050565b5f6102ab82610280565b9050919050565b5f6102bc826102a1565b9050919050565b6102cc816102b2565b82525050565b5f6020820190506102e55f8301846102c3565b92915050565b5f819050919050565b5f60ff82169050919050565b5f61031a610315610310846102eb565b610277565b6102f4565b9050919050565b61032a81610300565b82525050565b5f6020820190506103435f830184610321565b92915050565b5f81519050919050565b5f81905092915050565b8281835e5f83830152505050565b5f61037582610349565b61037f8185610353565b935061038f81856020860161035d565b80840191505092915050565b5f6103a6828461036b565b915081905092915050565b5f82825260208201905092915050565b7f4661696c656420746f205472616e7366657220437265646974210000000000005f82015250565b5f6103f5601a836103b1565b9150610400826103c1565b602082019050919050565b5f6020820190508181035f830152610422816103e9565b905091905056fea264697066735822122098a93e037a16fac02ca83e2aa26ba0d0b23efde15355b549c99f6c5960fd619364736f6c634300081a00336080604052600a6002553480156013575f80fd5b50335f806101000a81548173ffffffffffffffffffffffffffffffffffffffff021916908373ffffffffffffffffffffffffffffffffffffffff16021790555061133760015f6101000a81548173ffffffffffffffffffffffffffffffffffffffff021916908373ffffffffffffffffffffffffffffffffffffffff16021790555061039f806100a25f395ff3fe608060405234801561000f575f80fd5b5060043610610055575f3560e01c8063693247b81461005957806376bc9448146100775780638da5cb5b14610093578063c7fd5cdf146100b1578063d6d21dfd146100cd575b5f80fd5b6100616100eb565b60405161006e919061024a565b60405180910390f35b610091600480360381019061008c91906102c1565b6100f1565b005b61009b61018a565b6040516100a891906102fb565b60405180910390f35b6100cb60048036038101906100c6919061033e565b6101ad565b005b6100d561020d565b6040516100e291906102fb565b60405180910390f35b60025481565b5f8054906101000a900473ffffffffffffffffffffffffffffffffffffffff1673ffffffffffffffffffffffffffffffffffffffff163373ffffffffffffffffffffffffffffffffffffffff1614610147575f80fd5b8060015f6101000a81548173ffffffffffffffffffffffffffffffffffffffff021916908373ffffffffffffffffffffffffffffffffffffffff16021790555050565b5f8054906101000a900473ffffffffffffffffffffffffffffffffffffffff1681565b5f8054906101000a900473ffffffffffffffffffffffffffffffffffffffff1673ffffffffffffffffffffffffffffffffffffffff163373ffffffffffffffffffffffffffffffffffffffff1614610203575f80fd5b8060028190555050565b60015f9054906101000a900473ffffffffffffffffffffffffffffffffffffffff1681565b5f819050919050565b61024481610232565b82525050565b5f60208201905061025d5f83018461023b565b92915050565b5f80fd5b5f73ffffffffffffffffffffffffffffffffffffffff82169050919050565b5f61029082610267565b9050919050565b6102a081610286565b81146102aa575f80fd5b50565b5f813590506102bb81610297565b92915050565b5f602082840312156102d6576102d5610263565b5b5f6102e3848285016102ad565b91505092915050565b6102f581610286565b82525050565b5f60208201905061030e5f8301846102ec565b92915050565b61031d81610232565b8114610327575f80fd5b50565b5f8135905061033881610314565b92915050565b5f6020828403121561035357610352610263565b5b5f6103608482850161032a565b9150509291505056fea2646970667358221220e26a8573d7de18ddbb54fb518905003e4c6bd9509a02d5b0b003d9036a31998e64736f6c634300081a0033",
					"opcodes": "PUSH1 0x80 PUSH1 0x40 MSTORE CALLVALUE DUP1 ISZERO PUSH1 0xE JUMPI PUSH0 DUP1 REVERT JUMPDEST POP PUSH1 0x40 MLOAD PUSH1 0x19 SWAP1 PUSH1 0x74 JUMP JUMPDEST PUSH1 0x40 MLOAD DUP1 SWAP2 SUB SWAP1 PUSH0 CREATE DUP1 ISZERO DUP1 ISZERO PUSH1 0x31 JUMPI RETURNDATASIZE PUSH0 DUP1 RETURNDATACOPY RETURNDATASIZE PUSH0 REVERT JUMPDEST POP PUSH0 DUP1 PUSH2 0x100 EXP DUP2 SLOAD DUP2 PUSH20 0xFFFFFFFFFFFFFFFFFFFFFFFFFFFFFFFFFFFFFFFF MUL NOT AND SWAP1 DUP4 PUSH20 0xFFFFFFFFFFFFFFFFFFFFFFFFFFFFFFFFFFFFFFFF AND MUL OR SWAP1 SSTORE POP PUSH1 0x81 JUMP JUMPDEST PUSH2 0x441 DUP1 PUSH2 0x4ED DUP4 CODECOPY ADD SWAP1 JUMP JUMPDEST PUSH2 0x45F DUP1 PUSH2 0x8E PUSH0 CODECOPY PUSH0 RETURN INVALID PUSH1 0x80 PUSH1 0x40 MSTORE CALLVALUE DUP1 ISZERO PUSH2 0xF JUMPI PUSH0 DUP1 REVERT JUMPDEST POP PUSH1 0x4 CALLDATASIZE LT PUSH2 0x34 JUMPI PUSH0 CALLDATALOAD PUSH1 0xE0 SHR DUP1 PUSH4 0xD018DB3E EQ PUSH2 0x38 JUMPI DUP1 PUSH4 0xF8A8FD6D EQ PUSH2 0x54 JUMPI JUMPDEST PUSH0 DUP1 REVERT JUMPDEST PUSH2 0x52 PUSH1 0x4 DUP1 CALLDATASIZE SUB DUP2 ADD SWAP1 PUSH2 0x4D SWAP2 SWAP1 PUSH2 0x24C JUMP JUMPDEST PUSH2 0x72 JUMP JUMPDEST STOP JUMPDEST PUSH2 0x5C PUSH2 0x1CB JUMP JUMPDEST PUSH1 0x40 MLOAD PUSH2 0x69 SWAP2 SWAP1 PUSH2 0x2D2 JUMP JUMPDEST PUSH1 0x40 MLOAD DUP1 SWAP2 SUB SWAP1 RETURN JUMPDEST PUSH0 DUP2 PUSH20 0xFFFFFFFFFFFFFFFFFFFFFFFFFFFFFFFFFFFFFFFF AND PUSH1 0x64 PUSH1 0x40 MLOAD PUSH1 0x24 ADD PUSH2 0x9C SWAP2 SWAP1 PUSH2 0x330 JUMP JUMPDEST PUSH1 0x40 MLOAD PUSH1 0x20 DUP2 DUP4 SUB SUB DUP2 MSTORE SWAP1 PUSH1 0x40 MSTORE PUSH32 0xC7FD5CDF00000000000000000000000000000000000000000000000000000000 PUSH28 0xFFFFFFFFFFFFFFFFFFFFFFFFFFFFFFFFFFFFFFFFFFFFFFFFFFFFFFFF NOT AND PUSH1 0x20 DUP3 ADD DUP1 MLOAD PUSH28 0xFFFFFFFFFFFFFFFFFFFFFFFFFFFFFFFFFFFFFFFFFFFFFFFFFFFFFFFF DUP4 DUP2 DUP4 AND OR DUP4 MSTORE POP POP POP POP PUSH1 0x40 MLOAD PUSH1 0x20 ADD PUSH2 0x129 SWAP2 SWAP1 PUSH2 0x39B JUMP JUMPDEST PUSH1 0x40 MLOAD PUSH1 0x20 DUP2 DUP4 SUB SUB DUP2 MSTORE SWAP1 PUSH1 0x40 MSTORE PUSH1 0x40 MLOAD PUSH2 0x145 SWAP2 SWAP1 PUSH2 0x39B JUMP JUMPDEST PUSH0 PUSH1 0x40 MLOAD DUP1 DUP4 SUB DUP2 PUSH0 DUP7 GAS CALL SWAP2 POP POP RETURNDATASIZE DUP1 PUSH0 DUP2 EQ PUSH2 0x17E JUMPI PUSH1 0x40 MLOAD SWAP2 POP PUSH1 0x1F NOT PUSH1 0x3F RETURNDATASIZE ADD AND DUP3 ADD PUSH1 0x40 MSTORE RETURNDATASIZE DUP3 MSTORE RETURNDATASIZE PUSH0 PUSH1 0x20 DUP5 ADD RETURNDATACOPY PUSH2 0x183 JUMP JUMPDEST PUSH1 0x60 SWAP2 POP JUMPDEST POP POP SWAP1 POP DUP1 PUSH2 0x1C7 JUMPI PUSH1 0x40 MLOAD PUSH32 0x8C379A000000000000000000000000000000000000000000000000000000000 DUP2 MSTORE PUSH1 0x4 ADD PUSH2 0x1BE SWAP1 PUSH2 0x40B JUMP JUMPDEST PUSH1 0x40 MLOAD DUP1 SWAP2 SUB SWAP1 REVERT JUMPDEST POP POP JUMP JUMPDEST PUSH0 DUP1 SLOAD SWAP1 PUSH2 0x100 EXP SWAP1 DIV PUSH20 0xFFFFFFFFFFFFFFFFFFFFFFFFFFFFFFFFFFFFFFFF AND DUP2 JUMP JUMPDEST PUSH0 DUP1 REVERT JUMPDEST PUSH0 PUSH20 0xFFFFFFFFFFFFFFFFFFFFFFFFFFFFFFFFFFFFFFFF DUP3 AND SWAP1 POP SWAP2 SWAP1 POP JUMP JUMPDEST PUSH0 PUSH2 0x21B DUP3 PUSH2 0x1F2 JUMP JUMPDEST SWAP1 POP SWAP2 SWAP1 POP JUMP JUMPDEST PUSH2 0x22B DUP2 PUSH2 0x211 JUMP JUMPDEST DUP2 EQ PUSH2 0x235 JUMPI PUSH0 DUP1 REVERT JUMPDEST POP JUMP JUMPDEST PUSH0 DUP2 CALLDATALOAD SWAP1 POP PUSH2 0x246 DUP2 PUSH2 0x222 JUMP JUMPDEST SWAP3 SWAP2 POP POP JUMP JUMPDEST PUSH0 PUSH1 0x20 DUP3 DUP5 SUB SLT ISZERO PUSH2 0x261 JUMPI PUSH2 0x260 PUSH2 0x1EE JUMP JUMPDEST JUMPDEST PUSH0 PUSH2 0x26E DUP5 DUP3 DUP6 ADD PUSH2 0x238 JUMP JUMPDEST SWAP2 POP POP SWAP3 SWAP2 POP POP JUMP JUMPDEST PUSH0 DUP2 SWAP1 POP SWAP2 SWAP1 POP JUMP JUMPDEST PUSH0 PUSH2 0x29A PUSH2 0x295 PUSH2 0x290 DUP5 PUSH2 0x1F2 JUMP JUMPDEST PUSH2 0x277 JUMP JUMPDEST PUSH2 0x1F2 JUMP JUMPDEST SWAP1 POP SWAP2 SWAP1 POP JUMP JUMPDEST PUSH0 PUSH2 0x2AB DUP3 PUSH2 0x280 JUMP JUMPDEST SWAP1 POP SWAP2 SWAP1 POP JUMP JUMPDEST PUSH0 PUSH2 0x2BC DUP3 PUSH2 0x2A1 JUMP JUMPDEST SWAP1 POP SWAP2 SWAP1 POP JUMP JUMPDEST PUSH2 0x2CC DUP2 PUSH2 0x2B2 JUMP JUMPDEST DUP3 MSTORE POP POP JUMP JUMPDEST PUSH0 PUSH1 0x20 DUP3 ADD SWAP1 POP PUSH2 0x2E5 PUSH0 DUP4 ADD DUP5 PUSH2 0x2C3 JUMP JUMPDEST SWAP3 SWAP2 POP POP JUMP JUMPDEST PUSH0 DUP2 SWAP1 POP SWAP2 SWAP1 POP JUMP JUMPDEST PUSH0 PUSH1 0xFF DUP3 AND SWAP1 POP SWAP2 SWAP1 POP JUMP JUMPDEST PUSH0 PUSH2 0x31A PUSH2 0x315 PUSH2 0x310 DUP5 PUSH2 0x2EB JUMP JUMPDEST PUSH2 0x277 JUMP JUMPDEST PUSH2 0x2F4 JUMP JUMPDEST SWAP1 POP SWAP2 SWAP1 POP JUMP JUMPDEST PUSH2 0x32A DUP2 PUSH2 0x300 JUMP JUMPDEST DUP3 MSTORE POP POP JUMP JUMPDEST PUSH0 PUSH1 0x20 DUP3 ADD SWAP1 POP PUSH2 0x343 PUSH0 DUP4 ADD DUP5 PUSH2 0x321 JUMP JUMPDEST SWAP3 SWAP2 POP POP JUMP JUMPDEST PUSH0 DUP2 MLOAD SWAP1 POP SWAP2 SWAP1 POP JUMP JUMPDEST PUSH0 DUP2 SWAP1 POP SWAP3 SWAP2 POP POP JUMP JUMPDEST DUP3 DUP2 DUP4 MCOPY PUSH0 DUP4 DUP4 ADD MSTORE POP POP POP JUMP JUMPDEST PUSH0 PUSH2 0x375 DUP3 PUSH2 0x349 JUMP JUMPDEST PUSH2 0x37F DUP2 DUP6 PUSH2 0x353 JUMP JUMPDEST SWAP4 POP PUSH2 0x38F DUP2 DUP6 PUSH1 0x20 DUP7 ADD PUSH2 0x35D JUMP JUMPDEST DUP1 DUP5 ADD SWAP2 POP POP SWAP3 SWAP2 POP POP JUMP JUMPDEST PUSH0 PUSH2 0x3A6 DUP3 DUP5 PUSH2 0x36B JUMP JUMPDEST SWAP2 POP DUP2 SWAP1 POP SWAP3 SWAP2 POP POP JUMP JUMPDEST PUSH0 DUP3 DUP3 MSTORE PUSH1 0x20 DUP3 ADD SWAP1 POP SWAP3 SWAP2 POP POP JUMP JUMPDEST PUSH32 0x4661696C656420746F205472616E736665722043726564697421000000000000 PUSH0 DUP3 ADD MSTORE POP JUMP JUMPDEST PUSH0 PUSH2 0x3F5 PUSH1 0x1A DUP4 PUSH2 0x3B1 JUMP JUMPDEST SWAP2 POP PUSH2 0x400 DUP3 PUSH2 0x3C1 JUMP JUMPDEST PUSH1 0x20 DUP3 ADD SWAP1 POP SWAP2 SWAP1 POP JUMP JUMPDEST PUSH0 PUSH1 0x20 DUP3 ADD SWAP1 POP DUP2 DUP2 SUB PUSH0 DUP4 ADD MSTORE PUSH2 0x422 DUP2 PUSH2 0x3E9 JUMP JUMPDEST SWAP1 POP SWAP2 SWAP1 POP JUMP INVALID LOG2 PUSH5 0x6970667358 0x22 SLT KECCAK256 SWAP9 0xA9 RETURNDATACOPY SUB PUSH27 0x16FAC02CA83E2AA26BA0D0B23EFDE15355B549C99F6C5960FD6193 PUSH5 0x736F6C6343 STOP ADDMOD BYTE STOP CALLER PUSH1 0x80 PUSH1 0x40 MSTORE PUSH1 0xA PUSH1 0x2 SSTORE CALLVALUE DUP1 ISZERO PUSH1 0x13 JUMPI PUSH0 DUP1 REVERT JUMPDEST POP CALLER PUSH0 DUP1 PUSH2 0x100 EXP DUP2 SLOAD DUP2 PUSH20 0xFFFFFFFFFFFFFFFFFFFFFFFFFFFFFFFFFFFFFFFF MUL NOT AND SWAP1 DUP4 PUSH20 0xFFFFFFFFFFFFFFFFFFFFFFFFFFFFFFFFFFFFFFFF AND MUL OR SWAP1 SSTORE POP PUSH2 0x1337 PUSH1 0x1 PUSH0 PUSH2 0x100 EXP DUP2 SLOAD DUP2 PUSH20 0xFFFFFFFFFFFFFFFFFFFFFFFFFFFFFFFFFFFFFFFF MUL NOT AND SWAP1 DUP4 PUSH20 0xFFFFFFFFFFFFFFFFFFFFFFFFFFFFFFFFFFFFFFFF AND MUL OR SWAP1 SSTORE POP PUSH2 0x39F DUP1 PUSH2 0xA2 PUSH0 CODECOPY PUSH0 RETURN INVALID PUSH1 0x80 PUSH1 0x40 MSTORE CALLVALUE DUP1 ISZERO PUSH2 0xF JUMPI PUSH0 DUP1 REVERT JUMPDEST POP PUSH1 0x4 CALLDATASIZE LT PUSH2 0x55 JUMPI PUSH0 CALLDATALOAD PUSH1 0xE0 SHR DUP1 PUSH4 0x693247B8 EQ PUSH2 0x59 JUMPI DUP1 PUSH4 0x76BC9448 EQ PUSH2 0x77 JUMPI DUP1 PUSH4 0x8DA5CB5B EQ PUSH2 0x93 JUMPI DUP1 PUSH4 0xC7FD5CDF EQ PUSH2 0xB1 JUMPI DUP1 PUSH4 0xD6D21DFD EQ PUSH2 0xCD JUMPI JUMPDEST PUSH0 DUP1 REVERT JUMPDEST PUSH2 0x61 PUSH2 0xEB JUMP JUMPDEST PUSH1 0x40 MLOAD PUSH2 0x6E SWAP2 SWAP1 PUSH2 0x24A JUMP JUMPDEST PUSH1 0x40 MLOAD DUP1 SWAP2 SUB SWAP1 RETURN JUMPDEST PUSH2 0x91 PUSH1 0x4 DUP1 CALLDATASIZE SUB DUP2 ADD SWAP1 PUSH2 0x8C SWAP2 SWAP1 PUSH2 0x2C1 JUMP JUMPDEST PUSH2 0xF1 JUMP JUMPDEST STOP JUMPDEST PUSH2 0x9B PUSH2 0x18A JUMP JUMPDEST PUSH1 0x40 MLOAD PUSH2 0xA8 SWAP2 SWAP1 PUSH2 0x2FB JUMP JUMPDEST PUSH1 0x40 MLOAD DUP1 SWAP2 SUB SWAP1 RETURN JUMPDEST PUSH2 0xCB PUSH1 0x4 DUP1 CALLDATASIZE SUB DUP2 ADD SWAP1 PUSH2 0xC6 SWAP2 SWAP1 PUSH2 0x33E JUMP JUMPDEST PUSH2 0x1AD JUMP JUMPDEST STOP JUMPDEST PUSH2 0xD5 PUSH2 0x20D JUMP JUMPDEST PUSH1 0x40 MLOAD PUSH2 0xE2 SWAP2 SWAP1 PUSH2 0x2FB JUMP JUMPDEST PUSH1 0x40 MLOAD DUP1 SWAP2 SUB SWAP1 RETURN JUMPDEST PUSH1 0x2 SLOAD DUP2 JUMP JUMPDEST PUSH0 DUP1 SLOAD SWAP1 PUSH2 0x100 EXP SWAP1 DIV PUSH20 0xFFFFFFFFFFFFFFFFFFFFFFFFFFFFFFFFFFFFFFFF AND PUSH20 0xFFFFFFFFFFFFFFFFFFFFFFFFFFFFFFFFFFFFFFFF AND CALLER PUSH20 0xFFFFFFFFFFFFFFFFFFFFFFFFFFFFFFFFFFFFFFFF AND EQ PUSH2 0x147 JUMPI PUSH0 DUP1 REVERT JUMPDEST DUP1 PUSH1 0x1 PUSH0 PUSH2 0x100 EXP DUP2 SLOAD DUP2 PUSH20 0xFFFFFFFFFFFFFFFFFFFFFFFFFFFFFFFFFFFFFFFF MUL NOT AND SWAP1 DUP4 PUSH20 0xFFFFFFFFFFFFFFFFFFFFFFFFFFFFFFFFFFFFFFFF AND MUL OR SWAP1 SSTORE POP POP JUMP JUMPDEST PUSH0 DUP1 SLOAD SWAP1 PUSH2 0x100 EXP SWAP1 DIV PUSH20 0xFFFFFFFFFFFFFFFFFFFFFFFFFFFFFFFFFFFFFFFF AND DUP2 JUMP JUMPDEST PUSH0 DUP1 SLOAD SWAP1 PUSH2 0x100 EXP SWAP1 DIV PUSH20 0xFFFFFFFFFFFFFFFFFFFFFFFFFFFFFFFFFFFFFFFF AND PUSH20 0xFFFFFFFFFFFFFFFFFFFFFFFFFFFFFFFFFFFFFFFF AND CALLER PUSH20 0xFFFFFFFFFFFFFFFFFFFFFFFFFFFFFFFFFFFFFFFF AND EQ PUSH2 0x203 JUMPI PUSH0 DUP1 REVERT JUMPDEST DUP1 PUSH1 0x2 DUP2 SWAP1 SSTORE POP POP JUMP JUMPDEST PUSH1 0x1 PUSH0 SWAP1 SLOAD SWAP1 PUSH2 0x100 EXP SWAP1 DIV PUSH20 0xFFFFFFFFFFFFFFFFFFFFFFFFFFFFFFFFFFFFFFFF AND DUP2 JUMP JUMPDEST PUSH0 DUP2 SWAP1 POP SWAP2 SWAP1 POP JUMP JUMPDEST PUSH2 0x244 DUP2 PUSH2 0x232 JUMP JUMPDEST DUP3 MSTORE POP POP JUMP JUMPDEST PUSH0 PUSH1 0x20 DUP3 ADD SWAP1 POP PUSH2 0x25D PUSH0 DUP4 ADD DUP5 PUSH2 0x23B JUMP JUMPDEST SWAP3 SWAP2 POP POP JUMP JUMPDEST PUSH0 DUP1 REVERT JUMPDEST PUSH0 PUSH20 0xFFFFFFFFFFFFFFFFFFFFFFFFFFFFFFFFFFFFFFFF DUP3 AND SWAP1 POP SWAP2 SWAP1 POP JUMP JUMPDEST PUSH0 PUSH2 0x290 DUP3 PUSH2 0x267 JUMP JUMPDEST SWAP1 POP SWAP2 SWAP1 POP JUMP JUMPDEST PUSH2 0x2A0 DUP2 PUSH2 0x286 JUMP JUMPDEST DUP2 EQ PUSH2 0x2AA JUMPI PUSH0 DUP1 REVERT JUMPDEST POP JUMP JUMPDEST PUSH0 DUP2 CALLDATALOAD SWAP1 POP PUSH2 0x2BB DUP2 PUSH2 0x297 JUMP JUMPDEST SWAP3 SWAP2 POP POP JUMP JUMPDEST PUSH0 PUSH1 0x20 DUP3 DUP5 SUB SLT ISZERO PUSH2 0x2D6 JUMPI PUSH2 0x2D5 PUSH2 0x263 JUMP JUMPDEST JUMPDEST PUSH0 PUSH2 0x2E3 DUP5 DUP3 DUP6 ADD PUSH2 0x2AD JUMP JUMPDEST SWAP2 POP POP SWAP3 SWAP2 POP POP JUMP JUMPDEST PUSH2 0x2F5 DUP2 PUSH2 0x286 JUMP JUMPDEST DUP3 MSTORE POP POP JUMP JUMPDEST PUSH0 PUSH1 0x20 DUP3 ADD SWAP1 POP PUSH2 0x30E PUSH0 DUP4 ADD DUP5 PUSH2 0x2EC JUMP JUMPDEST SWAP3 SWAP2 POP POP JUMP JUMPDEST PUSH2 0x31D DUP2 PUSH2 0x232 JUMP JUMPDEST DUP2 EQ PUSH2 0x327 JUMPI PUSH0 DUP1 REVERT JUMPDEST POP JUMP JUMPDEST PUSH0 DUP2 CALLDATALOAD SWAP1 POP PUSH2 0x338 DUP2 PUSH2 0x314 JUMP JUMPDEST SWAP3 SWAP2 POP POP JUMP JUMPDEST PUSH0 PUSH1 0x20 DUP3 DUP5 SUB SLT ISZERO PUSH2 0x353 JUMPI PUSH2 0x352 PUSH2 0x263 JUMP JUMPDEST JUMPDEST PUSH0 PUSH2 0x360 DUP5 DUP3 DUP6 ADD PUSH2 0x32A JUMP JUMPDEST SWAP2 POP POP SWAP3 SWAP2 POP POP JUMP INVALID LOG2 PUSH5 0x6970667358 0x22 SLT KECCAK256 0xE2 PUSH11 0x8573D7DE18DDBB54FB5189 SDIV STOP RETURNDATACOPY 0x4C PUSH12 0xD9509A02D5B0B003D9036A31 SWAP10 DUP15 PUSH5 0x736F6C6343 STOP ADDMOD BYTE STOP CALLER "
				},
				"gasEstimates": {
					"creation": {
						"codeDepositCost": "223800",
						"executionCost": "infinite",
						"totalCost": "infinite"
					},
					"external": {
						"attack(address)": "infinite",
						"test()": "infinite"
					}
				},
				"methodIdentifiers": {
					"attack(address)": "d018db3e",
					"test()": "f8a8fd6d"
				}
			},
			"storageLayout": {
				"storage": [
					{
						"astId": 139,
						"contract": "Executive_Problem/020fc6afbb603263f80b08100e158f4d49b3492a52357406cde10cbfd3593275 (1)/contracts/Test1.sol:ThirdParty",
						"label": "test",
						"offset": 0,
						"slot": "0",
						"type": "t_contract(Victim)136"
					}
				],
				"types": {
					"t_contract(Victim)136": {
						"encoding": "inplace",
						"label": "contract Victim",
						"numberOfBytes": "20"
					}
				}
			},
			"userdoc": {
				"kind": "user",
				"methods": {},
				"version": 1
			}
		}
	}
}