{
	"Baby-ERC20/contracts/Setup.sol": {
		"Setup": {
			"abi": [
				{
					"inputs": [],
					"stateMutability": "payable",
					"type": "constructor"
				},
				{
					"inputs": [],
					"name": "coin",
					"outputs": [
						{
							"internalType": "contract HCOIN",
							"name": "",
							"type": "address"
						}
					],
					"stateMutability": "view",
					"type": "function"
				},
				{
					"inputs": [],
					"name": "isSolved",
					"outputs": [
						{
							"internalType": "bool",
							"name": "",
							"type": "bool"
						}
					],
					"stateMutability": "view",
					"type": "function"
				},
				{
					"inputs": [
						{
							"internalType": "address",
							"name": "_player",
							"type": "address"
						}
					],
					"name": "setPlayer",
					"outputs": [],
					"stateMutability": "nonpayable",
					"type": "function"
				}
			],
			"devdoc": {
				"kind": "dev",
				"methods": {},
				"version": 1
			},
			"evm": {
				"assembly": "    /* \"Baby-ERC20/contracts/Setup.sol\":95:666  contract Setup {... */\n  mstore(0x40, 0x80)\n    /* \"Baby-ERC20/contracts/Setup.sol\":220:227  1 ether */\n  0x0de0b6b3a7640000\n    /* \"Baby-ERC20/contracts/Setup.sol\":207:216  msg.value */\n  callvalue\n    /* \"Baby-ERC20/contracts/Setup.sol\":207:227  msg.value == 1 ether */\n  eq\n    /* \"Baby-ERC20/contracts/Setup.sol\":199:228  require(msg.value == 1 ether) */\n  tag_3\n  jumpi\n  0x00\n  dup1\n  revert\ntag_3:\n    /* \"Baby-ERC20/contracts/Setup.sol\":245:256  new HCOIN() */\n  mload(0x40)\n  tag_4\n  swap1\n  tag_5\n  jump\t// in\ntag_4:\n  mload(0x40)\n  dup1\n  swap2\n  sub\n  swap1\n  0x00\n  create\n  dup1\n  iszero\n  dup1\n  iszero\n  tag_6\n  jumpi\n  returndatasize\n  0x00\n  dup1\n  returndatacopy\n  revert(0x00, returndatasize)\ntag_6:\n  pop\n    /* \"Baby-ERC20/contracts/Setup.sol\":238:242  coin */\n  0x00\n  dup1\n    /* \"Baby-ERC20/contracts/Setup.sol\":238:256  coin = new HCOIN() */\n  0x0100\n  exp\n  dup2\n  sload\n  dup2\n  0xffffffffffffffffffffffffffffffffffffffff\n  mul\n  not\n  and\n  swap1\n  dup4\n  0xffffffffffffffffffffffffffffffffffffffff\n  and\n  mul\n  or\n  swap1\n  sstore\n  pop\n    /* \"Baby-ERC20/contracts/Setup.sol\":266:270  coin */\n  0x00\n  dup1\n  sload\n  swap1\n  0x0100\n  exp\n  swap1\n  div\n  0xffffffffffffffffffffffffffffffffffffffff\n  and\n    /* \"Baby-ERC20/contracts/Setup.sol\":266:278  coin.deposit */\n  0xffffffffffffffffffffffffffffffffffffffff\n  and\n  0xd0e30db0\n    /* \"Baby-ERC20/contracts/Setup.sol\":286:293  1 ether */\n  0x0de0b6b3a7640000\n    /* \"Baby-ERC20/contracts/Setup.sol\":266:296  coin.deposit{value: 1 ether}() */\n  mload(0x40)\n  dup3\n  0xffffffff\n  and\n  0xe0\n  shl\n  dup2\n  mstore\n  0x04\n  add\n  0x00\n  mload(0x40)\n  dup1\n  dup4\n  sub\n  dup2\n  dup6\n  dup9\n  dup1\n  extcodesize\n  iszero\n  dup1\n  iszero\n  tag_7\n  jumpi\n  0x00\n  dup1\n  revert\ntag_7:\n  pop\n  gas\n  call\n  iszero\n  dup1\n  iszero\n  tag_9\n  jumpi\n  returndatasize\n  0x00\n  dup1\n  returndatacopy\n  revert(0x00, returndatasize)\ntag_9:\n  pop\n  pop\n  pop\n  pop\n  pop\n    /* \"Baby-ERC20/contracts/Setup.sol\":95:666  contract Setup {... */\n  jump(tag_10)\ntag_5:\n  dataSize(sub_1)\n  dup1\n  dataOffset(sub_1)\n  dup4\n  codecopy\n  add\n  swap1\n  jump\t// out\ntag_10:\n  dataSize(sub_0)\n  dup1\n  dataOffset(sub_0)\n  0x00\n  codecopy\n  0x00\n  return\nstop\n\nsub_0: assembly {\n        /* \"Baby-ERC20/contracts/Setup.sol\":95:666  contract Setup {... */\n      mstore(0x40, 0x80)\n      callvalue\n      dup1\n      iszero\n      tag_1\n      jumpi\n      0x00\n      dup1\n      revert\n    tag_1:\n      pop\n      jumpi(tag_2, lt(calldatasize, 0x04))\n      shr(0xe0, calldataload(0x00))\n      dup1\n      0x11df9995\n      eq\n      tag_3\n      jumpi\n      dup1\n      0x64d98f6e\n      eq\n      tag_4\n      jumpi\n      dup1\n      0xbc8d3ac4\n      eq\n      tag_5\n      jumpi\n    tag_2:\n      0x00\n      dup1\n      revert\n        /* \"Baby-ERC20/contracts/Setup.sol\":116:133  HCOIN public coin */\n    tag_3:\n      tag_6\n      tag_7\n      jump\t// in\n    tag_6:\n      mload(0x40)\n      dup1\n      dup3\n      0xffffffffffffffffffffffffffffffffffffffff\n      and\n      dup2\n      mstore\n      0x20\n      add\n      swap2\n      pop\n      pop\n      mload(0x40)\n      dup1\n      swap2\n      sub\n      swap1\n      return\n        /* \"Baby-ERC20/contracts/Setup.sol\":544:664  function isSolved() public view returns (bool) {... */\n    tag_4:\n      tag_8\n      tag_9\n      jump\t// in\n    tag_8:\n      mload(0x40)\n      dup1\n      dup3\n      iszero\n      iszero\n      dup2\n      mstore\n      0x20\n      add\n      swap2\n      pop\n      pop\n      mload(0x40)\n      dup1\n      swap2\n      sub\n      swap1\n      return\n        /* \"Baby-ERC20/contracts/Setup.sol\":309:538  function setPlayer(address _player) public {... */\n    tag_5:\n      tag_10\n      0x04\n      dup1\n      calldatasize\n      sub\n      0x20\n      dup2\n      lt\n      iszero\n      tag_11\n      jumpi\n      0x00\n      dup1\n      revert\n    tag_11:\n      dup2\n      add\n      swap1\n      dup1\n      dup1\n      calldataload\n      0xffffffffffffffffffffffffffffffffffffffff\n      and\n      swap1\n      0x20\n      add\n      swap1\n      swap3\n      swap2\n      swap1\n      pop\n      pop\n      pop\n      tag_12\n      jump\t// in\n    tag_10:\n      stop\n        /* \"Baby-ERC20/contracts/Setup.sol\":116:133  HCOIN public coin */\n    tag_7:\n      0x00\n      dup1\n      sload\n      swap1\n      0x0100\n      exp\n      swap1\n      div\n      0xffffffffffffffffffffffffffffffffffffffff\n      and\n      dup2\n      jump\t// out\n        /* \"Baby-ERC20/contracts/Setup.sol\":544:664  function isSolved() public view returns (bool) {... */\n    tag_9:\n        /* \"Baby-ERC20/contracts/Setup.sol\":585:589  bool */\n      0x00\n        /* \"Baby-ERC20/contracts/Setup.sol\":633:643  1000 ether */\n      0x3635c9adc5dea00000\n        /* \"Baby-ERC20/contracts/Setup.sol\":608:612  coin */\n      0x00\n      dup1\n      sload\n      swap1\n      0x0100\n      exp\n      swap1\n      div\n      0xffffffffffffffffffffffffffffffffffffffff\n      and\n        /* \"Baby-ERC20/contracts/Setup.sol\":608:622  coin.balanceOf */\n      0xffffffffffffffffffffffffffffffffffffffff\n      and\n      0x70a08231\n        /* \"Baby-ERC20/contracts/Setup.sol\":623:629  player */\n      0x01\n      0x00\n      swap1\n      sload\n      swap1\n      0x0100\n      exp\n      swap1\n      div\n      0xffffffffffffffffffffffffffffffffffffffff\n      and\n        /* \"Baby-ERC20/contracts/Setup.sol\":608:630  coin.balanceOf(player) */\n      mload(0x40)\n      dup3\n      0xffffffff\n      and\n      0xe0\n      shl\n      dup2\n      mstore\n      0x04\n      add\n      dup1\n      dup3\n      0xffffffffffffffffffffffffffffffffffffffff\n      and\n      dup2\n      mstore\n      0x20\n      add\n      swap2\n      pop\n      pop\n      0x20\n      mload(0x40)\n      dup1\n      dup4\n      sub\n      dup2\n      dup7\n      dup1\n      extcodesize\n      iszero\n      dup1\n      iszero\n      tag_14\n      jumpi\n      0x00\n      dup1\n      revert\n    tag_14:\n      pop\n      gas\n      staticcall\n      iszero\n      dup1\n      iszero\n      tag_16\n      jumpi\n      returndatasize\n      0x00\n      dup1\n      returndatacopy\n      revert(0x00, returndatasize)\n    tag_16:\n      pop\n      pop\n      pop\n      pop\n      mload(0x40)\n      returndatasize\n      0x20\n      dup2\n      lt\n      iszero\n      tag_17\n      jumpi\n      0x00\n      dup1\n      revert\n    tag_17:\n      dup2\n      add\n      swap1\n      dup1\n      dup1\n      mload\n      swap1\n      0x20\n      add\n      swap1\n      swap3\n      swap2\n      swap1\n      pop\n      pop\n      pop\n        /* \"Baby-ERC20/contracts/Setup.sol\":608:643  coin.balanceOf(player) > 1000 ether */\n      gt\n        /* \"Baby-ERC20/contracts/Setup.sol\":601:643  return coin.balanceOf(player) > 1000 ether */\n      swap1\n      pop\n        /* \"Baby-ERC20/contracts/Setup.sol\":544:664  function isSolved() public view returns (bool) {... */\n      swap1\n      jump\t// out\n        /* \"Baby-ERC20/contracts/Setup.sol\":309:538  function setPlayer(address _player) public {... */\n    tag_12:\n        /* \"Baby-ERC20/contracts/Setup.sol\":379:389  msg.sender */\n      caller\n        /* \"Baby-ERC20/contracts/Setup.sol\":368:389  _player == msg.sender */\n      0xffffffffffffffffffffffffffffffffffffffff\n      and\n        /* \"Baby-ERC20/contracts/Setup.sol\":368:375  _player */\n      dup2\n        /* \"Baby-ERC20/contracts/Setup.sol\":368:389  _player == msg.sender */\n      0xffffffffffffffffffffffffffffffffffffffff\n      and\n      eq\n        /* \"Baby-ERC20/contracts/Setup.sol\":360:433  require(_player == msg.sender, \"Player must be the same with the sender\") */\n      tag_19\n      jumpi\n      mload(0x40)\n      0x08c379a000000000000000000000000000000000000000000000000000000000\n      dup2\n      mstore\n      0x04\n      add\n      dup1\n      dup1\n      0x20\n      add\n      dup3\n      dup2\n      sub\n      dup3\n      mstore\n      0x27\n      dup2\n      mstore\n      0x20\n      add\n      dup1\n      data_03a3b8f8a510ffc32b058c770764639999e3d47caf0efe66c373d11c3da29368\n      0x27\n      swap2\n      codecopy\n      0x40\n      add\n      swap2\n      pop\n      pop\n      mload(0x40)\n      dup1\n      swap2\n      sub\n      swap1\n      revert\n    tag_19:\n        /* \"Baby-ERC20/contracts/Setup.sol\":460:469  tx.origin */\n      origin\n        /* \"Baby-ERC20/contracts/Setup.sol\":449:469  _player == tx.origin */\n      0xffffffffffffffffffffffffffffffffffffffff\n      and\n        /* \"Baby-ERC20/contracts/Setup.sol\":449:456  _player */\n      dup2\n        /* \"Baby-ERC20/contracts/Setup.sol\":449:469  _player == tx.origin */\n      0xffffffffffffffffffffffffffffffffffffffff\n      and\n      eq\n        /* \"Baby-ERC20/contracts/Setup.sol\":441:507  require(_player == tx.origin, \"Player must be a valid Wallet/EOA\") */\n      tag_20\n      jumpi\n      mload(0x40)\n      0x08c379a000000000000000000000000000000000000000000000000000000000\n      dup2\n      mstore\n      0x04\n      add\n      dup1\n      dup1\n      0x20\n      add\n      dup3\n      dup2\n      sub\n      dup3\n      mstore\n      0x21\n      dup2\n      mstore\n      0x20\n      add\n      dup1\n      data_bfc7655c09e0e08f5f74026ea4ef560e728f0bf30161efc03581bd2fb9815540\n      0x21\n      swap2\n      codecopy\n      0x40\n      add\n      swap2\n      pop\n      pop\n      mload(0x40)\n      dup1\n      swap2\n      sub\n      swap1\n      revert\n    tag_20:\n        /* \"Baby-ERC20/contracts/Setup.sol\":524:531  _player */\n      dup1\n        /* \"Baby-ERC20/contracts/Setup.sol\":515:521  player */\n      0x01\n      0x00\n        /* \"Baby-ERC20/contracts/Setup.sol\":515:531  player = _player */\n      0x0100\n      exp\n      dup2\n      sload\n      dup2\n      0xffffffffffffffffffffffffffffffffffffffff\n      mul\n      not\n      and\n      swap1\n      dup4\n      0xffffffffffffffffffffffffffffffffffffffff\n      and\n      mul\n      or\n      swap1\n      sstore\n      pop\n        /* \"Baby-ERC20/contracts/Setup.sol\":309:538  function setPlayer(address _player) public {... */\n      pop\n      jump\t// out\n    stop\n    data_03a3b8f8a510ffc32b058c770764639999e3d47caf0efe66c373d11c3da29368 506c61796572206d757374206265207468652073616d652077697468207468652073656e646572\n    data_bfc7655c09e0e08f5f74026ea4ef560e728f0bf30161efc03581bd2fb9815540 506c61796572206d75737420626520612076616c69642057616c6c65742f454f41\n\n    auxdata: 0xa2646970667358221220ff0d3a4f04809f6193f2a4407c32475b382d6d17ad17f58633e439f22a6e7b4064736f6c634300060c0033\n}\n\nsub_1: assembly {\n        /* \"Baby-ERC20/contracts/HCOIN.sol\":82:1925  contract HCOIN is Ownable {... */\n      mstore(0x40, 0x80)\n      callvalue\n      dup1\n      iszero\n      tag_1\n      jumpi\n      0x00\n      dup1\n      revert\n    tag_1:\n      pop\n        /* \"Baby-ERC20/contracts/Ownable.sol\":491:501  msg.sender */\n      caller\n        /* \"Baby-ERC20/contracts/Ownable.sol\":482:488  _owner */\n      0x00\n      dup1\n        /* \"Baby-ERC20/contracts/Ownable.sol\":482:501  _owner = msg.sender */\n      0x0100\n      exp\n      dup2\n      sload\n      dup2\n      0xffffffffffffffffffffffffffffffffffffffff\n      mul\n      not\n      and\n      swap1\n      dup4\n      0xffffffffffffffffffffffffffffffffffffffff\n      and\n      mul\n      or\n      swap1\n      sstore\n      pop\n        /* \"Baby-ERC20/contracts/Ownable.sol\":549:555  _owner */\n      0x00\n      dup1\n      sload\n      swap1\n      0x0100\n      exp\n      swap1\n      div\n      0xffffffffffffffffffffffffffffffffffffffff\n      and\n        /* \"Baby-ERC20/contracts/Ownable.sol\":516:556  OwnershipTransferred(address(0), _owner) */\n      0xffffffffffffffffffffffffffffffffffffffff\n      and\n        /* \"Baby-ERC20/contracts/Ownable.sol\":545:546  0 */\n      0x00\n        /* \"Baby-ERC20/contracts/Ownable.sol\":516:556  OwnershipTransferred(address(0), _owner) */\n      0xffffffffffffffffffffffffffffffffffffffff\n      and\n      0x8be0079c531659141344cd1fd0a4f28419497f9722a3daafe3b4186f6b6457e0\n      mload(0x40)\n      mload(0x40)\n      dup1\n      swap2\n      sub\n      swap1\n      log3\n        /* \"Baby-ERC20/contracts/HCOIN.sol\":82:1925  contract HCOIN is Ownable {... */\n      dataSize(sub_0)\n      dup1\n      dataOffset(sub_0)\n      0x00\n      codecopy\n      0x00\n      return\n    stop\n\n    sub_0: assembly {\n            /* \"Baby-ERC20/contracts/HCOIN.sol\":82:1925  contract HCOIN is Ownable {... */\n          mstore(0x40, 0x80)\n          jumpi(tag_1, lt(calldatasize, 0x04))\n          shr(0xe0, calldataload(0x00))\n          dup1\n          0x8da5cb5b\n          gt\n          tag_14\n          jumpi\n          dup1\n          0x8da5cb5b\n          eq\n          tag_8\n          jumpi\n          dup1\n          0x95d89b41\n          eq\n          tag_9\n          jumpi\n          dup1\n          0xa9059cbb\n          eq\n          tag_10\n          jumpi\n          dup1\n          0xd0e30db0\n          eq\n          tag_11\n          jumpi\n          dup1\n          0xdd62ed3e\n          eq\n          tag_12\n          jumpi\n          dup1\n          0xf2fde38b\n          eq\n          tag_13\n          jumpi\n          jump(tag_2)\n        tag_14:\n          dup1\n          0x06fdde03\n          eq\n          tag_3\n          jumpi\n          dup1\n          0x095ea7b3\n          eq\n          tag_4\n          jumpi\n          dup1\n          0x23b872dd\n          eq\n          tag_5\n          jumpi\n          dup1\n          0x313ce567\n          eq\n          tag_6\n          jumpi\n          dup1\n          0x70a08231\n          eq\n          tag_7\n          jumpi\n          jump(tag_2)\n        tag_1:\n        tag_2:\n            /* \"Baby-ERC20/contracts/HCOIN.sol\":1906:1915  deposit() */\n          tag_17\n            /* \"Baby-ERC20/contracts/HCOIN.sol\":1906:1913  deposit */\n          tag_18\n            /* \"Baby-ERC20/contracts/HCOIN.sol\":1906:1915  deposit() */\n          jump\t// in\n        tag_17:\n            /* \"Baby-ERC20/contracts/HCOIN.sol\":82:1925  contract HCOIN is Ownable {... */\n          stop\n            /* \"Baby-ERC20/contracts/HCOIN.sol\":114:159  string public constant name = \"HackerikaCoin\" */\n        tag_3:\n          callvalue\n          dup1\n          iszero\n          tag_19\n          jumpi\n          0x00\n          dup1\n          revert\n        tag_19:\n          pop\n          tag_20\n          tag_21\n          jump\t// in\n        tag_20:\n          mload(0x40)\n          dup1\n          dup1\n          0x20\n          add\n          dup3\n          dup2\n          sub\n          dup3\n          mstore\n          dup4\n          dup2\n          dup2\n          mload\n          dup2\n          mstore\n          0x20\n          add\n          swap2\n          pop\n          dup1\n          mload\n          swap1\n          0x20\n          add\n          swap1\n          dup1\n          dup4\n          dup4\n          0x00\n        tag_22:\n          dup4\n          dup2\n          lt\n          iszero\n          tag_24\n          jumpi\n          dup1\n          dup3\n          add\n          mload\n          dup2\n          dup5\n          add\n          mstore\n          0x20\n          dup2\n          add\n          swap1\n          pop\n          jump(tag_22)\n        tag_24:\n          pop\n          pop\n          pop\n          pop\n          swap1\n          pop\n          swap1\n          dup2\n          add\n          swap1\n          0x1f\n          and\n          dup1\n          iszero\n          tag_25\n          jumpi\n          dup1\n          dup3\n          sub\n          dup1\n          mload\n          0x01\n          dup4\n          0x20\n          sub\n          0x0100\n          exp\n          sub\n          not\n          and\n          dup2\n          mstore\n          0x20\n          add\n          swap2\n          pop\n        tag_25:\n          pop\n          swap3\n          pop\n          pop\n          pop\n          mload(0x40)\n          dup1\n          swap2\n          sub\n          swap1\n          return\n            /* \"Baby-ERC20/contracts/HCOIN.sol\":1117:1329  function approve(address _spender, uint256 _value) public returns (bool success) {... */\n        tag_4:\n          callvalue\n          dup1\n          iszero\n          tag_26\n          jumpi\n          0x00\n          dup1\n          revert\n        tag_26:\n          pop\n          tag_27\n          0x04\n          dup1\n          calldatasize\n          sub\n          0x40\n          dup2\n          lt\n          iszero\n          tag_28\n          jumpi\n          0x00\n          dup1\n          revert\n        tag_28:\n          dup2\n          add\n          swap1\n          dup1\n          dup1\n          calldataload\n          0xffffffffffffffffffffffffffffffffffffffff\n          and\n          swap1\n          0x20\n          add\n          swap1\n          swap3\n          swap2\n          swap1\n          dup1\n          calldataload\n          swap1\n          0x20\n          add\n          swap1\n          swap3\n          swap2\n          swap1\n          pop\n          pop\n          pop\n          tag_29\n          jump\t// in\n        tag_27:\n          mload(0x40)\n          dup1\n          dup3\n          iszero\n          iszero\n          dup2\n          mstore\n          0x20\n          add\n          swap2\n          pop\n          pop\n          mload(0x40)\n          dup1\n          swap2\n          sub\n          swap1\n          return\n            /* \"Baby-ERC20/contracts/HCOIN.sol\":1335:1862  function transferFrom(address _from, address _to, uint256 _value) onlyOwner public returns (bool success) {... */\n        tag_5:\n          callvalue\n          dup1\n          iszero\n          tag_30\n          jumpi\n          0x00\n          dup1\n          revert\n        tag_30:\n          pop\n          tag_31\n          0x04\n          dup1\n          calldatasize\n          sub\n          0x60\n          dup2\n          lt\n          iszero\n          tag_32\n          jumpi\n          0x00\n          dup1\n          revert\n        tag_32:\n          dup2\n          add\n          swap1\n          dup1\n          dup1\n          calldataload\n          0xffffffffffffffffffffffffffffffffffffffff\n          and\n          swap1\n          0x20\n          add\n          swap1\n          swap3\n          swap2\n          swap1\n          dup1\n          calldataload\n          0xffffffffffffffffffffffffffffffffffffffff\n          and\n          swap1\n          0x20\n          add\n          swap1\n          swap3\n          swap2\n          swap1\n          dup1\n          calldataload\n          swap1\n          0x20\n          add\n          swap1\n          swap3\n          swap2\n          swap1\n          pop\n          pop\n          pop\n          tag_33\n          jump\t// in\n        tag_31:\n          mload(0x40)\n          dup1\n          dup3\n          iszero\n          iszero\n          dup2\n          mstore\n          0x20\n          add\n          swap2\n          pop\n          pop\n          mload(0x40)\n          dup1\n          swap2\n          sub\n          swap1\n          return\n            /* \"Baby-ERC20/contracts/HCOIN.sol\":210:245  uint8 public constant decimals = 18 */\n        tag_6:\n          callvalue\n          dup1\n          iszero\n          tag_34\n          jumpi\n          0x00\n          dup1\n          revert\n        tag_34:\n          pop\n          tag_35\n          tag_36\n          jump\t// in\n        tag_35:\n          mload(0x40)\n          dup1\n          dup3\n          0xff\n          and\n          dup2\n          mstore\n          0x20\n          add\n          swap2\n          pop\n          pop\n          mload(0x40)\n          dup1\n          swap2\n          sub\n          swap1\n          return\n            /* \"Baby-ERC20/contracts/HCOIN.sol\":256:300  mapping(address => uint256) public balanceOf */\n        tag_7:\n          callvalue\n          dup1\n          iszero\n          tag_37\n          jumpi\n          0x00\n          dup1\n          revert\n        tag_37:\n          pop\n          tag_38\n          0x04\n          dup1\n          calldatasize\n          sub\n          0x20\n          dup2\n          lt\n          iszero\n          tag_39\n          jumpi\n          0x00\n          dup1\n          revert\n        tag_39:\n          dup2\n          add\n          swap1\n          dup1\n          dup1\n          calldataload\n          0xffffffffffffffffffffffffffffffffffffffff\n          and\n          swap1\n          0x20\n          add\n          swap1\n          swap3\n          swap2\n          swap1\n          pop\n          pop\n          pop\n          tag_40\n          jump\t// in\n        tag_38:\n          mload(0x40)\n          dup1\n          dup3\n          dup2\n          mstore\n          0x20\n          add\n          swap2\n          pop\n          pop\n          mload(0x40)\n          dup1\n          swap2\n          sub\n          swap1\n          return\n            /* \"Baby-ERC20/contracts/Ownable.sol\":639:716  function owner() public view returns (address) {... */\n        tag_8:\n          callvalue\n          dup1\n          iszero\n          tag_41\n          jumpi\n          0x00\n          dup1\n          revert\n        tag_41:\n          pop\n          tag_42\n          tag_43\n          jump\t// in\n        tag_42:\n          mload(0x40)\n          dup1\n          dup3\n          0xffffffffffffffffffffffffffffffffffffffff\n          and\n          dup2\n          mstore\n          0x20\n          add\n          swap2\n          pop\n          pop\n          mload(0x40)\n          dup1\n          swap2\n          sub\n          swap1\n          return\n            /* \"Baby-ERC20/contracts/HCOIN.sol\":165:204  string public constant symbol = \"HCOIN\" */\n        tag_9:\n          callvalue\n          dup1\n          iszero\n          tag_44\n          jumpi\n          0x00\n          dup1\n          revert\n        tag_44:\n          pop\n          tag_45\n          tag_46\n          jump\t// in\n        tag_45:\n          mload(0x40)\n          dup1\n          dup1\n          0x20\n          add\n          dup3\n          dup2\n          sub\n          dup3\n          mstore\n          dup4\n          dup2\n          dup2\n          mload\n          dup2\n          mstore\n          0x20\n          add\n          swap2\n          pop\n          dup1\n          mload\n          swap1\n          0x20\n          add\n          swap1\n          dup1\n          dup4\n          dup4\n          0x00\n        tag_47:\n          dup4\n          dup2\n          lt\n          iszero\n          tag_49\n          jumpi\n          dup1\n          dup3\n          add\n          mload\n          dup2\n          dup5\n          add\n          mstore\n          0x20\n          dup2\n          add\n          swap1\n          pop\n          jump(tag_47)\n        tag_49:\n          pop\n          pop\n          pop\n          pop\n          swap1\n          pop\n          swap1\n          dup2\n          add\n          swap1\n          0x1f\n          and\n          dup1\n          iszero\n          tag_50\n          jumpi\n          dup1\n          dup3\n          sub\n          dup1\n          mload\n          0x01\n          dup4\n          0x20\n          sub\n          0x0100\n          exp\n          sub\n          not\n          and\n          dup2\n          mstore\n          0x20\n          add\n          swap2\n          pop\n        tag_50:\n          pop\n          swap3\n          pop\n          pop\n          pop\n          mload(0x40)\n          dup1\n          swap2\n          sub\n          swap1\n          return\n            /* \"Baby-ERC20/contracts/HCOIN.sol\":730:1111  function transfer(address _to, uint256 _value) public returns (bool success) {... */\n        tag_10:\n          callvalue\n          dup1\n          iszero\n          tag_51\n          jumpi\n          0x00\n          dup1\n          revert\n        tag_51:\n          pop\n          tag_52\n          0x04\n          dup1\n          calldatasize\n          sub\n          0x40\n          dup2\n          lt\n          iszero\n          tag_53\n          jumpi\n          0x00\n          dup1\n          revert\n        tag_53:\n          dup2\n          add\n          swap1\n          dup1\n          dup1\n          calldataload\n          0xffffffffffffffffffffffffffffffffffffffff\n          and\n          swap1\n          0x20\n          add\n          swap1\n          swap3\n          swap2\n          swap1\n          dup1\n          calldataload\n          swap1\n          0x20\n          add\n          swap1\n          swap3\n          swap2\n          swap1\n          pop\n          pop\n          pop\n          tag_54\n          jump\t// in\n        tag_52:\n          mload(0x40)\n          dup1\n          dup3\n          iszero\n          iszero\n          dup2\n          mstore\n          0x20\n          add\n          swap2\n          pop\n          pop\n          mload(0x40)\n          dup1\n          swap2\n          sub\n          swap1\n          return\n            /* \"Baby-ERC20/contracts/HCOIN.sol\":594:724  function deposit() public payable {... */\n        tag_11:\n          tag_55\n          tag_18\n          jump\t// in\n        tag_55:\n          stop\n            /* \"Baby-ERC20/contracts/HCOIN.sol\":306:370  mapping(address => mapping(address => uint256)) public allowance */\n        tag_12:\n          callvalue\n          dup1\n          iszero\n          tag_56\n          jumpi\n          0x00\n          dup1\n          revert\n        tag_56:\n          pop\n          tag_57\n          0x04\n          dup1\n          calldatasize\n          sub\n          0x40\n          dup2\n          lt\n          iszero\n          tag_58\n          jumpi\n          0x00\n          dup1\n          revert\n        tag_58:\n          dup2\n          add\n          swap1\n          dup1\n          dup1\n          calldataload\n          0xffffffffffffffffffffffffffffffffffffffff\n          and\n          swap1\n          0x20\n          add\n          swap1\n          swap3\n          swap2\n          swap1\n          dup1\n          calldataload\n          0xffffffffffffffffffffffffffffffffffffffff\n          and\n          swap1\n          0x20\n          add\n          swap1\n          swap3\n          swap2\n          swap1\n          pop\n          pop\n          pop\n          tag_59\n          jump\t// in\n        tag_57:\n          mload(0x40)\n          dup1\n          dup3\n          dup2\n          mstore\n          0x20\n          add\n          swap2\n          pop\n          pop\n          mload(0x40)\n          dup1\n          swap2\n          sub\n          swap1\n          return\n            /* \"Baby-ERC20/contracts/Ownable.sol\":1089:1329  function transferOwnership(address newOwner) public virtual onlyOwner {... */\n        tag_13:\n          callvalue\n          dup1\n          iszero\n          tag_60\n          jumpi\n          0x00\n          dup1\n          revert\n        tag_60:\n          pop\n          tag_61\n          0x04\n          dup1\n          calldatasize\n          sub\n          0x20\n          dup2\n          lt\n          iszero\n          tag_62\n          jumpi\n          0x00\n          dup1\n          revert\n        tag_62:\n          dup2\n          add\n          swap1\n          dup1\n          dup1\n          calldataload\n          0xffffffffffffffffffffffffffffffffffffffff\n          and\n          swap1\n          0x20\n          add\n          swap1\n          swap3\n          swap2\n          swap1\n          pop\n          pop\n          pop\n          tag_63\n          jump\t// in\n        tag_61:\n          stop\n            /* \"Baby-ERC20/contracts/HCOIN.sol\":594:724  function deposit() public payable {... */\n        tag_18:\n            /* \"Baby-ERC20/contracts/HCOIN.sol\":663:672  msg.value */\n          callvalue\n            /* \"Baby-ERC20/contracts/HCOIN.sol\":638:647  balanceOf */\n          0x01\n            /* \"Baby-ERC20/contracts/HCOIN.sol\":638:659  balanceOf[msg.sender] */\n          0x00\n            /* \"Baby-ERC20/contracts/HCOIN.sol\":648:658  msg.sender */\n          caller\n            /* \"Baby-ERC20/contracts/HCOIN.sol\":638:659  balanceOf[msg.sender] */\n          0xffffffffffffffffffffffffffffffffffffffff\n          and\n          0xffffffffffffffffffffffffffffffffffffffff\n          and\n          dup2\n          mstore\n          0x20\n          add\n          swap1\n          dup2\n          mstore\n          0x20\n          add\n          0x00\n          keccak256\n          0x00\n            /* \"Baby-ERC20/contracts/HCOIN.sol\":638:672  balanceOf[msg.sender] += msg.value */\n          dup3\n          dup3\n          sload\n          add\n          swap3\n          pop\n          pop\n          dup2\n          swap1\n          sstore\n          pop\n            /* \"Baby-ERC20/contracts/HCOIN.sol\":695:705  msg.sender */\n          caller\n            /* \"Baby-ERC20/contracts/HCOIN.sol\":687:717  Deposit(msg.sender, msg.value) */\n          0xffffffffffffffffffffffffffffffffffffffff\n          and\n          0xe1fffcc4923d04b559f4d29a8bfc6cda04eb5b0d3c460751c2402c5c5cc9109c\n            /* \"Baby-ERC20/contracts/HCOIN.sol\":707:716  msg.value */\n          callvalue\n            /* \"Baby-ERC20/contracts/HCOIN.sol\":687:717  Deposit(msg.sender, msg.value) */\n          mload(0x40)\n          dup1\n          dup3\n          dup2\n          mstore\n          0x20\n          add\n          swap2\n          pop\n          pop\n          mload(0x40)\n          dup1\n          swap2\n          sub\n          swap1\n          log2\n            /* \"Baby-ERC20/contracts/HCOIN.sol\":594:724  function deposit() public payable {... */\n          jump\t// out\n            /* \"Baby-ERC20/contracts/HCOIN.sol\":114:159  string public constant name = \"HackerikaCoin\" */\n        tag_21:\n          mload(0x40)\n          dup1\n          0x40\n          add\n          0x40\n          mstore\n          dup1\n          0x0d\n          dup2\n          mstore\n          0x20\n          add\n          0x4861636b6572696b61436f696e00000000000000000000000000000000000000\n          dup2\n          mstore\n          pop\n          dup2\n          jump\t// out\n            /* \"Baby-ERC20/contracts/HCOIN.sol\":1117:1329  function approve(address _spender, uint256 _value) public returns (bool success) {... */\n        tag_29:\n            /* \"Baby-ERC20/contracts/HCOIN.sol\":1184:1196  bool success */\n          0x00\n            /* \"Baby-ERC20/contracts/HCOIN.sol\":1242:1248  _value */\n          dup2\n            /* \"Baby-ERC20/contracts/HCOIN.sol\":1208:1217  allowance */\n          0x02\n            /* \"Baby-ERC20/contracts/HCOIN.sol\":1208:1229  allowance[msg.sender] */\n          0x00\n            /* \"Baby-ERC20/contracts/HCOIN.sol\":1218:1228  msg.sender */\n          caller\n            /* \"Baby-ERC20/contracts/HCOIN.sol\":1208:1229  allowance[msg.sender] */\n          0xffffffffffffffffffffffffffffffffffffffff\n          and\n          0xffffffffffffffffffffffffffffffffffffffff\n          and\n          dup2\n          mstore\n          0x20\n          add\n          swap1\n          dup2\n          mstore\n          0x20\n          add\n          0x00\n          keccak256\n            /* \"Baby-ERC20/contracts/HCOIN.sol\":1208:1239  allowance[msg.sender][_spender] */\n          0x00\n            /* \"Baby-ERC20/contracts/HCOIN.sol\":1230:1238  _spender */\n          dup6\n            /* \"Baby-ERC20/contracts/HCOIN.sol\":1208:1239  allowance[msg.sender][_spender] */\n          0xffffffffffffffffffffffffffffffffffffffff\n          and\n          0xffffffffffffffffffffffffffffffffffffffff\n          and\n          dup2\n          mstore\n          0x20\n          add\n          swap1\n          dup2\n          mstore\n          0x20\n          add\n          0x00\n          keccak256\n            /* \"Baby-ERC20/contracts/HCOIN.sol\":1208:1248  allowance[msg.sender][_spender] = _value */\n          dup2\n          swap1\n          sstore\n          pop\n            /* \"Baby-ERC20/contracts/HCOIN.sol\":1284:1292  _spender */\n          dup3\n            /* \"Baby-ERC20/contracts/HCOIN.sol\":1263:1301  Approval(msg.sender, _spender, _value) */\n          0xffffffffffffffffffffffffffffffffffffffff\n          and\n            /* \"Baby-ERC20/contracts/HCOIN.sol\":1272:1282  msg.sender */\n          caller\n            /* \"Baby-ERC20/contracts/HCOIN.sol\":1263:1301  Approval(msg.sender, _spender, _value) */\n          0xffffffffffffffffffffffffffffffffffffffff\n          and\n          0x8c5be1e5ebec7d5bd14f71427d1e84f3dd0314c0f7b2291e5b200ac8c7c3b925\n            /* \"Baby-ERC20/contracts/HCOIN.sol\":1294:1300  _value */\n          dup5\n            /* \"Baby-ERC20/contracts/HCOIN.sol\":1263:1301  Approval(msg.sender, _spender, _value) */\n          mload(0x40)\n          dup1\n          dup3\n          dup2\n          mstore\n          0x20\n          add\n          swap2\n          pop\n          pop\n          mload(0x40)\n          dup1\n          swap2\n          sub\n          swap1\n          log3\n            /* \"Baby-ERC20/contracts/HCOIN.sol\":1318:1322  true */\n          0x01\n            /* \"Baby-ERC20/contracts/HCOIN.sol\":1311:1322  return true */\n          swap1\n          pop\n            /* \"Baby-ERC20/contracts/HCOIN.sol\":1117:1329  function approve(address _spender, uint256 _value) public returns (bool success) {... */\n          swap3\n          swap2\n          pop\n          pop\n          jump\t// out\n            /* \"Baby-ERC20/contracts/HCOIN.sol\":1335:1862  function transferFrom(address _from, address _to, uint256 _value) onlyOwner public returns (bool success) {... */\n        tag_33:\n            /* \"Baby-ERC20/contracts/HCOIN.sol\":1427:1439  bool success */\n          0x00\n            /* \"Baby-ERC20/contracts/Ownable.sol\":853:863  msg.sender */\n          caller\n            /* \"Baby-ERC20/contracts/Ownable.sol\":843:863  _owner == msg.sender */\n          0xffffffffffffffffffffffffffffffffffffffff\n          and\n            /* \"Baby-ERC20/contracts/Ownable.sol\":843:849  _owner */\n          0x00\n          dup1\n          sload\n          swap1\n          0x0100\n          exp\n          swap1\n          div\n          0xffffffffffffffffffffffffffffffffffffffff\n          and\n            /* \"Baby-ERC20/contracts/Ownable.sol\":843:863  _owner == msg.sender */\n          0xffffffffffffffffffffffffffffffffffffffff\n          and\n          eq\n            /* \"Baby-ERC20/contracts/Ownable.sol\":835:900  require(_owner == msg.sender, \"Ownable: caller is not the owner\") */\n          tag_67\n          jumpi\n          mload(0x40)\n          0x08c379a000000000000000000000000000000000000000000000000000000000\n          dup2\n          mstore\n          0x04\n          add\n          dup1\n          dup1\n          0x20\n          add\n          dup3\n          dup2\n          sub\n          dup3\n          mstore\n          0x20\n          dup2\n          mstore\n          0x20\n          add\n          dup1\n          0x4f776e61626c653a2063616c6c6572206973206e6f7420746865206f776e6572\n          dup2\n          mstore\n          pop\n          0x20\n          add\n          swap2\n          pop\n          pop\n          mload(0x40)\n          dup1\n          swap2\n          sub\n          swap1\n          revert\n        tag_67:\n            /* \"Baby-ERC20/contracts/HCOIN.sol\":1491:1497  _value */\n          dup2\n            /* \"Baby-ERC20/contracts/HCOIN.sol\":1459:1468  allowance */\n          0x02\n            /* \"Baby-ERC20/contracts/HCOIN.sol\":1459:1475  allowance[_from] */\n          0x00\n            /* \"Baby-ERC20/contracts/HCOIN.sol\":1469:1474  _from */\n          dup7\n            /* \"Baby-ERC20/contracts/HCOIN.sol\":1459:1475  allowance[_from] */\n          0xffffffffffffffffffffffffffffffffffffffff\n          and\n          0xffffffffffffffffffffffffffffffffffffffff\n          and\n          dup2\n          mstore\n          0x20\n          add\n          swap1\n          dup2\n          mstore\n          0x20\n          add\n          0x00\n          keccak256\n            /* \"Baby-ERC20/contracts/HCOIN.sol\":1459:1487  allowance[_from][msg.sender] */\n          0x00\n            /* \"Baby-ERC20/contracts/HCOIN.sol\":1476:1486  msg.sender */\n          caller\n            /* \"Baby-ERC20/contracts/HCOIN.sol\":1459:1487  allowance[_from][msg.sender] */\n          0xffffffffffffffffffffffffffffffffffffffff\n          and\n          0xffffffffffffffffffffffffffffffffffffffff\n          and\n          dup2\n          mstore\n          0x20\n          add\n          swap1\n          dup2\n          mstore\n          0x20\n          add\n          0x00\n          keccak256\n          sload\n            /* \"Baby-ERC20/contracts/HCOIN.sol\":1459:1497  allowance[_from][msg.sender] >= _value */\n          lt\n          iszero\n            /* \"Baby-ERC20/contracts/HCOIN.sol\":1451:1520  require(allowance[_from][msg.sender] >= _value, \"Allowance exceeded\") */\n          tag_69\n          jumpi\n          mload(0x40)\n          0x08c379a000000000000000000000000000000000000000000000000000000000\n          dup2\n          mstore\n          0x04\n          add\n          dup1\n          dup1\n          0x20\n          add\n          dup3\n          dup2\n          sub\n          dup3\n          mstore\n          0x12\n          dup2\n          mstore\n          0x20\n          add\n          dup1\n          0x416c6c6f77616e63652065786365656465640000000000000000000000000000\n          dup2\n          mstore\n          pop\n          0x20\n          add\n          swap2\n          pop\n          pop\n          mload(0x40)\n          dup1\n          swap2\n          sub\n          swap1\n          revert\n        tag_69:\n            /* \"Baby-ERC20/contracts/HCOIN.sol\":1553:1554  0 */\n          0x00\n            /* \"Baby-ERC20/contracts/HCOIN.sol\":1538:1555  _to != address(0) */\n          0xffffffffffffffffffffffffffffffffffffffff\n          and\n            /* \"Baby-ERC20/contracts/HCOIN.sol\":1538:1541  _to */\n          dup4\n            /* \"Baby-ERC20/contracts/HCOIN.sol\":1538:1555  _to != address(0) */\n          0xffffffffffffffffffffffffffffffffffffffff\n          and\n          eq\n          iszero\n            /* \"Baby-ERC20/contracts/HCOIN.sol\":1530:1595  require(_to != address(0), \"ERC20: transfer to the zero address\") */\n          tag_70\n          jumpi\n          mload(0x40)\n          0x08c379a000000000000000000000000000000000000000000000000000000000\n          dup2\n          mstore\n          0x04\n          add\n          dup1\n          dup1\n          0x20\n          add\n          dup3\n          dup2\n          sub\n          dup3\n          mstore\n          0x23\n          dup2\n          mstore\n          0x20\n          add\n          dup1\n          data_0557e210f7a69a685100a7e4e3d0a7024c546085cee28910fd17d0b081d9516f\n          0x23\n          swap2\n          codecopy\n          0x40\n          add\n          swap2\n          pop\n          pop\n          mload(0x40)\n          dup1\n          swap2\n          sub\n          swap1\n          revert\n        tag_70:\n            /* \"Baby-ERC20/contracts/HCOIN.sol\":1647:1648  0 */\n          0x00\n            /* \"Baby-ERC20/contracts/HCOIN.sol\":1637:1643  _value */\n          dup3\n            /* \"Baby-ERC20/contracts/HCOIN.sol\":1613:1622  balanceOf */\n          0x01\n            /* \"Baby-ERC20/contracts/HCOIN.sol\":1613:1634  balanceOf[msg.sender] */\n          0x00\n            /* \"Baby-ERC20/contracts/HCOIN.sol\":1623:1633  msg.sender */\n          caller\n            /* \"Baby-ERC20/contracts/HCOIN.sol\":1613:1634  balanceOf[msg.sender] */\n          0xffffffffffffffffffffffffffffffffffffffff\n          and\n          0xffffffffffffffffffffffffffffffffffffffff\n          and\n          dup2\n          mstore\n          0x20\n          add\n          swap1\n          dup2\n          mstore\n          0x20\n          add\n          0x00\n          keccak256\n          sload\n            /* \"Baby-ERC20/contracts/HCOIN.sol\":1613:1643  balanceOf[msg.sender] - _value */\n          sub\n            /* \"Baby-ERC20/contracts/HCOIN.sol\":1613:1648  balanceOf[msg.sender] - _value >= 0 */\n          lt\n          iszero\n            /* \"Baby-ERC20/contracts/HCOIN.sol\":1605:1673  require(balanceOf[msg.sender] - _value >= 0, \"Insufficient Balance\") */\n          tag_71\n          jumpi\n          mload(0x40)\n          0x08c379a000000000000000000000000000000000000000000000000000000000\n          dup2\n          mstore\n          0x04\n          add\n          dup1\n          dup1\n          0x20\n          add\n          dup3\n          dup2\n          sub\n          dup3\n          mstore\n          0x14\n          dup2\n          mstore\n          0x20\n          add\n          dup1\n          0x496e73756666696369656e742042616c616e6365000000000000000000000000\n          dup2\n          mstore\n          pop\n          0x20\n          add\n          swap2\n          pop\n          pop\n          mload(0x40)\n          dup1\n          swap2\n          sub\n          swap1\n          revert\n        tag_71:\n            /* \"Baby-ERC20/contracts/HCOIN.sol\":1703:1709  _value */\n          dup2\n            /* \"Baby-ERC20/contracts/HCOIN.sol\":1683:1692  balanceOf */\n          0x01\n            /* \"Baby-ERC20/contracts/HCOIN.sol\":1683:1699  balanceOf[_from] */\n          0x00\n            /* \"Baby-ERC20/contracts/HCOIN.sol\":1693:1698  _from */\n          dup7\n            /* \"Baby-ERC20/contracts/HCOIN.sol\":1683:1699  balanceOf[_from] */\n          0xffffffffffffffffffffffffffffffffffffffff\n          and\n          0xffffffffffffffffffffffffffffffffffffffff\n          and\n          dup2\n          mstore\n          0x20\n          add\n          swap1\n          dup2\n          mstore\n          0x20\n          add\n          0x00\n          keccak256\n          0x00\n            /* \"Baby-ERC20/contracts/HCOIN.sol\":1683:1709  balanceOf[_from] -= _value */\n          dup3\n          dup3\n          sload\n          sub\n          swap3\n          pop\n          pop\n          dup2\n          swap1\n          sstore\n          pop\n            /* \"Baby-ERC20/contracts/HCOIN.sol\":1737:1743  _value */\n          dup2\n            /* \"Baby-ERC20/contracts/HCOIN.sol\":1719:1728  balanceOf */\n          0x01\n            /* \"Baby-ERC20/contracts/HCOIN.sol\":1719:1733  balanceOf[_to] */\n          0x00\n            /* \"Baby-ERC20/contracts/HCOIN.sol\":1729:1732  _to */\n          dup6\n            /* \"Baby-ERC20/contracts/HCOIN.sol\":1719:1733  balanceOf[_to] */\n          0xffffffffffffffffffffffffffffffffffffffff\n          and\n          0xffffffffffffffffffffffffffffffffffffffff\n          and\n          dup2\n          mstore\n          0x20\n          add\n          swap1\n          dup2\n          mstore\n          0x20\n          add\n          0x00\n          keccak256\n          0x00\n            /* \"Baby-ERC20/contracts/HCOIN.sol\":1719:1743  balanceOf[_to] += _value */\n          dup3\n          dup3\n          sload\n          add\n          swap3\n          pop\n          pop\n          dup2\n          swap1\n          sstore\n          pop\n            /* \"Baby-ERC20/contracts/HCOIN.sol\":1785:1791  _value */\n          dup2\n            /* \"Baby-ERC20/contracts/HCOIN.sol\":1753:1762  allowance */\n          0x02\n            /* \"Baby-ERC20/contracts/HCOIN.sol\":1753:1769  allowance[_from] */\n          0x00\n            /* \"Baby-ERC20/contracts/HCOIN.sol\":1763:1768  _from */\n          dup7\n            /* \"Baby-ERC20/contracts/HCOIN.sol\":1753:1769  allowance[_from] */\n          0xffffffffffffffffffffffffffffffffffffffff\n          and\n          0xffffffffffffffffffffffffffffffffffffffff\n          and\n          dup2\n          mstore\n          0x20\n          add\n          swap1\n          dup2\n          mstore\n          0x20\n          add\n          0x00\n          keccak256\n            /* \"Baby-ERC20/contracts/HCOIN.sol\":1753:1781  allowance[_from][msg.sender] */\n          0x00\n            /* \"Baby-ERC20/contracts/HCOIN.sol\":1770:1780  msg.sender */\n          caller\n            /* \"Baby-ERC20/contracts/HCOIN.sol\":1753:1781  allowance[_from][msg.sender] */\n          0xffffffffffffffffffffffffffffffffffffffff\n          and\n          0xffffffffffffffffffffffffffffffffffffffff\n          and\n          dup2\n          mstore\n          0x20\n          add\n          swap1\n          dup2\n          mstore\n          0x20\n          add\n          0x00\n          keccak256\n          0x00\n            /* \"Baby-ERC20/contracts/HCOIN.sol\":1753:1791  allowance[_from][msg.sender] -= _value */\n          dup3\n          dup3\n          sload\n          sub\n          swap3\n          pop\n          pop\n          dup2\n          swap1\n          sstore\n          pop\n            /* \"Baby-ERC20/contracts/HCOIN.sol\":1822:1825  _to */\n          dup3\n            /* \"Baby-ERC20/contracts/HCOIN.sol\":1806:1834  Transfer(_from, _to, _value) */\n          0xffffffffffffffffffffffffffffffffffffffff\n          and\n            /* \"Baby-ERC20/contracts/HCOIN.sol\":1815:1820  _from */\n          dup5\n            /* \"Baby-ERC20/contracts/HCOIN.sol\":1806:1834  Transfer(_from, _to, _value) */\n          0xffffffffffffffffffffffffffffffffffffffff\n          and\n          0xddf252ad1be2c89b69c2b068fc378daa952ba7f163c4a11628f55a4df523b3ef\n            /* \"Baby-ERC20/contracts/HCOIN.sol\":1827:1833  _value */\n          dup5\n            /* \"Baby-ERC20/contracts/HCOIN.sol\":1806:1834  Transfer(_from, _to, _value) */\n          mload(0x40)\n          dup1\n          dup3\n          dup2\n          mstore\n          0x20\n          add\n          swap2\n          pop\n          pop\n          mload(0x40)\n          dup1\n          swap2\n          sub\n          swap1\n          log3\n            /* \"Baby-ERC20/contracts/HCOIN.sol\":1851:1855  true */\n          0x01\n            /* \"Baby-ERC20/contracts/HCOIN.sol\":1844:1855  return true */\n          swap1\n          pop\n            /* \"Baby-ERC20/contracts/HCOIN.sol\":1335:1862  function transferFrom(address _from, address _to, uint256 _value) onlyOwner public returns (bool success) {... */\n          swap4\n          swap3\n          pop\n          pop\n          pop\n          jump\t// out\n            /* \"Baby-ERC20/contracts/HCOIN.sol\":210:245  uint8 public constant decimals = 18 */\n        tag_36:\n            /* \"Baby-ERC20/contracts/HCOIN.sol\":243:245  18 */\n          0x12\n            /* \"Baby-ERC20/contracts/HCOIN.sol\":210:245  uint8 public constant decimals = 18 */\n          dup2\n          jump\t// out\n            /* \"Baby-ERC20/contracts/HCOIN.sol\":256:300  mapping(address => uint256) public balanceOf */\n        tag_40:\n          mstore(0x20, 0x01)\n          dup1\n          0x00\n          mstore\n          keccak256(0x00, 0x40)\n          0x00\n          swap2\n          pop\n          swap1\n          pop\n          sload\n          dup2\n          jump\t// out\n            /* \"Baby-ERC20/contracts/Ownable.sol\":639:716  function owner() public view returns (address) {... */\n        tag_43:\n            /* \"Baby-ERC20/contracts/Ownable.sol\":677:684  address */\n          0x00\n            /* \"Baby-ERC20/contracts/Ownable.sol\":703:709  _owner */\n          dup1\n          0x00\n          swap1\n          sload\n          swap1\n          0x0100\n          exp\n          swap1\n          div\n          0xffffffffffffffffffffffffffffffffffffffff\n          and\n            /* \"Baby-ERC20/contracts/Ownable.sol\":696:709  return _owner */\n          swap1\n          pop\n            /* \"Baby-ERC20/contracts/Ownable.sol\":639:716  function owner() public view returns (address) {... */\n          swap1\n          jump\t// out\n            /* \"Baby-ERC20/contracts/HCOIN.sol\":165:204  string public constant symbol = \"HCOIN\" */\n        tag_46:\n          mload(0x40)\n          dup1\n          0x40\n          add\n          0x40\n          mstore\n          dup1\n          0x05\n          dup2\n          mstore\n          0x20\n          add\n          0x48434f494e000000000000000000000000000000000000000000000000000000\n          dup2\n          mstore\n          pop\n          dup2\n          jump\t// out\n            /* \"Baby-ERC20/contracts/HCOIN.sol\":730:1111  function transfer(address _to, uint256 _value) public returns (bool success) {... */\n        tag_54:\n            /* \"Baby-ERC20/contracts/HCOIN.sol\":793:805  bool success */\n          0x00\n            /* \"Baby-ERC20/contracts/HCOIN.sol\":840:841  0 */\n          dup1\n            /* \"Baby-ERC20/contracts/HCOIN.sol\":825:842  _to != address(0) */\n          0xffffffffffffffffffffffffffffffffffffffff\n          and\n            /* \"Baby-ERC20/contracts/HCOIN.sol\":825:828  _to */\n          dup4\n            /* \"Baby-ERC20/contracts/HCOIN.sol\":825:842  _to != address(0) */\n          0xffffffffffffffffffffffffffffffffffffffff\n          and\n          eq\n          iszero\n            /* \"Baby-ERC20/contracts/HCOIN.sol\":817:882  require(_to != address(0), \"ERC20: transfer to the zero address\") */\n          tag_74\n          jumpi\n          mload(0x40)\n          0x08c379a000000000000000000000000000000000000000000000000000000000\n          dup2\n          mstore\n          0x04\n          add\n          dup1\n          dup1\n          0x20\n          add\n          dup3\n          dup2\n          sub\n          dup3\n          mstore\n          0x23\n          dup2\n          mstore\n          0x20\n          add\n          dup1\n          data_0557e210f7a69a685100a7e4e3d0a7024c546085cee28910fd17d0b081d9516f\n          0x23\n          swap2\n          codecopy\n          0x40\n          add\n          swap2\n          pop\n          pop\n          mload(0x40)\n          dup1\n          swap2\n          sub\n          swap1\n          revert\n        tag_74:\n            /* \"Baby-ERC20/contracts/HCOIN.sol\":934:935  0 */\n          0x00\n            /* \"Baby-ERC20/contracts/HCOIN.sol\":924:930  _value */\n          dup3\n            /* \"Baby-ERC20/contracts/HCOIN.sol\":900:909  balanceOf */\n          0x01\n            /* \"Baby-ERC20/contracts/HCOIN.sol\":900:921  balanceOf[msg.sender] */\n          0x00\n            /* \"Baby-ERC20/contracts/HCOIN.sol\":910:920  msg.sender */\n          caller\n            /* \"Baby-ERC20/contracts/HCOIN.sol\":900:921  balanceOf[msg.sender] */\n          0xffffffffffffffffffffffffffffffffffffffff\n          and\n          0xffffffffffffffffffffffffffffffffffffffff\n          and\n          dup2\n          mstore\n          0x20\n          add\n          swap1\n          dup2\n          mstore\n          0x20\n          add\n          0x00\n          keccak256\n          sload\n            /* \"Baby-ERC20/contracts/HCOIN.sol\":900:930  balanceOf[msg.sender] - _value */\n          sub\n            /* \"Baby-ERC20/contracts/HCOIN.sol\":900:935  balanceOf[msg.sender] - _value >= 0 */\n          lt\n          iszero\n            /* \"Baby-ERC20/contracts/HCOIN.sol\":892:960  require(balanceOf[msg.sender] - _value >= 0, \"Insufficient Balance\") */\n          tag_75\n          jumpi\n          mload(0x40)\n          0x08c379a000000000000000000000000000000000000000000000000000000000\n          dup2\n          mstore\n          0x04\n          add\n          dup1\n          dup1\n          0x20\n          add\n          dup3\n          dup2\n          sub\n          dup3\n          mstore\n          0x14\n          dup2\n          mstore\n          0x20\n          add\n          dup1\n          0x496e73756666696369656e742042616c616e6365000000000000000000000000\n          dup2\n          mstore\n          pop\n          0x20\n          add\n          swap2\n          pop\n          pop\n          mload(0x40)\n          dup1\n          swap2\n          sub\n          swap1\n          revert\n        tag_75:\n            /* \"Baby-ERC20/contracts/HCOIN.sol\":995:1001  _value */\n          dup2\n            /* \"Baby-ERC20/contracts/HCOIN.sol\":970:979  balanceOf */\n          0x01\n            /* \"Baby-ERC20/contracts/HCOIN.sol\":970:991  balanceOf[msg.sender] */\n          0x00\n            /* \"Baby-ERC20/contracts/HCOIN.sol\":980:990  msg.sender */\n          caller\n            /* \"Baby-ERC20/contracts/HCOIN.sol\":970:991  balanceOf[msg.sender] */\n          0xffffffffffffffffffffffffffffffffffffffff\n          and\n          0xffffffffffffffffffffffffffffffffffffffff\n          and\n          dup2\n          mstore\n          0x20\n          add\n          swap1\n          dup2\n          mstore\n          0x20\n          add\n          0x00\n          keccak256\n          0x00\n            /* \"Baby-ERC20/contracts/HCOIN.sol\":970:1001  balanceOf[msg.sender] -= _value */\n          dup3\n          dup3\n          sload\n          sub\n          swap3\n          pop\n          pop\n          dup2\n          swap1\n          sstore\n          pop\n            /* \"Baby-ERC20/contracts/HCOIN.sol\":1029:1035  _value */\n          dup2\n            /* \"Baby-ERC20/contracts/HCOIN.sol\":1011:1020  balanceOf */\n          0x01\n            /* \"Baby-ERC20/contracts/HCOIN.sol\":1011:1025  balanceOf[_to] */\n          0x00\n            /* \"Baby-ERC20/contracts/HCOIN.sol\":1021:1024  _to */\n          dup6\n            /* \"Baby-ERC20/contracts/HCOIN.sol\":1011:1025  balanceOf[_to] */\n          0xffffffffffffffffffffffffffffffffffffffff\n          and\n          0xffffffffffffffffffffffffffffffffffffffff\n          and\n          dup2\n          mstore\n          0x20\n          add\n          swap1\n          dup2\n          mstore\n          0x20\n          add\n          0x00\n          keccak256\n          0x00\n            /* \"Baby-ERC20/contracts/HCOIN.sol\":1011:1035  balanceOf[_to] += _value */\n          dup3\n          dup3\n          sload\n          add\n          swap3\n          pop\n          pop\n          dup2\n          swap1\n          sstore\n          pop\n            /* \"Baby-ERC20/contracts/HCOIN.sol\":1071:1074  _to */\n          dup3\n            /* \"Baby-ERC20/contracts/HCOIN.sol\":1050:1083  Transfer(msg.sender, _to, _value) */\n          0xffffffffffffffffffffffffffffffffffffffff\n          and\n            /* \"Baby-ERC20/contracts/HCOIN.sol\":1059:1069  msg.sender */\n          caller\n            /* \"Baby-ERC20/contracts/HCOIN.sol\":1050:1083  Transfer(msg.sender, _to, _value) */\n          0xffffffffffffffffffffffffffffffffffffffff\n          and\n          0xddf252ad1be2c89b69c2b068fc378daa952ba7f163c4a11628f55a4df523b3ef\n            /* \"Baby-ERC20/contracts/HCOIN.sol\":1076:1082  _value */\n          dup5\n            /* \"Baby-ERC20/contracts/HCOIN.sol\":1050:1083  Transfer(msg.sender, _to, _value) */\n          mload(0x40)\n          dup1\n          dup3\n          dup2\n          mstore\n          0x20\n          add\n          swap2\n          pop\n          pop\n          mload(0x40)\n          dup1\n          swap2\n          sub\n          swap1\n          log3\n            /* \"Baby-ERC20/contracts/HCOIN.sol\":1100:1104  true */\n          0x01\n            /* \"Baby-ERC20/contracts/HCOIN.sol\":1093:1104  return true */\n          swap1\n          pop\n            /* \"Baby-ERC20/contracts/HCOIN.sol\":730:1111  function transfer(address _to, uint256 _value) public returns (bool success) {... */\n          swap3\n          swap2\n          pop\n          pop\n          jump\t// out\n            /* \"Baby-ERC20/contracts/HCOIN.sol\":306:370  mapping(address => mapping(address => uint256)) public allowance */\n        tag_59:\n          mstore(0x20, 0x02)\n          dup2\n          0x00\n          mstore\n          mstore(0x20, keccak256(0x00, 0x40))\n          dup1\n          0x00\n          mstore\n          keccak256(0x00, 0x40)\n          0x00\n          swap2\n          pop\n          swap2\n          pop\n          pop\n          sload\n          dup2\n          jump\t// out\n            /* \"Baby-ERC20/contracts/Ownable.sol\":1089:1329  function transferOwnership(address newOwner) public virtual onlyOwner {... */\n        tag_63:\n            /* \"Baby-ERC20/contracts/Ownable.sol\":853:863  msg.sender */\n          caller\n            /* \"Baby-ERC20/contracts/Ownable.sol\":843:863  _owner == msg.sender */\n          0xffffffffffffffffffffffffffffffffffffffff\n          and\n            /* \"Baby-ERC20/contracts/Ownable.sol\":843:849  _owner */\n          0x00\n          dup1\n          sload\n          swap1\n          0x0100\n          exp\n          swap1\n          div\n          0xffffffffffffffffffffffffffffffffffffffff\n          and\n            /* \"Baby-ERC20/contracts/Ownable.sol\":843:863  _owner == msg.sender */\n          0xffffffffffffffffffffffffffffffffffffffff\n          and\n          eq\n            /* \"Baby-ERC20/contracts/Ownable.sol\":835:900  require(_owner == msg.sender, \"Ownable: caller is not the owner\") */\n          tag_77\n          jumpi\n          mload(0x40)\n          0x08c379a000000000000000000000000000000000000000000000000000000000\n          dup2\n          mstore\n          0x04\n          add\n          dup1\n          dup1\n          0x20\n          add\n          dup3\n          dup2\n          sub\n          dup3\n          mstore\n          0x20\n          dup2\n          mstore\n          0x20\n          add\n          dup1\n          0x4f776e61626c653a2063616c6c6572206973206e6f7420746865206f776e6572\n          dup2\n          mstore\n          pop\n          0x20\n          add\n          swap2\n          pop\n          pop\n          mload(0x40)\n          dup1\n          swap2\n          sub\n          swap1\n          revert\n        tag_77:\n            /* \"Baby-ERC20/contracts/Ownable.sol\":1197:1198  0 */\n          0x00\n            /* \"Baby-ERC20/contracts/Ownable.sol\":1177:1199  newOwner != address(0) */\n          0xffffffffffffffffffffffffffffffffffffffff\n          and\n            /* \"Baby-ERC20/contracts/Ownable.sol\":1177:1185  newOwner */\n          dup2\n            /* \"Baby-ERC20/contracts/Ownable.sol\":1177:1199  newOwner != address(0) */\n          0xffffffffffffffffffffffffffffffffffffffff\n          and\n          eq\n          iszero\n            /* \"Baby-ERC20/contracts/Ownable.sol\":1169:1242  require(newOwner != address(0), \"Ownable: new owner is the zero address\") */\n          tag_79\n          jumpi\n          mload(0x40)\n          0x08c379a000000000000000000000000000000000000000000000000000000000\n          dup2\n          mstore\n          0x04\n          add\n          dup1\n          dup1\n          0x20\n          add\n          dup3\n          dup2\n          sub\n          dup3\n          mstore\n          0x26\n          dup2\n          mstore\n          0x20\n          add\n          dup1\n          data_245f15ff17f551913a7a18385165551503906a406f905ac1c2437281a7cd0cfe\n          0x26\n          swap2\n          codecopy\n          0x40\n          add\n          swap2\n          pop\n          pop\n          mload(0x40)\n          dup1\n          swap2\n          sub\n          swap1\n          revert\n        tag_79:\n            /* \"Baby-ERC20/contracts/Ownable.sol\":1286:1294  newOwner */\n          dup1\n            /* \"Baby-ERC20/contracts/Ownable.sol\":1257:1295  OwnershipTransferred(_owner, newOwner) */\n          0xffffffffffffffffffffffffffffffffffffffff\n          and\n            /* \"Baby-ERC20/contracts/Ownable.sol\":1278:1284  _owner */\n          0x00\n          dup1\n          sload\n          swap1\n          0x0100\n          exp\n          swap1\n          div\n          0xffffffffffffffffffffffffffffffffffffffff\n          and\n            /* \"Baby-ERC20/contracts/Ownable.sol\":1257:1295  OwnershipTransferred(_owner, newOwner) */\n          0xffffffffffffffffffffffffffffffffffffffff\n          and\n          0x8be0079c531659141344cd1fd0a4f28419497f9722a3daafe3b4186f6b6457e0\n          mload(0x40)\n          mload(0x40)\n          dup1\n          swap2\n          sub\n          swap1\n          log3\n            /* \"Baby-ERC20/contracts/Ownable.sol\":1314:1322  newOwner */\n          dup1\n            /* \"Baby-ERC20/contracts/Ownable.sol\":1305:1311  _owner */\n          0x00\n          dup1\n            /* \"Baby-ERC20/contracts/Ownable.sol\":1305:1322  _owner = newOwner */\n          0x0100\n          exp\n          dup2\n          sload\n          dup2\n          0xffffffffffffffffffffffffffffffffffffffff\n          mul\n          not\n          and\n          swap1\n          dup4\n          0xffffffffffffffffffffffffffffffffffffffff\n          and\n          mul\n          or\n          swap1\n          sstore\n          pop\n            /* \"Baby-ERC20/contracts/Ownable.sol\":1089:1329  function transferOwnership(address newOwner) public virtual onlyOwner {... */\n          pop\n          jump\t// out\n        stop\n        data_0557e210f7a69a685100a7e4e3d0a7024c546085cee28910fd17d0b081d9516f 45524332303a207472616e7366657220746f20746865207a65726f2061646472657373\n        data_245f15ff17f551913a7a18385165551503906a406f905ac1c2437281a7cd0cfe 4f776e61626c653a206e6577206f776e657220697320746865207a65726f2061646472657373\n\n        auxdata: 0xa2646970667358221220342876eaaf4728afa689bb42fad9393bc7d9a27cb57a1d62d10dbe2d5c14e97d64736f6c634300060c0033\n    }\n}\n",
				"bytecode": {
					"linkReferences": {},
					"object": "6080604052670de0b6b3a7640000341461001857600080fd5b6040516100249061010e565b604051809103906000f080158015610040573d6000803e3d6000fd5b506000806101000a81548173ffffffffffffffffffffffffffffffffffffffff021916908373ffffffffffffffffffffffffffffffffffffffff16021790555060008054906101000a900473ffffffffffffffffffffffffffffffffffffffff1673ffffffffffffffffffffffffffffffffffffffff1663d0e30db0670de0b6b3a76400006040518263ffffffff1660e01b81526004016000604051808303818588803b1580156100f057600080fd5b505af1158015610104573d6000803e3d6000fd5b505050505061011b565b61118b806104ec83390190565b6103c28061012a6000396000f3fe608060405234801561001057600080fd5b50600436106100415760003560e01c806311df99951461004657806364d98f6e1461007a578063bc8d3ac41461009a575b600080fd5b61004e6100de565b604051808273ffffffffffffffffffffffffffffffffffffffff16815260200191505060405180910390f35b610082610102565b60405180821515815260200191505060405180910390f35b6100dc600480360360208110156100b057600080fd5b81019080803573ffffffffffffffffffffffffffffffffffffffff1690602001909291905050506101f8565b005b60008054906101000a900473ffffffffffffffffffffffffffffffffffffffff1681565b6000683635c9adc5dea0000060008054906101000a900473ffffffffffffffffffffffffffffffffffffffff1673ffffffffffffffffffffffffffffffffffffffff166370a08231600160009054906101000a900473ffffffffffffffffffffffffffffffffffffffff166040518263ffffffff1660e01b8152600401808273ffffffffffffffffffffffffffffffffffffffff16815260200191505060206040518083038186803b1580156101b757600080fd5b505afa1580156101cb573d6000803e3d6000fd5b505050506040513d60208110156101e157600080fd5b810190808051906020019092919050505011905090565b3373ffffffffffffffffffffffffffffffffffffffff168173ffffffffffffffffffffffffffffffffffffffff161461027c576040517f08c379a00000000000000000000000000000000000000000000000000000000081526004018080602001828103825260278152602001806103456027913960400191505060405180910390fd5b3273ffffffffffffffffffffffffffffffffffffffff168173ffffffffffffffffffffffffffffffffffffffff1614610300576040517f08c379a000000000000000000000000000000000000000000000000000000000815260040180806020018281038252602181526020018061036c6021913960400191505060405180910390fd5b80600160006101000a81548173ffffffffffffffffffffffffffffffffffffffff021916908373ffffffffffffffffffffffffffffffffffffffff1602179055505056fe506c61796572206d757374206265207468652073616d652077697468207468652073656e646572506c61796572206d75737420626520612076616c69642057616c6c65742f454f41a2646970667358221220ff0d3a4f04809f6193f2a4407c32475b382d6d17ad17f58633e439f22a6e7b4064736f6c634300060c0033608060405234801561001057600080fd5b50336000806101000a81548173ffffffffffffffffffffffffffffffffffffffff021916908373ffffffffffffffffffffffffffffffffffffffff16021790555060008054906101000a900473ffffffffffffffffffffffffffffffffffffffff1673ffffffffffffffffffffffffffffffffffffffff16600073ffffffffffffffffffffffffffffffffffffffff167f8be0079c531659141344cd1fd0a4f28419497f9722a3daafe3b4186f6b6457e060405160405180910390a36110b0806100db6000396000f3fe6080604052600436106100a05760003560e01c80638da5cb5b116100645780638da5cb5b146102d057806395d89b4114610311578063a9059cbb146103a1578063d0e30db014610412578063dd62ed3e1461041c578063f2fde38b146104a1576100a1565b806306fdde03146100ab578063095ea7b31461013b57806323b872dd146101ac578063313ce5671461023d57806370a082311461026b576100a1565b5b6100a96104f2565b005b3480156100b757600080fd5b506100c061058f565b6040518080602001828103825283818151815260200191508051906020019080838360005b838110156101005780820151818401526020810190506100e5565b50505050905090810190601f16801561012d5780820380516001836020036101000a031916815260200191505b509250505060405180910390f35b34801561014757600080fd5b506101946004803603604081101561015e57600080fd5b81019080803573ffffffffffffffffffffffffffffffffffffffff169060200190929190803590602001909291905050506105c8565b60405180821515815260200191505060405180910390f35b3480156101b857600080fd5b50610225600480360360608110156101cf57600080fd5b81019080803573ffffffffffffffffffffffffffffffffffffffff169060200190929190803573ffffffffffffffffffffffffffffffffffffffff169060200190929190803590602001909291905050506106ba565b60405180821515815260200191505060405180910390f35b34801561024957600080fd5b50610252610b41565b604051808260ff16815260200191505060405180910390f35b34801561027757600080fd5b506102ba6004803603602081101561028e57600080fd5b81019080803573ffffffffffffffffffffffffffffffffffffffff169060200190929190505050610b46565b6040518082815260200191505060405180910390f35b3480156102dc57600080fd5b506102e5610b5e565b604051808273ffffffffffffffffffffffffffffffffffffffff16815260200191505060405180910390f35b34801561031d57600080fd5b50610326610b87565b6040518080602001828103825283818151815260200191508051906020019080838360005b8381101561036657808201518184015260208101905061034b565b50505050905090810190601f1680156103935780820380516001836020036101000a031916815260200191505b509250505060405180910390f35b3480156103ad57600080fd5b506103fa600480360360408110156103c457600080fd5b81019080803573ffffffffffffffffffffffffffffffffffffffff16906020019092919080359060200190929190505050610bc0565b60405180821515815260200191505060405180910390f35b61041a6104f2565b005b34801561042857600080fd5b5061048b6004803603604081101561043f57600080fd5b81019080803573ffffffffffffffffffffffffffffffffffffffff169060200190929190803573ffffffffffffffffffffffffffffffffffffffff169060200190929190505050610e08565b6040518082815260200191505060405180910390f35b3480156104ad57600080fd5b506104f0600480360360208110156104c457600080fd5b81019080803573ffffffffffffffffffffffffffffffffffffffff169060200190929190505050610e2d565b005b34600160003373ffffffffffffffffffffffffffffffffffffffff1673ffffffffffffffffffffffffffffffffffffffff168152602001908152602001600020600082825401925050819055503373ffffffffffffffffffffffffffffffffffffffff167fe1fffcc4923d04b559f4d29a8bfc6cda04eb5b0d3c460751c2402c5c5cc9109c346040518082815260200191505060405180910390a2565b6040518060400160405280600d81526020017f4861636b6572696b61436f696e0000000000000000000000000000000000000081525081565b600081600260003373ffffffffffffffffffffffffffffffffffffffff1673ffffffffffffffffffffffffffffffffffffffff16815260200190815260200160002060008573ffffffffffffffffffffffffffffffffffffffff1673ffffffffffffffffffffffffffffffffffffffff168152602001908152602001600020819055508273ffffffffffffffffffffffffffffffffffffffff163373ffffffffffffffffffffffffffffffffffffffff167f8c5be1e5ebec7d5bd14f71427d1e84f3dd0314c0f7b2291e5b200ac8c7c3b925846040518082815260200191505060405180910390a36001905092915050565b60003373ffffffffffffffffffffffffffffffffffffffff1660008054906101000a900473ffffffffffffffffffffffffffffffffffffffff1673ffffffffffffffffffffffffffffffffffffffff161461077d576040517f08c379a00000000000000000000000000000000000000000000000000000000081526004018080602001828103825260208152602001807f4f776e61626c653a2063616c6c6572206973206e6f7420746865206f776e657281525060200191505060405180910390fd5b81600260008673ffffffffffffffffffffffffffffffffffffffff1673ffffffffffffffffffffffffffffffffffffffff16815260200190815260200160002060003373ffffffffffffffffffffffffffffffffffffffff1673ffffffffffffffffffffffffffffffffffffffff16815260200190815260200160002054101561086f576040517f08c379a00000000000000000000000000000000000000000000000000000000081526004018080602001828103825260128152602001807f416c6c6f77616e6365206578636565646564000000000000000000000000000081525060200191505060405180910390fd5b600073ffffffffffffffffffffffffffffffffffffffff168373ffffffffffffffffffffffffffffffffffffffff1614156108f5576040517f08c379a00000000000000000000000000000000000000000000000000000000081526004018080602001828103825260238152602001806110326023913960400191505060405180910390fd5b600082600160003373ffffffffffffffffffffffffffffffffffffffff1673ffffffffffffffffffffffffffffffffffffffff168152602001908152602001600020540310156109ad576040517f08c379a00000000000000000000000000000000000000000000000000000000081526004018080602001828103825260148152602001807f496e73756666696369656e742042616c616e636500000000000000000000000081525060200191505060405180910390fd5b81600160008673ffffffffffffffffffffffffffffffffffffffff1673ffffffffffffffffffffffffffffffffffffffff1681526020019081526020016000206000828254039250508190555081600160008573ffffffffffffffffffffffffffffffffffffffff1673ffffffffffffffffffffffffffffffffffffffff1681526020019081526020016000206000828254019250508190555081600260008673ffffffffffffffffffffffffffffffffffffffff1673ffffffffffffffffffffffffffffffffffffffff16815260200190815260200160002060003373ffffffffffffffffffffffffffffffffffffffff1673ffffffffffffffffffffffffffffffffffffffff168152602001908152602001600020600082825403925050819055508273ffffffffffffffffffffffffffffffffffffffff168473ffffffffffffffffffffffffffffffffffffffff167fddf252ad1be2c89b69c2b068fc378daa952ba7f163c4a11628f55a4df523b3ef846040518082815260200191505060405180910390a3600190509392505050565b601281565b60016020528060005260406000206000915090505481565b60008060009054906101000a900473ffffffffffffffffffffffffffffffffffffffff16905090565b6040518060400160405280600581526020017f48434f494e00000000000000000000000000000000000000000000000000000081525081565b60008073ffffffffffffffffffffffffffffffffffffffff168373ffffffffffffffffffffffffffffffffffffffff161415610c47576040517f08c379a00000000000000000000000000000000000000000000000000000000081526004018080602001828103825260238152602001806110326023913960400191505060405180910390fd5b600082600160003373ffffffffffffffffffffffffffffffffffffffff1673ffffffffffffffffffffffffffffffffffffffff16815260200190815260200160002054031015610cff576040517f08c379a00000000000000000000000000000000000000000000000000000000081526004018080602001828103825260148152602001807f496e73756666696369656e742042616c616e636500000000000000000000000081525060200191505060405180910390fd5b81600160003373ffffffffffffffffffffffffffffffffffffffff1673ffffffffffffffffffffffffffffffffffffffff1681526020019081526020016000206000828254039250508190555081600160008573ffffffffffffffffffffffffffffffffffffffff1673ffffffffffffffffffffffffffffffffffffffff168152602001908152602001600020600082825401925050819055508273ffffffffffffffffffffffffffffffffffffffff163373ffffffffffffffffffffffffffffffffffffffff167fddf252ad1be2c89b69c2b068fc378daa952ba7f163c4a11628f55a4df523b3ef846040518082815260200191505060405180910390a36001905092915050565b6002602052816000526040600020602052806000526040600020600091509150505481565b3373ffffffffffffffffffffffffffffffffffffffff1660008054906101000a900473ffffffffffffffffffffffffffffffffffffffff1673ffffffffffffffffffffffffffffffffffffffff1614610eee576040517f08c379a00000000000000000000000000000000000000000000000000000000081526004018080602001828103825260208152602001807f4f776e61626c653a2063616c6c6572206973206e6f7420746865206f776e657281525060200191505060405180910390fd5b600073ffffffffffffffffffffffffffffffffffffffff168173ffffffffffffffffffffffffffffffffffffffff161415610f74576040517f08c379a00000000000000000000000000000000000000000000000000000000081526004018080602001828103825260268152602001806110556026913960400191505060405180910390fd5b8073ffffffffffffffffffffffffffffffffffffffff1660008054906101000a900473ffffffffffffffffffffffffffffffffffffffff1673ffffffffffffffffffffffffffffffffffffffff167f8be0079c531659141344cd1fd0a4f28419497f9722a3daafe3b4186f6b6457e060405160405180910390a3806000806101000a81548173ffffffffffffffffffffffffffffffffffffffff021916908373ffffffffffffffffffffffffffffffffffffffff1602179055505056fe45524332303a207472616e7366657220746f20746865207a65726f20616464726573734f776e61626c653a206e6577206f776e657220697320746865207a65726f2061646472657373a2646970667358221220342876eaaf4728afa689bb42fad9393bc7d9a27cb57a1d62d10dbe2d5c14e97d64736f6c634300060c0033",
					"opcodes": "PUSH1 0x80 PUSH1 0x40 MSTORE PUSH8 0xDE0B6B3A7640000 CALLVALUE EQ PUSH2 0x18 JUMPI PUSH1 0x0 DUP1 REVERT JUMPDEST PUSH1 0x40 MLOAD PUSH2 0x24 SWAP1 PUSH2 0x10E JUMP JUMPDEST PUSH1 0x40 MLOAD DUP1 SWAP2 SUB SWAP1 PUSH1 0x0 CREATE DUP1 ISZERO DUP1 ISZERO PUSH2 0x40 JUMPI RETURNDATASIZE PUSH1 0x0 DUP1 RETURNDATACOPY RETURNDATASIZE PUSH1 0x0 REVERT JUMPDEST POP PUSH1 0x0 DUP1 PUSH2 0x100 EXP DUP2 SLOAD DUP2 PUSH20 0xFFFFFFFFFFFFFFFFFFFFFFFFFFFFFFFFFFFFFFFF MUL NOT AND SWAP1 DUP4 PUSH20 0xFFFFFFFFFFFFFFFFFFFFFFFFFFFFFFFFFFFFFFFF AND MUL OR SWAP1 SSTORE POP PUSH1 0x0 DUP1 SLOAD SWAP1 PUSH2 0x100 EXP SWAP1 DIV PUSH20 0xFFFFFFFFFFFFFFFFFFFFFFFFFFFFFFFFFFFFFFFF AND PUSH20 0xFFFFFFFFFFFFFFFFFFFFFFFFFFFFFFFFFFFFFFFF AND PUSH4 0xD0E30DB0 PUSH8 0xDE0B6B3A7640000 PUSH1 0x40 MLOAD DUP3 PUSH4 0xFFFFFFFF AND PUSH1 0xE0 SHL DUP2 MSTORE PUSH1 0x4 ADD PUSH1 0x0 PUSH1 0x40 MLOAD DUP1 DUP4 SUB DUP2 DUP6 DUP9 DUP1 EXTCODESIZE ISZERO DUP1 ISZERO PUSH2 0xF0 JUMPI PUSH1 0x0 DUP1 REVERT JUMPDEST POP GAS CALL ISZERO DUP1 ISZERO PUSH2 0x104 JUMPI RETURNDATASIZE PUSH1 0x0 DUP1 RETURNDATACOPY RETURNDATASIZE PUSH1 0x0 REVERT JUMPDEST POP POP POP POP POP PUSH2 0x11B JUMP JUMPDEST PUSH2 0x118B DUP1 PUSH2 0x4EC DUP4 CODECOPY ADD SWAP1 JUMP JUMPDEST PUSH2 0x3C2 DUP1 PUSH2 0x12A PUSH1 0x0 CODECOPY PUSH1 0x0 RETURN INVALID PUSH1 0x80 PUSH1 0x40 MSTORE CALLVALUE DUP1 ISZERO PUSH2 0x10 JUMPI PUSH1 0x0 DUP1 REVERT JUMPDEST POP PUSH1 0x4 CALLDATASIZE LT PUSH2 0x41 JUMPI PUSH1 0x0 CALLDATALOAD PUSH1 0xE0 SHR DUP1 PUSH4 0x11DF9995 EQ PUSH2 0x46 JUMPI DUP1 PUSH4 0x64D98F6E EQ PUSH2 0x7A JUMPI DUP1 PUSH4 0xBC8D3AC4 EQ PUSH2 0x9A JUMPI JUMPDEST PUSH1 0x0 DUP1 REVERT JUMPDEST PUSH2 0x4E PUSH2 0xDE JUMP JUMPDEST PUSH1 0x40 MLOAD DUP1 DUP3 PUSH20 0xFFFFFFFFFFFFFFFFFFFFFFFFFFFFFFFFFFFFFFFF AND DUP2 MSTORE PUSH1 0x20 ADD SWAP2 POP POP PUSH1 0x40 MLOAD DUP1 SWAP2 SUB SWAP1 RETURN JUMPDEST PUSH2 0x82 PUSH2 0x102 JUMP JUMPDEST PUSH1 0x40 MLOAD DUP1 DUP3 ISZERO ISZERO DUP2 MSTORE PUSH1 0x20 ADD SWAP2 POP POP PUSH1 0x40 MLOAD DUP1 SWAP2 SUB SWAP1 RETURN JUMPDEST PUSH2 0xDC PUSH1 0x4 DUP1 CALLDATASIZE SUB PUSH1 0x20 DUP2 LT ISZERO PUSH2 0xB0 JUMPI PUSH1 0x0 DUP1 REVERT JUMPDEST DUP2 ADD SWAP1 DUP1 DUP1 CALLDATALOAD PUSH20 0xFFFFFFFFFFFFFFFFFFFFFFFFFFFFFFFFFFFFFFFF AND SWAP1 PUSH1 0x20 ADD SWAP1 SWAP3 SWAP2 SWAP1 POP POP POP PUSH2 0x1F8 JUMP JUMPDEST STOP JUMPDEST PUSH1 0x0 DUP1 SLOAD SWAP1 PUSH2 0x100 EXP SWAP1 DIV PUSH20 0xFFFFFFFFFFFFFFFFFFFFFFFFFFFFFFFFFFFFFFFF AND DUP2 JUMP JUMPDEST PUSH1 0x0 PUSH9 0x3635C9ADC5DEA00000 PUSH1 0x0 DUP1 SLOAD SWAP1 PUSH2 0x100 EXP SWAP1 DIV PUSH20 0xFFFFFFFFFFFFFFFFFFFFFFFFFFFFFFFFFFFFFFFF AND PUSH20 0xFFFFFFFFFFFFFFFFFFFFFFFFFFFFFFFFFFFFFFFF AND PUSH4 0x70A08231 PUSH1 0x1 PUSH1 0x0 SWAP1 SLOAD SWAP1 PUSH2 0x100 EXP SWAP1 DIV PUSH20 0xFFFFFFFFFFFFFFFFFFFFFFFFFFFFFFFFFFFFFFFF AND PUSH1 0x40 MLOAD DUP3 PUSH4 0xFFFFFFFF AND PUSH1 0xE0 SHL DUP2 MSTORE PUSH1 0x4 ADD DUP1 DUP3 PUSH20 0xFFFFFFFFFFFFFFFFFFFFFFFFFFFFFFFFFFFFFFFF AND DUP2 MSTORE PUSH1 0x20 ADD SWAP2 POP POP PUSH1 0x20 PUSH1 0x40 MLOAD DUP1 DUP4 SUB DUP2 DUP7 DUP1 EXTCODESIZE ISZERO DUP1 ISZERO PUSH2 0x1B7 JUMPI PUSH1 0x0 DUP1 REVERT JUMPDEST POP GAS STATICCALL ISZERO DUP1 ISZERO PUSH2 0x1CB JUMPI RETURNDATASIZE PUSH1 0x0 DUP1 RETURNDATACOPY RETURNDATASIZE PUSH1 0x0 REVERT JUMPDEST POP POP POP POP PUSH1 0x40 MLOAD RETURNDATASIZE PUSH1 0x20 DUP2 LT ISZERO PUSH2 0x1E1 JUMPI PUSH1 0x0 DUP1 REVERT JUMPDEST DUP2 ADD SWAP1 DUP1 DUP1 MLOAD SWAP1 PUSH1 0x20 ADD SWAP1 SWAP3 SWAP2 SWAP1 POP POP POP GT SWAP1 POP SWAP1 JUMP JUMPDEST CALLER PUSH20 0xFFFFFFFFFFFFFFFFFFFFFFFFFFFFFFFFFFFFFFFF AND DUP2 PUSH20 0xFFFFFFFFFFFFFFFFFFFFFFFFFFFFFFFFFFFFFFFF AND EQ PUSH2 0x27C JUMPI PUSH1 0x40 MLOAD PUSH32 0x8C379A000000000000000000000000000000000000000000000000000000000 DUP2 MSTORE PUSH1 0x4 ADD DUP1 DUP1 PUSH1 0x20 ADD DUP3 DUP2 SUB DUP3 MSTORE PUSH1 0x27 DUP2 MSTORE PUSH1 0x20 ADD DUP1 PUSH2 0x345 PUSH1 0x27 SWAP2 CODECOPY PUSH1 0x40 ADD SWAP2 POP POP PUSH1 0x40 MLOAD DUP1 SWAP2 SUB SWAP1 REVERT JUMPDEST ORIGIN PUSH20 0xFFFFFFFFFFFFFFFFFFFFFFFFFFFFFFFFFFFFFFFF AND DUP2 PUSH20 0xFFFFFFFFFFFFFFFFFFFFFFFFFFFFFFFFFFFFFFFF AND EQ PUSH2 0x300 JUMPI PUSH1 0x40 MLOAD PUSH32 0x8C379A000000000000000000000000000000000000000000000000000000000 DUP2 MSTORE PUSH1 0x4 ADD DUP1 DUP1 PUSH1 0x20 ADD DUP3 DUP2 SUB DUP3 MSTORE PUSH1 0x21 DUP2 MSTORE PUSH1 0x20 ADD DUP1 PUSH2 0x36C PUSH1 0x21 SWAP2 CODECOPY PUSH1 0x40 ADD SWAP2 POP POP PUSH1 0x40 MLOAD DUP1 SWAP2 SUB SWAP1 REVERT JUMPDEST DUP1 PUSH1 0x1 PUSH1 0x0 PUSH2 0x100 EXP DUP2 SLOAD DUP2 PUSH20 0xFFFFFFFFFFFFFFFFFFFFFFFFFFFFFFFFFFFFFFFF MUL NOT AND SWAP1 DUP4 PUSH20 0xFFFFFFFFFFFFFFFFFFFFFFFFFFFFFFFFFFFFFFFF AND MUL OR SWAP1 SSTORE POP POP JUMP INVALID POP PUSH13 0x61796572206D75737420626520 PUSH21 0x68652073616D652077697468207468652073656E64 PUSH6 0x72506C617965 PUSH19 0x206D75737420626520612076616C6964205761 PUSH13 0x6C65742F454F41A26469706673 PC 0x22 SLT KECCAK256 SELFDESTRUCT 0xD GASPRICE 0x4F DIV DUP1 SWAP16 PUSH2 0x93F2 LOG4 BLOCKHASH PUSH29 0x32475B382D6D17AD17F58633E439F22A6E7B4064736F6C634300060C00 CALLER PUSH1 0x80 PUSH1 0x40 MSTORE CALLVALUE DUP1 ISZERO PUSH2 0x10 JUMPI PUSH1 0x0 DUP1 REVERT JUMPDEST POP CALLER PUSH1 0x0 DUP1 PUSH2 0x100 EXP DUP2 SLOAD DUP2 PUSH20 0xFFFFFFFFFFFFFFFFFFFFFFFFFFFFFFFFFFFFFFFF MUL NOT AND SWAP1 DUP4 PUSH20 0xFFFFFFFFFFFFFFFFFFFFFFFFFFFFFFFFFFFFFFFF AND MUL OR SWAP1 SSTORE POP PUSH1 0x0 DUP1 SLOAD SWAP1 PUSH2 0x100 EXP SWAP1 DIV PUSH20 0xFFFFFFFFFFFFFFFFFFFFFFFFFFFFFFFFFFFFFFFF AND PUSH20 0xFFFFFFFFFFFFFFFFFFFFFFFFFFFFFFFFFFFFFFFF AND PUSH1 0x0 PUSH20 0xFFFFFFFFFFFFFFFFFFFFFFFFFFFFFFFFFFFFFFFF AND PUSH32 0x8BE0079C531659141344CD1FD0A4F28419497F9722A3DAAFE3B4186F6B6457E0 PUSH1 0x40 MLOAD PUSH1 0x40 MLOAD DUP1 SWAP2 SUB SWAP1 LOG3 PUSH2 0x10B0 DUP1 PUSH2 0xDB PUSH1 0x0 CODECOPY PUSH1 0x0 RETURN INVALID PUSH1 0x80 PUSH1 0x40 MSTORE PUSH1 0x4 CALLDATASIZE LT PUSH2 0xA0 JUMPI PUSH1 0x0 CALLDATALOAD PUSH1 0xE0 SHR DUP1 PUSH4 0x8DA5CB5B GT PUSH2 0x64 JUMPI DUP1 PUSH4 0x8DA5CB5B EQ PUSH2 0x2D0 JUMPI DUP1 PUSH4 0x95D89B41 EQ PUSH2 0x311 JUMPI DUP1 PUSH4 0xA9059CBB EQ PUSH2 0x3A1 JUMPI DUP1 PUSH4 0xD0E30DB0 EQ PUSH2 0x412 JUMPI DUP1 PUSH4 0xDD62ED3E EQ PUSH2 0x41C JUMPI DUP1 PUSH4 0xF2FDE38B EQ PUSH2 0x4A1 JUMPI PUSH2 0xA1 JUMP JUMPDEST DUP1 PUSH4 0x6FDDE03 EQ PUSH2 0xAB JUMPI DUP1 PUSH4 0x95EA7B3 EQ PUSH2 0x13B JUMPI DUP1 PUSH4 0x23B872DD EQ PUSH2 0x1AC JUMPI DUP1 PUSH4 0x313CE567 EQ PUSH2 0x23D JUMPI DUP1 PUSH4 0x70A08231 EQ PUSH2 0x26B JUMPI PUSH2 0xA1 JUMP JUMPDEST JUMPDEST PUSH2 0xA9 PUSH2 0x4F2 JUMP JUMPDEST STOP JUMPDEST CALLVALUE DUP1 ISZERO PUSH2 0xB7 JUMPI PUSH1 0x0 DUP1 REVERT JUMPDEST POP PUSH2 0xC0 PUSH2 0x58F JUMP JUMPDEST PUSH1 0x40 MLOAD DUP1 DUP1 PUSH1 0x20 ADD DUP3 DUP2 SUB DUP3 MSTORE DUP4 DUP2 DUP2 MLOAD DUP2 MSTORE PUSH1 0x20 ADD SWAP2 POP DUP1 MLOAD SWAP1 PUSH1 0x20 ADD SWAP1 DUP1 DUP4 DUP4 PUSH1 0x0 JUMPDEST DUP4 DUP2 LT ISZERO PUSH2 0x100 JUMPI DUP1 DUP3 ADD MLOAD DUP2 DUP5 ADD MSTORE PUSH1 0x20 DUP2 ADD SWAP1 POP PUSH2 0xE5 JUMP JUMPDEST POP POP POP POP SWAP1 POP SWAP1 DUP2 ADD SWAP1 PUSH1 0x1F AND DUP1 ISZERO PUSH2 0x12D JUMPI DUP1 DUP3 SUB DUP1 MLOAD PUSH1 0x1 DUP4 PUSH1 0x20 SUB PUSH2 0x100 EXP SUB NOT AND DUP2 MSTORE PUSH1 0x20 ADD SWAP2 POP JUMPDEST POP SWAP3 POP POP POP PUSH1 0x40 MLOAD DUP1 SWAP2 SUB SWAP1 RETURN JUMPDEST CALLVALUE DUP1 ISZERO PUSH2 0x147 JUMPI PUSH1 0x0 DUP1 REVERT JUMPDEST POP PUSH2 0x194 PUSH1 0x4 DUP1 CALLDATASIZE SUB PUSH1 0x40 DUP2 LT ISZERO PUSH2 0x15E JUMPI PUSH1 0x0 DUP1 REVERT JUMPDEST DUP2 ADD SWAP1 DUP1 DUP1 CALLDATALOAD PUSH20 0xFFFFFFFFFFFFFFFFFFFFFFFFFFFFFFFFFFFFFFFF AND SWAP1 PUSH1 0x20 ADD SWAP1 SWAP3 SWAP2 SWAP1 DUP1 CALLDATALOAD SWAP1 PUSH1 0x20 ADD SWAP1 SWAP3 SWAP2 SWAP1 POP POP POP PUSH2 0x5C8 JUMP JUMPDEST PUSH1 0x40 MLOAD DUP1 DUP3 ISZERO ISZERO DUP2 MSTORE PUSH1 0x20 ADD SWAP2 POP POP PUSH1 0x40 MLOAD DUP1 SWAP2 SUB SWAP1 RETURN JUMPDEST CALLVALUE DUP1 ISZERO PUSH2 0x1B8 JUMPI PUSH1 0x0 DUP1 REVERT JUMPDEST POP PUSH2 0x225 PUSH1 0x4 DUP1 CALLDATASIZE SUB PUSH1 0x60 DUP2 LT ISZERO PUSH2 0x1CF JUMPI PUSH1 0x0 DUP1 REVERT JUMPDEST DUP2 ADD SWAP1 DUP1 DUP1 CALLDATALOAD PUSH20 0xFFFFFFFFFFFFFFFFFFFFFFFFFFFFFFFFFFFFFFFF AND SWAP1 PUSH1 0x20 ADD SWAP1 SWAP3 SWAP2 SWAP1 DUP1 CALLDATALOAD PUSH20 0xFFFFFFFFFFFFFFFFFFFFFFFFFFFFFFFFFFFFFFFF AND SWAP1 PUSH1 0x20 ADD SWAP1 SWAP3 SWAP2 SWAP1 DUP1 CALLDATALOAD SWAP1 PUSH1 0x20 ADD SWAP1 SWAP3 SWAP2 SWAP1 POP POP POP PUSH2 0x6BA JUMP JUMPDEST PUSH1 0x40 MLOAD DUP1 DUP3 ISZERO ISZERO DUP2 MSTORE PUSH1 0x20 ADD SWAP2 POP POP PUSH1 0x40 MLOAD DUP1 SWAP2 SUB SWAP1 RETURN JUMPDEST CALLVALUE DUP1 ISZERO PUSH2 0x249 JUMPI PUSH1 0x0 DUP1 REVERT JUMPDEST POP PUSH2 0x252 PUSH2 0xB41 JUMP JUMPDEST PUSH1 0x40 MLOAD DUP1 DUP3 PUSH1 0xFF AND DUP2 MSTORE PUSH1 0x20 ADD SWAP2 POP POP PUSH1 0x40 MLOAD DUP1 SWAP2 SUB SWAP1 RETURN JUMPDEST CALLVALUE DUP1 ISZERO PUSH2 0x277 JUMPI PUSH1 0x0 DUP1 REVERT JUMPDEST POP PUSH2 0x2BA PUSH1 0x4 DUP1 CALLDATASIZE SUB PUSH1 0x20 DUP2 LT ISZERO PUSH2 0x28E JUMPI PUSH1 0x0 DUP1 REVERT JUMPDEST DUP2 ADD SWAP1 DUP1 DUP1 CALLDATALOAD PUSH20 0xFFFFFFFFFFFFFFFFFFFFFFFFFFFFFFFFFFFFFFFF AND SWAP1 PUSH1 0x20 ADD SWAP1 SWAP3 SWAP2 SWAP1 POP POP POP PUSH2 0xB46 JUMP JUMPDEST PUSH1 0x40 MLOAD DUP1 DUP3 DUP2 MSTORE PUSH1 0x20 ADD SWAP2 POP POP PUSH1 0x40 MLOAD DUP1 SWAP2 SUB SWAP1 RETURN JUMPDEST CALLVALUE DUP1 ISZERO PUSH2 0x2DC JUMPI PUSH1 0x0 DUP1 REVERT JUMPDEST POP PUSH2 0x2E5 PUSH2 0xB5E JUMP JUMPDEST PUSH1 0x40 MLOAD DUP1 DUP3 PUSH20 0xFFFFFFFFFFFFFFFFFFFFFFFFFFFFFFFFFFFFFFFF AND DUP2 MSTORE PUSH1 0x20 ADD SWAP2 POP POP PUSH1 0x40 MLOAD DUP1 SWAP2 SUB SWAP1 RETURN JUMPDEST CALLVALUE DUP1 ISZERO PUSH2 0x31D JUMPI PUSH1 0x0 DUP1 REVERT JUMPDEST POP PUSH2 0x326 PUSH2 0xB87 JUMP JUMPDEST PUSH1 0x40 MLOAD DUP1 DUP1 PUSH1 0x20 ADD DUP3 DUP2 SUB DUP3 MSTORE DUP4 DUP2 DUP2 MLOAD DUP2 MSTORE PUSH1 0x20 ADD SWAP2 POP DUP1 MLOAD SWAP1 PUSH1 0x20 ADD SWAP1 DUP1 DUP4 DUP4 PUSH1 0x0 JUMPDEST DUP4 DUP2 LT ISZERO PUSH2 0x366 JUMPI DUP1 DUP3 ADD MLOAD DUP2 DUP5 ADD MSTORE PUSH1 0x20 DUP2 ADD SWAP1 POP PUSH2 0x34B JUMP JUMPDEST POP POP POP POP SWAP1 POP SWAP1 DUP2 ADD SWAP1 PUSH1 0x1F AND DUP1 ISZERO PUSH2 0x393 JUMPI DUP1 DUP3 SUB DUP1 MLOAD PUSH1 0x1 DUP4 PUSH1 0x20 SUB PUSH2 0x100 EXP SUB NOT AND DUP2 MSTORE PUSH1 0x20 ADD SWAP2 POP JUMPDEST POP SWAP3 POP POP POP PUSH1 0x40 MLOAD DUP1 SWAP2 SUB SWAP1 RETURN JUMPDEST CALLVALUE DUP1 ISZERO PUSH2 0x3AD JUMPI PUSH1 0x0 DUP1 REVERT JUMPDEST POP PUSH2 0x3FA PUSH1 0x4 DUP1 CALLDATASIZE SUB PUSH1 0x40 DUP2 LT ISZERO PUSH2 0x3C4 JUMPI PUSH1 0x0 DUP1 REVERT JUMPDEST DUP2 ADD SWAP1 DUP1 DUP1 CALLDATALOAD PUSH20 0xFFFFFFFFFFFFFFFFFFFFFFFFFFFFFFFFFFFFFFFF AND SWAP1 PUSH1 0x20 ADD SWAP1 SWAP3 SWAP2 SWAP1 DUP1 CALLDATALOAD SWAP1 PUSH1 0x20 ADD SWAP1 SWAP3 SWAP2 SWAP1 POP POP POP PUSH2 0xBC0 JUMP JUMPDEST PUSH1 0x40 MLOAD DUP1 DUP3 ISZERO ISZERO DUP2 MSTORE PUSH1 0x20 ADD SWAP2 POP POP PUSH1 0x40 MLOAD DUP1 SWAP2 SUB SWAP1 RETURN JUMPDEST PUSH2 0x41A PUSH2 0x4F2 JUMP JUMPDEST STOP JUMPDEST CALLVALUE DUP1 ISZERO PUSH2 0x428 JUMPI PUSH1 0x0 DUP1 REVERT JUMPDEST POP PUSH2 0x48B PUSH1 0x4 DUP1 CALLDATASIZE SUB PUSH1 0x40 DUP2 LT ISZERO PUSH2 0x43F JUMPI PUSH1 0x0 DUP1 REVERT JUMPDEST DUP2 ADD SWAP1 DUP1 DUP1 CALLDATALOAD PUSH20 0xFFFFFFFFFFFFFFFFFFFFFFFFFFFFFFFFFFFFFFFF AND SWAP1 PUSH1 0x20 ADD SWAP1 SWAP3 SWAP2 SWAP1 DUP1 CALLDATALOAD PUSH20 0xFFFFFFFFFFFFFFFFFFFFFFFFFFFFFFFFFFFFFFFF AND SWAP1 PUSH1 0x20 ADD SWAP1 SWAP3 SWAP2 SWAP1 POP POP POP PUSH2 0xE08 JUMP JUMPDEST PUSH1 0x40 MLOAD DUP1 DUP3 DUP2 MSTORE PUSH1 0x20 ADD SWAP2 POP POP PUSH1 0x40 MLOAD DUP1 SWAP2 SUB SWAP1 RETURN JUMPDEST CALLVALUE DUP1 ISZERO PUSH2 0x4AD JUMPI PUSH1 0x0 DUP1 REVERT JUMPDEST POP PUSH2 0x4F0 PUSH1 0x4 DUP1 CALLDATASIZE SUB PUSH1 0x20 DUP2 LT ISZERO PUSH2 0x4C4 JUMPI PUSH1 0x0 DUP1 REVERT JUMPDEST DUP2 ADD SWAP1 DUP1 DUP1 CALLDATALOAD PUSH20 0xFFFFFFFFFFFFFFFFFFFFFFFFFFFFFFFFFFFFFFFF AND SWAP1 PUSH1 0x20 ADD SWAP1 SWAP3 SWAP2 SWAP1 POP POP POP PUSH2 0xE2D JUMP JUMPDEST STOP JUMPDEST CALLVALUE PUSH1 0x1 PUSH1 0x0 CALLER PUSH20 0xFFFFFFFFFFFFFFFFFFFFFFFFFFFFFFFFFFFFFFFF AND PUSH20 0xFFFFFFFFFFFFFFFFFFFFFFFFFFFFFFFFFFFFFFFF AND DUP2 MSTORE PUSH1 0x20 ADD SWAP1 DUP2 MSTORE PUSH1 0x20 ADD PUSH1 0x0 KECCAK256 PUSH1 0x0 DUP3 DUP3 SLOAD ADD SWAP3 POP POP DUP2 SWAP1 SSTORE POP CALLER PUSH20 0xFFFFFFFFFFFFFFFFFFFFFFFFFFFFFFFFFFFFFFFF AND PUSH32 0xE1FFFCC4923D04B559F4D29A8BFC6CDA04EB5B0D3C460751C2402C5C5CC9109C CALLVALUE PUSH1 0x40 MLOAD DUP1 DUP3 DUP2 MSTORE PUSH1 0x20 ADD SWAP2 POP POP PUSH1 0x40 MLOAD DUP1 SWAP2 SUB SWAP1 LOG2 JUMP JUMPDEST PUSH1 0x40 MLOAD DUP1 PUSH1 0x40 ADD PUSH1 0x40 MSTORE DUP1 PUSH1 0xD DUP2 MSTORE PUSH1 0x20 ADD PUSH32 0x4861636B6572696B61436F696E00000000000000000000000000000000000000 DUP2 MSTORE POP DUP2 JUMP JUMPDEST PUSH1 0x0 DUP2 PUSH1 0x2 PUSH1 0x0 CALLER PUSH20 0xFFFFFFFFFFFFFFFFFFFFFFFFFFFFFFFFFFFFFFFF AND PUSH20 0xFFFFFFFFFFFFFFFFFFFFFFFFFFFFFFFFFFFFFFFF AND DUP2 MSTORE PUSH1 0x20 ADD SWAP1 DUP2 MSTORE PUSH1 0x20 ADD PUSH1 0x0 KECCAK256 PUSH1 0x0 DUP6 PUSH20 0xFFFFFFFFFFFFFFFFFFFFFFFFFFFFFFFFFFFFFFFF AND PUSH20 0xFFFFFFFFFFFFFFFFFFFFFFFFFFFFFFFFFFFFFFFF AND DUP2 MSTORE PUSH1 0x20 ADD SWAP1 DUP2 MSTORE PUSH1 0x20 ADD PUSH1 0x0 KECCAK256 DUP2 SWAP1 SSTORE POP DUP3 PUSH20 0xFFFFFFFFFFFFFFFFFFFFFFFFFFFFFFFFFFFFFFFF AND CALLER PUSH20 0xFFFFFFFFFFFFFFFFFFFFFFFFFFFFFFFFFFFFFFFF AND PUSH32 0x8C5BE1E5EBEC7D5BD14F71427D1E84F3DD0314C0F7B2291E5B200AC8C7C3B925 DUP5 PUSH1 0x40 MLOAD DUP1 DUP3 DUP2 MSTORE PUSH1 0x20 ADD SWAP2 POP POP PUSH1 0x40 MLOAD DUP1 SWAP2 SUB SWAP1 LOG3 PUSH1 0x1 SWAP1 POP SWAP3 SWAP2 POP POP JUMP JUMPDEST PUSH1 0x0 CALLER PUSH20 0xFFFFFFFFFFFFFFFFFFFFFFFFFFFFFFFFFFFFFFFF AND PUSH1 0x0 DUP1 SLOAD SWAP1 PUSH2 0x100 EXP SWAP1 DIV PUSH20 0xFFFFFFFFFFFFFFFFFFFFFFFFFFFFFFFFFFFFFFFF AND PUSH20 0xFFFFFFFFFFFFFFFFFFFFFFFFFFFFFFFFFFFFFFFF AND EQ PUSH2 0x77D JUMPI PUSH1 0x40 MLOAD PUSH32 0x8C379A000000000000000000000000000000000000000000000000000000000 DUP2 MSTORE PUSH1 0x4 ADD DUP1 DUP1 PUSH1 0x20 ADD DUP3 DUP2 SUB DUP3 MSTORE PUSH1 0x20 DUP2 MSTORE PUSH1 0x20 ADD DUP1 PUSH32 0x4F776E61626C653A2063616C6C6572206973206E6F7420746865206F776E6572 DUP2 MSTORE POP PUSH1 0x20 ADD SWAP2 POP POP PUSH1 0x40 MLOAD DUP1 SWAP2 SUB SWAP1 REVERT JUMPDEST DUP2 PUSH1 0x2 PUSH1 0x0 DUP7 PUSH20 0xFFFFFFFFFFFFFFFFFFFFFFFFFFFFFFFFFFFFFFFF AND PUSH20 0xFFFFFFFFFFFFFFFFFFFFFFFFFFFFFFFFFFFFFFFF AND DUP2 MSTORE PUSH1 0x20 ADD SWAP1 DUP2 MSTORE PUSH1 0x20 ADD PUSH1 0x0 KECCAK256 PUSH1 0x0 CALLER PUSH20 0xFFFFFFFFFFFFFFFFFFFFFFFFFFFFFFFFFFFFFFFF AND PUSH20 0xFFFFFFFFFFFFFFFFFFFFFFFFFFFFFFFFFFFFFFFF AND DUP2 MSTORE PUSH1 0x20 ADD SWAP1 DUP2 MSTORE PUSH1 0x20 ADD PUSH1 0x0 KECCAK256 SLOAD LT ISZERO PUSH2 0x86F JUMPI PUSH1 0x40 MLOAD PUSH32 0x8C379A000000000000000000000000000000000000000000000000000000000 DUP2 MSTORE PUSH1 0x4 ADD DUP1 DUP1 PUSH1 0x20 ADD DUP3 DUP2 SUB DUP3 MSTORE PUSH1 0x12 DUP2 MSTORE PUSH1 0x20 ADD DUP1 PUSH32 0x416C6C6F77616E63652065786365656465640000000000000000000000000000 DUP2 MSTORE POP PUSH1 0x20 ADD SWAP2 POP POP PUSH1 0x40 MLOAD DUP1 SWAP2 SUB SWAP1 REVERT JUMPDEST PUSH1 0x0 PUSH20 0xFFFFFFFFFFFFFFFFFFFFFFFFFFFFFFFFFFFFFFFF AND DUP4 PUSH20 0xFFFFFFFFFFFFFFFFFFFFFFFFFFFFFFFFFFFFFFFF AND EQ ISZERO PUSH2 0x8F5 JUMPI PUSH1 0x40 MLOAD PUSH32 0x8C379A000000000000000000000000000000000000000000000000000000000 DUP2 MSTORE PUSH1 0x4 ADD DUP1 DUP1 PUSH1 0x20 ADD DUP3 DUP2 SUB DUP3 MSTORE PUSH1 0x23 DUP2 MSTORE PUSH1 0x20 ADD DUP1 PUSH2 0x1032 PUSH1 0x23 SWAP2 CODECOPY PUSH1 0x40 ADD SWAP2 POP POP PUSH1 0x40 MLOAD DUP1 SWAP2 SUB SWAP1 REVERT JUMPDEST PUSH1 0x0 DUP3 PUSH1 0x1 PUSH1 0x0 CALLER PUSH20 0xFFFFFFFFFFFFFFFFFFFFFFFFFFFFFFFFFFFFFFFF AND PUSH20 0xFFFFFFFFFFFFFFFFFFFFFFFFFFFFFFFFFFFFFFFF AND DUP2 MSTORE PUSH1 0x20 ADD SWAP1 DUP2 MSTORE PUSH1 0x20 ADD PUSH1 0x0 KECCAK256 SLOAD SUB LT ISZERO PUSH2 0x9AD JUMPI PUSH1 0x40 MLOAD PUSH32 0x8C379A000000000000000000000000000000000000000000000000000000000 DUP2 MSTORE PUSH1 0x4 ADD DUP1 DUP1 PUSH1 0x20 ADD DUP3 DUP2 SUB DUP3 MSTORE PUSH1 0x14 DUP2 MSTORE PUSH1 0x20 ADD DUP1 PUSH32 0x496E73756666696369656E742042616C616E6365000000000000000000000000 DUP2 MSTORE POP PUSH1 0x20 ADD SWAP2 POP POP PUSH1 0x40 MLOAD DUP1 SWAP2 SUB SWAP1 REVERT JUMPDEST DUP2 PUSH1 0x1 PUSH1 0x0 DUP7 PUSH20 0xFFFFFFFFFFFFFFFFFFFFFFFFFFFFFFFFFFFFFFFF AND PUSH20 0xFFFFFFFFFFFFFFFFFFFFFFFFFFFFFFFFFFFFFFFF AND DUP2 MSTORE PUSH1 0x20 ADD SWAP1 DUP2 MSTORE PUSH1 0x20 ADD PUSH1 0x0 KECCAK256 PUSH1 0x0 DUP3 DUP3 SLOAD SUB SWAP3 POP POP DUP2 SWAP1 SSTORE POP DUP2 PUSH1 0x1 PUSH1 0x0 DUP6 PUSH20 0xFFFFFFFFFFFFFFFFFFFFFFFFFFFFFFFFFFFFFFFF AND PUSH20 0xFFFFFFFFFFFFFFFFFFFFFFFFFFFFFFFFFFFFFFFF AND DUP2 MSTORE PUSH1 0x20 ADD SWAP1 DUP2 MSTORE PUSH1 0x20 ADD PUSH1 0x0 KECCAK256 PUSH1 0x0 DUP3 DUP3 SLOAD ADD SWAP3 POP POP DUP2 SWAP1 SSTORE POP DUP2 PUSH1 0x2 PUSH1 0x0 DUP7 PUSH20 0xFFFFFFFFFFFFFFFFFFFFFFFFFFFFFFFFFFFFFFFF AND PUSH20 0xFFFFFFFFFFFFFFFFFFFFFFFFFFFFFFFFFFFFFFFF AND DUP2 MSTORE PUSH1 0x20 ADD SWAP1 DUP2 MSTORE PUSH1 0x20 ADD PUSH1 0x0 KECCAK256 PUSH1 0x0 CALLER PUSH20 0xFFFFFFFFFFFFFFFFFFFFFFFFFFFFFFFFFFFFFFFF AND PUSH20 0xFFFFFFFFFFFFFFFFFFFFFFFFFFFFFFFFFFFFFFFF AND DUP2 MSTORE PUSH1 0x20 ADD SWAP1 DUP2 MSTORE PUSH1 0x20 ADD PUSH1 0x0 KECCAK256 PUSH1 0x0 DUP3 DUP3 SLOAD SUB SWAP3 POP POP DUP2 SWAP1 SSTORE POP DUP3 PUSH20 0xFFFFFFFFFFFFFFFFFFFFFFFFFFFFFFFFFFFFFFFF AND DUP5 PUSH20 0xFFFFFFFFFFFFFFFFFFFFFFFFFFFFFFFFFFFFFFFF AND PUSH32 0xDDF252AD1BE2C89B69C2B068FC378DAA952BA7F163C4A11628F55A4DF523B3EF DUP5 PUSH1 0x40 MLOAD DUP1 DUP3 DUP2 MSTORE PUSH1 0x20 ADD SWAP2 POP POP PUSH1 0x40 MLOAD DUP1 SWAP2 SUB SWAP1 LOG3 PUSH1 0x1 SWAP1 POP SWAP4 SWAP3 POP POP POP JUMP JUMPDEST PUSH1 0x12 DUP2 JUMP JUMPDEST PUSH1 0x1 PUSH1 0x20 MSTORE DUP1 PUSH1 0x0 MSTORE PUSH1 0x40 PUSH1 0x0 KECCAK256 PUSH1 0x0 SWAP2 POP SWAP1 POP SLOAD DUP2 JUMP JUMPDEST PUSH1 0x0 DUP1 PUSH1 0x0 SWAP1 SLOAD SWAP1 PUSH2 0x100 EXP SWAP1 DIV PUSH20 0xFFFFFFFFFFFFFFFFFFFFFFFFFFFFFFFFFFFFFFFF AND SWAP1 POP SWAP1 JUMP JUMPDEST PUSH1 0x40 MLOAD DUP1 PUSH1 0x40 ADD PUSH1 0x40 MSTORE DUP1 PUSH1 0x5 DUP2 MSTORE PUSH1 0x20 ADD PUSH32 0x48434F494E000000000000000000000000000000000000000000000000000000 DUP2 MSTORE POP DUP2 JUMP JUMPDEST PUSH1 0x0 DUP1 PUSH20 0xFFFFFFFFFFFFFFFFFFFFFFFFFFFFFFFFFFFFFFFF AND DUP4 PUSH20 0xFFFFFFFFFFFFFFFFFFFFFFFFFFFFFFFFFFFFFFFF AND EQ ISZERO PUSH2 0xC47 JUMPI PUSH1 0x40 MLOAD PUSH32 0x8C379A000000000000000000000000000000000000000000000000000000000 DUP2 MSTORE PUSH1 0x4 ADD DUP1 DUP1 PUSH1 0x20 ADD DUP3 DUP2 SUB DUP3 MSTORE PUSH1 0x23 DUP2 MSTORE PUSH1 0x20 ADD DUP1 PUSH2 0x1032 PUSH1 0x23 SWAP2 CODECOPY PUSH1 0x40 ADD SWAP2 POP POP PUSH1 0x40 MLOAD DUP1 SWAP2 SUB SWAP1 REVERT JUMPDEST PUSH1 0x0 DUP3 PUSH1 0x1 PUSH1 0x0 CALLER PUSH20 0xFFFFFFFFFFFFFFFFFFFFFFFFFFFFFFFFFFFFFFFF AND PUSH20 0xFFFFFFFFFFFFFFFFFFFFFFFFFFFFFFFFFFFFFFFF AND DUP2 MSTORE PUSH1 0x20 ADD SWAP1 DUP2 MSTORE PUSH1 0x20 ADD PUSH1 0x0 KECCAK256 SLOAD SUB LT ISZERO PUSH2 0xCFF JUMPI PUSH1 0x40 MLOAD PUSH32 0x8C379A000000000000000000000000000000000000000000000000000000000 DUP2 MSTORE PUSH1 0x4 ADD DUP1 DUP1 PUSH1 0x20 ADD DUP3 DUP2 SUB DUP3 MSTORE PUSH1 0x14 DUP2 MSTORE PUSH1 0x20 ADD DUP1 PUSH32 0x496E73756666696369656E742042616C616E6365000000000000000000000000 DUP2 MSTORE POP PUSH1 0x20 ADD SWAP2 POP POP PUSH1 0x40 MLOAD DUP1 SWAP2 SUB SWAP1 REVERT JUMPDEST DUP2 PUSH1 0x1 PUSH1 0x0 CALLER PUSH20 0xFFFFFFFFFFFFFFFFFFFFFFFFFFFFFFFFFFFFFFFF AND PUSH20 0xFFFFFFFFFFFFFFFFFFFFFFFFFFFFFFFFFFFFFFFF AND DUP2 MSTORE PUSH1 0x20 ADD SWAP1 DUP2 MSTORE PUSH1 0x20 ADD PUSH1 0x0 KECCAK256 PUSH1 0x0 DUP3 DUP3 SLOAD SUB SWAP3 POP POP DUP2 SWAP1 SSTORE POP DUP2 PUSH1 0x1 PUSH1 0x0 DUP6 PUSH20 0xFFFFFFFFFFFFFFFFFFFFFFFFFFFFFFFFFFFFFFFF AND PUSH20 0xFFFFFFFFFFFFFFFFFFFFFFFFFFFFFFFFFFFFFFFF AND DUP2 MSTORE PUSH1 0x20 ADD SWAP1 DUP2 MSTORE PUSH1 0x20 ADD PUSH1 0x0 KECCAK256 PUSH1 0x0 DUP3 DUP3 SLOAD ADD SWAP3 POP POP DUP2 SWAP1 SSTORE POP DUP3 PUSH20 0xFFFFFFFFFFFFFFFFFFFFFFFFFFFFFFFFFFFFFFFF AND CALLER PUSH20 0xFFFFFFFFFFFFFFFFFFFFFFFFFFFFFFFFFFFFFFFF AND PUSH32 0xDDF252AD1BE2C89B69C2B068FC378DAA952BA7F163C4A11628F55A4DF523B3EF DUP5 PUSH1 0x40 MLOAD DUP1 DUP3 DUP2 MSTORE PUSH1 0x20 ADD SWAP2 POP POP PUSH1 0x40 MLOAD DUP1 SWAP2 SUB SWAP1 LOG3 PUSH1 0x1 SWAP1 POP SWAP3 SWAP2 POP POP JUMP JUMPDEST PUSH1 0x2 PUSH1 0x20 MSTORE DUP2 PUSH1 0x0 MSTORE PUSH1 0x40 PUSH1 0x0 KECCAK256 PUSH1 0x20 MSTORE DUP1 PUSH1 0x0 MSTORE PUSH1 0x40 PUSH1 0x0 KECCAK256 PUSH1 0x0 SWAP2 POP SWAP2 POP POP SLOAD DUP2 JUMP JUMPDEST CALLER PUSH20 0xFFFFFFFFFFFFFFFFFFFFFFFFFFFFFFFFFFFFFFFF AND PUSH1 0x0 DUP1 SLOAD SWAP1 PUSH2 0x100 EXP SWAP1 DIV PUSH20 0xFFFFFFFFFFFFFFFFFFFFFFFFFFFFFFFFFFFFFFFF AND PUSH20 0xFFFFFFFFFFFFFFFFFFFFFFFFFFFFFFFFFFFFFFFF AND EQ PUSH2 0xEEE JUMPI PUSH1 0x40 MLOAD PUSH32 0x8C379A000000000000000000000000000000000000000000000000000000000 DUP2 MSTORE PUSH1 0x4 ADD DUP1 DUP1 PUSH1 0x20 ADD DUP3 DUP2 SUB DUP3 MSTORE PUSH1 0x20 DUP2 MSTORE PUSH1 0x20 ADD DUP1 PUSH32 0x4F776E61626C653A2063616C6C6572206973206E6F7420746865206F776E6572 DUP2 MSTORE POP PUSH1 0x20 ADD SWAP2 POP POP PUSH1 0x40 MLOAD DUP1 SWAP2 SUB SWAP1 REVERT JUMPDEST PUSH1 0x0 PUSH20 0xFFFFFFFFFFFFFFFFFFFFFFFFFFFFFFFFFFFFFFFF AND DUP2 PUSH20 0xFFFFFFFFFFFFFFFFFFFFFFFFFFFFFFFFFFFFFFFF AND EQ ISZERO PUSH2 0xF74 JUMPI PUSH1 0x40 MLOAD PUSH32 0x8C379A000000000000000000000000000000000000000000000000000000000 DUP2 MSTORE PUSH1 0x4 ADD DUP1 DUP1 PUSH1 0x20 ADD DUP3 DUP2 SUB DUP3 MSTORE PUSH1 0x26 DUP2 MSTORE PUSH1 0x20 ADD DUP1 PUSH2 0x1055 PUSH1 0x26 SWAP2 CODECOPY PUSH1 0x40 ADD SWAP2 POP POP PUSH1 0x40 MLOAD DUP1 SWAP2 SUB SWAP1 REVERT JUMPDEST DUP1 PUSH20 0xFFFFFFFFFFFFFFFFFFFFFFFFFFFFFFFFFFFFFFFF AND PUSH1 0x0 DUP1 SLOAD SWAP1 PUSH2 0x100 EXP SWAP1 DIV PUSH20 0xFFFFFFFFFFFFFFFFFFFFFFFFFFFFFFFFFFFFFFFF AND PUSH20 0xFFFFFFFFFFFFFFFFFFFFFFFFFFFFFFFFFFFFFFFF AND PUSH32 0x8BE0079C531659141344CD1FD0A4F28419497F9722A3DAAFE3B4186F6B6457E0 PUSH1 0x40 MLOAD PUSH1 0x40 MLOAD DUP1 SWAP2 SUB SWAP1 LOG3 DUP1 PUSH1 0x0 DUP1 PUSH2 0x100 EXP DUP2 SLOAD DUP2 PUSH20 0xFFFFFFFFFFFFFFFFFFFFFFFFFFFFFFFFFFFFFFFF MUL NOT AND SWAP1 DUP4 PUSH20 0xFFFFFFFFFFFFFFFFFFFFFFFFFFFFFFFFFFFFFFFF AND MUL OR SWAP1 SSTORE POP POP JUMP INVALID GASLIMIT MSTORE NUMBER ORIGIN ADDRESS GASPRICE KECCAK256 PUSH21 0x72616E7366657220746F20746865207A65726F2061 PUSH5 0x6472657373 0x4F PUSH24 0x6E61626C653A206E6577206F776E65722069732074686520 PUSH27 0x65726F2061646472657373A2646970667358221220342876EAAF47 0x28 0xAF 0xA6 DUP10 0xBB TIMESTAMP STATICCALL 0xD9 CODECOPY EXTCODESIZE 0xC7 0xD9 LOG2 PUSH29 0xB57A1D62D10DBE2D5C14E97D64736F6C634300060C0033000000000000 "
				},
				"gasEstimates": {
					"creation": {
						"codeDepositCost": "192400",
						"executionCost": "infinite",
						"totalCost": "infinite"
					},
					"external": {
						"coin()": "1022",
						"isSolved()": "infinite",
						"setPlayer(address)": "infinite"
					}
				},
				"methodIdentifiers": {
					"coin()": "11df9995",
					"isSolved()": "64d98f6e",
					"setPlayer(address)": "bc8d3ac4"
				}
			},
			"storageLayout": {
				"storage": [
					{
						"astId": 317,
						"contract": "Baby-ERC20/contracts/Setup.sol:Setup",
						"label": "coin",
						"offset": 0,
						"slot": "0",
						"type": "t_contract(HCOIN)231"
					},
					{
						"astId": 319,
						"contract": "Baby-ERC20/contracts/Setup.sol:Setup",
						"label": "player",
						"offset": 0,
						"slot": "1",
						"type": "t_address"
					}
				],
				"types": {
					"t_address": {
						"encoding": "inplace",
						"label": "address",
						"numberOfBytes": "20"
					},
					"t_contract(HCOIN)231": {
						"encoding": "inplace",
						"label": "contract HCOIN",
						"numberOfBytes": "20"
					}
				}
			},
			"userdoc": {
				"kind": "user",
				"methods": {},
				"version": 1
			}
		}
	}
}