{
	"data": {
		"bytecode": {
			"linkReferences": {},
			"object": "60c06040526801158e460913d000003414610018575f80fd5b60405161002490610143565b604051809103905ff08015801561003d573d5f803e3d5ffd5b5073ffffffffffffffffffffffffffffffffffffffff1660a08173ffffffffffffffffffffffffffffffffffffffff168152505060a05160405161008090610150565b61008a91906101d7565b604051809103905ff0801580156100a3573d5f803e3d5ffd5b5073ffffffffffffffffffffffffffffffffffffffff1660808173ffffffffffffffffffffffffffffffffffffffff168152505060805173ffffffffffffffffffffffffffffffffffffffff166342dad49e678ac7230489e800006040518263ffffffff1660e01b81526004015f604051808303818588803b158015610127575f80fd5b505af1158015610139573d5f803e3d5ffd5b50505050506101f0565b6102068061047083390190565b6109f68061067683390190565b5f73ffffffffffffffffffffffffffffffffffffffff82169050919050565b5f819050919050565b5f61019f61019a6101958461015d565b61017c565b61015d565b9050919050565b5f6101b082610185565b9050919050565b5f6101c1826101a6565b9050919050565b6101d1816101b7565b82525050565b5f6020820190506101ea5f8301846101c8565b92915050565b60805160a05161025a6102165f395f61010301525f818160a1015260df015261025a5ff3fe608060405234801561000f575f80fd5b506004361061003f575f3560e01c806364d98f6e146100435780636f81a2571461006157806394f41a881461007f575b5f80fd5b61004b61009d565b604051610058919061013f565b60405180910390f35b6100696100dd565b60405161007691906101d2565b60405180910390f35b610087610101565b604051610094919061020b565b60405180910390f35b5f807f000000000000000000000000000000000000000000000000000000000000000073ffffffffffffffffffffffffffffffffffffffff163114905090565b7f000000000000000000000000000000000000000000000000000000000000000081565b7f000000000000000000000000000000000000000000000000000000000000000081565b5f8115159050919050565b61013981610125565b82525050565b5f6020820190506101525f830184610130565b92915050565b5f73ffffffffffffffffffffffffffffffffffffffff82169050919050565b5f819050919050565b5f61019a61019561019084610158565b610177565b610158565b9050919050565b5f6101ab82610180565b9050919050565b5f6101bc826101a1565b9050919050565b6101cc816101b2565b82525050565b5f6020820190506101e55f8301846101c3565b92915050565b5f6101f5826101a1565b9050919050565b610205816101eb565b82525050565b5f60208201905061021e5f8301846101fc565b9291505056fea2646970667358221220f7e772a7b7bd91ddab8e4690b6a90bf3d0c640acfaaff021259b70c0c004b42364736f6c634300081a00336080604052348015600e575f80fd5b506101ea8061001c5f395ff3fe608060405234801561000f575f80fd5b5060043610610029575f3560e01c8063b9db1b191461002d575b5f80fd5b61004760048036038101906100429190610105565b61005d565b604051610054919061013f565b60405180910390f35b5f8082434260405160200161007493929190610178565b604051602081830303815290604052805190602001205f1c90507fe39bc54c4e458fbe3ea260b0b1020aef9d292e9ff12314349bd634fa4d60ac53816040516100bd919061013f565b60405180910390a180915050919050565b5f80fd5b5f819050919050565b6100e4816100d2565b81146100ee575f80fd5b50565b5f813590506100ff816100db565b92915050565b5f6020828403121561011a576101196100ce565b5b5f610127848285016100f1565b91505092915050565b610139816100d2565b82525050565b5f6020820190506101525f830184610130565b92915050565b5f819050919050565b61017261016d826100d2565b610158565b82525050565b5f6101838286610161565b6020820191506101938285610161565b6020820191506101a38284610161565b60208201915081905094935050505056fea2646970667358221220892a7eb64b88fd0c805fb8b5caf52980b69c2b3484fed0faf6a26279204358a264736f6c634300081a003360a060405234801561000f575f80fd5b506040516109f63803806109f6833981810160405281019061003191906100f1565b8060015f6101000a81548173ffffffffffffffffffffffffffffffffffffffff021916908373ffffffffffffffffffffffffffffffffffffffff16021790555044405f1c608081815250505061011c565b5f80fd5b5f73ffffffffffffffffffffffffffffffffffffffff82169050919050565b5f6100af82610086565b9050919050565b5f6100c0826100a5565b9050919050565b6100d0816100b6565b81146100da575f80fd5b50565b5f815190506100eb816100c7565b92915050565b5f6020828403121561010657610105610082565b5b5f610113848285016100dd565b91505092915050565b6080516108bb61013b5f395f81816102a0015261045001526108bb5ff3fe608060405260043610610049575f3560e01c806327e235e31461004d57806342dad49e1461008957806394f41a881461009357806399d548aa146100bd578063d1efd30d146100e5575b5f80fd5b348015610058575f80fd5b50610073600480360381019061006e91906104d0565b61010f565b6040516100809190610513565b60405180910390f35b610091610123565b005b34801561009e575f80fd5b506100a76101b9565b6040516100b49190610587565b60405180910390f35b3480156100c8575f80fd5b506100e360048036038101906100de91906105ca565b6101de565b005b3480156100f0575f80fd5b506100f961044e565b6040516101069190610513565b60405180910390f35b5f602052805f5260405f205f915090505481565b5f3411610165576040517f08c379a000000000000000000000000000000000000000000000000000000000815260040161015c9061064f565b60405180910390fd5b345f803373ffffffffffffffffffffffffffffffffffffffff1673ffffffffffffffffffffffffffffffffffffffff1681526020019081526020015f205f8282546101b0919061069a565b92505081905550565b60015f9054906101000a900473ffffffffffffffffffffffffffffffffffffffff1681565b5f805f3373ffffffffffffffffffffffffffffffffffffffff1673ffffffffffffffffffffffffffffffffffffffff1681526020019081526020015f205490505f8111610260576040517f08c379a000000000000000000000000000000000000000000000000000000000815260040161025790610717565b60405180910390fd5b5f60015f9054906101000a900473ffffffffffffffffffffffffffffffffffffffff1673ffffffffffffffffffffffffffffffffffffffff1663b9db1b197f00000000000000000000000000000000000000000000000000000000000000006040518263ffffffff1660e01b81526004016102db9190610513565b6020604051808303815f875af11580156102f7573d5f803e3d5ffd5b505050506040513d601f19601f8201168201806040525081019061031b9190610749565b905080831461035f576040517f08c379a0000000000000000000000000000000000000000000000000000000008152600401610356906107be565b60405180910390fd5b5f3373ffffffffffffffffffffffffffffffffffffffff168360405161038490610809565b5f6040518083038185875af1925050503d805f81146103be576040519150601f19603f3d011682016040523d82523d5f602084013e6103c3565b606091505b5050905080610407576040517f08c379a00000000000000000000000000000000000000000000000000000000081526004016103fe90610867565b60405180910390fd5b5f805f3373ffffffffffffffffffffffffffffffffffffffff1673ffffffffffffffffffffffffffffffffffffffff1681526020019081526020015f208190555050505050565b7f000000000000000000000000000000000000000000000000000000000000000081565b5f80fd5b5f73ffffffffffffffffffffffffffffffffffffffff82169050919050565b5f61049f82610476565b9050919050565b6104af81610495565b81146104b9575f80fd5b50565b5f813590506104ca816104a6565b92915050565b5f602082840312156104e5576104e4610472565b5b5f6104f2848285016104bc565b91505092915050565b5f819050919050565b61050d816104fb565b82525050565b5f6020820190506105265f830184610504565b92915050565b5f819050919050565b5f61054f61054a61054584610476565b61052c565b610476565b9050919050565b5f61056082610535565b9050919050565b5f61057182610556565b9050919050565b61058181610567565b82525050565b5f60208201905061059a5f830184610578565b92915050565b6105a9816104fb565b81146105b3575f80fd5b50565b5f813590506105c4816105a0565b92915050565b5f602082840312156105df576105de610472565b5b5f6105ec848285016105b6565b91505092915050565b5f82825260208201905092915050565b7f596f7520646f6e27742068617665206d6f6e65792058500000000000000000005f82015250565b5f6106396017836105f5565b915061064482610605565b602082019050919050565b5f6020820190508181035f8301526106668161062d565b9050919050565b7f4e487b71000000000000000000000000000000000000000000000000000000005f52601160045260245ffd5b5f6106a4826104fb565b91506106af836104fb565b92508282019050808211156106c7576106c661066d565b5b92915050565b7f596f7520646f6e27742068617665206d6f6e657920746f206c6f6164205844005f82015250565b5f610701601f836105f5565b915061070c826106cd565b602082019050919050565b5f6020820190508181035f83015261072e816106f5565b9050919050565b5f81519050610743816105a0565b92915050565b5f6020828403121561075e5761075d610472565b5b5f61076b84828501610735565b91505092915050565b7f496e76616c6964206361707463686100000000000000000000000000000000005f82015250565b5f6107a8600f836105f5565b91506107b382610774565b602082019050919050565b5f6020820190508181035f8301526107d58161079c565b9050919050565b5f81905092915050565b50565b5f6107f45f836107dc565b91506107ff826107e6565b5f82019050919050565b5f610813826107e9565b9150819050919050565b7f4f68206d7920676f642c20776861742069732074686174213f000000000000005f82015250565b5f6108516019836105f5565b915061085c8261081d565b602082019050919050565b5f6020820190508181035f83015261087e81610845565b905091905056fea2646970667358221220e05a870fa9584dffc4df5b7ec74b98edcff15c7a3b9cc6e13f51decefd34debc64736f6c634300081a0033",
			"opcodes": "PUSH1 0xC0 PUSH1 0x40 MSTORE PUSH9 0x1158E460913D00000 CALLVALUE EQ PUSH2 0x18 JUMPI PUSH0 DUP1 REVERT JUMPDEST PUSH1 0x40 MLOAD PUSH2 0x24 SWAP1 PUSH2 0x143 JUMP JUMPDEST PUSH1 0x40 MLOAD DUP1 SWAP2 SUB SWAP1 PUSH0 CREATE DUP1 ISZERO DUP1 ISZERO PUSH2 0x3D JUMPI RETURNDATASIZE PUSH0 DUP1 RETURNDATACOPY RETURNDATASIZE PUSH0 REVERT JUMPDEST POP PUSH20 0xFFFFFFFFFFFFFFFFFFFFFFFFFFFFFFFFFFFFFFFF AND PUSH1 0xA0 DUP2 PUSH20 0xFFFFFFFFFFFFFFFFFFFFFFFFFFFFFFFFFFFFFFFF AND DUP2 MSTORE POP POP PUSH1 0xA0 MLOAD PUSH1 0x40 MLOAD PUSH2 0x80 SWAP1 PUSH2 0x150 JUMP JUMPDEST PUSH2 0x8A SWAP2 SWAP1 PUSH2 0x1D7 JUMP JUMPDEST PUSH1 0x40 MLOAD DUP1 SWAP2 SUB SWAP1 PUSH0 CREATE DUP1 ISZERO DUP1 ISZERO PUSH2 0xA3 JUMPI RETURNDATASIZE PUSH0 DUP1 RETURNDATACOPY RETURNDATASIZE PUSH0 REVERT JUMPDEST POP PUSH20 0xFFFFFFFFFFFFFFFFFFFFFFFFFFFFFFFFFFFFFFFF AND PUSH1 0x80 DUP2 PUSH20 0xFFFFFFFFFFFFFFFFFFFFFFFFFFFFFFFFFFFFFFFF AND DUP2 MSTORE POP POP PUSH1 0x80 MLOAD PUSH20 0xFFFFFFFFFFFFFFFFFFFFFFFFFFFFFFFFFFFFFFFF AND PUSH4 0x42DAD49E PUSH8 0x8AC7230489E80000 PUSH1 0x40 MLOAD DUP3 PUSH4 0xFFFFFFFF AND PUSH1 0xE0 SHL DUP2 MSTORE PUSH1 0x4 ADD PUSH0 PUSH1 0x40 MLOAD DUP1 DUP4 SUB DUP2 DUP6 DUP9 DUP1 EXTCODESIZE ISZERO DUP1 ISZERO PUSH2 0x127 JUMPI PUSH0 DUP1 REVERT JUMPDEST POP GAS CALL ISZERO DUP1 ISZERO PUSH2 0x139 JUMPI RETURNDATASIZE PUSH0 DUP1 RETURNDATACOPY RETURNDATASIZE PUSH0 REVERT JUMPDEST POP POP POP POP POP PUSH2 0x1F0 JUMP JUMPDEST PUSH2 0x206 DUP1 PUSH2 0x470 DUP4 CODECOPY ADD SWAP1 JUMP JUMPDEST PUSH2 0x9F6 DUP1 PUSH2 0x676 DUP4 CODECOPY ADD SWAP1 JUMP JUMPDEST PUSH0 PUSH20 0xFFFFFFFFFFFFFFFFFFFFFFFFFFFFFFFFFFFFFFFF DUP3 AND SWAP1 POP SWAP2 SWAP1 POP JUMP JUMPDEST PUSH0 DUP2 SWAP1 POP SWAP2 SWAP1 POP JUMP JUMPDEST PUSH0 PUSH2 0x19F PUSH2 0x19A PUSH2 0x195 DUP5 PUSH2 0x15D JUMP JUMPDEST PUSH2 0x17C JUMP JUMPDEST PUSH2 0x15D JUMP JUMPDEST SWAP1 POP SWAP2 SWAP1 POP JUMP JUMPDEST PUSH0 PUSH2 0x1B0 DUP3 PUSH2 0x185 JUMP JUMPDEST SWAP1 POP SWAP2 SWAP1 POP JUMP JUMPDEST PUSH0 PUSH2 0x1C1 DUP3 PUSH2 0x1A6 JUMP JUMPDEST SWAP1 POP SWAP2 SWAP1 POP JUMP JUMPDEST PUSH2 0x1D1 DUP2 PUSH2 0x1B7 JUMP JUMPDEST DUP3 MSTORE POP POP JUMP JUMPDEST PUSH0 PUSH1 0x20 DUP3 ADD SWAP1 POP PUSH2 0x1EA PUSH0 DUP4 ADD DUP5 PUSH2 0x1C8 JUMP JUMPDEST SWAP3 SWAP2 POP POP JUMP JUMPDEST PUSH1 0x80 MLOAD PUSH1 0xA0 MLOAD PUSH2 0x25A PUSH2 0x216 PUSH0 CODECOPY PUSH0 PUSH2 0x103 ADD MSTORE PUSH0 DUP2 DUP2 PUSH1 0xA1 ADD MSTORE PUSH1 0xDF ADD MSTORE PUSH2 0x25A PUSH0 RETURN INVALID PUSH1 0x80 PUSH1 0x40 MSTORE CALLVALUE DUP1 ISZERO PUSH2 0xF JUMPI PUSH0 DUP1 REVERT JUMPDEST POP PUSH1 0x4 CALLDATASIZE LT PUSH2 0x3F JUMPI PUSH0 CALLDATALOAD PUSH1 0xE0 SHR DUP1 PUSH4 0x64D98F6E EQ PUSH2 0x43 JUMPI DUP1 PUSH4 0x6F81A257 EQ PUSH2 0x61 JUMPI DUP1 PUSH4 0x94F41A88 EQ PUSH2 0x7F JUMPI JUMPDEST PUSH0 DUP1 REVERT JUMPDEST PUSH2 0x4B PUSH2 0x9D JUMP JUMPDEST PUSH1 0x40 MLOAD PUSH2 0x58 SWAP2 SWAP1 PUSH2 0x13F JUMP JUMPDEST PUSH1 0x40 MLOAD DUP1 SWAP2 SUB SWAP1 RETURN JUMPDEST PUSH2 0x69 PUSH2 0xDD JUMP JUMPDEST PUSH1 0x40 MLOAD PUSH2 0x76 SWAP2 SWAP1 PUSH2 0x1D2 JUMP JUMPDEST PUSH1 0x40 MLOAD DUP1 SWAP2 SUB SWAP1 RETURN JUMPDEST PUSH2 0x87 PUSH2 0x101 JUMP JUMPDEST PUSH1 0x40 MLOAD PUSH2 0x94 SWAP2 SWAP1 PUSH2 0x20B JUMP JUMPDEST PUSH1 0x40 MLOAD DUP1 SWAP2 SUB SWAP1 RETURN JUMPDEST PUSH0 DUP1 PUSH32 0x0 PUSH20 0xFFFFFFFFFFFFFFFFFFFFFFFFFFFFFFFFFFFFFFFF AND BALANCE EQ SWAP1 POP SWAP1 JUMP JUMPDEST PUSH32 0x0 DUP2 JUMP JUMPDEST PUSH32 0x0 DUP2 JUMP JUMPDEST PUSH0 DUP2 ISZERO ISZERO SWAP1 POP SWAP2 SWAP1 POP JUMP JUMPDEST PUSH2 0x139 DUP2 PUSH2 0x125 JUMP JUMPDEST DUP3 MSTORE POP POP JUMP JUMPDEST PUSH0 PUSH1 0x20 DUP3 ADD SWAP1 POP PUSH2 0x152 PUSH0 DUP4 ADD DUP5 PUSH2 0x130 JUMP JUMPDEST SWAP3 SWAP2 POP POP JUMP JUMPDEST PUSH0 PUSH20 0xFFFFFFFFFFFFFFFFFFFFFFFFFFFFFFFFFFFFFFFF DUP3 AND SWAP1 POP SWAP2 SWAP1 POP JUMP JUMPDEST PUSH0 DUP2 SWAP1 POP SWAP2 SWAP1 POP JUMP JUMPDEST PUSH0 PUSH2 0x19A PUSH2 0x195 PUSH2 0x190 DUP5 PUSH2 0x158 JUMP JUMPDEST PUSH2 0x177 JUMP JUMPDEST PUSH2 0x158 JUMP JUMPDEST SWAP1 POP SWAP2 SWAP1 POP JUMP JUMPDEST PUSH0 PUSH2 0x1AB DUP3 PUSH2 0x180 JUMP JUMPDEST SWAP1 POP SWAP2 SWAP1 POP JUMP JUMPDEST PUSH0 PUSH2 0x1BC DUP3 PUSH2 0x1A1 JUMP JUMPDEST SWAP1 POP SWAP2 SWAP1 POP JUMP JUMPDEST PUSH2 0x1CC DUP2 PUSH2 0x1B2 JUMP JUMPDEST DUP3 MSTORE POP POP JUMP JUMPDEST PUSH0 PUSH1 0x20 DUP3 ADD SWAP1 POP PUSH2 0x1E5 PUSH0 DUP4 ADD DUP5 PUSH2 0x1C3 JUMP JUMPDEST SWAP3 SWAP2 POP POP JUMP JUMPDEST PUSH0 PUSH2 0x1F5 DUP3 PUSH2 0x1A1 JUMP JUMPDEST SWAP1 POP SWAP2 SWAP1 POP JUMP JUMPDEST PUSH2 0x205 DUP2 PUSH2 0x1EB JUMP JUMPDEST DUP3 MSTORE POP POP JUMP JUMPDEST PUSH0 PUSH1 0x20 DUP3 ADD SWAP1 POP PUSH2 0x21E PUSH0 DUP4 ADD DUP5 PUSH2 0x1FC JUMP JUMPDEST SWAP3 SWAP2 POP POP JUMP INVALID LOG2 PUSH5 0x6970667358 0x22 SLT KECCAK256 0xF7 0xE7 PUSH19 0xA7B7BD91DDAB8E4690B6A90BF3D0C640ACFAAF CREATE 0x21 0x25 SWAP12 PUSH17 0xC0C004B42364736F6C634300081A003360 DUP1 PUSH1 0x40 MSTORE CALLVALUE DUP1 ISZERO PUSH1 0xE JUMPI PUSH0 DUP1 REVERT JUMPDEST POP PUSH2 0x1EA DUP1 PUSH2 0x1C PUSH0 CODECOPY PUSH0 RETURN INVALID PUSH1 0x80 PUSH1 0x40 MSTORE CALLVALUE DUP1 ISZERO PUSH2 0xF JUMPI PUSH0 DUP1 REVERT JUMPDEST POP PUSH1 0x4 CALLDATASIZE LT PUSH2 0x29 JUMPI PUSH0 CALLDATALOAD PUSH1 0xE0 SHR DUP1 PUSH4 0xB9DB1B19 EQ PUSH2 0x2D JUMPI JUMPDEST PUSH0 DUP1 REVERT JUMPDEST PUSH2 0x47 PUSH1 0x4 DUP1 CALLDATASIZE SUB DUP2 ADD SWAP1 PUSH2 0x42 SWAP2 SWAP1 PUSH2 0x105 JUMP JUMPDEST PUSH2 0x5D JUMP JUMPDEST PUSH1 0x40 MLOAD PUSH2 0x54 SWAP2 SWAP1 PUSH2 0x13F JUMP JUMPDEST PUSH1 0x40 MLOAD DUP1 SWAP2 SUB SWAP1 RETURN JUMPDEST PUSH0 DUP1 DUP3 NUMBER TIMESTAMP PUSH1 0x40 MLOAD PUSH1 0x20 ADD PUSH2 0x74 SWAP4 SWAP3 SWAP2 SWAP1 PUSH2 0x178 JUMP JUMPDEST PUSH1 0x40 MLOAD PUSH1 0x20 DUP2 DUP4 SUB SUB DUP2 MSTORE SWAP1 PUSH1 0x40 MSTORE DUP1 MLOAD SWAP1 PUSH1 0x20 ADD KECCAK256 PUSH0 SHR SWAP1 POP PUSH32 0xE39BC54C4E458FBE3EA260B0B1020AEF9D292E9FF12314349BD634FA4D60AC53 DUP2 PUSH1 0x40 MLOAD PUSH2 0xBD SWAP2 SWAP1 PUSH2 0x13F JUMP JUMPDEST PUSH1 0x40 MLOAD DUP1 SWAP2 SUB SWAP1 LOG1 DUP1 SWAP2 POP POP SWAP2 SWAP1 POP JUMP JUMPDEST PUSH0 DUP1 REVERT JUMPDEST PUSH0 DUP2 SWAP1 POP SWAP2 SWAP1 POP JUMP JUMPDEST PUSH2 0xE4 DUP2 PUSH2 0xD2 JUMP JUMPDEST DUP2 EQ PUSH2 0xEE JUMPI PUSH0 DUP1 REVERT JUMPDEST POP JUMP JUMPDEST PUSH0 DUP2 CALLDATALOAD SWAP1 POP PUSH2 0xFF DUP2 PUSH2 0xDB JUMP JUMPDEST SWAP3 SWAP2 POP POP JUMP JUMPDEST PUSH0 PUSH1 0x20 DUP3 DUP5 SUB SLT ISZERO PUSH2 0x11A JUMPI PUSH2 0x119 PUSH2 0xCE JUMP JUMPDEST JUMPDEST PUSH0 PUSH2 0x127 DUP5 DUP3 DUP6 ADD PUSH2 0xF1 JUMP JUMPDEST SWAP2 POP POP SWAP3 SWAP2 POP POP JUMP JUMPDEST PUSH2 0x139 DUP2 PUSH2 0xD2 JUMP JUMPDEST DUP3 MSTORE POP POP JUMP JUMPDEST PUSH0 PUSH1 0x20 DUP3 ADD SWAP1 POP PUSH2 0x152 PUSH0 DUP4 ADD DUP5 PUSH2 0x130 JUMP JUMPDEST SWAP3 SWAP2 POP POP JUMP JUMPDEST PUSH0 DUP2 SWAP1 POP SWAP2 SWAP1 POP JUMP JUMPDEST PUSH2 0x172 PUSH2 0x16D DUP3 PUSH2 0xD2 JUMP JUMPDEST PUSH2 0x158 JUMP JUMPDEST DUP3 MSTORE POP POP JUMP JUMPDEST PUSH0 PUSH2 0x183 DUP3 DUP7 PUSH2 0x161 JUMP JUMPDEST PUSH1 0x20 DUP3 ADD SWAP2 POP PUSH2 0x193 DUP3 DUP6 PUSH2 0x161 JUMP JUMPDEST PUSH1 0x20 DUP3 ADD SWAP2 POP PUSH2 0x1A3 DUP3 DUP5 PUSH2 0x161 JUMP JUMPDEST PUSH1 0x20 DUP3 ADD SWAP2 POP DUP2 SWAP1 POP SWAP5 SWAP4 POP POP POP POP JUMP INVALID LOG2 PUSH5 0x6970667358 0x22 SLT KECCAK256 DUP10 0x2A PUSH31 0xB64B88FD0C805FB8B5CAF52980B69C2B3484FED0FAF6A26279204358A26473 PUSH16 0x6C634300081A003360A0604052348015 PUSH2 0xF JUMPI PUSH0 DUP1 REVERT JUMPDEST POP PUSH1 0x40 MLOAD PUSH2 0x9F6 CODESIZE SUB DUP1 PUSH2 0x9F6 DUP4 CODECOPY DUP2 DUP2 ADD PUSH1 0x40 MSTORE DUP2 ADD SWAP1 PUSH2 0x31 SWAP2 SWAP1 PUSH2 0xF1 JUMP JUMPDEST DUP1 PUSH1 0x1 PUSH0 PUSH2 0x100 EXP DUP2 SLOAD DUP2 PUSH20 0xFFFFFFFFFFFFFFFFFFFFFFFFFFFFFFFFFFFFFFFF MUL NOT AND SWAP1 DUP4 PUSH20 0xFFFFFFFFFFFFFFFFFFFFFFFFFFFFFFFFFFFFFFFF AND MUL OR SWAP1 SSTORE POP PREVRANDAO BLOCKHASH PUSH0 SHR PUSH1 0x80 DUP2 DUP2 MSTORE POP POP POP PUSH2 0x11C JUMP JUMPDEST PUSH0 DUP1 REVERT JUMPDEST PUSH0 PUSH20 0xFFFFFFFFFFFFFFFFFFFFFFFFFFFFFFFFFFFFFFFF DUP3 AND SWAP1 POP SWAP2 SWAP1 POP JUMP JUMPDEST PUSH0 PUSH2 0xAF DUP3 PUSH2 0x86 JUMP JUMPDEST SWAP1 POP SWAP2 SWAP1 POP JUMP JUMPDEST PUSH0 PUSH2 0xC0 DUP3 PUSH2 0xA5 JUMP JUMPDEST SWAP1 POP SWAP2 SWAP1 POP JUMP JUMPDEST PUSH2 0xD0 DUP2 PUSH2 0xB6 JUMP JUMPDEST DUP2 EQ PUSH2 0xDA JUMPI PUSH0 DUP1 REVERT JUMPDEST POP JUMP JUMPDEST PUSH0 DUP2 MLOAD SWAP1 POP PUSH2 0xEB DUP2 PUSH2 0xC7 JUMP JUMPDEST SWAP3 SWAP2 POP POP JUMP JUMPDEST PUSH0 PUSH1 0x20 DUP3 DUP5 SUB SLT ISZERO PUSH2 0x106 JUMPI PUSH2 0x105 PUSH2 0x82 JUMP JUMPDEST JUMPDEST PUSH0 PUSH2 0x113 DUP5 DUP3 DUP6 ADD PUSH2 0xDD JUMP JUMPDEST SWAP2 POP POP SWAP3 SWAP2 POP POP JUMP JUMPDEST PUSH1 0x80 MLOAD PUSH2 0x8BB PUSH2 0x13B PUSH0 CODECOPY PUSH0 DUP2 DUP2 PUSH2 0x2A0 ADD MSTORE PUSH2 0x450 ADD MSTORE PUSH2 0x8BB PUSH0 RETURN INVALID PUSH1 0x80 PUSH1 0x40 MSTORE PUSH1 0x4 CALLDATASIZE LT PUSH2 0x49 JUMPI PUSH0 CALLDATALOAD PUSH1 0xE0 SHR DUP1 PUSH4 0x27E235E3 EQ PUSH2 0x4D JUMPI DUP1 PUSH4 0x42DAD49E EQ PUSH2 0x89 JUMPI DUP1 PUSH4 0x94F41A88 EQ PUSH2 0x93 JUMPI DUP1 PUSH4 0x99D548AA EQ PUSH2 0xBD JUMPI DUP1 PUSH4 0xD1EFD30D EQ PUSH2 0xE5 JUMPI JUMPDEST PUSH0 DUP1 REVERT JUMPDEST CALLVALUE DUP1 ISZERO PUSH2 0x58 JUMPI PUSH0 DUP1 REVERT JUMPDEST POP PUSH2 0x73 PUSH1 0x4 DUP1 CALLDATASIZE SUB DUP2 ADD SWAP1 PUSH2 0x6E SWAP2 SWAP1 PUSH2 0x4D0 JUMP JUMPDEST PUSH2 0x10F JUMP JUMPDEST PUSH1 0x40 MLOAD PUSH2 0x80 SWAP2 SWAP1 PUSH2 0x513 JUMP JUMPDEST PUSH1 0x40 MLOAD DUP1 SWAP2 SUB SWAP1 RETURN JUMPDEST PUSH2 0x91 PUSH2 0x123 JUMP JUMPDEST STOP JUMPDEST CALLVALUE DUP1 ISZERO PUSH2 0x9E JUMPI PUSH0 DUP1 REVERT JUMPDEST POP PUSH2 0xA7 PUSH2 0x1B9 JUMP JUMPDEST PUSH1 0x40 MLOAD PUSH2 0xB4 SWAP2 SWAP1 PUSH2 0x587 JUMP JUMPDEST PUSH1 0x40 MLOAD DUP1 SWAP2 SUB SWAP1 RETURN JUMPDEST CALLVALUE DUP1 ISZERO PUSH2 0xC8 JUMPI PUSH0 DUP1 REVERT JUMPDEST POP PUSH2 0xE3 PUSH1 0x4 DUP1 CALLDATASIZE SUB DUP2 ADD SWAP1 PUSH2 0xDE SWAP2 SWAP1 PUSH2 0x5CA JUMP JUMPDEST PUSH2 0x1DE JUMP JUMPDEST STOP JUMPDEST CALLVALUE DUP1 ISZERO PUSH2 0xF0 JUMPI PUSH0 DUP1 REVERT JUMPDEST POP PUSH2 0xF9 PUSH2 0x44E JUMP JUMPDEST PUSH1 0x40 MLOAD PUSH2 0x106 SWAP2 SWAP1 PUSH2 0x513 JUMP JUMPDEST PUSH1 0x40 MLOAD DUP1 SWAP2 SUB SWAP1 RETURN JUMPDEST PUSH0 PUSH1 0x20 MSTORE DUP1 PUSH0 MSTORE PUSH1 0x40 PUSH0 KECCAK256 PUSH0 SWAP2 POP SWAP1 POP SLOAD DUP2 JUMP JUMPDEST PUSH0 CALLVALUE GT PUSH2 0x165 JUMPI PUSH1 0x40 MLOAD PUSH32 0x8C379A000000000000000000000000000000000000000000000000000000000 DUP2 MSTORE PUSH1 0x4 ADD PUSH2 0x15C SWAP1 PUSH2 0x64F JUMP JUMPDEST PUSH1 0x40 MLOAD DUP1 SWAP2 SUB SWAP1 REVERT JUMPDEST CALLVALUE PUSH0 DUP1 CALLER PUSH20 0xFFFFFFFFFFFFFFFFFFFFFFFFFFFFFFFFFFFFFFFF AND PUSH20 0xFFFFFFFFFFFFFFFFFFFFFFFFFFFFFFFFFFFFFFFF AND DUP2 MSTORE PUSH1 0x20 ADD SWAP1 DUP2 MSTORE PUSH1 0x20 ADD PUSH0 KECCAK256 PUSH0 DUP3 DUP3 SLOAD PUSH2 0x1B0 SWAP2 SWAP1 PUSH2 0x69A JUMP JUMPDEST SWAP3 POP POP DUP2 SWAP1 SSTORE POP JUMP JUMPDEST PUSH1 0x1 PUSH0 SWAP1 SLOAD SWAP1 PUSH2 0x100 EXP SWAP1 DIV PUSH20 0xFFFFFFFFFFFFFFFFFFFFFFFFFFFFFFFFFFFFFFFF AND DUP2 JUMP JUMPDEST PUSH0 DUP1 PUSH0 CALLER PUSH20 0xFFFFFFFFFFFFFFFFFFFFFFFFFFFFFFFFFFFFFFFF AND PUSH20 0xFFFFFFFFFFFFFFFFFFFFFFFFFFFFFFFFFFFFFFFF AND DUP2 MSTORE PUSH1 0x20 ADD SWAP1 DUP2 MSTORE PUSH1 0x20 ADD PUSH0 KECCAK256 SLOAD SWAP1 POP PUSH0 DUP2 GT PUSH2 0x260 JUMPI PUSH1 0x40 MLOAD PUSH32 0x8C379A000000000000000000000000000000000000000000000000000000000 DUP2 MSTORE PUSH1 0x4 ADD PUSH2 0x257 SWAP1 PUSH2 0x717 JUMP JUMPDEST PUSH1 0x40 MLOAD DUP1 SWAP2 SUB SWAP1 REVERT JUMPDEST PUSH0 PUSH1 0x1 PUSH0 SWAP1 SLOAD SWAP1 PUSH2 0x100 EXP SWAP1 DIV PUSH20 0xFFFFFFFFFFFFFFFFFFFFFFFFFFFFFFFFFFFFFFFF AND PUSH20 0xFFFFFFFFFFFFFFFFFFFFFFFFFFFFFFFFFFFFFFFF AND PUSH4 0xB9DB1B19 PUSH32 0x0 PUSH1 0x40 MLOAD DUP3 PUSH4 0xFFFFFFFF AND PUSH1 0xE0 SHL DUP2 MSTORE PUSH1 0x4 ADD PUSH2 0x2DB SWAP2 SWAP1 PUSH2 0x513 JUMP JUMPDEST PUSH1 0x20 PUSH1 0x40 MLOAD DUP1 DUP4 SUB DUP2 PUSH0 DUP8 GAS CALL ISZERO DUP1 ISZERO PUSH2 0x2F7 JUMPI RETURNDATASIZE PUSH0 DUP1 RETURNDATACOPY RETURNDATASIZE PUSH0 REVERT JUMPDEST POP POP POP POP PUSH1 0x40 MLOAD RETURNDATASIZE PUSH1 0x1F NOT PUSH1 0x1F DUP3 ADD AND DUP3 ADD DUP1 PUSH1 0x40 MSTORE POP DUP2 ADD SWAP1 PUSH2 0x31B SWAP2 SWAP1 PUSH2 0x749 JUMP JUMPDEST SWAP1 POP DUP1 DUP4 EQ PUSH2 0x35F JUMPI PUSH1 0x40 MLOAD PUSH32 0x8C379A000000000000000000000000000000000000000000000000000000000 DUP2 MSTORE PUSH1 0x4 ADD PUSH2 0x356 SWAP1 PUSH2 0x7BE JUMP JUMPDEST PUSH1 0x40 MLOAD DUP1 SWAP2 SUB SWAP1 REVERT JUMPDEST PUSH0 CALLER PUSH20 0xFFFFFFFFFFFFFFFFFFFFFFFFFFFFFFFFFFFFFFFF AND DUP4 PUSH1 0x40 MLOAD PUSH2 0x384 SWAP1 PUSH2 0x809 JUMP JUMPDEST PUSH0 PUSH1 0x40 MLOAD DUP1 DUP4 SUB DUP2 DUP6 DUP8 GAS CALL SWAP3 POP POP POP RETURNDATASIZE DUP1 PUSH0 DUP2 EQ PUSH2 0x3BE JUMPI PUSH1 0x40 MLOAD SWAP2 POP PUSH1 0x1F NOT PUSH1 0x3F RETURNDATASIZE ADD AND DUP3 ADD PUSH1 0x40 MSTORE RETURNDATASIZE DUP3 MSTORE RETURNDATASIZE PUSH0 PUSH1 0x20 DUP5 ADD RETURNDATACOPY PUSH2 0x3C3 JUMP JUMPDEST PUSH1 0x60 SWAP2 POP JUMPDEST POP POP SWAP1 POP DUP1 PUSH2 0x407 JUMPI PUSH1 0x40 MLOAD PUSH32 0x8C379A000000000000000000000000000000000000000000000000000000000 DUP2 MSTORE PUSH1 0x4 ADD PUSH2 0x3FE SWAP1 PUSH2 0x867 JUMP JUMPDEST PUSH1 0x40 MLOAD DUP1 SWAP2 SUB SWAP1 REVERT JUMPDEST PUSH0 DUP1 PUSH0 CALLER PUSH20 0xFFFFFFFFFFFFFFFFFFFFFFFFFFFFFFFFFFFFFFFF AND PUSH20 0xFFFFFFFFFFFFFFFFFFFFFFFFFFFFFFFFFFFFFFFF AND DUP2 MSTORE PUSH1 0x20 ADD SWAP1 DUP2 MSTORE PUSH1 0x20 ADD PUSH0 KECCAK256 DUP2 SWAP1 SSTORE POP POP POP POP POP JUMP JUMPDEST PUSH32 0x0 DUP2 JUMP JUMPDEST PUSH0 DUP1 REVERT JUMPDEST PUSH0 PUSH20 0xFFFFFFFFFFFFFFFFFFFFFFFFFFFFFFFFFFFFFFFF DUP3 AND SWAP1 POP SWAP2 SWAP1 POP JUMP JUMPDEST PUSH0 PUSH2 0x49F DUP3 PUSH2 0x476 JUMP JUMPDEST SWAP1 POP SWAP2 SWAP1 POP JUMP JUMPDEST PUSH2 0x4AF DUP2 PUSH2 0x495 JUMP JUMPDEST DUP2 EQ PUSH2 0x4B9 JUMPI PUSH0 DUP1 REVERT JUMPDEST POP JUMP JUMPDEST PUSH0 DUP2 CALLDATALOAD SWAP1 POP PUSH2 0x4CA DUP2 PUSH2 0x4A6 JUMP JUMPDEST SWAP3 SWAP2 POP POP JUMP JUMPDEST PUSH0 PUSH1 0x20 DUP3 DUP5 SUB SLT ISZERO PUSH2 0x4E5 JUMPI PUSH2 0x4E4 PUSH2 0x472 JUMP JUMPDEST JUMPDEST PUSH0 PUSH2 0x4F2 DUP5 DUP3 DUP6 ADD PUSH2 0x4BC JUMP JUMPDEST SWAP2 POP POP SWAP3 SWAP2 POP POP JUMP JUMPDEST PUSH0 DUP2 SWAP1 POP SWAP2 SWAP1 POP JUMP JUMPDEST PUSH2 0x50D DUP2 PUSH2 0x4FB JUMP JUMPDEST DUP3 MSTORE POP POP JUMP JUMPDEST PUSH0 PUSH1 0x20 DUP3 ADD SWAP1 POP PUSH2 0x526 PUSH0 DUP4 ADD DUP5 PUSH2 0x504 JUMP JUMPDEST SWAP3 SWAP2 POP POP JUMP JUMPDEST PUSH0 DUP2 SWAP1 POP SWAP2 SWAP1 POP JUMP JUMPDEST PUSH0 PUSH2 0x54F PUSH2 0x54A PUSH2 0x545 DUP5 PUSH2 0x476 JUMP JUMPDEST PUSH2 0x52C JUMP JUMPDEST PUSH2 0x476 JUMP JUMPDEST SWAP1 POP SWAP2 SWAP1 POP JUMP JUMPDEST PUSH0 PUSH2 0x560 DUP3 PUSH2 0x535 JUMP JUMPDEST SWAP1 POP SWAP2 SWAP1 POP JUMP JUMPDEST PUSH0 PUSH2 0x571 DUP3 PUSH2 0x556 JUMP JUMPDEST SWAP1 POP SWAP2 SWAP1 POP JUMP JUMPDEST PUSH2 0x581 DUP2 PUSH2 0x567 JUMP JUMPDEST DUP3 MSTORE POP POP JUMP JUMPDEST PUSH0 PUSH1 0x20 DUP3 ADD SWAP1 POP PUSH2 0x59A PUSH0 DUP4 ADD DUP5 PUSH2 0x578 JUMP JUMPDEST SWAP3 SWAP2 POP POP JUMP JUMPDEST PUSH2 0x5A9 DUP2 PUSH2 0x4FB JUMP JUMPDEST DUP2 EQ PUSH2 0x5B3 JUMPI PUSH0 DUP1 REVERT JUMPDEST POP JUMP JUMPDEST PUSH0 DUP2 CALLDATALOAD SWAP1 POP PUSH2 0x5C4 DUP2 PUSH2 0x5A0 JUMP JUMPDEST SWAP3 SWAP2 POP POP JUMP JUMPDEST PUSH0 PUSH1 0x20 DUP3 DUP5 SUB SLT ISZERO PUSH2 0x5DF JUMPI PUSH2 0x5DE PUSH2 0x472 JUMP JUMPDEST JUMPDEST PUSH0 PUSH2 0x5EC DUP5 DUP3 DUP6 ADD PUSH2 0x5B6 JUMP JUMPDEST SWAP2 POP POP SWAP3 SWAP2 POP POP JUMP JUMPDEST PUSH0 DUP3 DUP3 MSTORE PUSH1 0x20 DUP3 ADD SWAP1 POP SWAP3 SWAP2 POP POP JUMP JUMPDEST PUSH32 0x596F7520646F6E27742068617665206D6F6E6579205850000000000000000000 PUSH0 DUP3 ADD MSTORE POP JUMP JUMPDEST PUSH0 PUSH2 0x639 PUSH1 0x17 DUP4 PUSH2 0x5F5 JUMP JUMPDEST SWAP2 POP PUSH2 0x644 DUP3 PUSH2 0x605 JUMP JUMPDEST PUSH1 0x20 DUP3 ADD SWAP1 POP SWAP2 SWAP1 POP JUMP JUMPDEST PUSH0 PUSH1 0x20 DUP3 ADD SWAP1 POP DUP2 DUP2 SUB PUSH0 DUP4 ADD MSTORE PUSH2 0x666 DUP2 PUSH2 0x62D JUMP JUMPDEST SWAP1 POP SWAP2 SWAP1 POP JUMP JUMPDEST PUSH32 0x4E487B7100000000000000000000000000000000000000000000000000000000 PUSH0 MSTORE PUSH1 0x11 PUSH1 0x4 MSTORE PUSH1 0x24 PUSH0 REVERT JUMPDEST PUSH0 PUSH2 0x6A4 DUP3 PUSH2 0x4FB JUMP JUMPDEST SWAP2 POP PUSH2 0x6AF DUP4 PUSH2 0x4FB JUMP JUMPDEST SWAP3 POP DUP3 DUP3 ADD SWAP1 POP DUP1 DUP3 GT ISZERO PUSH2 0x6C7 JUMPI PUSH2 0x6C6 PUSH2 0x66D JUMP JUMPDEST JUMPDEST SWAP3 SWAP2 POP POP JUMP JUMPDEST PUSH32 0x596F7520646F6E27742068617665206D6F6E657920746F206C6F616420584400 PUSH0 DUP3 ADD MSTORE POP JUMP JUMPDEST PUSH0 PUSH2 0x701 PUSH1 0x1F DUP4 PUSH2 0x5F5 JUMP JUMPDEST SWAP2 POP PUSH2 0x70C DUP3 PUSH2 0x6CD JUMP JUMPDEST PUSH1 0x20 DUP3 ADD SWAP1 POP SWAP2 SWAP1 POP JUMP JUMPDEST PUSH0 PUSH1 0x20 DUP3 ADD SWAP1 POP DUP2 DUP2 SUB PUSH0 DUP4 ADD MSTORE PUSH2 0x72E DUP2 PUSH2 0x6F5 JUMP JUMPDEST SWAP1 POP SWAP2 SWAP1 POP JUMP JUMPDEST PUSH0 DUP2 MLOAD SWAP1 POP PUSH2 0x743 DUP2 PUSH2 0x5A0 JUMP JUMPDEST SWAP3 SWAP2 POP POP JUMP JUMPDEST PUSH0 PUSH1 0x20 DUP3 DUP5 SUB SLT ISZERO PUSH2 0x75E JUMPI PUSH2 0x75D PUSH2 0x472 JUMP JUMPDEST JUMPDEST PUSH0 PUSH2 0x76B DUP5 DUP3 DUP6 ADD PUSH2 0x735 JUMP JUMPDEST SWAP2 POP POP SWAP3 SWAP2 POP POP JUMP JUMPDEST PUSH32 0x496E76616C696420636170746368610000000000000000000000000000000000 PUSH0 DUP3 ADD MSTORE POP JUMP JUMPDEST PUSH0 PUSH2 0x7A8 PUSH1 0xF DUP4 PUSH2 0x5F5 JUMP JUMPDEST SWAP2 POP PUSH2 0x7B3 DUP3 PUSH2 0x774 JUMP JUMPDEST PUSH1 0x20 DUP3 ADD SWAP1 POP SWAP2 SWAP1 POP JUMP JUMPDEST PUSH0 PUSH1 0x20 DUP3 ADD SWAP1 POP DUP2 DUP2 SUB PUSH0 DUP4 ADD MSTORE PUSH2 0x7D5 DUP2 PUSH2 0x79C JUMP JUMPDEST SWAP1 POP SWAP2 SWAP1 POP JUMP JUMPDEST PUSH0 DUP2 SWAP1 POP SWAP3 SWAP2 POP POP JUMP JUMPDEST POP JUMP JUMPDEST PUSH0 PUSH2 0x7F4 PUSH0 DUP4 PUSH2 0x7DC JUMP JUMPDEST SWAP2 POP PUSH2 0x7FF DUP3 PUSH2 0x7E6 JUMP JUMPDEST PUSH0 DUP3 ADD SWAP1 POP SWAP2 SWAP1 POP JUMP JUMPDEST PUSH0 PUSH2 0x813 DUP3 PUSH2 0x7E9 JUMP JUMPDEST SWAP2 POP DUP2 SWAP1 POP SWAP2 SWAP1 POP JUMP JUMPDEST PUSH32 0x4F68206D7920676F642C20776861742069732074686174213F00000000000000 PUSH0 DUP3 ADD MSTORE POP JUMP JUMPDEST PUSH0 PUSH2 0x851 PUSH1 0x19 DUP4 PUSH2 0x5F5 JUMP JUMPDEST SWAP2 POP PUSH2 0x85C DUP3 PUSH2 0x81D JUMP JUMPDEST PUSH1 0x20 DUP3 ADD SWAP1 POP SWAP2 SWAP1 POP JUMP JUMPDEST PUSH0 PUSH1 0x20 DUP3 ADD SWAP1 POP DUP2 DUP2 SUB PUSH0 DUP4 ADD MSTORE PUSH2 0x87E DUP2 PUSH2 0x845 JUMP JUMPDEST SWAP1 POP SWAP2 SWAP1 POP JUMP INVALID LOG2 PUSH5 0x6970667358 0x22 SLT KECCAK256 0xE0 GAS DUP8 0xF 0xA9 PC 0x4D SELFDESTRUCT 0xC4 0xDF JUMPDEST PUSH31 0xC74B98EDCFF15C7A3B9CC6E13F51DECEFD34DEBC64736F6C634300081A0033 "
		},
		"gasEstimates": {
			"creation": {
				"codeDepositCost": "120400",
				"executionCost": "infinite",
				"totalCost": "infinite"
			},
			"external": {
				"captchaContract()": "infinite",
				"isSolved()": "infinite",
				"moneyContract()": "infinite"
			}
		},
		"methodIdentifiers": {
			"captchaContract()": "94f41a88",
			"isSolved()": "64d98f6e",
			"moneyContract()": "6f81a257"
		}
	},
	"abi": [
		{
			"inputs": [],
			"stateMutability": "payable",
			"type": "constructor"
		},
		{
			"inputs": [],
			"name": "captchaContract",
			"outputs": [
				{
					"internalType": "contract Captcha",
					"name": "",
					"type": "address"
				}
			],
			"stateMutability": "view",
			"type": "function"
		},
		{
			"inputs": [],
			"name": "isSolved",
			"outputs": [
				{
					"internalType": "bool",
					"name": "",
					"type": "bool"
				}
			],
			"stateMutability": "view",
			"type": "function"
		},
		{
			"inputs": [],
			"name": "moneyContract",
			"outputs": [
				{
					"internalType": "contract Money",
					"name": "",
					"type": "address"
				}
			],
			"stateMutability": "view",
			"type": "function"
		}
	]
}