{
	"Unsolveable_Money_Captcha/contracts/Hack.sol": {
		"Hack": {
			"abi": [
				{
					"inputs": [
						{
							"internalType": "address payable",
							"name": "_target",
							"type": "address"
						}
					],
					"stateMutability": "nonpayable",
					"type": "constructor"
				},
				{
					"inputs": [],
					"name": "hack",
					"outputs": [],
					"stateMutability": "payable",
					"type": "function"
				},
				{
					"inputs": [
						{
							"internalType": "uint256",
							"name": "x",
							"type": "uint256"
						},
						{
							"internalType": "uint256",
							"name": "y",
							"type": "uint256"
						}
					],
					"name": "min",
					"outputs": [
						{
							"internalType": "uint256",
							"name": "",
							"type": "uint256"
						}
					],
					"stateMutability": "pure",
					"type": "function"
				},
				{
					"stateMutability": "payable",
					"type": "receive"
				}
			],
			"devdoc": {
				"kind": "dev",
				"methods": {},
				"version": 1
			},
			"evm": {
				"assembly": "    /* \"Unsolveable_Money_Captcha/contracts/Hack.sol\":77:1128  contract Hack {... */\n  mstore(0x40, 0x80)\n    /* \"Unsolveable_Money_Captcha/contracts/Hack.sol\":165:326  constructor(address payable _target)  {... */\n  callvalue\n  dup1\n  iszero\n  tag_1\n  jumpi\n  0x00\n  dup1\n  revert\ntag_1:\n  pop\n  mload(0x40)\n  sub(codesize, bytecodeSize)\n  dup1\n  bytecodeSize\n  dup4\n  codecopy\n  dup2\n  dup2\n  add\n  0x40\n  mstore\n  dup2\n  add\n  swap1\n  tag_2\n  swap2\n  swap1\n  tag_3\n  jump\t// in\ntag_2:\n    /* \"Unsolveable_Money_Captcha/contracts/Hack.sol\":228:235  _target */\n  dup1\n    /* \"Unsolveable_Money_Captcha/contracts/Hack.sol\":214:219  money */\n  0x00\n  dup1\n    /* \"Unsolveable_Money_Captcha/contracts/Hack.sol\":214:236  money = Money(_target) */\n  0x0100\n  exp\n  dup2\n  sload\n  dup2\n  0xffffffffffffffffffffffffffffffffffffffff\n  mul\n  not\n  and\n  swap1\n  dup4\n  0xffffffffffffffffffffffffffffffffffffffff\n  and\n  mul\n  or\n  swap1\n  sstore\n  pop\n    /* \"Unsolveable_Money_Captcha/contracts/Hack.sol\":256:261  money */\n  0x00\n  dup1\n  sload\n  swap1\n  0x0100\n  exp\n  swap1\n  div\n  0xffffffffffffffffffffffffffffffffffffffff\n  and\n    /* \"Unsolveable_Money_Captcha/contracts/Hack.sol\":256:268  money.secret */\n  0xffffffffffffffffffffffffffffffffffffffff\n  and\n  0xd1efd30d\n    /* \"Unsolveable_Money_Captcha/contracts/Hack.sol\":256:270  money.secret() */\n  mload(0x40)\n  dup2\n  0xffffffff\n  and\n  0xe0\n  shl\n  dup2\n  mstore\n  0x04\n  add\n  0x20\n  mload(0x40)\n  dup1\n  dup4\n  sub\n  dup2\n  dup7\n  gas\n  staticcall\n  iszero\n  dup1\n  iszero\n  tag_7\n  jumpi\n  returndatasize\n  0x00\n  dup1\n  returndatacopy\n  revert(0x00, returndatasize)\ntag_7:\n  pop\n  pop\n  pop\n  pop\n  mload(0x40)\n  returndatasize\n  not(0x1f)\n  0x1f\n  dup3\n  add\n  and\n  dup3\n  add\n  dup1\n  0x40\n  mstore\n  pop\n  dup2\n  add\n  swap1\n  tag_8\n  swap2\n  swap1\n  tag_9\n  jump\t// in\ntag_8:\n    /* \"Unsolveable_Money_Captcha/contracts/Hack.sol\":247:253  secret */\n  0x01\n    /* \"Unsolveable_Money_Captcha/contracts/Hack.sol\":247:270  secret = money.secret() */\n  dup2\n  swap1\n  sstore\n  pop\n    /* \"Unsolveable_Money_Captcha/contracts/Hack.sol\":165:326  constructor(address payable _target)  {... */\n  pop\n    /* \"Unsolveable_Money_Captcha/contracts/Hack.sol\":77:1128  contract Hack {... */\n  jump(tag_10)\n    /* \"#utility.yul\":88:205   */\ntag_12:\n    /* \"#utility.yul\":197:198   */\n  0x00\n    /* \"#utility.yul\":194:195   */\n  dup1\n    /* \"#utility.yul\":187:199   */\n  revert\n    /* \"#utility.yul\":334:460   */\ntag_14:\n    /* \"#utility.yul\":371:378   */\n  0x00\n    /* \"#utility.yul\":411:453   */\n  0xffffffffffffffffffffffffffffffffffffffff\n    /* \"#utility.yul\":404:409   */\n  dup3\n    /* \"#utility.yul\":400:454   */\n  and\n    /* \"#utility.yul\":389:454   */\n  swap1\n  pop\n    /* \"#utility.yul\":334:460   */\n  swap2\n  swap1\n  pop\n  jump\t// out\n    /* \"#utility.yul\":466:570   */\ntag_15:\n    /* \"#utility.yul\":511:518   */\n  0x00\n    /* \"#utility.yul\":540:564   */\n  tag_27\n    /* \"#utility.yul\":558:563   */\n  dup3\n    /* \"#utility.yul\":540:564   */\n  tag_14\n  jump\t// in\ntag_27:\n    /* \"#utility.yul\":529:564   */\n  swap1\n  pop\n    /* \"#utility.yul\":466:570   */\n  swap2\n  swap1\n  pop\n  jump\t// out\n    /* \"#utility.yul\":576:714   */\ntag_16:\n    /* \"#utility.yul\":657:689   */\n  tag_29\n    /* \"#utility.yul\":683:688   */\n  dup2\n    /* \"#utility.yul\":657:689   */\n  tag_15\n  jump\t// in\ntag_29:\n    /* \"#utility.yul\":650:655   */\n  dup2\n    /* \"#utility.yul\":647:690   */\n  eq\n    /* \"#utility.yul\":637:708   */\n  tag_30\n  jumpi\n    /* \"#utility.yul\":704:705   */\n  0x00\n    /* \"#utility.yul\":701:702   */\n  dup1\n    /* \"#utility.yul\":694:706   */\n  revert\n    /* \"#utility.yul\":637:708   */\ntag_30:\n    /* \"#utility.yul\":576:714   */\n  pop\n  jump\t// out\n    /* \"#utility.yul\":720:879   */\ntag_17:\n    /* \"#utility.yul\":785:790   */\n  0x00\n    /* \"#utility.yul\":816:822   */\n  dup2\n    /* \"#utility.yul\":810:823   */\n  mload\n    /* \"#utility.yul\":801:823   */\n  swap1\n  pop\n    /* \"#utility.yul\":832:873   */\n  tag_32\n    /* \"#utility.yul\":867:872   */\n  dup2\n    /* \"#utility.yul\":832:873   */\n  tag_16\n  jump\t// in\ntag_32:\n    /* \"#utility.yul\":720:879   */\n  swap3\n  swap2\n  pop\n  pop\n  jump\t// out\n    /* \"#utility.yul\":885:1252   */\ntag_3:\n    /* \"#utility.yul\":963:969   */\n  0x00\n    /* \"#utility.yul\":1012:1014   */\n  0x20\n    /* \"#utility.yul\":1000:1009   */\n  dup3\n    /* \"#utility.yul\":991:998   */\n  dup5\n    /* \"#utility.yul\":987:1010   */\n  sub\n    /* \"#utility.yul\":983:1015   */\n  slt\n    /* \"#utility.yul\":980:1099   */\n  iszero\n  tag_34\n  jumpi\n    /* \"#utility.yul\":1018:1097   */\n  tag_35\n  tag_12\n  jump\t// in\ntag_35:\n    /* \"#utility.yul\":980:1099   */\ntag_34:\n    /* \"#utility.yul\":1138:1139   */\n  0x00\n    /* \"#utility.yul\":1163:1235   */\n  tag_36\n    /* \"#utility.yul\":1227:1234   */\n  dup5\n    /* \"#utility.yul\":1218:1224   */\n  dup3\n    /* \"#utility.yul\":1207:1216   */\n  dup6\n    /* \"#utility.yul\":1203:1225   */\n  add\n    /* \"#utility.yul\":1163:1235   */\n  tag_17\n  jump\t// in\ntag_36:\n    /* \"#utility.yul\":1153:1235   */\n  swap2\n  pop\n    /* \"#utility.yul\":1109:1245   */\n  pop\n    /* \"#utility.yul\":885:1252   */\n  swap3\n  swap2\n  pop\n  pop\n  jump\t// out\n    /* \"#utility.yul\":1258:1335   */\ntag_18:\n    /* \"#utility.yul\":1295:1302   */\n  0x00\n    /* \"#utility.yul\":1324:1329   */\n  dup2\n    /* \"#utility.yul\":1313:1329   */\n  swap1\n  pop\n    /* \"#utility.yul\":1258:1335   */\n  swap2\n  swap1\n  pop\n  jump\t// out\n    /* \"#utility.yul\":1341:1463   */\ntag_19:\n    /* \"#utility.yul\":1414:1438   */\n  tag_39\n    /* \"#utility.yul\":1432:1437   */\n  dup2\n    /* \"#utility.yul\":1414:1438   */\n  tag_18\n  jump\t// in\ntag_39:\n    /* \"#utility.yul\":1407:1412   */\n  dup2\n    /* \"#utility.yul\":1404:1439   */\n  eq\n    /* \"#utility.yul\":1394:1457   */\n  tag_40\n  jumpi\n    /* \"#utility.yul\":1453:1454   */\n  0x00\n    /* \"#utility.yul\":1450:1451   */\n  dup1\n    /* \"#utility.yul\":1443:1455   */\n  revert\n    /* \"#utility.yul\":1394:1457   */\ntag_40:\n    /* \"#utility.yul\":1341:1463   */\n  pop\n  jump\t// out\n    /* \"#utility.yul\":1469:1612   */\ntag_20:\n    /* \"#utility.yul\":1526:1531   */\n  0x00\n    /* \"#utility.yul\":1557:1563   */\n  dup2\n    /* \"#utility.yul\":1551:1564   */\n  mload\n    /* \"#utility.yul\":1542:1564   */\n  swap1\n  pop\n    /* \"#utility.yul\":1573:1606   */\n  tag_42\n    /* \"#utility.yul\":1600:1605   */\n  dup2\n    /* \"#utility.yul\":1573:1606   */\n  tag_19\n  jump\t// in\ntag_42:\n    /* \"#utility.yul\":1469:1612   */\n  swap3\n  swap2\n  pop\n  pop\n  jump\t// out\n    /* \"#utility.yul\":1618:1969   */\ntag_9:\n    /* \"#utility.yul\":1688:1694   */\n  0x00\n    /* \"#utility.yul\":1737:1739   */\n  0x20\n    /* \"#utility.yul\":1725:1734   */\n  dup3\n    /* \"#utility.yul\":1716:1723   */\n  dup5\n    /* \"#utility.yul\":1712:1735   */\n  sub\n    /* \"#utility.yul\":1708:1740   */\n  slt\n    /* \"#utility.yul\":1705:1824   */\n  iszero\n  tag_44\n  jumpi\n    /* \"#utility.yul\":1743:1822   */\n  tag_45\n  tag_12\n  jump\t// in\ntag_45:\n    /* \"#utility.yul\":1705:1824   */\ntag_44:\n    /* \"#utility.yul\":1863:1864   */\n  0x00\n    /* \"#utility.yul\":1888:1952   */\n  tag_46\n    /* \"#utility.yul\":1944:1951   */\n  dup5\n    /* \"#utility.yul\":1935:1941   */\n  dup3\n    /* \"#utility.yul\":1924:1933   */\n  dup6\n    /* \"#utility.yul\":1920:1942   */\n  add\n    /* \"#utility.yul\":1888:1952   */\n  tag_20\n  jump\t// in\ntag_46:\n    /* \"#utility.yul\":1878:1952   */\n  swap2\n  pop\n    /* \"#utility.yul\":1834:1962   */\n  pop\n    /* \"#utility.yul\":1618:1969   */\n  swap3\n  swap2\n  pop\n  pop\n  jump\t// out\n    /* \"Unsolveable_Money_Captcha/contracts/Hack.sol\":77:1128  contract Hack {... */\ntag_10:\n  dataSize(sub_0)\n  dup1\n  dataOffset(sub_0)\n  0x00\n  codecopy\n  0x00\n  return\nstop\n\nsub_0: assembly {\n        /* \"Unsolveable_Money_Captcha/contracts/Hack.sol\":77:1128  contract Hack {... */\n      mstore(0x40, 0x80)\n      jumpi(tag_1, lt(calldatasize, 0x04))\n      shr(0xe0, calldataload(0x00))\n      dup1\n      0x4de260a2\n      eq\n      tag_3\n      jumpi\n      dup1\n      0x7ae2b5c7\n      eq\n      tag_4\n      jumpi\n      jump(tag_2)\n    tag_1:\n      jumpi(tag_2, calldatasize)\n        /* \"Unsolveable_Money_Captcha/contracts/Hack.sol\":771:782  uint amount */\n      0x00\n        /* \"Unsolveable_Money_Captcha/contracts/Hack.sol\":785:821  min(1 ether, address(money).balance) */\n      tag_7\n        /* \"Unsolveable_Money_Captcha/contracts/Hack.sol\":789:796  1 ether */\n      0x0de0b6b3a7640000\n        /* \"Unsolveable_Money_Captcha/contracts/Hack.sol\":806:811  money */\n      0x00\n      dup1\n      sload\n      swap1\n      0x0100\n      exp\n      swap1\n      div\n      0xffffffffffffffffffffffffffffffffffffffff\n      and\n        /* \"Unsolveable_Money_Captcha/contracts/Hack.sol\":798:820  address(money).balance */\n      0xffffffffffffffffffffffffffffffffffffffff\n      and\n      balance\n        /* \"Unsolveable_Money_Captcha/contracts/Hack.sol\":785:788  min */\n      tag_8\n        /* \"Unsolveable_Money_Captcha/contracts/Hack.sol\":785:821  min(1 ether, address(money).balance) */\n      jump\t// in\n    tag_7:\n        /* \"Unsolveable_Money_Captcha/contracts/Hack.sol\":771:821  uint amount = min(1 ether, address(money).balance) */\n      swap1\n      pop\n        /* \"Unsolveable_Money_Captcha/contracts/Hack.sol\":845:846  0 */\n      0x00\n        /* \"Unsolveable_Money_Captcha/contracts/Hack.sol\":836:842  amount */\n      dup2\n        /* \"Unsolveable_Money_Captcha/contracts/Hack.sol\":836:846  amount > 0 */\n      gt\n        /* \"Unsolveable_Money_Captcha/contracts/Hack.sol\":832:1012  if (amount > 0 ){... */\n      iszero\n      tag_9\n      jumpi\n        /* \"Unsolveable_Money_Captcha/contracts/Hack.sol\":867:882  uint256 captcha */\n      0x00\n        /* \"Unsolveable_Money_Captcha/contracts/Hack.sol\":920:926  secret */\n      sload(0x01)\n        /* \"Unsolveable_Money_Captcha/contracts/Hack.sol\":928:940  block.number */\n      number\n        /* \"Unsolveable_Money_Captcha/contracts/Hack.sol\":942:957  block.timestamp */\n      timestamp\n        /* \"Unsolveable_Money_Captcha/contracts/Hack.sol\":903:958  abi.encodePacked(secret, block.number, block.timestamp) */\n      add(0x20, mload(0x40))\n      tag_10\n      swap4\n      swap3\n      swap2\n      swap1\n      tag_11\n      jump\t// in\n    tag_10:\n      mload(0x40)\n      0x20\n      dup2\n      dup4\n      sub\n      sub\n      dup2\n      mstore\n      swap1\n      0x40\n      mstore\n        /* \"Unsolveable_Money_Captcha/contracts/Hack.sol\":893:959  keccak256(abi.encodePacked(secret, block.number, block.timestamp)) */\n      dup1\n      mload\n      swap1\n      0x20\n      add\n      keccak256\n        /* \"Unsolveable_Money_Captcha/contracts/Hack.sol\":885:960  uint256(keccak256(abi.encodePacked(secret, block.number, block.timestamp))) */\n      0x00\n      shr\n        /* \"Unsolveable_Money_Captcha/contracts/Hack.sol\":867:960  uint256 captcha = uint256(keccak256(abi.encodePacked(secret, block.number, block.timestamp))) */\n      swap1\n      pop\n        /* \"Unsolveable_Money_Captcha/contracts/Hack.sol\":979:984  money */\n      0x00\n      dup1\n      sload\n      swap1\n      0x0100\n      exp\n      swap1\n      div\n      0xffffffffffffffffffffffffffffffffffffffff\n      and\n        /* \"Unsolveable_Money_Captcha/contracts/Hack.sol\":979:989  money.load */\n      0xffffffffffffffffffffffffffffffffffffffff\n      and\n      0x99d548aa\n        /* \"Unsolveable_Money_Captcha/contracts/Hack.sol\":990:997  captcha */\n      dup3\n        /* \"Unsolveable_Money_Captcha/contracts/Hack.sol\":979:998  money.load(captcha) */\n      mload(0x40)\n      dup3\n      0xffffffff\n      and\n      0xe0\n      shl\n      dup2\n      mstore\n      0x04\n      add\n      tag_12\n      swap2\n      swap1\n      tag_13\n      jump\t// in\n    tag_12:\n      0x00\n      mload(0x40)\n      dup1\n      dup4\n      sub\n      dup2\n      0x00\n      dup8\n      dup1\n      extcodesize\n      iszero\n      dup1\n      iszero\n      tag_14\n      jumpi\n      0x00\n      dup1\n      revert\n    tag_14:\n      pop\n      gas\n      call\n      iszero\n      dup1\n      iszero\n      tag_16\n      jumpi\n      returndatasize\n      0x00\n      dup1\n      returndatacopy\n      revert(0x00, returndatasize)\n    tag_16:\n      pop\n      pop\n      pop\n      pop\n        /* \"Unsolveable_Money_Captcha/contracts/Hack.sol\":848:1012  {... */\n      pop\n        /* \"Unsolveable_Money_Captcha/contracts/Hack.sol\":832:1012  if (amount > 0 ){... */\n    tag_9:\n        /* \"Unsolveable_Money_Captcha/contracts/Hack.sol\":759:1021  { ... */\n      stop\n        /* \"Unsolveable_Money_Captcha/contracts/Hack.sol\":77:1128  contract Hack {... */\n    tag_2:\n      0x00\n      dup1\n      revert\n        /* \"Unsolveable_Money_Captcha/contracts/Hack.sol\":334:724  function hack() payable  public {... */\n    tag_3:\n      tag_17\n      tag_18\n      jump\t// in\n    tag_17:\n      stop\n        /* \"Unsolveable_Money_Captcha/contracts/Hack.sol\":1029:1125  function min(uint x, uint y) public pure returns (uint){... */\n    tag_4:\n      callvalue\n      dup1\n      iszero\n      tag_19\n      jumpi\n      0x00\n      dup1\n      revert\n    tag_19:\n      pop\n      tag_20\n      0x04\n      dup1\n      calldatasize\n      sub\n      dup2\n      add\n      swap1\n      tag_21\n      swap2\n      swap1\n      tag_22\n      jump\t// in\n    tag_21:\n      tag_8\n      jump\t// in\n    tag_20:\n      mload(0x40)\n      tag_23\n      swap2\n      swap1\n      tag_13\n      jump\t// in\n    tag_23:\n      mload(0x40)\n      dup1\n      swap2\n      sub\n      swap1\n      return\n    tag_8:\n        /* \"Unsolveable_Money_Captcha/contracts/Hack.sol\":1079:1083  uint */\n      0x00\n        /* \"Unsolveable_Money_Captcha/contracts/Hack.sol\":1107:1108  y */\n      dup2\n        /* \"Unsolveable_Money_Captcha/contracts/Hack.sol\":1102:1103  x */\n      dup4\n        /* \"Unsolveable_Money_Captcha/contracts/Hack.sol\":1102:1108  x <= y */\n      gt\n      iszero\n        /* \"Unsolveable_Money_Captcha/contracts/Hack.sol\":1102:1116  x <= y ? x : y */\n      tag_25\n      jumpi\n        /* \"Unsolveable_Money_Captcha/contracts/Hack.sol\":1115:1116  y */\n      dup2\n        /* \"Unsolveable_Money_Captcha/contracts/Hack.sol\":1102:1116  x <= y ? x : y */\n      jump(tag_26)\n    tag_25:\n        /* \"Unsolveable_Money_Captcha/contracts/Hack.sol\":1111:1112  x */\n      dup3\n        /* \"Unsolveable_Money_Captcha/contracts/Hack.sol\":1102:1116  x <= y ? x : y */\n    tag_26:\n        /* \"Unsolveable_Money_Captcha/contracts/Hack.sol\":1095:1116  return x <= y ? x : y */\n      swap1\n      pop\n        /* \"Unsolveable_Money_Captcha/contracts/Hack.sol\":1029:1125  function min(uint x, uint y) public pure returns (uint){... */\n      swap3\n      swap2\n      pop\n      pop\n      jump\t// out\n        /* \"Unsolveable_Money_Captcha/contracts/Hack.sol\":334:724  function hack() payable  public {... */\n    tag_18:\n        /* \"Unsolveable_Money_Captcha/contracts/Hack.sol\":398:405  1 ether */\n      0x0de0b6b3a7640000\n        /* \"Unsolveable_Money_Captcha/contracts/Hack.sol\":385:394  msg.value */\n      callvalue\n        /* \"Unsolveable_Money_Captcha/contracts/Hack.sol\":385:405  msg.value == 1 ether */\n      eq\n        /* \"Unsolveable_Money_Captcha/contracts/Hack.sol\":377:420  require(msg.value == 1 ether, \"Need 1 ETH\") */\n      tag_28\n      jumpi\n      mload(0x40)\n      0x08c379a000000000000000000000000000000000000000000000000000000000\n      dup2\n      mstore\n      0x04\n      add\n      tag_29\n      swap1\n      tag_30\n      jump\t// in\n    tag_29:\n      mload(0x40)\n      dup1\n      swap2\n      sub\n      swap1\n      revert\n    tag_28:\n        /* \"Unsolveable_Money_Captcha/contracts/Hack.sol\":431:436  money */\n      0x00\n      dup1\n      sload\n      swap1\n      0x0100\n      exp\n      swap1\n      div\n      0xffffffffffffffffffffffffffffffffffffffff\n      and\n        /* \"Unsolveable_Money_Captcha/contracts/Hack.sol\":431:441  money.save */\n      0xffffffffffffffffffffffffffffffffffffffff\n      and\n      0x42dad49e\n        /* \"Unsolveable_Money_Captcha/contracts/Hack.sol\":450:457  1 ether */\n      0x0de0b6b3a7640000\n        /* \"Unsolveable_Money_Captcha/contracts/Hack.sol\":431:461  money.save{ value: 1 ether }() */\n      mload(0x40)\n      dup3\n      0xffffffff\n      and\n      0xe0\n      shl\n      dup2\n      mstore\n      0x04\n      add\n      0x00\n      mload(0x40)\n      dup1\n      dup4\n      sub\n      dup2\n      dup6\n      dup9\n      dup1\n      extcodesize\n      iszero\n      dup1\n      iszero\n      tag_31\n      jumpi\n      0x00\n      dup1\n      revert\n    tag_31:\n      pop\n      gas\n      call\n      iszero\n      dup1\n      iszero\n      tag_33\n      jumpi\n      returndatasize\n      0x00\n      dup1\n      returndatacopy\n      revert(0x00, returndatasize)\n    tag_33:\n      pop\n      pop\n      pop\n      pop\n      pop\n        /* \"Unsolveable_Money_Captcha/contracts/Hack.sol\":472:487  uint256 captcha */\n      0x00\n        /* \"Unsolveable_Money_Captcha/contracts/Hack.sol\":525:531  secret */\n      sload(0x01)\n        /* \"Unsolveable_Money_Captcha/contracts/Hack.sol\":533:545  block.number */\n      number\n        /* \"Unsolveable_Money_Captcha/contracts/Hack.sol\":547:562  block.timestamp */\n      timestamp\n        /* \"Unsolveable_Money_Captcha/contracts/Hack.sol\":508:563  abi.encodePacked(secret, block.number, block.timestamp) */\n      add(0x20, mload(0x40))\n      tag_34\n      swap4\n      swap3\n      swap2\n      swap1\n      tag_11\n      jump\t// in\n    tag_34:\n      mload(0x40)\n      0x20\n      dup2\n      dup4\n      sub\n      sub\n      dup2\n      mstore\n      swap1\n      0x40\n      mstore\n        /* \"Unsolveable_Money_Captcha/contracts/Hack.sol\":498:564  keccak256(abi.encodePacked(secret, block.number, block.timestamp)) */\n      dup1\n      mload\n      swap1\n      0x20\n      add\n      keccak256\n        /* \"Unsolveable_Money_Captcha/contracts/Hack.sol\":490:565  uint256(keccak256(abi.encodePacked(secret, block.number, block.timestamp))) */\n      0x00\n      shr\n        /* \"Unsolveable_Money_Captcha/contracts/Hack.sol\":472:565  uint256 captcha = uint256(keccak256(abi.encodePacked(secret, block.number, block.timestamp))) */\n      swap1\n      pop\n        /* \"Unsolveable_Money_Captcha/contracts/Hack.sol\":576:581  money */\n      0x00\n      dup1\n      sload\n      swap1\n      0x0100\n      exp\n      swap1\n      div\n      0xffffffffffffffffffffffffffffffffffffffff\n      and\n        /* \"Unsolveable_Money_Captcha/contracts/Hack.sol\":576:586  money.load */\n      0xffffffffffffffffffffffffffffffffffffffff\n      and\n      0x99d548aa\n        /* \"Unsolveable_Money_Captcha/contracts/Hack.sol\":587:594  captcha */\n      dup3\n        /* \"Unsolveable_Money_Captcha/contracts/Hack.sol\":576:595  money.load(captcha) */\n      mload(0x40)\n      dup3\n      0xffffffff\n      and\n      0xe0\n      shl\n      dup2\n      mstore\n      0x04\n      add\n      tag_35\n      swap2\n      swap1\n      tag_13\n      jump\t// in\n    tag_35:\n      0x00\n      mload(0x40)\n      dup1\n      dup4\n      sub\n      dup2\n      0x00\n      dup8\n      dup1\n      extcodesize\n      iszero\n      dup1\n      iszero\n      tag_36\n      jumpi\n      0x00\n      dup1\n      revert\n    tag_36:\n      pop\n      gas\n      call\n      iszero\n      dup1\n      iszero\n      tag_38\n      jumpi\n      returndatasize\n      0x00\n      dup1\n      returndatacopy\n      revert(0x00, returndatasize)\n    tag_38:\n      pop\n      pop\n      pop\n      pop\n        /* \"Unsolveable_Money_Captcha/contracts/Hack.sol\":642:643  0 */\n      0x00\n        /* \"Unsolveable_Money_Captcha/contracts/Hack.sol\":624:629  money */\n      dup1\n      0x00\n      swap1\n      sload\n      swap1\n      0x0100\n      exp\n      swap1\n      div\n      0xffffffffffffffffffffffffffffffffffffffff\n      and\n        /* \"Unsolveable_Money_Captcha/contracts/Hack.sol\":616:638  address(money).balance */\n      0xffffffffffffffffffffffffffffffffffffffff\n      and\n      balance\n        /* \"Unsolveable_Money_Captcha/contracts/Hack.sol\":616:643  address(money).balance == 0 */\n      eq\n        /* \"Unsolveable_Money_Captcha/contracts/Hack.sol\":608:672  require(address(money).balance == 0, \"Contract should be empty\") */\n      tag_39\n      jumpi\n      mload(0x40)\n      0x08c379a000000000000000000000000000000000000000000000000000000000\n      dup2\n      mstore\n      0x04\n      add\n      tag_40\n      swap1\n      tag_41\n      jump\t// in\n    tag_40:\n      mload(0x40)\n      dup1\n      swap2\n      sub\n      swap1\n      revert\n    tag_39:\n        /* \"Unsolveable_Money_Captcha/contracts/Hack.sol\":704:714  msg.sender */\n      caller\n        /* \"Unsolveable_Money_Captcha/contracts/Hack.sol\":683:716  selfdestruct(payable(msg.sender)) */\n      0xffffffffffffffffffffffffffffffffffffffff\n      and\n      selfdestruct\n        /* \"#utility.yul\":7:84   */\n    tag_42:\n        /* \"#utility.yul\":44:51   */\n      0x00\n        /* \"#utility.yul\":73:78   */\n      dup2\n        /* \"#utility.yul\":62:78   */\n      swap1\n      pop\n        /* \"#utility.yul\":7:84   */\n      swap2\n      swap1\n      pop\n      jump\t// out\n        /* \"#utility.yul\":90:169   */\n    tag_43:\n        /* \"#utility.yul\":129:136   */\n      0x00\n        /* \"#utility.yul\":158:163   */\n      dup2\n        /* \"#utility.yul\":147:163   */\n      swap1\n      pop\n        /* \"#utility.yul\":90:169   */\n      swap2\n      swap1\n      pop\n      jump\t// out\n        /* \"#utility.yul\":175:332   */\n    tag_44:\n        /* \"#utility.yul\":280:325   */\n      tag_60\n        /* \"#utility.yul\":300:324   */\n      tag_61\n        /* \"#utility.yul\":318:323   */\n      dup3\n        /* \"#utility.yul\":300:324   */\n      tag_42\n      jump\t// in\n    tag_61:\n        /* \"#utility.yul\":280:325   */\n      tag_43\n      jump\t// in\n    tag_60:\n        /* \"#utility.yul\":275:278   */\n      dup3\n        /* \"#utility.yul\":268:326   */\n      mstore\n        /* \"#utility.yul\":175:332   */\n      pop\n      pop\n      jump\t// out\n        /* \"#utility.yul\":338:876   */\n    tag_11:\n        /* \"#utility.yul\":506:509   */\n      0x00\n        /* \"#utility.yul\":521:596   */\n      tag_63\n        /* \"#utility.yul\":592:595   */\n      dup3\n        /* \"#utility.yul\":583:589   */\n      dup7\n        /* \"#utility.yul\":521:596   */\n      tag_44\n      jump\t// in\n    tag_63:\n        /* \"#utility.yul\":621:623   */\n      0x20\n        /* \"#utility.yul\":616:619   */\n      dup3\n        /* \"#utility.yul\":612:624   */\n      add\n        /* \"#utility.yul\":605:624   */\n      swap2\n      pop\n        /* \"#utility.yul\":634:709   */\n      tag_64\n        /* \"#utility.yul\":705:708   */\n      dup3\n        /* \"#utility.yul\":696:702   */\n      dup6\n        /* \"#utility.yul\":634:709   */\n      tag_44\n      jump\t// in\n    tag_64:\n        /* \"#utility.yul\":734:736   */\n      0x20\n        /* \"#utility.yul\":729:732   */\n      dup3\n        /* \"#utility.yul\":725:737   */\n      add\n        /* \"#utility.yul\":718:737   */\n      swap2\n      pop\n        /* \"#utility.yul\":747:822   */\n      tag_65\n        /* \"#utility.yul\":818:821   */\n      dup3\n        /* \"#utility.yul\":809:815   */\n      dup5\n        /* \"#utility.yul\":747:822   */\n      tag_44\n      jump\t// in\n    tag_65:\n        /* \"#utility.yul\":847:849   */\n      0x20\n        /* \"#utility.yul\":842:845   */\n      dup3\n        /* \"#utility.yul\":838:850   */\n      add\n        /* \"#utility.yul\":831:850   */\n      swap2\n      pop\n        /* \"#utility.yul\":867:870   */\n      dup2\n        /* \"#utility.yul\":860:870   */\n      swap1\n      pop\n        /* \"#utility.yul\":338:876   */\n      swap5\n      swap4\n      pop\n      pop\n      pop\n      pop\n      jump\t// out\n        /* \"#utility.yul\":882:1000   */\n    tag_45:\n        /* \"#utility.yul\":969:993   */\n      tag_67\n        /* \"#utility.yul\":987:992   */\n      dup2\n        /* \"#utility.yul\":969:993   */\n      tag_42\n      jump\t// in\n    tag_67:\n        /* \"#utility.yul\":964:967   */\n      dup3\n        /* \"#utility.yul\":957:994   */\n      mstore\n        /* \"#utility.yul\":882:1000   */\n      pop\n      pop\n      jump\t// out\n        /* \"#utility.yul\":1006:1228   */\n    tag_13:\n        /* \"#utility.yul\":1099:1103   */\n      0x00\n        /* \"#utility.yul\":1137:1139   */\n      0x20\n        /* \"#utility.yul\":1126:1135   */\n      dup3\n        /* \"#utility.yul\":1122:1140   */\n      add\n        /* \"#utility.yul\":1114:1140   */\n      swap1\n      pop\n        /* \"#utility.yul\":1150:1221   */\n      tag_69\n        /* \"#utility.yul\":1218:1219   */\n      0x00\n        /* \"#utility.yul\":1207:1216   */\n      dup4\n        /* \"#utility.yul\":1203:1220   */\n      add\n        /* \"#utility.yul\":1194:1200   */\n      dup5\n        /* \"#utility.yul\":1150:1221   */\n      tag_45\n      jump\t// in\n    tag_69:\n        /* \"#utility.yul\":1006:1228   */\n      swap3\n      swap2\n      pop\n      pop\n      jump\t// out\n        /* \"#utility.yul\":1315:1432   */\n    tag_47:\n        /* \"#utility.yul\":1424:1425   */\n      0x00\n        /* \"#utility.yul\":1421:1422   */\n      dup1\n        /* \"#utility.yul\":1414:1426   */\n      revert\n        /* \"#utility.yul\":1561:1683   */\n    tag_49:\n        /* \"#utility.yul\":1634:1658   */\n      tag_74\n        /* \"#utility.yul\":1652:1657   */\n      dup2\n        /* \"#utility.yul\":1634:1658   */\n      tag_42\n      jump\t// in\n    tag_74:\n        /* \"#utility.yul\":1627:1632   */\n      dup2\n        /* \"#utility.yul\":1624:1659   */\n      eq\n        /* \"#utility.yul\":1614:1677   */\n      tag_75\n      jumpi\n        /* \"#utility.yul\":1673:1674   */\n      0x00\n        /* \"#utility.yul\":1670:1671   */\n      dup1\n        /* \"#utility.yul\":1663:1675   */\n      revert\n        /* \"#utility.yul\":1614:1677   */\n    tag_75:\n        /* \"#utility.yul\":1561:1683   */\n      pop\n      jump\t// out\n        /* \"#utility.yul\":1689:1828   */\n    tag_50:\n        /* \"#utility.yul\":1735:1740   */\n      0x00\n        /* \"#utility.yul\":1773:1779   */\n      dup2\n        /* \"#utility.yul\":1760:1780   */\n      calldataload\n        /* \"#utility.yul\":1751:1780   */\n      swap1\n      pop\n        /* \"#utility.yul\":1789:1822   */\n      tag_77\n        /* \"#utility.yul\":1816:1821   */\n      dup2\n        /* \"#utility.yul\":1789:1822   */\n      tag_49\n      jump\t// in\n    tag_77:\n        /* \"#utility.yul\":1689:1828   */\n      swap3\n      swap2\n      pop\n      pop\n      jump\t// out\n        /* \"#utility.yul\":1834:2308   */\n    tag_22:\n        /* \"#utility.yul\":1902:1908   */\n      0x00\n        /* \"#utility.yul\":1910:1916   */\n      dup1\n        /* \"#utility.yul\":1959:1961   */\n      0x40\n        /* \"#utility.yul\":1947:1956   */\n      dup4\n        /* \"#utility.yul\":1938:1945   */\n      dup6\n        /* \"#utility.yul\":1934:1957   */\n      sub\n        /* \"#utility.yul\":1930:1962   */\n      slt\n        /* \"#utility.yul\":1927:2046   */\n      iszero\n      tag_79\n      jumpi\n        /* \"#utility.yul\":1965:2044   */\n      tag_80\n      tag_47\n      jump\t// in\n    tag_80:\n        /* \"#utility.yul\":1927:2046   */\n    tag_79:\n        /* \"#utility.yul\":2085:2086   */\n      0x00\n        /* \"#utility.yul\":2110:2163   */\n      tag_81\n        /* \"#utility.yul\":2155:2162   */\n      dup6\n        /* \"#utility.yul\":2146:2152   */\n      dup3\n        /* \"#utility.yul\":2135:2144   */\n      dup7\n        /* \"#utility.yul\":2131:2153   */\n      add\n        /* \"#utility.yul\":2110:2163   */\n      tag_50\n      jump\t// in\n    tag_81:\n        /* \"#utility.yul\":2100:2163   */\n      swap3\n      pop\n        /* \"#utility.yul\":2056:2173   */\n      pop\n        /* \"#utility.yul\":2212:2214   */\n      0x20\n        /* \"#utility.yul\":2238:2291   */\n      tag_82\n        /* \"#utility.yul\":2283:2290   */\n      dup6\n        /* \"#utility.yul\":2274:2280   */\n      dup3\n        /* \"#utility.yul\":2263:2272   */\n      dup7\n        /* \"#utility.yul\":2259:2281   */\n      add\n        /* \"#utility.yul\":2238:2291   */\n      tag_50\n      jump\t// in\n    tag_82:\n        /* \"#utility.yul\":2228:2291   */\n      swap2\n      pop\n        /* \"#utility.yul\":2183:2301   */\n      pop\n        /* \"#utility.yul\":1834:2308   */\n      swap3\n      pop\n      swap3\n      swap1\n      pop\n      jump\t// out\n        /* \"#utility.yul\":2314:2483   */\n    tag_51:\n        /* \"#utility.yul\":2398:2409   */\n      0x00\n        /* \"#utility.yul\":2432:2438   */\n      dup3\n        /* \"#utility.yul\":2427:2430   */\n      dup3\n        /* \"#utility.yul\":2420:2439   */\n      mstore\n        /* \"#utility.yul\":2472:2476   */\n      0x20\n        /* \"#utility.yul\":2467:2470   */\n      dup3\n        /* \"#utility.yul\":2463:2477   */\n      add\n        /* \"#utility.yul\":2448:2477   */\n      swap1\n      pop\n        /* \"#utility.yul\":2314:2483   */\n      swap3\n      swap2\n      pop\n      pop\n      jump\t// out\n        /* \"#utility.yul\":2489:2649   */\n    tag_52:\n        /* \"#utility.yul\":2629:2641   */\n      0x4e65656420312045544800000000000000000000000000000000000000000000\n        /* \"#utility.yul\":2625:2626   */\n      0x00\n        /* \"#utility.yul\":2617:2623   */\n      dup3\n        /* \"#utility.yul\":2613:2627   */\n      add\n        /* \"#utility.yul\":2606:2642   */\n      mstore\n        /* \"#utility.yul\":2489:2649   */\n      pop\n      jump\t// out\n        /* \"#utility.yul\":2655:3021   */\n    tag_53:\n        /* \"#utility.yul\":2797:2800   */\n      0x00\n        /* \"#utility.yul\":2818:2885   */\n      tag_86\n        /* \"#utility.yul\":2882:2884   */\n      0x0a\n        /* \"#utility.yul\":2877:2880   */\n      dup4\n        /* \"#utility.yul\":2818:2885   */\n      tag_51\n      jump\t// in\n    tag_86:\n        /* \"#utility.yul\":2811:2885   */\n      swap2\n      pop\n        /* \"#utility.yul\":2894:2987   */\n      tag_87\n        /* \"#utility.yul\":2983:2986   */\n      dup3\n        /* \"#utility.yul\":2894:2987   */\n      tag_52\n      jump\t// in\n    tag_87:\n        /* \"#utility.yul\":3012:3014   */\n      0x20\n        /* \"#utility.yul\":3007:3010   */\n      dup3\n        /* \"#utility.yul\":3003:3015   */\n      add\n        /* \"#utility.yul\":2996:3015   */\n      swap1\n      pop\n        /* \"#utility.yul\":2655:3021   */\n      swap2\n      swap1\n      pop\n      jump\t// out\n        /* \"#utility.yul\":3027:3446   */\n    tag_30:\n        /* \"#utility.yul\":3193:3197   */\n      0x00\n        /* \"#utility.yul\":3231:3233   */\n      0x20\n        /* \"#utility.yul\":3220:3229   */\n      dup3\n        /* \"#utility.yul\":3216:3234   */\n      add\n        /* \"#utility.yul\":3208:3234   */\n      swap1\n      pop\n        /* \"#utility.yul\":3280:3289   */\n      dup2\n        /* \"#utility.yul\":3274:3278   */\n      dup2\n        /* \"#utility.yul\":3270:3290   */\n      sub\n        /* \"#utility.yul\":3266:3267   */\n      0x00\n        /* \"#utility.yul\":3255:3264   */\n      dup4\n        /* \"#utility.yul\":3251:3268   */\n      add\n        /* \"#utility.yul\":3244:3291   */\n      mstore\n        /* \"#utility.yul\":3308:3439   */\n      tag_89\n        /* \"#utility.yul\":3434:3438   */\n      dup2\n        /* \"#utility.yul\":3308:3439   */\n      tag_53\n      jump\t// in\n    tag_89:\n        /* \"#utility.yul\":3300:3439   */\n      swap1\n      pop\n        /* \"#utility.yul\":3027:3446   */\n      swap2\n      swap1\n      pop\n      jump\t// out\n        /* \"#utility.yul\":3452:3626   */\n    tag_54:\n        /* \"#utility.yul\":3592:3618   */\n      0x436f6e74726163742073686f756c6420626520656d7074790000000000000000\n        /* \"#utility.yul\":3588:3589   */\n      0x00\n        /* \"#utility.yul\":3580:3586   */\n      dup3\n        /* \"#utility.yul\":3576:3590   */\n      add\n        /* \"#utility.yul\":3569:3619   */\n      mstore\n        /* \"#utility.yul\":3452:3626   */\n      pop\n      jump\t// out\n        /* \"#utility.yul\":3632:3998   */\n    tag_55:\n        /* \"#utility.yul\":3774:3777   */\n      0x00\n        /* \"#utility.yul\":3795:3862   */\n      tag_92\n        /* \"#utility.yul\":3859:3861   */\n      0x18\n        /* \"#utility.yul\":3854:3857   */\n      dup4\n        /* \"#utility.yul\":3795:3862   */\n      tag_51\n      jump\t// in\n    tag_92:\n        /* \"#utility.yul\":3788:3862   */\n      swap2\n      pop\n        /* \"#utility.yul\":3871:3964   */\n      tag_93\n        /* \"#utility.yul\":3960:3963   */\n      dup3\n        /* \"#utility.yul\":3871:3964   */\n      tag_54\n      jump\t// in\n    tag_93:\n        /* \"#utility.yul\":3989:3991   */\n      0x20\n        /* \"#utility.yul\":3984:3987   */\n      dup3\n        /* \"#utility.yul\":3980:3992   */\n      add\n        /* \"#utility.yul\":3973:3992   */\n      swap1\n      pop\n        /* \"#utility.yul\":3632:3998   */\n      swap2\n      swap1\n      pop\n      jump\t// out\n        /* \"#utility.yul\":4004:4423   */\n    tag_41:\n        /* \"#utility.yul\":4170:4174   */\n      0x00\n        /* \"#utility.yul\":4208:4210   */\n      0x20\n        /* \"#utility.yul\":4197:4206   */\n      dup3\n        /* \"#utility.yul\":4193:4211   */\n      add\n        /* \"#utility.yul\":4185:4211   */\n      swap1\n      pop\n        /* \"#utility.yul\":4257:4266   */\n      dup2\n        /* \"#utility.yul\":4251:4255   */\n      dup2\n        /* \"#utility.yul\":4247:4267   */\n      sub\n        /* \"#utility.yul\":4243:4244   */\n      0x00\n        /* \"#utility.yul\":4232:4241   */\n      dup4\n        /* \"#utility.yul\":4228:4245   */\n      add\n        /* \"#utility.yul\":4221:4268   */\n      mstore\n        /* \"#utility.yul\":4285:4416   */\n      tag_95\n        /* \"#utility.yul\":4411:4415   */\n      dup2\n        /* \"#utility.yul\":4285:4416   */\n      tag_55\n      jump\t// in\n    tag_95:\n        /* \"#utility.yul\":4277:4416   */\n      swap1\n      pop\n        /* \"#utility.yul\":4004:4423   */\n      swap2\n      swap1\n      pop\n      jump\t// out\n\n    auxdata: 0xa2646970667358221220f609c080d03c78ed97ebf545eee943a2e00bf2d9abf5825abcb214afc8a8d53d64736f6c634300081a0033\n}\n",
				"bytecode": {
					"linkReferences": {},
					"object": "608060405234801561000f575f80fd5b506040516107c43803806107c483398181016040528101906100319190610166565b805f806101000a81548173ffffffffffffffffffffffffffffffffffffffff021916908373ffffffffffffffffffffffffffffffffffffffff1602179055505f8054906101000a900473ffffffffffffffffffffffffffffffffffffffff1673ffffffffffffffffffffffffffffffffffffffff1663d1efd30d6040518163ffffffff1660e01b8152600401602060405180830381865afa1580156100d8573d5f803e3d5ffd5b505050506040513d601f19601f820116820180604052508101906100fc91906101c4565b600181905550506101ef565b5f80fd5b5f73ffffffffffffffffffffffffffffffffffffffff82169050919050565b5f6101358261010c565b9050919050565b6101458161012b565b811461014f575f80fd5b50565b5f815190506101608161013c565b92915050565b5f6020828403121561017b5761017a610108565b5b5f61018884828501610152565b91505092915050565b5f819050919050565b6101a381610191565b81146101ad575f80fd5b50565b5f815190506101be8161019a565b92915050565b5f602082840312156101d9576101d8610108565b5b5f6101e6848285016101b0565b91505092915050565b6105c8806101fc5f395ff3fe60806040526004361061002c575f3560e01c80634de260a2146101435780637ae2b5c71461014d5761013f565b3661013f575f61007a670de0b6b3a76400005f8054906101000a900473ffffffffffffffffffffffffffffffffffffffff1673ffffffffffffffffffffffffffffffffffffffff1631610189565b90505f81111561013d575f600154434260405160200161009c939291906103e2565b604051602081830303815290604052805190602001205f1c90505f8054906101000a900473ffffffffffffffffffffffffffffffffffffffff1673ffffffffffffffffffffffffffffffffffffffff166399d548aa826040518263ffffffff1660e01b815260040161010e919061042d565b5f604051808303815f87803b158015610125575f80fd5b505af1158015610137573d5f803e3d5ffd5b50505050505b005b5f80fd5b61014b6101a2565b005b348015610158575f80fd5b50610173600480360381019061016e9190610474565b610189565b604051610180919061042d565b60405180910390f35b5f81831115610198578161019a565b825b905092915050565b670de0b6b3a764000034146101ec576040517f08c379a00000000000000000000000000000000000000000000000000000000081526004016101e39061050c565b60405180910390fd5b5f8054906101000a900473ffffffffffffffffffffffffffffffffffffffff1673ffffffffffffffffffffffffffffffffffffffff166342dad49e670de0b6b3a76400006040518263ffffffff1660e01b81526004015f604051808303818588803b158015610259575f80fd5b505af115801561026b573d5f803e3d5ffd5b50505050505f6001544342604051602001610288939291906103e2565b604051602081830303815290604052805190602001205f1c90505f8054906101000a900473ffffffffffffffffffffffffffffffffffffffff1673ffffffffffffffffffffffffffffffffffffffff166399d548aa826040518263ffffffff1660e01b81526004016102fa919061042d565b5f604051808303815f87803b158015610311575f80fd5b505af1158015610323573d5f803e3d5ffd5b505050505f805f9054906101000a900473ffffffffffffffffffffffffffffffffffffffff1673ffffffffffffffffffffffffffffffffffffffff1631146103a0576040517f08c379a000000000000000000000000000000000000000000000000000000000815260040161039790610574565b60405180910390fd5b3373ffffffffffffffffffffffffffffffffffffffff16ff5b5f819050919050565b5f819050919050565b6103dc6103d7826103b9565b6103c2565b82525050565b5f6103ed82866103cb565b6020820191506103fd82856103cb565b60208201915061040d82846103cb565b602082019150819050949350505050565b610427816103b9565b82525050565b5f6020820190506104405f83018461041e565b92915050565b5f80fd5b610453816103b9565b811461045d575f80fd5b50565b5f8135905061046e8161044a565b92915050565b5f806040838503121561048a57610489610446565b5b5f61049785828601610460565b92505060206104a885828601610460565b9150509250929050565b5f82825260208201905092915050565b7f4e656564203120455448000000000000000000000000000000000000000000005f82015250565b5f6104f6600a836104b2565b9150610501826104c2565b602082019050919050565b5f6020820190508181035f830152610523816104ea565b9050919050565b7f436f6e74726163742073686f756c6420626520656d70747900000000000000005f82015250565b5f61055e6018836104b2565b91506105698261052a565b602082019050919050565b5f6020820190508181035f83015261058b81610552565b905091905056fea2646970667358221220f609c080d03c78ed97ebf545eee943a2e00bf2d9abf5825abcb214afc8a8d53d64736f6c634300081a0033",
					"opcodes": "PUSH1 0x80 PUSH1 0x40 MSTORE CALLVALUE DUP1 ISZERO PUSH2 0xF JUMPI PUSH0 DUP1 REVERT JUMPDEST POP PUSH1 0x40 MLOAD PUSH2 0x7C4 CODESIZE SUB DUP1 PUSH2 0x7C4 DUP4 CODECOPY DUP2 DUP2 ADD PUSH1 0x40 MSTORE DUP2 ADD SWAP1 PUSH2 0x31 SWAP2 SWAP1 PUSH2 0x166 JUMP JUMPDEST DUP1 PUSH0 DUP1 PUSH2 0x100 EXP DUP2 SLOAD DUP2 PUSH20 0xFFFFFFFFFFFFFFFFFFFFFFFFFFFFFFFFFFFFFFFF MUL NOT AND SWAP1 DUP4 PUSH20 0xFFFFFFFFFFFFFFFFFFFFFFFFFFFFFFFFFFFFFFFF AND MUL OR SWAP1 SSTORE POP PUSH0 DUP1 SLOAD SWAP1 PUSH2 0x100 EXP SWAP1 DIV PUSH20 0xFFFFFFFFFFFFFFFFFFFFFFFFFFFFFFFFFFFFFFFF AND PUSH20 0xFFFFFFFFFFFFFFFFFFFFFFFFFFFFFFFFFFFFFFFF AND PUSH4 0xD1EFD30D PUSH1 0x40 MLOAD DUP2 PUSH4 0xFFFFFFFF AND PUSH1 0xE0 SHL DUP2 MSTORE PUSH1 0x4 ADD PUSH1 0x20 PUSH1 0x40 MLOAD DUP1 DUP4 SUB DUP2 DUP7 GAS STATICCALL ISZERO DUP1 ISZERO PUSH2 0xD8 JUMPI RETURNDATASIZE PUSH0 DUP1 RETURNDATACOPY RETURNDATASIZE PUSH0 REVERT JUMPDEST POP POP POP POP PUSH1 0x40 MLOAD RETURNDATASIZE PUSH1 0x1F NOT PUSH1 0x1F DUP3 ADD AND DUP3 ADD DUP1 PUSH1 0x40 MSTORE POP DUP2 ADD SWAP1 PUSH2 0xFC SWAP2 SWAP1 PUSH2 0x1C4 JUMP JUMPDEST PUSH1 0x1 DUP2 SWAP1 SSTORE POP POP PUSH2 0x1EF JUMP JUMPDEST PUSH0 DUP1 REVERT JUMPDEST PUSH0 PUSH20 0xFFFFFFFFFFFFFFFFFFFFFFFFFFFFFFFFFFFFFFFF DUP3 AND SWAP1 POP SWAP2 SWAP1 POP JUMP JUMPDEST PUSH0 PUSH2 0x135 DUP3 PUSH2 0x10C JUMP JUMPDEST SWAP1 POP SWAP2 SWAP1 POP JUMP JUMPDEST PUSH2 0x145 DUP2 PUSH2 0x12B JUMP JUMPDEST DUP2 EQ PUSH2 0x14F JUMPI PUSH0 DUP1 REVERT JUMPDEST POP JUMP JUMPDEST PUSH0 DUP2 MLOAD SWAP1 POP PUSH2 0x160 DUP2 PUSH2 0x13C JUMP JUMPDEST SWAP3 SWAP2 POP POP JUMP JUMPDEST PUSH0 PUSH1 0x20 DUP3 DUP5 SUB SLT ISZERO PUSH2 0x17B JUMPI PUSH2 0x17A PUSH2 0x108 JUMP JUMPDEST JUMPDEST PUSH0 PUSH2 0x188 DUP5 DUP3 DUP6 ADD PUSH2 0x152 JUMP JUMPDEST SWAP2 POP POP SWAP3 SWAP2 POP POP JUMP JUMPDEST PUSH0 DUP2 SWAP1 POP SWAP2 SWAP1 POP JUMP JUMPDEST PUSH2 0x1A3 DUP2 PUSH2 0x191 JUMP JUMPDEST DUP2 EQ PUSH2 0x1AD JUMPI PUSH0 DUP1 REVERT JUMPDEST POP JUMP JUMPDEST PUSH0 DUP2 MLOAD SWAP1 POP PUSH2 0x1BE DUP2 PUSH2 0x19A JUMP JUMPDEST SWAP3 SWAP2 POP POP JUMP JUMPDEST PUSH0 PUSH1 0x20 DUP3 DUP5 SUB SLT ISZERO PUSH2 0x1D9 JUMPI PUSH2 0x1D8 PUSH2 0x108 JUMP JUMPDEST JUMPDEST PUSH0 PUSH2 0x1E6 DUP5 DUP3 DUP6 ADD PUSH2 0x1B0 JUMP JUMPDEST SWAP2 POP POP SWAP3 SWAP2 POP POP JUMP JUMPDEST PUSH2 0x5C8 DUP1 PUSH2 0x1FC PUSH0 CODECOPY PUSH0 RETURN INVALID PUSH1 0x80 PUSH1 0x40 MSTORE PUSH1 0x4 CALLDATASIZE LT PUSH2 0x2C JUMPI PUSH0 CALLDATALOAD PUSH1 0xE0 SHR DUP1 PUSH4 0x4DE260A2 EQ PUSH2 0x143 JUMPI DUP1 PUSH4 0x7AE2B5C7 EQ PUSH2 0x14D JUMPI PUSH2 0x13F JUMP JUMPDEST CALLDATASIZE PUSH2 0x13F JUMPI PUSH0 PUSH2 0x7A PUSH8 0xDE0B6B3A7640000 PUSH0 DUP1 SLOAD SWAP1 PUSH2 0x100 EXP SWAP1 DIV PUSH20 0xFFFFFFFFFFFFFFFFFFFFFFFFFFFFFFFFFFFFFFFF AND PUSH20 0xFFFFFFFFFFFFFFFFFFFFFFFFFFFFFFFFFFFFFFFF AND BALANCE PUSH2 0x189 JUMP JUMPDEST SWAP1 POP PUSH0 DUP2 GT ISZERO PUSH2 0x13D JUMPI PUSH0 PUSH1 0x1 SLOAD NUMBER TIMESTAMP PUSH1 0x40 MLOAD PUSH1 0x20 ADD PUSH2 0x9C SWAP4 SWAP3 SWAP2 SWAP1 PUSH2 0x3E2 JUMP JUMPDEST PUSH1 0x40 MLOAD PUSH1 0x20 DUP2 DUP4 SUB SUB DUP2 MSTORE SWAP1 PUSH1 0x40 MSTORE DUP1 MLOAD SWAP1 PUSH1 0x20 ADD KECCAK256 PUSH0 SHR SWAP1 POP PUSH0 DUP1 SLOAD SWAP1 PUSH2 0x100 EXP SWAP1 DIV PUSH20 0xFFFFFFFFFFFFFFFFFFFFFFFFFFFFFFFFFFFFFFFF AND PUSH20 0xFFFFFFFFFFFFFFFFFFFFFFFFFFFFFFFFFFFFFFFF AND PUSH4 0x99D548AA DUP3 PUSH1 0x40 MLOAD DUP3 PUSH4 0xFFFFFFFF AND PUSH1 0xE0 SHL DUP2 MSTORE PUSH1 0x4 ADD PUSH2 0x10E SWAP2 SWAP1 PUSH2 0x42D JUMP JUMPDEST PUSH0 PUSH1 0x40 MLOAD DUP1 DUP4 SUB DUP2 PUSH0 DUP8 DUP1 EXTCODESIZE ISZERO DUP1 ISZERO PUSH2 0x125 JUMPI PUSH0 DUP1 REVERT JUMPDEST POP GAS CALL ISZERO DUP1 ISZERO PUSH2 0x137 JUMPI RETURNDATASIZE PUSH0 DUP1 RETURNDATACOPY RETURNDATASIZE PUSH0 REVERT JUMPDEST POP POP POP POP POP JUMPDEST STOP JUMPDEST PUSH0 DUP1 REVERT JUMPDEST PUSH2 0x14B PUSH2 0x1A2 JUMP JUMPDEST STOP JUMPDEST CALLVALUE DUP1 ISZERO PUSH2 0x158 JUMPI PUSH0 DUP1 REVERT JUMPDEST POP PUSH2 0x173 PUSH1 0x4 DUP1 CALLDATASIZE SUB DUP2 ADD SWAP1 PUSH2 0x16E SWAP2 SWAP1 PUSH2 0x474 JUMP JUMPDEST PUSH2 0x189 JUMP JUMPDEST PUSH1 0x40 MLOAD PUSH2 0x180 SWAP2 SWAP1 PUSH2 0x42D JUMP JUMPDEST PUSH1 0x40 MLOAD DUP1 SWAP2 SUB SWAP1 RETURN JUMPDEST PUSH0 DUP2 DUP4 GT ISZERO PUSH2 0x198 JUMPI DUP2 PUSH2 0x19A JUMP JUMPDEST DUP3 JUMPDEST SWAP1 POP SWAP3 SWAP2 POP POP JUMP JUMPDEST PUSH8 0xDE0B6B3A7640000 CALLVALUE EQ PUSH2 0x1EC JUMPI PUSH1 0x40 MLOAD PUSH32 0x8C379A000000000000000000000000000000000000000000000000000000000 DUP2 MSTORE PUSH1 0x4 ADD PUSH2 0x1E3 SWAP1 PUSH2 0x50C JUMP JUMPDEST PUSH1 0x40 MLOAD DUP1 SWAP2 SUB SWAP1 REVERT JUMPDEST PUSH0 DUP1 SLOAD SWAP1 PUSH2 0x100 EXP SWAP1 DIV PUSH20 0xFFFFFFFFFFFFFFFFFFFFFFFFFFFFFFFFFFFFFFFF AND PUSH20 0xFFFFFFFFFFFFFFFFFFFFFFFFFFFFFFFFFFFFFFFF AND PUSH4 0x42DAD49E PUSH8 0xDE0B6B3A7640000 PUSH1 0x40 MLOAD DUP3 PUSH4 0xFFFFFFFF AND PUSH1 0xE0 SHL DUP2 MSTORE PUSH1 0x4 ADD PUSH0 PUSH1 0x40 MLOAD DUP1 DUP4 SUB DUP2 DUP6 DUP9 DUP1 EXTCODESIZE ISZERO DUP1 ISZERO PUSH2 0x259 JUMPI PUSH0 DUP1 REVERT JUMPDEST POP GAS CALL ISZERO DUP1 ISZERO PUSH2 0x26B JUMPI RETURNDATASIZE PUSH0 DUP1 RETURNDATACOPY RETURNDATASIZE PUSH0 REVERT JUMPDEST POP POP POP POP POP PUSH0 PUSH1 0x1 SLOAD NUMBER TIMESTAMP PUSH1 0x40 MLOAD PUSH1 0x20 ADD PUSH2 0x288 SWAP4 SWAP3 SWAP2 SWAP1 PUSH2 0x3E2 JUMP JUMPDEST PUSH1 0x40 MLOAD PUSH1 0x20 DUP2 DUP4 SUB SUB DUP2 MSTORE SWAP1 PUSH1 0x40 MSTORE DUP1 MLOAD SWAP1 PUSH1 0x20 ADD KECCAK256 PUSH0 SHR SWAP1 POP PUSH0 DUP1 SLOAD SWAP1 PUSH2 0x100 EXP SWAP1 DIV PUSH20 0xFFFFFFFFFFFFFFFFFFFFFFFFFFFFFFFFFFFFFFFF AND PUSH20 0xFFFFFFFFFFFFFFFFFFFFFFFFFFFFFFFFFFFFFFFF AND PUSH4 0x99D548AA DUP3 PUSH1 0x40 MLOAD DUP3 PUSH4 0xFFFFFFFF AND PUSH1 0xE0 SHL DUP2 MSTORE PUSH1 0x4 ADD PUSH2 0x2FA SWAP2 SWAP1 PUSH2 0x42D JUMP JUMPDEST PUSH0 PUSH1 0x40 MLOAD DUP1 DUP4 SUB DUP2 PUSH0 DUP8 DUP1 EXTCODESIZE ISZERO DUP1 ISZERO PUSH2 0x311 JUMPI PUSH0 DUP1 REVERT JUMPDEST POP GAS CALL ISZERO DUP1 ISZERO PUSH2 0x323 JUMPI RETURNDATASIZE PUSH0 DUP1 RETURNDATACOPY RETURNDATASIZE PUSH0 REVERT JUMPDEST POP POP POP POP PUSH0 DUP1 PUSH0 SWAP1 SLOAD SWAP1 PUSH2 0x100 EXP SWAP1 DIV PUSH20 0xFFFFFFFFFFFFFFFFFFFFFFFFFFFFFFFFFFFFFFFF AND PUSH20 0xFFFFFFFFFFFFFFFFFFFFFFFFFFFFFFFFFFFFFFFF AND BALANCE EQ PUSH2 0x3A0 JUMPI PUSH1 0x40 MLOAD PUSH32 0x8C379A000000000000000000000000000000000000000000000000000000000 DUP2 MSTORE PUSH1 0x4 ADD PUSH2 0x397 SWAP1 PUSH2 0x574 JUMP JUMPDEST PUSH1 0x40 MLOAD DUP1 SWAP2 SUB SWAP1 REVERT JUMPDEST CALLER PUSH20 0xFFFFFFFFFFFFFFFFFFFFFFFFFFFFFFFFFFFFFFFF AND SELFDESTRUCT JUMPDEST PUSH0 DUP2 SWAP1 POP SWAP2 SWAP1 POP JUMP JUMPDEST PUSH0 DUP2 SWAP1 POP SWAP2 SWAP1 POP JUMP JUMPDEST PUSH2 0x3DC PUSH2 0x3D7 DUP3 PUSH2 0x3B9 JUMP JUMPDEST PUSH2 0x3C2 JUMP JUMPDEST DUP3 MSTORE POP POP JUMP JUMPDEST PUSH0 PUSH2 0x3ED DUP3 DUP7 PUSH2 0x3CB JUMP JUMPDEST PUSH1 0x20 DUP3 ADD SWAP2 POP PUSH2 0x3FD DUP3 DUP6 PUSH2 0x3CB JUMP JUMPDEST PUSH1 0x20 DUP3 ADD SWAP2 POP PUSH2 0x40D DUP3 DUP5 PUSH2 0x3CB JUMP JUMPDEST PUSH1 0x20 DUP3 ADD SWAP2 POP DUP2 SWAP1 POP SWAP5 SWAP4 POP POP POP POP JUMP JUMPDEST PUSH2 0x427 DUP2 PUSH2 0x3B9 JUMP JUMPDEST DUP3 MSTORE POP POP JUMP JUMPDEST PUSH0 PUSH1 0x20 DUP3 ADD SWAP1 POP PUSH2 0x440 PUSH0 DUP4 ADD DUP5 PUSH2 0x41E JUMP JUMPDEST SWAP3 SWAP2 POP POP JUMP JUMPDEST PUSH0 DUP1 REVERT JUMPDEST PUSH2 0x453 DUP2 PUSH2 0x3B9 JUMP JUMPDEST DUP2 EQ PUSH2 0x45D JUMPI PUSH0 DUP1 REVERT JUMPDEST POP JUMP JUMPDEST PUSH0 DUP2 CALLDATALOAD SWAP1 POP PUSH2 0x46E DUP2 PUSH2 0x44A JUMP JUMPDEST SWAP3 SWAP2 POP POP JUMP JUMPDEST PUSH0 DUP1 PUSH1 0x40 DUP4 DUP6 SUB SLT ISZERO PUSH2 0x48A JUMPI PUSH2 0x489 PUSH2 0x446 JUMP JUMPDEST JUMPDEST PUSH0 PUSH2 0x497 DUP6 DUP3 DUP7 ADD PUSH2 0x460 JUMP JUMPDEST SWAP3 POP POP PUSH1 0x20 PUSH2 0x4A8 DUP6 DUP3 DUP7 ADD PUSH2 0x460 JUMP JUMPDEST SWAP2 POP POP SWAP3 POP SWAP3 SWAP1 POP JUMP JUMPDEST PUSH0 DUP3 DUP3 MSTORE PUSH1 0x20 DUP3 ADD SWAP1 POP SWAP3 SWAP2 POP POP JUMP JUMPDEST PUSH32 0x4E65656420312045544800000000000000000000000000000000000000000000 PUSH0 DUP3 ADD MSTORE POP JUMP JUMPDEST PUSH0 PUSH2 0x4F6 PUSH1 0xA DUP4 PUSH2 0x4B2 JUMP JUMPDEST SWAP2 POP PUSH2 0x501 DUP3 PUSH2 0x4C2 JUMP JUMPDEST PUSH1 0x20 DUP3 ADD SWAP1 POP SWAP2 SWAP1 POP JUMP JUMPDEST PUSH0 PUSH1 0x20 DUP3 ADD SWAP1 POP DUP2 DUP2 SUB PUSH0 DUP4 ADD MSTORE PUSH2 0x523 DUP2 PUSH2 0x4EA JUMP JUMPDEST SWAP1 POP SWAP2 SWAP1 POP JUMP JUMPDEST PUSH32 0x436F6E74726163742073686F756C6420626520656D7074790000000000000000 PUSH0 DUP3 ADD MSTORE POP JUMP JUMPDEST PUSH0 PUSH2 0x55E PUSH1 0x18 DUP4 PUSH2 0x4B2 JUMP JUMPDEST SWAP2 POP PUSH2 0x569 DUP3 PUSH2 0x52A JUMP JUMPDEST PUSH1 0x20 DUP3 ADD SWAP1 POP SWAP2 SWAP1 POP JUMP JUMPDEST PUSH0 PUSH1 0x20 DUP3 ADD SWAP1 POP DUP2 DUP2 SUB PUSH0 DUP4 ADD MSTORE PUSH2 0x58B DUP2 PUSH2 0x552 JUMP JUMPDEST SWAP1 POP SWAP2 SWAP1 POP JUMP INVALID LOG2 PUSH5 0x6970667358 0x22 SLT KECCAK256 0xF6 MULMOD 0xC0 DUP1 0xD0 EXTCODECOPY PUSH25 0xED97EBF545EEE943A2E00BF2D9ABF5825ABCB214AFC8A8D53D PUSH5 0x736F6C6343 STOP ADDMOD BYTE STOP CALLER "
				},
				"gasEstimates": {
					"creation": {
						"codeDepositCost": "296000",
						"executionCost": "infinite",
						"totalCost": "infinite"
					},
					"external": {
						"hack()": "infinite",
						"min(uint256,uint256)": "infinite"
					}
				},
				"methodIdentifiers": {
					"hack()": "4de260a2",
					"min(uint256,uint256)": "7ae2b5c7"
				}
			},
			"storageLayout": {
				"storage": [
					{
						"astId": 43,
						"contract": "Unsolveable_Money_Captcha/contracts/Hack.sol:Hack",
						"label": "money",
						"offset": 0,
						"slot": "0",
						"type": "t_contract(Money)293"
					},
					{
						"astId": 45,
						"contract": "Unsolveable_Money_Captcha/contracts/Hack.sol:Hack",
						"label": "secret",
						"offset": 0,
						"slot": "1",
						"type": "t_uint256"
					}
				],
				"types": {
					"t_contract(Money)293": {
						"encoding": "inplace",
						"label": "contract Money",
						"numberOfBytes": "20"
					},
					"t_uint256": {
						"encoding": "inplace",
						"label": "uint256",
						"numberOfBytes": "32"
					}
				}
			},
			"userdoc": {
				"kind": "user",
				"methods": {},
				"version": 1
			}
		}
	}
}