{
	"Unsolveable_Money_Captcha/contracts/Captcha.sol": {
		"Captcha": {
			"abi": [
				{
					"anonymous": false,
					"inputs": [
						{
							"indexed": false,
							"internalType": "uint256",
							"name": "captcha",
							"type": "uint256"
						}
					],
					"name": "CaptchaGenerated",
					"type": "event"
				},
				{
					"inputs": [
						{
							"internalType": "uint256",
							"name": "_secret",
							"type": "uint256"
						}
					],
					"name": "generateCaptcha",
					"outputs": [
						{
							"internalType": "uint256",
							"name": "",
							"type": "uint256"
						}
					],
					"stateMutability": "nonpayable",
					"type": "function"
				}
			],
			"devdoc": {
				"kind": "dev",
				"methods": {},
				"version": 1
			},
			"evm": {
				"assembly": "    /* \"Unsolveable_Money_Captcha/contracts/Captcha.sol\":64:378  contract Captcha {... */\n  mstore(0x40, 0x80)\n  callvalue\n  dup1\n  iszero\n  tag_1\n  jumpi\n  0x00\n  dup1\n  revert\ntag_1:\n  pop\n  dataSize(sub_0)\n  dup1\n  dataOffset(sub_0)\n  0x00\n  codecopy\n  0x00\n  return\nstop\n\nsub_0: assembly {\n        /* \"Unsolveable_Money_Captcha/contracts/Captcha.sol\":64:378  contract Captcha {... */\n      mstore(0x40, 0x80)\n      callvalue\n      dup1\n      iszero\n      tag_1\n      jumpi\n      0x00\n      dup1\n      revert\n    tag_1:\n      pop\n      jumpi(tag_2, lt(calldatasize, 0x04))\n      shr(0xe0, calldataload(0x00))\n      dup1\n      0xb9db1b19\n      eq\n      tag_3\n      jumpi\n    tag_2:\n      0x00\n      dup1\n      revert\n        /* \"Unsolveable_Money_Captcha/contracts/Captcha.sol\":132:376  function generateCaptcha(uint256 _secret) external returns (uint256) {... */\n    tag_3:\n      tag_4\n      0x04\n      dup1\n      calldatasize\n      sub\n      dup2\n      add\n      swap1\n      tag_5\n      swap2\n      swap1\n      tag_6\n      jump\t// in\n    tag_5:\n      tag_7\n      jump\t// in\n    tag_4:\n      mload(0x40)\n      tag_8\n      swap2\n      swap1\n      tag_9\n      jump\t// in\n    tag_8:\n      mload(0x40)\n      dup1\n      swap2\n      sub\n      swap1\n      return\n    tag_7:\n        /* \"Unsolveable_Money_Captcha/contracts/Captcha.sol\":192:199  uint256 */\n      0x00\n        /* \"Unsolveable_Money_Captcha/contracts/Captcha.sol\":211:226  uint256 captcha */\n      dup1\n        /* \"Unsolveable_Money_Captcha/contracts/Captcha.sol\":264:271  _secret */\n      dup3\n        /* \"Unsolveable_Money_Captcha/contracts/Captcha.sol\":273:285  block.number */\n      number\n        /* \"Unsolveable_Money_Captcha/contracts/Captcha.sol\":287:302  block.timestamp */\n      timestamp\n        /* \"Unsolveable_Money_Captcha/contracts/Captcha.sol\":247:303  abi.encodePacked(_secret, block.number, block.timestamp) */\n      add(0x20, mload(0x40))\n      tag_11\n      swap4\n      swap3\n      swap2\n      swap1\n      tag_12\n      jump\t// in\n    tag_11:\n      mload(0x40)\n      0x20\n      dup2\n      dup4\n      sub\n      sub\n      dup2\n      mstore\n      swap1\n      0x40\n      mstore\n        /* \"Unsolveable_Money_Captcha/contracts/Captcha.sol\":237:304  keccak256(abi.encodePacked(_secret, block.number, block.timestamp)) */\n      dup1\n      mload\n      swap1\n      0x20\n      add\n      keccak256\n        /* \"Unsolveable_Money_Captcha/contracts/Captcha.sol\":229:305  uint256(keccak256(abi.encodePacked(_secret, block.number, block.timestamp))) */\n      0x00\n      shr\n        /* \"Unsolveable_Money_Captcha/contracts/Captcha.sol\":211:305  uint256 captcha = uint256(keccak256(abi.encodePacked(_secret, block.number, block.timestamp))) */\n      swap1\n      pop\n        /* \"Unsolveable_Money_Captcha/contracts/Captcha.sol\":320:345  CaptchaGenerated(captcha) */\n      0xe39bc54c4e458fbe3ea260b0b1020aef9d292e9ff12314349bd634fa4d60ac53\n        /* \"Unsolveable_Money_Captcha/contracts/Captcha.sol\":337:344  captcha */\n      dup2\n        /* \"Unsolveable_Money_Captcha/contracts/Captcha.sol\":320:345  CaptchaGenerated(captcha) */\n      mload(0x40)\n      tag_13\n      swap2\n      swap1\n      tag_9\n      jump\t// in\n    tag_13:\n      mload(0x40)\n      dup1\n      swap2\n      sub\n      swap1\n      log1\n        /* \"Unsolveable_Money_Captcha/contracts/Captcha.sol\":362:369  captcha */\n      dup1\n        /* \"Unsolveable_Money_Captcha/contracts/Captcha.sol\":355:369  return captcha */\n      swap2\n      pop\n      pop\n        /* \"Unsolveable_Money_Captcha/contracts/Captcha.sol\":132:376  function generateCaptcha(uint256 _secret) external returns (uint256) {... */\n      swap2\n      swap1\n      pop\n      jump\t// out\n        /* \"#utility.yul\":88:205   */\n    tag_15:\n        /* \"#utility.yul\":197:198   */\n      0x00\n        /* \"#utility.yul\":194:195   */\n      dup1\n        /* \"#utility.yul\":187:199   */\n      revert\n        /* \"#utility.yul\":334:411   */\n    tag_17:\n        /* \"#utility.yul\":371:378   */\n      0x00\n        /* \"#utility.yul\":400:405   */\n      dup2\n        /* \"#utility.yul\":389:405   */\n      swap1\n      pop\n        /* \"#utility.yul\":334:411   */\n      swap2\n      swap1\n      pop\n      jump\t// out\n        /* \"#utility.yul\":417:539   */\n    tag_18:\n        /* \"#utility.yul\":490:514   */\n      tag_29\n        /* \"#utility.yul\":508:513   */\n      dup2\n        /* \"#utility.yul\":490:514   */\n      tag_17\n      jump\t// in\n    tag_29:\n        /* \"#utility.yul\":483:488   */\n      dup2\n        /* \"#utility.yul\":480:515   */\n      eq\n        /* \"#utility.yul\":470:533   */\n      tag_30\n      jumpi\n        /* \"#utility.yul\":529:530   */\n      0x00\n        /* \"#utility.yul\":526:527   */\n      dup1\n        /* \"#utility.yul\":519:531   */\n      revert\n        /* \"#utility.yul\":470:533   */\n    tag_30:\n        /* \"#utility.yul\":417:539   */\n      pop\n      jump\t// out\n        /* \"#utility.yul\":545:684   */\n    tag_19:\n        /* \"#utility.yul\":591:596   */\n      0x00\n        /* \"#utility.yul\":629:635   */\n      dup2\n        /* \"#utility.yul\":616:636   */\n      calldataload\n        /* \"#utility.yul\":607:636   */\n      swap1\n      pop\n        /* \"#utility.yul\":645:678   */\n      tag_32\n        /* \"#utility.yul\":672:677   */\n      dup2\n        /* \"#utility.yul\":645:678   */\n      tag_18\n      jump\t// in\n    tag_32:\n        /* \"#utility.yul\":545:684   */\n      swap3\n      swap2\n      pop\n      pop\n      jump\t// out\n        /* \"#utility.yul\":690:1019   */\n    tag_6:\n        /* \"#utility.yul\":749:755   */\n      0x00\n        /* \"#utility.yul\":798:800   */\n      0x20\n        /* \"#utility.yul\":786:795   */\n      dup3\n        /* \"#utility.yul\":777:784   */\n      dup5\n        /* \"#utility.yul\":773:796   */\n      sub\n        /* \"#utility.yul\":769:801   */\n      slt\n        /* \"#utility.yul\":766:885   */\n      iszero\n      tag_34\n      jumpi\n        /* \"#utility.yul\":804:883   */\n      tag_35\n      tag_15\n      jump\t// in\n    tag_35:\n        /* \"#utility.yul\":766:885   */\n    tag_34:\n        /* \"#utility.yul\":924:925   */\n      0x00\n        /* \"#utility.yul\":949:1002   */\n      tag_36\n        /* \"#utility.yul\":994:1001   */\n      dup5\n        /* \"#utility.yul\":985:991   */\n      dup3\n        /* \"#utility.yul\":974:983   */\n      dup6\n        /* \"#utility.yul\":970:992   */\n      add\n        /* \"#utility.yul\":949:1002   */\n      tag_19\n      jump\t// in\n    tag_36:\n        /* \"#utility.yul\":939:1002   */\n      swap2\n      pop\n        /* \"#utility.yul\":895:1012   */\n      pop\n        /* \"#utility.yul\":690:1019   */\n      swap3\n      swap2\n      pop\n      pop\n      jump\t// out\n        /* \"#utility.yul\":1025:1143   */\n    tag_20:\n        /* \"#utility.yul\":1112:1136   */\n      tag_38\n        /* \"#utility.yul\":1130:1135   */\n      dup2\n        /* \"#utility.yul\":1112:1136   */\n      tag_17\n      jump\t// in\n    tag_38:\n        /* \"#utility.yul\":1107:1110   */\n      dup3\n        /* \"#utility.yul\":1100:1137   */\n      mstore\n        /* \"#utility.yul\":1025:1143   */\n      pop\n      pop\n      jump\t// out\n        /* \"#utility.yul\":1149:1371   */\n    tag_9:\n        /* \"#utility.yul\":1242:1246   */\n      0x00\n        /* \"#utility.yul\":1280:1282   */\n      0x20\n        /* \"#utility.yul\":1269:1278   */\n      dup3\n        /* \"#utility.yul\":1265:1283   */\n      add\n        /* \"#utility.yul\":1257:1283   */\n      swap1\n      pop\n        /* \"#utility.yul\":1293:1364   */\n      tag_40\n        /* \"#utility.yul\":1361:1362   */\n      0x00\n        /* \"#utility.yul\":1350:1359   */\n      dup4\n        /* \"#utility.yul\":1346:1363   */\n      add\n        /* \"#utility.yul\":1337:1343   */\n      dup5\n        /* \"#utility.yul\":1293:1364   */\n      tag_20\n      jump\t// in\n    tag_40:\n        /* \"#utility.yul\":1149:1371   */\n      swap3\n      swap2\n      pop\n      pop\n      jump\t// out\n        /* \"#utility.yul\":1377:1456   */\n    tag_21:\n        /* \"#utility.yul\":1416:1423   */\n      0x00\n        /* \"#utility.yul\":1445:1450   */\n      dup2\n        /* \"#utility.yul\":1434:1450   */\n      swap1\n      pop\n        /* \"#utility.yul\":1377:1456   */\n      swap2\n      swap1\n      pop\n      jump\t// out\n        /* \"#utility.yul\":1462:1619   */\n    tag_22:\n        /* \"#utility.yul\":1567:1612   */\n      tag_43\n        /* \"#utility.yul\":1587:1611   */\n      tag_44\n        /* \"#utility.yul\":1605:1610   */\n      dup3\n        /* \"#utility.yul\":1587:1611   */\n      tag_17\n      jump\t// in\n    tag_44:\n        /* \"#utility.yul\":1567:1612   */\n      tag_21\n      jump\t// in\n    tag_43:\n        /* \"#utility.yul\":1562:1565   */\n      dup3\n        /* \"#utility.yul\":1555:1613   */\n      mstore\n        /* \"#utility.yul\":1462:1619   */\n      pop\n      pop\n      jump\t// out\n        /* \"#utility.yul\":1625:2163   */\n    tag_12:\n        /* \"#utility.yul\":1793:1796   */\n      0x00\n        /* \"#utility.yul\":1808:1883   */\n      tag_46\n        /* \"#utility.yul\":1879:1882   */\n      dup3\n        /* \"#utility.yul\":1870:1876   */\n      dup7\n        /* \"#utility.yul\":1808:1883   */\n      tag_22\n      jump\t// in\n    tag_46:\n        /* \"#utility.yul\":1908:1910   */\n      0x20\n        /* \"#utility.yul\":1903:1906   */\n      dup3\n        /* \"#utility.yul\":1899:1911   */\n      add\n        /* \"#utility.yul\":1892:1911   */\n      swap2\n      pop\n        /* \"#utility.yul\":1921:1996   */\n      tag_47\n        /* \"#utility.yul\":1992:1995   */\n      dup3\n        /* \"#utility.yul\":1983:1989   */\n      dup6\n        /* \"#utility.yul\":1921:1996   */\n      tag_22\n      jump\t// in\n    tag_47:\n        /* \"#utility.yul\":2021:2023   */\n      0x20\n        /* \"#utility.yul\":2016:2019   */\n      dup3\n        /* \"#utility.yul\":2012:2024   */\n      add\n        /* \"#utility.yul\":2005:2024   */\n      swap2\n      pop\n        /* \"#utility.yul\":2034:2109   */\n      tag_48\n        /* \"#utility.yul\":2105:2108   */\n      dup3\n        /* \"#utility.yul\":2096:2102   */\n      dup5\n        /* \"#utility.yul\":2034:2109   */\n      tag_22\n      jump\t// in\n    tag_48:\n        /* \"#utility.yul\":2134:2136   */\n      0x20\n        /* \"#utility.yul\":2129:2132   */\n      dup3\n        /* \"#utility.yul\":2125:2137   */\n      add\n        /* \"#utility.yul\":2118:2137   */\n      swap2\n      pop\n        /* \"#utility.yul\":2154:2157   */\n      dup2\n        /* \"#utility.yul\":2147:2157   */\n      swap1\n      pop\n        /* \"#utility.yul\":1625:2163   */\n      swap5\n      swap4\n      pop\n      pop\n      pop\n      pop\n      jump\t// out\n\n    auxdata: 0xa2646970667358221220892a7eb64b88fd0c805fb8b5caf52980b69c2b3484fed0faf6a26279204358a264736f6c634300081a0033\n}\n",
				"bytecode": {
					"linkReferences": {},
					"object": "6080604052348015600e575f80fd5b506101ea8061001c5f395ff3fe608060405234801561000f575f80fd5b5060043610610029575f3560e01c8063b9db1b191461002d575b5f80fd5b61004760048036038101906100429190610105565b61005d565b604051610054919061013f565b60405180910390f35b5f8082434260405160200161007493929190610178565b604051602081830303815290604052805190602001205f1c90507fe39bc54c4e458fbe3ea260b0b1020aef9d292e9ff12314349bd634fa4d60ac53816040516100bd919061013f565b60405180910390a180915050919050565b5f80fd5b5f819050919050565b6100e4816100d2565b81146100ee575f80fd5b50565b5f813590506100ff816100db565b92915050565b5f6020828403121561011a576101196100ce565b5b5f610127848285016100f1565b91505092915050565b610139816100d2565b82525050565b5f6020820190506101525f830184610130565b92915050565b5f819050919050565b61017261016d826100d2565b610158565b82525050565b5f6101838286610161565b6020820191506101938285610161565b6020820191506101a38284610161565b60208201915081905094935050505056fea2646970667358221220892a7eb64b88fd0c805fb8b5caf52980b69c2b3484fed0faf6a26279204358a264736f6c634300081a0033",
					"opcodes": "PUSH1 0x80 PUSH1 0x40 MSTORE CALLVALUE DUP1 ISZERO PUSH1 0xE JUMPI PUSH0 DUP1 REVERT JUMPDEST POP PUSH2 0x1EA DUP1 PUSH2 0x1C PUSH0 CODECOPY PUSH0 RETURN INVALID PUSH1 0x80 PUSH1 0x40 MSTORE CALLVALUE DUP1 ISZERO PUSH2 0xF JUMPI PUSH0 DUP1 REVERT JUMPDEST POP PUSH1 0x4 CALLDATASIZE LT PUSH2 0x29 JUMPI PUSH0 CALLDATALOAD PUSH1 0xE0 SHR DUP1 PUSH4 0xB9DB1B19 EQ PUSH2 0x2D JUMPI JUMPDEST PUSH0 DUP1 REVERT JUMPDEST PUSH2 0x47 PUSH1 0x4 DUP1 CALLDATASIZE SUB DUP2 ADD SWAP1 PUSH2 0x42 SWAP2 SWAP1 PUSH2 0x105 JUMP JUMPDEST PUSH2 0x5D JUMP JUMPDEST PUSH1 0x40 MLOAD PUSH2 0x54 SWAP2 SWAP1 PUSH2 0x13F JUMP JUMPDEST PUSH1 0x40 MLOAD DUP1 SWAP2 SUB SWAP1 RETURN JUMPDEST PUSH0 DUP1 DUP3 NUMBER TIMESTAMP PUSH1 0x40 MLOAD PUSH1 0x20 ADD PUSH2 0x74 SWAP4 SWAP3 SWAP2 SWAP1 PUSH2 0x178 JUMP JUMPDEST PUSH1 0x40 MLOAD PUSH1 0x20 DUP2 DUP4 SUB SUB DUP2 MSTORE SWAP1 PUSH1 0x40 MSTORE DUP1 MLOAD SWAP1 PUSH1 0x20 ADD KECCAK256 PUSH0 SHR SWAP1 POP PUSH32 0xE39BC54C4E458FBE3EA260B0B1020AEF9D292E9FF12314349BD634FA4D60AC53 DUP2 PUSH1 0x40 MLOAD PUSH2 0xBD SWAP2 SWAP1 PUSH2 0x13F JUMP JUMPDEST PUSH1 0x40 MLOAD DUP1 SWAP2 SUB SWAP1 LOG1 DUP1 SWAP2 POP POP SWAP2 SWAP1 POP JUMP JUMPDEST PUSH0 DUP1 REVERT JUMPDEST PUSH0 DUP2 SWAP1 POP SWAP2 SWAP1 POP JUMP JUMPDEST PUSH2 0xE4 DUP2 PUSH2 0xD2 JUMP JUMPDEST DUP2 EQ PUSH2 0xEE JUMPI PUSH0 DUP1 REVERT JUMPDEST POP JUMP JUMPDEST PUSH0 DUP2 CALLDATALOAD SWAP1 POP PUSH2 0xFF DUP2 PUSH2 0xDB JUMP JUMPDEST SWAP3 SWAP2 POP POP JUMP JUMPDEST PUSH0 PUSH1 0x20 DUP3 DUP5 SUB SLT ISZERO PUSH2 0x11A JUMPI PUSH2 0x119 PUSH2 0xCE JUMP JUMPDEST JUMPDEST PUSH0 PUSH2 0x127 DUP5 DUP3 DUP6 ADD PUSH2 0xF1 JUMP JUMPDEST SWAP2 POP POP SWAP3 SWAP2 POP POP JUMP JUMPDEST PUSH2 0x139 DUP2 PUSH2 0xD2 JUMP JUMPDEST DUP3 MSTORE POP POP JUMP JUMPDEST PUSH0 PUSH1 0x20 DUP3 ADD SWAP1 POP PUSH2 0x152 PUSH0 DUP4 ADD DUP5 PUSH2 0x130 JUMP JUMPDEST SWAP3 SWAP2 POP POP JUMP JUMPDEST PUSH0 DUP2 SWAP1 POP SWAP2 SWAP1 POP JUMP JUMPDEST PUSH2 0x172 PUSH2 0x16D DUP3 PUSH2 0xD2 JUMP JUMPDEST PUSH2 0x158 JUMP JUMPDEST DUP3 MSTORE POP POP JUMP JUMPDEST PUSH0 PUSH2 0x183 DUP3 DUP7 PUSH2 0x161 JUMP JUMPDEST PUSH1 0x20 DUP3 ADD SWAP2 POP PUSH2 0x193 DUP3 DUP6 PUSH2 0x161 JUMP JUMPDEST PUSH1 0x20 DUP3 ADD SWAP2 POP PUSH2 0x1A3 DUP3 DUP5 PUSH2 0x161 JUMP JUMPDEST PUSH1 0x20 DUP3 ADD SWAP2 POP DUP2 SWAP1 POP SWAP5 SWAP4 POP POP POP POP JUMP INVALID LOG2 PUSH5 0x6970667358 0x22 SLT KECCAK256 DUP10 0x2A PUSH31 0xB64B88FD0C805FB8B5CAF52980B69C2B3484FED0FAF6A26279204358A26473 PUSH16 0x6C634300081A00330000000000000000 "
				},
				"gasEstimates": {
					"creation": {
						"codeDepositCost": "98000",
						"executionCost": "145",
						"totalCost": "98145"
					},
					"external": {
						"generateCaptcha(uint256)": "infinite"
					}
				},
				"methodIdentifiers": {
					"generateCaptcha(uint256)": "b9db1b19"
				}
			},
			"storageLayout": {
				"storage": [],
				"types": null
			},
			"userdoc": {
				"kind": "user",
				"methods": {},
				"version": 1
			}
		}
	}
}