{
	"Unsolveable_Money_Captcha/contracts/Money.sol": {
		"Money": {
			"abi": [
				{
					"inputs": [
						{
							"internalType": "contract Captcha",
							"name": "_captcha",
							"type": "address"
						}
					],
					"stateMutability": "nonpayable",
					"type": "constructor"
				},
				{
					"inputs": [
						{
							"internalType": "address",
							"name": "",
							"type": "address"
						}
					],
					"name": "balances",
					"outputs": [
						{
							"internalType": "uint256",
							"name": "",
							"type": "uint256"
						}
					],
					"stateMutability": "view",
					"type": "function"
				},
				{
					"inputs": [],
					"name": "captchaContract",
					"outputs": [
						{
							"internalType": "contract Captcha",
							"name": "",
							"type": "address"
						}
					],
					"stateMutability": "view",
					"type": "function"
				},
				{
					"inputs": [
						{
							"internalType": "uint256",
							"name": "userProvidedCaptcha",
							"type": "uint256"
						}
					],
					"name": "load",
					"outputs": [],
					"stateMutability": "nonpayable",
					"type": "function"
				},
				{
					"inputs": [],
					"name": "save",
					"outputs": [],
					"stateMutability": "payable",
					"type": "function"
				},
				{
					"inputs": [],
					"name": "secret",
					"outputs": [
						{
							"internalType": "uint256",
							"name": "",
							"type": "uint256"
						}
					],
					"stateMutability": "view",
					"type": "function"
				}
			],
			"devdoc": {
				"kind": "dev",
				"methods": {},
				"version": 1
			},
			"evm": {
				"assembly": "    /* \"Unsolveable_Money_Captcha/contracts/Money.sol\":89:986  contract Money {... */\n  mstore(0x40, 0xa0)\n    /* \"Unsolveable_Money_Captcha/contracts/Money.sol\":230:358  constructor(Captcha _captcha) {... */\n  callvalue\n  dup1\n  iszero\n  tag_1\n  jumpi\n  0x00\n  dup1\n  revert\ntag_1:\n  pop\n  mload(0x40)\n  sub(codesize, bytecodeSize)\n  dup1\n  bytecodeSize\n  dup4\n  codecopy\n  dup2\n  dup2\n  add\n  0x40\n  mstore\n  dup2\n  add\n  swap1\n  tag_2\n  swap2\n  swap1\n  tag_3\n  jump\t// in\ntag_2:\n    /* \"Unsolveable_Money_Captcha/contracts/Money.sol\":288:296  _captcha */\n  dup1\n    /* \"Unsolveable_Money_Captcha/contracts/Money.sol\":270:285  captchaContract */\n  0x01\n  0x00\n    /* \"Unsolveable_Money_Captcha/contracts/Money.sol\":270:296  captchaContract = _captcha */\n  0x0100\n  exp\n  dup2\n  sload\n  dup2\n  0xffffffffffffffffffffffffffffffffffffffff\n  mul\n  not\n  and\n  swap1\n  dup4\n  0xffffffffffffffffffffffffffffffffffffffff\n  and\n  mul\n  or\n  swap1\n  sstore\n  pop\n    /* \"Unsolveable_Money_Captcha/contracts/Money.sol\":333:349  block.prevrandao */\n  prevrandao\n    /* \"Unsolveable_Money_Captcha/contracts/Money.sol\":323:350  blockhash(block.prevrandao) */\n  blockhash\n    /* \"Unsolveable_Money_Captcha/contracts/Money.sol\":315:351  uint256(blockhash(block.prevrandao)) */\n  0x00\n  shr\n    /* \"Unsolveable_Money_Captcha/contracts/Money.sol\":306:351  secret = uint256(blockhash(block.prevrandao)) */\n  0x80\n  dup2\n  dup2\n  mstore\n  pop\n  pop\n    /* \"Unsolveable_Money_Captcha/contracts/Money.sol\":230:358  constructor(Captcha _captcha) {... */\n  pop\n    /* \"Unsolveable_Money_Captcha/contracts/Money.sol\":89:986  contract Money {... */\n  jump(tag_6)\n    /* \"#utility.yul\":88:205   */\ntag_8:\n    /* \"#utility.yul\":197:198   */\n  0x00\n    /* \"#utility.yul\":194:195   */\n  dup1\n    /* \"#utility.yul\":187:199   */\n  revert\n    /* \"#utility.yul\":334:460   */\ntag_10:\n    /* \"#utility.yul\":371:378   */\n  0x00\n    /* \"#utility.yul\":411:453   */\n  0xffffffffffffffffffffffffffffffffffffffff\n    /* \"#utility.yul\":404:409   */\n  dup3\n    /* \"#utility.yul\":400:454   */\n  and\n    /* \"#utility.yul\":389:454   */\n  swap1\n  pop\n    /* \"#utility.yul\":334:460   */\n  swap2\n  swap1\n  pop\n  jump\t// out\n    /* \"#utility.yul\":466:562   */\ntag_11:\n    /* \"#utility.yul\":503:510   */\n  0x00\n    /* \"#utility.yul\":532:556   */\n  tag_21\n    /* \"#utility.yul\":550:555   */\n  dup3\n    /* \"#utility.yul\":532:556   */\n  tag_10\n  jump\t// in\ntag_21:\n    /* \"#utility.yul\":521:556   */\n  swap1\n  pop\n    /* \"#utility.yul\":466:562   */\n  swap2\n  swap1\n  pop\n  jump\t// out\n    /* \"#utility.yul\":568:678   */\ntag_12:\n    /* \"#utility.yul\":619:626   */\n  0x00\n    /* \"#utility.yul\":648:672   */\n  tag_23\n    /* \"#utility.yul\":666:671   */\n  dup3\n    /* \"#utility.yul\":648:672   */\n  tag_11\n  jump\t// in\ntag_23:\n    /* \"#utility.yul\":637:672   */\n  swap1\n  pop\n    /* \"#utility.yul\":568:678   */\n  swap2\n  swap1\n  pop\n  jump\t// out\n    /* \"#utility.yul\":684:834   */\ntag_13:\n    /* \"#utility.yul\":771:809   */\n  tag_25\n    /* \"#utility.yul\":803:808   */\n  dup2\n    /* \"#utility.yul\":771:809   */\n  tag_12\n  jump\t// in\ntag_25:\n    /* \"#utility.yul\":764:769   */\n  dup2\n    /* \"#utility.yul\":761:810   */\n  eq\n    /* \"#utility.yul\":751:828   */\n  tag_26\n  jumpi\n    /* \"#utility.yul\":824:825   */\n  0x00\n    /* \"#utility.yul\":821:822   */\n  dup1\n    /* \"#utility.yul\":814:826   */\n  revert\n    /* \"#utility.yul\":751:828   */\ntag_26:\n    /* \"#utility.yul\":684:834   */\n  pop\n  jump\t// out\n    /* \"#utility.yul\":840:1011   */\ntag_14:\n    /* \"#utility.yul\":911:916   */\n  0x00\n    /* \"#utility.yul\":942:948   */\n  dup2\n    /* \"#utility.yul\":936:949   */\n  mload\n    /* \"#utility.yul\":927:949   */\n  swap1\n  pop\n    /* \"#utility.yul\":958:1005   */\n  tag_28\n    /* \"#utility.yul\":999:1004   */\n  dup2\n    /* \"#utility.yul\":958:1005   */\n  tag_13\n  jump\t// in\ntag_28:\n    /* \"#utility.yul\":840:1011   */\n  swap3\n  swap2\n  pop\n  pop\n  jump\t// out\n    /* \"#utility.yul\":1017:1396   */\ntag_3:\n    /* \"#utility.yul\":1101:1107   */\n  0x00\n    /* \"#utility.yul\":1150:1152   */\n  0x20\n    /* \"#utility.yul\":1138:1147   */\n  dup3\n    /* \"#utility.yul\":1129:1136   */\n  dup5\n    /* \"#utility.yul\":1125:1148   */\n  sub\n    /* \"#utility.yul\":1121:1153   */\n  slt\n    /* \"#utility.yul\":1118:1237   */\n  iszero\n  tag_30\n  jumpi\n    /* \"#utility.yul\":1156:1235   */\n  tag_31\n  tag_8\n  jump\t// in\ntag_31:\n    /* \"#utility.yul\":1118:1237   */\ntag_30:\n    /* \"#utility.yul\":1276:1277   */\n  0x00\n    /* \"#utility.yul\":1301:1379   */\n  tag_32\n    /* \"#utility.yul\":1371:1378   */\n  dup5\n    /* \"#utility.yul\":1362:1368   */\n  dup3\n    /* \"#utility.yul\":1351:1360   */\n  dup6\n    /* \"#utility.yul\":1347:1369   */\n  add\n    /* \"#utility.yul\":1301:1379   */\n  tag_14\n  jump\t// in\ntag_32:\n    /* \"#utility.yul\":1291:1379   */\n  swap2\n  pop\n    /* \"#utility.yul\":1247:1389   */\n  pop\n    /* \"#utility.yul\":1017:1396   */\n  swap3\n  swap2\n  pop\n  pop\n  jump\t// out\n    /* \"Unsolveable_Money_Captcha/contracts/Money.sol\":89:986  contract Money {... */\ntag_6:\n  mload(0x80)\n  codecopy(0x00, dataOffset(sub_0), dataSize(sub_0))\n  0x00\n  assignImmutable(\"0x6304e47846f882085b0f4b1a184252ae95ffe5e2a02daf39c014f492dcb1441c\")\n  return(0x00, dataSize(sub_0))\nstop\n\nsub_0: assembly {\n        /* \"Unsolveable_Money_Captcha/contracts/Money.sol\":89:986  contract Money {... */\n      mstore(0x40, 0x80)\n      jumpi(tag_1, lt(calldatasize, 0x04))\n      shr(0xe0, calldataload(0x00))\n      dup1\n      0x27e235e3\n      eq\n      tag_2\n      jumpi\n      dup1\n      0x42dad49e\n      eq\n      tag_3\n      jumpi\n      dup1\n      0x94f41a88\n      eq\n      tag_4\n      jumpi\n      dup1\n      0x99d548aa\n      eq\n      tag_5\n      jumpi\n      dup1\n      0xd1efd30d\n      eq\n      tag_6\n      jumpi\n    tag_1:\n      0x00\n      dup1\n      revert\n        /* \"Unsolveable_Money_Captcha/contracts/Money.sol\":110:150  mapping(address => uint) public balances */\n    tag_2:\n      callvalue\n      dup1\n      iszero\n      tag_7\n      jumpi\n      0x00\n      dup1\n      revert\n    tag_7:\n      pop\n      tag_8\n      0x04\n      dup1\n      calldatasize\n      sub\n      dup2\n      add\n      swap1\n      tag_9\n      swap2\n      swap1\n      tag_10\n      jump\t// in\n    tag_9:\n      tag_11\n      jump\t// in\n    tag_8:\n      mload(0x40)\n      tag_12\n      swap2\n      swap1\n      tag_13\n      jump\t// in\n    tag_12:\n      mload(0x40)\n      dup1\n      swap2\n      sub\n      swap1\n      return\n        /* \"Unsolveable_Money_Captcha/contracts/Money.sol\":364:504  function save() public payable {... */\n    tag_3:\n      tag_14\n      tag_15\n      jump\t// in\n    tag_14:\n      stop\n        /* \"Unsolveable_Money_Captcha/contracts/Money.sol\":156:186  Captcha public captchaContract */\n    tag_4:\n      callvalue\n      dup1\n      iszero\n      tag_16\n      jumpi\n      0x00\n      dup1\n      revert\n    tag_16:\n      pop\n      tag_17\n      tag_18\n      jump\t// in\n    tag_17:\n      mload(0x40)\n      tag_19\n      swap2\n      swap1\n      tag_20\n      jump\t// in\n    tag_19:\n      mload(0x40)\n      dup1\n      swap2\n      sub\n      swap1\n      return\n        /* \"Unsolveable_Money_Captcha/contracts/Money.sol\":510:984  function load(uint256 userProvidedCaptcha) public {... */\n    tag_5:\n      callvalue\n      dup1\n      iszero\n      tag_21\n      jumpi\n      0x00\n      dup1\n      revert\n    tag_21:\n      pop\n      tag_22\n      0x04\n      dup1\n      calldatasize\n      sub\n      dup2\n      add\n      swap1\n      tag_23\n      swap2\n      swap1\n      tag_24\n      jump\t// in\n    tag_23:\n      tag_25\n      jump\t// in\n    tag_22:\n      stop\n        /* \"Unsolveable_Money_Captcha/contracts/Money.sol\":192:223  uint256 public immutable secret */\n    tag_6:\n      callvalue\n      dup1\n      iszero\n      tag_26\n      jumpi\n      0x00\n      dup1\n      revert\n    tag_26:\n      pop\n      tag_27\n      tag_28\n      jump\t// in\n    tag_27:\n      mload(0x40)\n      tag_29\n      swap2\n      swap1\n      tag_13\n      jump\t// in\n    tag_29:\n      mload(0x40)\n      dup1\n      swap2\n      sub\n      swap1\n      return\n        /* \"Unsolveable_Money_Captcha/contracts/Money.sol\":110:150  mapping(address => uint) public balances */\n    tag_11:\n      mstore(0x20, 0x00)\n      dup1\n      0x00\n      mstore\n      keccak256(0x00, 0x40)\n      0x00\n      swap2\n      pop\n      swap1\n      pop\n      sload\n      dup2\n      jump\t// out\n        /* \"Unsolveable_Money_Captcha/contracts/Money.sol\":364:504  function save() public payable {... */\n    tag_15:\n        /* \"Unsolveable_Money_Captcha/contracts/Money.sol\":425:426  0 */\n      0x00\n        /* \"Unsolveable_Money_Captcha/contracts/Money.sol\":413:422  msg.value */\n      callvalue\n        /* \"Unsolveable_Money_Captcha/contracts/Money.sol\":413:426  msg.value > 0 */\n      gt\n        /* \"Unsolveable_Money_Captcha/contracts/Money.sol\":405:454  require(msg.value > 0, \"You don't have money XP\") */\n      tag_31\n      jumpi\n      mload(0x40)\n      0x08c379a000000000000000000000000000000000000000000000000000000000\n      dup2\n      mstore\n      0x04\n      add\n      tag_32\n      swap1\n      tag_33\n      jump\t// in\n    tag_32:\n      mload(0x40)\n      dup1\n      swap2\n      sub\n      swap1\n      revert\n    tag_31:\n        /* \"Unsolveable_Money_Captcha/contracts/Money.sol\":488:497  msg.value */\n      callvalue\n        /* \"Unsolveable_Money_Captcha/contracts/Money.sol\":464:472  balances */\n      0x00\n        /* \"Unsolveable_Money_Captcha/contracts/Money.sol\":464:484  balances[msg.sender] */\n      dup1\n        /* \"Unsolveable_Money_Captcha/contracts/Money.sol\":473:483  msg.sender */\n      caller\n        /* \"Unsolveable_Money_Captcha/contracts/Money.sol\":464:484  balances[msg.sender] */\n      0xffffffffffffffffffffffffffffffffffffffff\n      and\n      0xffffffffffffffffffffffffffffffffffffffff\n      and\n      dup2\n      mstore\n      0x20\n      add\n      swap1\n      dup2\n      mstore\n      0x20\n      add\n      0x00\n      keccak256\n      0x00\n        /* \"Unsolveable_Money_Captcha/contracts/Money.sol\":464:497  balances[msg.sender] += msg.value */\n      dup3\n      dup3\n      sload\n      tag_34\n      swap2\n      swap1\n      tag_35\n      jump\t// in\n    tag_34:\n      swap3\n      pop\n      pop\n      dup2\n      swap1\n      sstore\n      pop\n        /* \"Unsolveable_Money_Captcha/contracts/Money.sol\":364:504  function save() public payable {... */\n      jump\t// out\n        /* \"Unsolveable_Money_Captcha/contracts/Money.sol\":156:186  Captcha public captchaContract */\n    tag_18:\n      0x01\n      0x00\n      swap1\n      sload\n      swap1\n      0x0100\n      exp\n      swap1\n      div\n      0xffffffffffffffffffffffffffffffffffffffff\n      and\n      dup2\n      jump\t// out\n        /* \"Unsolveable_Money_Captcha/contracts/Money.sol\":510:984  function load(uint256 userProvidedCaptcha) public {... */\n    tag_25:\n        /* \"Unsolveable_Money_Captcha/contracts/Money.sol\":570:582  uint balance */\n      0x00\n        /* \"Unsolveable_Money_Captcha/contracts/Money.sol\":585:593  balances */\n      dup1\n        /* \"Unsolveable_Money_Captcha/contracts/Money.sol\":585:605  balances[msg.sender] */\n      0x00\n        /* \"Unsolveable_Money_Captcha/contracts/Money.sol\":594:604  msg.sender */\n      caller\n        /* \"Unsolveable_Money_Captcha/contracts/Money.sol\":585:605  balances[msg.sender] */\n      0xffffffffffffffffffffffffffffffffffffffff\n      and\n      0xffffffffffffffffffffffffffffffffffffffff\n      and\n      dup2\n      mstore\n      0x20\n      add\n      swap1\n      dup2\n      mstore\n      0x20\n      add\n      0x00\n      keccak256\n      sload\n        /* \"Unsolveable_Money_Captcha/contracts/Money.sol\":570:605  uint balance = balances[msg.sender] */\n      swap1\n      pop\n        /* \"Unsolveable_Money_Captcha/contracts/Money.sol\":633:634  0 */\n      0x00\n        /* \"Unsolveable_Money_Captcha/contracts/Money.sol\":623:630  balance */\n      dup2\n        /* \"Unsolveable_Money_Captcha/contracts/Money.sol\":623:634  balance > 0 */\n      gt\n        /* \"Unsolveable_Money_Captcha/contracts/Money.sol\":615:670  require(balance > 0, \"You don't have money to load XD\") */\n      tag_37\n      jumpi\n      mload(0x40)\n      0x08c379a000000000000000000000000000000000000000000000000000000000\n      dup2\n      mstore\n      0x04\n      add\n      tag_38\n      swap1\n      tag_39\n      jump\t// in\n    tag_38:\n      mload(0x40)\n      dup1\n      swap2\n      sub\n      swap1\n      revert\n    tag_37:\n        /* \"Unsolveable_Money_Captcha/contracts/Money.sol\":681:705  uint256 generatedCaptcha */\n      0x00\n        /* \"Unsolveable_Money_Captcha/contracts/Money.sol\":708:723  captchaContract */\n      0x01\n      0x00\n      swap1\n      sload\n      swap1\n      0x0100\n      exp\n      swap1\n      div\n      0xffffffffffffffffffffffffffffffffffffffff\n      and\n        /* \"Unsolveable_Money_Captcha/contracts/Money.sol\":708:739  captchaContract.generateCaptcha */\n      0xffffffffffffffffffffffffffffffffffffffff\n      and\n      0xb9db1b19\n        /* \"Unsolveable_Money_Captcha/contracts/Money.sol\":740:746  secret */\n      immutable(\"0x6304e47846f882085b0f4b1a184252ae95ffe5e2a02daf39c014f492dcb1441c\")\n        /* \"Unsolveable_Money_Captcha/contracts/Money.sol\":708:747  captchaContract.generateCaptcha(secret) */\n      mload(0x40)\n      dup3\n      0xffffffff\n      and\n      0xe0\n      shl\n      dup2\n      mstore\n      0x04\n      add\n      tag_40\n      swap2\n      swap1\n      tag_13\n      jump\t// in\n    tag_40:\n      0x20\n      mload(0x40)\n      dup1\n      dup4\n      sub\n      dup2\n      0x00\n      dup8\n      gas\n      call\n      iszero\n      dup1\n      iszero\n      tag_42\n      jumpi\n      returndatasize\n      0x00\n      dup1\n      returndatacopy\n      revert(0x00, returndatasize)\n    tag_42:\n      pop\n      pop\n      pop\n      pop\n      mload(0x40)\n      returndatasize\n      not(0x1f)\n      0x1f\n      dup3\n      add\n      and\n      dup3\n      add\n      dup1\n      0x40\n      mstore\n      pop\n      dup2\n      add\n      swap1\n      tag_43\n      swap2\n      swap1\n      tag_44\n      jump\t// in\n    tag_43:\n        /* \"Unsolveable_Money_Captcha/contracts/Money.sol\":681:747  uint256 generatedCaptcha = captchaContract.generateCaptcha(secret) */\n      swap1\n      pop\n        /* \"Unsolveable_Money_Captcha/contracts/Money.sol\":788:804  generatedCaptcha */\n      dup1\n        /* \"Unsolveable_Money_Captcha/contracts/Money.sol\":765:784  userProvidedCaptcha */\n      dup4\n        /* \"Unsolveable_Money_Captcha/contracts/Money.sol\":765:804  userProvidedCaptcha == generatedCaptcha */\n      eq\n        /* \"Unsolveable_Money_Captcha/contracts/Money.sol\":757:824  require(userProvidedCaptcha == generatedCaptcha, \"Invalid captcha\") */\n      tag_45\n      jumpi\n      mload(0x40)\n      0x08c379a000000000000000000000000000000000000000000000000000000000\n      dup2\n      mstore\n      0x04\n      add\n      tag_46\n      swap1\n      tag_47\n      jump\t// in\n    tag_46:\n      mload(0x40)\n      dup1\n      swap2\n      sub\n      swap1\n      revert\n    tag_45:\n        /* \"Unsolveable_Money_Captcha/contracts/Money.sol\":836:848  bool success */\n      0x00\n        /* \"Unsolveable_Money_Captcha/contracts/Money.sol\":853:863  msg.sender */\n      caller\n        /* \"Unsolveable_Money_Captcha/contracts/Money.sol\":853:868  msg.sender.call */\n      0xffffffffffffffffffffffffffffffffffffffff\n      and\n        /* \"Unsolveable_Money_Captcha/contracts/Money.sol\":876:883  balance */\n      dup4\n        /* \"Unsolveable_Money_Captcha/contracts/Money.sol\":853:888  msg.sender.call{value: balance}(\"\") */\n      mload(0x40)\n      tag_48\n      swap1\n      tag_49\n      jump\t// in\n    tag_48:\n      0x00\n      mload(0x40)\n      dup1\n      dup4\n      sub\n      dup2\n      dup6\n      dup8\n      gas\n      call\n      swap3\n      pop\n      pop\n      pop\n      returndatasize\n      dup1\n      0x00\n      dup2\n      eq\n      tag_52\n      jumpi\n      mload(0x40)\n      swap2\n      pop\n      and(add(returndatasize, 0x3f), not(0x1f))\n      dup3\n      add\n      0x40\n      mstore\n      returndatasize\n      dup3\n      mstore\n      returndatasize\n      0x00\n      0x20\n      dup5\n      add\n      returndatacopy\n      jump(tag_51)\n    tag_52:\n      0x60\n      swap2\n      pop\n    tag_51:\n      pop\n        /* \"Unsolveable_Money_Captcha/contracts/Money.sol\":835:888  (bool success,) = msg.sender.call{value: balance}(\"\") */\n      pop\n      swap1\n      pop\n        /* \"Unsolveable_Money_Captcha/contracts/Money.sol\":906:913  success */\n      dup1\n        /* \"Unsolveable_Money_Captcha/contracts/Money.sol\":898:943  require(success, 'Oh my god, what is that!?') */\n      tag_53\n      jumpi\n      mload(0x40)\n      0x08c379a000000000000000000000000000000000000000000000000000000000\n      dup2\n      mstore\n      0x04\n      add\n      tag_54\n      swap1\n      tag_55\n      jump\t// in\n    tag_54:\n      mload(0x40)\n      dup1\n      swap2\n      sub\n      swap1\n      revert\n    tag_53:\n        /* \"Unsolveable_Money_Captcha/contracts/Money.sol\":976:977  0 */\n      0x00\n        /* \"Unsolveable_Money_Captcha/contracts/Money.sol\":953:961  balances */\n      dup1\n        /* \"Unsolveable_Money_Captcha/contracts/Money.sol\":953:973  balances[msg.sender] */\n      0x00\n        /* \"Unsolveable_Money_Captcha/contracts/Money.sol\":962:972  msg.sender */\n      caller\n        /* \"Unsolveable_Money_Captcha/contracts/Money.sol\":953:973  balances[msg.sender] */\n      0xffffffffffffffffffffffffffffffffffffffff\n      and\n      0xffffffffffffffffffffffffffffffffffffffff\n      and\n      dup2\n      mstore\n      0x20\n      add\n      swap1\n      dup2\n      mstore\n      0x20\n      add\n      0x00\n      keccak256\n        /* \"Unsolveable_Money_Captcha/contracts/Money.sol\":953:977  balances[msg.sender] = 0 */\n      dup2\n      swap1\n      sstore\n      pop\n        /* \"Unsolveable_Money_Captcha/contracts/Money.sol\":560:984  {... */\n      pop\n      pop\n      pop\n        /* \"Unsolveable_Money_Captcha/contracts/Money.sol\":510:984  function load(uint256 userProvidedCaptcha) public {... */\n      pop\n      jump\t// out\n        /* \"Unsolveable_Money_Captcha/contracts/Money.sol\":192:223  uint256 public immutable secret */\n    tag_28:\n      immutable(\"0x6304e47846f882085b0f4b1a184252ae95ffe5e2a02daf39c014f492dcb1441c\")\n      dup2\n      jump\t// out\n        /* \"#utility.yul\":88:205   */\n    tag_57:\n        /* \"#utility.yul\":197:198   */\n      0x00\n        /* \"#utility.yul\":194:195   */\n      dup1\n        /* \"#utility.yul\":187:199   */\n      revert\n        /* \"#utility.yul\":334:460   */\n    tag_59:\n        /* \"#utility.yul\":371:378   */\n      0x00\n        /* \"#utility.yul\":411:453   */\n      0xffffffffffffffffffffffffffffffffffffffff\n        /* \"#utility.yul\":404:409   */\n      dup3\n        /* \"#utility.yul\":400:454   */\n      and\n        /* \"#utility.yul\":389:454   */\n      swap1\n      pop\n        /* \"#utility.yul\":334:460   */\n      swap2\n      swap1\n      pop\n      jump\t// out\n        /* \"#utility.yul\":466:562   */\n    tag_60:\n        /* \"#utility.yul\":503:510   */\n      0x00\n        /* \"#utility.yul\":532:556   */\n      tag_92\n        /* \"#utility.yul\":550:555   */\n      dup3\n        /* \"#utility.yul\":532:556   */\n      tag_59\n      jump\t// in\n    tag_92:\n        /* \"#utility.yul\":521:556   */\n      swap1\n      pop\n        /* \"#utility.yul\":466:562   */\n      swap2\n      swap1\n      pop\n      jump\t// out\n        /* \"#utility.yul\":568:690   */\n    tag_61:\n        /* \"#utility.yul\":641:665   */\n      tag_94\n        /* \"#utility.yul\":659:664   */\n      dup2\n        /* \"#utility.yul\":641:665   */\n      tag_60\n      jump\t// in\n    tag_94:\n        /* \"#utility.yul\":634:639   */\n      dup2\n        /* \"#utility.yul\":631:666   */\n      eq\n        /* \"#utility.yul\":621:684   */\n      tag_95\n      jumpi\n        /* \"#utility.yul\":680:681   */\n      0x00\n        /* \"#utility.yul\":677:678   */\n      dup1\n        /* \"#utility.yul\":670:682   */\n      revert\n        /* \"#utility.yul\":621:684   */\n    tag_95:\n        /* \"#utility.yul\":568:690   */\n      pop\n      jump\t// out\n        /* \"#utility.yul\":696:835   */\n    tag_62:\n        /* \"#utility.yul\":742:747   */\n      0x00\n        /* \"#utility.yul\":780:786   */\n      dup2\n        /* \"#utility.yul\":767:787   */\n      calldataload\n        /* \"#utility.yul\":758:787   */\n      swap1\n      pop\n        /* \"#utility.yul\":796:829   */\n      tag_97\n        /* \"#utility.yul\":823:828   */\n      dup2\n        /* \"#utility.yul\":796:829   */\n      tag_61\n      jump\t// in\n    tag_97:\n        /* \"#utility.yul\":696:835   */\n      swap3\n      swap2\n      pop\n      pop\n      jump\t// out\n        /* \"#utility.yul\":841:1170   */\n    tag_10:\n        /* \"#utility.yul\":900:906   */\n      0x00\n        /* \"#utility.yul\":949:951   */\n      0x20\n        /* \"#utility.yul\":937:946   */\n      dup3\n        /* \"#utility.yul\":928:935   */\n      dup5\n        /* \"#utility.yul\":924:947   */\n      sub\n        /* \"#utility.yul\":920:952   */\n      slt\n        /* \"#utility.yul\":917:1036   */\n      iszero\n      tag_99\n      jumpi\n        /* \"#utility.yul\":955:1034   */\n      tag_100\n      tag_57\n      jump\t// in\n    tag_100:\n        /* \"#utility.yul\":917:1036   */\n    tag_99:\n        /* \"#utility.yul\":1075:1076   */\n      0x00\n        /* \"#utility.yul\":1100:1153   */\n      tag_101\n        /* \"#utility.yul\":1145:1152   */\n      dup5\n        /* \"#utility.yul\":1136:1142   */\n      dup3\n        /* \"#utility.yul\":1125:1134   */\n      dup6\n        /* \"#utility.yul\":1121:1143   */\n      add\n        /* \"#utility.yul\":1100:1153   */\n      tag_62\n      jump\t// in\n    tag_101:\n        /* \"#utility.yul\":1090:1153   */\n      swap2\n      pop\n        /* \"#utility.yul\":1046:1163   */\n      pop\n        /* \"#utility.yul\":841:1170   */\n      swap3\n      swap2\n      pop\n      pop\n      jump\t// out\n        /* \"#utility.yul\":1176:1253   */\n    tag_63:\n        /* \"#utility.yul\":1213:1220   */\n      0x00\n        /* \"#utility.yul\":1242:1247   */\n      dup2\n        /* \"#utility.yul\":1231:1247   */\n      swap1\n      pop\n        /* \"#utility.yul\":1176:1253   */\n      swap2\n      swap1\n      pop\n      jump\t// out\n        /* \"#utility.yul\":1259:1377   */\n    tag_64:\n        /* \"#utility.yul\":1346:1370   */\n      tag_104\n        /* \"#utility.yul\":1364:1369   */\n      dup2\n        /* \"#utility.yul\":1346:1370   */\n      tag_63\n      jump\t// in\n    tag_104:\n        /* \"#utility.yul\":1341:1344   */\n      dup3\n        /* \"#utility.yul\":1334:1371   */\n      mstore\n        /* \"#utility.yul\":1259:1377   */\n      pop\n      pop\n      jump\t// out\n        /* \"#utility.yul\":1383:1605   */\n    tag_13:\n        /* \"#utility.yul\":1476:1480   */\n      0x00\n        /* \"#utility.yul\":1514:1516   */\n      0x20\n        /* \"#utility.yul\":1503:1512   */\n      dup3\n        /* \"#utility.yul\":1499:1517   */\n      add\n        /* \"#utility.yul\":1491:1517   */\n      swap1\n      pop\n        /* \"#utility.yul\":1527:1598   */\n      tag_106\n        /* \"#utility.yul\":1595:1596   */\n      0x00\n        /* \"#utility.yul\":1584:1593   */\n      dup4\n        /* \"#utility.yul\":1580:1597   */\n      add\n        /* \"#utility.yul\":1571:1577   */\n      dup5\n        /* \"#utility.yul\":1527:1598   */\n      tag_64\n      jump\t// in\n    tag_106:\n        /* \"#utility.yul\":1383:1605   */\n      swap3\n      swap2\n      pop\n      pop\n      jump\t// out\n        /* \"#utility.yul\":1611:1671   */\n    tag_65:\n        /* \"#utility.yul\":1639:1642   */\n      0x00\n        /* \"#utility.yul\":1660:1665   */\n      dup2\n        /* \"#utility.yul\":1653:1665   */\n      swap1\n      pop\n        /* \"#utility.yul\":1611:1671   */\n      swap2\n      swap1\n      pop\n      jump\t// out\n        /* \"#utility.yul\":1677:1819   */\n    tag_66:\n        /* \"#utility.yul\":1727:1736   */\n      0x00\n        /* \"#utility.yul\":1760:1813   */\n      tag_109\n        /* \"#utility.yul\":1778:1812   */\n      tag_110\n        /* \"#utility.yul\":1787:1811   */\n      tag_111\n        /* \"#utility.yul\":1805:1810   */\n      dup5\n        /* \"#utility.yul\":1787:1811   */\n      tag_59\n      jump\t// in\n    tag_111:\n        /* \"#utility.yul\":1778:1812   */\n      tag_65\n      jump\t// in\n    tag_110:\n        /* \"#utility.yul\":1760:1813   */\n      tag_59\n      jump\t// in\n    tag_109:\n        /* \"#utility.yul\":1747:1813   */\n      swap1\n      pop\n        /* \"#utility.yul\":1677:1819   */\n      swap2\n      swap1\n      pop\n      jump\t// out\n        /* \"#utility.yul\":1825:1951   */\n    tag_67:\n        /* \"#utility.yul\":1875:1884   */\n      0x00\n        /* \"#utility.yul\":1908:1945   */\n      tag_113\n        /* \"#utility.yul\":1939:1944   */\n      dup3\n        /* \"#utility.yul\":1908:1945   */\n      tag_66\n      jump\t// in\n    tag_113:\n        /* \"#utility.yul\":1895:1945   */\n      swap1\n      pop\n        /* \"#utility.yul\":1825:1951   */\n      swap2\n      swap1\n      pop\n      jump\t// out\n        /* \"#utility.yul\":1957:2097   */\n    tag_68:\n        /* \"#utility.yul\":2021:2030   */\n      0x00\n        /* \"#utility.yul\":2054:2091   */\n      tag_115\n        /* \"#utility.yul\":2085:2090   */\n      dup3\n        /* \"#utility.yul\":2054:2091   */\n      tag_67\n      jump\t// in\n    tag_115:\n        /* \"#utility.yul\":2041:2091   */\n      swap1\n      pop\n        /* \"#utility.yul\":1957:2097   */\n      swap2\n      swap1\n      pop\n      jump\t// out\n        /* \"#utility.yul\":2103:2262   */\n    tag_69:\n        /* \"#utility.yul\":2204:2255   */\n      tag_117\n        /* \"#utility.yul\":2249:2254   */\n      dup2\n        /* \"#utility.yul\":2204:2255   */\n      tag_68\n      jump\t// in\n    tag_117:\n        /* \"#utility.yul\":2199:2202   */\n      dup3\n        /* \"#utility.yul\":2192:2256   */\n      mstore\n        /* \"#utility.yul\":2103:2262   */\n      pop\n      pop\n      jump\t// out\n        /* \"#utility.yul\":2268:2518   */\n    tag_20:\n        /* \"#utility.yul\":2375:2379   */\n      0x00\n        /* \"#utility.yul\":2413:2415   */\n      0x20\n        /* \"#utility.yul\":2402:2411   */\n      dup3\n        /* \"#utility.yul\":2398:2416   */\n      add\n        /* \"#utility.yul\":2390:2416   */\n      swap1\n      pop\n        /* \"#utility.yul\":2426:2511   */\n      tag_119\n        /* \"#utility.yul\":2508:2509   */\n      0x00\n        /* \"#utility.yul\":2497:2506   */\n      dup4\n        /* \"#utility.yul\":2493:2510   */\n      add\n        /* \"#utility.yul\":2484:2490   */\n      dup5\n        /* \"#utility.yul\":2426:2511   */\n      tag_69\n      jump\t// in\n    tag_119:\n        /* \"#utility.yul\":2268:2518   */\n      swap3\n      swap2\n      pop\n      pop\n      jump\t// out\n        /* \"#utility.yul\":2524:2646   */\n    tag_70:\n        /* \"#utility.yul\":2597:2621   */\n      tag_121\n        /* \"#utility.yul\":2615:2620   */\n      dup2\n        /* \"#utility.yul\":2597:2621   */\n      tag_63\n      jump\t// in\n    tag_121:\n        /* \"#utility.yul\":2590:2595   */\n      dup2\n        /* \"#utility.yul\":2587:2622   */\n      eq\n        /* \"#utility.yul\":2577:2640   */\n      tag_122\n      jumpi\n        /* \"#utility.yul\":2636:2637   */\n      0x00\n        /* \"#utility.yul\":2633:2634   */\n      dup1\n        /* \"#utility.yul\":2626:2638   */\n      revert\n        /* \"#utility.yul\":2577:2640   */\n    tag_122:\n        /* \"#utility.yul\":2524:2646   */\n      pop\n      jump\t// out\n        /* \"#utility.yul\":2652:2791   */\n    tag_71:\n        /* \"#utility.yul\":2698:2703   */\n      0x00\n        /* \"#utility.yul\":2736:2742   */\n      dup2\n        /* \"#utility.yul\":2723:2743   */\n      calldataload\n        /* \"#utility.yul\":2714:2743   */\n      swap1\n      pop\n        /* \"#utility.yul\":2752:2785   */\n      tag_124\n        /* \"#utility.yul\":2779:2784   */\n      dup2\n        /* \"#utility.yul\":2752:2785   */\n      tag_70\n      jump\t// in\n    tag_124:\n        /* \"#utility.yul\":2652:2791   */\n      swap3\n      swap2\n      pop\n      pop\n      jump\t// out\n        /* \"#utility.yul\":2797:3126   */\n    tag_24:\n        /* \"#utility.yul\":2856:2862   */\n      0x00\n        /* \"#utility.yul\":2905:2907   */\n      0x20\n        /* \"#utility.yul\":2893:2902   */\n      dup3\n        /* \"#utility.yul\":2884:2891   */\n      dup5\n        /* \"#utility.yul\":2880:2903   */\n      sub\n        /* \"#utility.yul\":2876:2908   */\n      slt\n        /* \"#utility.yul\":2873:2992   */\n      iszero\n      tag_126\n      jumpi\n        /* \"#utility.yul\":2911:2990   */\n      tag_127\n      tag_57\n      jump\t// in\n    tag_127:\n        /* \"#utility.yul\":2873:2992   */\n    tag_126:\n        /* \"#utility.yul\":3031:3032   */\n      0x00\n        /* \"#utility.yul\":3056:3109   */\n      tag_128\n        /* \"#utility.yul\":3101:3108   */\n      dup5\n        /* \"#utility.yul\":3092:3098   */\n      dup3\n        /* \"#utility.yul\":3081:3090   */\n      dup6\n        /* \"#utility.yul\":3077:3099   */\n      add\n        /* \"#utility.yul\":3056:3109   */\n      tag_71\n      jump\t// in\n    tag_128:\n        /* \"#utility.yul\":3046:3109   */\n      swap2\n      pop\n        /* \"#utility.yul\":3002:3119   */\n      pop\n        /* \"#utility.yul\":2797:3126   */\n      swap3\n      swap2\n      pop\n      pop\n      jump\t// out\n        /* \"#utility.yul\":3132:3301   */\n    tag_72:\n        /* \"#utility.yul\":3216:3227   */\n      0x00\n        /* \"#utility.yul\":3250:3256   */\n      dup3\n        /* \"#utility.yul\":3245:3248   */\n      dup3\n        /* \"#utility.yul\":3238:3257   */\n      mstore\n        /* \"#utility.yul\":3290:3294   */\n      0x20\n        /* \"#utility.yul\":3285:3288   */\n      dup3\n        /* \"#utility.yul\":3281:3295   */\n      add\n        /* \"#utility.yul\":3266:3295   */\n      swap1\n      pop\n        /* \"#utility.yul\":3132:3301   */\n      swap3\n      swap2\n      pop\n      pop\n      jump\t// out\n        /* \"#utility.yul\":3307:3480   */\n    tag_73:\n        /* \"#utility.yul\":3447:3472   */\n      0x596f7520646f6e27742068617665206d6f6e6579205850000000000000000000\n        /* \"#utility.yul\":3443:3444   */\n      0x00\n        /* \"#utility.yul\":3435:3441   */\n      dup3\n        /* \"#utility.yul\":3431:3445   */\n      add\n        /* \"#utility.yul\":3424:3473   */\n      mstore\n        /* \"#utility.yul\":3307:3480   */\n      pop\n      jump\t// out\n        /* \"#utility.yul\":3486:3852   */\n    tag_74:\n        /* \"#utility.yul\":3628:3631   */\n      0x00\n        /* \"#utility.yul\":3649:3716   */\n      tag_132\n        /* \"#utility.yul\":3713:3715   */\n      0x17\n        /* \"#utility.yul\":3708:3711   */\n      dup4\n        /* \"#utility.yul\":3649:3716   */\n      tag_72\n      jump\t// in\n    tag_132:\n        /* \"#utility.yul\":3642:3716   */\n      swap2\n      pop\n        /* \"#utility.yul\":3725:3818   */\n      tag_133\n        /* \"#utility.yul\":3814:3817   */\n      dup3\n        /* \"#utility.yul\":3725:3818   */\n      tag_73\n      jump\t// in\n    tag_133:\n        /* \"#utility.yul\":3843:3845   */\n      0x20\n        /* \"#utility.yul\":3838:3841   */\n      dup3\n        /* \"#utility.yul\":3834:3846   */\n      add\n        /* \"#utility.yul\":3827:3846   */\n      swap1\n      pop\n        /* \"#utility.yul\":3486:3852   */\n      swap2\n      swap1\n      pop\n      jump\t// out\n        /* \"#utility.yul\":3858:4277   */\n    tag_33:\n        /* \"#utility.yul\":4024:4028   */\n      0x00\n        /* \"#utility.yul\":4062:4064   */\n      0x20\n        /* \"#utility.yul\":4051:4060   */\n      dup3\n        /* \"#utility.yul\":4047:4065   */\n      add\n        /* \"#utility.yul\":4039:4065   */\n      swap1\n      pop\n        /* \"#utility.yul\":4111:4120   */\n      dup2\n        /* \"#utility.yul\":4105:4109   */\n      dup2\n        /* \"#utility.yul\":4101:4121   */\n      sub\n        /* \"#utility.yul\":4097:4098   */\n      0x00\n        /* \"#utility.yul\":4086:4095   */\n      dup4\n        /* \"#utility.yul\":4082:4099   */\n      add\n        /* \"#utility.yul\":4075:4122   */\n      mstore\n        /* \"#utility.yul\":4139:4270   */\n      tag_135\n        /* \"#utility.yul\":4265:4269   */\n      dup2\n        /* \"#utility.yul\":4139:4270   */\n      tag_74\n      jump\t// in\n    tag_135:\n        /* \"#utility.yul\":4131:4270   */\n      swap1\n      pop\n        /* \"#utility.yul\":3858:4277   */\n      swap2\n      swap1\n      pop\n      jump\t// out\n        /* \"#utility.yul\":4283:4463   */\n    tag_75:\n        /* \"#utility.yul\":4331:4408   */\n      0x4e487b7100000000000000000000000000000000000000000000000000000000\n        /* \"#utility.yul\":4328:4329   */\n      0x00\n        /* \"#utility.yul\":4321:4409   */\n      mstore\n        /* \"#utility.yul\":4428:4432   */\n      0x11\n        /* \"#utility.yul\":4425:4426   */\n      0x04\n        /* \"#utility.yul\":4418:4433   */\n      mstore\n        /* \"#utility.yul\":4452:4456   */\n      0x24\n        /* \"#utility.yul\":4449:4450   */\n      0x00\n        /* \"#utility.yul\":4442:4457   */\n      revert\n        /* \"#utility.yul\":4469:4660   */\n    tag_35:\n        /* \"#utility.yul\":4509:4512   */\n      0x00\n        /* \"#utility.yul\":4528:4548   */\n      tag_138\n        /* \"#utility.yul\":4546:4547   */\n      dup3\n        /* \"#utility.yul\":4528:4548   */\n      tag_63\n      jump\t// in\n    tag_138:\n        /* \"#utility.yul\":4523:4548   */\n      swap2\n      pop\n        /* \"#utility.yul\":4562:4582   */\n      tag_139\n        /* \"#utility.yul\":4580:4581   */\n      dup4\n        /* \"#utility.yul\":4562:4582   */\n      tag_63\n      jump\t// in\n    tag_139:\n        /* \"#utility.yul\":4557:4582   */\n      swap3\n      pop\n        /* \"#utility.yul\":4605:4606   */\n      dup3\n        /* \"#utility.yul\":4602:4603   */\n      dup3\n        /* \"#utility.yul\":4598:4607   */\n      add\n        /* \"#utility.yul\":4591:4607   */\n      swap1\n      pop\n        /* \"#utility.yul\":4626:4629   */\n      dup1\n        /* \"#utility.yul\":4623:4624   */\n      dup3\n        /* \"#utility.yul\":4620:4630   */\n      gt\n        /* \"#utility.yul\":4617:4653   */\n      iszero\n      tag_140\n      jumpi\n        /* \"#utility.yul\":4633:4651   */\n      tag_141\n      tag_75\n      jump\t// in\n    tag_141:\n        /* \"#utility.yul\":4617:4653   */\n    tag_140:\n        /* \"#utility.yul\":4469:4660   */\n      swap3\n      swap2\n      pop\n      pop\n      jump\t// out\n        /* \"#utility.yul\":4666:4847   */\n    tag_76:\n        /* \"#utility.yul\":4806:4839   */\n      0x596f7520646f6e27742068617665206d6f6e657920746f206c6f616420584400\n        /* \"#utility.yul\":4802:4803   */\n      0x00\n        /* \"#utility.yul\":4794:4800   */\n      dup3\n        /* \"#utility.yul\":4790:4804   */\n      add\n        /* \"#utility.yul\":4783:4840   */\n      mstore\n        /* \"#utility.yul\":4666:4847   */\n      pop\n      jump\t// out\n        /* \"#utility.yul\":4853:5219   */\n    tag_77:\n        /* \"#utility.yul\":4995:4998   */\n      0x00\n        /* \"#utility.yul\":5016:5083   */\n      tag_144\n        /* \"#utility.yul\":5080:5082   */\n      0x1f\n        /* \"#utility.yul\":5075:5078   */\n      dup4\n        /* \"#utility.yul\":5016:5083   */\n      tag_72\n      jump\t// in\n    tag_144:\n        /* \"#utility.yul\":5009:5083   */\n      swap2\n      pop\n        /* \"#utility.yul\":5092:5185   */\n      tag_145\n        /* \"#utility.yul\":5181:5184   */\n      dup3\n        /* \"#utility.yul\":5092:5185   */\n      tag_76\n      jump\t// in\n    tag_145:\n        /* \"#utility.yul\":5210:5212   */\n      0x20\n        /* \"#utility.yul\":5205:5208   */\n      dup3\n        /* \"#utility.yul\":5201:5213   */\n      add\n        /* \"#utility.yul\":5194:5213   */\n      swap1\n      pop\n        /* \"#utility.yul\":4853:5219   */\n      swap2\n      swap1\n      pop\n      jump\t// out\n        /* \"#utility.yul\":5225:5644   */\n    tag_39:\n        /* \"#utility.yul\":5391:5395   */\n      0x00\n        /* \"#utility.yul\":5429:5431   */\n      0x20\n        /* \"#utility.yul\":5418:5427   */\n      dup3\n        /* \"#utility.yul\":5414:5432   */\n      add\n        /* \"#utility.yul\":5406:5432   */\n      swap1\n      pop\n        /* \"#utility.yul\":5478:5487   */\n      dup2\n        /* \"#utility.yul\":5472:5476   */\n      dup2\n        /* \"#utility.yul\":5468:5488   */\n      sub\n        /* \"#utility.yul\":5464:5465   */\n      0x00\n        /* \"#utility.yul\":5453:5462   */\n      dup4\n        /* \"#utility.yul\":5449:5466   */\n      add\n        /* \"#utility.yul\":5442:5489   */\n      mstore\n        /* \"#utility.yul\":5506:5637   */\n      tag_147\n        /* \"#utility.yul\":5632:5636   */\n      dup2\n        /* \"#utility.yul\":5506:5637   */\n      tag_77\n      jump\t// in\n    tag_147:\n        /* \"#utility.yul\":5498:5637   */\n      swap1\n      pop\n        /* \"#utility.yul\":5225:5644   */\n      swap2\n      swap1\n      pop\n      jump\t// out\n        /* \"#utility.yul\":5650:5793   */\n    tag_78:\n        /* \"#utility.yul\":5707:5712   */\n      0x00\n        /* \"#utility.yul\":5738:5744   */\n      dup2\n        /* \"#utility.yul\":5732:5745   */\n      mload\n        /* \"#utility.yul\":5723:5745   */\n      swap1\n      pop\n        /* \"#utility.yul\":5754:5787   */\n      tag_149\n        /* \"#utility.yul\":5781:5786   */\n      dup2\n        /* \"#utility.yul\":5754:5787   */\n      tag_70\n      jump\t// in\n    tag_149:\n        /* \"#utility.yul\":5650:5793   */\n      swap3\n      swap2\n      pop\n      pop\n      jump\t// out\n        /* \"#utility.yul\":5799:6150   */\n    tag_44:\n        /* \"#utility.yul\":5869:5875   */\n      0x00\n        /* \"#utility.yul\":5918:5920   */\n      0x20\n        /* \"#utility.yul\":5906:5915   */\n      dup3\n        /* \"#utility.yul\":5897:5904   */\n      dup5\n        /* \"#utility.yul\":5893:5916   */\n      sub\n        /* \"#utility.yul\":5889:5921   */\n      slt\n        /* \"#utility.yul\":5886:6005   */\n      iszero\n      tag_151\n      jumpi\n        /* \"#utility.yul\":5924:6003   */\n      tag_152\n      tag_57\n      jump\t// in\n    tag_152:\n        /* \"#utility.yul\":5886:6005   */\n    tag_151:\n        /* \"#utility.yul\":6044:6045   */\n      0x00\n        /* \"#utility.yul\":6069:6133   */\n      tag_153\n        /* \"#utility.yul\":6125:6132   */\n      dup5\n        /* \"#utility.yul\":6116:6122   */\n      dup3\n        /* \"#utility.yul\":6105:6114   */\n      dup6\n        /* \"#utility.yul\":6101:6123   */\n      add\n        /* \"#utility.yul\":6069:6133   */\n      tag_78\n      jump\t// in\n    tag_153:\n        /* \"#utility.yul\":6059:6133   */\n      swap2\n      pop\n        /* \"#utility.yul\":6015:6143   */\n      pop\n        /* \"#utility.yul\":5799:6150   */\n      swap3\n      swap2\n      pop\n      pop\n      jump\t// out\n        /* \"#utility.yul\":6156:6321   */\n    tag_79:\n        /* \"#utility.yul\":6296:6313   */\n      0x496e76616c696420636170746368610000000000000000000000000000000000\n        /* \"#utility.yul\":6292:6293   */\n      0x00\n        /* \"#utility.yul\":6284:6290   */\n      dup3\n        /* \"#utility.yul\":6280:6294   */\n      add\n        /* \"#utility.yul\":6273:6314   */\n      mstore\n        /* \"#utility.yul\":6156:6321   */\n      pop\n      jump\t// out\n        /* \"#utility.yul\":6327:6693   */\n    tag_80:\n        /* \"#utility.yul\":6469:6472   */\n      0x00\n        /* \"#utility.yul\":6490:6557   */\n      tag_156\n        /* \"#utility.yul\":6554:6556   */\n      0x0f\n        /* \"#utility.yul\":6549:6552   */\n      dup4\n        /* \"#utility.yul\":6490:6557   */\n      tag_72\n      jump\t// in\n    tag_156:\n        /* \"#utility.yul\":6483:6557   */\n      swap2\n      pop\n        /* \"#utility.yul\":6566:6659   */\n      tag_157\n        /* \"#utility.yul\":6655:6658   */\n      dup3\n        /* \"#utility.yul\":6566:6659   */\n      tag_79\n      jump\t// in\n    tag_157:\n        /* \"#utility.yul\":6684:6686   */\n      0x20\n        /* \"#utility.yul\":6679:6682   */\n      dup3\n        /* \"#utility.yul\":6675:6687   */\n      add\n        /* \"#utility.yul\":6668:6687   */\n      swap1\n      pop\n        /* \"#utility.yul\":6327:6693   */\n      swap2\n      swap1\n      pop\n      jump\t// out\n        /* \"#utility.yul\":6699:7118   */\n    tag_47:\n        /* \"#utility.yul\":6865:6869   */\n      0x00\n        /* \"#utility.yul\":6903:6905   */\n      0x20\n        /* \"#utility.yul\":6892:6901   */\n      dup3\n        /* \"#utility.yul\":6888:6906   */\n      add\n        /* \"#utility.yul\":6880:6906   */\n      swap1\n      pop\n        /* \"#utility.yul\":6952:6961   */\n      dup2\n        /* \"#utility.yul\":6946:6950   */\n      dup2\n        /* \"#utility.yul\":6942:6962   */\n      sub\n        /* \"#utility.yul\":6938:6939   */\n      0x00\n        /* \"#utility.yul\":6927:6936   */\n      dup4\n        /* \"#utility.yul\":6923:6940   */\n      add\n        /* \"#utility.yul\":6916:6963   */\n      mstore\n        /* \"#utility.yul\":6980:7111   */\n      tag_159\n        /* \"#utility.yul\":7106:7110   */\n      dup2\n        /* \"#utility.yul\":6980:7111   */\n      tag_80\n      jump\t// in\n    tag_159:\n        /* \"#utility.yul\":6972:7111   */\n      swap1\n      pop\n        /* \"#utility.yul\":6699:7118   */\n      swap2\n      swap1\n      pop\n      jump\t// out\n        /* \"#utility.yul\":7124:7271   */\n    tag_81:\n        /* \"#utility.yul\":7225:7236   */\n      0x00\n        /* \"#utility.yul\":7262:7265   */\n      dup2\n        /* \"#utility.yul\":7247:7265   */\n      swap1\n      pop\n        /* \"#utility.yul\":7124:7271   */\n      swap3\n      swap2\n      pop\n      pop\n      jump\t// out\n        /* \"#utility.yul\":7277:7391   */\n    tag_82:\n      pop\n      jump\t// out\n        /* \"#utility.yul\":7397:7795   */\n    tag_83:\n        /* \"#utility.yul\":7556:7559   */\n      0x00\n        /* \"#utility.yul\":7577:7660   */\n      tag_163\n        /* \"#utility.yul\":7658:7659   */\n      0x00\n        /* \"#utility.yul\":7653:7656   */\n      dup4\n        /* \"#utility.yul\":7577:7660   */\n      tag_81\n      jump\t// in\n    tag_163:\n        /* \"#utility.yul\":7570:7660   */\n      swap2\n      pop\n        /* \"#utility.yul\":7669:7762   */\n      tag_164\n        /* \"#utility.yul\":7758:7761   */\n      dup3\n        /* \"#utility.yul\":7669:7762   */\n      tag_82\n      jump\t// in\n    tag_164:\n        /* \"#utility.yul\":7787:7788   */\n      0x00\n        /* \"#utility.yul\":7782:7785   */\n      dup3\n        /* \"#utility.yul\":7778:7789   */\n      add\n        /* \"#utility.yul\":7771:7789   */\n      swap1\n      pop\n        /* \"#utility.yul\":7397:7795   */\n      swap2\n      swap1\n      pop\n      jump\t// out\n        /* \"#utility.yul\":7801:8180   */\n    tag_49:\n        /* \"#utility.yul\":7985:7988   */\n      0x00\n        /* \"#utility.yul\":8007:8154   */\n      tag_166\n        /* \"#utility.yul\":8150:8153   */\n      dup3\n        /* \"#utility.yul\":8007:8154   */\n      tag_83\n      jump\t// in\n    tag_166:\n        /* \"#utility.yul\":8000:8154   */\n      swap2\n      pop\n        /* \"#utility.yul\":8171:8174   */\n      dup2\n        /* \"#utility.yul\":8164:8174   */\n      swap1\n      pop\n        /* \"#utility.yul\":7801:8180   */\n      swap2\n      swap1\n      pop\n      jump\t// out\n        /* \"#utility.yul\":8186:8361   */\n    tag_84:\n        /* \"#utility.yul\":8326:8353   */\n      0x4f68206d7920676f642c20776861742069732074686174213f00000000000000\n        /* \"#utility.yul\":8322:8323   */\n      0x00\n        /* \"#utility.yul\":8314:8320   */\n      dup3\n        /* \"#utility.yul\":8310:8324   */\n      add\n        /* \"#utility.yul\":8303:8354   */\n      mstore\n        /* \"#utility.yul\":8186:8361   */\n      pop\n      jump\t// out\n        /* \"#utility.yul\":8367:8733   */\n    tag_85:\n        /* \"#utility.yul\":8509:8512   */\n      0x00\n        /* \"#utility.yul\":8530:8597   */\n      tag_169\n        /* \"#utility.yul\":8594:8596   */\n      0x19\n        /* \"#utility.yul\":8589:8592   */\n      dup4\n        /* \"#utility.yul\":8530:8597   */\n      tag_72\n      jump\t// in\n    tag_169:\n        /* \"#utility.yul\":8523:8597   */\n      swap2\n      pop\n        /* \"#utility.yul\":8606:8699   */\n      tag_170\n        /* \"#utility.yul\":8695:8698   */\n      dup3\n        /* \"#utility.yul\":8606:8699   */\n      tag_84\n      jump\t// in\n    tag_170:\n        /* \"#utility.yul\":8724:8726   */\n      0x20\n        /* \"#utility.yul\":8719:8722   */\n      dup3\n        /* \"#utility.yul\":8715:8727   */\n      add\n        /* \"#utility.yul\":8708:8727   */\n      swap1\n      pop\n        /* \"#utility.yul\":8367:8733   */\n      swap2\n      swap1\n      pop\n      jump\t// out\n        /* \"#utility.yul\":8739:9158   */\n    tag_55:\n        /* \"#utility.yul\":8905:8909   */\n      0x00\n        /* \"#utility.yul\":8943:8945   */\n      0x20\n        /* \"#utility.yul\":8932:8941   */\n      dup3\n        /* \"#utility.yul\":8928:8946   */\n      add\n        /* \"#utility.yul\":8920:8946   */\n      swap1\n      pop\n        /* \"#utility.yul\":8992:9001   */\n      dup2\n        /* \"#utility.yul\":8986:8990   */\n      dup2\n        /* \"#utility.yul\":8982:9002   */\n      sub\n        /* \"#utility.yul\":8978:8979   */\n      0x00\n        /* \"#utility.yul\":8967:8976   */\n      dup4\n        /* \"#utility.yul\":8963:8980   */\n      add\n        /* \"#utility.yul\":8956:9003   */\n      mstore\n        /* \"#utility.yul\":9020:9151   */\n      tag_172\n        /* \"#utility.yul\":9146:9150   */\n      dup2\n        /* \"#utility.yul\":9020:9151   */\n      tag_85\n      jump\t// in\n    tag_172:\n        /* \"#utility.yul\":9012:9151   */\n      swap1\n      pop\n        /* \"#utility.yul\":8739:9158   */\n      swap2\n      swap1\n      pop\n      jump\t// out\n\n    auxdata: 0xa2646970667358221220e05a870fa9584dffc4df5b7ec74b98edcff15c7a3b9cc6e13f51decefd34debc64736f6c634300081a0033\n}\n",
				"bytecode": {
					"linkReferences": {},
					"object": "60a060405234801561000f575f80fd5b506040516109f63803806109f6833981810160405281019061003191906100f1565b8060015f6101000a81548173ffffffffffffffffffffffffffffffffffffffff021916908373ffffffffffffffffffffffffffffffffffffffff16021790555044405f1c608081815250505061011c565b5f80fd5b5f73ffffffffffffffffffffffffffffffffffffffff82169050919050565b5f6100af82610086565b9050919050565b5f6100c0826100a5565b9050919050565b6100d0816100b6565b81146100da575f80fd5b50565b5f815190506100eb816100c7565b92915050565b5f6020828403121561010657610105610082565b5b5f610113848285016100dd565b91505092915050565b6080516108bb61013b5f395f81816102a0015261045001526108bb5ff3fe608060405260043610610049575f3560e01c806327e235e31461004d57806342dad49e1461008957806394f41a881461009357806399d548aa146100bd578063d1efd30d146100e5575b5f80fd5b348015610058575f80fd5b50610073600480360381019061006e91906104d0565b61010f565b6040516100809190610513565b60405180910390f35b610091610123565b005b34801561009e575f80fd5b506100a76101b9565b6040516100b49190610587565b60405180910390f35b3480156100c8575f80fd5b506100e360048036038101906100de91906105ca565b6101de565b005b3480156100f0575f80fd5b506100f961044e565b6040516101069190610513565b60405180910390f35b5f602052805f5260405f205f915090505481565b5f3411610165576040517f08c379a000000000000000000000000000000000000000000000000000000000815260040161015c9061064f565b60405180910390fd5b345f803373ffffffffffffffffffffffffffffffffffffffff1673ffffffffffffffffffffffffffffffffffffffff1681526020019081526020015f205f8282546101b0919061069a565b92505081905550565b60015f9054906101000a900473ffffffffffffffffffffffffffffffffffffffff1681565b5f805f3373ffffffffffffffffffffffffffffffffffffffff1673ffffffffffffffffffffffffffffffffffffffff1681526020019081526020015f205490505f8111610260576040517f08c379a000000000000000000000000000000000000000000000000000000000815260040161025790610717565b60405180910390fd5b5f60015f9054906101000a900473ffffffffffffffffffffffffffffffffffffffff1673ffffffffffffffffffffffffffffffffffffffff1663b9db1b197f00000000000000000000000000000000000000000000000000000000000000006040518263ffffffff1660e01b81526004016102db9190610513565b6020604051808303815f875af11580156102f7573d5f803e3d5ffd5b505050506040513d601f19601f8201168201806040525081019061031b9190610749565b905080831461035f576040517f08c379a0000000000000000000000000000000000000000000000000000000008152600401610356906107be565b60405180910390fd5b5f3373ffffffffffffffffffffffffffffffffffffffff168360405161038490610809565b5f6040518083038185875af1925050503d805f81146103be576040519150601f19603f3d011682016040523d82523d5f602084013e6103c3565b606091505b5050905080610407576040517f08c379a00000000000000000000000000000000000000000000000000000000081526004016103fe90610867565b60405180910390fd5b5f805f3373ffffffffffffffffffffffffffffffffffffffff1673ffffffffffffffffffffffffffffffffffffffff1681526020019081526020015f208190555050505050565b7f000000000000000000000000000000000000000000000000000000000000000081565b5f80fd5b5f73ffffffffffffffffffffffffffffffffffffffff82169050919050565b5f61049f82610476565b9050919050565b6104af81610495565b81146104b9575f80fd5b50565b5f813590506104ca816104a6565b92915050565b5f602082840312156104e5576104e4610472565b5b5f6104f2848285016104bc565b91505092915050565b5f819050919050565b61050d816104fb565b82525050565b5f6020820190506105265f830184610504565b92915050565b5f819050919050565b5f61054f61054a61054584610476565b61052c565b610476565b9050919050565b5f61056082610535565b9050919050565b5f61057182610556565b9050919050565b61058181610567565b82525050565b5f60208201905061059a5f830184610578565b92915050565b6105a9816104fb565b81146105b3575f80fd5b50565b5f813590506105c4816105a0565b92915050565b5f602082840312156105df576105de610472565b5b5f6105ec848285016105b6565b91505092915050565b5f82825260208201905092915050565b7f596f7520646f6e27742068617665206d6f6e65792058500000000000000000005f82015250565b5f6106396017836105f5565b915061064482610605565b602082019050919050565b5f6020820190508181035f8301526106668161062d565b9050919050565b7f4e487b71000000000000000000000000000000000000000000000000000000005f52601160045260245ffd5b5f6106a4826104fb565b91506106af836104fb565b92508282019050808211156106c7576106c661066d565b5b92915050565b7f596f7520646f6e27742068617665206d6f6e657920746f206c6f6164205844005f82015250565b5f610701601f836105f5565b915061070c826106cd565b602082019050919050565b5f6020820190508181035f83015261072e816106f5565b9050919050565b5f81519050610743816105a0565b92915050565b5f6020828403121561075e5761075d610472565b5b5f61076b84828501610735565b91505092915050565b7f496e76616c6964206361707463686100000000000000000000000000000000005f82015250565b5f6107a8600f836105f5565b91506107b382610774565b602082019050919050565b5f6020820190508181035f8301526107d58161079c565b9050919050565b5f81905092915050565b50565b5f6107f45f836107dc565b91506107ff826107e6565b5f82019050919050565b5f610813826107e9565b9150819050919050565b7f4f68206d7920676f642c20776861742069732074686174213f000000000000005f82015250565b5f6108516019836105f5565b915061085c8261081d565b602082019050919050565b5f6020820190508181035f83015261087e81610845565b905091905056fea2646970667358221220e05a870fa9584dffc4df5b7ec74b98edcff15c7a3b9cc6e13f51decefd34debc64736f6c634300081a0033",
					"opcodes": "PUSH1 0xA0 PUSH1 0x40 MSTORE CALLVALUE DUP1 ISZERO PUSH2 0xF JUMPI PUSH0 DUP1 REVERT JUMPDEST POP PUSH1 0x40 MLOAD PUSH2 0x9F6 CODESIZE SUB DUP1 PUSH2 0x9F6 DUP4 CODECOPY DUP2 DUP2 ADD PUSH1 0x40 MSTORE DUP2 ADD SWAP1 PUSH2 0x31 SWAP2 SWAP1 PUSH2 0xF1 JUMP JUMPDEST DUP1 PUSH1 0x1 PUSH0 PUSH2 0x100 EXP DUP2 SLOAD DUP2 PUSH20 0xFFFFFFFFFFFFFFFFFFFFFFFFFFFFFFFFFFFFFFFF MUL NOT AND SWAP1 DUP4 PUSH20 0xFFFFFFFFFFFFFFFFFFFFFFFFFFFFFFFFFFFFFFFF AND MUL OR SWAP1 SSTORE POP PREVRANDAO BLOCKHASH PUSH0 SHR PUSH1 0x80 DUP2 DUP2 MSTORE POP POP POP PUSH2 0x11C JUMP JUMPDEST PUSH0 DUP1 REVERT JUMPDEST PUSH0 PUSH20 0xFFFFFFFFFFFFFFFFFFFFFFFFFFFFFFFFFFFFFFFF DUP3 AND SWAP1 POP SWAP2 SWAP1 POP JUMP JUMPDEST PUSH0 PUSH2 0xAF DUP3 PUSH2 0x86 JUMP JUMPDEST SWAP1 POP SWAP2 SWAP1 POP JUMP JUMPDEST PUSH0 PUSH2 0xC0 DUP3 PUSH2 0xA5 JUMP JUMPDEST SWAP1 POP SWAP2 SWAP1 POP JUMP JUMPDEST PUSH2 0xD0 DUP2 PUSH2 0xB6 JUMP JUMPDEST DUP2 EQ PUSH2 0xDA JUMPI PUSH0 DUP1 REVERT JUMPDEST POP JUMP JUMPDEST PUSH0 DUP2 MLOAD SWAP1 POP PUSH2 0xEB DUP2 PUSH2 0xC7 JUMP JUMPDEST SWAP3 SWAP2 POP POP JUMP JUMPDEST PUSH0 PUSH1 0x20 DUP3 DUP5 SUB SLT ISZERO PUSH2 0x106 JUMPI PUSH2 0x105 PUSH2 0x82 JUMP JUMPDEST JUMPDEST PUSH0 PUSH2 0x113 DUP5 DUP3 DUP6 ADD PUSH2 0xDD JUMP JUMPDEST SWAP2 POP POP SWAP3 SWAP2 POP POP JUMP JUMPDEST PUSH1 0x80 MLOAD PUSH2 0x8BB PUSH2 0x13B PUSH0 CODECOPY PUSH0 DUP2 DUP2 PUSH2 0x2A0 ADD MSTORE PUSH2 0x450 ADD MSTORE PUSH2 0x8BB PUSH0 RETURN INVALID PUSH1 0x80 PUSH1 0x40 MSTORE PUSH1 0x4 CALLDATASIZE LT PUSH2 0x49 JUMPI PUSH0 CALLDATALOAD PUSH1 0xE0 SHR DUP1 PUSH4 0x27E235E3 EQ PUSH2 0x4D JUMPI DUP1 PUSH4 0x42DAD49E EQ PUSH2 0x89 JUMPI DUP1 PUSH4 0x94F41A88 EQ PUSH2 0x93 JUMPI DUP1 PUSH4 0x99D548AA EQ PUSH2 0xBD JUMPI DUP1 PUSH4 0xD1EFD30D EQ PUSH2 0xE5 JUMPI JUMPDEST PUSH0 DUP1 REVERT JUMPDEST CALLVALUE DUP1 ISZERO PUSH2 0x58 JUMPI PUSH0 DUP1 REVERT JUMPDEST POP PUSH2 0x73 PUSH1 0x4 DUP1 CALLDATASIZE SUB DUP2 ADD SWAP1 PUSH2 0x6E SWAP2 SWAP1 PUSH2 0x4D0 JUMP JUMPDEST PUSH2 0x10F JUMP JUMPDEST PUSH1 0x40 MLOAD PUSH2 0x80 SWAP2 SWAP1 PUSH2 0x513 JUMP JUMPDEST PUSH1 0x40 MLOAD DUP1 SWAP2 SUB SWAP1 RETURN JUMPDEST PUSH2 0x91 PUSH2 0x123 JUMP JUMPDEST STOP JUMPDEST CALLVALUE DUP1 ISZERO PUSH2 0x9E JUMPI PUSH0 DUP1 REVERT JUMPDEST POP PUSH2 0xA7 PUSH2 0x1B9 JUMP JUMPDEST PUSH1 0x40 MLOAD PUSH2 0xB4 SWAP2 SWAP1 PUSH2 0x587 JUMP JUMPDEST PUSH1 0x40 MLOAD DUP1 SWAP2 SUB SWAP1 RETURN JUMPDEST CALLVALUE DUP1 ISZERO PUSH2 0xC8 JUMPI PUSH0 DUP1 REVERT JUMPDEST POP PUSH2 0xE3 PUSH1 0x4 DUP1 CALLDATASIZE SUB DUP2 ADD SWAP1 PUSH2 0xDE SWAP2 SWAP1 PUSH2 0x5CA JUMP JUMPDEST PUSH2 0x1DE JUMP JUMPDEST STOP JUMPDEST CALLVALUE DUP1 ISZERO PUSH2 0xF0 JUMPI PUSH0 DUP1 REVERT JUMPDEST POP PUSH2 0xF9 PUSH2 0x44E JUMP JUMPDEST PUSH1 0x40 MLOAD PUSH2 0x106 SWAP2 SWAP1 PUSH2 0x513 JUMP JUMPDEST PUSH1 0x40 MLOAD DUP1 SWAP2 SUB SWAP1 RETURN JUMPDEST PUSH0 PUSH1 0x20 MSTORE DUP1 PUSH0 MSTORE PUSH1 0x40 PUSH0 KECCAK256 PUSH0 SWAP2 POP SWAP1 POP SLOAD DUP2 JUMP JUMPDEST PUSH0 CALLVALUE GT PUSH2 0x165 JUMPI PUSH1 0x40 MLOAD PUSH32 0x8C379A000000000000000000000000000000000000000000000000000000000 DUP2 MSTORE PUSH1 0x4 ADD PUSH2 0x15C SWAP1 PUSH2 0x64F JUMP JUMPDEST PUSH1 0x40 MLOAD DUP1 SWAP2 SUB SWAP1 REVERT JUMPDEST CALLVALUE PUSH0 DUP1 CALLER PUSH20 0xFFFFFFFFFFFFFFFFFFFFFFFFFFFFFFFFFFFFFFFF AND PUSH20 0xFFFFFFFFFFFFFFFFFFFFFFFFFFFFFFFFFFFFFFFF AND DUP2 MSTORE PUSH1 0x20 ADD SWAP1 DUP2 MSTORE PUSH1 0x20 ADD PUSH0 KECCAK256 PUSH0 DUP3 DUP3 SLOAD PUSH2 0x1B0 SWAP2 SWAP1 PUSH2 0x69A JUMP JUMPDEST SWAP3 POP POP DUP2 SWAP1 SSTORE POP JUMP JUMPDEST PUSH1 0x1 PUSH0 SWAP1 SLOAD SWAP1 PUSH2 0x100 EXP SWAP1 DIV PUSH20 0xFFFFFFFFFFFFFFFFFFFFFFFFFFFFFFFFFFFFFFFF AND DUP2 JUMP JUMPDEST PUSH0 DUP1 PUSH0 CALLER PUSH20 0xFFFFFFFFFFFFFFFFFFFFFFFFFFFFFFFFFFFFFFFF AND PUSH20 0xFFFFFFFFFFFFFFFFFFFFFFFFFFFFFFFFFFFFFFFF AND DUP2 MSTORE PUSH1 0x20 ADD SWAP1 DUP2 MSTORE PUSH1 0x20 ADD PUSH0 KECCAK256 SLOAD SWAP1 POP PUSH0 DUP2 GT PUSH2 0x260 JUMPI PUSH1 0x40 MLOAD PUSH32 0x8C379A000000000000000000000000000000000000000000000000000000000 DUP2 MSTORE PUSH1 0x4 ADD PUSH2 0x257 SWAP1 PUSH2 0x717 JUMP JUMPDEST PUSH1 0x40 MLOAD DUP1 SWAP2 SUB SWAP1 REVERT JUMPDEST PUSH0 PUSH1 0x1 PUSH0 SWAP1 SLOAD SWAP1 PUSH2 0x100 EXP SWAP1 DIV PUSH20 0xFFFFFFFFFFFFFFFFFFFFFFFFFFFFFFFFFFFFFFFF AND PUSH20 0xFFFFFFFFFFFFFFFFFFFFFFFFFFFFFFFFFFFFFFFF AND PUSH4 0xB9DB1B19 PUSH32 0x0 PUSH1 0x40 MLOAD DUP3 PUSH4 0xFFFFFFFF AND PUSH1 0xE0 SHL DUP2 MSTORE PUSH1 0x4 ADD PUSH2 0x2DB SWAP2 SWAP1 PUSH2 0x513 JUMP JUMPDEST PUSH1 0x20 PUSH1 0x40 MLOAD DUP1 DUP4 SUB DUP2 PUSH0 DUP8 GAS CALL ISZERO DUP1 ISZERO PUSH2 0x2F7 JUMPI RETURNDATASIZE PUSH0 DUP1 RETURNDATACOPY RETURNDATASIZE PUSH0 REVERT JUMPDEST POP POP POP POP PUSH1 0x40 MLOAD RETURNDATASIZE PUSH1 0x1F NOT PUSH1 0x1F DUP3 ADD AND DUP3 ADD DUP1 PUSH1 0x40 MSTORE POP DUP2 ADD SWAP1 PUSH2 0x31B SWAP2 SWAP1 PUSH2 0x749 JUMP JUMPDEST SWAP1 POP DUP1 DUP4 EQ PUSH2 0x35F JUMPI PUSH1 0x40 MLOAD PUSH32 0x8C379A000000000000000000000000000000000000000000000000000000000 DUP2 MSTORE PUSH1 0x4 ADD PUSH2 0x356 SWAP1 PUSH2 0x7BE JUMP JUMPDEST PUSH1 0x40 MLOAD DUP1 SWAP2 SUB SWAP1 REVERT JUMPDEST PUSH0 CALLER PUSH20 0xFFFFFFFFFFFFFFFFFFFFFFFFFFFFFFFFFFFFFFFF AND DUP4 PUSH1 0x40 MLOAD PUSH2 0x384 SWAP1 PUSH2 0x809 JUMP JUMPDEST PUSH0 PUSH1 0x40 MLOAD DUP1 DUP4 SUB DUP2 DUP6 DUP8 GAS CALL SWAP3 POP POP POP RETURNDATASIZE DUP1 PUSH0 DUP2 EQ PUSH2 0x3BE JUMPI PUSH1 0x40 MLOAD SWAP2 POP PUSH1 0x1F NOT PUSH1 0x3F RETURNDATASIZE ADD AND DUP3 ADD PUSH1 0x40 MSTORE RETURNDATASIZE DUP3 MSTORE RETURNDATASIZE PUSH0 PUSH1 0x20 DUP5 ADD RETURNDATACOPY PUSH2 0x3C3 JUMP JUMPDEST PUSH1 0x60 SWAP2 POP JUMPDEST POP POP SWAP1 POP DUP1 PUSH2 0x407 JUMPI PUSH1 0x40 MLOAD PUSH32 0x8C379A000000000000000000000000000000000000000000000000000000000 DUP2 MSTORE PUSH1 0x4 ADD PUSH2 0x3FE SWAP1 PUSH2 0x867 JUMP JUMPDEST PUSH1 0x40 MLOAD DUP1 SWAP2 SUB SWAP1 REVERT JUMPDEST PUSH0 DUP1 PUSH0 CALLER PUSH20 0xFFFFFFFFFFFFFFFFFFFFFFFFFFFFFFFFFFFFFFFF AND PUSH20 0xFFFFFFFFFFFFFFFFFFFFFFFFFFFFFFFFFFFFFFFF AND DUP2 MSTORE PUSH1 0x20 ADD SWAP1 DUP2 MSTORE PUSH1 0x20 ADD PUSH0 KECCAK256 DUP2 SWAP1 SSTORE POP POP POP POP POP JUMP JUMPDEST PUSH32 0x0 DUP2 JUMP JUMPDEST PUSH0 DUP1 REVERT JUMPDEST PUSH0 PUSH20 0xFFFFFFFFFFFFFFFFFFFFFFFFFFFFFFFFFFFFFFFF DUP3 AND SWAP1 POP SWAP2 SWAP1 POP JUMP JUMPDEST PUSH0 PUSH2 0x49F DUP3 PUSH2 0x476 JUMP JUMPDEST SWAP1 POP SWAP2 SWAP1 POP JUMP JUMPDEST PUSH2 0x4AF DUP2 PUSH2 0x495 JUMP JUMPDEST DUP2 EQ PUSH2 0x4B9 JUMPI PUSH0 DUP1 REVERT JUMPDEST POP JUMP JUMPDEST PUSH0 DUP2 CALLDATALOAD SWAP1 POP PUSH2 0x4CA DUP2 PUSH2 0x4A6 JUMP JUMPDEST SWAP3 SWAP2 POP POP JUMP JUMPDEST PUSH0 PUSH1 0x20 DUP3 DUP5 SUB SLT ISZERO PUSH2 0x4E5 JUMPI PUSH2 0x4E4 PUSH2 0x472 JUMP JUMPDEST JUMPDEST PUSH0 PUSH2 0x4F2 DUP5 DUP3 DUP6 ADD PUSH2 0x4BC JUMP JUMPDEST SWAP2 POP POP SWAP3 SWAP2 POP POP JUMP JUMPDEST PUSH0 DUP2 SWAP1 POP SWAP2 SWAP1 POP JUMP JUMPDEST PUSH2 0x50D DUP2 PUSH2 0x4FB JUMP JUMPDEST DUP3 MSTORE POP POP JUMP JUMPDEST PUSH0 PUSH1 0x20 DUP3 ADD SWAP1 POP PUSH2 0x526 PUSH0 DUP4 ADD DUP5 PUSH2 0x504 JUMP JUMPDEST SWAP3 SWAP2 POP POP JUMP JUMPDEST PUSH0 DUP2 SWAP1 POP SWAP2 SWAP1 POP JUMP JUMPDEST PUSH0 PUSH2 0x54F PUSH2 0x54A PUSH2 0x545 DUP5 PUSH2 0x476 JUMP JUMPDEST PUSH2 0x52C JUMP JUMPDEST PUSH2 0x476 JUMP JUMPDEST SWAP1 POP SWAP2 SWAP1 POP JUMP JUMPDEST PUSH0 PUSH2 0x560 DUP3 PUSH2 0x535 JUMP JUMPDEST SWAP1 POP SWAP2 SWAP1 POP JUMP JUMPDEST PUSH0 PUSH2 0x571 DUP3 PUSH2 0x556 JUMP JUMPDEST SWAP1 POP SWAP2 SWAP1 POP JUMP JUMPDEST PUSH2 0x581 DUP2 PUSH2 0x567 JUMP JUMPDEST DUP3 MSTORE POP POP JUMP JUMPDEST PUSH0 PUSH1 0x20 DUP3 ADD SWAP1 POP PUSH2 0x59A PUSH0 DUP4 ADD DUP5 PUSH2 0x578 JUMP JUMPDEST SWAP3 SWAP2 POP POP JUMP JUMPDEST PUSH2 0x5A9 DUP2 PUSH2 0x4FB JUMP JUMPDEST DUP2 EQ PUSH2 0x5B3 JUMPI PUSH0 DUP1 REVERT JUMPDEST POP JUMP JUMPDEST PUSH0 DUP2 CALLDATALOAD SWAP1 POP PUSH2 0x5C4 DUP2 PUSH2 0x5A0 JUMP JUMPDEST SWAP3 SWAP2 POP POP JUMP JUMPDEST PUSH0 PUSH1 0x20 DUP3 DUP5 SUB SLT ISZERO PUSH2 0x5DF JUMPI PUSH2 0x5DE PUSH2 0x472 JUMP JUMPDEST JUMPDEST PUSH0 PUSH2 0x5EC DUP5 DUP3 DUP6 ADD PUSH2 0x5B6 JUMP JUMPDEST SWAP2 POP POP SWAP3 SWAP2 POP POP JUMP JUMPDEST PUSH0 DUP3 DUP3 MSTORE PUSH1 0x20 DUP3 ADD SWAP1 POP SWAP3 SWAP2 POP POP JUMP JUMPDEST PUSH32 0x596F7520646F6E27742068617665206D6F6E6579205850000000000000000000 PUSH0 DUP3 ADD MSTORE POP JUMP JUMPDEST PUSH0 PUSH2 0x639 PUSH1 0x17 DUP4 PUSH2 0x5F5 JUMP JUMPDEST SWAP2 POP PUSH2 0x644 DUP3 PUSH2 0x605 JUMP JUMPDEST PUSH1 0x20 DUP3 ADD SWAP1 POP SWAP2 SWAP1 POP JUMP JUMPDEST PUSH0 PUSH1 0x20 DUP3 ADD SWAP1 POP DUP2 DUP2 SUB PUSH0 DUP4 ADD MSTORE PUSH2 0x666 DUP2 PUSH2 0x62D JUMP JUMPDEST SWAP1 POP SWAP2 SWAP1 POP JUMP JUMPDEST PUSH32 0x4E487B7100000000000000000000000000000000000000000000000000000000 PUSH0 MSTORE PUSH1 0x11 PUSH1 0x4 MSTORE PUSH1 0x24 PUSH0 REVERT JUMPDEST PUSH0 PUSH2 0x6A4 DUP3 PUSH2 0x4FB JUMP JUMPDEST SWAP2 POP PUSH2 0x6AF DUP4 PUSH2 0x4FB JUMP JUMPDEST SWAP3 POP DUP3 DUP3 ADD SWAP1 POP DUP1 DUP3 GT ISZERO PUSH2 0x6C7 JUMPI PUSH2 0x6C6 PUSH2 0x66D JUMP JUMPDEST JUMPDEST SWAP3 SWAP2 POP POP JUMP JUMPDEST PUSH32 0x596F7520646F6E27742068617665206D6F6E657920746F206C6F616420584400 PUSH0 DUP3 ADD MSTORE POP JUMP JUMPDEST PUSH0 PUSH2 0x701 PUSH1 0x1F DUP4 PUSH2 0x5F5 JUMP JUMPDEST SWAP2 POP PUSH2 0x70C DUP3 PUSH2 0x6CD JUMP JUMPDEST PUSH1 0x20 DUP3 ADD SWAP1 POP SWAP2 SWAP1 POP JUMP JUMPDEST PUSH0 PUSH1 0x20 DUP3 ADD SWAP1 POP DUP2 DUP2 SUB PUSH0 DUP4 ADD MSTORE PUSH2 0x72E DUP2 PUSH2 0x6F5 JUMP JUMPDEST SWAP1 POP SWAP2 SWAP1 POP JUMP JUMPDEST PUSH0 DUP2 MLOAD SWAP1 POP PUSH2 0x743 DUP2 PUSH2 0x5A0 JUMP JUMPDEST SWAP3 SWAP2 POP POP JUMP JUMPDEST PUSH0 PUSH1 0x20 DUP3 DUP5 SUB SLT ISZERO PUSH2 0x75E JUMPI PUSH2 0x75D PUSH2 0x472 JUMP JUMPDEST JUMPDEST PUSH0 PUSH2 0x76B DUP5 DUP3 DUP6 ADD PUSH2 0x735 JUMP JUMPDEST SWAP2 POP POP SWAP3 SWAP2 POP POP JUMP JUMPDEST PUSH32 0x496E76616C696420636170746368610000000000000000000000000000000000 PUSH0 DUP3 ADD MSTORE POP JUMP JUMPDEST PUSH0 PUSH2 0x7A8 PUSH1 0xF DUP4 PUSH2 0x5F5 JUMP JUMPDEST SWAP2 POP PUSH2 0x7B3 DUP3 PUSH2 0x774 JUMP JUMPDEST PUSH1 0x20 DUP3 ADD SWAP1 POP SWAP2 SWAP1 POP JUMP JUMPDEST PUSH0 PUSH1 0x20 DUP3 ADD SWAP1 POP DUP2 DUP2 SUB PUSH0 DUP4 ADD MSTORE PUSH2 0x7D5 DUP2 PUSH2 0x79C JUMP JUMPDEST SWAP1 POP SWAP2 SWAP1 POP JUMP JUMPDEST PUSH0 DUP2 SWAP1 POP SWAP3 SWAP2 POP POP JUMP JUMPDEST POP JUMP JUMPDEST PUSH0 PUSH2 0x7F4 PUSH0 DUP4 PUSH2 0x7DC JUMP JUMPDEST SWAP2 POP PUSH2 0x7FF DUP3 PUSH2 0x7E6 JUMP JUMPDEST PUSH0 DUP3 ADD SWAP1 POP SWAP2 SWAP1 POP JUMP JUMPDEST PUSH0 PUSH2 0x813 DUP3 PUSH2 0x7E9 JUMP JUMPDEST SWAP2 POP DUP2 SWAP1 POP SWAP2 SWAP1 POP JUMP JUMPDEST PUSH32 0x4F68206D7920676F642C20776861742069732074686174213F00000000000000 PUSH0 DUP3 ADD MSTORE POP JUMP JUMPDEST PUSH0 PUSH2 0x851 PUSH1 0x19 DUP4 PUSH2 0x5F5 JUMP JUMPDEST SWAP2 POP PUSH2 0x85C DUP3 PUSH2 0x81D JUMP JUMPDEST PUSH1 0x20 DUP3 ADD SWAP1 POP SWAP2 SWAP1 POP JUMP JUMPDEST PUSH0 PUSH1 0x20 DUP3 ADD SWAP1 POP DUP2 DUP2 SUB PUSH0 DUP4 ADD MSTORE PUSH2 0x87E DUP2 PUSH2 0x845 JUMP JUMPDEST SWAP1 POP SWAP2 SWAP1 POP JUMP INVALID LOG2 PUSH5 0x6970667358 0x22 SLT KECCAK256 0xE0 GAS DUP8 0xF 0xA9 PC 0x4D SELFDESTRUCT 0xC4 0xDF JUMPDEST PUSH31 0xC74B98EDCFF15C7A3B9CC6E13F51DECEFD34DEBC64736F6C634300081A0033 "
				},
				"gasEstimates": {
					"creation": {
						"codeDepositCost": "447000",
						"executionCost": "infinite",
						"totalCost": "infinite"
					},
					"external": {
						"balances(address)": "2779",
						"captchaContract()": "infinite",
						"load(uint256)": "infinite",
						"save()": "infinite",
						"secret()": "infinite"
					}
				},
				"methodIdentifiers": {
					"balances(address)": "27e235e3",
					"captchaContract()": "94f41a88",
					"load(uint256)": "99d548aa",
					"save()": "42dad49e",
					"secret()": "d1efd30d"
				}
			},
			"storageLayout": {
				"storage": [
					{
						"astId": 43,
						"contract": "Unsolveable_Money_Captcha/contracts/Money.sol:Money",
						"label": "balances",
						"offset": 0,
						"slot": "0",
						"type": "t_mapping(t_address,t_uint256)"
					},
					{
						"astId": 46,
						"contract": "Unsolveable_Money_Captcha/contracts/Money.sol:Money",
						"label": "captchaContract",
						"offset": 0,
						"slot": "1",
						"type": "t_contract(Captcha)36"
					}
				],
				"types": {
					"t_address": {
						"encoding": "inplace",
						"label": "address",
						"numberOfBytes": "20"
					},
					"t_contract(Captcha)36": {
						"encoding": "inplace",
						"label": "contract Captcha",
						"numberOfBytes": "20"
					},
					"t_mapping(t_address,t_uint256)": {
						"encoding": "mapping",
						"key": "t_address",
						"label": "mapping(address => uint256)",
						"numberOfBytes": "32",
						"value": "t_uint256"
					},
					"t_uint256": {
						"encoding": "inplace",
						"label": "uint256",
						"numberOfBytes": "32"
					}
				}
			},
			"userdoc": {
				"kind": "user",
				"methods": {},
				"version": 1
			}
		}
	}
}