{
	"data": {
		"bytecode": {
			"linkReferences": {},
			"object": "6080604052348015600e575f80fd5b506102058061001c5f395ff3fe608060405234801561000f575f80fd5b5060043610610029575f3560e01c80632dadab2d1461002d575b5f80fd5b610047600480360381019061004291906100d8565b61005d565b604051610054919061012e565b60405180910390f35b5f80836040516020016100709190610156565b60405160208183030381529060405280519060200120905082815f1c610096919061019c565b5f1b91505092915050565b5f80fd5b5f819050919050565b6100b7816100a5565b81146100c1575f80fd5b50565b5f813590506100d2816100ae565b92915050565b5f80604083850312156100ee576100ed6100a1565b5b5f6100fb858286016100c4565b925050602061010c858286016100c4565b9150509250929050565b5f819050919050565b61012881610116565b82525050565b5f6020820190506101415f83018461011f565b92915050565b610150816100a5565b82525050565b5f6020820190506101695f830184610147565b92915050565b7f4e487b71000000000000000000000000000000000000000000000000000000005f52601160045260245ffd5b5f6101a6826100a5565b91506101b1836100a5565b92508282019050808211156101c9576101c861016f565b5b9291505056fea26469706673582212205643883e4dc27336ea10cdfd502b9b635c1a5cb6fe733ec70261bf9cc34fc42964736f6c634300081a0033",
			"opcodes": "PUSH1 0x80 PUSH1 0x40 MSTORE CALLVALUE DUP1 ISZERO PUSH1 0xE JUMPI PUSH0 DUP1 REVERT JUMPDEST POP PUSH2 0x205 DUP1 PUSH2 0x1C PUSH0 CODECOPY PUSH0 RETURN INVALID PUSH1 0x80 PUSH1 0x40 MSTORE CALLVALUE DUP1 ISZERO PUSH2 0xF JUMPI PUSH0 DUP1 REVERT JUMPDEST POP PUSH1 0x4 CALLDATASIZE LT PUSH2 0x29 JUMPI PUSH0 CALLDATALOAD PUSH1 0xE0 SHR DUP1 PUSH4 0x2DADAB2D EQ PUSH2 0x2D JUMPI JUMPDEST PUSH0 DUP1 REVERT JUMPDEST PUSH2 0x47 PUSH1 0x4 DUP1 CALLDATASIZE SUB DUP2 ADD SWAP1 PUSH2 0x42 SWAP2 SWAP1 PUSH2 0xD8 JUMP JUMPDEST PUSH2 0x5D JUMP JUMPDEST PUSH1 0x40 MLOAD PUSH2 0x54 SWAP2 SWAP1 PUSH2 0x12E JUMP JUMPDEST PUSH1 0x40 MLOAD DUP1 SWAP2 SUB SWAP1 RETURN JUMPDEST PUSH0 DUP1 DUP4 PUSH1 0x40 MLOAD PUSH1 0x20 ADD PUSH2 0x70 SWAP2 SWAP1 PUSH2 0x156 JUMP JUMPDEST PUSH1 0x40 MLOAD PUSH1 0x20 DUP2 DUP4 SUB SUB DUP2 MSTORE SWAP1 PUSH1 0x40 MSTORE DUP1 MLOAD SWAP1 PUSH1 0x20 ADD KECCAK256 SWAP1 POP DUP3 DUP2 PUSH0 SHR PUSH2 0x96 SWAP2 SWAP1 PUSH2 0x19C JUMP JUMPDEST PUSH0 SHL SWAP2 POP POP SWAP3 SWAP2 POP POP JUMP JUMPDEST PUSH0 DUP1 REVERT JUMPDEST PUSH0 DUP2 SWAP1 POP SWAP2 SWAP1 POP JUMP JUMPDEST PUSH2 0xB7 DUP2 PUSH2 0xA5 JUMP JUMPDEST DUP2 EQ PUSH2 0xC1 JUMPI PUSH0 DUP1 REVERT JUMPDEST POP JUMP JUMPDEST PUSH0 DUP2 CALLDATALOAD SWAP1 POP PUSH2 0xD2 DUP2 PUSH2 0xAE JUMP JUMPDEST SWAP3 SWAP2 POP POP JUMP JUMPDEST PUSH0 DUP1 PUSH1 0x40 DUP4 DUP6 SUB SLT ISZERO PUSH2 0xEE JUMPI PUSH2 0xED PUSH2 0xA1 JUMP JUMPDEST JUMPDEST PUSH0 PUSH2 0xFB DUP6 DUP3 DUP7 ADD PUSH2 0xC4 JUMP JUMPDEST SWAP3 POP POP PUSH1 0x20 PUSH2 0x10C DUP6 DUP3 DUP7 ADD PUSH2 0xC4 JUMP JUMPDEST SWAP2 POP POP SWAP3 POP SWAP3 SWAP1 POP JUMP JUMPDEST PUSH0 DUP2 SWAP1 POP SWAP2 SWAP1 POP JUMP JUMPDEST PUSH2 0x128 DUP2 PUSH2 0x116 JUMP JUMPDEST DUP3 MSTORE POP POP JUMP JUMPDEST PUSH0 PUSH1 0x20 DUP3 ADD SWAP1 POP PUSH2 0x141 PUSH0 DUP4 ADD DUP5 PUSH2 0x11F JUMP JUMPDEST SWAP3 SWAP2 POP POP JUMP JUMPDEST PUSH2 0x150 DUP2 PUSH2 0xA5 JUMP JUMPDEST DUP3 MSTORE POP POP JUMP JUMPDEST PUSH0 PUSH1 0x20 DUP3 ADD SWAP1 POP PUSH2 0x169 PUSH0 DUP4 ADD DUP5 PUSH2 0x147 JUMP JUMPDEST SWAP3 SWAP2 POP POP JUMP JUMPDEST PUSH32 0x4E487B7100000000000000000000000000000000000000000000000000000000 PUSH0 MSTORE PUSH1 0x11 PUSH1 0x4 MSTORE PUSH1 0x24 PUSH0 REVERT JUMPDEST PUSH0 PUSH2 0x1A6 DUP3 PUSH2 0xA5 JUMP JUMPDEST SWAP2 POP PUSH2 0x1B1 DUP4 PUSH2 0xA5 JUMP JUMPDEST SWAP3 POP DUP3 DUP3 ADD SWAP1 POP DUP1 DUP3 GT ISZERO PUSH2 0x1C9 JUMPI PUSH2 0x1C8 PUSH2 0x16F JUMP JUMPDEST JUMPDEST SWAP3 SWAP2 POP POP JUMP INVALID LOG2 PUSH5 0x6970667358 0x22 SLT KECCAK256 JUMP NUMBER DUP9 RETURNDATACOPY 0x4D 0xC2 PUSH20 0x36EA10CDFD502B9B635C1A5CB6FE733EC70261BF SWAP13 0xC3 0x4F 0xC4 0x29 PUSH5 0x736F6C6343 STOP ADDMOD BYTE STOP CALLER "
		},
		"gasEstimates": {
			"creation": {
				"codeDepositCost": "103400",
				"executionCost": "151",
				"totalCost": "103551"
			},
			"external": {
				"getSlotForArrayElement(uint256,uint256)": "infinite"
			}
		},
		"methodIdentifiers": {
			"getSlotForArrayElement(uint256,uint256)": "2dadab2d"
		}
	},
	"abi": [
		{
			"inputs": [
				{
					"internalType": "uint256",
					"name": "_slot",
					"type": "uint256"
				},
				{
					"internalType": "uint256",
					"name": "_elementIndex",
					"type": "uint256"
				}
			],
			"name": "getSlotForArrayElement",
			"outputs": [
				{
					"internalType": "bytes32",
					"name": "",
					"type": "bytes32"
				}
			],
			"stateMutability": "pure",
			"type": "function"
		}
	]
}