{
	"Inju_Gambit/Privileged.sol": {
		"Privileged": {
			"abi": [
				{
					"inputs": [],
					"stateMutability": "payable",
					"type": "constructor"
				},
				{
					"inputs": [],
					"name": "Privileged_NotHighestPrivileged",
					"type": "error"
				},
				{
					"inputs": [],
					"name": "Privileged_NotManager",
					"type": "error"
				},
				{
					"inputs": [
						{
							"internalType": "uint256",
							"name": "challengerId",
							"type": "uint256"
						}
					],
					"name": "Requirements",
					"outputs": [
						{
							"internalType": "address",
							"name": "challenger",
							"type": "address"
						},
						{
							"internalType": "bool",
							"name": "isRich",
							"type": "bool"
						},
						{
							"internalType": "bool",
							"name": "isImportant",
							"type": "bool"
						},
						{
							"internalType": "bool",
							"name": "hasConnection",
							"type": "bool"
						},
						{
							"internalType": "bool",
							"name": "hasVIPCard",
							"type": "bool"
						}
					],
					"stateMutability": "view",
					"type": "function"
				},
				{
					"inputs": [],
					"name": "casinoOwner",
					"outputs": [
						{
							"internalType": "address",
							"name": "",
							"type": "address"
						}
					],
					"stateMutability": "view",
					"type": "function"
				},
				{
					"inputs": [],
					"name": "challengeManager",
					"outputs": [
						{
							"internalType": "address",
							"name": "",
							"type": "address"
						}
					],
					"stateMutability": "view",
					"type": "function"
				},
				{
					"inputs": [],
					"name": "challengerCounter",
					"outputs": [
						{
							"internalType": "uint256",
							"name": "",
							"type": "uint256"
						}
					],
					"stateMutability": "view",
					"type": "function"
				},
				{
					"inputs": [],
					"name": "fireManager",
					"outputs": [],
					"stateMutability": "nonpayable",
					"type": "function"
				},
				{
					"inputs": [],
					"name": "getCurrentChallengerCount",
					"outputs": [
						{
							"internalType": "uint256",
							"name": "",
							"type": "uint256"
						}
					],
					"stateMutability": "view",
					"type": "function"
				},
				{
					"inputs": [],
					"name": "getNextGeneratedId",
					"outputs": [
						{
							"internalType": "uint256",
							"name": "",
							"type": "uint256"
						}
					],
					"stateMutability": "view",
					"type": "function"
				},
				{
					"inputs": [
						{
							"internalType": "uint256",
							"name": "Id",
							"type": "uint256"
						}
					],
					"name": "getRequirmenets",
					"outputs": [
						{
							"components": [
								{
									"internalType": "address",
									"name": "challenger",
									"type": "address"
								},
								{
									"internalType": "bool",
									"name": "isRich",
									"type": "bool"
								},
								{
									"internalType": "bool",
									"name": "isImportant",
									"type": "bool"
								},
								{
									"internalType": "bool",
									"name": "hasConnection",
									"type": "bool"
								},
								{
									"internalType": "bool",
									"name": "hasVIPCard",
									"type": "bool"
								}
							],
							"internalType": "struct Privileged.casinoOwnerChallenger",
							"name": "",
							"type": "tuple"
						}
					],
					"stateMutability": "view",
					"type": "function"
				},
				{
					"inputs": [
						{
							"internalType": "address",
							"name": "to",
							"type": "address"
						}
					],
					"name": "mintChallenger",
					"outputs": [],
					"stateMutability": "nonpayable",
					"type": "function"
				},
				{
					"inputs": [
						{
							"internalType": "uint256",
							"name": "Id",
							"type": "uint256"
						}
					],
					"name": "resetAttribute",
					"outputs": [],
					"stateMutability": "nonpayable",
					"type": "function"
				},
				{
					"inputs": [
						{
							"internalType": "address",
							"name": "_manager",
							"type": "address"
						}
					],
					"name": "setManager",
					"outputs": [],
					"stateMutability": "nonpayable",
					"type": "function"
				},
				{
					"inputs": [
						{
							"internalType": "address",
							"name": "_newCasinoOwner",
							"type": "address"
						}
					],
					"name": "setNewCasinoOwner",
					"outputs": [],
					"stateMutability": "nonpayable",
					"type": "function"
				},
				{
					"inputs": [
						{
							"internalType": "uint256",
							"name": "Id",
							"type": "uint256"
						},
						{
							"internalType": "bool",
							"name": "_isRich",
							"type": "bool"
						},
						{
							"internalType": "bool",
							"name": "_isImportant",
							"type": "bool"
						},
						{
							"internalType": "bool",
							"name": "_hasConnection",
							"type": "bool"
						},
						{
							"internalType": "bool",
							"name": "_hasVIPCard",
							"type": "bool"
						}
					],
					"name": "upgradeAttribute",
					"outputs": [],
					"stateMutability": "nonpayable",
					"type": "function"
				}
			],
			"devdoc": {
				"kind": "dev",
				"methods": {},
				"version": 1
			},
			"evm": {
				"assembly": "    /* \"Inju_Gambit/Privileged.sol\":61:2713  contract Privileged{... */\n  mstore(0x40, 0x80)\n    /* \"Inju_Gambit/Privileged.sol\":456:457  1 */\n  0x01\n    /* \"Inju_Gambit/Privileged.sol\":421:457  uint256 public challengerCounter = 1 */\n  0x02\n  sstore\n    /* \"Inju_Gambit/Privileged.sol\":902:912  msg.sender */\n  caller\n    /* \"Inju_Gambit/Privileged.sol\":888:899  casinoOwner */\n  0x01\n  0x00\n    /* \"Inju_Gambit/Privileged.sol\":888:912  casinoOwner = msg.sender */\n  0x0100\n  exp\n  dup2\n  sload\n  dup2\n  0xffffffffffffffffffffffffffffffffffffffff\n  mul\n  not\n  and\n  swap1\n  dup4\n  0xffffffffffffffffffffffffffffffffffffffff\n  and\n  mul\n  or\n  swap1\n  sstore\n  pop\n    /* \"Inju_Gambit/Privileged.sol\":61:2713  contract Privileged{... */\n  dataSize(sub_0)\n  dup1\n  dataOffset(sub_0)\n  0x00\n  codecopy\n  0x00\n  return\nstop\n\nsub_0: assembly {\n        /* \"Inju_Gambit/Privileged.sol\":61:2713  contract Privileged{... */\n      mstore(0x40, 0x80)\n      callvalue\n      dup1\n      iszero\n      tag_1\n      jumpi\n      0x00\n      dup1\n      revert\n    tag_1:\n      pop\n      jumpi(tag_2, lt(calldatasize, 0x04))\n      shr(0xe0, calldataload(0x00))\n      dup1\n      0xa168837e\n      gt\n      tag_16\n      jumpi\n      dup1\n      0xb596704f\n      gt\n      tag_17\n      jumpi\n      dup1\n      0xb596704f\n      eq\n      tag_12\n      jumpi\n      dup1\n      0xbc0f160a\n      eq\n      tag_13\n      jumpi\n      dup1\n      0xc328848a\n      eq\n      tag_14\n      jumpi\n      dup1\n      0xd0ebdbe7\n      eq\n      tag_15\n      jumpi\n      jump(tag_2)\n    tag_17:\n      dup1\n      0xa168837e\n      eq\n      tag_9\n      jumpi\n      dup1\n      0xb1965e6c\n      eq\n      tag_10\n      jumpi\n      dup1\n      0xb480906c\n      eq\n      tag_11\n      jumpi\n      jump(tag_2)\n    tag_16:\n      dup1\n      0x023a96fe\n      eq\n      tag_3\n      jumpi\n      dup1\n      0x06327b1a\n      eq\n      tag_4\n      jumpi\n      dup1\n      0x0b8769d8\n      eq\n      tag_5\n      jumpi\n      dup1\n      0x4619246f\n      eq\n      tag_6\n      jumpi\n      dup1\n      0x89bdfdc3\n      eq\n      tag_7\n      jumpi\n      dup1\n      0x905d0709\n      eq\n      tag_8\n      jumpi\n    tag_2:\n      0x00\n      dup1\n      revert\n        /* \"Inju_Gambit/Privileged.sol\":350:381  address public challengeManager */\n    tag_3:\n      tag_18\n      tag_19\n      jump\t// in\n    tag_18:\n      mload(0x40)\n      tag_20\n      swap2\n      swap1\n      tag_21\n      jump\t// in\n    tag_20:\n      mload(0x40)\n      dup1\n      swap2\n      sub\n      swap1\n      return\n        /* \"Inju_Gambit/Privileged.sol\":1257:1611  function mintChallenger(address to) public onlyManager{... */\n    tag_4:\n      tag_22\n      0x04\n      dup1\n      calldatasize\n      sub\n      dup2\n      add\n      swap1\n      tag_23\n      swap2\n      swap1\n      tag_24\n      jump\t// in\n    tag_23:\n      tag_25\n      jump\t// in\n    tag_22:\n      stop\n        /* \"Inju_Gambit/Privileged.sol\":1036:1123  function fireManager() public onlyOwner{... */\n    tag_5:\n      tag_26\n      tag_27\n      jump\t// in\n    tag_26:\n      stop\n        /* \"Inju_Gambit/Privileged.sol\":421:457  uint256 public challengerCounter = 1 */\n    tag_6:\n      tag_28\n      tag_29\n      jump\t// in\n    tag_28:\n      mload(0x40)\n      tag_30\n      swap2\n      swap1\n      tag_31\n      jump\t// in\n    tag_30:\n      mload(0x40)\n      dup1\n      swap2\n      sub\n      swap1\n      return\n        /* \"Inju_Gambit/Privileged.sol\":2350:2479  function getRequirmenets(uint256 Id) public view returns (casinoOwnerChallenger memory){... */\n    tag_7:\n      tag_32\n      0x04\n      dup1\n      calldatasize\n      sub\n      dup2\n      add\n      swap1\n      tag_33\n      swap2\n      swap1\n      tag_34\n      jump\t// in\n    tag_33:\n      tag_35\n      jump\t// in\n    tag_32:\n      mload(0x40)\n      tag_36\n      swap2\n      swap1\n      tag_37\n      jump\t// in\n    tag_36:\n      mload(0x40)\n      dup1\n      swap2\n      sub\n      swap1\n      return\n        /* \"Inju_Gambit/Privileged.sol\":2034:2342  function resetAttribute(uint256 Id) public onlyManager{... */\n    tag_8:\n      tag_38\n      0x04\n      dup1\n      calldatasize\n      sub\n      dup2\n      add\n      swap1\n      tag_39\n      swap2\n      swap1\n      tag_34\n      jump\t// in\n    tag_39:\n      tag_40\n      jump\t// in\n    tag_38:\n      stop\n        /* \"Inju_Gambit/Privileged.sol\":1131:1249  function setNewCasinoOwner(address _newCasinoOwner) public onlyManager{... */\n    tag_9:\n      tag_41\n      0x04\n      dup1\n      calldatasize\n      sub\n      dup2\n      add\n      swap1\n      tag_42\n      swap2\n      swap1\n      tag_24\n      jump\t// in\n    tag_42:\n      tag_43\n      jump\t// in\n    tag_41:\n      stop\n        /* \"Inju_Gambit/Privileged.sol\":2487:2589  function getNextGeneratedId() public view returns (uint256){... */\n    tag_10:\n      tag_44\n      tag_45\n      jump\t// in\n    tag_44:\n      mload(0x40)\n      tag_46\n      swap2\n      swap1\n      tag_31\n      jump\t// in\n    tag_46:\n      mload(0x40)\n      dup1\n      swap2\n      sub\n      swap1\n      return\n        /* \"Inju_Gambit/Privileged.sol\":2597:2710  function getCurrentChallengerCount() public view returns (uint256){... */\n    tag_11:\n      tag_47\n      tag_48\n      jump\t// in\n    tag_47:\n      mload(0x40)\n      tag_49\n      swap2\n      swap1\n      tag_31\n      jump\t// in\n    tag_49:\n      mload(0x40)\n      dup1\n      swap2\n      sub\n      swap1\n      return\n        /* \"Inju_Gambit/Privileged.sol\":466:540  mapping(uint256 challengerId => casinoOwnerChallenger) public Requirements */\n    tag_12:\n      tag_50\n      0x04\n      dup1\n      calldatasize\n      sub\n      dup2\n      add\n      swap1\n      tag_51\n      swap2\n      swap1\n      tag_34\n      jump\t// in\n    tag_51:\n      tag_52\n      jump\t// in\n    tag_50:\n      mload(0x40)\n      tag_53\n      swap6\n      swap5\n      swap4\n      swap3\n      swap2\n      swap1\n      tag_54\n      jump\t// in\n    tag_53:\n      mload(0x40)\n      dup1\n      swap2\n      sub\n      swap1\n      return\n        /* \"Inju_Gambit/Privileged.sol\":388:414  address public casinoOwner */\n    tag_13:\n      tag_55\n      tag_56\n      jump\t// in\n    tag_55:\n      mload(0x40)\n      tag_57\n      swap2\n      swap1\n      tag_21\n      jump\t// in\n    tag_57:\n      mload(0x40)\n      dup1\n      swap2\n      sub\n      swap1\n      return\n        /* \"Inju_Gambit/Privileged.sol\":1619:2026  function upgradeAttribute(uint256 Id, bool _isRich, bool _isImportant, bool _hasConnection, bool _hasVIPCard) public onlyManager {... */\n    tag_14:\n      tag_58\n      0x04\n      dup1\n      calldatasize\n      sub\n      dup2\n      add\n      swap1\n      tag_59\n      swap2\n      swap1\n      tag_60\n      jump\t// in\n    tag_59:\n      tag_61\n      jump\t// in\n    tag_58:\n      stop\n        /* \"Inju_Gambit/Privileged.sol\":928:1028  function setManager(address _manager) public onlyOwner{... */\n    tag_15:\n      tag_62\n      0x04\n      dup1\n      calldatasize\n      sub\n      dup2\n      add\n      swap1\n      tag_63\n      swap2\n      swap1\n      tag_24\n      jump\t// in\n    tag_63:\n      tag_64\n      jump\t// in\n    tag_62:\n      stop\n        /* \"Inju_Gambit/Privileged.sol\":350:381  address public challengeManager */\n    tag_19:\n      0x00\n      dup1\n      sload\n      swap1\n      0x0100\n      exp\n      swap1\n      div\n      0xffffffffffffffffffffffffffffffffffffffff\n      and\n      dup2\n      jump\t// out\n        /* \"Inju_Gambit/Privileged.sol\":1257:1611  function mintChallenger(address to) public onlyManager{... */\n    tag_25:\n        /* \"Inju_Gambit/Privileged.sol\":755:771  challengeManager */\n      0x00\n      dup1\n      sload\n      swap1\n      0x0100\n      exp\n      swap1\n      div\n      0xffffffffffffffffffffffffffffffffffffffff\n      and\n        /* \"Inju_Gambit/Privileged.sol\":741:771  msg.sender != challengeManager */\n      0xffffffffffffffffffffffffffffffffffffffff\n      and\n        /* \"Inju_Gambit/Privileged.sol\":741:751  msg.sender */\n      caller\n        /* \"Inju_Gambit/Privileged.sol\":741:771  msg.sender != challengeManager */\n      0xffffffffffffffffffffffffffffffffffffffff\n      and\n      eq\n        /* \"Inju_Gambit/Privileged.sol\":738:829  if(msg.sender != challengeManager){... */\n      tag_66\n      jumpi\n        /* \"Inju_Gambit/Privileged.sol\":794:817  Privileged_NotManager() */\n      mload(0x40)\n      0xbfc0693900000000000000000000000000000000000000000000000000000000\n      dup2\n      mstore\n      0x04\n      add\n      mload(0x40)\n      dup1\n      swap2\n      sub\n      swap1\n      revert\n        /* \"Inju_Gambit/Privileged.sol\":738:829  if(msg.sender != challengeManager){... */\n    tag_66:\n        /* \"Inju_Gambit/Privileged.sol\":1322:1345  uint256 newChallengerId */\n      0x00\n        /* \"Inju_Gambit/Privileged.sol\":1348:1365  challengerCounter */\n      0x02\n      0x00\n        /* \"Inju_Gambit/Privileged.sol\":1348:1367  challengerCounter++ */\n      dup2\n      sload\n      dup1\n      swap3\n      swap2\n      swap1\n      tag_68\n      swap1\n      tag_69\n      jump\t// in\n    tag_68:\n      swap2\n      swap1\n      pop\n      sstore\n        /* \"Inju_Gambit/Privileged.sol\":1322:1367  uint256 newChallengerId = challengerCounter++ */\n      swap1\n      pop\n        /* \"Inju_Gambit/Privileged.sol\":1412:1603  casinoOwnerChallenger({... */\n      mload(0x40)\n      dup1\n      0xa0\n      add\n      0x40\n      mstore\n      dup1\n        /* \"Inju_Gambit/Privileged.sol\":1461:1463  to */\n      dup4\n        /* \"Inju_Gambit/Privileged.sol\":1412:1603  casinoOwnerChallenger({... */\n      0xffffffffffffffffffffffffffffffffffffffff\n      and\n      dup2\n      mstore\n      0x20\n      add\n        /* \"Inju_Gambit/Privileged.sol\":1486:1491  false */\n      0x00\n        /* \"Inju_Gambit/Privileged.sol\":1412:1603  casinoOwnerChallenger({... */\n      iszero\n      iszero\n      dup2\n      mstore\n      0x20\n      add\n        /* \"Inju_Gambit/Privileged.sol\":1519:1524  false */\n      0x00\n        /* \"Inju_Gambit/Privileged.sol\":1412:1603  casinoOwnerChallenger({... */\n      iszero\n      iszero\n      dup2\n      mstore\n      0x20\n      add\n        /* \"Inju_Gambit/Privileged.sol\":1554:1559  false */\n      0x00\n        /* \"Inju_Gambit/Privileged.sol\":1412:1603  casinoOwnerChallenger({... */\n      iszero\n      iszero\n      dup2\n      mstore\n      0x20\n      add\n        /* \"Inju_Gambit/Privileged.sol\":1586:1591  false */\n      0x00\n        /* \"Inju_Gambit/Privileged.sol\":1412:1603  casinoOwnerChallenger({... */\n      iszero\n      iszero\n      dup2\n      mstore\n      pop\n        /* \"Inju_Gambit/Privileged.sol\":1380:1392  Requirements */\n      0x03\n        /* \"Inju_Gambit/Privileged.sol\":1380:1409  Requirements[newChallengerId] */\n      0x00\n        /* \"Inju_Gambit/Privileged.sol\":1393:1408  newChallengerId */\n      dup4\n        /* \"Inju_Gambit/Privileged.sol\":1380:1409  Requirements[newChallengerId] */\n      dup2\n      mstore\n      0x20\n      add\n      swap1\n      dup2\n      mstore\n      0x20\n      add\n      0x00\n      keccak256\n        /* \"Inju_Gambit/Privileged.sol\":1380:1603  Requirements[newChallengerId] = casinoOwnerChallenger({... */\n      0x00\n      dup3\n      add\n      mload\n      dup2\n      0x00\n      add\n      exp(0x0100, 0x00)\n      dup2\n      sload\n      dup2\n      0xffffffffffffffffffffffffffffffffffffffff\n      mul\n      not\n      and\n      swap1\n      dup4\n      0xffffffffffffffffffffffffffffffffffffffff\n      and\n      mul\n      or\n      swap1\n      sstore\n      pop\n      0x20\n      dup3\n      add\n      mload\n      dup2\n      0x00\n      add\n      exp(0x0100, 0x14)\n      dup2\n      sload\n      dup2\n      0xff\n      mul\n      not\n      and\n      swap1\n      dup4\n      iszero\n      iszero\n      mul\n      or\n      swap1\n      sstore\n      pop\n      0x40\n      dup3\n      add\n      mload\n      dup2\n      0x00\n      add\n      exp(0x0100, 0x15)\n      dup2\n      sload\n      dup2\n      0xff\n      mul\n      not\n      and\n      swap1\n      dup4\n      iszero\n      iszero\n      mul\n      or\n      swap1\n      sstore\n      pop\n      0x60\n      dup3\n      add\n      mload\n      dup2\n      0x00\n      add\n      exp(0x0100, 0x16)\n      dup2\n      sload\n      dup2\n      0xff\n      mul\n      not\n      and\n      swap1\n      dup4\n      iszero\n      iszero\n      mul\n      or\n      swap1\n      sstore\n      pop\n      0x80\n      dup3\n      add\n      mload\n      dup2\n      0x00\n      add\n      exp(0x0100, 0x17)\n      dup2\n      sload\n      dup2\n      0xff\n      mul\n      not\n      and\n      swap1\n      dup4\n      iszero\n      iszero\n      mul\n      or\n      swap1\n      sstore\n      pop\n      swap1\n      pop\n      pop\n        /* \"Inju_Gambit/Privileged.sol\":1311:1611  {... */\n      pop\n        /* \"Inju_Gambit/Privileged.sol\":1257:1611  function mintChallenger(address to) public onlyManager{... */\n      pop\n      jump\t// out\n        /* \"Inju_Gambit/Privileged.sol\":1036:1123  function fireManager() public onlyOwner{... */\n    tag_27:\n        /* \"Inju_Gambit/Privileged.sol\":598:609  casinoOwner */\n      0x01\n      0x00\n      swap1\n      sload\n      swap1\n      0x0100\n      exp\n      swap1\n      div\n      0xffffffffffffffffffffffffffffffffffffffff\n      and\n        /* \"Inju_Gambit/Privileged.sol\":584:609  msg.sender != casinoOwner */\n      0xffffffffffffffffffffffffffffffffffffffff\n      and\n        /* \"Inju_Gambit/Privileged.sol\":584:594  msg.sender */\n      caller\n        /* \"Inju_Gambit/Privileged.sol\":584:609  msg.sender != casinoOwner */\n      0xffffffffffffffffffffffffffffffffffffffff\n      and\n      eq\n        /* \"Inju_Gambit/Privileged.sol\":581:677  if(msg.sender != casinoOwner){... */\n      tag_71\n      jumpi\n        /* \"Inju_Gambit/Privileged.sol\":632:665  Privileged_NotHighestPrivileged() */\n      mload(0x40)\n      0x126f181e00000000000000000000000000000000000000000000000000000000\n      dup2\n      mstore\n      0x04\n      add\n      mload(0x40)\n      dup1\n      swap2\n      sub\n      swap1\n      revert\n        /* \"Inju_Gambit/Privileged.sol\":581:677  if(msg.sender != casinoOwner){... */\n    tag_71:\n        /* \"Inju_Gambit/Privileged.sol\":1113:1114  0 */\n      0x00\n        /* \"Inju_Gambit/Privileged.sol\":1086:1102  challengeManager */\n      dup1\n      0x00\n        /* \"Inju_Gambit/Privileged.sol\":1086:1115  challengeManager = address(0) */\n      0x0100\n      exp\n      dup2\n      sload\n      dup2\n      0xffffffffffffffffffffffffffffffffffffffff\n      mul\n      not\n      and\n      swap1\n      dup4\n      0xffffffffffffffffffffffffffffffffffffffff\n      and\n      mul\n      or\n      swap1\n      sstore\n      pop\n        /* \"Inju_Gambit/Privileged.sol\":1036:1123  function fireManager() public onlyOwner{... */\n      jump\t// out\n        /* \"Inju_Gambit/Privileged.sol\":421:457  uint256 public challengerCounter = 1 */\n    tag_29:\n      sload(0x02)\n      dup2\n      jump\t// out\n        /* \"Inju_Gambit/Privileged.sol\":2350:2479  function getRequirmenets(uint256 Id) public view returns (casinoOwnerChallenger memory){... */\n    tag_35:\n        /* \"Inju_Gambit/Privileged.sol\":2408:2436  casinoOwnerChallenger memory */\n      tag_73\n      tag_74\n      jump\t// in\n    tag_73:\n        /* \"Inju_Gambit/Privileged.sol\":2455:2467  Requirements */\n      0x03\n        /* \"Inju_Gambit/Privileged.sol\":2455:2471  Requirements[Id] */\n      0x00\n        /* \"Inju_Gambit/Privileged.sol\":2468:2470  Id */\n      dup4\n        /* \"Inju_Gambit/Privileged.sol\":2455:2471  Requirements[Id] */\n      dup2\n      mstore\n      0x20\n      add\n      swap1\n      dup2\n      mstore\n      0x20\n      add\n      0x00\n      keccak256\n        /* \"Inju_Gambit/Privileged.sol\":2448:2471  return Requirements[Id] */\n      mload(0x40)\n      dup1\n      0xa0\n      add\n      0x40\n      mstore\n      swap1\n      dup2\n      0x00\n      dup3\n      add\n      0x00\n      swap1\n      sload\n      swap1\n      0x0100\n      exp\n      swap1\n      div\n      0xffffffffffffffffffffffffffffffffffffffff\n      and\n      0xffffffffffffffffffffffffffffffffffffffff\n      and\n      0xffffffffffffffffffffffffffffffffffffffff\n      and\n      dup2\n      mstore\n      0x20\n      add\n      0x00\n      dup3\n      add\n      0x14\n      swap1\n      sload\n      swap1\n      0x0100\n      exp\n      swap1\n      div\n      0xff\n      and\n      iszero\n      iszero\n      iszero\n      iszero\n      dup2\n      mstore\n      0x20\n      add\n      0x00\n      dup3\n      add\n      0x15\n      swap1\n      sload\n      swap1\n      0x0100\n      exp\n      swap1\n      div\n      0xff\n      and\n      iszero\n      iszero\n      iszero\n      iszero\n      dup2\n      mstore\n      0x20\n      add\n      0x00\n      dup3\n      add\n      0x16\n      swap1\n      sload\n      swap1\n      0x0100\n      exp\n      swap1\n      div\n      0xff\n      and\n      iszero\n      iszero\n      iszero\n      iszero\n      dup2\n      mstore\n      0x20\n      add\n      0x00\n      dup3\n      add\n      0x17\n      swap1\n      sload\n      swap1\n      0x0100\n      exp\n      swap1\n      div\n      0xff\n      and\n      iszero\n      iszero\n      iszero\n      iszero\n      dup2\n      mstore\n      pop\n      pop\n      swap1\n      pop\n        /* \"Inju_Gambit/Privileged.sol\":2350:2479  function getRequirmenets(uint256 Id) public view returns (casinoOwnerChallenger memory){... */\n      swap2\n      swap1\n      pop\n      jump\t// out\n        /* \"Inju_Gambit/Privileged.sol\":2034:2342  function resetAttribute(uint256 Id) public onlyManager{... */\n    tag_40:\n        /* \"Inju_Gambit/Privileged.sol\":755:771  challengeManager */\n      0x00\n      dup1\n      sload\n      swap1\n      0x0100\n      exp\n      swap1\n      div\n      0xffffffffffffffffffffffffffffffffffffffff\n      and\n        /* \"Inju_Gambit/Privileged.sol\":741:771  msg.sender != challengeManager */\n      0xffffffffffffffffffffffffffffffffffffffff\n      and\n        /* \"Inju_Gambit/Privileged.sol\":741:751  msg.sender */\n      caller\n        /* \"Inju_Gambit/Privileged.sol\":741:771  msg.sender != challengeManager */\n      0xffffffffffffffffffffffffffffffffffffffff\n      and\n      eq\n        /* \"Inju_Gambit/Privileged.sol\":738:829  if(msg.sender != challengeManager){... */\n      tag_77\n      jumpi\n        /* \"Inju_Gambit/Privileged.sol\":794:817  Privileged_NotManager() */\n      mload(0x40)\n      0xbfc0693900000000000000000000000000000000000000000000000000000000\n      dup2\n      mstore\n      0x04\n      add\n      mload(0x40)\n      dup1\n      swap2\n      sub\n      swap1\n      revert\n        /* \"Inju_Gambit/Privileged.sol\":738:829  if(msg.sender != challengeManager){... */\n    tag_77:\n        /* \"Inju_Gambit/Privileged.sol\":2118:2334  casinoOwnerChallenger({... */\n      mload(0x40)\n      dup1\n      0xa0\n      add\n      0x40\n      mstore\n      dup1\n        /* \"Inju_Gambit/Privileged.sol\":2167:2179  Requirements */\n      0x03\n        /* \"Inju_Gambit/Privileged.sol\":2167:2183  Requirements[Id] */\n      0x00\n        /* \"Inju_Gambit/Privileged.sol\":2180:2182  Id */\n      dup5\n        /* \"Inju_Gambit/Privileged.sol\":2167:2183  Requirements[Id] */\n      dup2\n      mstore\n      0x20\n      add\n      swap1\n      dup2\n      mstore\n      0x20\n      add\n      0x00\n      keccak256\n        /* \"Inju_Gambit/Privileged.sol\":2167:2194  Requirements[Id].challenger */\n      0x00\n      add\n      0x00\n      swap1\n      sload\n      swap1\n      0x0100\n      exp\n      swap1\n      div\n      0xffffffffffffffffffffffffffffffffffffffff\n      and\n        /* \"Inju_Gambit/Privileged.sol\":2118:2334  casinoOwnerChallenger({... */\n      0xffffffffffffffffffffffffffffffffffffffff\n      and\n      dup2\n      mstore\n      0x20\n      add\n        /* \"Inju_Gambit/Privileged.sol\":2217:2222  false */\n      0x00\n        /* \"Inju_Gambit/Privileged.sol\":2118:2334  casinoOwnerChallenger({... */\n      iszero\n      iszero\n      dup2\n      mstore\n      0x20\n      add\n        /* \"Inju_Gambit/Privileged.sol\":2250:2255  false */\n      0x00\n        /* \"Inju_Gambit/Privileged.sol\":2118:2334  casinoOwnerChallenger({... */\n      iszero\n      iszero\n      dup2\n      mstore\n      0x20\n      add\n        /* \"Inju_Gambit/Privileged.sol\":2285:2290  false */\n      0x00\n        /* \"Inju_Gambit/Privileged.sol\":2118:2334  casinoOwnerChallenger({... */\n      iszero\n      iszero\n      dup2\n      mstore\n      0x20\n      add\n        /* \"Inju_Gambit/Privileged.sol\":2317:2322  false */\n      0x00\n        /* \"Inju_Gambit/Privileged.sol\":2118:2334  casinoOwnerChallenger({... */\n      iszero\n      iszero\n      dup2\n      mstore\n      pop\n        /* \"Inju_Gambit/Privileged.sol\":2099:2111  Requirements */\n      0x03\n        /* \"Inju_Gambit/Privileged.sol\":2099:2115  Requirements[Id] */\n      0x00\n        /* \"Inju_Gambit/Privileged.sol\":2112:2114  Id */\n      dup4\n        /* \"Inju_Gambit/Privileged.sol\":2099:2115  Requirements[Id] */\n      dup2\n      mstore\n      0x20\n      add\n      swap1\n      dup2\n      mstore\n      0x20\n      add\n      0x00\n      keccak256\n        /* \"Inju_Gambit/Privileged.sol\":2099:2334  Requirements[Id] = casinoOwnerChallenger({... */\n      0x00\n      dup3\n      add\n      mload\n      dup2\n      0x00\n      add\n      exp(0x0100, 0x00)\n      dup2\n      sload\n      dup2\n      0xffffffffffffffffffffffffffffffffffffffff\n      mul\n      not\n      and\n      swap1\n      dup4\n      0xffffffffffffffffffffffffffffffffffffffff\n      and\n      mul\n      or\n      swap1\n      sstore\n      pop\n      0x20\n      dup3\n      add\n      mload\n      dup2\n      0x00\n      add\n      exp(0x0100, 0x14)\n      dup2\n      sload\n      dup2\n      0xff\n      mul\n      not\n      and\n      swap1\n      dup4\n      iszero\n      iszero\n      mul\n      or\n      swap1\n      sstore\n      pop\n      0x40\n      dup3\n      add\n      mload\n      dup2\n      0x00\n      add\n      exp(0x0100, 0x15)\n      dup2\n      sload\n      dup2\n      0xff\n      mul\n      not\n      and\n      swap1\n      dup4\n      iszero\n      iszero\n      mul\n      or\n      swap1\n      sstore\n      pop\n      0x60\n      dup3\n      add\n      mload\n      dup2\n      0x00\n      add\n      exp(0x0100, 0x16)\n      dup2\n      sload\n      dup2\n      0xff\n      mul\n      not\n      and\n      swap1\n      dup4\n      iszero\n      iszero\n      mul\n      or\n      swap1\n      sstore\n      pop\n      0x80\n      dup3\n      add\n      mload\n      dup2\n      0x00\n      add\n      exp(0x0100, 0x17)\n      dup2\n      sload\n      dup2\n      0xff\n      mul\n      not\n      and\n      swap1\n      dup4\n      iszero\n      iszero\n      mul\n      or\n      swap1\n      sstore\n      pop\n      swap1\n      pop\n      pop\n        /* \"Inju_Gambit/Privileged.sol\":2034:2342  function resetAttribute(uint256 Id) public onlyManager{... */\n      pop\n      jump\t// out\n        /* \"Inju_Gambit/Privileged.sol\":1131:1249  function setNewCasinoOwner(address _newCasinoOwner) public onlyManager{... */\n    tag_43:\n        /* \"Inju_Gambit/Privileged.sol\":755:771  challengeManager */\n      0x00\n      dup1\n      sload\n      swap1\n      0x0100\n      exp\n      swap1\n      div\n      0xffffffffffffffffffffffffffffffffffffffff\n      and\n        /* \"Inju_Gambit/Privileged.sol\":741:771  msg.sender != challengeManager */\n      0xffffffffffffffffffffffffffffffffffffffff\n      and\n        /* \"Inju_Gambit/Privileged.sol\":741:751  msg.sender */\n      caller\n        /* \"Inju_Gambit/Privileged.sol\":741:771  msg.sender != challengeManager */\n      0xffffffffffffffffffffffffffffffffffffffff\n      and\n      eq\n        /* \"Inju_Gambit/Privileged.sol\":738:829  if(msg.sender != challengeManager){... */\n      tag_80\n      jumpi\n        /* \"Inju_Gambit/Privileged.sol\":794:817  Privileged_NotManager() */\n      mload(0x40)\n      0xbfc0693900000000000000000000000000000000000000000000000000000000\n      dup2\n      mstore\n      0x04\n      add\n      mload(0x40)\n      dup1\n      swap2\n      sub\n      swap1\n      revert\n        /* \"Inju_Gambit/Privileged.sol\":738:829  if(msg.sender != challengeManager){... */\n    tag_80:\n        /* \"Inju_Gambit/Privileged.sol\":1226:1241  _newCasinoOwner */\n      dup1\n        /* \"Inju_Gambit/Privileged.sol\":1212:1223  casinoOwner */\n      0x01\n      0x00\n        /* \"Inju_Gambit/Privileged.sol\":1212:1241  casinoOwner = _newCasinoOwner */\n      0x0100\n      exp\n      dup2\n      sload\n      dup2\n      0xffffffffffffffffffffffffffffffffffffffff\n      mul\n      not\n      and\n      swap1\n      dup4\n      0xffffffffffffffffffffffffffffffffffffffff\n      and\n      mul\n      or\n      swap1\n      sstore\n      pop\n        /* \"Inju_Gambit/Privileged.sol\":1131:1249  function setNewCasinoOwner(address _newCasinoOwner) public onlyManager{... */\n      pop\n      jump\t// out\n        /* \"Inju_Gambit/Privileged.sol\":2487:2589  function getNextGeneratedId() public view returns (uint256){... */\n    tag_45:\n        /* \"Inju_Gambit/Privileged.sol\":2538:2545  uint256 */\n      0x00\n        /* \"Inju_Gambit/Privileged.sol\":2564:2581  challengerCounter */\n      sload(0x02)\n        /* \"Inju_Gambit/Privileged.sol\":2557:2581  return challengerCounter */\n      swap1\n      pop\n        /* \"Inju_Gambit/Privileged.sol\":2487:2589  function getNextGeneratedId() public view returns (uint256){... */\n      swap1\n      jump\t// out\n        /* \"Inju_Gambit/Privileged.sol\":2597:2710  function getCurrentChallengerCount() public view returns (uint256){... */\n    tag_48:\n        /* \"Inju_Gambit/Privileged.sol\":2655:2662  uint256 */\n      0x00\n        /* \"Inju_Gambit/Privileged.sol\":2701:2702  1 */\n      0x01\n        /* \"Inju_Gambit/Privileged.sol\":2681:2698  challengerCounter */\n      sload(0x02)\n        /* \"Inju_Gambit/Privileged.sol\":2681:2702  challengerCounter - 1 */\n      tag_84\n      swap2\n      swap1\n      tag_85\n      jump\t// in\n    tag_84:\n        /* \"Inju_Gambit/Privileged.sol\":2674:2702  return challengerCounter - 1 */\n      swap1\n      pop\n        /* \"Inju_Gambit/Privileged.sol\":2597:2710  function getCurrentChallengerCount() public view returns (uint256){... */\n      swap1\n      jump\t// out\n        /* \"Inju_Gambit/Privileged.sol\":466:540  mapping(uint256 challengerId => casinoOwnerChallenger) public Requirements */\n    tag_52:\n      mstore(0x20, 0x03)\n      dup1\n      0x00\n      mstore\n      keccak256(0x00, 0x40)\n      0x00\n      swap2\n      pop\n      swap1\n      pop\n      dup1\n      0x00\n      add\n      0x00\n      swap1\n      sload\n      swap1\n      0x0100\n      exp\n      swap1\n      div\n      0xffffffffffffffffffffffffffffffffffffffff\n      and\n      swap1\n      dup1\n      0x00\n      add\n      0x14\n      swap1\n      sload\n      swap1\n      0x0100\n      exp\n      swap1\n      div\n      0xff\n      and\n      swap1\n      dup1\n      0x00\n      add\n      0x15\n      swap1\n      sload\n      swap1\n      0x0100\n      exp\n      swap1\n      div\n      0xff\n      and\n      swap1\n      dup1\n      0x00\n      add\n      0x16\n      swap1\n      sload\n      swap1\n      0x0100\n      exp\n      swap1\n      div\n      0xff\n      and\n      swap1\n      dup1\n      0x00\n      add\n      0x17\n      swap1\n      sload\n      swap1\n      0x0100\n      exp\n      swap1\n      div\n      0xff\n      and\n      swap1\n      pop\n      dup6\n      jump\t// out\n        /* \"Inju_Gambit/Privileged.sol\":388:414  address public casinoOwner */\n    tag_56:\n      0x01\n      0x00\n      swap1\n      sload\n      swap1\n      0x0100\n      exp\n      swap1\n      div\n      0xffffffffffffffffffffffffffffffffffffffff\n      and\n      dup2\n      jump\t// out\n        /* \"Inju_Gambit/Privileged.sol\":1619:2026  function upgradeAttribute(uint256 Id, bool _isRich, bool _isImportant, bool _hasConnection, bool _hasVIPCard) public onlyManager {... */\n    tag_61:\n        /* \"Inju_Gambit/Privileged.sol\":755:771  challengeManager */\n      0x00\n      dup1\n      sload\n      swap1\n      0x0100\n      exp\n      swap1\n      div\n      0xffffffffffffffffffffffffffffffffffffffff\n      and\n        /* \"Inju_Gambit/Privileged.sol\":741:771  msg.sender != challengeManager */\n      0xffffffffffffffffffffffffffffffffffffffff\n      and\n        /* \"Inju_Gambit/Privileged.sol\":741:751  msg.sender */\n      caller\n        /* \"Inju_Gambit/Privileged.sol\":741:771  msg.sender != challengeManager */\n      0xffffffffffffffffffffffffffffffffffffffff\n      and\n      eq\n        /* \"Inju_Gambit/Privileged.sol\":738:829  if(msg.sender != challengeManager){... */\n      tag_87\n      jumpi\n        /* \"Inju_Gambit/Privileged.sol\":794:817  Privileged_NotManager() */\n      mload(0x40)\n      0xbfc0693900000000000000000000000000000000000000000000000000000000\n      dup2\n      mstore\n      0x04\n      add\n      mload(0x40)\n      dup1\n      swap2\n      sub\n      swap1\n      revert\n        /* \"Inju_Gambit/Privileged.sol\":738:829  if(msg.sender != challengeManager){... */\n    tag_87:\n        /* \"Inju_Gambit/Privileged.sol\":1778:2018  casinoOwnerChallenger({... */\n      mload(0x40)\n      dup1\n      0xa0\n      add\n      0x40\n      mstore\n      dup1\n        /* \"Inju_Gambit/Privileged.sol\":1827:1839  Requirements */\n      0x03\n        /* \"Inju_Gambit/Privileged.sol\":1827:1843  Requirements[Id] */\n      0x00\n        /* \"Inju_Gambit/Privileged.sol\":1840:1842  Id */\n      dup9\n        /* \"Inju_Gambit/Privileged.sol\":1827:1843  Requirements[Id] */\n      dup2\n      mstore\n      0x20\n      add\n      swap1\n      dup2\n      mstore\n      0x20\n      add\n      0x00\n      keccak256\n        /* \"Inju_Gambit/Privileged.sol\":1827:1854  Requirements[Id].challenger */\n      0x00\n      add\n      0x00\n      swap1\n      sload\n      swap1\n      0x0100\n      exp\n      swap1\n      div\n      0xffffffffffffffffffffffffffffffffffffffff\n      and\n        /* \"Inju_Gambit/Privileged.sol\":1778:2018  casinoOwnerChallenger({... */\n      0xffffffffffffffffffffffffffffffffffffffff\n      and\n      dup2\n      mstore\n      0x20\n      add\n        /* \"Inju_Gambit/Privileged.sol\":1877:1884  _isRich */\n      dup6\n        /* \"Inju_Gambit/Privileged.sol\":1778:2018  casinoOwnerChallenger({... */\n      iszero\n      iszero\n      dup2\n      mstore\n      0x20\n      add\n        /* \"Inju_Gambit/Privileged.sol\":1912:1924  _isImportant */\n      dup5\n        /* \"Inju_Gambit/Privileged.sol\":1778:2018  casinoOwnerChallenger({... */\n      iszero\n      iszero\n      dup2\n      mstore\n      0x20\n      add\n        /* \"Inju_Gambit/Privileged.sol\":1954:1968  _hasConnection */\n      dup4\n        /* \"Inju_Gambit/Privileged.sol\":1778:2018  casinoOwnerChallenger({... */\n      iszero\n      iszero\n      dup2\n      mstore\n      0x20\n      add\n        /* \"Inju_Gambit/Privileged.sol\":1995:2006  _hasVIPCard */\n      dup3\n        /* \"Inju_Gambit/Privileged.sol\":1778:2018  casinoOwnerChallenger({... */\n      iszero\n      iszero\n      dup2\n      mstore\n      pop\n        /* \"Inju_Gambit/Privileged.sol\":1759:1771  Requirements */\n      0x03\n        /* \"Inju_Gambit/Privileged.sol\":1759:1775  Requirements[Id] */\n      0x00\n        /* \"Inju_Gambit/Privileged.sol\":1772:1774  Id */\n      dup8\n        /* \"Inju_Gambit/Privileged.sol\":1759:1775  Requirements[Id] */\n      dup2\n      mstore\n      0x20\n      add\n      swap1\n      dup2\n      mstore\n      0x20\n      add\n      0x00\n      keccak256\n        /* \"Inju_Gambit/Privileged.sol\":1759:2018  Requirements[Id] = casinoOwnerChallenger({... */\n      0x00\n      dup3\n      add\n      mload\n      dup2\n      0x00\n      add\n      exp(0x0100, 0x00)\n      dup2\n      sload\n      dup2\n      0xffffffffffffffffffffffffffffffffffffffff\n      mul\n      not\n      and\n      swap1\n      dup4\n      0xffffffffffffffffffffffffffffffffffffffff\n      and\n      mul\n      or\n      swap1\n      sstore\n      pop\n      0x20\n      dup3\n      add\n      mload\n      dup2\n      0x00\n      add\n      exp(0x0100, 0x14)\n      dup2\n      sload\n      dup2\n      0xff\n      mul\n      not\n      and\n      swap1\n      dup4\n      iszero\n      iszero\n      mul\n      or\n      swap1\n      sstore\n      pop\n      0x40\n      dup3\n      add\n      mload\n      dup2\n      0x00\n      add\n      exp(0x0100, 0x15)\n      dup2\n      sload\n      dup2\n      0xff\n      mul\n      not\n      and\n      swap1\n      dup4\n      iszero\n      iszero\n      mul\n      or\n      swap1\n      sstore\n      pop\n      0x60\n      dup3\n      add\n      mload\n      dup2\n      0x00\n      add\n      exp(0x0100, 0x16)\n      dup2\n      sload\n      dup2\n      0xff\n      mul\n      not\n      and\n      swap1\n      dup4\n      iszero\n      iszero\n      mul\n      or\n      swap1\n      sstore\n      pop\n      0x80\n      dup3\n      add\n      mload\n      dup2\n      0x00\n      add\n      exp(0x0100, 0x17)\n      dup2\n      sload\n      dup2\n      0xff\n      mul\n      not\n      and\n      swap1\n      dup4\n      iszero\n      iszero\n      mul\n      or\n      swap1\n      sstore\n      pop\n      swap1\n      pop\n      pop\n        /* \"Inju_Gambit/Privileged.sol\":1619:2026  function upgradeAttribute(uint256 Id, bool _isRich, bool _isImportant, bool _hasConnection, bool _hasVIPCard) public onlyManager {... */\n      pop\n      pop\n      pop\n      pop\n      pop\n      jump\t// out\n        /* \"Inju_Gambit/Privileged.sol\":928:1028  function setManager(address _manager) public onlyOwner{... */\n    tag_64:\n        /* \"Inju_Gambit/Privileged.sol\":598:609  casinoOwner */\n      0x01\n      0x00\n      swap1\n      sload\n      swap1\n      0x0100\n      exp\n      swap1\n      div\n      0xffffffffffffffffffffffffffffffffffffffff\n      and\n        /* \"Inju_Gambit/Privileged.sol\":584:609  msg.sender != casinoOwner */\n      0xffffffffffffffffffffffffffffffffffffffff\n      and\n        /* \"Inju_Gambit/Privileged.sol\":584:594  msg.sender */\n      caller\n        /* \"Inju_Gambit/Privileged.sol\":584:609  msg.sender != casinoOwner */\n      0xffffffffffffffffffffffffffffffffffffffff\n      and\n      eq\n        /* \"Inju_Gambit/Privileged.sol\":581:677  if(msg.sender != casinoOwner){... */\n      tag_90\n      jumpi\n        /* \"Inju_Gambit/Privileged.sol\":632:665  Privileged_NotHighestPrivileged() */\n      mload(0x40)\n      0x126f181e00000000000000000000000000000000000000000000000000000000\n      dup2\n      mstore\n      0x04\n      add\n      mload(0x40)\n      dup1\n      swap2\n      sub\n      swap1\n      revert\n        /* \"Inju_Gambit/Privileged.sol\":581:677  if(msg.sender != casinoOwner){... */\n    tag_90:\n        /* \"Inju_Gambit/Privileged.sol\":1012:1020  _manager */\n      dup1\n        /* \"Inju_Gambit/Privileged.sol\":993:1009  challengeManager */\n      0x00\n      dup1\n        /* \"Inju_Gambit/Privileged.sol\":993:1020  challengeManager = _manager */\n      0x0100\n      exp\n      dup2\n      sload\n      dup2\n      0xffffffffffffffffffffffffffffffffffffffff\n      mul\n      not\n      and\n      swap1\n      dup4\n      0xffffffffffffffffffffffffffffffffffffffff\n      and\n      mul\n      or\n      swap1\n      sstore\n      pop\n        /* \"Inju_Gambit/Privileged.sol\":928:1028  function setManager(address _manager) public onlyOwner{... */\n      pop\n      jump\t// out\n    tag_74:\n      mload(0x40)\n      dup1\n      0xa0\n      add\n      0x40\n      mstore\n      dup1\n      and(0xffffffffffffffffffffffffffffffffffffffff, 0x00)\n      dup2\n      mstore\n      0x20\n      add\n      iszero(iszero(0x00))\n      dup2\n      mstore\n      0x20\n      add\n      iszero(iszero(0x00))\n      dup2\n      mstore\n      0x20\n      add\n      iszero(iszero(0x00))\n      dup2\n      mstore\n      0x20\n      add\n      iszero(iszero(0x00))\n      dup2\n      mstore\n      pop\n      swap1\n      jump\t// out\n        /* \"#utility.yul\":7:133   */\n    tag_92:\n        /* \"#utility.yul\":44:51   */\n      0x00\n        /* \"#utility.yul\":84:126   */\n      0xffffffffffffffffffffffffffffffffffffffff\n        /* \"#utility.yul\":77:82   */\n      dup3\n        /* \"#utility.yul\":73:127   */\n      and\n        /* \"#utility.yul\":62:127   */\n      swap1\n      pop\n        /* \"#utility.yul\":7:133   */\n      swap2\n      swap1\n      pop\n      jump\t// out\n        /* \"#utility.yul\":139:235   */\n    tag_93:\n        /* \"#utility.yul\":176:183   */\n      0x00\n        /* \"#utility.yul\":205:229   */\n      tag_115\n        /* \"#utility.yul\":223:228   */\n      dup3\n        /* \"#utility.yul\":205:229   */\n      tag_92\n      jump\t// in\n    tag_115:\n        /* \"#utility.yul\":194:229   */\n      swap1\n      pop\n        /* \"#utility.yul\":139:235   */\n      swap2\n      swap1\n      pop\n      jump\t// out\n        /* \"#utility.yul\":241:359   */\n    tag_94:\n        /* \"#utility.yul\":328:352   */\n      tag_117\n        /* \"#utility.yul\":346:351   */\n      dup2\n        /* \"#utility.yul\":328:352   */\n      tag_93\n      jump\t// in\n    tag_117:\n        /* \"#utility.yul\":323:326   */\n      dup3\n        /* \"#utility.yul\":316:353   */\n      mstore\n        /* \"#utility.yul\":241:359   */\n      pop\n      pop\n      jump\t// out\n        /* \"#utility.yul\":365:587   */\n    tag_21:\n        /* \"#utility.yul\":458:462   */\n      0x00\n        /* \"#utility.yul\":496:498   */\n      0x20\n        /* \"#utility.yul\":485:494   */\n      dup3\n        /* \"#utility.yul\":481:499   */\n      add\n        /* \"#utility.yul\":473:499   */\n      swap1\n      pop\n        /* \"#utility.yul\":509:580   */\n      tag_119\n        /* \"#utility.yul\":577:578   */\n      0x00\n        /* \"#utility.yul\":566:575   */\n      dup4\n        /* \"#utility.yul\":562:579   */\n      add\n        /* \"#utility.yul\":553:559   */\n      dup5\n        /* \"#utility.yul\":509:580   */\n      tag_94\n      jump\t// in\n    tag_119:\n        /* \"#utility.yul\":365:587   */\n      swap3\n      swap2\n      pop\n      pop\n      jump\t// out\n        /* \"#utility.yul\":674:791   */\n    tag_96:\n        /* \"#utility.yul\":783:784   */\n      0x00\n        /* \"#utility.yul\":780:781   */\n      dup1\n        /* \"#utility.yul\":773:785   */\n      revert\n        /* \"#utility.yul\":920:1042   */\n    tag_98:\n        /* \"#utility.yul\":993:1017   */\n      tag_124\n        /* \"#utility.yul\":1011:1016   */\n      dup2\n        /* \"#utility.yul\":993:1017   */\n      tag_93\n      jump\t// in\n    tag_124:\n        /* \"#utility.yul\":986:991   */\n      dup2\n        /* \"#utility.yul\":983:1018   */\n      eq\n        /* \"#utility.yul\":973:1036   */\n      tag_125\n      jumpi\n        /* \"#utility.yul\":1032:1033   */\n      0x00\n        /* \"#utility.yul\":1029:1030   */\n      dup1\n        /* \"#utility.yul\":1022:1034   */\n      revert\n        /* \"#utility.yul\":973:1036   */\n    tag_125:\n        /* \"#utility.yul\":920:1042   */\n      pop\n      jump\t// out\n        /* \"#utility.yul\":1048:1187   */\n    tag_99:\n        /* \"#utility.yul\":1094:1099   */\n      0x00\n        /* \"#utility.yul\":1132:1138   */\n      dup2\n        /* \"#utility.yul\":1119:1139   */\n      calldataload\n        /* \"#utility.yul\":1110:1139   */\n      swap1\n      pop\n        /* \"#utility.yul\":1148:1181   */\n      tag_127\n        /* \"#utility.yul\":1175:1180   */\n      dup2\n        /* \"#utility.yul\":1148:1181   */\n      tag_98\n      jump\t// in\n    tag_127:\n        /* \"#utility.yul\":1048:1187   */\n      swap3\n      swap2\n      pop\n      pop\n      jump\t// out\n        /* \"#utility.yul\":1193:1522   */\n    tag_24:\n        /* \"#utility.yul\":1252:1258   */\n      0x00\n        /* \"#utility.yul\":1301:1303   */\n      0x20\n        /* \"#utility.yul\":1289:1298   */\n      dup3\n        /* \"#utility.yul\":1280:1287   */\n      dup5\n        /* \"#utility.yul\":1276:1299   */\n      sub\n        /* \"#utility.yul\":1272:1304   */\n      slt\n        /* \"#utility.yul\":1269:1388   */\n      iszero\n      tag_129\n      jumpi\n        /* \"#utility.yul\":1307:1386   */\n      tag_130\n      tag_96\n      jump\t// in\n    tag_130:\n        /* \"#utility.yul\":1269:1388   */\n    tag_129:\n        /* \"#utility.yul\":1427:1428   */\n      0x00\n        /* \"#utility.yul\":1452:1505   */\n      tag_131\n        /* \"#utility.yul\":1497:1504   */\n      dup5\n        /* \"#utility.yul\":1488:1494   */\n      dup3\n        /* \"#utility.yul\":1477:1486   */\n      dup6\n        /* \"#utility.yul\":1473:1495   */\n      add\n        /* \"#utility.yul\":1452:1505   */\n      tag_99\n      jump\t// in\n    tag_131:\n        /* \"#utility.yul\":1442:1505   */\n      swap2\n      pop\n        /* \"#utility.yul\":1398:1515   */\n      pop\n        /* \"#utility.yul\":1193:1522   */\n      swap3\n      swap2\n      pop\n      pop\n      jump\t// out\n        /* \"#utility.yul\":1528:1605   */\n    tag_100:\n        /* \"#utility.yul\":1565:1572   */\n      0x00\n        /* \"#utility.yul\":1594:1599   */\n      dup2\n        /* \"#utility.yul\":1583:1599   */\n      swap1\n      pop\n        /* \"#utility.yul\":1528:1605   */\n      swap2\n      swap1\n      pop\n      jump\t// out\n        /* \"#utility.yul\":1611:1729   */\n    tag_101:\n        /* \"#utility.yul\":1698:1722   */\n      tag_134\n        /* \"#utility.yul\":1716:1721   */\n      dup2\n        /* \"#utility.yul\":1698:1722   */\n      tag_100\n      jump\t// in\n    tag_134:\n        /* \"#utility.yul\":1693:1696   */\n      dup3\n        /* \"#utility.yul\":1686:1723   */\n      mstore\n        /* \"#utility.yul\":1611:1729   */\n      pop\n      pop\n      jump\t// out\n        /* \"#utility.yul\":1735:1957   */\n    tag_31:\n        /* \"#utility.yul\":1828:1832   */\n      0x00\n        /* \"#utility.yul\":1866:1868   */\n      0x20\n        /* \"#utility.yul\":1855:1864   */\n      dup3\n        /* \"#utility.yul\":1851:1869   */\n      add\n        /* \"#utility.yul\":1843:1869   */\n      swap1\n      pop\n        /* \"#utility.yul\":1879:1950   */\n      tag_136\n        /* \"#utility.yul\":1947:1948   */\n      0x00\n        /* \"#utility.yul\":1936:1945   */\n      dup4\n        /* \"#utility.yul\":1932:1949   */\n      add\n        /* \"#utility.yul\":1923:1929   */\n      dup5\n        /* \"#utility.yul\":1879:1950   */\n      tag_101\n      jump\t// in\n    tag_136:\n        /* \"#utility.yul\":1735:1957   */\n      swap3\n      swap2\n      pop\n      pop\n      jump\t// out\n        /* \"#utility.yul\":1963:2085   */\n    tag_102:\n        /* \"#utility.yul\":2036:2060   */\n      tag_138\n        /* \"#utility.yul\":2054:2059   */\n      dup2\n        /* \"#utility.yul\":2036:2060   */\n      tag_100\n      jump\t// in\n    tag_138:\n        /* \"#utility.yul\":2029:2034   */\n      dup2\n        /* \"#utility.yul\":2026:2061   */\n      eq\n        /* \"#utility.yul\":2016:2079   */\n      tag_139\n      jumpi\n        /* \"#utility.yul\":2075:2076   */\n      0x00\n        /* \"#utility.yul\":2072:2073   */\n      dup1\n        /* \"#utility.yul\":2065:2077   */\n      revert\n        /* \"#utility.yul\":2016:2079   */\n    tag_139:\n        /* \"#utility.yul\":1963:2085   */\n      pop\n      jump\t// out\n        /* \"#utility.yul\":2091:2230   */\n    tag_103:\n        /* \"#utility.yul\":2137:2142   */\n      0x00\n        /* \"#utility.yul\":2175:2181   */\n      dup2\n        /* \"#utility.yul\":2162:2182   */\n      calldataload\n        /* \"#utility.yul\":2153:2182   */\n      swap1\n      pop\n        /* \"#utility.yul\":2191:2224   */\n      tag_141\n        /* \"#utility.yul\":2218:2223   */\n      dup2\n        /* \"#utility.yul\":2191:2224   */\n      tag_102\n      jump\t// in\n    tag_141:\n        /* \"#utility.yul\":2091:2230   */\n      swap3\n      swap2\n      pop\n      pop\n      jump\t// out\n        /* \"#utility.yul\":2236:2565   */\n    tag_34:\n        /* \"#utility.yul\":2295:2301   */\n      0x00\n        /* \"#utility.yul\":2344:2346   */\n      0x20\n        /* \"#utility.yul\":2332:2341   */\n      dup3\n        /* \"#utility.yul\":2323:2330   */\n      dup5\n        /* \"#utility.yul\":2319:2342   */\n      sub\n        /* \"#utility.yul\":2315:2347   */\n      slt\n        /* \"#utility.yul\":2312:2431   */\n      iszero\n      tag_143\n      jumpi\n        /* \"#utility.yul\":2350:2429   */\n      tag_144\n      tag_96\n      jump\t// in\n    tag_144:\n        /* \"#utility.yul\":2312:2431   */\n    tag_143:\n        /* \"#utility.yul\":2470:2471   */\n      0x00\n        /* \"#utility.yul\":2495:2548   */\n      tag_145\n        /* \"#utility.yul\":2540:2547   */\n      dup5\n        /* \"#utility.yul\":2531:2537   */\n      dup3\n        /* \"#utility.yul\":2520:2529   */\n      dup6\n        /* \"#utility.yul\":2516:2538   */\n      add\n        /* \"#utility.yul\":2495:2548   */\n      tag_103\n      jump\t// in\n    tag_145:\n        /* \"#utility.yul\":2485:2548   */\n      swap2\n      pop\n        /* \"#utility.yul\":2441:2558   */\n      pop\n        /* \"#utility.yul\":2236:2565   */\n      swap3\n      swap2\n      pop\n      pop\n      jump\t// out\n        /* \"#utility.yul\":2571:2679   */\n    tag_104:\n        /* \"#utility.yul\":2648:2672   */\n      tag_147\n        /* \"#utility.yul\":2666:2671   */\n      dup2\n        /* \"#utility.yul\":2648:2672   */\n      tag_93\n      jump\t// in\n    tag_147:\n        /* \"#utility.yul\":2643:2646   */\n      dup3\n        /* \"#utility.yul\":2636:2673   */\n      mstore\n        /* \"#utility.yul\":2571:2679   */\n      pop\n      pop\n      jump\t// out\n        /* \"#utility.yul\":2685:2775   */\n    tag_105:\n        /* \"#utility.yul\":2719:2726   */\n      0x00\n        /* \"#utility.yul\":2762:2767   */\n      dup2\n        /* \"#utility.yul\":2755:2768   */\n      iszero\n        /* \"#utility.yul\":2748:2769   */\n      iszero\n        /* \"#utility.yul\":2737:2769   */\n      swap1\n      pop\n        /* \"#utility.yul\":2685:2775   */\n      swap2\n      swap1\n      pop\n      jump\t// out\n        /* \"#utility.yul\":2781:2880   */\n    tag_106:\n        /* \"#utility.yul\":2852:2873   */\n      tag_150\n        /* \"#utility.yul\":2867:2872   */\n      dup2\n        /* \"#utility.yul\":2852:2873   */\n      tag_105\n      jump\t// in\n    tag_150:\n        /* \"#utility.yul\":2847:2850   */\n      dup3\n        /* \"#utility.yul\":2840:2874   */\n      mstore\n        /* \"#utility.yul\":2781:2880   */\n      pop\n      pop\n      jump\t// out\n        /* \"#utility.yul\":2976:4037   */\n    tag_107:\n        /* \"#utility.yul\":3149:3153   */\n      0xa0\n        /* \"#utility.yul\":3144:3147   */\n      dup3\n        /* \"#utility.yul\":3140:3154   */\n      add\n        /* \"#utility.yul\":3242:3246   */\n      0x00\n        /* \"#utility.yul\":3235:3240   */\n      dup3\n        /* \"#utility.yul\":3231:3247   */\n      add\n        /* \"#utility.yul\":3225:3248   */\n      mload\n        /* \"#utility.yul\":3261:3324   */\n      tag_152\n        /* \"#utility.yul\":3318:3322   */\n      0x00\n        /* \"#utility.yul\":3313:3316   */\n      dup6\n        /* \"#utility.yul\":3309:3323   */\n      add\n        /* \"#utility.yul\":3295:3307   */\n      dup3\n        /* \"#utility.yul\":3261:3324   */\n      tag_104\n      jump\t// in\n    tag_152:\n        /* \"#utility.yul\":3164:3334   */\n      pop\n        /* \"#utility.yul\":3418:3422   */\n      0x20\n        /* \"#utility.yul\":3411:3416   */\n      dup3\n        /* \"#utility.yul\":3407:3423   */\n      add\n        /* \"#utility.yul\":3401:3424   */\n      mload\n        /* \"#utility.yul\":3437:3494   */\n      tag_153\n        /* \"#utility.yul\":3488:3492   */\n      0x20\n        /* \"#utility.yul\":3483:3486   */\n      dup6\n        /* \"#utility.yul\":3479:3493   */\n      add\n        /* \"#utility.yul\":3465:3477   */\n      dup3\n        /* \"#utility.yul\":3437:3494   */\n      tag_106\n      jump\t// in\n    tag_153:\n        /* \"#utility.yul\":3344:3504   */\n      pop\n        /* \"#utility.yul\":3593:3597   */\n      0x40\n        /* \"#utility.yul\":3586:3591   */\n      dup3\n        /* \"#utility.yul\":3582:3598   */\n      add\n        /* \"#utility.yul\":3576:3599   */\n      mload\n        /* \"#utility.yul\":3612:3669   */\n      tag_154\n        /* \"#utility.yul\":3663:3667   */\n      0x40\n        /* \"#utility.yul\":3658:3661   */\n      dup6\n        /* \"#utility.yul\":3654:3668   */\n      add\n        /* \"#utility.yul\":3640:3652   */\n      dup3\n        /* \"#utility.yul\":3612:3669   */\n      tag_106\n      jump\t// in\n    tag_154:\n        /* \"#utility.yul\":3514:3679   */\n      pop\n        /* \"#utility.yul\":3770:3774   */\n      0x60\n        /* \"#utility.yul\":3763:3768   */\n      dup3\n        /* \"#utility.yul\":3759:3775   */\n      add\n        /* \"#utility.yul\":3753:3776   */\n      mload\n        /* \"#utility.yul\":3789:3846   */\n      tag_155\n        /* \"#utility.yul\":3840:3844   */\n      0x60\n        /* \"#utility.yul\":3835:3838   */\n      dup6\n        /* \"#utility.yul\":3831:3845   */\n      add\n        /* \"#utility.yul\":3817:3829   */\n      dup3\n        /* \"#utility.yul\":3789:3846   */\n      tag_106\n      jump\t// in\n    tag_155:\n        /* \"#utility.yul\":3689:3856   */\n      pop\n        /* \"#utility.yul\":3944:3948   */\n      0x80\n        /* \"#utility.yul\":3937:3942   */\n      dup3\n        /* \"#utility.yul\":3933:3949   */\n      add\n        /* \"#utility.yul\":3927:3950   */\n      mload\n        /* \"#utility.yul\":3963:4020   */\n      tag_156\n        /* \"#utility.yul\":4014:4018   */\n      0x80\n        /* \"#utility.yul\":4009:4012   */\n      dup6\n        /* \"#utility.yul\":4005:4019   */\n      add\n        /* \"#utility.yul\":3991:4003   */\n      dup3\n        /* \"#utility.yul\":3963:4020   */\n      tag_106\n      jump\t// in\n    tag_156:\n        /* \"#utility.yul\":3866:4030   */\n      pop\n        /* \"#utility.yul\":3118:4037   */\n      pop\n        /* \"#utility.yul\":2976:4037   */\n      pop\n      pop\n      jump\t// out\n        /* \"#utility.yul\":4043:4418   */\n    tag_37:\n        /* \"#utility.yul\":4212:4216   */\n      0x00\n        /* \"#utility.yul\":4250:4253   */\n      0xa0\n        /* \"#utility.yul\":4239:4248   */\n      dup3\n        /* \"#utility.yul\":4235:4254   */\n      add\n        /* \"#utility.yul\":4227:4254   */\n      swap1\n      pop\n        /* \"#utility.yul\":4264:4411   */\n      tag_158\n        /* \"#utility.yul\":4408:4409   */\n      0x00\n        /* \"#utility.yul\":4397:4406   */\n      dup4\n        /* \"#utility.yul\":4393:4410   */\n      add\n        /* \"#utility.yul\":4384:4390   */\n      dup5\n        /* \"#utility.yul\":4264:4411   */\n      tag_107\n      jump\t// in\n    tag_158:\n        /* \"#utility.yul\":4043:4418   */\n      swap3\n      swap2\n      pop\n      pop\n      jump\t// out\n        /* \"#utility.yul\":4424:4533   */\n    tag_108:\n        /* \"#utility.yul\":4505:4526   */\n      tag_160\n        /* \"#utility.yul\":4520:4525   */\n      dup2\n        /* \"#utility.yul\":4505:4526   */\n      tag_105\n      jump\t// in\n    tag_160:\n        /* \"#utility.yul\":4500:4503   */\n      dup3\n        /* \"#utility.yul\":4493:4527   */\n      mstore\n        /* \"#utility.yul\":4424:4533   */\n      pop\n      pop\n      jump\t// out\n        /* \"#utility.yul\":4539:5155   */\n    tag_54:\n        /* \"#utility.yul\":4720:4724   */\n      0x00\n        /* \"#utility.yul\":4758:4761   */\n      0xa0\n        /* \"#utility.yul\":4747:4756   */\n      dup3\n        /* \"#utility.yul\":4743:4762   */\n      add\n        /* \"#utility.yul\":4735:4762   */\n      swap1\n      pop\n        /* \"#utility.yul\":4772:4843   */\n      tag_162\n        /* \"#utility.yul\":4840:4841   */\n      0x00\n        /* \"#utility.yul\":4829:4838   */\n      dup4\n        /* \"#utility.yul\":4825:4842   */\n      add\n        /* \"#utility.yul\":4816:4822   */\n      dup9\n        /* \"#utility.yul\":4772:4843   */\n      tag_94\n      jump\t// in\n    tag_162:\n        /* \"#utility.yul\":4853:4919   */\n      tag_163\n        /* \"#utility.yul\":4915:4917   */\n      0x20\n        /* \"#utility.yul\":4904:4913   */\n      dup4\n        /* \"#utility.yul\":4900:4918   */\n      add\n        /* \"#utility.yul\":4891:4897   */\n      dup8\n        /* \"#utility.yul\":4853:4919   */\n      tag_108\n      jump\t// in\n    tag_163:\n        /* \"#utility.yul\":4929:4995   */\n      tag_164\n        /* \"#utility.yul\":4991:4993   */\n      0x40\n        /* \"#utility.yul\":4980:4989   */\n      dup4\n        /* \"#utility.yul\":4976:4994   */\n      add\n        /* \"#utility.yul\":4967:4973   */\n      dup7\n        /* \"#utility.yul\":4929:4995   */\n      tag_108\n      jump\t// in\n    tag_164:\n        /* \"#utility.yul\":5005:5071   */\n      tag_165\n        /* \"#utility.yul\":5067:5069   */\n      0x60\n        /* \"#utility.yul\":5056:5065   */\n      dup4\n        /* \"#utility.yul\":5052:5070   */\n      add\n        /* \"#utility.yul\":5043:5049   */\n      dup6\n        /* \"#utility.yul\":5005:5071   */\n      tag_108\n      jump\t// in\n    tag_165:\n        /* \"#utility.yul\":5081:5148   */\n      tag_166\n        /* \"#utility.yul\":5143:5146   */\n      0x80\n        /* \"#utility.yul\":5132:5141   */\n      dup4\n        /* \"#utility.yul\":5128:5147   */\n      add\n        /* \"#utility.yul\":5119:5125   */\n      dup5\n        /* \"#utility.yul\":5081:5148   */\n      tag_108\n      jump\t// in\n    tag_166:\n        /* \"#utility.yul\":4539:5155   */\n      swap7\n      swap6\n      pop\n      pop\n      pop\n      pop\n      pop\n      pop\n      jump\t// out\n        /* \"#utility.yul\":5161:5277   */\n    tag_109:\n        /* \"#utility.yul\":5231:5252   */\n      tag_168\n        /* \"#utility.yul\":5246:5251   */\n      dup2\n        /* \"#utility.yul\":5231:5252   */\n      tag_105\n      jump\t// in\n    tag_168:\n        /* \"#utility.yul\":5224:5229   */\n      dup2\n        /* \"#utility.yul\":5221:5253   */\n      eq\n        /* \"#utility.yul\":5211:5271   */\n      tag_169\n      jumpi\n        /* \"#utility.yul\":5267:5268   */\n      0x00\n        /* \"#utility.yul\":5264:5265   */\n      dup1\n        /* \"#utility.yul\":5257:5269   */\n      revert\n        /* \"#utility.yul\":5211:5271   */\n    tag_169:\n        /* \"#utility.yul\":5161:5277   */\n      pop\n      jump\t// out\n        /* \"#utility.yul\":5283:5416   */\n    tag_110:\n        /* \"#utility.yul\":5326:5331   */\n      0x00\n        /* \"#utility.yul\":5364:5370   */\n      dup2\n        /* \"#utility.yul\":5351:5371   */\n      calldataload\n        /* \"#utility.yul\":5342:5371   */\n      swap1\n      pop\n        /* \"#utility.yul\":5380:5410   */\n      tag_171\n        /* \"#utility.yul\":5404:5409   */\n      dup2\n        /* \"#utility.yul\":5380:5410   */\n      tag_109\n      jump\t// in\n    tag_171:\n        /* \"#utility.yul\":5283:5416   */\n      swap3\n      swap2\n      pop\n      pop\n      jump\t// out\n        /* \"#utility.yul\":5422:6309   */\n    tag_60:\n        /* \"#utility.yul\":5505:5511   */\n      0x00\n        /* \"#utility.yul\":5513:5519   */\n      dup1\n        /* \"#utility.yul\":5521:5527   */\n      0x00\n        /* \"#utility.yul\":5529:5535   */\n      dup1\n        /* \"#utility.yul\":5537:5543   */\n      0x00\n        /* \"#utility.yul\":5586:5589   */\n      0xa0\n        /* \"#utility.yul\":5574:5583   */\n      dup7\n        /* \"#utility.yul\":5565:5572   */\n      dup9\n        /* \"#utility.yul\":5561:5584   */\n      sub\n        /* \"#utility.yul\":5557:5590   */\n      slt\n        /* \"#utility.yul\":5554:5674   */\n      iszero\n      tag_173\n      jumpi\n        /* \"#utility.yul\":5593:5672   */\n      tag_174\n      tag_96\n      jump\t// in\n    tag_174:\n        /* \"#utility.yul\":5554:5674   */\n    tag_173:\n        /* \"#utility.yul\":5713:5714   */\n      0x00\n        /* \"#utility.yul\":5738:5791   */\n      tag_175\n        /* \"#utility.yul\":5783:5790   */\n      dup9\n        /* \"#utility.yul\":5774:5780   */\n      dup3\n        /* \"#utility.yul\":5763:5772   */\n      dup10\n        /* \"#utility.yul\":5759:5781   */\n      add\n        /* \"#utility.yul\":5738:5791   */\n      tag_103\n      jump\t// in\n    tag_175:\n        /* \"#utility.yul\":5728:5791   */\n      swap6\n      pop\n        /* \"#utility.yul\":5684:5801   */\n      pop\n        /* \"#utility.yul\":5840:5842   */\n      0x20\n        /* \"#utility.yul\":5866:5916   */\n      tag_176\n        /* \"#utility.yul\":5908:5915   */\n      dup9\n        /* \"#utility.yul\":5899:5905   */\n      dup3\n        /* \"#utility.yul\":5888:5897   */\n      dup10\n        /* \"#utility.yul\":5884:5906   */\n      add\n        /* \"#utility.yul\":5866:5916   */\n      tag_110\n      jump\t// in\n    tag_176:\n        /* \"#utility.yul\":5856:5916   */\n      swap5\n      pop\n        /* \"#utility.yul\":5811:5926   */\n      pop\n        /* \"#utility.yul\":5965:5967   */\n      0x40\n        /* \"#utility.yul\":5991:6041   */\n      tag_177\n        /* \"#utility.yul\":6033:6040   */\n      dup9\n        /* \"#utility.yul\":6024:6030   */\n      dup3\n        /* \"#utility.yul\":6013:6022   */\n      dup10\n        /* \"#utility.yul\":6009:6031   */\n      add\n        /* \"#utility.yul\":5991:6041   */\n      tag_110\n      jump\t// in\n    tag_177:\n        /* \"#utility.yul\":5981:6041   */\n      swap4\n      pop\n        /* \"#utility.yul\":5936:6051   */\n      pop\n        /* \"#utility.yul\":6090:6092   */\n      0x60\n        /* \"#utility.yul\":6116:6166   */\n      tag_178\n        /* \"#utility.yul\":6158:6165   */\n      dup9\n        /* \"#utility.yul\":6149:6155   */\n      dup3\n        /* \"#utility.yul\":6138:6147   */\n      dup10\n        /* \"#utility.yul\":6134:6156   */\n      add\n        /* \"#utility.yul\":6116:6166   */\n      tag_110\n      jump\t// in\n    tag_178:\n        /* \"#utility.yul\":6106:6166   */\n      swap3\n      pop\n        /* \"#utility.yul\":6061:6176   */\n      pop\n        /* \"#utility.yul\":6215:6218   */\n      0x80\n        /* \"#utility.yul\":6242:6292   */\n      tag_179\n        /* \"#utility.yul\":6284:6291   */\n      dup9\n        /* \"#utility.yul\":6275:6281   */\n      dup3\n        /* \"#utility.yul\":6264:6273   */\n      dup10\n        /* \"#utility.yul\":6260:6282   */\n      add\n        /* \"#utility.yul\":6242:6292   */\n      tag_110\n      jump\t// in\n    tag_179:\n        /* \"#utility.yul\":6232:6292   */\n      swap2\n      pop\n        /* \"#utility.yul\":6186:6302   */\n      pop\n        /* \"#utility.yul\":5422:6309   */\n      swap3\n      swap6\n      pop\n      swap3\n      swap6\n      swap1\n      swap4\n      pop\n      jump\t// out\n        /* \"#utility.yul\":6315:6495   */\n    tag_111:\n        /* \"#utility.yul\":6363:6440   */\n      0x4e487b7100000000000000000000000000000000000000000000000000000000\n        /* \"#utility.yul\":6360:6361   */\n      0x00\n        /* \"#utility.yul\":6353:6441   */\n      mstore\n        /* \"#utility.yul\":6460:6464   */\n      0x11\n        /* \"#utility.yul\":6457:6458   */\n      0x04\n        /* \"#utility.yul\":6450:6465   */\n      mstore\n        /* \"#utility.yul\":6484:6488   */\n      0x24\n        /* \"#utility.yul\":6481:6482   */\n      0x00\n        /* \"#utility.yul\":6474:6489   */\n      revert\n        /* \"#utility.yul\":6501:6734   */\n    tag_69:\n        /* \"#utility.yul\":6540:6543   */\n      0x00\n        /* \"#utility.yul\":6563:6587   */\n      tag_182\n        /* \"#utility.yul\":6581:6586   */\n      dup3\n        /* \"#utility.yul\":6563:6587   */\n      tag_100\n      jump\t// in\n    tag_182:\n        /* \"#utility.yul\":6554:6587   */\n      swap2\n      pop\n        /* \"#utility.yul\":6609:6675   */\n      0xffffffffffffffffffffffffffffffffffffffffffffffffffffffffffffffff\n        /* \"#utility.yul\":6602:6607   */\n      dup3\n        /* \"#utility.yul\":6599:6676   */\n      sub\n        /* \"#utility.yul\":6596:6699   */\n      tag_183\n      jumpi\n        /* \"#utility.yul\":6679:6697   */\n      tag_184\n      tag_111\n      jump\t// in\n    tag_184:\n        /* \"#utility.yul\":6596:6699   */\n    tag_183:\n        /* \"#utility.yul\":6726:6727   */\n      0x01\n        /* \"#utility.yul\":6719:6724   */\n      dup3\n        /* \"#utility.yul\":6715:6728   */\n      add\n        /* \"#utility.yul\":6708:6728   */\n      swap1\n      pop\n        /* \"#utility.yul\":6501:6734   */\n      swap2\n      swap1\n      pop\n      jump\t// out\n        /* \"#utility.yul\":6740:6934   */\n    tag_85:\n        /* \"#utility.yul\":6780:6784   */\n      0x00\n        /* \"#utility.yul\":6800:6820   */\n      tag_186\n        /* \"#utility.yul\":6818:6819   */\n      dup3\n        /* \"#utility.yul\":6800:6820   */\n      tag_100\n      jump\t// in\n    tag_186:\n        /* \"#utility.yul\":6795:6820   */\n      swap2\n      pop\n        /* \"#utility.yul\":6834:6854   */\n      tag_187\n        /* \"#utility.yul\":6852:6853   */\n      dup4\n        /* \"#utility.yul\":6834:6854   */\n      tag_100\n      jump\t// in\n    tag_187:\n        /* \"#utility.yul\":6829:6854   */\n      swap3\n      pop\n        /* \"#utility.yul\":6878:6879   */\n      dup3\n        /* \"#utility.yul\":6875:6876   */\n      dup3\n        /* \"#utility.yul\":6871:6880   */\n      sub\n        /* \"#utility.yul\":6863:6880   */\n      swap1\n      pop\n        /* \"#utility.yul\":6902:6903   */\n      dup2\n        /* \"#utility.yul\":6896:6900   */\n      dup2\n        /* \"#utility.yul\":6893:6904   */\n      gt\n        /* \"#utility.yul\":6890:6927   */\n      iszero\n      tag_188\n      jumpi\n        /* \"#utility.yul\":6907:6925   */\n      tag_189\n      tag_111\n      jump\t// in\n    tag_189:\n        /* \"#utility.yul\":6890:6927   */\n    tag_188:\n        /* \"#utility.yul\":6740:6934   */\n      swap3\n      swap2\n      pop\n      pop\n      jump\t// out\n\n    auxdata: 0xa2646970667358221220c03961ccd2d8a2ebdf8e57da511d2f5bfcf21449942d6c898910d49353482c4764736f6c634300081a0033\n}\n",
				"bytecode": {
					"linkReferences": {},
					"object": "608060405260016002553360015f6101000a81548173ffffffffffffffffffffffffffffffffffffffff021916908373ffffffffffffffffffffffffffffffffffffffff160217905550610ff2806100565f395ff3fe608060405234801561000f575f80fd5b50600436106100cd575f3560e01c8063a168837e1161008a578063b596704f11610064578063b596704f146101d7578063bc0f160a1461020b578063c328848a14610229578063d0ebdbe714610245576100cd565b8063a168837e1461017f578063b1965e6c1461019b578063b480906c146101b9576100cd565b8063023a96fe146100d157806306327b1a146100ef5780630b8769d81461010b5780634619246f1461011557806389bdfdc314610133578063905d070914610163575b5f80fd5b6100d9610261565b6040516100e69190610c74565b60405180910390f35b61010960048036038101906101049190610cbb565b610284565b005b61011361043e565b005b61011d610505565b60405161012a9190610cfe565b60405180910390f35b61014d60048036038101906101489190610d41565b61050b565b60405161015a9190610dfb565b60405180910390f35b61017d60048036038101906101789190610d41565b6105f2565b005b61019960048036038101906101949190610cbb565b6107c4565b005b6101a361088b565b6040516101b09190610cfe565b60405180910390f35b6101c1610894565b6040516101ce9190610cfe565b60405180910390f35b6101f160048036038101906101ec9190610d41565b6108a9565b604051610202959493929190610e23565b60405180910390f35b61021361092a565b6040516102209190610c74565b60405180910390f35b610243600480360381019061023e9190610e9e565b61094f565b005b61025f600480360381019061025a9190610cbb565b610b25565b005b5f8054906101000a900473ffffffffffffffffffffffffffffffffffffffff1681565b5f8054906101000a900473ffffffffffffffffffffffffffffffffffffffff1673ffffffffffffffffffffffffffffffffffffffff163373ffffffffffffffffffffffffffffffffffffffff1614610308576040517fbfc0693900000000000000000000000000000000000000000000000000000000815260040160405180910390fd5b5f60025f81548092919061031b90610f42565b9190505590506040518060a001604052808373ffffffffffffffffffffffffffffffffffffffff1681526020015f151581526020015f151581526020015f151581526020015f151581525060035f8381526020019081526020015f205f820151815f015f6101000a81548173ffffffffffffffffffffffffffffffffffffffff021916908373ffffffffffffffffffffffffffffffffffffffff1602179055506020820151815f0160146101000a81548160ff0219169083151502179055506040820151815f0160156101000a81548160ff0219169083151502179055506060820151815f0160166101000a81548160ff0219169083151502179055506080820151815f0160176101000a81548160ff0219169083151502179055509050505050565b60015f9054906101000a900473ffffffffffffffffffffffffffffffffffffffff1673ffffffffffffffffffffffffffffffffffffffff163373ffffffffffffffffffffffffffffffffffffffff16146104c4576040517f126f181e00000000000000000000000000000000000000000000000000000000815260040160405180910390fd5b5f805f6101000a81548173ffffffffffffffffffffffffffffffffffffffff021916908373ffffffffffffffffffffffffffffffffffffffff160217905550565b60025481565b610513610bed565b60035f8381526020019081526020015f206040518060a00160405290815f82015f9054906101000a900473ffffffffffffffffffffffffffffffffffffffff1673ffffffffffffffffffffffffffffffffffffffff1673ffffffffffffffffffffffffffffffffffffffff1681526020015f820160149054906101000a900460ff161515151581526020015f820160159054906101000a900460ff161515151581526020015f820160169054906101000a900460ff161515151581526020015f820160179054906101000a900460ff1615151515815250509050919050565b5f8054906101000a900473ffffffffffffffffffffffffffffffffffffffff1673ffffffffffffffffffffffffffffffffffffffff163373ffffffffffffffffffffffffffffffffffffffff1614610676576040517fbfc0693900000000000000000000000000000000000000000000000000000000815260040160405180910390fd5b6040518060a0016040528060035f8481526020019081526020015f205f015f9054906101000a900473ffffffffffffffffffffffffffffffffffffffff1673ffffffffffffffffffffffffffffffffffffffff1681526020015f151581526020015f151581526020015f151581526020015f151581525060035f8381526020019081526020015f205f820151815f015f6101000a81548173ffffffffffffffffffffffffffffffffffffffff021916908373ffffffffffffffffffffffffffffffffffffffff1602179055506020820151815f0160146101000a81548160ff0219169083151502179055506040820151815f0160156101000a81548160ff0219169083151502179055506060820151815f0160166101000a81548160ff0219169083151502179055506080820151815f0160176101000a81548160ff02191690831515021790555090505050565b5f8054906101000a900473ffffffffffffffffffffffffffffffffffffffff1673ffffffffffffffffffffffffffffffffffffffff163373ffffffffffffffffffffffffffffffffffffffff1614610848576040517fbfc0693900000000000000000000000000000000000000000000000000000000815260040160405180910390fd5b8060015f6101000a81548173ffffffffffffffffffffffffffffffffffffffff021916908373ffffffffffffffffffffffffffffffffffffffff16021790555050565b5f600254905090565b5f60016002546108a49190610f89565b905090565b6003602052805f5260405f205f91509050805f015f9054906101000a900473ffffffffffffffffffffffffffffffffffffffff1690805f0160149054906101000a900460ff1690805f0160159054906101000a900460ff1690805f0160169054906101000a900460ff1690805f0160179054906101000a900460ff16905085565b60015f9054906101000a900473ffffffffffffffffffffffffffffffffffffffff1681565b5f8054906101000a900473ffffffffffffffffffffffffffffffffffffffff1673ffffffffffffffffffffffffffffffffffffffff163373ffffffffffffffffffffffffffffffffffffffff16146109d3576040517fbfc0693900000000000000000000000000000000000000000000000000000000815260040160405180910390fd5b6040518060a0016040528060035f8881526020019081526020015f205f015f9054906101000a900473ffffffffffffffffffffffffffffffffffffffff1673ffffffffffffffffffffffffffffffffffffffff16815260200185151581526020018415158152602001831515815260200182151581525060035f8781526020019081526020015f205f820151815f015f6101000a81548173ffffffffffffffffffffffffffffffffffffffff021916908373ffffffffffffffffffffffffffffffffffffffff1602179055506020820151815f0160146101000a81548160ff0219169083151502179055506040820151815f0160156101000a81548160ff0219169083151502179055506060820151815f0160166101000a81548160ff0219169083151502179055506080820151815f0160176101000a81548160ff0219169083151502179055509050505050505050565b60015f9054906101000a900473ffffffffffffffffffffffffffffffffffffffff1673ffffffffffffffffffffffffffffffffffffffff163373ffffffffffffffffffffffffffffffffffffffff1614610bab576040517f126f181e00000000000000000000000000000000000000000000000000000000815260040160405180910390fd5b805f806101000a81548173ffffffffffffffffffffffffffffffffffffffff021916908373ffffffffffffffffffffffffffffffffffffffff16021790555050565b6040518060a001604052805f73ffffffffffffffffffffffffffffffffffffffff1681526020015f151581526020015f151581526020015f151581526020015f151581525090565b5f73ffffffffffffffffffffffffffffffffffffffff82169050919050565b5f610c5e82610c35565b9050919050565b610c6e81610c54565b82525050565b5f602082019050610c875f830184610c65565b92915050565b5f80fd5b610c9a81610c54565b8114610ca4575f80fd5b50565b5f81359050610cb581610c91565b92915050565b5f60208284031215610cd057610ccf610c8d565b5b5f610cdd84828501610ca7565b91505092915050565b5f819050919050565b610cf881610ce6565b82525050565b5f602082019050610d115f830184610cef565b92915050565b610d2081610ce6565b8114610d2a575f80fd5b50565b5f81359050610d3b81610d17565b92915050565b5f60208284031215610d5657610d55610c8d565b5b5f610d6384828501610d2d565b91505092915050565b610d7581610c54565b82525050565b5f8115159050919050565b610d8f81610d7b565b82525050565b60a082015f820151610da95f850182610d6c565b506020820151610dbc6020850182610d86565b506040820151610dcf6040850182610d86565b506060820151610de26060850182610d86565b506080820151610df56080850182610d86565b50505050565b5f60a082019050610e0e5f830184610d95565b92915050565b610e1d81610d7b565b82525050565b5f60a082019050610e365f830188610c65565b610e436020830187610e14565b610e506040830186610e14565b610e5d6060830185610e14565b610e6a6080830184610e14565b9695505050505050565b610e7d81610d7b565b8114610e87575f80fd5b50565b5f81359050610e9881610e74565b92915050565b5f805f805f60a08688031215610eb757610eb6610c8d565b5b5f610ec488828901610d2d565b9550506020610ed588828901610e8a565b9450506040610ee688828901610e8a565b9350506060610ef788828901610e8a565b9250506080610f0888828901610e8a565b9150509295509295909350565b7f4e487b71000000000000000000000000000000000000000000000000000000005f52601160045260245ffd5b5f610f4c82610ce6565b91507fffffffffffffffffffffffffffffffffffffffffffffffffffffffffffffffff8203610f7e57610f7d610f15565b5b600182019050919050565b5f610f9382610ce6565b9150610f9e83610ce6565b9250828203905081811115610fb657610fb5610f15565b5b9291505056fea2646970667358221220c03961ccd2d8a2ebdf8e57da511d2f5bfcf21449942d6c898910d49353482c4764736f6c634300081a0033",
					"opcodes": "PUSH1 0x80 PUSH1 0x40 MSTORE PUSH1 0x1 PUSH1 0x2 SSTORE CALLER PUSH1 0x1 PUSH0 PUSH2 0x100 EXP DUP2 SLOAD DUP2 PUSH20 0xFFFFFFFFFFFFFFFFFFFFFFFFFFFFFFFFFFFFFFFF MUL NOT AND SWAP1 DUP4 PUSH20 0xFFFFFFFFFFFFFFFFFFFFFFFFFFFFFFFFFFFFFFFF AND MUL OR SWAP1 SSTORE POP PUSH2 0xFF2 DUP1 PUSH2 0x56 PUSH0 CODECOPY PUSH0 RETURN INVALID PUSH1 0x80 PUSH1 0x40 MSTORE CALLVALUE DUP1 ISZERO PUSH2 0xF JUMPI PUSH0 DUP1 REVERT JUMPDEST POP PUSH1 0x4 CALLDATASIZE LT PUSH2 0xCD JUMPI PUSH0 CALLDATALOAD PUSH1 0xE0 SHR DUP1 PUSH4 0xA168837E GT PUSH2 0x8A JUMPI DUP1 PUSH4 0xB596704F GT PUSH2 0x64 JUMPI DUP1 PUSH4 0xB596704F EQ PUSH2 0x1D7 JUMPI DUP1 PUSH4 0xBC0F160A EQ PUSH2 0x20B JUMPI DUP1 PUSH4 0xC328848A EQ PUSH2 0x229 JUMPI DUP1 PUSH4 0xD0EBDBE7 EQ PUSH2 0x245 JUMPI PUSH2 0xCD JUMP JUMPDEST DUP1 PUSH4 0xA168837E EQ PUSH2 0x17F JUMPI DUP1 PUSH4 0xB1965E6C EQ PUSH2 0x19B JUMPI DUP1 PUSH4 0xB480906C EQ PUSH2 0x1B9 JUMPI PUSH2 0xCD JUMP JUMPDEST DUP1 PUSH4 0x23A96FE EQ PUSH2 0xD1 JUMPI DUP1 PUSH4 0x6327B1A EQ PUSH2 0xEF JUMPI DUP1 PUSH4 0xB8769D8 EQ PUSH2 0x10B JUMPI DUP1 PUSH4 0x4619246F EQ PUSH2 0x115 JUMPI DUP1 PUSH4 0x89BDFDC3 EQ PUSH2 0x133 JUMPI DUP1 PUSH4 0x905D0709 EQ PUSH2 0x163 JUMPI JUMPDEST PUSH0 DUP1 REVERT JUMPDEST PUSH2 0xD9 PUSH2 0x261 JUMP JUMPDEST PUSH1 0x40 MLOAD PUSH2 0xE6 SWAP2 SWAP1 PUSH2 0xC74 JUMP JUMPDEST PUSH1 0x40 MLOAD DUP1 SWAP2 SUB SWAP1 RETURN JUMPDEST PUSH2 0x109 PUSH1 0x4 DUP1 CALLDATASIZE SUB DUP2 ADD SWAP1 PUSH2 0x104 SWAP2 SWAP1 PUSH2 0xCBB JUMP JUMPDEST PUSH2 0x284 JUMP JUMPDEST STOP JUMPDEST PUSH2 0x113 PUSH2 0x43E JUMP JUMPDEST STOP JUMPDEST PUSH2 0x11D PUSH2 0x505 JUMP JUMPDEST PUSH1 0x40 MLOAD PUSH2 0x12A SWAP2 SWAP1 PUSH2 0xCFE JUMP JUMPDEST PUSH1 0x40 MLOAD DUP1 SWAP2 SUB SWAP1 RETURN JUMPDEST PUSH2 0x14D PUSH1 0x4 DUP1 CALLDATASIZE SUB DUP2 ADD SWAP1 PUSH2 0x148 SWAP2 SWAP1 PUSH2 0xD41 JUMP JUMPDEST PUSH2 0x50B JUMP JUMPDEST PUSH1 0x40 MLOAD PUSH2 0x15A SWAP2 SWAP1 PUSH2 0xDFB JUMP JUMPDEST PUSH1 0x40 MLOAD DUP1 SWAP2 SUB SWAP1 RETURN JUMPDEST PUSH2 0x17D PUSH1 0x4 DUP1 CALLDATASIZE SUB DUP2 ADD SWAP1 PUSH2 0x178 SWAP2 SWAP1 PUSH2 0xD41 JUMP JUMPDEST PUSH2 0x5F2 JUMP JUMPDEST STOP JUMPDEST PUSH2 0x199 PUSH1 0x4 DUP1 CALLDATASIZE SUB DUP2 ADD SWAP1 PUSH2 0x194 SWAP2 SWAP1 PUSH2 0xCBB JUMP JUMPDEST PUSH2 0x7C4 JUMP JUMPDEST STOP JUMPDEST PUSH2 0x1A3 PUSH2 0x88B JUMP JUMPDEST PUSH1 0x40 MLOAD PUSH2 0x1B0 SWAP2 SWAP1 PUSH2 0xCFE JUMP JUMPDEST PUSH1 0x40 MLOAD DUP1 SWAP2 SUB SWAP1 RETURN JUMPDEST PUSH2 0x1C1 PUSH2 0x894 JUMP JUMPDEST PUSH1 0x40 MLOAD PUSH2 0x1CE SWAP2 SWAP1 PUSH2 0xCFE JUMP JUMPDEST PUSH1 0x40 MLOAD DUP1 SWAP2 SUB SWAP1 RETURN JUMPDEST PUSH2 0x1F1 PUSH1 0x4 DUP1 CALLDATASIZE SUB DUP2 ADD SWAP1 PUSH2 0x1EC SWAP2 SWAP1 PUSH2 0xD41 JUMP JUMPDEST PUSH2 0x8A9 JUMP JUMPDEST PUSH1 0x40 MLOAD PUSH2 0x202 SWAP6 SWAP5 SWAP4 SWAP3 SWAP2 SWAP1 PUSH2 0xE23 JUMP JUMPDEST PUSH1 0x40 MLOAD DUP1 SWAP2 SUB SWAP1 RETURN JUMPDEST PUSH2 0x213 PUSH2 0x92A JUMP JUMPDEST PUSH1 0x40 MLOAD PUSH2 0x220 SWAP2 SWAP1 PUSH2 0xC74 JUMP JUMPDEST PUSH1 0x40 MLOAD DUP1 SWAP2 SUB SWAP1 RETURN JUMPDEST PUSH2 0x243 PUSH1 0x4 DUP1 CALLDATASIZE SUB DUP2 ADD SWAP1 PUSH2 0x23E SWAP2 SWAP1 PUSH2 0xE9E JUMP JUMPDEST PUSH2 0x94F JUMP JUMPDEST STOP JUMPDEST PUSH2 0x25F PUSH1 0x4 DUP1 CALLDATASIZE SUB DUP2 ADD SWAP1 PUSH2 0x25A SWAP2 SWAP1 PUSH2 0xCBB JUMP JUMPDEST PUSH2 0xB25 JUMP JUMPDEST STOP JUMPDEST PUSH0 DUP1 SLOAD SWAP1 PUSH2 0x100 EXP SWAP1 DIV PUSH20 0xFFFFFFFFFFFFFFFFFFFFFFFFFFFFFFFFFFFFFFFF AND DUP2 JUMP JUMPDEST PUSH0 DUP1 SLOAD SWAP1 PUSH2 0x100 EXP SWAP1 DIV PUSH20 0xFFFFFFFFFFFFFFFFFFFFFFFFFFFFFFFFFFFFFFFF AND PUSH20 0xFFFFFFFFFFFFFFFFFFFFFFFFFFFFFFFFFFFFFFFF AND CALLER PUSH20 0xFFFFFFFFFFFFFFFFFFFFFFFFFFFFFFFFFFFFFFFF AND EQ PUSH2 0x308 JUMPI PUSH1 0x40 MLOAD PUSH32 0xBFC0693900000000000000000000000000000000000000000000000000000000 DUP2 MSTORE PUSH1 0x4 ADD PUSH1 0x40 MLOAD DUP1 SWAP2 SUB SWAP1 REVERT JUMPDEST PUSH0 PUSH1 0x2 PUSH0 DUP2 SLOAD DUP1 SWAP3 SWAP2 SWAP1 PUSH2 0x31B SWAP1 PUSH2 0xF42 JUMP JUMPDEST SWAP2 SWAP1 POP SSTORE SWAP1 POP PUSH1 0x40 MLOAD DUP1 PUSH1 0xA0 ADD PUSH1 0x40 MSTORE DUP1 DUP4 PUSH20 0xFFFFFFFFFFFFFFFFFFFFFFFFFFFFFFFFFFFFFFFF AND DUP2 MSTORE PUSH1 0x20 ADD PUSH0 ISZERO ISZERO DUP2 MSTORE PUSH1 0x20 ADD PUSH0 ISZERO ISZERO DUP2 MSTORE PUSH1 0x20 ADD PUSH0 ISZERO ISZERO DUP2 MSTORE PUSH1 0x20 ADD PUSH0 ISZERO ISZERO DUP2 MSTORE POP PUSH1 0x3 PUSH0 DUP4 DUP2 MSTORE PUSH1 0x20 ADD SWAP1 DUP2 MSTORE PUSH1 0x20 ADD PUSH0 KECCAK256 PUSH0 DUP3 ADD MLOAD DUP2 PUSH0 ADD PUSH0 PUSH2 0x100 EXP DUP2 SLOAD DUP2 PUSH20 0xFFFFFFFFFFFFFFFFFFFFFFFFFFFFFFFFFFFFFFFF MUL NOT AND SWAP1 DUP4 PUSH20 0xFFFFFFFFFFFFFFFFFFFFFFFFFFFFFFFFFFFFFFFF AND MUL OR SWAP1 SSTORE POP PUSH1 0x20 DUP3 ADD MLOAD DUP2 PUSH0 ADD PUSH1 0x14 PUSH2 0x100 EXP DUP2 SLOAD DUP2 PUSH1 0xFF MUL NOT AND SWAP1 DUP4 ISZERO ISZERO MUL OR SWAP1 SSTORE POP PUSH1 0x40 DUP3 ADD MLOAD DUP2 PUSH0 ADD PUSH1 0x15 PUSH2 0x100 EXP DUP2 SLOAD DUP2 PUSH1 0xFF MUL NOT AND SWAP1 DUP4 ISZERO ISZERO MUL OR SWAP1 SSTORE POP PUSH1 0x60 DUP3 ADD MLOAD DUP2 PUSH0 ADD PUSH1 0x16 PUSH2 0x100 EXP DUP2 SLOAD DUP2 PUSH1 0xFF MUL NOT AND SWAP1 DUP4 ISZERO ISZERO MUL OR SWAP1 SSTORE POP PUSH1 0x80 DUP3 ADD MLOAD DUP2 PUSH0 ADD PUSH1 0x17 PUSH2 0x100 EXP DUP2 SLOAD DUP2 PUSH1 0xFF MUL NOT AND SWAP1 DUP4 ISZERO ISZERO MUL OR SWAP1 SSTORE POP SWAP1 POP POP POP POP JUMP JUMPDEST PUSH1 0x1 PUSH0 SWAP1 SLOAD SWAP1 PUSH2 0x100 EXP SWAP1 DIV PUSH20 0xFFFFFFFFFFFFFFFFFFFFFFFFFFFFFFFFFFFFFFFF AND PUSH20 0xFFFFFFFFFFFFFFFFFFFFFFFFFFFFFFFFFFFFFFFF AND CALLER PUSH20 0xFFFFFFFFFFFFFFFFFFFFFFFFFFFFFFFFFFFFFFFF AND EQ PUSH2 0x4C4 JUMPI PUSH1 0x40 MLOAD PUSH32 0x126F181E00000000000000000000000000000000000000000000000000000000 DUP2 MSTORE PUSH1 0x4 ADD PUSH1 0x40 MLOAD DUP1 SWAP2 SUB SWAP1 REVERT JUMPDEST PUSH0 DUP1 PUSH0 PUSH2 0x100 EXP DUP2 SLOAD DUP2 PUSH20 0xFFFFFFFFFFFFFFFFFFFFFFFFFFFFFFFFFFFFFFFF MUL NOT AND SWAP1 DUP4 PUSH20 0xFFFFFFFFFFFFFFFFFFFFFFFFFFFFFFFFFFFFFFFF AND MUL OR SWAP1 SSTORE POP JUMP JUMPDEST PUSH1 0x2 SLOAD DUP2 JUMP JUMPDEST PUSH2 0x513 PUSH2 0xBED JUMP JUMPDEST PUSH1 0x3 PUSH0 DUP4 DUP2 MSTORE PUSH1 0x20 ADD SWAP1 DUP2 MSTORE PUSH1 0x20 ADD PUSH0 KECCAK256 PUSH1 0x40 MLOAD DUP1 PUSH1 0xA0 ADD PUSH1 0x40 MSTORE SWAP1 DUP2 PUSH0 DUP3 ADD PUSH0 SWAP1 SLOAD SWAP1 PUSH2 0x100 EXP SWAP1 DIV PUSH20 0xFFFFFFFFFFFFFFFFFFFFFFFFFFFFFFFFFFFFFFFF AND PUSH20 0xFFFFFFFFFFFFFFFFFFFFFFFFFFFFFFFFFFFFFFFF AND PUSH20 0xFFFFFFFFFFFFFFFFFFFFFFFFFFFFFFFFFFFFFFFF AND DUP2 MSTORE PUSH1 0x20 ADD PUSH0 DUP3 ADD PUSH1 0x14 SWAP1 SLOAD SWAP1 PUSH2 0x100 EXP SWAP1 DIV PUSH1 0xFF AND ISZERO ISZERO ISZERO ISZERO DUP2 MSTORE PUSH1 0x20 ADD PUSH0 DUP3 ADD PUSH1 0x15 SWAP1 SLOAD SWAP1 PUSH2 0x100 EXP SWAP1 DIV PUSH1 0xFF AND ISZERO ISZERO ISZERO ISZERO DUP2 MSTORE PUSH1 0x20 ADD PUSH0 DUP3 ADD PUSH1 0x16 SWAP1 SLOAD SWAP1 PUSH2 0x100 EXP SWAP1 DIV PUSH1 0xFF AND ISZERO ISZERO ISZERO ISZERO DUP2 MSTORE PUSH1 0x20 ADD PUSH0 DUP3 ADD PUSH1 0x17 SWAP1 SLOAD SWAP1 PUSH2 0x100 EXP SWAP1 DIV PUSH1 0xFF AND ISZERO ISZERO ISZERO ISZERO DUP2 MSTORE POP POP SWAP1 POP SWAP2 SWAP1 POP JUMP JUMPDEST PUSH0 DUP1 SLOAD SWAP1 PUSH2 0x100 EXP SWAP1 DIV PUSH20 0xFFFFFFFFFFFFFFFFFFFFFFFFFFFFFFFFFFFFFFFF AND PUSH20 0xFFFFFFFFFFFFFFFFFFFFFFFFFFFFFFFFFFFFFFFF AND CALLER PUSH20 0xFFFFFFFFFFFFFFFFFFFFFFFFFFFFFFFFFFFFFFFF AND EQ PUSH2 0x676 JUMPI PUSH1 0x40 MLOAD PUSH32 0xBFC0693900000000000000000000000000000000000000000000000000000000 DUP2 MSTORE PUSH1 0x4 ADD PUSH1 0x40 MLOAD DUP1 SWAP2 SUB SWAP1 REVERT JUMPDEST PUSH1 0x40 MLOAD DUP1 PUSH1 0xA0 ADD PUSH1 0x40 MSTORE DUP1 PUSH1 0x3 PUSH0 DUP5 DUP2 MSTORE PUSH1 0x20 ADD SWAP1 DUP2 MSTORE PUSH1 0x20 ADD PUSH0 KECCAK256 PUSH0 ADD PUSH0 SWAP1 SLOAD SWAP1 PUSH2 0x100 EXP SWAP1 DIV PUSH20 0xFFFFFFFFFFFFFFFFFFFFFFFFFFFFFFFFFFFFFFFF AND PUSH20 0xFFFFFFFFFFFFFFFFFFFFFFFFFFFFFFFFFFFFFFFF AND DUP2 MSTORE PUSH1 0x20 ADD PUSH0 ISZERO ISZERO DUP2 MSTORE PUSH1 0x20 ADD PUSH0 ISZERO ISZERO DUP2 MSTORE PUSH1 0x20 ADD PUSH0 ISZERO ISZERO DUP2 MSTORE PUSH1 0x20 ADD PUSH0 ISZERO ISZERO DUP2 MSTORE POP PUSH1 0x3 PUSH0 DUP4 DUP2 MSTORE PUSH1 0x20 ADD SWAP1 DUP2 MSTORE PUSH1 0x20 ADD PUSH0 KECCAK256 PUSH0 DUP3 ADD MLOAD DUP2 PUSH0 ADD PUSH0 PUSH2 0x100 EXP DUP2 SLOAD DUP2 PUSH20 0xFFFFFFFFFFFFFFFFFFFFFFFFFFFFFFFFFFFFFFFF MUL NOT AND SWAP1 DUP4 PUSH20 0xFFFFFFFFFFFFFFFFFFFFFFFFFFFFFFFFFFFFFFFF AND MUL OR SWAP1 SSTORE POP PUSH1 0x20 DUP3 ADD MLOAD DUP2 PUSH0 ADD PUSH1 0x14 PUSH2 0x100 EXP DUP2 SLOAD DUP2 PUSH1 0xFF MUL NOT AND SWAP1 DUP4 ISZERO ISZERO MUL OR SWAP1 SSTORE POP PUSH1 0x40 DUP3 ADD MLOAD DUP2 PUSH0 ADD PUSH1 0x15 PUSH2 0x100 EXP DUP2 SLOAD DUP2 PUSH1 0xFF MUL NOT AND SWAP1 DUP4 ISZERO ISZERO MUL OR SWAP1 SSTORE POP PUSH1 0x60 DUP3 ADD MLOAD DUP2 PUSH0 ADD PUSH1 0x16 PUSH2 0x100 EXP DUP2 SLOAD DUP2 PUSH1 0xFF MUL NOT AND SWAP1 DUP4 ISZERO ISZERO MUL OR SWAP1 SSTORE POP PUSH1 0x80 DUP3 ADD MLOAD DUP2 PUSH0 ADD PUSH1 0x17 PUSH2 0x100 EXP DUP2 SLOAD DUP2 PUSH1 0xFF MUL NOT AND SWAP1 DUP4 ISZERO ISZERO MUL OR SWAP1 SSTORE POP SWAP1 POP POP POP JUMP JUMPDEST PUSH0 DUP1 SLOAD SWAP1 PUSH2 0x100 EXP SWAP1 DIV PUSH20 0xFFFFFFFFFFFFFFFFFFFFFFFFFFFFFFFFFFFFFFFF AND PUSH20 0xFFFFFFFFFFFFFFFFFFFFFFFFFFFFFFFFFFFFFFFF AND CALLER PUSH20 0xFFFFFFFFFFFFFFFFFFFFFFFFFFFFFFFFFFFFFFFF AND EQ PUSH2 0x848 JUMPI PUSH1 0x40 MLOAD PUSH32 0xBFC0693900000000000000000000000000000000000000000000000000000000 DUP2 MSTORE PUSH1 0x4 ADD PUSH1 0x40 MLOAD DUP1 SWAP2 SUB SWAP1 REVERT JUMPDEST DUP1 PUSH1 0x1 PUSH0 PUSH2 0x100 EXP DUP2 SLOAD DUP2 PUSH20 0xFFFFFFFFFFFFFFFFFFFFFFFFFFFFFFFFFFFFFFFF MUL NOT AND SWAP1 DUP4 PUSH20 0xFFFFFFFFFFFFFFFFFFFFFFFFFFFFFFFFFFFFFFFF AND MUL OR SWAP1 SSTORE POP POP JUMP JUMPDEST PUSH0 PUSH1 0x2 SLOAD SWAP1 POP SWAP1 JUMP JUMPDEST PUSH0 PUSH1 0x1 PUSH1 0x2 SLOAD PUSH2 0x8A4 SWAP2 SWAP1 PUSH2 0xF89 JUMP JUMPDEST SWAP1 POP SWAP1 JUMP JUMPDEST PUSH1 0x3 PUSH1 0x20 MSTORE DUP1 PUSH0 MSTORE PUSH1 0x40 PUSH0 KECCAK256 PUSH0 SWAP2 POP SWAP1 POP DUP1 PUSH0 ADD PUSH0 SWAP1 SLOAD SWAP1 PUSH2 0x100 EXP SWAP1 DIV PUSH20 0xFFFFFFFFFFFFFFFFFFFFFFFFFFFFFFFFFFFFFFFF AND SWAP1 DUP1 PUSH0 ADD PUSH1 0x14 SWAP1 SLOAD SWAP1 PUSH2 0x100 EXP SWAP1 DIV PUSH1 0xFF AND SWAP1 DUP1 PUSH0 ADD PUSH1 0x15 SWAP1 SLOAD SWAP1 PUSH2 0x100 EXP SWAP1 DIV PUSH1 0xFF AND SWAP1 DUP1 PUSH0 ADD PUSH1 0x16 SWAP1 SLOAD SWAP1 PUSH2 0x100 EXP SWAP1 DIV PUSH1 0xFF AND SWAP1 DUP1 PUSH0 ADD PUSH1 0x17 SWAP1 SLOAD SWAP1 PUSH2 0x100 EXP SWAP1 DIV PUSH1 0xFF AND SWAP1 POP DUP6 JUMP JUMPDEST PUSH1 0x1 PUSH0 SWAP1 SLOAD SWAP1 PUSH2 0x100 EXP SWAP1 DIV PUSH20 0xFFFFFFFFFFFFFFFFFFFFFFFFFFFFFFFFFFFFFFFF AND DUP2 JUMP JUMPDEST PUSH0 DUP1 SLOAD SWAP1 PUSH2 0x100 EXP SWAP1 DIV PUSH20 0xFFFFFFFFFFFFFFFFFFFFFFFFFFFFFFFFFFFFFFFF AND PUSH20 0xFFFFFFFFFFFFFFFFFFFFFFFFFFFFFFFFFFFFFFFF AND CALLER PUSH20 0xFFFFFFFFFFFFFFFFFFFFFFFFFFFFFFFFFFFFFFFF AND EQ PUSH2 0x9D3 JUMPI PUSH1 0x40 MLOAD PUSH32 0xBFC0693900000000000000000000000000000000000000000000000000000000 DUP2 MSTORE PUSH1 0x4 ADD PUSH1 0x40 MLOAD DUP1 SWAP2 SUB SWAP1 REVERT JUMPDEST PUSH1 0x40 MLOAD DUP1 PUSH1 0xA0 ADD PUSH1 0x40 MSTORE DUP1 PUSH1 0x3 PUSH0 DUP9 DUP2 MSTORE PUSH1 0x20 ADD SWAP1 DUP2 MSTORE PUSH1 0x20 ADD PUSH0 KECCAK256 PUSH0 ADD PUSH0 SWAP1 SLOAD SWAP1 PUSH2 0x100 EXP SWAP1 DIV PUSH20 0xFFFFFFFFFFFFFFFFFFFFFFFFFFFFFFFFFFFFFFFF AND PUSH20 0xFFFFFFFFFFFFFFFFFFFFFFFFFFFFFFFFFFFFFFFF AND DUP2 MSTORE PUSH1 0x20 ADD DUP6 ISZERO ISZERO DUP2 MSTORE PUSH1 0x20 ADD DUP5 ISZERO ISZERO DUP2 MSTORE PUSH1 0x20 ADD DUP4 ISZERO ISZERO DUP2 MSTORE PUSH1 0x20 ADD DUP3 ISZERO ISZERO DUP2 MSTORE POP PUSH1 0x3 PUSH0 DUP8 DUP2 MSTORE PUSH1 0x20 ADD SWAP1 DUP2 MSTORE PUSH1 0x20 ADD PUSH0 KECCAK256 PUSH0 DUP3 ADD MLOAD DUP2 PUSH0 ADD PUSH0 PUSH2 0x100 EXP DUP2 SLOAD DUP2 PUSH20 0xFFFFFFFFFFFFFFFFFFFFFFFFFFFFFFFFFFFFFFFF MUL NOT AND SWAP1 DUP4 PUSH20 0xFFFFFFFFFFFFFFFFFFFFFFFFFFFFFFFFFFFFFFFF AND MUL OR SWAP1 SSTORE POP PUSH1 0x20 DUP3 ADD MLOAD DUP2 PUSH0 ADD PUSH1 0x14 PUSH2 0x100 EXP DUP2 SLOAD DUP2 PUSH1 0xFF MUL NOT AND SWAP1 DUP4 ISZERO ISZERO MUL OR SWAP1 SSTORE POP PUSH1 0x40 DUP3 ADD MLOAD DUP2 PUSH0 ADD PUSH1 0x15 PUSH2 0x100 EXP DUP2 SLOAD DUP2 PUSH1 0xFF MUL NOT AND SWAP1 DUP4 ISZERO ISZERO MUL OR SWAP1 SSTORE POP PUSH1 0x60 DUP3 ADD MLOAD DUP2 PUSH0 ADD PUSH1 0x16 PUSH2 0x100 EXP DUP2 SLOAD DUP2 PUSH1 0xFF MUL NOT AND SWAP1 DUP4 ISZERO ISZERO MUL OR SWAP1 SSTORE POP PUSH1 0x80 DUP3 ADD MLOAD DUP2 PUSH0 ADD PUSH1 0x17 PUSH2 0x100 EXP DUP2 SLOAD DUP2 PUSH1 0xFF MUL NOT AND SWAP1 DUP4 ISZERO ISZERO MUL OR SWAP1 SSTORE POP SWAP1 POP POP POP POP POP POP POP JUMP JUMPDEST PUSH1 0x1 PUSH0 SWAP1 SLOAD SWAP1 PUSH2 0x100 EXP SWAP1 DIV PUSH20 0xFFFFFFFFFFFFFFFFFFFFFFFFFFFFFFFFFFFFFFFF AND PUSH20 0xFFFFFFFFFFFFFFFFFFFFFFFFFFFFFFFFFFFFFFFF AND CALLER PUSH20 0xFFFFFFFFFFFFFFFFFFFFFFFFFFFFFFFFFFFFFFFF AND EQ PUSH2 0xBAB JUMPI PUSH1 0x40 MLOAD PUSH32 0x126F181E00000000000000000000000000000000000000000000000000000000 DUP2 MSTORE PUSH1 0x4 ADD PUSH1 0x40 MLOAD DUP1 SWAP2 SUB SWAP1 REVERT JUMPDEST DUP1 PUSH0 DUP1 PUSH2 0x100 EXP DUP2 SLOAD DUP2 PUSH20 0xFFFFFFFFFFFFFFFFFFFFFFFFFFFFFFFFFFFFFFFF MUL NOT AND SWAP1 DUP4 PUSH20 0xFFFFFFFFFFFFFFFFFFFFFFFFFFFFFFFFFFFFFFFF AND MUL OR SWAP1 SSTORE POP POP JUMP JUMPDEST PUSH1 0x40 MLOAD DUP1 PUSH1 0xA0 ADD PUSH1 0x40 MSTORE DUP1 PUSH0 PUSH20 0xFFFFFFFFFFFFFFFFFFFFFFFFFFFFFFFFFFFFFFFF AND DUP2 MSTORE PUSH1 0x20 ADD PUSH0 ISZERO ISZERO DUP2 MSTORE PUSH1 0x20 ADD PUSH0 ISZERO ISZERO DUP2 MSTORE PUSH1 0x20 ADD PUSH0 ISZERO ISZERO DUP2 MSTORE PUSH1 0x20 ADD PUSH0 ISZERO ISZERO DUP2 MSTORE POP SWAP1 JUMP JUMPDEST PUSH0 PUSH20 0xFFFFFFFFFFFFFFFFFFFFFFFFFFFFFFFFFFFFFFFF DUP3 AND SWAP1 POP SWAP2 SWAP1 POP JUMP JUMPDEST PUSH0 PUSH2 0xC5E DUP3 PUSH2 0xC35 JUMP JUMPDEST SWAP1 POP SWAP2 SWAP1 POP JUMP JUMPDEST PUSH2 0xC6E DUP2 PUSH2 0xC54 JUMP JUMPDEST DUP3 MSTORE POP POP JUMP JUMPDEST PUSH0 PUSH1 0x20 DUP3 ADD SWAP1 POP PUSH2 0xC87 PUSH0 DUP4 ADD DUP5 PUSH2 0xC65 JUMP JUMPDEST SWAP3 SWAP2 POP POP JUMP JUMPDEST PUSH0 DUP1 REVERT JUMPDEST PUSH2 0xC9A DUP2 PUSH2 0xC54 JUMP JUMPDEST DUP2 EQ PUSH2 0xCA4 JUMPI PUSH0 DUP1 REVERT JUMPDEST POP JUMP JUMPDEST PUSH0 DUP2 CALLDATALOAD SWAP1 POP PUSH2 0xCB5 DUP2 PUSH2 0xC91 JUMP JUMPDEST SWAP3 SWAP2 POP POP JUMP JUMPDEST PUSH0 PUSH1 0x20 DUP3 DUP5 SUB SLT ISZERO PUSH2 0xCD0 JUMPI PUSH2 0xCCF PUSH2 0xC8D JUMP JUMPDEST JUMPDEST PUSH0 PUSH2 0xCDD DUP5 DUP3 DUP6 ADD PUSH2 0xCA7 JUMP JUMPDEST SWAP2 POP POP SWAP3 SWAP2 POP POP JUMP JUMPDEST PUSH0 DUP2 SWAP1 POP SWAP2 SWAP1 POP JUMP JUMPDEST PUSH2 0xCF8 DUP2 PUSH2 0xCE6 JUMP JUMPDEST DUP3 MSTORE POP POP JUMP JUMPDEST PUSH0 PUSH1 0x20 DUP3 ADD SWAP1 POP PUSH2 0xD11 PUSH0 DUP4 ADD DUP5 PUSH2 0xCEF JUMP JUMPDEST SWAP3 SWAP2 POP POP JUMP JUMPDEST PUSH2 0xD20 DUP2 PUSH2 0xCE6 JUMP JUMPDEST DUP2 EQ PUSH2 0xD2A JUMPI PUSH0 DUP1 REVERT JUMPDEST POP JUMP JUMPDEST PUSH0 DUP2 CALLDATALOAD SWAP1 POP PUSH2 0xD3B DUP2 PUSH2 0xD17 JUMP JUMPDEST SWAP3 SWAP2 POP POP JUMP JUMPDEST PUSH0 PUSH1 0x20 DUP3 DUP5 SUB SLT ISZERO PUSH2 0xD56 JUMPI PUSH2 0xD55 PUSH2 0xC8D JUMP JUMPDEST JUMPDEST PUSH0 PUSH2 0xD63 DUP5 DUP3 DUP6 ADD PUSH2 0xD2D JUMP JUMPDEST SWAP2 POP POP SWAP3 SWAP2 POP POP JUMP JUMPDEST PUSH2 0xD75 DUP2 PUSH2 0xC54 JUMP JUMPDEST DUP3 MSTORE POP POP JUMP JUMPDEST PUSH0 DUP2 ISZERO ISZERO SWAP1 POP SWAP2 SWAP1 POP JUMP JUMPDEST PUSH2 0xD8F DUP2 PUSH2 0xD7B JUMP JUMPDEST DUP3 MSTORE POP POP JUMP JUMPDEST PUSH1 0xA0 DUP3 ADD PUSH0 DUP3 ADD MLOAD PUSH2 0xDA9 PUSH0 DUP6 ADD DUP3 PUSH2 0xD6C JUMP JUMPDEST POP PUSH1 0x20 DUP3 ADD MLOAD PUSH2 0xDBC PUSH1 0x20 DUP6 ADD DUP3 PUSH2 0xD86 JUMP JUMPDEST POP PUSH1 0x40 DUP3 ADD MLOAD PUSH2 0xDCF PUSH1 0x40 DUP6 ADD DUP3 PUSH2 0xD86 JUMP JUMPDEST POP PUSH1 0x60 DUP3 ADD MLOAD PUSH2 0xDE2 PUSH1 0x60 DUP6 ADD DUP3 PUSH2 0xD86 JUMP JUMPDEST POP PUSH1 0x80 DUP3 ADD MLOAD PUSH2 0xDF5 PUSH1 0x80 DUP6 ADD DUP3 PUSH2 0xD86 JUMP JUMPDEST POP POP POP POP JUMP JUMPDEST PUSH0 PUSH1 0xA0 DUP3 ADD SWAP1 POP PUSH2 0xE0E PUSH0 DUP4 ADD DUP5 PUSH2 0xD95 JUMP JUMPDEST SWAP3 SWAP2 POP POP JUMP JUMPDEST PUSH2 0xE1D DUP2 PUSH2 0xD7B JUMP JUMPDEST DUP3 MSTORE POP POP JUMP JUMPDEST PUSH0 PUSH1 0xA0 DUP3 ADD SWAP1 POP PUSH2 0xE36 PUSH0 DUP4 ADD DUP9 PUSH2 0xC65 JUMP JUMPDEST PUSH2 0xE43 PUSH1 0x20 DUP4 ADD DUP8 PUSH2 0xE14 JUMP JUMPDEST PUSH2 0xE50 PUSH1 0x40 DUP4 ADD DUP7 PUSH2 0xE14 JUMP JUMPDEST PUSH2 0xE5D PUSH1 0x60 DUP4 ADD DUP6 PUSH2 0xE14 JUMP JUMPDEST PUSH2 0xE6A PUSH1 0x80 DUP4 ADD DUP5 PUSH2 0xE14 JUMP JUMPDEST SWAP7 SWAP6 POP POP POP POP POP POP JUMP JUMPDEST PUSH2 0xE7D DUP2 PUSH2 0xD7B JUMP JUMPDEST DUP2 EQ PUSH2 0xE87 JUMPI PUSH0 DUP1 REVERT JUMPDEST POP JUMP JUMPDEST PUSH0 DUP2 CALLDATALOAD SWAP1 POP PUSH2 0xE98 DUP2 PUSH2 0xE74 JUMP JUMPDEST SWAP3 SWAP2 POP POP JUMP JUMPDEST PUSH0 DUP1 PUSH0 DUP1 PUSH0 PUSH1 0xA0 DUP7 DUP9 SUB SLT ISZERO PUSH2 0xEB7 JUMPI PUSH2 0xEB6 PUSH2 0xC8D JUMP JUMPDEST JUMPDEST PUSH0 PUSH2 0xEC4 DUP9 DUP3 DUP10 ADD PUSH2 0xD2D JUMP JUMPDEST SWAP6 POP POP PUSH1 0x20 PUSH2 0xED5 DUP9 DUP3 DUP10 ADD PUSH2 0xE8A JUMP JUMPDEST SWAP5 POP POP PUSH1 0x40 PUSH2 0xEE6 DUP9 DUP3 DUP10 ADD PUSH2 0xE8A JUMP JUMPDEST SWAP4 POP POP PUSH1 0x60 PUSH2 0xEF7 DUP9 DUP3 DUP10 ADD PUSH2 0xE8A JUMP JUMPDEST SWAP3 POP POP PUSH1 0x80 PUSH2 0xF08 DUP9 DUP3 DUP10 ADD PUSH2 0xE8A JUMP JUMPDEST SWAP2 POP POP SWAP3 SWAP6 POP SWAP3 SWAP6 SWAP1 SWAP4 POP JUMP JUMPDEST PUSH32 0x4E487B7100000000000000000000000000000000000000000000000000000000 PUSH0 MSTORE PUSH1 0x11 PUSH1 0x4 MSTORE PUSH1 0x24 PUSH0 REVERT JUMPDEST PUSH0 PUSH2 0xF4C DUP3 PUSH2 0xCE6 JUMP JUMPDEST SWAP2 POP PUSH32 0xFFFFFFFFFFFFFFFFFFFFFFFFFFFFFFFFFFFFFFFFFFFFFFFFFFFFFFFFFFFFFFFF DUP3 SUB PUSH2 0xF7E JUMPI PUSH2 0xF7D PUSH2 0xF15 JUMP JUMPDEST JUMPDEST PUSH1 0x1 DUP3 ADD SWAP1 POP SWAP2 SWAP1 POP JUMP JUMPDEST PUSH0 PUSH2 0xF93 DUP3 PUSH2 0xCE6 JUMP JUMPDEST SWAP2 POP PUSH2 0xF9E DUP4 PUSH2 0xCE6 JUMP JUMPDEST SWAP3 POP DUP3 DUP3 SUB SWAP1 POP DUP2 DUP2 GT ISZERO PUSH2 0xFB6 JUMPI PUSH2 0xFB5 PUSH2 0xF15 JUMP JUMPDEST JUMPDEST SWAP3 SWAP2 POP POP JUMP INVALID LOG2 PUSH5 0x6970667358 0x22 SLT KECCAK256 0xC0 CODECOPY PUSH2 0xCCD2 0xD8 LOG2 0xEB 0xDF DUP15 JUMPI 0xDA MLOAD SAR 0x2F JUMPDEST 0xFC CALLCODE EQ BLOBHASH SWAP5 0x2D PUSH13 0x898910D49353482C4764736F6C PUSH4 0x4300081A STOP CALLER "
				},
				"gasEstimates": {
					"creation": {
						"codeDepositCost": "816400",
						"executionCost": "47196",
						"totalCost": "863596"
					},
					"external": {
						"Requirements(uint256)": "infinite",
						"casinoOwner()": "2552",
						"challengeManager()": "2506",
						"challengerCounter()": "2492",
						"fireManager()": "26622",
						"getCurrentChallengerCount()": "infinite",
						"getNextGeneratedId()": "2477",
						"getRequirmenets(uint256)": "infinite",
						"mintChallenger(address)": "148827",
						"resetAttribute(uint256)": "126722",
						"setManager(address)": "26972",
						"setNewCasinoOwner(address)": "26904",
						"upgradeAttribute(uint256,bool,bool,bool,bool)": "infinite"
					}
				},
				"methodIdentifiers": {
					"Requirements(uint256)": "b596704f",
					"casinoOwner()": "bc0f160a",
					"challengeManager()": "023a96fe",
					"challengerCounter()": "4619246f",
					"fireManager()": "0b8769d8",
					"getCurrentChallengerCount()": "b480906c",
					"getNextGeneratedId()": "b1965e6c",
					"getRequirmenets(uint256)": "89bdfdc3",
					"mintChallenger(address)": "06327b1a",
					"resetAttribute(uint256)": "905d0709",
					"setManager(address)": "d0ebdbe7",
					"setNewCasinoOwner(address)": "a168837e",
					"upgradeAttribute(uint256,bool,bool,bool,bool)": "c328848a"
				}
			},
			"storageLayout": {
				"storage": [
					{
						"astId": 611,
						"contract": "Inju_Gambit/Privileged.sol:Privileged",
						"label": "challengeManager",
						"offset": 0,
						"slot": "0",
						"type": "t_address"
					},
					{
						"astId": 613,
						"contract": "Inju_Gambit/Privileged.sol:Privileged",
						"label": "casinoOwner",
						"offset": 0,
						"slot": "1",
						"type": "t_address"
					},
					{
						"astId": 616,
						"contract": "Inju_Gambit/Privileged.sol:Privileged",
						"label": "challengerCounter",
						"offset": 0,
						"slot": "2",
						"type": "t_uint256"
					},
					{
						"astId": 621,
						"contract": "Inju_Gambit/Privileged.sol:Privileged",
						"label": "Requirements",
						"offset": 0,
						"slot": "3",
						"type": "t_mapping(t_uint256,t_struct(casinoOwnerChallenger)609_storage)"
					}
				],
				"types": {
					"t_address": {
						"encoding": "inplace",
						"label": "address",
						"numberOfBytes": "20"
					},
					"t_bool": {
						"encoding": "inplace",
						"label": "bool",
						"numberOfBytes": "1"
					},
					"t_mapping(t_uint256,t_struct(casinoOwnerChallenger)609_storage)": {
						"encoding": "mapping",
						"key": "t_uint256",
						"label": "mapping(uint256 => struct Privileged.casinoOwnerChallenger)",
						"numberOfBytes": "32",
						"value": "t_struct(casinoOwnerChallenger)609_storage"
					},
					"t_struct(casinoOwnerChallenger)609_storage": {
						"encoding": "inplace",
						"label": "struct Privileged.casinoOwnerChallenger",
						"members": [
							{
								"astId": 600,
								"contract": "Inju_Gambit/Privileged.sol:Privileged",
								"label": "challenger",
								"offset": 0,
								"slot": "0",
								"type": "t_address"
							},
							{
								"astId": 602,
								"contract": "Inju_Gambit/Privileged.sol:Privileged",
								"label": "isRich",
								"offset": 20,
								"slot": "0",
								"type": "t_bool"
							},
							{
								"astId": 604,
								"contract": "Inju_Gambit/Privileged.sol:Privileged",
								"label": "isImportant",
								"offset": 21,
								"slot": "0",
								"type": "t_bool"
							},
							{
								"astId": 606,
								"contract": "Inju_Gambit/Privileged.sol:Privileged",
								"label": "hasConnection",
								"offset": 22,
								"slot": "0",
								"type": "t_bool"
							},
							{
								"astId": 608,
								"contract": "Inju_Gambit/Privileged.sol:Privileged",
								"label": "hasVIPCard",
								"offset": 23,
								"slot": "0",
								"type": "t_bool"
							}
						],
						"numberOfBytes": "32"
					},
					"t_uint256": {
						"encoding": "inplace",
						"label": "uint256",
						"numberOfBytes": "32"
					}
				}
			},
			"userdoc": {
				"kind": "user",
				"methods": {},
				"version": 1
			}
		}
	}
}