{
	"Inju_Gambit/ChallengeManager.sol": {
		"ChallengeManager": {
			"abi": [
				{
					"inputs": [
						{
							"internalType": "address",
							"name": "_priv",
							"type": "address"
						},
						{
							"internalType": "bytes32",
							"name": "_masterKey",
							"type": "bytes32"
						}
					],
					"stateMutability": "nonpayable",
					"type": "constructor"
				},
				{
					"inputs": [],
					"name": "CM_AlreadyApproached",
					"type": "error"
				},
				{
					"inputs": [],
					"name": "CM_CanOnlyChangeSelf",
					"type": "error"
				},
				{
					"inputs": [],
					"name": "CM_FoundChallenger",
					"type": "error"
				},
				{
					"inputs": [],
					"name": "CM_InvalidIdOfChallenger",
					"type": "error"
				},
				{
					"inputs": [],
					"name": "CM_InvalidIdofStranger",
					"type": "error"
				},
				{
					"inputs": [],
					"name": "CM_NotTheCorrectValue",
					"type": "error"
				},
				{
					"inputs": [],
					"name": "approach",
					"outputs": [],
					"stateMutability": "payable",
					"type": "function"
				},
				{
					"inputs": [
						{
							"internalType": "address",
							"name": "",
							"type": "address"
						}
					],
					"name": "approached",
					"outputs": [
						{
							"internalType": "bool",
							"name": "",
							"type": "bool"
						}
					],
					"stateMutability": "view",
					"type": "function"
				},
				{
					"inputs": [],
					"name": "casinoOwner",
					"outputs": [
						{
							"internalType": "address",
							"name": "",
							"type": "address"
						}
					],
					"stateMutability": "view",
					"type": "function"
				},
				{
					"inputs": [
						{
							"internalType": "bytes32",
							"name": "_key",
							"type": "bytes32"
						}
					],
					"name": "challengeCurrentOwner",
					"outputs": [],
					"stateMutability": "nonpayable",
					"type": "function"
				},
				{
					"inputs": [
						{
							"internalType": "uint256",
							"name": "",
							"type": "uint256"
						}
					],
					"name": "challenger",
					"outputs": [
						{
							"internalType": "address",
							"name": "",
							"type": "address"
						}
					],
					"stateMutability": "view",
					"type": "function"
				},
				{
					"inputs": [],
					"name": "challengingFee",
					"outputs": [
						{
							"internalType": "uint256",
							"name": "",
							"type": "uint256"
						}
					],
					"stateMutability": "view",
					"type": "function"
				},
				{
					"inputs": [
						{
							"internalType": "address",
							"name": "_who",
							"type": "address"
						}
					],
					"name": "getApproacher",
					"outputs": [
						{
							"internalType": "bool",
							"name": "",
							"type": "bool"
						}
					],
					"stateMutability": "view",
					"type": "function"
				},
				{
					"inputs": [],
					"name": "getPrivilegedAddress",
					"outputs": [
						{
							"internalType": "address",
							"name": "",
							"type": "address"
						}
					],
					"stateMutability": "view",
					"type": "function"
				},
				{
					"inputs": [],
					"name": "privileged",
					"outputs": [
						{
							"internalType": "contract Privileged",
							"name": "",
							"type": "address"
						}
					],
					"stateMutability": "view",
					"type": "function"
				},
				{
					"inputs": [],
					"name": "qualifiedChallengerFound",
					"outputs": [
						{
							"internalType": "bool",
							"name": "",
							"type": "bool"
						}
					],
					"stateMutability": "view",
					"type": "function"
				},
				{
					"inputs": [],
					"name": "theChallenger",
					"outputs": [
						{
							"internalType": "address",
							"name": "",
							"type": "address"
						}
					],
					"stateMutability": "view",
					"type": "function"
				},
				{
					"inputs": [
						{
							"internalType": "uint256",
							"name": "challengerId",
							"type": "uint256"
						},
						{
							"internalType": "uint256",
							"name": "strangerId",
							"type": "uint256"
						}
					],
					"name": "upgradeChallengerAttribute",
					"outputs": [],
					"stateMutability": "nonpayable",
					"type": "function"
				}
			],
			"devdoc": {
				"kind": "dev",
				"methods": {},
				"version": 1
			},
			"evm": {
				"assembly": "    /* \"Inju_Gambit/ChallengeManager.sol\":98:4614  contract ChallengeManager{... */\n  mstore(0x40, 0x80)\n    /* \"Inju_Gambit/ChallengeManager.sol\":922:1121  constructor(address _priv, bytes32 _masterKey) {... */\n  callvalue\n  dup1\n  iszero\n  tag_1\n  jumpi\n  0x00\n  dup1\n  revert\ntag_1:\n  pop\n  mload(0x40)\n  sub(codesize, bytecodeSize)\n  dup1\n  bytecodeSize\n  dup4\n  codecopy\n  dup2\n  dup2\n  add\n  0x40\n  mstore\n  dup2\n  add\n  swap1\n  tag_2\n  swap2\n  swap1\n  tag_3\n  jump\t// in\ntag_2:\n    /* \"Inju_Gambit/ChallengeManager.sol\":994:1004  msg.sender */\n  caller\n    /* \"Inju_Gambit/ChallengeManager.sol\":980:991  casinoOwner */\n  0x03\n  0x00\n    /* \"Inju_Gambit/ChallengeManager.sol\":980:1004  casinoOwner = msg.sender */\n  0x0100\n  exp\n  dup2\n  sload\n  dup2\n  0xffffffffffffffffffffffffffffffffffffffff\n  mul\n  not\n  and\n  swap1\n  dup4\n  0xffffffffffffffffffffffffffffffffffffffff\n  and\n  mul\n  or\n  swap1\n  sstore\n  pop\n    /* \"Inju_Gambit/ChallengeManager.sol\":1039:1044  _priv */\n  dup2\n    /* \"Inju_Gambit/ChallengeManager.sol\":1015:1025  privileged */\n  0x00\n  dup1\n    /* \"Inju_Gambit/ChallengeManager.sol\":1015:1045  privileged = Privileged(_priv) */\n  0x0100\n  exp\n  dup2\n  sload\n  dup2\n  0xffffffffffffffffffffffffffffffffffffffff\n  mul\n  not\n  and\n  swap1\n  dup4\n  0xffffffffffffffffffffffffffffffffffffffff\n  and\n  mul\n  or\n  swap1\n  sstore\n  pop\n    /* \"Inju_Gambit/ChallengeManager.sol\":1073:1080  5 ether */\n  0x4563918244f40000\n    /* \"Inju_Gambit/ChallengeManager.sol\":1056:1070  challengingFee */\n  0x04\n    /* \"Inju_Gambit/ChallengeManager.sol\":1056:1080  challengingFee = 5 ether */\n  dup2\n  swap1\n  sstore\n  pop\n    /* \"Inju_Gambit/ChallengeManager.sol\":1103:1113  _masterKey */\n  dup1\n    /* \"Inju_Gambit/ChallengeManager.sol\":1091:1100  masterKey */\n  0x01\n    /* \"Inju_Gambit/ChallengeManager.sol\":1091:1113  masterKey = _masterKey */\n  dup2\n  swap1\n  sstore\n  pop\n    /* \"Inju_Gambit/ChallengeManager.sol\":922:1121  constructor(address _priv, bytes32 _masterKey) {... */\n  pop\n  pop\n    /* \"Inju_Gambit/ChallengeManager.sol\":98:4614  contract ChallengeManager{... */\n  jump(tag_6)\n    /* \"#utility.yul\":88:205   */\ntag_8:\n    /* \"#utility.yul\":197:198   */\n  0x00\n    /* \"#utility.yul\":194:195   */\n  dup1\n    /* \"#utility.yul\":187:199   */\n  revert\n    /* \"#utility.yul\":334:460   */\ntag_10:\n    /* \"#utility.yul\":371:378   */\n  0x00\n    /* \"#utility.yul\":411:453   */\n  0xffffffffffffffffffffffffffffffffffffffff\n    /* \"#utility.yul\":404:409   */\n  dup3\n    /* \"#utility.yul\":400:454   */\n  and\n    /* \"#utility.yul\":389:454   */\n  swap1\n  pop\n    /* \"#utility.yul\":334:460   */\n  swap2\n  swap1\n  pop\n  jump\t// out\n    /* \"#utility.yul\":466:562   */\ntag_11:\n    /* \"#utility.yul\":503:510   */\n  0x00\n    /* \"#utility.yul\":532:556   */\n  tag_23\n    /* \"#utility.yul\":550:555   */\n  dup3\n    /* \"#utility.yul\":532:556   */\n  tag_10\n  jump\t// in\ntag_23:\n    /* \"#utility.yul\":521:556   */\n  swap1\n  pop\n    /* \"#utility.yul\":466:562   */\n  swap2\n  swap1\n  pop\n  jump\t// out\n    /* \"#utility.yul\":568:690   */\ntag_12:\n    /* \"#utility.yul\":641:665   */\n  tag_25\n    /* \"#utility.yul\":659:664   */\n  dup2\n    /* \"#utility.yul\":641:665   */\n  tag_11\n  jump\t// in\ntag_25:\n    /* \"#utility.yul\":634:639   */\n  dup2\n    /* \"#utility.yul\":631:666   */\n  eq\n    /* \"#utility.yul\":621:684   */\n  tag_26\n  jumpi\n    /* \"#utility.yul\":680:681   */\n  0x00\n    /* \"#utility.yul\":677:678   */\n  dup1\n    /* \"#utility.yul\":670:682   */\n  revert\n    /* \"#utility.yul\":621:684   */\ntag_26:\n    /* \"#utility.yul\":568:690   */\n  pop\n  jump\t// out\n    /* \"#utility.yul\":696:839   */\ntag_13:\n    /* \"#utility.yul\":753:758   */\n  0x00\n    /* \"#utility.yul\":784:790   */\n  dup2\n    /* \"#utility.yul\":778:791   */\n  mload\n    /* \"#utility.yul\":769:791   */\n  swap1\n  pop\n    /* \"#utility.yul\":800:833   */\n  tag_28\n    /* \"#utility.yul\":827:832   */\n  dup2\n    /* \"#utility.yul\":800:833   */\n  tag_12\n  jump\t// in\ntag_28:\n    /* \"#utility.yul\":696:839   */\n  swap3\n  swap2\n  pop\n  pop\n  jump\t// out\n    /* \"#utility.yul\":845:922   */\ntag_14:\n    /* \"#utility.yul\":882:889   */\n  0x00\n    /* \"#utility.yul\":911:916   */\n  dup2\n    /* \"#utility.yul\":900:916   */\n  swap1\n  pop\n    /* \"#utility.yul\":845:922   */\n  swap2\n  swap1\n  pop\n  jump\t// out\n    /* \"#utility.yul\":928:1050   */\ntag_15:\n    /* \"#utility.yul\":1001:1025   */\n  tag_31\n    /* \"#utility.yul\":1019:1024   */\n  dup2\n    /* \"#utility.yul\":1001:1025   */\n  tag_14\n  jump\t// in\ntag_31:\n    /* \"#utility.yul\":994:999   */\n  dup2\n    /* \"#utility.yul\":991:1026   */\n  eq\n    /* \"#utility.yul\":981:1044   */\n  tag_32\n  jumpi\n    /* \"#utility.yul\":1040:1041   */\n  0x00\n    /* \"#utility.yul\":1037:1038   */\n  dup1\n    /* \"#utility.yul\":1030:1042   */\n  revert\n    /* \"#utility.yul\":981:1044   */\ntag_32:\n    /* \"#utility.yul\":928:1050   */\n  pop\n  jump\t// out\n    /* \"#utility.yul\":1056:1199   */\ntag_16:\n    /* \"#utility.yul\":1113:1118   */\n  0x00\n    /* \"#utility.yul\":1144:1150   */\n  dup2\n    /* \"#utility.yul\":1138:1151   */\n  mload\n    /* \"#utility.yul\":1129:1151   */\n  swap1\n  pop\n    /* \"#utility.yul\":1160:1193   */\n  tag_34\n    /* \"#utility.yul\":1187:1192   */\n  dup2\n    /* \"#utility.yul\":1160:1193   */\n  tag_15\n  jump\t// in\ntag_34:\n    /* \"#utility.yul\":1056:1199   */\n  swap3\n  swap2\n  pop\n  pop\n  jump\t// out\n    /* \"#utility.yul\":1205:1712   */\ntag_3:\n    /* \"#utility.yul\":1284:1290   */\n  0x00\n    /* \"#utility.yul\":1292:1298   */\n  dup1\n    /* \"#utility.yul\":1341:1343   */\n  0x40\n    /* \"#utility.yul\":1329:1338   */\n  dup4\n    /* \"#utility.yul\":1320:1327   */\n  dup6\n    /* \"#utility.yul\":1316:1339   */\n  sub\n    /* \"#utility.yul\":1312:1344   */\n  slt\n    /* \"#utility.yul\":1309:1428   */\n  iszero\n  tag_36\n  jumpi\n    /* \"#utility.yul\":1347:1426   */\n  tag_37\n  tag_8\n  jump\t// in\ntag_37:\n    /* \"#utility.yul\":1309:1428   */\ntag_36:\n    /* \"#utility.yul\":1467:1468   */\n  0x00\n    /* \"#utility.yul\":1492:1556   */\n  tag_38\n    /* \"#utility.yul\":1548:1555   */\n  dup6\n    /* \"#utility.yul\":1539:1545   */\n  dup3\n    /* \"#utility.yul\":1528:1537   */\n  dup7\n    /* \"#utility.yul\":1524:1546   */\n  add\n    /* \"#utility.yul\":1492:1556   */\n  tag_13\n  jump\t// in\ntag_38:\n    /* \"#utility.yul\":1482:1556   */\n  swap3\n  pop\n    /* \"#utility.yul\":1438:1566   */\n  pop\n    /* \"#utility.yul\":1605:1607   */\n  0x20\n    /* \"#utility.yul\":1631:1695   */\n  tag_39\n    /* \"#utility.yul\":1687:1694   */\n  dup6\n    /* \"#utility.yul\":1678:1684   */\n  dup3\n    /* \"#utility.yul\":1667:1676   */\n  dup7\n    /* \"#utility.yul\":1663:1685   */\n  add\n    /* \"#utility.yul\":1631:1695   */\n  tag_16\n  jump\t// in\ntag_39:\n    /* \"#utility.yul\":1621:1695   */\n  swap2\n  pop\n    /* \"#utility.yul\":1576:1705   */\n  pop\n    /* \"#utility.yul\":1205:1712   */\n  swap3\n  pop\n  swap3\n  swap1\n  pop\n  jump\t// out\n    /* \"Inju_Gambit/ChallengeManager.sol\":98:4614  contract ChallengeManager{... */\ntag_6:\n  dataSize(sub_0)\n  dup1\n  dataOffset(sub_0)\n  0x00\n  codecopy\n  0x00\n  return\nstop\n\nsub_0: assembly {\n        /* \"Inju_Gambit/ChallengeManager.sol\":98:4614  contract ChallengeManager{... */\n      mstore(0x40, 0x80)\n      jumpi(tag_1, lt(calldatasize, 0x04))\n      shr(0xe0, calldataload(0x00))\n      dup1\n      0xbc0f160a\n      gt\n      tag_14\n      jumpi\n      dup1\n      0xbc0f160a\n      eq\n      tag_8\n      jumpi\n      dup1\n      0xcb54a31e\n      eq\n      tag_9\n      jumpi\n      dup1\n      0xced99cce\n      eq\n      tag_10\n      jumpi\n      dup1\n      0xd3db0a39\n      eq\n      tag_11\n      jumpi\n      dup1\n      0xde7ff38a\n      eq\n      tag_12\n      jumpi\n      dup1\n      0xec21eaf1\n      eq\n      tag_13\n      jumpi\n      jump(tag_1)\n    tag_14:\n      dup1\n      0x01080798\n      eq\n      tag_2\n      jumpi\n      dup1\n      0x36ef2335\n      eq\n      tag_3\n      jumpi\n      dup1\n      0x458393ab\n      eq\n      tag_4\n      jumpi\n      dup1\n      0x4edfa653\n      eq\n      tag_5\n      jumpi\n      dup1\n      0x6aecb8d9\n      eq\n      tag_6\n      jumpi\n      dup1\n      0xa75c654e\n      eq\n      tag_7\n      jumpi\n    tag_1:\n      0x00\n      dup1\n      revert\n        /* \"Inju_Gambit/ChallengeManager.sol\":607:650  mapping (address => bool) public approached */\n    tag_2:\n      callvalue\n      dup1\n      iszero\n      tag_15\n      jumpi\n      0x00\n      dup1\n      revert\n    tag_15:\n      pop\n      tag_16\n      0x04\n      dup1\n      calldatasize\n      sub\n      dup2\n      add\n      swap1\n      tag_17\n      swap2\n      swap1\n      tag_18\n      jump\t// in\n    tag_17:\n      tag_19\n      jump\t// in\n    tag_16:\n      mload(0x40)\n      tag_20\n      swap2\n      swap1\n      tag_21\n      jump\t// in\n    tag_20:\n      mload(0x40)\n      dup1\n      swap2\n      sub\n      swap1\n      return\n        /* \"Inju_Gambit/ChallengeManager.sol\":1497:4119  function upgradeChallengerAttribute(uint256 challengerId, uint256 strangerId) public stillSearchingChallenger {... */\n    tag_3:\n      callvalue\n      dup1\n      iszero\n      tag_22\n      jumpi\n      0x00\n      dup1\n      revert\n    tag_22:\n      pop\n      tag_23\n      0x04\n      dup1\n      calldatasize\n      sub\n      dup2\n      add\n      swap1\n      tag_24\n      swap2\n      swap1\n      tag_25\n      jump\t// in\n    tag_24:\n      tag_26\n      jump\t// in\n    tag_23:\n      stop\n        /* \"Inju_Gambit/ChallengeManager.sol\":461:489  address public theChallenger */\n    tag_4:\n      callvalue\n      dup1\n      iszero\n      tag_27\n      jumpi\n      0x00\n      dup1\n      revert\n    tag_27:\n      pop\n      tag_28\n      tag_29\n      jump\t// in\n    tag_28:\n      mload(0x40)\n      tag_30\n      swap2\n      swap1\n      tag_31\n      jump\t// in\n    tag_30:\n      mload(0x40)\n      dup1\n      swap2\n      sub\n      swap1\n      return\n        /* \"Inju_Gambit/ChallengeManager.sol\":4504:4609  function getPrivilegedAddress() public view returns(address){... */\n    tag_5:\n      callvalue\n      dup1\n      iszero\n      tag_32\n      jumpi\n      0x00\n      dup1\n      revert\n    tag_32:\n      pop\n      tag_33\n      tag_34\n      jump\t// in\n    tag_33:\n      mload(0x40)\n      tag_35\n      swap2\n      swap1\n      tag_31\n      jump\t// in\n    tag_35:\n      mload(0x40)\n      dup1\n      swap2\n      sub\n      swap1\n      return\n        /* \"Inju_Gambit/ChallengeManager.sol\":529:558  uint256 public challengingFee */\n    tag_6:\n      callvalue\n      dup1\n      iszero\n      tag_36\n      jumpi\n      0x00\n      dup1\n      revert\n    tag_36:\n      pop\n      tag_37\n      tag_38\n      jump\t// in\n    tag_37:\n      mload(0x40)\n      tag_39\n      swap2\n      swap1\n      tag_40\n      jump\t// in\n    tag_39:\n      mload(0x40)\n      dup1\n      swap2\n      sub\n      swap1\n      return\n        /* \"Inju_Gambit/ChallengeManager.sol\":4127:4383  function challengeCurrentOwner(bytes32 _key) public onlyChosenChallenger{... */\n    tag_7:\n      callvalue\n      dup1\n      iszero\n      tag_41\n      jumpi\n      0x00\n      dup1\n      revert\n    tag_41:\n      pop\n      tag_42\n      0x04\n      dup1\n      calldatasize\n      sub\n      dup2\n      add\n      swap1\n      tag_43\n      swap2\n      swap1\n      tag_44\n      jump\t// in\n    tag_43:\n      tag_45\n      jump\t// in\n    tag_42:\n      stop\n        /* \"Inju_Gambit/ChallengeManager.sol\":496:522  address public casinoOwner */\n    tag_8:\n      callvalue\n      dup1\n      iszero\n      tag_46\n      jumpi\n      0x00\n      dup1\n      revert\n    tag_46:\n      pop\n      tag_47\n      tag_48\n      jump\t// in\n    tag_47:\n      mload(0x40)\n      tag_49\n      swap2\n      swap1\n      tag_31\n      jump\t// in\n    tag_49:\n      mload(0x40)\n      dup1\n      swap2\n      sub\n      swap1\n      return\n        /* \"Inju_Gambit/ChallengeManager.sol\":571:598  address[] public challenger */\n    tag_9:\n      callvalue\n      dup1\n      iszero\n      tag_50\n      jumpi\n      0x00\n      dup1\n      revert\n    tag_50:\n      pop\n      tag_51\n      0x04\n      dup1\n      calldatasize\n      sub\n      dup2\n      add\n      swap1\n      tag_52\n      swap2\n      swap1\n      tag_53\n      jump\t// in\n    tag_52:\n      tag_54\n      jump\t// in\n    tag_51:\n      mload(0x40)\n      tag_55\n      swap2\n      swap1\n      tag_31\n      jump\t// in\n    tag_55:\n      mload(0x40)\n      dup1\n      swap2\n      sub\n      swap1\n      return\n        /* \"Inju_Gambit/ChallengeManager.sol\":132:160  Privileged public privileged */\n    tag_10:\n      callvalue\n      dup1\n      iszero\n      tag_56\n      jumpi\n      0x00\n      dup1\n      revert\n    tag_56:\n      pop\n      tag_57\n      tag_58\n      jump\t// in\n    tag_57:\n      mload(0x40)\n      tag_59\n      swap2\n      swap1\n      tag_60\n      jump\t// in\n    tag_59:\n      mload(0x40)\n      dup1\n      swap2\n      sub\n      swap1\n      return\n        /* \"Inju_Gambit/ChallengeManager.sol\":1129:1489  function approach() public payable {... */\n    tag_11:\n      tag_61\n      tag_62\n      jump\t// in\n    tag_61:\n      stop\n        /* \"Inju_Gambit/ChallengeManager.sol\":418:454  bool public qualifiedChallengerFound */\n    tag_12:\n      callvalue\n      dup1\n      iszero\n      tag_63\n      jumpi\n      0x00\n      dup1\n      revert\n    tag_63:\n      pop\n      tag_64\n      tag_65\n      jump\t// in\n    tag_64:\n      mload(0x40)\n      tag_66\n      swap2\n      swap1\n      tag_21\n      jump\t// in\n    tag_66:\n      mload(0x40)\n      dup1\n      swap2\n      sub\n      swap1\n      return\n        /* \"Inju_Gambit/ChallengeManager.sol\":4392:4496  function getApproacher(address _who) public view returns(bool){... */\n    tag_13:\n      callvalue\n      dup1\n      iszero\n      tag_67\n      jumpi\n      0x00\n      dup1\n      revert\n    tag_67:\n      pop\n      tag_68\n      0x04\n      dup1\n      calldatasize\n      sub\n      dup2\n      add\n      swap1\n      tag_69\n      swap2\n      swap1\n      tag_18\n      jump\t// in\n    tag_69:\n      tag_70\n      jump\t// in\n    tag_68:\n      mload(0x40)\n      tag_71\n      swap2\n      swap1\n      tag_21\n      jump\t// in\n    tag_71:\n      mload(0x40)\n      dup1\n      swap2\n      sub\n      swap1\n      return\n        /* \"Inju_Gambit/ChallengeManager.sol\":607:650  mapping (address => bool) public approached */\n    tag_19:\n      mstore(0x20, 0x06)\n      dup1\n      0x00\n      mstore\n      keccak256(0x00, 0x40)\n      0x00\n      swap2\n      pop\n      sload\n      swap1\n      0x0100\n      exp\n      swap1\n      div\n      0xff\n      and\n      dup2\n      jump\t// out\n        /* \"Inju_Gambit/ChallengeManager.sol\":1497:4119  function upgradeChallengerAttribute(uint256 challengerId, uint256 strangerId) public stillSearchingChallenger {... */\n    tag_26:\n        /* \"Inju_Gambit/ChallengeManager.sol\":714:738  qualifiedChallengerFound */\n      0x02\n      0x00\n      swap1\n      sload\n      swap1\n      0x0100\n      exp\n      swap1\n      div\n      0xff\n      and\n        /* \"Inju_Gambit/ChallengeManager.sol\":713:738  !qualifiedChallengerFound */\n      iszero\n        /* \"Inju_Gambit/ChallengeManager.sol\":705:770  require(!qualifiedChallengerFound, \"New Challenger is Selected!\") */\n      tag_73\n      jumpi\n      mload(0x40)\n      0x08c379a000000000000000000000000000000000000000000000000000000000\n      dup2\n      mstore\n      0x04\n      add\n      tag_74\n      swap1\n      tag_75\n      jump\t// in\n    tag_74:\n      mload(0x40)\n      dup1\n      swap2\n      sub\n      swap1\n      revert\n    tag_73:\n        /* \"Inju_Gambit/ChallengeManager.sol\":1637:1647  privileged */\n      0x00\n      dup1\n      sload\n      swap1\n      0x0100\n      exp\n      swap1\n      div\n      0xffffffffffffffffffffffffffffffffffffffff\n      and\n        /* \"Inju_Gambit/ChallengeManager.sol\":1637:1665  privileged.challengerCounter */\n      0xffffffffffffffffffffffffffffffffffffffff\n      and\n      0x4619246f\n        /* \"Inju_Gambit/ChallengeManager.sol\":1637:1667  privileged.challengerCounter() */\n      mload(0x40)\n      dup2\n      0xffffffff\n      and\n      0xe0\n      shl\n      dup2\n      mstore\n      0x04\n      add\n      0x20\n      mload(0x40)\n      dup1\n      dup4\n      sub\n      dup2\n      dup7\n      gas\n      staticcall\n      iszero\n      dup1\n      iszero\n      tag_78\n      jumpi\n      returndatasize\n      0x00\n      dup1\n      returndatacopy\n      revert(0x00, returndatasize)\n    tag_78:\n      pop\n      pop\n      pop\n      pop\n      mload(0x40)\n      returndatasize\n      not(0x1f)\n      0x1f\n      dup3\n      add\n      and\n      dup3\n      add\n      dup1\n      0x40\n      mstore\n      pop\n      dup2\n      add\n      swap1\n      tag_79\n      swap2\n      swap1\n      tag_80\n      jump\t// in\n    tag_79:\n        /* \"Inju_Gambit/ChallengeManager.sol\":1622:1634  challengerId */\n      dup3\n        /* \"Inju_Gambit/ChallengeManager.sol\":1622:1667  challengerId > privileged.challengerCounter() */\n      gt\n        /* \"Inju_Gambit/ChallengeManager.sol\":1618:1728  if (challengerId > privileged.challengerCounter()){... */\n      iszero\n      tag_81\n      jumpi\n        /* \"Inju_Gambit/ChallengeManager.sol\":1690:1716  CM_InvalidIdOfChallenger() */\n      mload(0x40)\n      0xa67adb2700000000000000000000000000000000000000000000000000000000\n      dup2\n      mstore\n      0x04\n      add\n      mload(0x40)\n      dup1\n      swap2\n      sub\n      swap1\n      revert\n        /* \"Inju_Gambit/ChallengeManager.sol\":1618:1728  if (challengerId > privileged.challengerCounter()){... */\n    tag_81:\n        /* \"Inju_Gambit/ChallengeManager.sol\":1754:1764  privileged */\n      0x00\n      dup1\n      sload\n      swap1\n      0x0100\n      exp\n      swap1\n      div\n      0xffffffffffffffffffffffffffffffffffffffff\n      and\n        /* \"Inju_Gambit/ChallengeManager.sol\":1754:1782  privileged.challengerCounter */\n      0xffffffffffffffffffffffffffffffffffffffff\n      and\n      0x4619246f\n        /* \"Inju_Gambit/ChallengeManager.sol\":1754:1784  privileged.challengerCounter() */\n      mload(0x40)\n      dup2\n      0xffffffff\n      and\n      0xe0\n      shl\n      dup2\n      mstore\n      0x04\n      add\n      0x20\n      mload(0x40)\n      dup1\n      dup4\n      sub\n      dup2\n      dup7\n      gas\n      staticcall\n      iszero\n      dup1\n      iszero\n      tag_83\n      jumpi\n      returndatasize\n      0x00\n      dup1\n      returndatacopy\n      revert(0x00, returndatasize)\n    tag_83:\n      pop\n      pop\n      pop\n      pop\n      mload(0x40)\n      returndatasize\n      not(0x1f)\n      0x1f\n      dup3\n      add\n      and\n      dup3\n      add\n      dup1\n      0x40\n      mstore\n      pop\n      dup2\n      add\n      swap1\n      tag_84\n      swap2\n      swap1\n      tag_80\n      jump\t// in\n    tag_84:\n        /* \"Inju_Gambit/ChallengeManager.sol\":1741:1751  strangerId */\n      dup2\n        /* \"Inju_Gambit/ChallengeManager.sol\":1741:1784  strangerId > privileged.challengerCounter() */\n      gt\n        /* \"Inju_Gambit/ChallengeManager.sol\":1738:1843  if(strangerId > privileged.challengerCounter()){... */\n      iszero\n      tag_85\n      jumpi\n        /* \"Inju_Gambit/ChallengeManager.sol\":1807:1831  CM_InvalidIdofStranger() */\n      mload(0x40)\n      0xc792b6e200000000000000000000000000000000000000000000000000000000\n      dup2\n      mstore\n      0x04\n      add\n      mload(0x40)\n      dup1\n      swap2\n      sub\n      swap1\n      revert\n        /* \"Inju_Gambit/ChallengeManager.sol\":1738:1843  if(strangerId > privileged.challengerCounter()){... */\n    tag_85:\n        /* \"Inju_Gambit/ChallengeManager.sol\":1911:1921  msg.sender */\n      caller\n        /* \"Inju_Gambit/ChallengeManager.sol\":1856:1921  privileged.getRequirmenets(challengerId).challenger != msg.sender */\n      0xffffffffffffffffffffffffffffffffffffffff\n      and\n        /* \"Inju_Gambit/ChallengeManager.sol\":1856:1866  privileged */\n      0x00\n      dup1\n      sload\n      swap1\n      0x0100\n      exp\n      swap1\n      div\n      0xffffffffffffffffffffffffffffffffffffffff\n      and\n        /* \"Inju_Gambit/ChallengeManager.sol\":1856:1882  privileged.getRequirmenets */\n      0xffffffffffffffffffffffffffffffffffffffff\n      and\n      0x89bdfdc3\n        /* \"Inju_Gambit/ChallengeManager.sol\":1883:1895  challengerId */\n      dup5\n        /* \"Inju_Gambit/ChallengeManager.sol\":1856:1896  privileged.getRequirmenets(challengerId) */\n      mload(0x40)\n      dup3\n      0xffffffff\n      and\n      0xe0\n      shl\n      dup2\n      mstore\n      0x04\n      add\n      tag_86\n      swap2\n      swap1\n      tag_40\n      jump\t// in\n    tag_86:\n      0xa0\n      mload(0x40)\n      dup1\n      dup4\n      sub\n      dup2\n      dup7\n      gas\n      staticcall\n      iszero\n      dup1\n      iszero\n      tag_88\n      jumpi\n      returndatasize\n      0x00\n      dup1\n      returndatacopy\n      revert(0x00, returndatasize)\n    tag_88:\n      pop\n      pop\n      pop\n      pop\n      mload(0x40)\n      returndatasize\n      not(0x1f)\n      0x1f\n      dup3\n      add\n      and\n      dup3\n      add\n      dup1\n      0x40\n      mstore\n      pop\n      dup2\n      add\n      swap1\n      tag_89\n      swap2\n      swap1\n      tag_90\n      jump\t// in\n    tag_89:\n        /* \"Inju_Gambit/ChallengeManager.sol\":1856:1907  privileged.getRequirmenets(challengerId).challenger */\n      0x00\n      add\n      mload\n        /* \"Inju_Gambit/ChallengeManager.sol\":1856:1921  privileged.getRequirmenets(challengerId).challenger != msg.sender */\n      0xffffffffffffffffffffffffffffffffffffffff\n      and\n      eq\n        /* \"Inju_Gambit/ChallengeManager.sol\":1853:1978  if(privileged.getRequirmenets(challengerId).challenger != msg.sender){... */\n      tag_91\n      jumpi\n        /* \"Inju_Gambit/ChallengeManager.sol\":1944:1966  CM_CanOnlyChangeSelf() */\n      mload(0x40)\n      0x76eac26e00000000000000000000000000000000000000000000000000000000\n      dup2\n      mstore\n      0x04\n      add\n      mload(0x40)\n      dup1\n      swap2\n      sub\n      swap1\n      revert\n        /* \"Inju_Gambit/ChallengeManager.sol\":1853:1978  if(privileged.getRequirmenets(challengerId).challenger != msg.sender){... */\n    tag_91:\n        /* \"Inju_Gambit/ChallengeManager.sol\":1990:2003  uint256 gacha */\n      0x00\n        /* \"Inju_Gambit/ChallengeManager.sol\":2074:2075  4 */\n      0x04\n        /* \"Inju_Gambit/ChallengeManager.sol\":2041:2051  msg.sender */\n      caller\n        /* \"Inju_Gambit/ChallengeManager.sol\":2053:2068  block.timestamp */\n      timestamp\n        /* \"Inju_Gambit/ChallengeManager.sol\":2024:2069  abi.encodePacked(msg.sender, block.timestamp) */\n      add(0x20, mload(0x40))\n      tag_92\n      swap3\n      swap2\n      swap1\n      tag_93\n      jump\t// in\n    tag_92:\n      mload(0x40)\n      0x20\n      dup2\n      dup4\n      sub\n      sub\n      dup2\n      mstore\n      swap1\n      0x40\n      mstore\n        /* \"Inju_Gambit/ChallengeManager.sol\":2014:2070  keccak256(abi.encodePacked(msg.sender, block.timestamp)) */\n      dup1\n      mload\n      swap1\n      0x20\n      add\n      keccak256\n        /* \"Inju_Gambit/ChallengeManager.sol\":2006:2071  uint256(keccak256(abi.encodePacked(msg.sender, block.timestamp))) */\n      0x00\n      shr\n        /* \"Inju_Gambit/ChallengeManager.sol\":2006:2075  uint256(keccak256(abi.encodePacked(msg.sender, block.timestamp))) % 4 */\n      tag_94\n      swap2\n      swap1\n      tag_95\n      jump\t// in\n    tag_94:\n        /* \"Inju_Gambit/ChallengeManager.sol\":1990:2075  uint256 gacha = uint256(keccak256(abi.encodePacked(msg.sender, block.timestamp))) % 4 */\n      swap1\n      pop\n        /* \"Inju_Gambit/ChallengeManager.sol\":2101:2102  0 */\n      0x00\n        /* \"Inju_Gambit/ChallengeManager.sol\":2092:2097  gacha */\n      dup2\n        /* \"Inju_Gambit/ChallengeManager.sol\":2092:2102  gacha == 0 */\n      sub\n        /* \"Inju_Gambit/ChallengeManager.sol\":2088:4112  if (gacha == 0){... */\n      tag_96\n      jumpi\n        /* \"Inju_Gambit/ChallengeManager.sol\":2170:2175  false */\n      0x00\n        /* \"Inju_Gambit/ChallengeManager.sol\":2121:2175  privileged.getRequirmenets(strangerId).isRich == false */\n      iszero\n      iszero\n        /* \"Inju_Gambit/ChallengeManager.sol\":2121:2131  privileged */\n      0x00\n      dup1\n      sload\n      swap1\n      0x0100\n      exp\n      swap1\n      div\n      0xffffffffffffffffffffffffffffffffffffffff\n      and\n        /* \"Inju_Gambit/ChallengeManager.sol\":2121:2147  privileged.getRequirmenets */\n      0xffffffffffffffffffffffffffffffffffffffff\n      and\n      0x89bdfdc3\n        /* \"Inju_Gambit/ChallengeManager.sol\":2148:2158  strangerId */\n      dup5\n        /* \"Inju_Gambit/ChallengeManager.sol\":2121:2159  privileged.getRequirmenets(strangerId) */\n      mload(0x40)\n      dup3\n      0xffffffff\n      and\n      0xe0\n      shl\n      dup2\n      mstore\n      0x04\n      add\n      tag_97\n      swap2\n      swap1\n      tag_40\n      jump\t// in\n    tag_97:\n      0xa0\n      mload(0x40)\n      dup1\n      dup4\n      sub\n      dup2\n      dup7\n      gas\n      staticcall\n      iszero\n      dup1\n      iszero\n      tag_99\n      jumpi\n      returndatasize\n      0x00\n      dup1\n      returndatacopy\n      revert(0x00, returndatasize)\n    tag_99:\n      pop\n      pop\n      pop\n      pop\n      mload(0x40)\n      returndatasize\n      not(0x1f)\n      0x1f\n      dup3\n      add\n      and\n      dup3\n      add\n      dup1\n      0x40\n      mstore\n      pop\n      dup2\n      add\n      swap1\n      tag_100\n      swap2\n      swap1\n      tag_90\n      jump\t// in\n    tag_100:\n        /* \"Inju_Gambit/ChallengeManager.sol\":2121:2166  privileged.getRequirmenets(strangerId).isRich */\n      0x20\n      add\n      mload\n        /* \"Inju_Gambit/ChallengeManager.sol\":2121:2175  privileged.getRequirmenets(strangerId).isRich == false */\n      iszero\n      iszero\n      sub\n        /* \"Inju_Gambit/ChallengeManager.sol\":2118:2913  if(privileged.getRequirmenets(strangerId).isRich == false){... */\n      tag_101\n      jumpi\n        /* \"Inju_Gambit/ChallengeManager.sol\":2195:2205  privileged */\n      0x00\n      dup1\n      sload\n      swap1\n      0x0100\n      exp\n      swap1\n      div\n      0xffffffffffffffffffffffffffffffffffffffff\n      and\n        /* \"Inju_Gambit/ChallengeManager.sol\":2195:2222  privileged.upgradeAttribute */\n      0xffffffffffffffffffffffffffffffffffffffff\n      and\n      0xc328848a\n        /* \"Inju_Gambit/ChallengeManager.sol\":2223:2233  strangerId */\n      dup4\n        /* \"Inju_Gambit/ChallengeManager.sol\":2235:2239  true */\n      0x01\n        /* \"Inju_Gambit/ChallengeManager.sol\":2241:2246  false */\n      0x00\n        /* \"Inju_Gambit/ChallengeManager.sol\":2248:2253  false */\n      dup1\n        /* \"Inju_Gambit/ChallengeManager.sol\":2255:2260  false */\n      0x00\n        /* \"Inju_Gambit/ChallengeManager.sol\":2195:2261  privileged.upgradeAttribute(strangerId, true, false, false, false) */\n      mload(0x40)\n      dup7\n      0xffffffff\n      and\n      0xe0\n      shl\n      dup2\n      mstore\n      0x04\n      add\n      tag_102\n      swap6\n      swap5\n      swap4\n      swap3\n      swap2\n      swap1\n      tag_103\n      jump\t// in\n    tag_102:\n      0x00\n      mload(0x40)\n      dup1\n      dup4\n      sub\n      dup2\n      0x00\n      dup8\n      dup1\n      extcodesize\n      iszero\n      dup1\n      iszero\n      tag_104\n      jumpi\n      0x00\n      dup1\n      revert\n    tag_104:\n      pop\n      gas\n      call\n      iszero\n      dup1\n      iszero\n      tag_106\n      jumpi\n      returndatasize\n      0x00\n      dup1\n      returndatacopy\n      revert(0x00, returndatasize)\n    tag_106:\n      pop\n      pop\n      pop\n      pop\n        /* \"Inju_Gambit/ChallengeManager.sol\":2118:2913  if(privileged.getRequirmenets(strangerId).isRich == false){... */\n      jump(tag_107)\n    tag_101:\n        /* \"Inju_Gambit/ChallengeManager.sol\":2339:2344  false */\n      0x00\n        /* \"Inju_Gambit/ChallengeManager.sol\":2285:2344  privileged.getRequirmenets(strangerId).isImportant == false */\n      iszero\n      iszero\n        /* \"Inju_Gambit/ChallengeManager.sol\":2285:2295  privileged */\n      0x00\n      dup1\n      sload\n      swap1\n      0x0100\n      exp\n      swap1\n      div\n      0xffffffffffffffffffffffffffffffffffffffff\n      and\n        /* \"Inju_Gambit/ChallengeManager.sol\":2285:2311  privileged.getRequirmenets */\n      0xffffffffffffffffffffffffffffffffffffffff\n      and\n      0x89bdfdc3\n        /* \"Inju_Gambit/ChallengeManager.sol\":2312:2322  strangerId */\n      dup5\n        /* \"Inju_Gambit/ChallengeManager.sol\":2285:2323  privileged.getRequirmenets(strangerId) */\n      mload(0x40)\n      dup3\n      0xffffffff\n      and\n      0xe0\n      shl\n      dup2\n      mstore\n      0x04\n      add\n      tag_108\n      swap2\n      swap1\n      tag_40\n      jump\t// in\n    tag_108:\n      0xa0\n      mload(0x40)\n      dup1\n      dup4\n      sub\n      dup2\n      dup7\n      gas\n      staticcall\n      iszero\n      dup1\n      iszero\n      tag_110\n      jumpi\n      returndatasize\n      0x00\n      dup1\n      returndatacopy\n      revert(0x00, returndatasize)\n    tag_110:\n      pop\n      pop\n      pop\n      pop\n      mload(0x40)\n      returndatasize\n      not(0x1f)\n      0x1f\n      dup3\n      add\n      and\n      dup3\n      add\n      dup1\n      0x40\n      mstore\n      pop\n      dup2\n      add\n      swap1\n      tag_111\n      swap2\n      swap1\n      tag_90\n      jump\t// in\n    tag_111:\n        /* \"Inju_Gambit/ChallengeManager.sol\":2285:2335  privileged.getRequirmenets(strangerId).isImportant */\n      0x40\n      add\n      mload\n        /* \"Inju_Gambit/ChallengeManager.sol\":2285:2344  privileged.getRequirmenets(strangerId).isImportant == false */\n      iszero\n      iszero\n      sub\n        /* \"Inju_Gambit/ChallengeManager.sol\":2282:2913  if(privileged.getRequirmenets(strangerId).isImportant == false){... */\n      tag_112\n      jumpi\n        /* \"Inju_Gambit/ChallengeManager.sol\":2364:2374  privileged */\n      0x00\n      dup1\n      sload\n      swap1\n      0x0100\n      exp\n      swap1\n      div\n      0xffffffffffffffffffffffffffffffffffffffff\n      and\n        /* \"Inju_Gambit/ChallengeManager.sol\":2364:2391  privileged.upgradeAttribute */\n      0xffffffffffffffffffffffffffffffffffffffff\n      and\n      0xc328848a\n        /* \"Inju_Gambit/ChallengeManager.sol\":2392:2402  strangerId */\n      dup4\n        /* \"Inju_Gambit/ChallengeManager.sol\":2404:2408  true */\n      0x01\n        /* \"Inju_Gambit/ChallengeManager.sol\":2410:2414  true */\n      dup1\n        /* \"Inju_Gambit/ChallengeManager.sol\":2416:2421  false */\n      0x00\n        /* \"Inju_Gambit/ChallengeManager.sol\":2423:2428  false */\n      dup1\n        /* \"Inju_Gambit/ChallengeManager.sol\":2364:2429  privileged.upgradeAttribute(strangerId, true, true, false, false) */\n      mload(0x40)\n      dup7\n      0xffffffff\n      and\n      0xe0\n      shl\n      dup2\n      mstore\n      0x04\n      add\n      tag_113\n      swap6\n      swap5\n      swap4\n      swap3\n      swap2\n      swap1\n      tag_103\n      jump\t// in\n    tag_113:\n      0x00\n      mload(0x40)\n      dup1\n      dup4\n      sub\n      dup2\n      0x00\n      dup8\n      dup1\n      extcodesize\n      iszero\n      dup1\n      iszero\n      tag_114\n      jumpi\n      0x00\n      dup1\n      revert\n    tag_114:\n      pop\n      gas\n      call\n      iszero\n      dup1\n      iszero\n      tag_116\n      jumpi\n      returndatasize\n      0x00\n      dup1\n      returndatacopy\n      revert(0x00, returndatasize)\n    tag_116:\n      pop\n      pop\n      pop\n      pop\n        /* \"Inju_Gambit/ChallengeManager.sol\":2282:2913  if(privileged.getRequirmenets(strangerId).isImportant == false){... */\n      jump(tag_117)\n    tag_112:\n        /* \"Inju_Gambit/ChallengeManager.sol\":2509:2514  false */\n      0x00\n        /* \"Inju_Gambit/ChallengeManager.sol\":2453:2514  privileged.getRequirmenets(strangerId).hasConnection == false */\n      iszero\n      iszero\n        /* \"Inju_Gambit/ChallengeManager.sol\":2453:2463  privileged */\n      0x00\n      dup1\n      sload\n      swap1\n      0x0100\n      exp\n      swap1\n      div\n      0xffffffffffffffffffffffffffffffffffffffff\n      and\n        /* \"Inju_Gambit/ChallengeManager.sol\":2453:2479  privileged.getRequirmenets */\n      0xffffffffffffffffffffffffffffffffffffffff\n      and\n      0x89bdfdc3\n        /* \"Inju_Gambit/ChallengeManager.sol\":2480:2490  strangerId */\n      dup5\n        /* \"Inju_Gambit/ChallengeManager.sol\":2453:2491  privileged.getRequirmenets(strangerId) */\n      mload(0x40)\n      dup3\n      0xffffffff\n      and\n      0xe0\n      shl\n      dup2\n      mstore\n      0x04\n      add\n      tag_118\n      swap2\n      swap1\n      tag_40\n      jump\t// in\n    tag_118:\n      0xa0\n      mload(0x40)\n      dup1\n      dup4\n      sub\n      dup2\n      dup7\n      gas\n      staticcall\n      iszero\n      dup1\n      iszero\n      tag_120\n      jumpi\n      returndatasize\n      0x00\n      dup1\n      returndatacopy\n      revert(0x00, returndatasize)\n    tag_120:\n      pop\n      pop\n      pop\n      pop\n      mload(0x40)\n      returndatasize\n      not(0x1f)\n      0x1f\n      dup3\n      add\n      and\n      dup3\n      add\n      dup1\n      0x40\n      mstore\n      pop\n      dup2\n      add\n      swap1\n      tag_121\n      swap2\n      swap1\n      tag_90\n      jump\t// in\n    tag_121:\n        /* \"Inju_Gambit/ChallengeManager.sol\":2453:2505  privileged.getRequirmenets(strangerId).hasConnection */\n      0x60\n      add\n      mload\n        /* \"Inju_Gambit/ChallengeManager.sol\":2453:2514  privileged.getRequirmenets(strangerId).hasConnection == false */\n      iszero\n      iszero\n      sub\n        /* \"Inju_Gambit/ChallengeManager.sol\":2450:2913  if(privileged.getRequirmenets(strangerId).hasConnection == false){... */\n      tag_122\n      jumpi\n        /* \"Inju_Gambit/ChallengeManager.sol\":2534:2544  privileged */\n      0x00\n      dup1\n      sload\n      swap1\n      0x0100\n      exp\n      swap1\n      div\n      0xffffffffffffffffffffffffffffffffffffffff\n      and\n        /* \"Inju_Gambit/ChallengeManager.sol\":2534:2561  privileged.upgradeAttribute */\n      0xffffffffffffffffffffffffffffffffffffffff\n      and\n      0xc328848a\n        /* \"Inju_Gambit/ChallengeManager.sol\":2562:2572  strangerId */\n      dup4\n        /* \"Inju_Gambit/ChallengeManager.sol\":2574:2578  true */\n      0x01\n        /* \"Inju_Gambit/ChallengeManager.sol\":2580:2584  true */\n      dup1\n        /* \"Inju_Gambit/ChallengeManager.sol\":2586:2590  true */\n      0x01\n        /* \"Inju_Gambit/ChallengeManager.sol\":2592:2597  false */\n      0x00\n        /* \"Inju_Gambit/ChallengeManager.sol\":2534:2598  privileged.upgradeAttribute(strangerId, true, true, true, false) */\n      mload(0x40)\n      dup7\n      0xffffffff\n      and\n      0xe0\n      shl\n      dup2\n      mstore\n      0x04\n      add\n      tag_123\n      swap6\n      swap5\n      swap4\n      swap3\n      swap2\n      swap1\n      tag_103\n      jump\t// in\n    tag_123:\n      0x00\n      mload(0x40)\n      dup1\n      dup4\n      sub\n      dup2\n      0x00\n      dup8\n      dup1\n      extcodesize\n      iszero\n      dup1\n      iszero\n      tag_124\n      jumpi\n      0x00\n      dup1\n      revert\n    tag_124:\n      pop\n      gas\n      call\n      iszero\n      dup1\n      iszero\n      tag_126\n      jumpi\n      returndatasize\n      0x00\n      dup1\n      returndatacopy\n      revert(0x00, returndatasize)\n    tag_126:\n      pop\n      pop\n      pop\n      pop\n        /* \"Inju_Gambit/ChallengeManager.sol\":2450:2913  if(privileged.getRequirmenets(strangerId).hasConnection == false){... */\n      jump(tag_127)\n    tag_122:\n        /* \"Inju_Gambit/ChallengeManager.sol\":2675:2680  false */\n      0x00\n        /* \"Inju_Gambit/ChallengeManager.sol\":2622:2680  privileged.getRequirmenets(strangerId).hasVIPCard == false */\n      iszero\n      iszero\n        /* \"Inju_Gambit/ChallengeManager.sol\":2622:2632  privileged */\n      0x00\n      dup1\n      sload\n      swap1\n      0x0100\n      exp\n      swap1\n      div\n      0xffffffffffffffffffffffffffffffffffffffff\n      and\n        /* \"Inju_Gambit/ChallengeManager.sol\":2622:2648  privileged.getRequirmenets */\n      0xffffffffffffffffffffffffffffffffffffffff\n      and\n      0x89bdfdc3\n        /* \"Inju_Gambit/ChallengeManager.sol\":2649:2659  strangerId */\n      dup5\n        /* \"Inju_Gambit/ChallengeManager.sol\":2622:2660  privileged.getRequirmenets(strangerId) */\n      mload(0x40)\n      dup3\n      0xffffffff\n      and\n      0xe0\n      shl\n      dup2\n      mstore\n      0x04\n      add\n      tag_128\n      swap2\n      swap1\n      tag_40\n      jump\t// in\n    tag_128:\n      0xa0\n      mload(0x40)\n      dup1\n      dup4\n      sub\n      dup2\n      dup7\n      gas\n      staticcall\n      iszero\n      dup1\n      iszero\n      tag_130\n      jumpi\n      returndatasize\n      0x00\n      dup1\n      returndatacopy\n      revert(0x00, returndatasize)\n    tag_130:\n      pop\n      pop\n      pop\n      pop\n      mload(0x40)\n      returndatasize\n      not(0x1f)\n      0x1f\n      dup3\n      add\n      and\n      dup3\n      add\n      dup1\n      0x40\n      mstore\n      pop\n      dup2\n      add\n      swap1\n      tag_131\n      swap2\n      swap1\n      tag_90\n      jump\t// in\n    tag_131:\n        /* \"Inju_Gambit/ChallengeManager.sol\":2622:2671  privileged.getRequirmenets(strangerId).hasVIPCard */\n      0x80\n      add\n      mload\n        /* \"Inju_Gambit/ChallengeManager.sol\":2622:2680  privileged.getRequirmenets(strangerId).hasVIPCard == false */\n      iszero\n      iszero\n      sub\n        /* \"Inju_Gambit/ChallengeManager.sol\":2619:2913  if(privileged.getRequirmenets(strangerId).hasVIPCard == false){... */\n      tag_132\n      jumpi\n        /* \"Inju_Gambit/ChallengeManager.sol\":2700:2710  privileged */\n      0x00\n      dup1\n      sload\n      swap1\n      0x0100\n      exp\n      swap1\n      div\n      0xffffffffffffffffffffffffffffffffffffffff\n      and\n        /* \"Inju_Gambit/ChallengeManager.sol\":2700:2727  privileged.upgradeAttribute */\n      0xffffffffffffffffffffffffffffffffffffffff\n      and\n      0xc328848a\n        /* \"Inju_Gambit/ChallengeManager.sol\":2728:2738  strangerId */\n      dup4\n        /* \"Inju_Gambit/ChallengeManager.sol\":2740:2744  true */\n      0x01\n        /* \"Inju_Gambit/ChallengeManager.sol\":2746:2750  true */\n      dup1\n        /* \"Inju_Gambit/ChallengeManager.sol\":2752:2756  true */\n      0x01\n        /* \"Inju_Gambit/ChallengeManager.sol\":2758:2762  true */\n      dup1\n        /* \"Inju_Gambit/ChallengeManager.sol\":2700:2763  privileged.upgradeAttribute(strangerId, true, true, true, true) */\n      mload(0x40)\n      dup7\n      0xffffffff\n      and\n      0xe0\n      shl\n      dup2\n      mstore\n      0x04\n      add\n      tag_133\n      swap6\n      swap5\n      swap4\n      swap3\n      swap2\n      swap1\n      tag_103\n      jump\t// in\n    tag_133:\n      0x00\n      mload(0x40)\n      dup1\n      dup4\n      sub\n      dup2\n      0x00\n      dup8\n      dup1\n      extcodesize\n      iszero\n      dup1\n      iszero\n      tag_134\n      jumpi\n      0x00\n      dup1\n      revert\n    tag_134:\n      pop\n      gas\n      call\n      iszero\n      dup1\n      iszero\n      tag_136\n      jumpi\n      returndatasize\n      0x00\n      dup1\n      returndatacopy\n      revert(0x00, returndatasize)\n    tag_136:\n      pop\n      pop\n      pop\n      pop\n        /* \"Inju_Gambit/ChallengeManager.sol\":2809:2813  true */\n      0x01\n        /* \"Inju_Gambit/ChallengeManager.sol\":2782:2806  qualifiedChallengerFound */\n      0x02\n      0x00\n        /* \"Inju_Gambit/ChallengeManager.sol\":2782:2813  qualifiedChallengerFound = true */\n      0x0100\n      exp\n      dup2\n      sload\n      dup2\n      0xff\n      mul\n      not\n      and\n      swap1\n      dup4\n      iszero\n      iszero\n      mul\n      or\n      swap1\n      sstore\n      pop\n        /* \"Inju_Gambit/ChallengeManager.sol\":2848:2858  privileged */\n      0x00\n      dup1\n      sload\n      swap1\n      0x0100\n      exp\n      swap1\n      div\n      0xffffffffffffffffffffffffffffffffffffffff\n      and\n        /* \"Inju_Gambit/ChallengeManager.sol\":2848:2874  privileged.getRequirmenets */\n      0xffffffffffffffffffffffffffffffffffffffff\n      and\n      0x89bdfdc3\n        /* \"Inju_Gambit/ChallengeManager.sol\":2875:2885  strangerId */\n      dup4\n        /* \"Inju_Gambit/ChallengeManager.sol\":2848:2886  privileged.getRequirmenets(strangerId) */\n      mload(0x40)\n      dup3\n      0xffffffff\n      and\n      0xe0\n      shl\n      dup2\n      mstore\n      0x04\n      add\n      tag_137\n      swap2\n      swap1\n      tag_40\n      jump\t// in\n    tag_137:\n      0xa0\n      mload(0x40)\n      dup1\n      dup4\n      sub\n      dup2\n      dup7\n      gas\n      staticcall\n      iszero\n      dup1\n      iszero\n      tag_139\n      jumpi\n      returndatasize\n      0x00\n      dup1\n      returndatacopy\n      revert(0x00, returndatasize)\n    tag_139:\n      pop\n      pop\n      pop\n      pop\n      mload(0x40)\n      returndatasize\n      not(0x1f)\n      0x1f\n      dup3\n      add\n      and\n      dup3\n      add\n      dup1\n      0x40\n      mstore\n      pop\n      dup2\n      add\n      swap1\n      tag_140\n      swap2\n      swap1\n      tag_90\n      jump\t// in\n    tag_140:\n        /* \"Inju_Gambit/ChallengeManager.sol\":2848:2897  privileged.getRequirmenets(strangerId).challenger */\n      0x00\n      add\n      mload\n        /* \"Inju_Gambit/ChallengeManager.sol\":2832:2845  theChallenger */\n      0x02\n      0x01\n        /* \"Inju_Gambit/ChallengeManager.sol\":2832:2897  theChallenger = privileged.getRequirmenets(strangerId).challenger */\n      0x0100\n      exp\n      dup2\n      sload\n      dup2\n      0xffffffffffffffffffffffffffffffffffffffff\n      mul\n      not\n      and\n      swap1\n      dup4\n      0xffffffffffffffffffffffffffffffffffffffff\n      and\n      mul\n      or\n      swap1\n      sstore\n      pop\n        /* \"Inju_Gambit/ChallengeManager.sol\":2619:2913  if(privileged.getRequirmenets(strangerId).hasVIPCard == false){... */\n    tag_132:\n        /* \"Inju_Gambit/ChallengeManager.sol\":2450:2913  if(privileged.getRequirmenets(strangerId).hasConnection == false){... */\n    tag_127:\n        /* \"Inju_Gambit/ChallengeManager.sol\":2282:2913  if(privileged.getRequirmenets(strangerId).isImportant == false){... */\n    tag_117:\n        /* \"Inju_Gambit/ChallengeManager.sol\":2118:2913  if(privileged.getRequirmenets(strangerId).isRich == false){... */\n    tag_107:\n        /* \"Inju_Gambit/ChallengeManager.sol\":2088:4112  if (gacha == 0){... */\n      jump(tag_141)\n    tag_96:\n        /* \"Inju_Gambit/ChallengeManager.sol\":2942:2943  1 */\n      0x01\n        /* \"Inju_Gambit/ChallengeManager.sol\":2933:2938  gacha */\n      dup2\n        /* \"Inju_Gambit/ChallengeManager.sol\":2933:2943  gacha == 1 */\n      sub\n        /* \"Inju_Gambit/ChallengeManager.sol\":2929:4112  if (gacha == 1){... */\n      tag_142\n      jumpi\n        /* \"Inju_Gambit/ChallengeManager.sol\":3013:3018  false */\n      0x00\n        /* \"Inju_Gambit/ChallengeManager.sol\":2962:3018  privileged.getRequirmenets(challengerId).isRich == false */\n      iszero\n      iszero\n        /* \"Inju_Gambit/ChallengeManager.sol\":2962:2972  privileged */\n      0x00\n      dup1\n      sload\n      swap1\n      0x0100\n      exp\n      swap1\n      div\n      0xffffffffffffffffffffffffffffffffffffffff\n      and\n        /* \"Inju_Gambit/ChallengeManager.sol\":2962:2988  privileged.getRequirmenets */\n      0xffffffffffffffffffffffffffffffffffffffff\n      and\n      0x89bdfdc3\n        /* \"Inju_Gambit/ChallengeManager.sol\":2989:3001  challengerId */\n      dup6\n        /* \"Inju_Gambit/ChallengeManager.sol\":2962:3002  privileged.getRequirmenets(challengerId) */\n      mload(0x40)\n      dup3\n      0xffffffff\n      and\n      0xe0\n      shl\n      dup2\n      mstore\n      0x04\n      add\n      tag_143\n      swap2\n      swap1\n      tag_40\n      jump\t// in\n    tag_143:\n      0xa0\n      mload(0x40)\n      dup1\n      dup4\n      sub\n      dup2\n      dup7\n      gas\n      staticcall\n      iszero\n      dup1\n      iszero\n      tag_145\n      jumpi\n      returndatasize\n      0x00\n      dup1\n      returndatacopy\n      revert(0x00, returndatasize)\n    tag_145:\n      pop\n      pop\n      pop\n      pop\n      mload(0x40)\n      returndatasize\n      not(0x1f)\n      0x1f\n      dup3\n      add\n      and\n      dup3\n      add\n      dup1\n      0x40\n      mstore\n      pop\n      dup2\n      add\n      swap1\n      tag_146\n      swap2\n      swap1\n      tag_90\n      jump\t// in\n    tag_146:\n        /* \"Inju_Gambit/ChallengeManager.sol\":2962:3009  privileged.getRequirmenets(challengerId).isRich */\n      0x20\n      add\n      mload\n        /* \"Inju_Gambit/ChallengeManager.sol\":2962:3018  privileged.getRequirmenets(challengerId).isRich == false */\n      iszero\n      iszero\n      sub\n        /* \"Inju_Gambit/ChallengeManager.sol\":2959:3772  if(privileged.getRequirmenets(challengerId).isRich == false){... */\n      tag_147\n      jumpi\n        /* \"Inju_Gambit/ChallengeManager.sol\":3038:3048  privileged */\n      0x00\n      dup1\n      sload\n      swap1\n      0x0100\n      exp\n      swap1\n      div\n      0xffffffffffffffffffffffffffffffffffffffff\n      and\n        /* \"Inju_Gambit/ChallengeManager.sol\":3038:3065  privileged.upgradeAttribute */\n      0xffffffffffffffffffffffffffffffffffffffff\n      and\n      0xc328848a\n        /* \"Inju_Gambit/ChallengeManager.sol\":3066:3078  challengerId */\n      dup5\n        /* \"Inju_Gambit/ChallengeManager.sol\":3080:3084  true */\n      0x01\n        /* \"Inju_Gambit/ChallengeManager.sol\":3086:3091  false */\n      0x00\n        /* \"Inju_Gambit/ChallengeManager.sol\":3093:3098  false */\n      dup1\n        /* \"Inju_Gambit/ChallengeManager.sol\":3100:3105  false */\n      0x00\n        /* \"Inju_Gambit/ChallengeManager.sol\":3038:3106  privileged.upgradeAttribute(challengerId, true, false, false, false) */\n      mload(0x40)\n      dup7\n      0xffffffff\n      and\n      0xe0\n      shl\n      dup2\n      mstore\n      0x04\n      add\n      tag_148\n      swap6\n      swap5\n      swap4\n      swap3\n      swap2\n      swap1\n      tag_103\n      jump\t// in\n    tag_148:\n      0x00\n      mload(0x40)\n      dup1\n      dup4\n      sub\n      dup2\n      0x00\n      dup8\n      dup1\n      extcodesize\n      iszero\n      dup1\n      iszero\n      tag_149\n      jumpi\n      0x00\n      dup1\n      revert\n    tag_149:\n      pop\n      gas\n      call\n      iszero\n      dup1\n      iszero\n      tag_151\n      jumpi\n      returndatasize\n      0x00\n      dup1\n      returndatacopy\n      revert(0x00, returndatasize)\n    tag_151:\n      pop\n      pop\n      pop\n      pop\n        /* \"Inju_Gambit/ChallengeManager.sol\":2959:3772  if(privileged.getRequirmenets(challengerId).isRich == false){... */\n      jump(tag_152)\n    tag_147:\n        /* \"Inju_Gambit/ChallengeManager.sol\":3186:3191  false */\n      0x00\n        /* \"Inju_Gambit/ChallengeManager.sol\":3130:3191  privileged.getRequirmenets(challengerId).isImportant == false */\n      iszero\n      iszero\n        /* \"Inju_Gambit/ChallengeManager.sol\":3130:3140  privileged */\n      0x00\n      dup1\n      sload\n      swap1\n      0x0100\n      exp\n      swap1\n      div\n      0xffffffffffffffffffffffffffffffffffffffff\n      and\n        /* \"Inju_Gambit/ChallengeManager.sol\":3130:3156  privileged.getRequirmenets */\n      0xffffffffffffffffffffffffffffffffffffffff\n      and\n      0x89bdfdc3\n        /* \"Inju_Gambit/ChallengeManager.sol\":3157:3169  challengerId */\n      dup6\n        /* \"Inju_Gambit/ChallengeManager.sol\":3130:3170  privileged.getRequirmenets(challengerId) */\n      mload(0x40)\n      dup3\n      0xffffffff\n      and\n      0xe0\n      shl\n      dup2\n      mstore\n      0x04\n      add\n      tag_153\n      swap2\n      swap1\n      tag_40\n      jump\t// in\n    tag_153:\n      0xa0\n      mload(0x40)\n      dup1\n      dup4\n      sub\n      dup2\n      dup7\n      gas\n      staticcall\n      iszero\n      dup1\n      iszero\n      tag_155\n      jumpi\n      returndatasize\n      0x00\n      dup1\n      returndatacopy\n      revert(0x00, returndatasize)\n    tag_155:\n      pop\n      pop\n      pop\n      pop\n      mload(0x40)\n      returndatasize\n      not(0x1f)\n      0x1f\n      dup3\n      add\n      and\n      dup3\n      add\n      dup1\n      0x40\n      mstore\n      pop\n      dup2\n      add\n      swap1\n      tag_156\n      swap2\n      swap1\n      tag_90\n      jump\t// in\n    tag_156:\n        /* \"Inju_Gambit/ChallengeManager.sol\":3130:3182  privileged.getRequirmenets(challengerId).isImportant */\n      0x40\n      add\n      mload\n        /* \"Inju_Gambit/ChallengeManager.sol\":3130:3191  privileged.getRequirmenets(challengerId).isImportant == false */\n      iszero\n      iszero\n      sub\n        /* \"Inju_Gambit/ChallengeManager.sol\":3127:3772  if(privileged.getRequirmenets(challengerId).isImportant == false){... */\n      tag_157\n      jumpi\n        /* \"Inju_Gambit/ChallengeManager.sol\":3211:3221  privileged */\n      0x00\n      dup1\n      sload\n      swap1\n      0x0100\n      exp\n      swap1\n      div\n      0xffffffffffffffffffffffffffffffffffffffff\n      and\n        /* \"Inju_Gambit/ChallengeManager.sol\":3211:3238  privileged.upgradeAttribute */\n      0xffffffffffffffffffffffffffffffffffffffff\n      and\n      0xc328848a\n        /* \"Inju_Gambit/ChallengeManager.sol\":3239:3251  challengerId */\n      dup5\n        /* \"Inju_Gambit/ChallengeManager.sol\":3253:3257  true */\n      0x01\n        /* \"Inju_Gambit/ChallengeManager.sol\":3259:3263  true */\n      dup1\n        /* \"Inju_Gambit/ChallengeManager.sol\":3265:3270  false */\n      0x00\n        /* \"Inju_Gambit/ChallengeManager.sol\":3272:3277  false */\n      dup1\n        /* \"Inju_Gambit/ChallengeManager.sol\":3211:3278  privileged.upgradeAttribute(challengerId, true, true, false, false) */\n      mload(0x40)\n      dup7\n      0xffffffff\n      and\n      0xe0\n      shl\n      dup2\n      mstore\n      0x04\n      add\n      tag_158\n      swap6\n      swap5\n      swap4\n      swap3\n      swap2\n      swap1\n      tag_103\n      jump\t// in\n    tag_158:\n      0x00\n      mload(0x40)\n      dup1\n      dup4\n      sub\n      dup2\n      0x00\n      dup8\n      dup1\n      extcodesize\n      iszero\n      dup1\n      iszero\n      tag_159\n      jumpi\n      0x00\n      dup1\n      revert\n    tag_159:\n      pop\n      gas\n      call\n      iszero\n      dup1\n      iszero\n      tag_161\n      jumpi\n      returndatasize\n      0x00\n      dup1\n      returndatacopy\n      revert(0x00, returndatasize)\n    tag_161:\n      pop\n      pop\n      pop\n      pop\n        /* \"Inju_Gambit/ChallengeManager.sol\":3127:3772  if(privileged.getRequirmenets(challengerId).isImportant == false){... */\n      jump(tag_162)\n    tag_157:\n        /* \"Inju_Gambit/ChallengeManager.sol\":3360:3365  false */\n      0x00\n        /* \"Inju_Gambit/ChallengeManager.sol\":3302:3365  privileged.getRequirmenets(challengerId).hasConnection == false */\n      iszero\n      iszero\n        /* \"Inju_Gambit/ChallengeManager.sol\":3302:3312  privileged */\n      0x00\n      dup1\n      sload\n      swap1\n      0x0100\n      exp\n      swap1\n      div\n      0xffffffffffffffffffffffffffffffffffffffff\n      and\n        /* \"Inju_Gambit/ChallengeManager.sol\":3302:3328  privileged.getRequirmenets */\n      0xffffffffffffffffffffffffffffffffffffffff\n      and\n      0x89bdfdc3\n        /* \"Inju_Gambit/ChallengeManager.sol\":3329:3341  challengerId */\n      dup6\n        /* \"Inju_Gambit/ChallengeManager.sol\":3302:3342  privileged.getRequirmenets(challengerId) */\n      mload(0x40)\n      dup3\n      0xffffffff\n      and\n      0xe0\n      shl\n      dup2\n      mstore\n      0x04\n      add\n      tag_163\n      swap2\n      swap1\n      tag_40\n      jump\t// in\n    tag_163:\n      0xa0\n      mload(0x40)\n      dup1\n      dup4\n      sub\n      dup2\n      dup7\n      gas\n      staticcall\n      iszero\n      dup1\n      iszero\n      tag_165\n      jumpi\n      returndatasize\n      0x00\n      dup1\n      returndatacopy\n      revert(0x00, returndatasize)\n    tag_165:\n      pop\n      pop\n      pop\n      pop\n      mload(0x40)\n      returndatasize\n      not(0x1f)\n      0x1f\n      dup3\n      add\n      and\n      dup3\n      add\n      dup1\n      0x40\n      mstore\n      pop\n      dup2\n      add\n      swap1\n      tag_166\n      swap2\n      swap1\n      tag_90\n      jump\t// in\n    tag_166:\n        /* \"Inju_Gambit/ChallengeManager.sol\":3302:3356  privileged.getRequirmenets(challengerId).hasConnection */\n      0x60\n      add\n      mload\n        /* \"Inju_Gambit/ChallengeManager.sol\":3302:3365  privileged.getRequirmenets(challengerId).hasConnection == false */\n      iszero\n      iszero\n      sub\n        /* \"Inju_Gambit/ChallengeManager.sol\":3299:3772  if(privileged.getRequirmenets(challengerId).hasConnection == false){... */\n      tag_167\n      jumpi\n        /* \"Inju_Gambit/ChallengeManager.sol\":3385:3395  privileged */\n      0x00\n      dup1\n      sload\n      swap1\n      0x0100\n      exp\n      swap1\n      div\n      0xffffffffffffffffffffffffffffffffffffffff\n      and\n        /* \"Inju_Gambit/ChallengeManager.sol\":3385:3412  privileged.upgradeAttribute */\n      0xffffffffffffffffffffffffffffffffffffffff\n      and\n      0xc328848a\n        /* \"Inju_Gambit/ChallengeManager.sol\":3413:3425  challengerId */\n      dup5\n        /* \"Inju_Gambit/ChallengeManager.sol\":3427:3431  true */\n      0x01\n        /* \"Inju_Gambit/ChallengeManager.sol\":3433:3437  true */\n      dup1\n        /* \"Inju_Gambit/ChallengeManager.sol\":3439:3443  true */\n      0x01\n        /* \"Inju_Gambit/ChallengeManager.sol\":3445:3450  false */\n      0x00\n        /* \"Inju_Gambit/ChallengeManager.sol\":3385:3451  privileged.upgradeAttribute(challengerId, true, true, true, false) */\n      mload(0x40)\n      dup7\n      0xffffffff\n      and\n      0xe0\n      shl\n      dup2\n      mstore\n      0x04\n      add\n      tag_168\n      swap6\n      swap5\n      swap4\n      swap3\n      swap2\n      swap1\n      tag_103\n      jump\t// in\n    tag_168:\n      0x00\n      mload(0x40)\n      dup1\n      dup4\n      sub\n      dup2\n      0x00\n      dup8\n      dup1\n      extcodesize\n      iszero\n      dup1\n      iszero\n      tag_169\n      jumpi\n      0x00\n      dup1\n      revert\n    tag_169:\n      pop\n      gas\n      call\n      iszero\n      dup1\n      iszero\n      tag_171\n      jumpi\n      returndatasize\n      0x00\n      dup1\n      returndatacopy\n      revert(0x00, returndatasize)\n    tag_171:\n      pop\n      pop\n      pop\n      pop\n        /* \"Inju_Gambit/ChallengeManager.sol\":3299:3772  if(privileged.getRequirmenets(challengerId).hasConnection == false){... */\n      jump(tag_172)\n    tag_167:\n        /* \"Inju_Gambit/ChallengeManager.sol\":3530:3535  false */\n      0x00\n        /* \"Inju_Gambit/ChallengeManager.sol\":3475:3535  privileged.getRequirmenets(challengerId).hasVIPCard == false */\n      iszero\n      iszero\n        /* \"Inju_Gambit/ChallengeManager.sol\":3475:3485  privileged */\n      0x00\n      dup1\n      sload\n      swap1\n      0x0100\n      exp\n      swap1\n      div\n      0xffffffffffffffffffffffffffffffffffffffff\n      and\n        /* \"Inju_Gambit/ChallengeManager.sol\":3475:3501  privileged.getRequirmenets */\n      0xffffffffffffffffffffffffffffffffffffffff\n      and\n      0x89bdfdc3\n        /* \"Inju_Gambit/ChallengeManager.sol\":3502:3514  challengerId */\n      dup6\n        /* \"Inju_Gambit/ChallengeManager.sol\":3475:3515  privileged.getRequirmenets(challengerId) */\n      mload(0x40)\n      dup3\n      0xffffffff\n      and\n      0xe0\n      shl\n      dup2\n      mstore\n      0x04\n      add\n      tag_173\n      swap2\n      swap1\n      tag_40\n      jump\t// in\n    tag_173:\n      0xa0\n      mload(0x40)\n      dup1\n      dup4\n      sub\n      dup2\n      dup7\n      gas\n      staticcall\n      iszero\n      dup1\n      iszero\n      tag_175\n      jumpi\n      returndatasize\n      0x00\n      dup1\n      returndatacopy\n      revert(0x00, returndatasize)\n    tag_175:\n      pop\n      pop\n      pop\n      pop\n      mload(0x40)\n      returndatasize\n      not(0x1f)\n      0x1f\n      dup3\n      add\n      and\n      dup3\n      add\n      dup1\n      0x40\n      mstore\n      pop\n      dup2\n      add\n      swap1\n      tag_176\n      swap2\n      swap1\n      tag_90\n      jump\t// in\n    tag_176:\n        /* \"Inju_Gambit/ChallengeManager.sol\":3475:3526  privileged.getRequirmenets(challengerId).hasVIPCard */\n      0x80\n      add\n      mload\n        /* \"Inju_Gambit/ChallengeManager.sol\":3475:3535  privileged.getRequirmenets(challengerId).hasVIPCard == false */\n      iszero\n      iszero\n      sub\n        /* \"Inju_Gambit/ChallengeManager.sol\":3472:3772  if(privileged.getRequirmenets(challengerId).hasVIPCard == false){... */\n      tag_177\n      jumpi\n        /* \"Inju_Gambit/ChallengeManager.sol\":3555:3565  privileged */\n      0x00\n      dup1\n      sload\n      swap1\n      0x0100\n      exp\n      swap1\n      div\n      0xffffffffffffffffffffffffffffffffffffffff\n      and\n        /* \"Inju_Gambit/ChallengeManager.sol\":3555:3582  privileged.upgradeAttribute */\n      0xffffffffffffffffffffffffffffffffffffffff\n      and\n      0xc328848a\n        /* \"Inju_Gambit/ChallengeManager.sol\":3583:3595  challengerId */\n      dup5\n        /* \"Inju_Gambit/ChallengeManager.sol\":3597:3601  true */\n      0x01\n        /* \"Inju_Gambit/ChallengeManager.sol\":3603:3607  true */\n      dup1\n        /* \"Inju_Gambit/ChallengeManager.sol\":3609:3613  true */\n      0x01\n        /* \"Inju_Gambit/ChallengeManager.sol\":3615:3619  true */\n      dup1\n        /* \"Inju_Gambit/ChallengeManager.sol\":3555:3620  privileged.upgradeAttribute(challengerId, true, true, true, true) */\n      mload(0x40)\n      dup7\n      0xffffffff\n      and\n      0xe0\n      shl\n      dup2\n      mstore\n      0x04\n      add\n      tag_178\n      swap6\n      swap5\n      swap4\n      swap3\n      swap2\n      swap1\n      tag_103\n      jump\t// in\n    tag_178:\n      0x00\n      mload(0x40)\n      dup1\n      dup4\n      sub\n      dup2\n      0x00\n      dup8\n      dup1\n      extcodesize\n      iszero\n      dup1\n      iszero\n      tag_179\n      jumpi\n      0x00\n      dup1\n      revert\n    tag_179:\n      pop\n      gas\n      call\n      iszero\n      dup1\n      iszero\n      tag_181\n      jumpi\n      returndatasize\n      0x00\n      dup1\n      returndatacopy\n      revert(0x00, returndatasize)\n    tag_181:\n      pop\n      pop\n      pop\n      pop\n        /* \"Inju_Gambit/ChallengeManager.sol\":3666:3670  true */\n      0x01\n        /* \"Inju_Gambit/ChallengeManager.sol\":3639:3663  qualifiedChallengerFound */\n      0x02\n      0x00\n        /* \"Inju_Gambit/ChallengeManager.sol\":3639:3670  qualifiedChallengerFound = true */\n      0x0100\n      exp\n      dup2\n      sload\n      dup2\n      0xff\n      mul\n      not\n      and\n      swap1\n      dup4\n      iszero\n      iszero\n      mul\n      or\n      swap1\n      sstore\n      pop\n        /* \"Inju_Gambit/ChallengeManager.sol\":3705:3715  privileged */\n      0x00\n      dup1\n      sload\n      swap1\n      0x0100\n      exp\n      swap1\n      div\n      0xffffffffffffffffffffffffffffffffffffffff\n      and\n        /* \"Inju_Gambit/ChallengeManager.sol\":3705:3731  privileged.getRequirmenets */\n      0xffffffffffffffffffffffffffffffffffffffff\n      and\n      0x89bdfdc3\n        /* \"Inju_Gambit/ChallengeManager.sol\":3732:3744  challengerId */\n      dup5\n        /* \"Inju_Gambit/ChallengeManager.sol\":3705:3745  privileged.getRequirmenets(challengerId) */\n      mload(0x40)\n      dup3\n      0xffffffff\n      and\n      0xe0\n      shl\n      dup2\n      mstore\n      0x04\n      add\n      tag_182\n      swap2\n      swap1\n      tag_40\n      jump\t// in\n    tag_182:\n      0xa0\n      mload(0x40)\n      dup1\n      dup4\n      sub\n      dup2\n      dup7\n      gas\n      staticcall\n      iszero\n      dup1\n      iszero\n      tag_184\n      jumpi\n      returndatasize\n      0x00\n      dup1\n      returndatacopy\n      revert(0x00, returndatasize)\n    tag_184:\n      pop\n      pop\n      pop\n      pop\n      mload(0x40)\n      returndatasize\n      not(0x1f)\n      0x1f\n      dup3\n      add\n      and\n      dup3\n      add\n      dup1\n      0x40\n      mstore\n      pop\n      dup2\n      add\n      swap1\n      tag_185\n      swap2\n      swap1\n      tag_90\n      jump\t// in\n    tag_185:\n        /* \"Inju_Gambit/ChallengeManager.sol\":3705:3756  privileged.getRequirmenets(challengerId).challenger */\n      0x00\n      add\n      mload\n        /* \"Inju_Gambit/ChallengeManager.sol\":3689:3702  theChallenger */\n      0x02\n      0x01\n        /* \"Inju_Gambit/ChallengeManager.sol\":3689:3756  theChallenger = privileged.getRequirmenets(challengerId).challenger */\n      0x0100\n      exp\n      dup2\n      sload\n      dup2\n      0xffffffffffffffffffffffffffffffffffffffff\n      mul\n      not\n      and\n      swap1\n      dup4\n      0xffffffffffffffffffffffffffffffffffffffff\n      and\n      mul\n      or\n      swap1\n      sstore\n      pop\n        /* \"Inju_Gambit/ChallengeManager.sol\":3472:3772  if(privileged.getRequirmenets(challengerId).hasVIPCard == false){... */\n    tag_177:\n        /* \"Inju_Gambit/ChallengeManager.sol\":3299:3772  if(privileged.getRequirmenets(challengerId).hasConnection == false){... */\n    tag_172:\n        /* \"Inju_Gambit/ChallengeManager.sol\":3127:3772  if(privileged.getRequirmenets(challengerId).isImportant == false){... */\n    tag_162:\n        /* \"Inju_Gambit/ChallengeManager.sol\":2959:3772  if(privileged.getRequirmenets(challengerId).isRich == false){... */\n    tag_152:\n        /* \"Inju_Gambit/ChallengeManager.sol\":2929:4112  if (gacha == 1){... */\n      jump(tag_186)\n    tag_142:\n        /* \"Inju_Gambit/ChallengeManager.sol\":3800:3801  2 */\n      0x02\n        /* \"Inju_Gambit/ChallengeManager.sol\":3791:3796  gacha */\n      dup2\n        /* \"Inju_Gambit/ChallengeManager.sol\":3791:3801  gacha == 2 */\n      sub\n        /* \"Inju_Gambit/ChallengeManager.sol\":3788:4112  if(gacha == 2){... */\n      tag_187\n      jumpi\n        /* \"Inju_Gambit/ChallengeManager.sol\":3817:3827  privileged */\n      0x00\n      dup1\n      sload\n      swap1\n      0x0100\n      exp\n      swap1\n      div\n      0xffffffffffffffffffffffffffffffffffffffff\n      and\n        /* \"Inju_Gambit/ChallengeManager.sol\":3817:3842  privileged.resetAttribute */\n      0xffffffffffffffffffffffffffffffffffffffff\n      and\n      0x905d0709\n        /* \"Inju_Gambit/ChallengeManager.sol\":3843:3855  challengerId */\n      dup5\n        /* \"Inju_Gambit/ChallengeManager.sol\":3817:3856  privileged.resetAttribute(challengerId) */\n      mload(0x40)\n      dup3\n      0xffffffff\n      and\n      0xe0\n      shl\n      dup2\n      mstore\n      0x04\n      add\n      tag_188\n      swap2\n      swap1\n      tag_40\n      jump\t// in\n    tag_188:\n      0x00\n      mload(0x40)\n      dup1\n      dup4\n      sub\n      dup2\n      0x00\n      dup8\n      dup1\n      extcodesize\n      iszero\n      dup1\n      iszero\n      tag_189\n      jumpi\n      0x00\n      dup1\n      revert\n    tag_189:\n      pop\n      gas\n      call\n      iszero\n      dup1\n      iszero\n      tag_191\n      jumpi\n      returndatasize\n      0x00\n      dup1\n      returndatacopy\n      revert(0x00, returndatasize)\n    tag_191:\n      pop\n      pop\n      pop\n      pop\n        /* \"Inju_Gambit/ChallengeManager.sol\":3898:3903  false */\n      0x00\n        /* \"Inju_Gambit/ChallengeManager.sol\":3871:3895  qualifiedChallengerFound */\n      0x02\n      0x00\n        /* \"Inju_Gambit/ChallengeManager.sol\":3871:3903  qualifiedChallengerFound = false */\n      0x0100\n      exp\n      dup2\n      sload\n      dup2\n      0xff\n      mul\n      not\n      and\n      swap1\n      dup4\n      iszero\n      iszero\n      mul\n      or\n      swap1\n      sstore\n      pop\n        /* \"Inju_Gambit/ChallengeManager.sol\":3942:3943  0 */\n      0x00\n        /* \"Inju_Gambit/ChallengeManager.sol\":3918:3931  theChallenger */\n      0x02\n      0x01\n        /* \"Inju_Gambit/ChallengeManager.sol\":3918:3944  theChallenger = address(0) */\n      0x0100\n      exp\n      dup2\n      sload\n      dup2\n      0xffffffffffffffffffffffffffffffffffffffff\n      mul\n      not\n      and\n      swap1\n      dup4\n      0xffffffffffffffffffffffffffffffffffffffff\n      and\n      mul\n      or\n      swap1\n      sstore\n      pop\n        /* \"Inju_Gambit/ChallengeManager.sol\":3788:4112  if(gacha == 2){... */\n      jump(tag_192)\n    tag_187:\n        /* \"Inju_Gambit/ChallengeManager.sol\":3975:3985  privileged */\n      0x00\n      dup1\n      sload\n      swap1\n      0x0100\n      exp\n      swap1\n      div\n      0xffffffffffffffffffffffffffffffffffffffff\n      and\n        /* \"Inju_Gambit/ChallengeManager.sol\":3975:4000  privileged.resetAttribute */\n      0xffffffffffffffffffffffffffffffffffffffff\n      and\n      0x905d0709\n        /* \"Inju_Gambit/ChallengeManager.sol\":4001:4011  strangerId */\n      dup4\n        /* \"Inju_Gambit/ChallengeManager.sol\":3975:4012  privileged.resetAttribute(strangerId) */\n      mload(0x40)\n      dup3\n      0xffffffff\n      and\n      0xe0\n      shl\n      dup2\n      mstore\n      0x04\n      add\n      tag_193\n      swap2\n      swap1\n      tag_40\n      jump\t// in\n    tag_193:\n      0x00\n      mload(0x40)\n      dup1\n      dup4\n      sub\n      dup2\n      0x00\n      dup8\n      dup1\n      extcodesize\n      iszero\n      dup1\n      iszero\n      tag_194\n      jumpi\n      0x00\n      dup1\n      revert\n    tag_194:\n      pop\n      gas\n      call\n      iszero\n      dup1\n      iszero\n      tag_196\n      jumpi\n      returndatasize\n      0x00\n      dup1\n      returndatacopy\n      revert(0x00, returndatasize)\n    tag_196:\n      pop\n      pop\n      pop\n      pop\n        /* \"Inju_Gambit/ChallengeManager.sol\":4054:4059  false */\n      0x00\n        /* \"Inju_Gambit/ChallengeManager.sol\":4027:4051  qualifiedChallengerFound */\n      0x02\n      0x00\n        /* \"Inju_Gambit/ChallengeManager.sol\":4027:4059  qualifiedChallengerFound = false */\n      0x0100\n      exp\n      dup2\n      sload\n      dup2\n      0xff\n      mul\n      not\n      and\n      swap1\n      dup4\n      iszero\n      iszero\n      mul\n      or\n      swap1\n      sstore\n      pop\n        /* \"Inju_Gambit/ChallengeManager.sol\":4098:4099  0 */\n      0x00\n        /* \"Inju_Gambit/ChallengeManager.sol\":4074:4087  theChallenger */\n      0x02\n      0x01\n        /* \"Inju_Gambit/ChallengeManager.sol\":4074:4100  theChallenger = address(0) */\n      0x0100\n      exp\n      dup2\n      sload\n      dup2\n      0xffffffffffffffffffffffffffffffffffffffff\n      mul\n      not\n      and\n      swap1\n      dup4\n      0xffffffffffffffffffffffffffffffffffffffff\n      and\n      mul\n      or\n      swap1\n      sstore\n      pop\n        /* \"Inju_Gambit/ChallengeManager.sol\":3788:4112  if(gacha == 2){... */\n    tag_192:\n        /* \"Inju_Gambit/ChallengeManager.sol\":2929:4112  if (gacha == 1){... */\n    tag_186:\n        /* \"Inju_Gambit/ChallengeManager.sol\":2088:4112  if (gacha == 0){... */\n    tag_141:\n        /* \"Inju_Gambit/ChallengeManager.sol\":1607:4119  {... */\n      pop\n        /* \"Inju_Gambit/ChallengeManager.sol\":1497:4119  function upgradeChallengerAttribute(uint256 challengerId, uint256 strangerId) public stillSearchingChallenger {... */\n      pop\n      pop\n      jump\t// out\n        /* \"Inju_Gambit/ChallengeManager.sol\":461:489  address public theChallenger */\n    tag_29:\n      0x02\n      0x01\n      swap1\n      sload\n      swap1\n      0x0100\n      exp\n      swap1\n      div\n      0xffffffffffffffffffffffffffffffffffffffff\n      and\n      dup2\n      jump\t// out\n        /* \"Inju_Gambit/ChallengeManager.sol\":4504:4609  function getPrivilegedAddress() public view returns(address){... */\n    tag_34:\n        /* \"Inju_Gambit/ChallengeManager.sol\":4556:4563  address */\n      0x00\n        /* \"Inju_Gambit/ChallengeManager.sol\":4590:4600  privileged */\n      dup1\n      0x00\n      swap1\n      sload\n      swap1\n      0x0100\n      exp\n      swap1\n      div\n      0xffffffffffffffffffffffffffffffffffffffff\n      and\n        /* \"Inju_Gambit/ChallengeManager.sol\":4575:4601  return address(privileged) */\n      swap1\n      pop\n        /* \"Inju_Gambit/ChallengeManager.sol\":4504:4609  function getPrivilegedAddress() public view returns(address){... */\n      swap1\n      jump\t// out\n        /* \"Inju_Gambit/ChallengeManager.sol\":529:558  uint256 public challengingFee */\n    tag_38:\n      sload(0x04)\n      dup2\n      jump\t// out\n        /* \"Inju_Gambit/ChallengeManager.sol\":4127:4383  function challengeCurrentOwner(bytes32 _key) public onlyChosenChallenger{... */\n    tag_45:\n        /* \"Inju_Gambit/ChallengeManager.sol\":862:875  theChallenger */\n      0x02\n      0x01\n      swap1\n      sload\n      swap1\n      0x0100\n      exp\n      swap1\n      div\n      0xffffffffffffffffffffffffffffffffffffffff\n      and\n        /* \"Inju_Gambit/ChallengeManager.sol\":848:875  msg.sender == theChallenger */\n      0xffffffffffffffffffffffffffffffffffffffff\n      and\n        /* \"Inju_Gambit/ChallengeManager.sol\":848:858  msg.sender */\n      caller\n        /* \"Inju_Gambit/ChallengeManager.sol\":848:875  msg.sender == theChallenger */\n      0xffffffffffffffffffffffffffffffffffffffff\n      and\n      eq\n        /* \"Inju_Gambit/ChallengeManager.sol\":840:894  require(msg.sender == theChallenger, \"Not Chosen One\") */\n      tag_199\n      jumpi\n      mload(0x40)\n      0x08c379a000000000000000000000000000000000000000000000000000000000\n      dup2\n      mstore\n      0x04\n      add\n      tag_200\n      swap1\n      tag_201\n      jump\t// in\n    tag_200:\n      mload(0x40)\n      dup1\n      swap2\n      sub\n      swap1\n      revert\n    tag_199:\n        /* \"Inju_Gambit/ChallengeManager.sol\":4277:4286  masterKey */\n      sload(0x01)\n        /* \"Inju_Gambit/ChallengeManager.sol\":4260:4287  abi.encodePacked(masterKey) */\n      add(0x20, mload(0x40))\n      tag_203\n      swap2\n      swap1\n      tag_204\n      jump\t// in\n    tag_203:\n      mload(0x40)\n      0x20\n      dup2\n      dup4\n      sub\n      sub\n      dup2\n      mstore\n      swap1\n      0x40\n      mstore\n        /* \"Inju_Gambit/ChallengeManager.sol\":4250:4288  keccak256(abi.encodePacked(masterKey)) */\n      dup1\n      mload\n      swap1\n      0x20\n      add\n      keccak256\n        /* \"Inju_Gambit/ChallengeManager.sol\":4240:4244  _key */\n      dup2\n        /* \"Inju_Gambit/ChallengeManager.sol\":4223:4245  abi.encodePacked(_key) */\n      add(0x20, mload(0x40))\n      tag_205\n      swap2\n      swap1\n      tag_204\n      jump\t// in\n    tag_205:\n      mload(0x40)\n      0x20\n      dup2\n      dup4\n      sub\n      sub\n      dup2\n      mstore\n      swap1\n      0x40\n      mstore\n        /* \"Inju_Gambit/ChallengeManager.sol\":4213:4246  keccak256(abi.encodePacked(_key)) */\n      dup1\n      mload\n      swap1\n      0x20\n      add\n      keccak256\n        /* \"Inju_Gambit/ChallengeManager.sol\":4213:4288  keccak256(abi.encodePacked(_key)) == keccak256(abi.encodePacked(masterKey)) */\n      sub\n        /* \"Inju_Gambit/ChallengeManager.sol\":4210:4368  if(keccak256(abi.encodePacked(_key)) == keccak256(abi.encodePacked(masterKey))){... */\n      tag_206\n      jumpi\n        /* \"Inju_Gambit/ChallengeManager.sol\":4304:4314  privileged */\n      0x00\n      dup1\n      sload\n      swap1\n      0x0100\n      exp\n      swap1\n      div\n      0xffffffffffffffffffffffffffffffffffffffff\n      and\n        /* \"Inju_Gambit/ChallengeManager.sol\":4304:4332  privileged.setNewCasinoOwner */\n      0xffffffffffffffffffffffffffffffffffffffff\n      and\n      0xa168837e\n        /* \"Inju_Gambit/ChallengeManager.sol\":4341:4354  theChallenger */\n      0x02\n      0x01\n      swap1\n      sload\n      swap1\n      0x0100\n      exp\n      swap1\n      div\n      0xffffffffffffffffffffffffffffffffffffffff\n      and\n        /* \"Inju_Gambit/ChallengeManager.sol\":4304:4356  privileged.setNewCasinoOwner(address(theChallenger)) */\n      mload(0x40)\n      dup3\n      0xffffffff\n      and\n      0xe0\n      shl\n      dup2\n      mstore\n      0x04\n      add\n      tag_207\n      swap2\n      swap1\n      tag_31\n      jump\t// in\n    tag_207:\n      0x00\n      mload(0x40)\n      dup1\n      dup4\n      sub\n      dup2\n      0x00\n      dup8\n      dup1\n      extcodesize\n      iszero\n      dup1\n      iszero\n      tag_208\n      jumpi\n      0x00\n      dup1\n      revert\n    tag_208:\n      pop\n      gas\n      call\n      iszero\n      dup1\n      iszero\n      tag_210\n      jumpi\n      returndatasize\n      0x00\n      dup1\n      returndatacopy\n      revert(0x00, returndatasize)\n    tag_210:\n      pop\n      pop\n      pop\n      pop\n        /* \"Inju_Gambit/ChallengeManager.sol\":4210:4368  if(keccak256(abi.encodePacked(_key)) == keccak256(abi.encodePacked(masterKey))){... */\n    tag_206:\n        /* \"Inju_Gambit/ChallengeManager.sol\":4127:4383  function challengeCurrentOwner(bytes32 _key) public onlyChosenChallenger{... */\n      pop\n      jump\t// out\n        /* \"Inju_Gambit/ChallengeManager.sol\":496:522  address public casinoOwner */\n    tag_48:\n      0x03\n      0x00\n      swap1\n      sload\n      swap1\n      0x0100\n      exp\n      swap1\n      div\n      0xffffffffffffffffffffffffffffffffffffffff\n      and\n      dup2\n      jump\t// out\n        /* \"Inju_Gambit/ChallengeManager.sol\":571:598  address[] public challenger */\n    tag_54:\n      0x05\n      dup2\n      dup2\n      sload\n      dup2\n      lt\n      tag_211\n      jumpi\n      0x00\n      dup1\n      revert\n    tag_211:\n      swap1\n      0x00\n      mstore\n      keccak256(0x00, 0x20)\n      add\n      0x00\n      swap2\n      pop\n      sload\n      swap1\n      0x0100\n      exp\n      swap1\n      div\n      0xffffffffffffffffffffffffffffffffffffffff\n      and\n      dup2\n      jump\t// out\n        /* \"Inju_Gambit/ChallengeManager.sol\":132:160  Privileged public privileged */\n    tag_58:\n      0x00\n      dup1\n      sload\n      swap1\n      0x0100\n      exp\n      swap1\n      div\n      0xffffffffffffffffffffffffffffffffffffffff\n      and\n      dup2\n      jump\t// out\n        /* \"Inju_Gambit/ChallengeManager.sol\":1129:1489  function approach() public payable {... */\n    tag_62:\n        /* \"Inju_Gambit/ChallengeManager.sol\":1191:1198  5 ether */\n      0x4563918244f40000\n        /* \"Inju_Gambit/ChallengeManager.sol\":1178:1187  msg.value */\n      callvalue\n        /* \"Inju_Gambit/ChallengeManager.sol\":1178:1198  msg.value != 5 ether */\n      eq\n        /* \"Inju_Gambit/ChallengeManager.sol\":1175:1256  if(msg.value != 5 ether){... */\n      tag_214\n      jumpi\n        /* \"Inju_Gambit/ChallengeManager.sol\":1221:1244  CM_NotTheCorrectValue() */\n      mload(0x40)\n      0xe3ad4db700000000000000000000000000000000000000000000000000000000\n      dup2\n      mstore\n      0x04\n      add\n      mload(0x40)\n      dup1\n      swap2\n      sub\n      swap1\n      revert\n        /* \"Inju_Gambit/ChallengeManager.sol\":1175:1256  if(msg.value != 5 ether){... */\n    tag_214:\n        /* \"Inju_Gambit/ChallengeManager.sol\":1295:1299  true */\n      0x01\n        /* \"Inju_Gambit/ChallengeManager.sol\":1269:1299  approached[msg.sender] == true */\n      iszero\n      iszero\n        /* \"Inju_Gambit/ChallengeManager.sol\":1269:1279  approached */\n      0x06\n        /* \"Inju_Gambit/ChallengeManager.sol\":1269:1291  approached[msg.sender] */\n      0x00\n        /* \"Inju_Gambit/ChallengeManager.sol\":1280:1290  msg.sender */\n      caller\n        /* \"Inju_Gambit/ChallengeManager.sol\":1269:1291  approached[msg.sender] */\n      0xffffffffffffffffffffffffffffffffffffffff\n      and\n      0xffffffffffffffffffffffffffffffffffffffff\n      and\n      dup2\n      mstore\n      0x20\n      add\n      swap1\n      dup2\n      mstore\n      0x20\n      add\n      0x00\n      keccak256\n      0x00\n      swap1\n      sload\n      swap1\n      0x0100\n      exp\n      swap1\n      div\n      0xff\n      and\n        /* \"Inju_Gambit/ChallengeManager.sol\":1269:1299  approached[msg.sender] == true */\n      iszero\n      iszero\n      sub\n        /* \"Inju_Gambit/ChallengeManager.sol\":1266:1356  if(approached[msg.sender] == true){... */\n      tag_215\n      jumpi\n        /* \"Inju_Gambit/ChallengeManager.sol\":1322:1344  CM_AlreadyApproached() */\n      mload(0x40)\n      0x42eb30f500000000000000000000000000000000000000000000000000000000\n      dup2\n      mstore\n      0x04\n      add\n      mload(0x40)\n      dup1\n      swap2\n      sub\n      swap1\n      revert\n        /* \"Inju_Gambit/ChallengeManager.sol\":1266:1356  if(approached[msg.sender] == true){... */\n    tag_215:\n        /* \"Inju_Gambit/ChallengeManager.sol\":1391:1395  true */\n      0x01\n        /* \"Inju_Gambit/ChallengeManager.sol\":1366:1376  approached */\n      0x06\n        /* \"Inju_Gambit/ChallengeManager.sol\":1366:1388  approached[msg.sender] */\n      0x00\n        /* \"Inju_Gambit/ChallengeManager.sol\":1377:1387  msg.sender */\n      caller\n        /* \"Inju_Gambit/ChallengeManager.sol\":1366:1388  approached[msg.sender] */\n      0xffffffffffffffffffffffffffffffffffffffff\n      and\n      0xffffffffffffffffffffffffffffffffffffffff\n      and\n      dup2\n      mstore\n      0x20\n      add\n      swap1\n      dup2\n      mstore\n      0x20\n      add\n      0x00\n      keccak256\n      0x00\n        /* \"Inju_Gambit/ChallengeManager.sol\":1366:1395  approached[msg.sender] = true */\n      0x0100\n      exp\n      dup2\n      sload\n      dup2\n      0xff\n      mul\n      not\n      and\n      swap1\n      dup4\n      iszero\n      iszero\n      mul\n      or\n      swap1\n      sstore\n      pop\n        /* \"Inju_Gambit/ChallengeManager.sol\":1406:1416  challenger */\n      0x05\n        /* \"Inju_Gambit/ChallengeManager.sol\":1422:1432  msg.sender */\n      caller\n        /* \"Inju_Gambit/ChallengeManager.sol\":1406:1433  challenger.push(msg.sender) */\n      swap1\n      dup1\n      0x01\n      dup2\n      sload\n      add\n      dup1\n      dup3\n      sstore\n      dup1\n      swap2\n      pop\n      pop\n      0x01\n      swap1\n      sub\n      swap1\n      0x00\n      mstore\n      keccak256(0x00, 0x20)\n      add\n      0x00\n      swap1\n      swap2\n      swap1\n      swap2\n      swap1\n      swap2\n      0x0100\n      exp\n      dup2\n      sload\n      dup2\n      0xffffffffffffffffffffffffffffffffffffffff\n      mul\n      not\n      and\n      swap1\n      dup4\n      0xffffffffffffffffffffffffffffffffffffffff\n      and\n      mul\n      or\n      swap1\n      sstore\n      pop\n        /* \"Inju_Gambit/ChallengeManager.sol\":1444:1454  privileged */\n      0x00\n      dup1\n      sload\n      swap1\n      0x0100\n      exp\n      swap1\n      div\n      0xffffffffffffffffffffffffffffffffffffffff\n      and\n        /* \"Inju_Gambit/ChallengeManager.sol\":1444:1469  privileged.mintChallenger */\n      0xffffffffffffffffffffffffffffffffffffffff\n      and\n      0x06327b1a\n        /* \"Inju_Gambit/ChallengeManager.sol\":1470:1480  msg.sender */\n      caller\n        /* \"Inju_Gambit/ChallengeManager.sol\":1444:1481  privileged.mintChallenger(msg.sender) */\n      mload(0x40)\n      dup3\n      0xffffffff\n      and\n      0xe0\n      shl\n      dup2\n      mstore\n      0x04\n      add\n      tag_217\n      swap2\n      swap1\n      tag_31\n      jump\t// in\n    tag_217:\n      0x00\n      mload(0x40)\n      dup1\n      dup4\n      sub\n      dup2\n      0x00\n      dup8\n      dup1\n      extcodesize\n      iszero\n      dup1\n      iszero\n      tag_218\n      jumpi\n      0x00\n      dup1\n      revert\n    tag_218:\n      pop\n      gas\n      call\n      iszero\n      dup1\n      iszero\n      tag_220\n      jumpi\n      returndatasize\n      0x00\n      dup1\n      returndatacopy\n      revert(0x00, returndatasize)\n    tag_220:\n      pop\n      pop\n      pop\n      pop\n        /* \"Inju_Gambit/ChallengeManager.sol\":1129:1489  function approach() public payable {... */\n      jump\t// out\n        /* \"Inju_Gambit/ChallengeManager.sol\":418:454  bool public qualifiedChallengerFound */\n    tag_65:\n      0x02\n      0x00\n      swap1\n      sload\n      swap1\n      0x0100\n      exp\n      swap1\n      div\n      0xff\n      and\n      dup2\n      jump\t// out\n        /* \"Inju_Gambit/ChallengeManager.sol\":4392:4496  function getApproacher(address _who) public view returns(bool){... */\n    tag_70:\n        /* \"Inju_Gambit/ChallengeManager.sol\":4449:4453  bool */\n      0x00\n        /* \"Inju_Gambit/ChallengeManager.sol\":4472:4482  approached */\n      0x06\n        /* \"Inju_Gambit/ChallengeManager.sol\":4472:4488  approached[_who] */\n      0x00\n        /* \"Inju_Gambit/ChallengeManager.sol\":4483:4487  _who */\n      dup4\n        /* \"Inju_Gambit/ChallengeManager.sol\":4472:4488  approached[_who] */\n      0xffffffffffffffffffffffffffffffffffffffff\n      and\n      0xffffffffffffffffffffffffffffffffffffffff\n      and\n      dup2\n      mstore\n      0x20\n      add\n      swap1\n      dup2\n      mstore\n      0x20\n      add\n      0x00\n      keccak256\n      0x00\n      swap1\n      sload\n      swap1\n      0x0100\n      exp\n      swap1\n      div\n      0xff\n      and\n        /* \"Inju_Gambit/ChallengeManager.sol\":4465:4488  return approached[_who] */\n      swap1\n      pop\n        /* \"Inju_Gambit/ChallengeManager.sol\":4392:4496  function getApproacher(address _who) public view returns(bool){... */\n      swap2\n      swap1\n      pop\n      jump\t// out\n        /* \"#utility.yul\":7:82   */\n    tag_222:\n        /* \"#utility.yul\":40:46   */\n      0x00\n        /* \"#utility.yul\":73:75   */\n      0x40\n        /* \"#utility.yul\":67:76   */\n      mload\n        /* \"#utility.yul\":57:76   */\n      swap1\n      pop\n        /* \"#utility.yul\":7:82   */\n      swap1\n      jump\t// out\n        /* \"#utility.yul\":88:205   */\n    tag_223:\n        /* \"#utility.yul\":197:198   */\n      0x00\n        /* \"#utility.yul\":194:195   */\n      dup1\n        /* \"#utility.yul\":187:199   */\n      revert\n        /* \"#utility.yul\":334:460   */\n    tag_225:\n        /* \"#utility.yul\":371:378   */\n      0x00\n        /* \"#utility.yul\":411:453   */\n      0xffffffffffffffffffffffffffffffffffffffff\n        /* \"#utility.yul\":404:409   */\n      dup3\n        /* \"#utility.yul\":400:454   */\n      and\n        /* \"#utility.yul\":389:454   */\n      swap1\n      pop\n        /* \"#utility.yul\":334:460   */\n      swap2\n      swap1\n      pop\n      jump\t// out\n        /* \"#utility.yul\":466:562   */\n    tag_226:\n        /* \"#utility.yul\":503:510   */\n      0x00\n        /* \"#utility.yul\":532:556   */\n      tag_275\n        /* \"#utility.yul\":550:555   */\n      dup3\n        /* \"#utility.yul\":532:556   */\n      tag_225\n      jump\t// in\n    tag_275:\n        /* \"#utility.yul\":521:556   */\n      swap1\n      pop\n        /* \"#utility.yul\":466:562   */\n      swap2\n      swap1\n      pop\n      jump\t// out\n        /* \"#utility.yul\":568:690   */\n    tag_227:\n        /* \"#utility.yul\":641:665   */\n      tag_277\n        /* \"#utility.yul\":659:664   */\n      dup2\n        /* \"#utility.yul\":641:665   */\n      tag_226\n      jump\t// in\n    tag_277:\n        /* \"#utility.yul\":634:639   */\n      dup2\n        /* \"#utility.yul\":631:666   */\n      eq\n        /* \"#utility.yul\":621:684   */\n      tag_278\n      jumpi\n        /* \"#utility.yul\":680:681   */\n      0x00\n        /* \"#utility.yul\":677:678   */\n      dup1\n        /* \"#utility.yul\":670:682   */\n      revert\n        /* \"#utility.yul\":621:684   */\n    tag_278:\n        /* \"#utility.yul\":568:690   */\n      pop\n      jump\t// out\n        /* \"#utility.yul\":696:835   */\n    tag_228:\n        /* \"#utility.yul\":742:747   */\n      0x00\n        /* \"#utility.yul\":780:786   */\n      dup2\n        /* \"#utility.yul\":767:787   */\n      calldataload\n        /* \"#utility.yul\":758:787   */\n      swap1\n      pop\n        /* \"#utility.yul\":796:829   */\n      tag_280\n        /* \"#utility.yul\":823:828   */\n      dup2\n        /* \"#utility.yul\":796:829   */\n      tag_227\n      jump\t// in\n    tag_280:\n        /* \"#utility.yul\":696:835   */\n      swap3\n      swap2\n      pop\n      pop\n      jump\t// out\n        /* \"#utility.yul\":841:1170   */\n    tag_18:\n        /* \"#utility.yul\":900:906   */\n      0x00\n        /* \"#utility.yul\":949:951   */\n      0x20\n        /* \"#utility.yul\":937:946   */\n      dup3\n        /* \"#utility.yul\":928:935   */\n      dup5\n        /* \"#utility.yul\":924:947   */\n      sub\n        /* \"#utility.yul\":920:952   */\n      slt\n        /* \"#utility.yul\":917:1036   */\n      iszero\n      tag_282\n      jumpi\n        /* \"#utility.yul\":955:1034   */\n      tag_283\n      tag_223\n      jump\t// in\n    tag_283:\n        /* \"#utility.yul\":917:1036   */\n    tag_282:\n        /* \"#utility.yul\":1075:1076   */\n      0x00\n        /* \"#utility.yul\":1100:1153   */\n      tag_284\n        /* \"#utility.yul\":1145:1152   */\n      dup5\n        /* \"#utility.yul\":1136:1142   */\n      dup3\n        /* \"#utility.yul\":1125:1134   */\n      dup6\n        /* \"#utility.yul\":1121:1143   */\n      add\n        /* \"#utility.yul\":1100:1153   */\n      tag_228\n      jump\t// in\n    tag_284:\n        /* \"#utility.yul\":1090:1153   */\n      swap2\n      pop\n        /* \"#utility.yul\":1046:1163   */\n      pop\n        /* \"#utility.yul\":841:1170   */\n      swap3\n      swap2\n      pop\n      pop\n      jump\t// out\n        /* \"#utility.yul\":1176:1266   */\n    tag_229:\n        /* \"#utility.yul\":1210:1217   */\n      0x00\n        /* \"#utility.yul\":1253:1258   */\n      dup2\n        /* \"#utility.yul\":1246:1259   */\n      iszero\n        /* \"#utility.yul\":1239:1260   */\n      iszero\n        /* \"#utility.yul\":1228:1260   */\n      swap1\n      pop\n        /* \"#utility.yul\":1176:1266   */\n      swap2\n      swap1\n      pop\n      jump\t// out\n        /* \"#utility.yul\":1272:1381   */\n    tag_230:\n        /* \"#utility.yul\":1353:1374   */\n      tag_287\n        /* \"#utility.yul\":1368:1373   */\n      dup2\n        /* \"#utility.yul\":1353:1374   */\n      tag_229\n      jump\t// in\n    tag_287:\n        /* \"#utility.yul\":1348:1351   */\n      dup3\n        /* \"#utility.yul\":1341:1375   */\n      mstore\n        /* \"#utility.yul\":1272:1381   */\n      pop\n      pop\n      jump\t// out\n        /* \"#utility.yul\":1387:1597   */\n    tag_21:\n        /* \"#utility.yul\":1474:1478   */\n      0x00\n        /* \"#utility.yul\":1512:1514   */\n      0x20\n        /* \"#utility.yul\":1501:1510   */\n      dup3\n        /* \"#utility.yul\":1497:1515   */\n      add\n        /* \"#utility.yul\":1489:1515   */\n      swap1\n      pop\n        /* \"#utility.yul\":1525:1590   */\n      tag_289\n        /* \"#utility.yul\":1587:1588   */\n      0x00\n        /* \"#utility.yul\":1576:1585   */\n      dup4\n        /* \"#utility.yul\":1572:1589   */\n      add\n        /* \"#utility.yul\":1563:1569   */\n      dup5\n        /* \"#utility.yul\":1525:1590   */\n      tag_230\n      jump\t// in\n    tag_289:\n        /* \"#utility.yul\":1387:1597   */\n      swap3\n      swap2\n      pop\n      pop\n      jump\t// out\n        /* \"#utility.yul\":1603:1680   */\n    tag_231:\n        /* \"#utility.yul\":1640:1647   */\n      0x00\n        /* \"#utility.yul\":1669:1674   */\n      dup2\n        /* \"#utility.yul\":1658:1674   */\n      swap1\n      pop\n        /* \"#utility.yul\":1603:1680   */\n      swap2\n      swap1\n      pop\n      jump\t// out\n        /* \"#utility.yul\":1686:1808   */\n    tag_232:\n        /* \"#utility.yul\":1759:1783   */\n      tag_292\n        /* \"#utility.yul\":1777:1782   */\n      dup2\n        /* \"#utility.yul\":1759:1783   */\n      tag_231\n      jump\t// in\n    tag_292:\n        /* \"#utility.yul\":1752:1757   */\n      dup2\n        /* \"#utility.yul\":1749:1784   */\n      eq\n        /* \"#utility.yul\":1739:1802   */\n      tag_293\n      jumpi\n        /* \"#utility.yul\":1798:1799   */\n      0x00\n        /* \"#utility.yul\":1795:1796   */\n      dup1\n        /* \"#utility.yul\":1788:1800   */\n      revert\n        /* \"#utility.yul\":1739:1802   */\n    tag_293:\n        /* \"#utility.yul\":1686:1808   */\n      pop\n      jump\t// out\n        /* \"#utility.yul\":1814:1953   */\n    tag_233:\n        /* \"#utility.yul\":1860:1865   */\n      0x00\n        /* \"#utility.yul\":1898:1904   */\n      dup2\n        /* \"#utility.yul\":1885:1905   */\n      calldataload\n        /* \"#utility.yul\":1876:1905   */\n      swap1\n      pop\n        /* \"#utility.yul\":1914:1947   */\n      tag_295\n        /* \"#utility.yul\":1941:1946   */\n      dup2\n        /* \"#utility.yul\":1914:1947   */\n      tag_232\n      jump\t// in\n    tag_295:\n        /* \"#utility.yul\":1814:1953   */\n      swap3\n      swap2\n      pop\n      pop\n      jump\t// out\n        /* \"#utility.yul\":1959:2433   */\n    tag_25:\n        /* \"#utility.yul\":2027:2033   */\n      0x00\n        /* \"#utility.yul\":2035:2041   */\n      dup1\n        /* \"#utility.yul\":2084:2086   */\n      0x40\n        /* \"#utility.yul\":2072:2081   */\n      dup4\n        /* \"#utility.yul\":2063:2070   */\n      dup6\n        /* \"#utility.yul\":2059:2082   */\n      sub\n        /* \"#utility.yul\":2055:2087   */\n      slt\n        /* \"#utility.yul\":2052:2171   */\n      iszero\n      tag_297\n      jumpi\n        /* \"#utility.yul\":2090:2169   */\n      tag_298\n      tag_223\n      jump\t// in\n    tag_298:\n        /* \"#utility.yul\":2052:2171   */\n    tag_297:\n        /* \"#utility.yul\":2210:2211   */\n      0x00\n        /* \"#utility.yul\":2235:2288   */\n      tag_299\n        /* \"#utility.yul\":2280:2287   */\n      dup6\n        /* \"#utility.yul\":2271:2277   */\n      dup3\n        /* \"#utility.yul\":2260:2269   */\n      dup7\n        /* \"#utility.yul\":2256:2278   */\n      add\n        /* \"#utility.yul\":2235:2288   */\n      tag_233\n      jump\t// in\n    tag_299:\n        /* \"#utility.yul\":2225:2288   */\n      swap3\n      pop\n        /* \"#utility.yul\":2181:2298   */\n      pop\n        /* \"#utility.yul\":2337:2339   */\n      0x20\n        /* \"#utility.yul\":2363:2416   */\n      tag_300\n        /* \"#utility.yul\":2408:2415   */\n      dup6\n        /* \"#utility.yul\":2399:2405   */\n      dup3\n        /* \"#utility.yul\":2388:2397   */\n      dup7\n        /* \"#utility.yul\":2384:2406   */\n      add\n        /* \"#utility.yul\":2363:2416   */\n      tag_233\n      jump\t// in\n    tag_300:\n        /* \"#utility.yul\":2353:2416   */\n      swap2\n      pop\n        /* \"#utility.yul\":2308:2426   */\n      pop\n        /* \"#utility.yul\":1959:2433   */\n      swap3\n      pop\n      swap3\n      swap1\n      pop\n      jump\t// out\n        /* \"#utility.yul\":2439:2557   */\n    tag_234:\n        /* \"#utility.yul\":2526:2550   */\n      tag_302\n        /* \"#utility.yul\":2544:2549   */\n      dup2\n        /* \"#utility.yul\":2526:2550   */\n      tag_226\n      jump\t// in\n    tag_302:\n        /* \"#utility.yul\":2521:2524   */\n      dup3\n        /* \"#utility.yul\":2514:2551   */\n      mstore\n        /* \"#utility.yul\":2439:2557   */\n      pop\n      pop\n      jump\t// out\n        /* \"#utility.yul\":2563:2785   */\n    tag_31:\n        /* \"#utility.yul\":2656:2660   */\n      0x00\n        /* \"#utility.yul\":2694:2696   */\n      0x20\n        /* \"#utility.yul\":2683:2692   */\n      dup3\n        /* \"#utility.yul\":2679:2697   */\n      add\n        /* \"#utility.yul\":2671:2697   */\n      swap1\n      pop\n        /* \"#utility.yul\":2707:2778   */\n      tag_304\n        /* \"#utility.yul\":2775:2776   */\n      0x00\n        /* \"#utility.yul\":2764:2773   */\n      dup4\n        /* \"#utility.yul\":2760:2777   */\n      add\n        /* \"#utility.yul\":2751:2757   */\n      dup5\n        /* \"#utility.yul\":2707:2778   */\n      tag_234\n      jump\t// in\n    tag_304:\n        /* \"#utility.yul\":2563:2785   */\n      swap3\n      swap2\n      pop\n      pop\n      jump\t// out\n        /* \"#utility.yul\":2791:2909   */\n    tag_235:\n        /* \"#utility.yul\":2878:2902   */\n      tag_306\n        /* \"#utility.yul\":2896:2901   */\n      dup2\n        /* \"#utility.yul\":2878:2902   */\n      tag_231\n      jump\t// in\n    tag_306:\n        /* \"#utility.yul\":2873:2876   */\n      dup3\n        /* \"#utility.yul\":2866:2903   */\n      mstore\n        /* \"#utility.yul\":2791:2909   */\n      pop\n      pop\n      jump\t// out\n        /* \"#utility.yul\":2915:3137   */\n    tag_40:\n        /* \"#utility.yul\":3008:3012   */\n      0x00\n        /* \"#utility.yul\":3046:3048   */\n      0x20\n        /* \"#utility.yul\":3035:3044   */\n      dup3\n        /* \"#utility.yul\":3031:3049   */\n      add\n        /* \"#utility.yul\":3023:3049   */\n      swap1\n      pop\n        /* \"#utility.yul\":3059:3130   */\n      tag_308\n        /* \"#utility.yul\":3127:3128   */\n      0x00\n        /* \"#utility.yul\":3116:3125   */\n      dup4\n        /* \"#utility.yul\":3112:3129   */\n      add\n        /* \"#utility.yul\":3103:3109   */\n      dup5\n        /* \"#utility.yul\":3059:3130   */\n      tag_235\n      jump\t// in\n    tag_308:\n        /* \"#utility.yul\":2915:3137   */\n      swap3\n      swap2\n      pop\n      pop\n      jump\t// out\n        /* \"#utility.yul\":3143:3220   */\n    tag_236:\n        /* \"#utility.yul\":3180:3187   */\n      0x00\n        /* \"#utility.yul\":3209:3214   */\n      dup2\n        /* \"#utility.yul\":3198:3214   */\n      swap1\n      pop\n        /* \"#utility.yul\":3143:3220   */\n      swap2\n      swap1\n      pop\n      jump\t// out\n        /* \"#utility.yul\":3226:3348   */\n    tag_237:\n        /* \"#utility.yul\":3299:3323   */\n      tag_311\n        /* \"#utility.yul\":3317:3322   */\n      dup2\n        /* \"#utility.yul\":3299:3323   */\n      tag_236\n      jump\t// in\n    tag_311:\n        /* \"#utility.yul\":3292:3297   */\n      dup2\n        /* \"#utility.yul\":3289:3324   */\n      eq\n        /* \"#utility.yul\":3279:3342   */\n      tag_312\n      jumpi\n        /* \"#utility.yul\":3338:3339   */\n      0x00\n        /* \"#utility.yul\":3335:3336   */\n      dup1\n        /* \"#utility.yul\":3328:3340   */\n      revert\n        /* \"#utility.yul\":3279:3342   */\n    tag_312:\n        /* \"#utility.yul\":3226:3348   */\n      pop\n      jump\t// out\n        /* \"#utility.yul\":3354:3493   */\n    tag_238:\n        /* \"#utility.yul\":3400:3405   */\n      0x00\n        /* \"#utility.yul\":3438:3444   */\n      dup2\n        /* \"#utility.yul\":3425:3445   */\n      calldataload\n        /* \"#utility.yul\":3416:3445   */\n      swap1\n      pop\n        /* \"#utility.yul\":3454:3487   */\n      tag_314\n        /* \"#utility.yul\":3481:3486   */\n      dup2\n        /* \"#utility.yul\":3454:3487   */\n      tag_237\n      jump\t// in\n    tag_314:\n        /* \"#utility.yul\":3354:3493   */\n      swap3\n      swap2\n      pop\n      pop\n      jump\t// out\n        /* \"#utility.yul\":3499:3828   */\n    tag_44:\n        /* \"#utility.yul\":3558:3564   */\n      0x00\n        /* \"#utility.yul\":3607:3609   */\n      0x20\n        /* \"#utility.yul\":3595:3604   */\n      dup3\n        /* \"#utility.yul\":3586:3593   */\n      dup5\n        /* \"#utility.yul\":3582:3605   */\n      sub\n        /* \"#utility.yul\":3578:3610   */\n      slt\n        /* \"#utility.yul\":3575:3694   */\n      iszero\n      tag_316\n      jumpi\n        /* \"#utility.yul\":3613:3692   */\n      tag_317\n      tag_223\n      jump\t// in\n    tag_317:\n        /* \"#utility.yul\":3575:3694   */\n    tag_316:\n        /* \"#utility.yul\":3733:3734   */\n      0x00\n        /* \"#utility.yul\":3758:3811   */\n      tag_318\n        /* \"#utility.yul\":3803:3810   */\n      dup5\n        /* \"#utility.yul\":3794:3800   */\n      dup3\n        /* \"#utility.yul\":3783:3792   */\n      dup6\n        /* \"#utility.yul\":3779:3801   */\n      add\n        /* \"#utility.yul\":3758:3811   */\n      tag_238\n      jump\t// in\n    tag_318:\n        /* \"#utility.yul\":3748:3811   */\n      swap2\n      pop\n        /* \"#utility.yul\":3704:3821   */\n      pop\n        /* \"#utility.yul\":3499:3828   */\n      swap3\n      swap2\n      pop\n      pop\n      jump\t// out\n        /* \"#utility.yul\":3834:4163   */\n    tag_53:\n        /* \"#utility.yul\":3893:3899   */\n      0x00\n        /* \"#utility.yul\":3942:3944   */\n      0x20\n        /* \"#utility.yul\":3930:3939   */\n      dup3\n        /* \"#utility.yul\":3921:3928   */\n      dup5\n        /* \"#utility.yul\":3917:3940   */\n      sub\n        /* \"#utility.yul\":3913:3945   */\n      slt\n        /* \"#utility.yul\":3910:4029   */\n      iszero\n      tag_320\n      jumpi\n        /* \"#utility.yul\":3948:4027   */\n      tag_321\n      tag_223\n      jump\t// in\n    tag_321:\n        /* \"#utility.yul\":3910:4029   */\n    tag_320:\n        /* \"#utility.yul\":4068:4069   */\n      0x00\n        /* \"#utility.yul\":4093:4146   */\n      tag_322\n        /* \"#utility.yul\":4138:4145   */\n      dup5\n        /* \"#utility.yul\":4129:4135   */\n      dup3\n        /* \"#utility.yul\":4118:4127   */\n      dup6\n        /* \"#utility.yul\":4114:4136   */\n      add\n        /* \"#utility.yul\":4093:4146   */\n      tag_233\n      jump\t// in\n    tag_322:\n        /* \"#utility.yul\":4083:4146   */\n      swap2\n      pop\n        /* \"#utility.yul\":4039:4156   */\n      pop\n        /* \"#utility.yul\":3834:4163   */\n      swap3\n      swap2\n      pop\n      pop\n      jump\t// out\n        /* \"#utility.yul\":4169:4229   */\n    tag_239:\n        /* \"#utility.yul\":4197:4200   */\n      0x00\n        /* \"#utility.yul\":4218:4223   */\n      dup2\n        /* \"#utility.yul\":4211:4223   */\n      swap1\n      pop\n        /* \"#utility.yul\":4169:4229   */\n      swap2\n      swap1\n      pop\n      jump\t// out\n        /* \"#utility.yul\":4235:4377   */\n    tag_240:\n        /* \"#utility.yul\":4285:4294   */\n      0x00\n        /* \"#utility.yul\":4318:4371   */\n      tag_325\n        /* \"#utility.yul\":4336:4370   */\n      tag_326\n        /* \"#utility.yul\":4345:4369   */\n      tag_327\n        /* \"#utility.yul\":4363:4368   */\n      dup5\n        /* \"#utility.yul\":4345:4369   */\n      tag_225\n      jump\t// in\n    tag_327:\n        /* \"#utility.yul\":4336:4370   */\n      tag_239\n      jump\t// in\n    tag_326:\n        /* \"#utility.yul\":4318:4371   */\n      tag_225\n      jump\t// in\n    tag_325:\n        /* \"#utility.yul\":4305:4371   */\n      swap1\n      pop\n        /* \"#utility.yul\":4235:4377   */\n      swap2\n      swap1\n      pop\n      jump\t// out\n        /* \"#utility.yul\":4383:4509   */\n    tag_241:\n        /* \"#utility.yul\":4433:4442   */\n      0x00\n        /* \"#utility.yul\":4466:4503   */\n      tag_329\n        /* \"#utility.yul\":4497:4502   */\n      dup3\n        /* \"#utility.yul\":4466:4503   */\n      tag_240\n      jump\t// in\n    tag_329:\n        /* \"#utility.yul\":4453:4503   */\n      swap1\n      pop\n        /* \"#utility.yul\":4383:4509   */\n      swap2\n      swap1\n      pop\n      jump\t// out\n        /* \"#utility.yul\":4515:4659   */\n    tag_242:\n        /* \"#utility.yul\":4583:4592   */\n      0x00\n        /* \"#utility.yul\":4616:4653   */\n      tag_331\n        /* \"#utility.yul\":4647:4652   */\n      dup3\n        /* \"#utility.yul\":4616:4653   */\n      tag_241\n      jump\t// in\n    tag_331:\n        /* \"#utility.yul\":4603:4653   */\n      swap1\n      pop\n        /* \"#utility.yul\":4515:4659   */\n      swap2\n      swap1\n      pop\n      jump\t// out\n        /* \"#utility.yul\":4665:4832   */\n    tag_243:\n        /* \"#utility.yul\":4770:4825   */\n      tag_333\n        /* \"#utility.yul\":4819:4824   */\n      dup2\n        /* \"#utility.yul\":4770:4825   */\n      tag_242\n      jump\t// in\n    tag_333:\n        /* \"#utility.yul\":4765:4768   */\n      dup3\n        /* \"#utility.yul\":4758:4826   */\n      mstore\n        /* \"#utility.yul\":4665:4832   */\n      pop\n      pop\n      jump\t// out\n        /* \"#utility.yul\":4838:5096   */\n    tag_60:\n        /* \"#utility.yul\":4949:4953   */\n      0x00\n        /* \"#utility.yul\":4987:4989   */\n      0x20\n        /* \"#utility.yul\":4976:4985   */\n      dup3\n        /* \"#utility.yul\":4972:4990   */\n      add\n        /* \"#utility.yul\":4964:4990   */\n      swap1\n      pop\n        /* \"#utility.yul\":5000:5089   */\n      tag_335\n        /* \"#utility.yul\":5086:5087   */\n      0x00\n        /* \"#utility.yul\":5075:5084   */\n      dup4\n        /* \"#utility.yul\":5071:5088   */\n      add\n        /* \"#utility.yul\":5062:5068   */\n      dup5\n        /* \"#utility.yul\":5000:5089   */\n      tag_243\n      jump\t// in\n    tag_335:\n        /* \"#utility.yul\":4838:5096   */\n      swap3\n      swap2\n      pop\n      pop\n      jump\t// out\n        /* \"#utility.yul\":5102:5271   */\n    tag_244:\n        /* \"#utility.yul\":5186:5197   */\n      0x00\n        /* \"#utility.yul\":5220:5226   */\n      dup3\n        /* \"#utility.yul\":5215:5218   */\n      dup3\n        /* \"#utility.yul\":5208:5227   */\n      mstore\n        /* \"#utility.yul\":5260:5264   */\n      0x20\n        /* \"#utility.yul\":5255:5258   */\n      dup3\n        /* \"#utility.yul\":5251:5265   */\n      add\n        /* \"#utility.yul\":5236:5265   */\n      swap1\n      pop\n        /* \"#utility.yul\":5102:5271   */\n      swap3\n      swap2\n      pop\n      pop\n      jump\t// out\n        /* \"#utility.yul\":5277:5454   */\n    tag_245:\n        /* \"#utility.yul\":5417:5446   */\n      0x4e6577204368616c6c656e6765722069732053656c6563746564210000000000\n        /* \"#utility.yul\":5413:5414   */\n      0x00\n        /* \"#utility.yul\":5405:5411   */\n      dup3\n        /* \"#utility.yul\":5401:5415   */\n      add\n        /* \"#utility.yul\":5394:5447   */\n      mstore\n        /* \"#utility.yul\":5277:5454   */\n      pop\n      jump\t// out\n        /* \"#utility.yul\":5460:5826   */\n    tag_246:\n        /* \"#utility.yul\":5602:5605   */\n      0x00\n        /* \"#utility.yul\":5623:5690   */\n      tag_339\n        /* \"#utility.yul\":5687:5689   */\n      0x1b\n        /* \"#utility.yul\":5682:5685   */\n      dup4\n        /* \"#utility.yul\":5623:5690   */\n      tag_244\n      jump\t// in\n    tag_339:\n        /* \"#utility.yul\":5616:5690   */\n      swap2\n      pop\n        /* \"#utility.yul\":5699:5792   */\n      tag_340\n        /* \"#utility.yul\":5788:5791   */\n      dup3\n        /* \"#utility.yul\":5699:5792   */\n      tag_245\n      jump\t// in\n    tag_340:\n        /* \"#utility.yul\":5817:5819   */\n      0x20\n        /* \"#utility.yul\":5812:5815   */\n      dup3\n        /* \"#utility.yul\":5808:5820   */\n      add\n        /* \"#utility.yul\":5801:5820   */\n      swap1\n      pop\n        /* \"#utility.yul\":5460:5826   */\n      swap2\n      swap1\n      pop\n      jump\t// out\n        /* \"#utility.yul\":5832:6251   */\n    tag_75:\n        /* \"#utility.yul\":5998:6002   */\n      0x00\n        /* \"#utility.yul\":6036:6038   */\n      0x20\n        /* \"#utility.yul\":6025:6034   */\n      dup3\n        /* \"#utility.yul\":6021:6039   */\n      add\n        /* \"#utility.yul\":6013:6039   */\n      swap1\n      pop\n        /* \"#utility.yul\":6085:6094   */\n      dup2\n        /* \"#utility.yul\":6079:6083   */\n      dup2\n        /* \"#utility.yul\":6075:6095   */\n      sub\n        /* \"#utility.yul\":6071:6072   */\n      0x00\n        /* \"#utility.yul\":6060:6069   */\n      dup4\n        /* \"#utility.yul\":6056:6073   */\n      add\n        /* \"#utility.yul\":6049:6096   */\n      mstore\n        /* \"#utility.yul\":6113:6244   */\n      tag_342\n        /* \"#utility.yul\":6239:6243   */\n      dup2\n        /* \"#utility.yul\":6113:6244   */\n      tag_246\n      jump\t// in\n    tag_342:\n        /* \"#utility.yul\":6105:6244   */\n      swap1\n      pop\n        /* \"#utility.yul\":5832:6251   */\n      swap2\n      swap1\n      pop\n      jump\t// out\n        /* \"#utility.yul\":6257:6400   */\n    tag_247:\n        /* \"#utility.yul\":6314:6319   */\n      0x00\n        /* \"#utility.yul\":6345:6351   */\n      dup2\n        /* \"#utility.yul\":6339:6352   */\n      mload\n        /* \"#utility.yul\":6330:6352   */\n      swap1\n      pop\n        /* \"#utility.yul\":6361:6394   */\n      tag_344\n        /* \"#utility.yul\":6388:6393   */\n      dup2\n        /* \"#utility.yul\":6361:6394   */\n      tag_232\n      jump\t// in\n    tag_344:\n        /* \"#utility.yul\":6257:6400   */\n      swap3\n      swap2\n      pop\n      pop\n      jump\t// out\n        /* \"#utility.yul\":6406:6757   */\n    tag_80:\n        /* \"#utility.yul\":6476:6482   */\n      0x00\n        /* \"#utility.yul\":6525:6527   */\n      0x20\n        /* \"#utility.yul\":6513:6522   */\n      dup3\n        /* \"#utility.yul\":6504:6511   */\n      dup5\n        /* \"#utility.yul\":6500:6523   */\n      sub\n        /* \"#utility.yul\":6496:6528   */\n      slt\n        /* \"#utility.yul\":6493:6612   */\n      iszero\n      tag_346\n      jumpi\n        /* \"#utility.yul\":6531:6610   */\n      tag_347\n      tag_223\n      jump\t// in\n    tag_347:\n        /* \"#utility.yul\":6493:6612   */\n    tag_346:\n        /* \"#utility.yul\":6651:6652   */\n      0x00\n        /* \"#utility.yul\":6676:6740   */\n      tag_348\n        /* \"#utility.yul\":6732:6739   */\n      dup5\n        /* \"#utility.yul\":6723:6729   */\n      dup3\n        /* \"#utility.yul\":6712:6721   */\n      dup6\n        /* \"#utility.yul\":6708:6730   */\n      add\n        /* \"#utility.yul\":6676:6740   */\n      tag_247\n      jump\t// in\n    tag_348:\n        /* \"#utility.yul\":6666:6740   */\n      swap2\n      pop\n        /* \"#utility.yul\":6622:6750   */\n      pop\n        /* \"#utility.yul\":6406:6757   */\n      swap3\n      swap2\n      pop\n      pop\n      jump\t// out\n        /* \"#utility.yul\":6763:6880   */\n    tag_248:\n        /* \"#utility.yul\":6872:6873   */\n      0x00\n        /* \"#utility.yul\":6869:6870   */\n      dup1\n        /* \"#utility.yul\":6862:6874   */\n      revert\n        /* \"#utility.yul\":6886:6988   */\n    tag_249:\n        /* \"#utility.yul\":6927:6933   */\n      0x00\n        /* \"#utility.yul\":6978:6980   */\n      0x1f\n        /* \"#utility.yul\":6974:6981   */\n      not\n        /* \"#utility.yul\":6969:6971   */\n      0x1f\n        /* \"#utility.yul\":6962:6967   */\n      dup4\n        /* \"#utility.yul\":6958:6972   */\n      add\n        /* \"#utility.yul\":6954:6982   */\n      and\n        /* \"#utility.yul\":6944:6982   */\n      swap1\n      pop\n        /* \"#utility.yul\":6886:6988   */\n      swap2\n      swap1\n      pop\n      jump\t// out\n        /* \"#utility.yul\":6994:7174   */\n    tag_250:\n        /* \"#utility.yul\":7042:7119   */\n      0x4e487b7100000000000000000000000000000000000000000000000000000000\n        /* \"#utility.yul\":7039:7040   */\n      0x00\n        /* \"#utility.yul\":7032:7120   */\n      mstore\n        /* \"#utility.yul\":7139:7143   */\n      0x41\n        /* \"#utility.yul\":7136:7137   */\n      0x04\n        /* \"#utility.yul\":7129:7144   */\n      mstore\n        /* \"#utility.yul\":7163:7167   */\n      0x24\n        /* \"#utility.yul\":7160:7161   */\n      0x00\n        /* \"#utility.yul\":7153:7168   */\n      revert\n        /* \"#utility.yul\":7180:7461   */\n    tag_251:\n        /* \"#utility.yul\":7263:7290   */\n      tag_353\n        /* \"#utility.yul\":7285:7289   */\n      dup3\n        /* \"#utility.yul\":7263:7290   */\n      tag_249\n      jump\t// in\n    tag_353:\n        /* \"#utility.yul\":7255:7261   */\n      dup2\n        /* \"#utility.yul\":7251:7291   */\n      add\n        /* \"#utility.yul\":7393:7399   */\n      dup2\n        /* \"#utility.yul\":7381:7391   */\n      dup2\n        /* \"#utility.yul\":7378:7400   */\n      lt\n        /* \"#utility.yul\":7357:7375   */\n      0xffffffffffffffff\n        /* \"#utility.yul\":7345:7355   */\n      dup3\n        /* \"#utility.yul\":7342:7376   */\n      gt\n        /* \"#utility.yul\":7339:7401   */\n      or\n        /* \"#utility.yul\":7336:7424   */\n      iszero\n      tag_354\n      jumpi\n        /* \"#utility.yul\":7404:7422   */\n      tag_355\n      tag_250\n      jump\t// in\n    tag_355:\n        /* \"#utility.yul\":7336:7424   */\n    tag_354:\n        /* \"#utility.yul\":7444:7454   */\n      dup1\n        /* \"#utility.yul\":7440:7442   */\n      0x40\n        /* \"#utility.yul\":7433:7455   */\n      mstore\n        /* \"#utility.yul\":7223:7461   */\n      pop\n        /* \"#utility.yul\":7180:7461   */\n      pop\n      pop\n      jump\t// out\n        /* \"#utility.yul\":7467:7596   */\n    tag_252:\n        /* \"#utility.yul\":7501:7507   */\n      0x00\n        /* \"#utility.yul\":7528:7548   */\n      tag_357\n      tag_222\n      jump\t// in\n    tag_357:\n        /* \"#utility.yul\":7518:7548   */\n      swap1\n      pop\n        /* \"#utility.yul\":7557:7590   */\n      tag_358\n        /* \"#utility.yul\":7585:7589   */\n      dup3\n        /* \"#utility.yul\":7577:7583   */\n      dup3\n        /* \"#utility.yul\":7557:7590   */\n      tag_251\n      jump\t// in\n    tag_358:\n        /* \"#utility.yul\":7467:7596   */\n      swap2\n      swap1\n      pop\n      jump\t// out\n        /* \"#utility.yul\":7725:7868   */\n    tag_254:\n        /* \"#utility.yul\":7782:7787   */\n      0x00\n        /* \"#utility.yul\":7813:7819   */\n      dup2\n        /* \"#utility.yul\":7807:7820   */\n      mload\n        /* \"#utility.yul\":7798:7820   */\n      swap1\n      pop\n        /* \"#utility.yul\":7829:7862   */\n      tag_361\n        /* \"#utility.yul\":7856:7861   */\n      dup2\n        /* \"#utility.yul\":7829:7862   */\n      tag_227\n      jump\t// in\n    tag_361:\n        /* \"#utility.yul\":7725:7868   */\n      swap3\n      swap2\n      pop\n      pop\n      jump\t// out\n        /* \"#utility.yul\":7874:7990   */\n    tag_255:\n        /* \"#utility.yul\":7944:7965   */\n      tag_363\n        /* \"#utility.yul\":7959:7964   */\n      dup2\n        /* \"#utility.yul\":7944:7965   */\n      tag_229\n      jump\t// in\n    tag_363:\n        /* \"#utility.yul\":7937:7942   */\n      dup2\n        /* \"#utility.yul\":7934:7966   */\n      eq\n        /* \"#utility.yul\":7924:7984   */\n      tag_364\n      jumpi\n        /* \"#utility.yul\":7980:7981   */\n      0x00\n        /* \"#utility.yul\":7977:7978   */\n      dup1\n        /* \"#utility.yul\":7970:7982   */\n      revert\n        /* \"#utility.yul\":7924:7984   */\n    tag_364:\n        /* \"#utility.yul\":7874:7990   */\n      pop\n      jump\t// out\n        /* \"#utility.yul\":7996:8133   */\n    tag_256:\n        /* \"#utility.yul\":8050:8055   */\n      0x00\n        /* \"#utility.yul\":8081:8087   */\n      dup2\n        /* \"#utility.yul\":8075:8088   */\n      mload\n        /* \"#utility.yul\":8066:8088   */\n      swap1\n      pop\n        /* \"#utility.yul\":8097:8127   */\n      tag_366\n        /* \"#utility.yul\":8121:8126   */\n      dup2\n        /* \"#utility.yul\":8097:8127   */\n      tag_255\n      jump\t// in\n    tag_366:\n        /* \"#utility.yul\":7996:8133   */\n      swap3\n      swap2\n      pop\n      pop\n      jump\t// out\n        /* \"#utility.yul\":8186:9341   */\n    tag_257:\n        /* \"#utility.yul\":8284:8289   */\n      0x00\n        /* \"#utility.yul\":8328:8332   */\n      0xa0\n        /* \"#utility.yul\":8316:8325   */\n      dup3\n        /* \"#utility.yul\":8311:8314   */\n      dup5\n        /* \"#utility.yul\":8307:8326   */\n      sub\n        /* \"#utility.yul\":8303:8333   */\n      slt\n        /* \"#utility.yul\":8300:8417   */\n      iszero\n      tag_368\n      jumpi\n        /* \"#utility.yul\":8336:8415   */\n      tag_369\n      tag_248\n      jump\t// in\n    tag_369:\n        /* \"#utility.yul\":8300:8417   */\n    tag_368:\n        /* \"#utility.yul\":8435:8456   */\n      tag_370\n        /* \"#utility.yul\":8451:8455   */\n      0xa0\n        /* \"#utility.yul\":8435:8456   */\n      tag_252\n      jump\t// in\n    tag_370:\n        /* \"#utility.yul\":8426:8456   */\n      swap1\n      pop\n        /* \"#utility.yul\":8521:8522   */\n      0x00\n        /* \"#utility.yul\":8561:8621   */\n      tag_371\n        /* \"#utility.yul\":8617:8620   */\n      dup5\n        /* \"#utility.yul\":8608:8614   */\n      dup3\n        /* \"#utility.yul\":8597:8606   */\n      dup6\n        /* \"#utility.yul\":8593:8615   */\n      add\n        /* \"#utility.yul\":8561:8621   */\n      tag_254\n      jump\t// in\n    tag_371:\n        /* \"#utility.yul\":8554:8558   */\n      0x00\n        /* \"#utility.yul\":8547:8552   */\n      dup4\n        /* \"#utility.yul\":8543:8559   */\n      add\n        /* \"#utility.yul\":8536:8622   */\n      mstore\n        /* \"#utility.yul\":8466:8633   */\n      pop\n        /* \"#utility.yul\":8694:8696   */\n      0x20\n        /* \"#utility.yul\":8735:8792   */\n      tag_372\n        /* \"#utility.yul\":8788:8791   */\n      dup5\n        /* \"#utility.yul\":8779:8785   */\n      dup3\n        /* \"#utility.yul\":8768:8777   */\n      dup6\n        /* \"#utility.yul\":8764:8786   */\n      add\n        /* \"#utility.yul\":8735:8792   */\n      tag_256\n      jump\t// in\n    tag_372:\n        /* \"#utility.yul\":8728:8732   */\n      0x20\n        /* \"#utility.yul\":8721:8726   */\n      dup4\n        /* \"#utility.yul\":8717:8733   */\n      add\n        /* \"#utility.yul\":8710:8793   */\n      mstore\n        /* \"#utility.yul\":8643:8804   */\n      pop\n        /* \"#utility.yul\":8870:8872   */\n      0x40\n        /* \"#utility.yul\":8911:8968   */\n      tag_373\n        /* \"#utility.yul\":8964:8967   */\n      dup5\n        /* \"#utility.yul\":8955:8961   */\n      dup3\n        /* \"#utility.yul\":8944:8953   */\n      dup6\n        /* \"#utility.yul\":8940:8962   */\n      add\n        /* \"#utility.yul\":8911:8968   */\n      tag_256\n      jump\t// in\n    tag_373:\n        /* \"#utility.yul\":8904:8908   */\n      0x40\n        /* \"#utility.yul\":8897:8902   */\n      dup4\n        /* \"#utility.yul\":8893:8909   */\n      add\n        /* \"#utility.yul\":8886:8969   */\n      mstore\n        /* \"#utility.yul\":8814:8980   */\n      pop\n        /* \"#utility.yul\":9048:9050   */\n      0x60\n        /* \"#utility.yul\":9089:9146   */\n      tag_374\n        /* \"#utility.yul\":9142:9145   */\n      dup5\n        /* \"#utility.yul\":9133:9139   */\n      dup3\n        /* \"#utility.yul\":9122:9131   */\n      dup6\n        /* \"#utility.yul\":9118:9140   */\n      add\n        /* \"#utility.yul\":9089:9146   */\n      tag_256\n      jump\t// in\n    tag_374:\n        /* \"#utility.yul\":9082:9086   */\n      0x60\n        /* \"#utility.yul\":9075:9080   */\n      dup4\n        /* \"#utility.yul\":9071:9087   */\n      add\n        /* \"#utility.yul\":9064:9147   */\n      mstore\n        /* \"#utility.yul\":8990:9158   */\n      pop\n        /* \"#utility.yul\":9223:9226   */\n      0x80\n        /* \"#utility.yul\":9265:9322   */\n      tag_375\n        /* \"#utility.yul\":9318:9321   */\n      dup5\n        /* \"#utility.yul\":9309:9315   */\n      dup3\n        /* \"#utility.yul\":9298:9307   */\n      dup6\n        /* \"#utility.yul\":9294:9316   */\n      add\n        /* \"#utility.yul\":9265:9322   */\n      tag_256\n      jump\t// in\n    tag_375:\n        /* \"#utility.yul\":9258:9262   */\n      0x80\n        /* \"#utility.yul\":9251:9256   */\n      dup4\n        /* \"#utility.yul\":9247:9263   */\n      add\n        /* \"#utility.yul\":9240:9323   */\n      mstore\n        /* \"#utility.yul\":9168:9334   */\n      pop\n        /* \"#utility.yul\":8186:9341   */\n      swap3\n      swap2\n      pop\n      pop\n      jump\t// out\n        /* \"#utility.yul\":9347:9775   */\n    tag_90:\n        /* \"#utility.yul\":9455:9461   */\n      0x00\n        /* \"#utility.yul\":9504:9507   */\n      0xa0\n        /* \"#utility.yul\":9492:9501   */\n      dup3\n        /* \"#utility.yul\":9483:9490   */\n      dup5\n        /* \"#utility.yul\":9479:9502   */\n      sub\n        /* \"#utility.yul\":9475:9508   */\n      slt\n        /* \"#utility.yul\":9472:9592   */\n      iszero\n      tag_377\n      jumpi\n        /* \"#utility.yul\":9511:9590   */\n      tag_378\n      tag_223\n      jump\t// in\n    tag_378:\n        /* \"#utility.yul\":9472:9592   */\n    tag_377:\n        /* \"#utility.yul\":9631:9632   */\n      0x00\n        /* \"#utility.yul\":9656:9758   */\n      tag_379\n        /* \"#utility.yul\":9750:9757   */\n      dup5\n        /* \"#utility.yul\":9741:9747   */\n      dup3\n        /* \"#utility.yul\":9730:9739   */\n      dup6\n        /* \"#utility.yul\":9726:9748   */\n      add\n        /* \"#utility.yul\":9656:9758   */\n      tag_257\n      jump\t// in\n    tag_379:\n        /* \"#utility.yul\":9646:9758   */\n      swap2\n      pop\n        /* \"#utility.yul\":9602:9768   */\n      pop\n        /* \"#utility.yul\":9347:9775   */\n      swap3\n      swap2\n      pop\n      pop\n      jump\t// out\n        /* \"#utility.yul\":9781:9875   */\n    tag_258:\n        /* \"#utility.yul\":9814:9822   */\n      0x00\n        /* \"#utility.yul\":9862:9867   */\n      dup2\n        /* \"#utility.yul\":9858:9860   */\n      0x60\n        /* \"#utility.yul\":9854:9868   */\n      shl\n        /* \"#utility.yul\":9833:9868   */\n      swap1\n      pop\n        /* \"#utility.yul\":9781:9875   */\n      swap2\n      swap1\n      pop\n      jump\t// out\n        /* \"#utility.yul\":9881:9975   */\n    tag_259:\n        /* \"#utility.yul\":9920:9927   */\n      0x00\n        /* \"#utility.yul\":9949:9969   */\n      tag_382\n        /* \"#utility.yul\":9963:9968   */\n      dup3\n        /* \"#utility.yul\":9949:9969   */\n      tag_258\n      jump\t// in\n    tag_382:\n        /* \"#utility.yul\":9938:9969   */\n      swap1\n      pop\n        /* \"#utility.yul\":9881:9975   */\n      swap2\n      swap1\n      pop\n      jump\t// out\n        /* \"#utility.yul\":9981:10081   */\n    tag_260:\n        /* \"#utility.yul\":10020:10027   */\n      0x00\n        /* \"#utility.yul\":10049:10075   */\n      tag_384\n        /* \"#utility.yul\":10069:10074   */\n      dup3\n        /* \"#utility.yul\":10049:10075   */\n      tag_259\n      jump\t// in\n    tag_384:\n        /* \"#utility.yul\":10038:10075   */\n      swap1\n      pop\n        /* \"#utility.yul\":9981:10081   */\n      swap2\n      swap1\n      pop\n      jump\t// out\n        /* \"#utility.yul\":10087:10244   */\n    tag_261:\n        /* \"#utility.yul\":10192:10237   */\n      tag_386\n        /* \"#utility.yul\":10212:10236   */\n      tag_387\n        /* \"#utility.yul\":10230:10235   */\n      dup3\n        /* \"#utility.yul\":10212:10236   */\n      tag_226\n      jump\t// in\n    tag_387:\n        /* \"#utility.yul\":10192:10237   */\n      tag_260\n      jump\t// in\n    tag_386:\n        /* \"#utility.yul\":10187:10190   */\n      dup3\n        /* \"#utility.yul\":10180:10238   */\n      mstore\n        /* \"#utility.yul\":10087:10244   */\n      pop\n      pop\n      jump\t// out\n        /* \"#utility.yul\":10250:10329   */\n    tag_262:\n        /* \"#utility.yul\":10289:10296   */\n      0x00\n        /* \"#utility.yul\":10318:10323   */\n      dup2\n        /* \"#utility.yul\":10307:10323   */\n      swap1\n      pop\n        /* \"#utility.yul\":10250:10329   */\n      swap2\n      swap1\n      pop\n      jump\t// out\n        /* \"#utility.yul\":10335:10492   */\n    tag_263:\n        /* \"#utility.yul\":10440:10485   */\n      tag_390\n        /* \"#utility.yul\":10460:10484   */\n      tag_391\n        /* \"#utility.yul\":10478:10483   */\n      dup3\n        /* \"#utility.yul\":10460:10484   */\n      tag_231\n      jump\t// in\n    tag_391:\n        /* \"#utility.yul\":10440:10485   */\n      tag_262\n      jump\t// in\n    tag_390:\n        /* \"#utility.yul\":10435:10438   */\n      dup3\n        /* \"#utility.yul\":10428:10486   */\n      mstore\n        /* \"#utility.yul\":10335:10492   */\n      pop\n      pop\n      jump\t// out\n        /* \"#utility.yul\":10498:10895   */\n    tag_93:\n        /* \"#utility.yul\":10638:10641   */\n      0x00\n        /* \"#utility.yul\":10653:10728   */\n      tag_393\n        /* \"#utility.yul\":10724:10727   */\n      dup3\n        /* \"#utility.yul\":10715:10721   */\n      dup6\n        /* \"#utility.yul\":10653:10728   */\n      tag_261\n      jump\t// in\n    tag_393:\n        /* \"#utility.yul\":10753:10755   */\n      0x14\n        /* \"#utility.yul\":10748:10751   */\n      dup3\n        /* \"#utility.yul\":10744:10756   */\n      add\n        /* \"#utility.yul\":10737:10756   */\n      swap2\n      pop\n        /* \"#utility.yul\":10766:10841   */\n      tag_394\n        /* \"#utility.yul\":10837:10840   */\n      dup3\n        /* \"#utility.yul\":10828:10834   */\n      dup5\n        /* \"#utility.yul\":10766:10841   */\n      tag_263\n      jump\t// in\n    tag_394:\n        /* \"#utility.yul\":10866:10868   */\n      0x20\n        /* \"#utility.yul\":10861:10864   */\n      dup3\n        /* \"#utility.yul\":10857:10869   */\n      add\n        /* \"#utility.yul\":10850:10869   */\n      swap2\n      pop\n        /* \"#utility.yul\":10886:10889   */\n      dup2\n        /* \"#utility.yul\":10879:10889   */\n      swap1\n      pop\n        /* \"#utility.yul\":10498:10895   */\n      swap4\n      swap3\n      pop\n      pop\n      pop\n      jump\t// out\n        /* \"#utility.yul\":10901:11081   */\n    tag_264:\n        /* \"#utility.yul\":10949:11026   */\n      0x4e487b7100000000000000000000000000000000000000000000000000000000\n        /* \"#utility.yul\":10946:10947   */\n      0x00\n        /* \"#utility.yul\":10939:11027   */\n      mstore\n        /* \"#utility.yul\":11046:11050   */\n      0x12\n        /* \"#utility.yul\":11043:11044   */\n      0x04\n        /* \"#utility.yul\":11036:11051   */\n      mstore\n        /* \"#utility.yul\":11070:11074   */\n      0x24\n        /* \"#utility.yul\":11067:11068   */\n      0x00\n        /* \"#utility.yul\":11060:11075   */\n      revert\n        /* \"#utility.yul\":11087:11263   */\n    tag_95:\n        /* \"#utility.yul\":11119:11120   */\n      0x00\n        /* \"#utility.yul\":11136:11156   */\n      tag_397\n        /* \"#utility.yul\":11154:11155   */\n      dup3\n        /* \"#utility.yul\":11136:11156   */\n      tag_231\n      jump\t// in\n    tag_397:\n        /* \"#utility.yul\":11131:11156   */\n      swap2\n      pop\n        /* \"#utility.yul\":11170:11190   */\n      tag_398\n        /* \"#utility.yul\":11188:11189   */\n      dup4\n        /* \"#utility.yul\":11170:11190   */\n      tag_231\n      jump\t// in\n    tag_398:\n        /* \"#utility.yul\":11165:11190   */\n      swap3\n      pop\n        /* \"#utility.yul\":11209:11210   */\n      dup3\n        /* \"#utility.yul\":11199:11234   */\n      tag_399\n      jumpi\n        /* \"#utility.yul\":11214:11232   */\n      tag_400\n      tag_264\n      jump\t// in\n    tag_400:\n        /* \"#utility.yul\":11199:11234   */\n    tag_399:\n        /* \"#utility.yul\":11255:11256   */\n      dup3\n        /* \"#utility.yul\":11252:11253   */\n      dup3\n        /* \"#utility.yul\":11248:11257   */\n      mod\n        /* \"#utility.yul\":11243:11257   */\n      swap1\n      pop\n        /* \"#utility.yul\":11087:11263   */\n      swap3\n      swap2\n      pop\n      pop\n      jump\t// out\n        /* \"#utility.yul\":11269:11885   */\n    tag_103:\n        /* \"#utility.yul\":11450:11454   */\n      0x00\n        /* \"#utility.yul\":11488:11491   */\n      0xa0\n        /* \"#utility.yul\":11477:11486   */\n      dup3\n        /* \"#utility.yul\":11473:11492   */\n      add\n        /* \"#utility.yul\":11465:11492   */\n      swap1\n      pop\n        /* \"#utility.yul\":11502:11573   */\n      tag_402\n        /* \"#utility.yul\":11570:11571   */\n      0x00\n        /* \"#utility.yul\":11559:11568   */\n      dup4\n        /* \"#utility.yul\":11555:11572   */\n      add\n        /* \"#utility.yul\":11546:11552   */\n      dup9\n        /* \"#utility.yul\":11502:11573   */\n      tag_235\n      jump\t// in\n    tag_402:\n        /* \"#utility.yul\":11583:11649   */\n      tag_403\n        /* \"#utility.yul\":11645:11647   */\n      0x20\n        /* \"#utility.yul\":11634:11643   */\n      dup4\n        /* \"#utility.yul\":11630:11648   */\n      add\n        /* \"#utility.yul\":11621:11627   */\n      dup8\n        /* \"#utility.yul\":11583:11649   */\n      tag_230\n      jump\t// in\n    tag_403:\n        /* \"#utility.yul\":11659:11725   */\n      tag_404\n        /* \"#utility.yul\":11721:11723   */\n      0x40\n        /* \"#utility.yul\":11710:11719   */\n      dup4\n        /* \"#utility.yul\":11706:11724   */\n      add\n        /* \"#utility.yul\":11697:11703   */\n      dup7\n        /* \"#utility.yul\":11659:11725   */\n      tag_230\n      jump\t// in\n    tag_404:\n        /* \"#utility.yul\":11735:11801   */\n      tag_405\n        /* \"#utility.yul\":11797:11799   */\n      0x60\n        /* \"#utility.yul\":11786:11795   */\n      dup4\n        /* \"#utility.yul\":11782:11800   */\n      add\n        /* \"#utility.yul\":11773:11779   */\n      dup6\n        /* \"#utility.yul\":11735:11801   */\n      tag_230\n      jump\t// in\n    tag_405:\n        /* \"#utility.yul\":11811:11878   */\n      tag_406\n        /* \"#utility.yul\":11873:11876   */\n      0x80\n        /* \"#utility.yul\":11862:11871   */\n      dup4\n        /* \"#utility.yul\":11858:11877   */\n      add\n        /* \"#utility.yul\":11849:11855   */\n      dup5\n        /* \"#utility.yul\":11811:11878   */\n      tag_230\n      jump\t// in\n    tag_406:\n        /* \"#utility.yul\":11269:11885   */\n      swap7\n      swap6\n      pop\n      pop\n      pop\n      pop\n      pop\n      pop\n      jump\t// out\n        /* \"#utility.yul\":11891:12055   */\n    tag_265:\n        /* \"#utility.yul\":12031:12047   */\n      0x4e6f742043686f73656e204f6e65000000000000000000000000000000000000\n        /* \"#utility.yul\":12027:12028   */\n      0x00\n        /* \"#utility.yul\":12019:12025   */\n      dup3\n        /* \"#utility.yul\":12015:12029   */\n      add\n        /* \"#utility.yul\":12008:12048   */\n      mstore\n        /* \"#utility.yul\":11891:12055   */\n      pop\n      jump\t// out\n        /* \"#utility.yul\":12061:12427   */\n    tag_266:\n        /* \"#utility.yul\":12203:12206   */\n      0x00\n        /* \"#utility.yul\":12224:12291   */\n      tag_409\n        /* \"#utility.yul\":12288:12290   */\n      0x0e\n        /* \"#utility.yul\":12283:12286   */\n      dup4\n        /* \"#utility.yul\":12224:12291   */\n      tag_244\n      jump\t// in\n    tag_409:\n        /* \"#utility.yul\":12217:12291   */\n      swap2\n      pop\n        /* \"#utility.yul\":12300:12393   */\n      tag_410\n        /* \"#utility.yul\":12389:12392   */\n      dup3\n        /* \"#utility.yul\":12300:12393   */\n      tag_265\n      jump\t// in\n    tag_410:\n        /* \"#utility.yul\":12418:12420   */\n      0x20\n        /* \"#utility.yul\":12413:12416   */\n      dup3\n        /* \"#utility.yul\":12409:12421   */\n      add\n        /* \"#utility.yul\":12402:12421   */\n      swap1\n      pop\n        /* \"#utility.yul\":12061:12427   */\n      swap2\n      swap1\n      pop\n      jump\t// out\n        /* \"#utility.yul\":12433:12852   */\n    tag_201:\n        /* \"#utility.yul\":12599:12603   */\n      0x00\n        /* \"#utility.yul\":12637:12639   */\n      0x20\n        /* \"#utility.yul\":12626:12635   */\n      dup3\n        /* \"#utility.yul\":12622:12640   */\n      add\n        /* \"#utility.yul\":12614:12640   */\n      swap1\n      pop\n        /* \"#utility.yul\":12686:12695   */\n      dup2\n        /* \"#utility.yul\":12680:12684   */\n      dup2\n        /* \"#utility.yul\":12676:12696   */\n      sub\n        /* \"#utility.yul\":12672:12673   */\n      0x00\n        /* \"#utility.yul\":12661:12670   */\n      dup4\n        /* \"#utility.yul\":12657:12674   */\n      add\n        /* \"#utility.yul\":12650:12697   */\n      mstore\n        /* \"#utility.yul\":12714:12845   */\n      tag_412\n        /* \"#utility.yul\":12840:12844   */\n      dup2\n        /* \"#utility.yul\":12714:12845   */\n      tag_266\n      jump\t// in\n    tag_412:\n        /* \"#utility.yul\":12706:12845   */\n      swap1\n      pop\n        /* \"#utility.yul\":12433:12852   */\n      swap2\n      swap1\n      pop\n      jump\t// out\n        /* \"#utility.yul\":12858:12937   */\n    tag_267:\n        /* \"#utility.yul\":12897:12904   */\n      0x00\n        /* \"#utility.yul\":12926:12931   */\n      dup2\n        /* \"#utility.yul\":12915:12931   */\n      swap1\n      pop\n        /* \"#utility.yul\":12858:12937   */\n      swap2\n      swap1\n      pop\n      jump\t// out\n        /* \"#utility.yul\":12943:13100   */\n    tag_268:\n        /* \"#utility.yul\":13048:13093   */\n      tag_415\n        /* \"#utility.yul\":13068:13092   */\n      tag_416\n        /* \"#utility.yul\":13086:13091   */\n      dup3\n        /* \"#utility.yul\":13068:13092   */\n      tag_236\n      jump\t// in\n    tag_416:\n        /* \"#utility.yul\":13048:13093   */\n      tag_267\n      jump\t// in\n    tag_415:\n        /* \"#utility.yul\":13043:13046   */\n      dup3\n        /* \"#utility.yul\":13036:13094   */\n      mstore\n        /* \"#utility.yul\":12943:13100   */\n      pop\n      pop\n      jump\t// out\n        /* \"#utility.yul\":13106:13362   */\n    tag_204:\n        /* \"#utility.yul\":13218:13221   */\n      0x00\n        /* \"#utility.yul\":13233:13308   */\n      tag_418\n        /* \"#utility.yul\":13304:13307   */\n      dup3\n        /* \"#utility.yul\":13295:13301   */\n      dup5\n        /* \"#utility.yul\":13233:13308   */\n      tag_268\n      jump\t// in\n    tag_418:\n        /* \"#utility.yul\":13333:13335   */\n      0x20\n        /* \"#utility.yul\":13328:13331   */\n      dup3\n        /* \"#utility.yul\":13324:13336   */\n      add\n        /* \"#utility.yul\":13317:13336   */\n      swap2\n      pop\n        /* \"#utility.yul\":13353:13356   */\n      dup2\n        /* \"#utility.yul\":13346:13356   */\n      swap1\n      pop\n        /* \"#utility.yul\":13106:13362   */\n      swap3\n      swap2\n      pop\n      pop\n      jump\t// out\n\n    auxdata: 0xa26469706673582212206058c00033988a1bec8678a80caeae4bbe827e47a15c293e2831a59c96c1115b64736f6c634300081a0033\n}\n",
				"bytecode": {
					"linkReferences": {},
					"object": "608060405234801561000f575f80fd5b506040516120bd3803806120bd8339818101604052810190610031919061015e565b3360035f6101000a81548173ffffffffffffffffffffffffffffffffffffffff021916908373ffffffffffffffffffffffffffffffffffffffff160217905550815f806101000a81548173ffffffffffffffffffffffffffffffffffffffff021916908373ffffffffffffffffffffffffffffffffffffffff160217905550674563918244f4000060048190555080600181905550505061019c565b5f80fd5b5f73ffffffffffffffffffffffffffffffffffffffff82169050919050565b5f6100fa826100d1565b9050919050565b61010a816100f0565b8114610114575f80fd5b50565b5f8151905061012581610101565b92915050565b5f819050919050565b61013d8161012b565b8114610147575f80fd5b50565b5f8151905061015881610134565b92915050565b5f8060408385031215610174576101736100cd565b5b5f61018185828601610117565b92505060206101928582860161014a565b9150509250929050565b611f14806101a95f395ff3fe6080604052600436106100a6575f3560e01c8063bc0f160a11610063578063bc0f160a146101b4578063cb54a31e146101de578063ced99cce1461021a578063d3db0a3914610244578063de7ff38a1461024e578063ec21eaf114610278576100a6565b806301080798146100aa57806336ef2335146100e6578063458393ab1461010e5780634edfa653146101385780636aecb8d914610162578063a75c654e1461018c575b5f80fd5b3480156100b5575f80fd5b506100d060048036038101906100cb91906118ad565b6102b4565b6040516100dd91906118f2565b60405180910390f35b3480156100f1575f80fd5b5061010c6004803603810190610107919061193e565b6102d1565b005b348015610119575f80fd5b50610122611378565b60405161012f919061198b565b60405180910390f35b348015610143575f80fd5b5061014c61139e565b604051610159919061198b565b60405180910390f35b34801561016d575f80fd5b506101766113c5565b60405161018391906119b3565b60405180910390f35b348015610197575f80fd5b506101b260048036038101906101ad91906119ff565b6113cb565b005b3480156101bf575f80fd5b506101c861155b565b6040516101d5919061198b565b60405180910390f35b3480156101e9575f80fd5b5061020460048036038101906101ff9190611a2a565b611580565b604051610211919061198b565b60405180910390f35b348015610225575f80fd5b5061022e6115bb565b60405161023b9190611ab0565b60405180910390f35b61024c6115de565b005b348015610259575f80fd5b506102626117e2565b60405161026f91906118f2565b60405180910390f35b348015610283575f80fd5b5061029e600480360381019061029991906118ad565b6117f4565b6040516102ab91906118f2565b60405180910390f35b6006602052805f5260405f205f915054906101000a900460ff1681565b60025f9054906101000a900460ff1615610320576040517f08c379a000000000000000000000000000000000000000000000000000000000815260040161031790611b23565b60405180910390fd5b5f8054906101000a900473ffffffffffffffffffffffffffffffffffffffff1673ffffffffffffffffffffffffffffffffffffffff16634619246f6040518163ffffffff1660e01b8152600401602060405180830381865afa158015610388573d5f803e3d5ffd5b505050506040513d601f19601f820116820180604052508101906103ac9190611b55565b8211156103e5576040517fa67adb2700000000000000000000000000000000000000000000000000000000815260040160405180910390fd5b5f8054906101000a900473ffffffffffffffffffffffffffffffffffffffff1673ffffffffffffffffffffffffffffffffffffffff16634619246f6040518163ffffffff1660e01b8152600401602060405180830381865afa15801561044d573d5f803e3d5ffd5b505050506040513d601f19601f820116820180604052508101906104719190611b55565b8111156104aa576040517fc792b6e200000000000000000000000000000000000000000000000000000000815260040160405180910390fd5b3373ffffffffffffffffffffffffffffffffffffffff165f8054906101000a900473ffffffffffffffffffffffffffffffffffffffff1673ffffffffffffffffffffffffffffffffffffffff166389bdfdc3846040518263ffffffff1660e01b815260040161051991906119b3565b60a060405180830381865afa158015610534573d5f803e3d5ffd5b505050506040513d601f19601f820116820180604052508101906105589190611cd3565b5f015173ffffffffffffffffffffffffffffffffffffffff16146105a8576040517f76eac26e00000000000000000000000000000000000000000000000000000000815260040160405180910390fd5b5f600433426040516020016105be929190611d63565b604051602081830303815290604052805190602001205f1c6105e09190611dbb565b90505f8103610bc3575f15155f8054906101000a900473ffffffffffffffffffffffffffffffffffffffff1673ffffffffffffffffffffffffffffffffffffffff166389bdfdc3846040518263ffffffff1660e01b815260040161064491906119b3565b60a060405180830381865afa15801561065f573d5f803e3d5ffd5b505050506040513d601f19601f820116820180604052508101906106839190611cd3565b60200151151503610721575f8054906101000a900473ffffffffffffffffffffffffffffffffffffffff1673ffffffffffffffffffffffffffffffffffffffff1663c328848a8360015f805f6040518663ffffffff1660e01b81526004016106ef959493929190611deb565b5f604051808303815f87803b158015610706575f80fd5b505af1158015610718573d5f803e3d5ffd5b50505050610bbe565b5f15155f8054906101000a900473ffffffffffffffffffffffffffffffffffffffff1673ffffffffffffffffffffffffffffffffffffffff166389bdfdc3846040518263ffffffff1660e01b815260040161077c91906119b3565b60a060405180830381865afa158015610797573d5f803e3d5ffd5b505050506040513d601f19601f820116820180604052508101906107bb9190611cd3565b60400151151503610859575f8054906101000a900473ffffffffffffffffffffffffffffffffffffffff1673ffffffffffffffffffffffffffffffffffffffff1663c328848a836001805f806040518663ffffffff1660e01b8152600401610827959493929190611deb565b5f604051808303815f87803b15801561083e575f80fd5b505af1158015610850573d5f803e3d5ffd5b50505050610bbd565b5f15155f8054906101000a900473ffffffffffffffffffffffffffffffffffffffff1673ffffffffffffffffffffffffffffffffffffffff166389bdfdc3846040518263ffffffff1660e01b81526004016108b491906119b3565b60a060405180830381865afa1580156108cf573d5f803e3d5ffd5b505050506040513d601f19601f820116820180604052508101906108f39190611cd3565b60600151151503610992575f8054906101000a900473ffffffffffffffffffffffffffffffffffffffff1673ffffffffffffffffffffffffffffffffffffffff1663c328848a8360018060015f6040518663ffffffff1660e01b8152600401610960959493929190611deb565b5f604051808303815f87803b158015610977575f80fd5b505af1158015610989573d5f803e3d5ffd5b50505050610bbc565b5f15155f8054906101000a900473ffffffffffffffffffffffffffffffffffffffff1673ffffffffffffffffffffffffffffffffffffffff166389bdfdc3846040518263ffffffff1660e01b81526004016109ed91906119b3565b60a060405180830381865afa158015610a08573d5f803e3d5ffd5b505050506040513d601f19601f82011682018060405250810190610a2c9190611cd3565b60800151151503610bbb575f8054906101000a900473ffffffffffffffffffffffffffffffffffffffff1673ffffffffffffffffffffffffffffffffffffffff1663c328848a836001806001806040518663ffffffff1660e01b8152600401610a99959493929190611deb565b5f604051808303815f87803b158015610ab0575f80fd5b505af1158015610ac2573d5f803e3d5ffd5b50505050600160025f6101000a81548160ff0219169083151502179055505f8054906101000a900473ffffffffffffffffffffffffffffffffffffffff1673ffffffffffffffffffffffffffffffffffffffff166389bdfdc3836040518263ffffffff1660e01b8152600401610b3891906119b3565b60a060405180830381865afa158015610b53573d5f803e3d5ffd5b505050506040513d601f19601f82011682018060405250810190610b779190611cd3565b5f0151600260016101000a81548173ffffffffffffffffffffffffffffffffffffffff021916908373ffffffffffffffffffffffffffffffffffffffff1602179055505b5b5b5b611373565b600181036111a5575f15155f8054906101000a900473ffffffffffffffffffffffffffffffffffffffff1673ffffffffffffffffffffffffffffffffffffffff166389bdfdc3856040518263ffffffff1660e01b8152600401610c2691906119b3565b60a060405180830381865afa158015610c41573d5f803e3d5ffd5b505050506040513d601f19601f82011682018060405250810190610c659190611cd3565b60200151151503610d03575f8054906101000a900473ffffffffffffffffffffffffffffffffffffffff1673ffffffffffffffffffffffffffffffffffffffff1663c328848a8460015f805f6040518663ffffffff1660e01b8152600401610cd1959493929190611deb565b5f604051808303815f87803b158015610ce8575f80fd5b505af1158015610cfa573d5f803e3d5ffd5b505050506111a0565b5f15155f8054906101000a900473ffffffffffffffffffffffffffffffffffffffff1673ffffffffffffffffffffffffffffffffffffffff166389bdfdc3856040518263ffffffff1660e01b8152600401610d5e91906119b3565b60a060405180830381865afa158015610d79573d5f803e3d5ffd5b505050506040513d601f19601f82011682018060405250810190610d9d9190611cd3565b60400151151503610e3b575f8054906101000a900473ffffffffffffffffffffffffffffffffffffffff1673ffffffffffffffffffffffffffffffffffffffff1663c328848a846001805f806040518663ffffffff1660e01b8152600401610e09959493929190611deb565b5f604051808303815f87803b158015610e20575f80fd5b505af1158015610e32573d5f803e3d5ffd5b5050505061119f565b5f15155f8054906101000a900473ffffffffffffffffffffffffffffffffffffffff1673ffffffffffffffffffffffffffffffffffffffff166389bdfdc3856040518263ffffffff1660e01b8152600401610e9691906119b3565b60a060405180830381865afa158015610eb1573d5f803e3d5ffd5b505050506040513d601f19601f82011682018060405250810190610ed59190611cd3565b60600151151503610f74575f8054906101000a900473ffffffffffffffffffffffffffffffffffffffff1673ffffffffffffffffffffffffffffffffffffffff1663c328848a8460018060015f6040518663ffffffff1660e01b8152600401610f42959493929190611deb565b5f604051808303815f87803b158015610f59575f80fd5b505af1158015610f6b573d5f803e3d5ffd5b5050505061119e565b5f15155f8054906101000a900473ffffffffffffffffffffffffffffffffffffffff1673ffffffffffffffffffffffffffffffffffffffff166389bdfdc3856040518263ffffffff1660e01b8152600401610fcf91906119b3565b60a060405180830381865afa158015610fea573d5f803e3d5ffd5b505050506040513d601f19601f8201168201806040525081019061100e9190611cd3565b6080015115150361119d575f8054906101000a900473ffffffffffffffffffffffffffffffffffffffff1673ffffffffffffffffffffffffffffffffffffffff1663c328848a846001806001806040518663ffffffff1660e01b815260040161107b959493929190611deb565b5f604051808303815f87803b158015611092575f80fd5b505af11580156110a4573d5f803e3d5ffd5b50505050600160025f6101000a81548160ff0219169083151502179055505f8054906101000a900473ffffffffffffffffffffffffffffffffffffffff1673ffffffffffffffffffffffffffffffffffffffff166389bdfdc3846040518263ffffffff1660e01b815260040161111a91906119b3565b60a060405180830381865afa158015611135573d5f803e3d5ffd5b505050506040513d601f19601f820116820180604052508101906111599190611cd3565b5f0151600260016101000a81548173ffffffffffffffffffffffffffffffffffffffff021916908373ffffffffffffffffffffffffffffffffffffffff1602179055505b5b5b5b611372565b60028103611291575f8054906101000a900473ffffffffffffffffffffffffffffffffffffffff1673ffffffffffffffffffffffffffffffffffffffff1663905d0709846040518263ffffffff1660e01b815260040161120591906119b3565b5f604051808303815f87803b15801561121c575f80fd5b505af115801561122e573d5f803e3d5ffd5b505050505f60025f6101000a81548160ff0219169083151502179055505f600260016101000a81548173ffffffffffffffffffffffffffffffffffffffff021916908373ffffffffffffffffffffffffffffffffffffffff160217905550611371565b5f8054906101000a900473ffffffffffffffffffffffffffffffffffffffff1673ffffffffffffffffffffffffffffffffffffffff1663905d0709836040518263ffffffff1660e01b81526004016112e991906119b3565b5f604051808303815f87803b158015611300575f80fd5b505af1158015611312573d5f803e3d5ffd5b505050505f60025f6101000a81548160ff0219169083151502179055505f600260016101000a81548173ffffffffffffffffffffffffffffffffffffffff021916908373ffffffffffffffffffffffffffffffffffffffff1602179055505b5b5b505050565b600260019054906101000a900473ffffffffffffffffffffffffffffffffffffffff1681565b5f805f9054906101000a900473ffffffffffffffffffffffffffffffffffffffff16905090565b60045481565b600260019054906101000a900473ffffffffffffffffffffffffffffffffffffffff1673ffffffffffffffffffffffffffffffffffffffff163373ffffffffffffffffffffffffffffffffffffffff161461145b576040517f08c379a000000000000000000000000000000000000000000000000000000000815260040161145290611e86565b60405180910390fd5b60015460405160200161146e9190611ec4565b60405160208183030381529060405280519060200120816040516020016114959190611ec4565b6040516020818303038152906040528051906020012003611558575f8054906101000a900473ffffffffffffffffffffffffffffffffffffffff1673ffffffffffffffffffffffffffffffffffffffff1663a168837e600260019054906101000a900473ffffffffffffffffffffffffffffffffffffffff166040518263ffffffff1660e01b815260040161152a919061198b565b5f604051808303815f87803b158015611541575f80fd5b505af1158015611553573d5f803e3d5ffd5b505050505b50565b60035f9054906101000a900473ffffffffffffffffffffffffffffffffffffffff1681565b6005818154811061158f575f80fd5b905f5260205f20015f915054906101000a900473ffffffffffffffffffffffffffffffffffffffff1681565b5f8054906101000a900473ffffffffffffffffffffffffffffffffffffffff1681565b674563918244f40000341461161f576040517fe3ad4db700000000000000000000000000000000000000000000000000000000815260040160405180910390fd5b6001151560065f3373ffffffffffffffffffffffffffffffffffffffff1673ffffffffffffffffffffffffffffffffffffffff1681526020019081526020015f205f9054906101000a900460ff161515036116a6576040517f42eb30f500000000000000000000000000000000000000000000000000000000815260040160405180910390fd5b600160065f3373ffffffffffffffffffffffffffffffffffffffff1673ffffffffffffffffffffffffffffffffffffffff1681526020019081526020015f205f6101000a81548160ff021916908315150217905550600533908060018154018082558091505060019003905f5260205f20015f9091909190916101000a81548173ffffffffffffffffffffffffffffffffffffffff021916908373ffffffffffffffffffffffffffffffffffffffff1602179055505f8054906101000a900473ffffffffffffffffffffffffffffffffffffffff1673ffffffffffffffffffffffffffffffffffffffff166306327b1a336040518263ffffffff1660e01b81526004016117b3919061198b565b5f604051808303815f87803b1580156117ca575f80fd5b505af11580156117dc573d5f803e3d5ffd5b50505050565b60025f9054906101000a900460ff1681565b5f60065f8373ffffffffffffffffffffffffffffffffffffffff1673ffffffffffffffffffffffffffffffffffffffff1681526020019081526020015f205f9054906101000a900460ff169050919050565b5f604051905090565b5f80fd5b5f73ffffffffffffffffffffffffffffffffffffffff82169050919050565b5f61187c82611853565b9050919050565b61188c81611872565b8114611896575f80fd5b50565b5f813590506118a781611883565b92915050565b5f602082840312156118c2576118c161184f565b5b5f6118cf84828501611899565b91505092915050565b5f8115159050919050565b6118ec816118d8565b82525050565b5f6020820190506119055f8301846118e3565b92915050565b5f819050919050565b61191d8161190b565b8114611927575f80fd5b50565b5f8135905061193881611914565b92915050565b5f80604083850312156119545761195361184f565b5b5f6119618582860161192a565b92505060206119728582860161192a565b9150509250929050565b61198581611872565b82525050565b5f60208201905061199e5f83018461197c565b92915050565b6119ad8161190b565b82525050565b5f6020820190506119c65f8301846119a4565b92915050565b5f819050919050565b6119de816119cc565b81146119e8575f80fd5b50565b5f813590506119f9816119d5565b92915050565b5f60208284031215611a1457611a1361184f565b5b5f611a21848285016119eb565b91505092915050565b5f60208284031215611a3f57611a3e61184f565b5b5f611a4c8482850161192a565b91505092915050565b5f819050919050565b5f611a78611a73611a6e84611853565b611a55565b611853565b9050919050565b5f611a8982611a5e565b9050919050565b5f611a9a82611a7f565b9050919050565b611aaa81611a90565b82525050565b5f602082019050611ac35f830184611aa1565b92915050565b5f82825260208201905092915050565b7f4e6577204368616c6c656e6765722069732053656c65637465642100000000005f82015250565b5f611b0d601b83611ac9565b9150611b1882611ad9565b602082019050919050565b5f6020820190508181035f830152611b3a81611b01565b9050919050565b5f81519050611b4f81611914565b92915050565b5f60208284031215611b6a57611b6961184f565b5b5f611b7784828501611b41565b91505092915050565b5f80fd5b5f601f19601f8301169050919050565b7f4e487b71000000000000000000000000000000000000000000000000000000005f52604160045260245ffd5b611bca82611b84565b810181811067ffffffffffffffff82111715611be957611be8611b94565b5b80604052505050565b5f611bfb611846565b9050611c078282611bc1565b919050565b5f81519050611c1a81611883565b92915050565b611c29816118d8565b8114611c33575f80fd5b50565b5f81519050611c4481611c20565b92915050565b5f60a08284031215611c5f57611c5e611b80565b5b611c6960a0611bf2565b90505f611c7884828501611c0c565b5f830152506020611c8b84828501611c36565b6020830152506040611c9f84828501611c36565b6040830152506060611cb384828501611c36565b6060830152506080611cc784828501611c36565b60808301525092915050565b5f60a08284031215611ce857611ce761184f565b5b5f611cf584828501611c4a565b91505092915050565b5f8160601b9050919050565b5f611d1482611cfe565b9050919050565b5f611d2582611d0a565b9050919050565b611d3d611d3882611872565b611d1b565b82525050565b5f819050919050565b611d5d611d588261190b565b611d43565b82525050565b5f611d6e8285611d2c565b601482019150611d7e8284611d4c565b6020820191508190509392505050565b7f4e487b71000000000000000000000000000000000000000000000000000000005f52601260045260245ffd5b5f611dc58261190b565b9150611dd08361190b565b925082611de057611ddf611d8e565b5b828206905092915050565b5f60a082019050611dfe5f8301886119a4565b611e0b60208301876118e3565b611e1860408301866118e3565b611e2560608301856118e3565b611e3260808301846118e3565b9695505050505050565b7f4e6f742043686f73656e204f6e650000000000000000000000000000000000005f82015250565b5f611e70600e83611ac9565b9150611e7b82611e3c565b602082019050919050565b5f6020820190508181035f830152611e9d81611e64565b9050919050565b5f819050919050565b611ebe611eb9826119cc565b611ea4565b82525050565b5f611ecf8284611ead565b6020820191508190509291505056fea26469706673582212206058c00033988a1bec8678a80caeae4bbe827e47a15c293e2831a59c96c1115b64736f6c634300081a0033",
					"opcodes": "PUSH1 0x80 PUSH1 0x40 MSTORE CALLVALUE DUP1 ISZERO PUSH2 0xF JUMPI PUSH0 DUP1 REVERT JUMPDEST POP PUSH1 0x40 MLOAD PUSH2 0x20BD CODESIZE SUB DUP1 PUSH2 0x20BD DUP4 CODECOPY DUP2 DUP2 ADD PUSH1 0x40 MSTORE DUP2 ADD SWAP1 PUSH2 0x31 SWAP2 SWAP1 PUSH2 0x15E JUMP JUMPDEST CALLER PUSH1 0x3 PUSH0 PUSH2 0x100 EXP DUP2 SLOAD DUP2 PUSH20 0xFFFFFFFFFFFFFFFFFFFFFFFFFFFFFFFFFFFFFFFF MUL NOT AND SWAP1 DUP4 PUSH20 0xFFFFFFFFFFFFFFFFFFFFFFFFFFFFFFFFFFFFFFFF AND MUL OR SWAP1 SSTORE POP DUP2 PUSH0 DUP1 PUSH2 0x100 EXP DUP2 SLOAD DUP2 PUSH20 0xFFFFFFFFFFFFFFFFFFFFFFFFFFFFFFFFFFFFFFFF MUL NOT AND SWAP1 DUP4 PUSH20 0xFFFFFFFFFFFFFFFFFFFFFFFFFFFFFFFFFFFFFFFF AND MUL OR SWAP1 SSTORE POP PUSH8 0x4563918244F40000 PUSH1 0x4 DUP2 SWAP1 SSTORE POP DUP1 PUSH1 0x1 DUP2 SWAP1 SSTORE POP POP POP PUSH2 0x19C JUMP JUMPDEST PUSH0 DUP1 REVERT JUMPDEST PUSH0 PUSH20 0xFFFFFFFFFFFFFFFFFFFFFFFFFFFFFFFFFFFFFFFF DUP3 AND SWAP1 POP SWAP2 SWAP1 POP JUMP JUMPDEST PUSH0 PUSH2 0xFA DUP3 PUSH2 0xD1 JUMP JUMPDEST SWAP1 POP SWAP2 SWAP1 POP JUMP JUMPDEST PUSH2 0x10A DUP2 PUSH2 0xF0 JUMP JUMPDEST DUP2 EQ PUSH2 0x114 JUMPI PUSH0 DUP1 REVERT JUMPDEST POP JUMP JUMPDEST PUSH0 DUP2 MLOAD SWAP1 POP PUSH2 0x125 DUP2 PUSH2 0x101 JUMP JUMPDEST SWAP3 SWAP2 POP POP JUMP JUMPDEST PUSH0 DUP2 SWAP1 POP SWAP2 SWAP1 POP JUMP JUMPDEST PUSH2 0x13D DUP2 PUSH2 0x12B JUMP JUMPDEST DUP2 EQ PUSH2 0x147 JUMPI PUSH0 DUP1 REVERT JUMPDEST POP JUMP JUMPDEST PUSH0 DUP2 MLOAD SWAP1 POP PUSH2 0x158 DUP2 PUSH2 0x134 JUMP JUMPDEST SWAP3 SWAP2 POP POP JUMP JUMPDEST PUSH0 DUP1 PUSH1 0x40 DUP4 DUP6 SUB SLT ISZERO PUSH2 0x174 JUMPI PUSH2 0x173 PUSH2 0xCD JUMP JUMPDEST JUMPDEST PUSH0 PUSH2 0x181 DUP6 DUP3 DUP7 ADD PUSH2 0x117 JUMP JUMPDEST SWAP3 POP POP PUSH1 0x20 PUSH2 0x192 DUP6 DUP3 DUP7 ADD PUSH2 0x14A JUMP JUMPDEST SWAP2 POP POP SWAP3 POP SWAP3 SWAP1 POP JUMP JUMPDEST PUSH2 0x1F14 DUP1 PUSH2 0x1A9 PUSH0 CODECOPY PUSH0 RETURN INVALID PUSH1 0x80 PUSH1 0x40 MSTORE PUSH1 0x4 CALLDATASIZE LT PUSH2 0xA6 JUMPI PUSH0 CALLDATALOAD PUSH1 0xE0 SHR DUP1 PUSH4 0xBC0F160A GT PUSH2 0x63 JUMPI DUP1 PUSH4 0xBC0F160A EQ PUSH2 0x1B4 JUMPI DUP1 PUSH4 0xCB54A31E EQ PUSH2 0x1DE JUMPI DUP1 PUSH4 0xCED99CCE EQ PUSH2 0x21A JUMPI DUP1 PUSH4 0xD3DB0A39 EQ PUSH2 0x244 JUMPI DUP1 PUSH4 0xDE7FF38A EQ PUSH2 0x24E JUMPI DUP1 PUSH4 0xEC21EAF1 EQ PUSH2 0x278 JUMPI PUSH2 0xA6 JUMP JUMPDEST DUP1 PUSH4 0x1080798 EQ PUSH2 0xAA JUMPI DUP1 PUSH4 0x36EF2335 EQ PUSH2 0xE6 JUMPI DUP1 PUSH4 0x458393AB EQ PUSH2 0x10E JUMPI DUP1 PUSH4 0x4EDFA653 EQ PUSH2 0x138 JUMPI DUP1 PUSH4 0x6AECB8D9 EQ PUSH2 0x162 JUMPI DUP1 PUSH4 0xA75C654E EQ PUSH2 0x18C JUMPI JUMPDEST PUSH0 DUP1 REVERT JUMPDEST CALLVALUE DUP1 ISZERO PUSH2 0xB5 JUMPI PUSH0 DUP1 REVERT JUMPDEST POP PUSH2 0xD0 PUSH1 0x4 DUP1 CALLDATASIZE SUB DUP2 ADD SWAP1 PUSH2 0xCB SWAP2 SWAP1 PUSH2 0x18AD JUMP JUMPDEST PUSH2 0x2B4 JUMP JUMPDEST PUSH1 0x40 MLOAD PUSH2 0xDD SWAP2 SWAP1 PUSH2 0x18F2 JUMP JUMPDEST PUSH1 0x40 MLOAD DUP1 SWAP2 SUB SWAP1 RETURN JUMPDEST CALLVALUE DUP1 ISZERO PUSH2 0xF1 JUMPI PUSH0 DUP1 REVERT JUMPDEST POP PUSH2 0x10C PUSH1 0x4 DUP1 CALLDATASIZE SUB DUP2 ADD SWAP1 PUSH2 0x107 SWAP2 SWAP1 PUSH2 0x193E JUMP JUMPDEST PUSH2 0x2D1 JUMP JUMPDEST STOP JUMPDEST CALLVALUE DUP1 ISZERO PUSH2 0x119 JUMPI PUSH0 DUP1 REVERT JUMPDEST POP PUSH2 0x122 PUSH2 0x1378 JUMP JUMPDEST PUSH1 0x40 MLOAD PUSH2 0x12F SWAP2 SWAP1 PUSH2 0x198B JUMP JUMPDEST PUSH1 0x40 MLOAD DUP1 SWAP2 SUB SWAP1 RETURN JUMPDEST CALLVALUE DUP1 ISZERO PUSH2 0x143 JUMPI PUSH0 DUP1 REVERT JUMPDEST POP PUSH2 0x14C PUSH2 0x139E JUMP JUMPDEST PUSH1 0x40 MLOAD PUSH2 0x159 SWAP2 SWAP1 PUSH2 0x198B JUMP JUMPDEST PUSH1 0x40 MLOAD DUP1 SWAP2 SUB SWAP1 RETURN JUMPDEST CALLVALUE DUP1 ISZERO PUSH2 0x16D JUMPI PUSH0 DUP1 REVERT JUMPDEST POP PUSH2 0x176 PUSH2 0x13C5 JUMP JUMPDEST PUSH1 0x40 MLOAD PUSH2 0x183 SWAP2 SWAP1 PUSH2 0x19B3 JUMP JUMPDEST PUSH1 0x40 MLOAD DUP1 SWAP2 SUB SWAP1 RETURN JUMPDEST CALLVALUE DUP1 ISZERO PUSH2 0x197 JUMPI PUSH0 DUP1 REVERT JUMPDEST POP PUSH2 0x1B2 PUSH1 0x4 DUP1 CALLDATASIZE SUB DUP2 ADD SWAP1 PUSH2 0x1AD SWAP2 SWAP1 PUSH2 0x19FF JUMP JUMPDEST PUSH2 0x13CB JUMP JUMPDEST STOP JUMPDEST CALLVALUE DUP1 ISZERO PUSH2 0x1BF JUMPI PUSH0 DUP1 REVERT JUMPDEST POP PUSH2 0x1C8 PUSH2 0x155B JUMP JUMPDEST PUSH1 0x40 MLOAD PUSH2 0x1D5 SWAP2 SWAP1 PUSH2 0x198B JUMP JUMPDEST PUSH1 0x40 MLOAD DUP1 SWAP2 SUB SWAP1 RETURN JUMPDEST CALLVALUE DUP1 ISZERO PUSH2 0x1E9 JUMPI PUSH0 DUP1 REVERT JUMPDEST POP PUSH2 0x204 PUSH1 0x4 DUP1 CALLDATASIZE SUB DUP2 ADD SWAP1 PUSH2 0x1FF SWAP2 SWAP1 PUSH2 0x1A2A JUMP JUMPDEST PUSH2 0x1580 JUMP JUMPDEST PUSH1 0x40 MLOAD PUSH2 0x211 SWAP2 SWAP1 PUSH2 0x198B JUMP JUMPDEST PUSH1 0x40 MLOAD DUP1 SWAP2 SUB SWAP1 RETURN JUMPDEST CALLVALUE DUP1 ISZERO PUSH2 0x225 JUMPI PUSH0 DUP1 REVERT JUMPDEST POP PUSH2 0x22E PUSH2 0x15BB JUMP JUMPDEST PUSH1 0x40 MLOAD PUSH2 0x23B SWAP2 SWAP1 PUSH2 0x1AB0 JUMP JUMPDEST PUSH1 0x40 MLOAD DUP1 SWAP2 SUB SWAP1 RETURN JUMPDEST PUSH2 0x24C PUSH2 0x15DE JUMP JUMPDEST STOP JUMPDEST CALLVALUE DUP1 ISZERO PUSH2 0x259 JUMPI PUSH0 DUP1 REVERT JUMPDEST POP PUSH2 0x262 PUSH2 0x17E2 JUMP JUMPDEST PUSH1 0x40 MLOAD PUSH2 0x26F SWAP2 SWAP1 PUSH2 0x18F2 JUMP JUMPDEST PUSH1 0x40 MLOAD DUP1 SWAP2 SUB SWAP1 RETURN JUMPDEST CALLVALUE DUP1 ISZERO PUSH2 0x283 JUMPI PUSH0 DUP1 REVERT JUMPDEST POP PUSH2 0x29E PUSH1 0x4 DUP1 CALLDATASIZE SUB DUP2 ADD SWAP1 PUSH2 0x299 SWAP2 SWAP1 PUSH2 0x18AD JUMP JUMPDEST PUSH2 0x17F4 JUMP JUMPDEST PUSH1 0x40 MLOAD PUSH2 0x2AB SWAP2 SWAP1 PUSH2 0x18F2 JUMP JUMPDEST PUSH1 0x40 MLOAD DUP1 SWAP2 SUB SWAP1 RETURN JUMPDEST PUSH1 0x6 PUSH1 0x20 MSTORE DUP1 PUSH0 MSTORE PUSH1 0x40 PUSH0 KECCAK256 PUSH0 SWAP2 POP SLOAD SWAP1 PUSH2 0x100 EXP SWAP1 DIV PUSH1 0xFF AND DUP2 JUMP JUMPDEST PUSH1 0x2 PUSH0 SWAP1 SLOAD SWAP1 PUSH2 0x100 EXP SWAP1 DIV PUSH1 0xFF AND ISZERO PUSH2 0x320 JUMPI PUSH1 0x40 MLOAD PUSH32 0x8C379A000000000000000000000000000000000000000000000000000000000 DUP2 MSTORE PUSH1 0x4 ADD PUSH2 0x317 SWAP1 PUSH2 0x1B23 JUMP JUMPDEST PUSH1 0x40 MLOAD DUP1 SWAP2 SUB SWAP1 REVERT JUMPDEST PUSH0 DUP1 SLOAD SWAP1 PUSH2 0x100 EXP SWAP1 DIV PUSH20 0xFFFFFFFFFFFFFFFFFFFFFFFFFFFFFFFFFFFFFFFF AND PUSH20 0xFFFFFFFFFFFFFFFFFFFFFFFFFFFFFFFFFFFFFFFF AND PUSH4 0x4619246F PUSH1 0x40 MLOAD DUP2 PUSH4 0xFFFFFFFF AND PUSH1 0xE0 SHL DUP2 MSTORE PUSH1 0x4 ADD PUSH1 0x20 PUSH1 0x40 MLOAD DUP1 DUP4 SUB DUP2 DUP7 GAS STATICCALL ISZERO DUP1 ISZERO PUSH2 0x388 JUMPI RETURNDATASIZE PUSH0 DUP1 RETURNDATACOPY RETURNDATASIZE PUSH0 REVERT JUMPDEST POP POP POP POP PUSH1 0x40 MLOAD RETURNDATASIZE PUSH1 0x1F NOT PUSH1 0x1F DUP3 ADD AND DUP3 ADD DUP1 PUSH1 0x40 MSTORE POP DUP2 ADD SWAP1 PUSH2 0x3AC SWAP2 SWAP1 PUSH2 0x1B55 JUMP JUMPDEST DUP3 GT ISZERO PUSH2 0x3E5 JUMPI PUSH1 0x40 MLOAD PUSH32 0xA67ADB2700000000000000000000000000000000000000000000000000000000 DUP2 MSTORE PUSH1 0x4 ADD PUSH1 0x40 MLOAD DUP1 SWAP2 SUB SWAP1 REVERT JUMPDEST PUSH0 DUP1 SLOAD SWAP1 PUSH2 0x100 EXP SWAP1 DIV PUSH20 0xFFFFFFFFFFFFFFFFFFFFFFFFFFFFFFFFFFFFFFFF AND PUSH20 0xFFFFFFFFFFFFFFFFFFFFFFFFFFFFFFFFFFFFFFFF AND PUSH4 0x4619246F PUSH1 0x40 MLOAD DUP2 PUSH4 0xFFFFFFFF AND PUSH1 0xE0 SHL DUP2 MSTORE PUSH1 0x4 ADD PUSH1 0x20 PUSH1 0x40 MLOAD DUP1 DUP4 SUB DUP2 DUP7 GAS STATICCALL ISZERO DUP1 ISZERO PUSH2 0x44D JUMPI RETURNDATASIZE PUSH0 DUP1 RETURNDATACOPY RETURNDATASIZE PUSH0 REVERT JUMPDEST POP POP POP POP PUSH1 0x40 MLOAD RETURNDATASIZE PUSH1 0x1F NOT PUSH1 0x1F DUP3 ADD AND DUP3 ADD DUP1 PUSH1 0x40 MSTORE POP DUP2 ADD SWAP1 PUSH2 0x471 SWAP2 SWAP1 PUSH2 0x1B55 JUMP JUMPDEST DUP2 GT ISZERO PUSH2 0x4AA JUMPI PUSH1 0x40 MLOAD PUSH32 0xC792B6E200000000000000000000000000000000000000000000000000000000 DUP2 MSTORE PUSH1 0x4 ADD PUSH1 0x40 MLOAD DUP1 SWAP2 SUB SWAP1 REVERT JUMPDEST CALLER PUSH20 0xFFFFFFFFFFFFFFFFFFFFFFFFFFFFFFFFFFFFFFFF AND PUSH0 DUP1 SLOAD SWAP1 PUSH2 0x100 EXP SWAP1 DIV PUSH20 0xFFFFFFFFFFFFFFFFFFFFFFFFFFFFFFFFFFFFFFFF AND PUSH20 0xFFFFFFFFFFFFFFFFFFFFFFFFFFFFFFFFFFFFFFFF AND PUSH4 0x89BDFDC3 DUP5 PUSH1 0x40 MLOAD DUP3 PUSH4 0xFFFFFFFF AND PUSH1 0xE0 SHL DUP2 MSTORE PUSH1 0x4 ADD PUSH2 0x519 SWAP2 SWAP1 PUSH2 0x19B3 JUMP JUMPDEST PUSH1 0xA0 PUSH1 0x40 MLOAD DUP1 DUP4 SUB DUP2 DUP7 GAS STATICCALL ISZERO DUP1 ISZERO PUSH2 0x534 JUMPI RETURNDATASIZE PUSH0 DUP1 RETURNDATACOPY RETURNDATASIZE PUSH0 REVERT JUMPDEST POP POP POP POP PUSH1 0x40 MLOAD RETURNDATASIZE PUSH1 0x1F NOT PUSH1 0x1F DUP3 ADD AND DUP3 ADD DUP1 PUSH1 0x40 MSTORE POP DUP2 ADD SWAP1 PUSH2 0x558 SWAP2 SWAP1 PUSH2 0x1CD3 JUMP JUMPDEST PUSH0 ADD MLOAD PUSH20 0xFFFFFFFFFFFFFFFFFFFFFFFFFFFFFFFFFFFFFFFF AND EQ PUSH2 0x5A8 JUMPI PUSH1 0x40 MLOAD PUSH32 0x76EAC26E00000000000000000000000000000000000000000000000000000000 DUP2 MSTORE PUSH1 0x4 ADD PUSH1 0x40 MLOAD DUP1 SWAP2 SUB SWAP1 REVERT JUMPDEST PUSH0 PUSH1 0x4 CALLER TIMESTAMP PUSH1 0x40 MLOAD PUSH1 0x20 ADD PUSH2 0x5BE SWAP3 SWAP2 SWAP1 PUSH2 0x1D63 JUMP JUMPDEST PUSH1 0x40 MLOAD PUSH1 0x20 DUP2 DUP4 SUB SUB DUP2 MSTORE SWAP1 PUSH1 0x40 MSTORE DUP1 MLOAD SWAP1 PUSH1 0x20 ADD KECCAK256 PUSH0 SHR PUSH2 0x5E0 SWAP2 SWAP1 PUSH2 0x1DBB JUMP JUMPDEST SWAP1 POP PUSH0 DUP2 SUB PUSH2 0xBC3 JUMPI PUSH0 ISZERO ISZERO PUSH0 DUP1 SLOAD SWAP1 PUSH2 0x100 EXP SWAP1 DIV PUSH20 0xFFFFFFFFFFFFFFFFFFFFFFFFFFFFFFFFFFFFFFFF AND PUSH20 0xFFFFFFFFFFFFFFFFFFFFFFFFFFFFFFFFFFFFFFFF AND PUSH4 0x89BDFDC3 DUP5 PUSH1 0x40 MLOAD DUP3 PUSH4 0xFFFFFFFF AND PUSH1 0xE0 SHL DUP2 MSTORE PUSH1 0x4 ADD PUSH2 0x644 SWAP2 SWAP1 PUSH2 0x19B3 JUMP JUMPDEST PUSH1 0xA0 PUSH1 0x40 MLOAD DUP1 DUP4 SUB DUP2 DUP7 GAS STATICCALL ISZERO DUP1 ISZERO PUSH2 0x65F JUMPI RETURNDATASIZE PUSH0 DUP1 RETURNDATACOPY RETURNDATASIZE PUSH0 REVERT JUMPDEST POP POP POP POP PUSH1 0x40 MLOAD RETURNDATASIZE PUSH1 0x1F NOT PUSH1 0x1F DUP3 ADD AND DUP3 ADD DUP1 PUSH1 0x40 MSTORE POP DUP2 ADD SWAP1 PUSH2 0x683 SWAP2 SWAP1 PUSH2 0x1CD3 JUMP JUMPDEST PUSH1 0x20 ADD MLOAD ISZERO ISZERO SUB PUSH2 0x721 JUMPI PUSH0 DUP1 SLOAD SWAP1 PUSH2 0x100 EXP SWAP1 DIV PUSH20 0xFFFFFFFFFFFFFFFFFFFFFFFFFFFFFFFFFFFFFFFF AND PUSH20 0xFFFFFFFFFFFFFFFFFFFFFFFFFFFFFFFFFFFFFFFF AND PUSH4 0xC328848A DUP4 PUSH1 0x1 PUSH0 DUP1 PUSH0 PUSH1 0x40 MLOAD DUP7 PUSH4 0xFFFFFFFF AND PUSH1 0xE0 SHL DUP2 MSTORE PUSH1 0x4 ADD PUSH2 0x6EF SWAP6 SWAP5 SWAP4 SWAP3 SWAP2 SWAP1 PUSH2 0x1DEB JUMP JUMPDEST PUSH0 PUSH1 0x40 MLOAD DUP1 DUP4 SUB DUP2 PUSH0 DUP8 DUP1 EXTCODESIZE ISZERO DUP1 ISZERO PUSH2 0x706 JUMPI PUSH0 DUP1 REVERT JUMPDEST POP GAS CALL ISZERO DUP1 ISZERO PUSH2 0x718 JUMPI RETURNDATASIZE PUSH0 DUP1 RETURNDATACOPY RETURNDATASIZE PUSH0 REVERT JUMPDEST POP POP POP POP PUSH2 0xBBE JUMP JUMPDEST PUSH0 ISZERO ISZERO PUSH0 DUP1 SLOAD SWAP1 PUSH2 0x100 EXP SWAP1 DIV PUSH20 0xFFFFFFFFFFFFFFFFFFFFFFFFFFFFFFFFFFFFFFFF AND PUSH20 0xFFFFFFFFFFFFFFFFFFFFFFFFFFFFFFFFFFFFFFFF AND PUSH4 0x89BDFDC3 DUP5 PUSH1 0x40 MLOAD DUP3 PUSH4 0xFFFFFFFF AND PUSH1 0xE0 SHL DUP2 MSTORE PUSH1 0x4 ADD PUSH2 0x77C SWAP2 SWAP1 PUSH2 0x19B3 JUMP JUMPDEST PUSH1 0xA0 PUSH1 0x40 MLOAD DUP1 DUP4 SUB DUP2 DUP7 GAS STATICCALL ISZERO DUP1 ISZERO PUSH2 0x797 JUMPI RETURNDATASIZE PUSH0 DUP1 RETURNDATACOPY RETURNDATASIZE PUSH0 REVERT JUMPDEST POP POP POP POP PUSH1 0x40 MLOAD RETURNDATASIZE PUSH1 0x1F NOT PUSH1 0x1F DUP3 ADD AND DUP3 ADD DUP1 PUSH1 0x40 MSTORE POP DUP2 ADD SWAP1 PUSH2 0x7BB SWAP2 SWAP1 PUSH2 0x1CD3 JUMP JUMPDEST PUSH1 0x40 ADD MLOAD ISZERO ISZERO SUB PUSH2 0x859 JUMPI PUSH0 DUP1 SLOAD SWAP1 PUSH2 0x100 EXP SWAP1 DIV PUSH20 0xFFFFFFFFFFFFFFFFFFFFFFFFFFFFFFFFFFFFFFFF AND PUSH20 0xFFFFFFFFFFFFFFFFFFFFFFFFFFFFFFFFFFFFFFFF AND PUSH4 0xC328848A DUP4 PUSH1 0x1 DUP1 PUSH0 DUP1 PUSH1 0x40 MLOAD DUP7 PUSH4 0xFFFFFFFF AND PUSH1 0xE0 SHL DUP2 MSTORE PUSH1 0x4 ADD PUSH2 0x827 SWAP6 SWAP5 SWAP4 SWAP3 SWAP2 SWAP1 PUSH2 0x1DEB JUMP JUMPDEST PUSH0 PUSH1 0x40 MLOAD DUP1 DUP4 SUB DUP2 PUSH0 DUP8 DUP1 EXTCODESIZE ISZERO DUP1 ISZERO PUSH2 0x83E JUMPI PUSH0 DUP1 REVERT JUMPDEST POP GAS CALL ISZERO DUP1 ISZERO PUSH2 0x850 JUMPI RETURNDATASIZE PUSH0 DUP1 RETURNDATACOPY RETURNDATASIZE PUSH0 REVERT JUMPDEST POP POP POP POP PUSH2 0xBBD JUMP JUMPDEST PUSH0 ISZERO ISZERO PUSH0 DUP1 SLOAD SWAP1 PUSH2 0x100 EXP SWAP1 DIV PUSH20 0xFFFFFFFFFFFFFFFFFFFFFFFFFFFFFFFFFFFFFFFF AND PUSH20 0xFFFFFFFFFFFFFFFFFFFFFFFFFFFFFFFFFFFFFFFF AND PUSH4 0x89BDFDC3 DUP5 PUSH1 0x40 MLOAD DUP3 PUSH4 0xFFFFFFFF AND PUSH1 0xE0 SHL DUP2 MSTORE PUSH1 0x4 ADD PUSH2 0x8B4 SWAP2 SWAP1 PUSH2 0x19B3 JUMP JUMPDEST PUSH1 0xA0 PUSH1 0x40 MLOAD DUP1 DUP4 SUB DUP2 DUP7 GAS STATICCALL ISZERO DUP1 ISZERO PUSH2 0x8CF JUMPI RETURNDATASIZE PUSH0 DUP1 RETURNDATACOPY RETURNDATASIZE PUSH0 REVERT JUMPDEST POP POP POP POP PUSH1 0x40 MLOAD RETURNDATASIZE PUSH1 0x1F NOT PUSH1 0x1F DUP3 ADD AND DUP3 ADD DUP1 PUSH1 0x40 MSTORE POP DUP2 ADD SWAP1 PUSH2 0x8F3 SWAP2 SWAP1 PUSH2 0x1CD3 JUMP JUMPDEST PUSH1 0x60 ADD MLOAD ISZERO ISZERO SUB PUSH2 0x992 JUMPI PUSH0 DUP1 SLOAD SWAP1 PUSH2 0x100 EXP SWAP1 DIV PUSH20 0xFFFFFFFFFFFFFFFFFFFFFFFFFFFFFFFFFFFFFFFF AND PUSH20 0xFFFFFFFFFFFFFFFFFFFFFFFFFFFFFFFFFFFFFFFF AND PUSH4 0xC328848A DUP4 PUSH1 0x1 DUP1 PUSH1 0x1 PUSH0 PUSH1 0x40 MLOAD DUP7 PUSH4 0xFFFFFFFF AND PUSH1 0xE0 SHL DUP2 MSTORE PUSH1 0x4 ADD PUSH2 0x960 SWAP6 SWAP5 SWAP4 SWAP3 SWAP2 SWAP1 PUSH2 0x1DEB JUMP JUMPDEST PUSH0 PUSH1 0x40 MLOAD DUP1 DUP4 SUB DUP2 PUSH0 DUP8 DUP1 EXTCODESIZE ISZERO DUP1 ISZERO PUSH2 0x977 JUMPI PUSH0 DUP1 REVERT JUMPDEST POP GAS CALL ISZERO DUP1 ISZERO PUSH2 0x989 JUMPI RETURNDATASIZE PUSH0 DUP1 RETURNDATACOPY RETURNDATASIZE PUSH0 REVERT JUMPDEST POP POP POP POP PUSH2 0xBBC JUMP JUMPDEST PUSH0 ISZERO ISZERO PUSH0 DUP1 SLOAD SWAP1 PUSH2 0x100 EXP SWAP1 DIV PUSH20 0xFFFFFFFFFFFFFFFFFFFFFFFFFFFFFFFFFFFFFFFF AND PUSH20 0xFFFFFFFFFFFFFFFFFFFFFFFFFFFFFFFFFFFFFFFF AND PUSH4 0x89BDFDC3 DUP5 PUSH1 0x40 MLOAD DUP3 PUSH4 0xFFFFFFFF AND PUSH1 0xE0 SHL DUP2 MSTORE PUSH1 0x4 ADD PUSH2 0x9ED SWAP2 SWAP1 PUSH2 0x19B3 JUMP JUMPDEST PUSH1 0xA0 PUSH1 0x40 MLOAD DUP1 DUP4 SUB DUP2 DUP7 GAS STATICCALL ISZERO DUP1 ISZERO PUSH2 0xA08 JUMPI RETURNDATASIZE PUSH0 DUP1 RETURNDATACOPY RETURNDATASIZE PUSH0 REVERT JUMPDEST POP POP POP POP PUSH1 0x40 MLOAD RETURNDATASIZE PUSH1 0x1F NOT PUSH1 0x1F DUP3 ADD AND DUP3 ADD DUP1 PUSH1 0x40 MSTORE POP DUP2 ADD SWAP1 PUSH2 0xA2C SWAP2 SWAP1 PUSH2 0x1CD3 JUMP JUMPDEST PUSH1 0x80 ADD MLOAD ISZERO ISZERO SUB PUSH2 0xBBB JUMPI PUSH0 DUP1 SLOAD SWAP1 PUSH2 0x100 EXP SWAP1 DIV PUSH20 0xFFFFFFFFFFFFFFFFFFFFFFFFFFFFFFFFFFFFFFFF AND PUSH20 0xFFFFFFFFFFFFFFFFFFFFFFFFFFFFFFFFFFFFFFFF AND PUSH4 0xC328848A DUP4 PUSH1 0x1 DUP1 PUSH1 0x1 DUP1 PUSH1 0x40 MLOAD DUP7 PUSH4 0xFFFFFFFF AND PUSH1 0xE0 SHL DUP2 MSTORE PUSH1 0x4 ADD PUSH2 0xA99 SWAP6 SWAP5 SWAP4 SWAP3 SWAP2 SWAP1 PUSH2 0x1DEB JUMP JUMPDEST PUSH0 PUSH1 0x40 MLOAD DUP1 DUP4 SUB DUP2 PUSH0 DUP8 DUP1 EXTCODESIZE ISZERO DUP1 ISZERO PUSH2 0xAB0 JUMPI PUSH0 DUP1 REVERT JUMPDEST POP GAS CALL ISZERO DUP1 ISZERO PUSH2 0xAC2 JUMPI RETURNDATASIZE PUSH0 DUP1 RETURNDATACOPY RETURNDATASIZE PUSH0 REVERT JUMPDEST POP POP POP POP PUSH1 0x1 PUSH1 0x2 PUSH0 PUSH2 0x100 EXP DUP2 SLOAD DUP2 PUSH1 0xFF MUL NOT AND SWAP1 DUP4 ISZERO ISZERO MUL OR SWAP1 SSTORE POP PUSH0 DUP1 SLOAD SWAP1 PUSH2 0x100 EXP SWAP1 DIV PUSH20 0xFFFFFFFFFFFFFFFFFFFFFFFFFFFFFFFFFFFFFFFF AND PUSH20 0xFFFFFFFFFFFFFFFFFFFFFFFFFFFFFFFFFFFFFFFF AND PUSH4 0x89BDFDC3 DUP4 PUSH1 0x40 MLOAD DUP3 PUSH4 0xFFFFFFFF AND PUSH1 0xE0 SHL DUP2 MSTORE PUSH1 0x4 ADD PUSH2 0xB38 SWAP2 SWAP1 PUSH2 0x19B3 JUMP JUMPDEST PUSH1 0xA0 PUSH1 0x40 MLOAD DUP1 DUP4 SUB DUP2 DUP7 GAS STATICCALL ISZERO DUP1 ISZERO PUSH2 0xB53 JUMPI RETURNDATASIZE PUSH0 DUP1 RETURNDATACOPY RETURNDATASIZE PUSH0 REVERT JUMPDEST POP POP POP POP PUSH1 0x40 MLOAD RETURNDATASIZE PUSH1 0x1F NOT PUSH1 0x1F DUP3 ADD AND DUP3 ADD DUP1 PUSH1 0x40 MSTORE POP DUP2 ADD SWAP1 PUSH2 0xB77 SWAP2 SWAP1 PUSH2 0x1CD3 JUMP JUMPDEST PUSH0 ADD MLOAD PUSH1 0x2 PUSH1 0x1 PUSH2 0x100 EXP DUP2 SLOAD DUP2 PUSH20 0xFFFFFFFFFFFFFFFFFFFFFFFFFFFFFFFFFFFFFFFF MUL NOT AND SWAP1 DUP4 PUSH20 0xFFFFFFFFFFFFFFFFFFFFFFFFFFFFFFFFFFFFFFFF AND MUL OR SWAP1 SSTORE POP JUMPDEST JUMPDEST JUMPDEST JUMPDEST PUSH2 0x1373 JUMP JUMPDEST PUSH1 0x1 DUP2 SUB PUSH2 0x11A5 JUMPI PUSH0 ISZERO ISZERO PUSH0 DUP1 SLOAD SWAP1 PUSH2 0x100 EXP SWAP1 DIV PUSH20 0xFFFFFFFFFFFFFFFFFFFFFFFFFFFFFFFFFFFFFFFF AND PUSH20 0xFFFFFFFFFFFFFFFFFFFFFFFFFFFFFFFFFFFFFFFF AND PUSH4 0x89BDFDC3 DUP6 PUSH1 0x40 MLOAD DUP3 PUSH4 0xFFFFFFFF AND PUSH1 0xE0 SHL DUP2 MSTORE PUSH1 0x4 ADD PUSH2 0xC26 SWAP2 SWAP1 PUSH2 0x19B3 JUMP JUMPDEST PUSH1 0xA0 PUSH1 0x40 MLOAD DUP1 DUP4 SUB DUP2 DUP7 GAS STATICCALL ISZERO DUP1 ISZERO PUSH2 0xC41 JUMPI RETURNDATASIZE PUSH0 DUP1 RETURNDATACOPY RETURNDATASIZE PUSH0 REVERT JUMPDEST POP POP POP POP PUSH1 0x40 MLOAD RETURNDATASIZE PUSH1 0x1F NOT PUSH1 0x1F DUP3 ADD AND DUP3 ADD DUP1 PUSH1 0x40 MSTORE POP DUP2 ADD SWAP1 PUSH2 0xC65 SWAP2 SWAP1 PUSH2 0x1CD3 JUMP JUMPDEST PUSH1 0x20 ADD MLOAD ISZERO ISZERO SUB PUSH2 0xD03 JUMPI PUSH0 DUP1 SLOAD SWAP1 PUSH2 0x100 EXP SWAP1 DIV PUSH20 0xFFFFFFFFFFFFFFFFFFFFFFFFFFFFFFFFFFFFFFFF AND PUSH20 0xFFFFFFFFFFFFFFFFFFFFFFFFFFFFFFFFFFFFFFFF AND PUSH4 0xC328848A DUP5 PUSH1 0x1 PUSH0 DUP1 PUSH0 PUSH1 0x40 MLOAD DUP7 PUSH4 0xFFFFFFFF AND PUSH1 0xE0 SHL DUP2 MSTORE PUSH1 0x4 ADD PUSH2 0xCD1 SWAP6 SWAP5 SWAP4 SWAP3 SWAP2 SWAP1 PUSH2 0x1DEB JUMP JUMPDEST PUSH0 PUSH1 0x40 MLOAD DUP1 DUP4 SUB DUP2 PUSH0 DUP8 DUP1 EXTCODESIZE ISZERO DUP1 ISZERO PUSH2 0xCE8 JUMPI PUSH0 DUP1 REVERT JUMPDEST POP GAS CALL ISZERO DUP1 ISZERO PUSH2 0xCFA JUMPI RETURNDATASIZE PUSH0 DUP1 RETURNDATACOPY RETURNDATASIZE PUSH0 REVERT JUMPDEST POP POP POP POP PUSH2 0x11A0 JUMP JUMPDEST PUSH0 ISZERO ISZERO PUSH0 DUP1 SLOAD SWAP1 PUSH2 0x100 EXP SWAP1 DIV PUSH20 0xFFFFFFFFFFFFFFFFFFFFFFFFFFFFFFFFFFFFFFFF AND PUSH20 0xFFFFFFFFFFFFFFFFFFFFFFFFFFFFFFFFFFFFFFFF AND PUSH4 0x89BDFDC3 DUP6 PUSH1 0x40 MLOAD DUP3 PUSH4 0xFFFFFFFF AND PUSH1 0xE0 SHL DUP2 MSTORE PUSH1 0x4 ADD PUSH2 0xD5E SWAP2 SWAP1 PUSH2 0x19B3 JUMP JUMPDEST PUSH1 0xA0 PUSH1 0x40 MLOAD DUP1 DUP4 SUB DUP2 DUP7 GAS STATICCALL ISZERO DUP1 ISZERO PUSH2 0xD79 JUMPI RETURNDATASIZE PUSH0 DUP1 RETURNDATACOPY RETURNDATASIZE PUSH0 REVERT JUMPDEST POP POP POP POP PUSH1 0x40 MLOAD RETURNDATASIZE PUSH1 0x1F NOT PUSH1 0x1F DUP3 ADD AND DUP3 ADD DUP1 PUSH1 0x40 MSTORE POP DUP2 ADD SWAP1 PUSH2 0xD9D SWAP2 SWAP1 PUSH2 0x1CD3 JUMP JUMPDEST PUSH1 0x40 ADD MLOAD ISZERO ISZERO SUB PUSH2 0xE3B JUMPI PUSH0 DUP1 SLOAD SWAP1 PUSH2 0x100 EXP SWAP1 DIV PUSH20 0xFFFFFFFFFFFFFFFFFFFFFFFFFFFFFFFFFFFFFFFF AND PUSH20 0xFFFFFFFFFFFFFFFFFFFFFFFFFFFFFFFFFFFFFFFF AND PUSH4 0xC328848A DUP5 PUSH1 0x1 DUP1 PUSH0 DUP1 PUSH1 0x40 MLOAD DUP7 PUSH4 0xFFFFFFFF AND PUSH1 0xE0 SHL DUP2 MSTORE PUSH1 0x4 ADD PUSH2 0xE09 SWAP6 SWAP5 SWAP4 SWAP3 SWAP2 SWAP1 PUSH2 0x1DEB JUMP JUMPDEST PUSH0 PUSH1 0x40 MLOAD DUP1 DUP4 SUB DUP2 PUSH0 DUP8 DUP1 EXTCODESIZE ISZERO DUP1 ISZERO PUSH2 0xE20 JUMPI PUSH0 DUP1 REVERT JUMPDEST POP GAS CALL ISZERO DUP1 ISZERO PUSH2 0xE32 JUMPI RETURNDATASIZE PUSH0 DUP1 RETURNDATACOPY RETURNDATASIZE PUSH0 REVERT JUMPDEST POP POP POP POP PUSH2 0x119F JUMP JUMPDEST PUSH0 ISZERO ISZERO PUSH0 DUP1 SLOAD SWAP1 PUSH2 0x100 EXP SWAP1 DIV PUSH20 0xFFFFFFFFFFFFFFFFFFFFFFFFFFFFFFFFFFFFFFFF AND PUSH20 0xFFFFFFFFFFFFFFFFFFFFFFFFFFFFFFFFFFFFFFFF AND PUSH4 0x89BDFDC3 DUP6 PUSH1 0x40 MLOAD DUP3 PUSH4 0xFFFFFFFF AND PUSH1 0xE0 SHL DUP2 MSTORE PUSH1 0x4 ADD PUSH2 0xE96 SWAP2 SWAP1 PUSH2 0x19B3 JUMP JUMPDEST PUSH1 0xA0 PUSH1 0x40 MLOAD DUP1 DUP4 SUB DUP2 DUP7 GAS STATICCALL ISZERO DUP1 ISZERO PUSH2 0xEB1 JUMPI RETURNDATASIZE PUSH0 DUP1 RETURNDATACOPY RETURNDATASIZE PUSH0 REVERT JUMPDEST POP POP POP POP PUSH1 0x40 MLOAD RETURNDATASIZE PUSH1 0x1F NOT PUSH1 0x1F DUP3 ADD AND DUP3 ADD DUP1 PUSH1 0x40 MSTORE POP DUP2 ADD SWAP1 PUSH2 0xED5 SWAP2 SWAP1 PUSH2 0x1CD3 JUMP JUMPDEST PUSH1 0x60 ADD MLOAD ISZERO ISZERO SUB PUSH2 0xF74 JUMPI PUSH0 DUP1 SLOAD SWAP1 PUSH2 0x100 EXP SWAP1 DIV PUSH20 0xFFFFFFFFFFFFFFFFFFFFFFFFFFFFFFFFFFFFFFFF AND PUSH20 0xFFFFFFFFFFFFFFFFFFFFFFFFFFFFFFFFFFFFFFFF AND PUSH4 0xC328848A DUP5 PUSH1 0x1 DUP1 PUSH1 0x1 PUSH0 PUSH1 0x40 MLOAD DUP7 PUSH4 0xFFFFFFFF AND PUSH1 0xE0 SHL DUP2 MSTORE PUSH1 0x4 ADD PUSH2 0xF42 SWAP6 SWAP5 SWAP4 SWAP3 SWAP2 SWAP1 PUSH2 0x1DEB JUMP JUMPDEST PUSH0 PUSH1 0x40 MLOAD DUP1 DUP4 SUB DUP2 PUSH0 DUP8 DUP1 EXTCODESIZE ISZERO DUP1 ISZERO PUSH2 0xF59 JUMPI PUSH0 DUP1 REVERT JUMPDEST POP GAS CALL ISZERO DUP1 ISZERO PUSH2 0xF6B JUMPI RETURNDATASIZE PUSH0 DUP1 RETURNDATACOPY RETURNDATASIZE PUSH0 REVERT JUMPDEST POP POP POP POP PUSH2 0x119E JUMP JUMPDEST PUSH0 ISZERO ISZERO PUSH0 DUP1 SLOAD SWAP1 PUSH2 0x100 EXP SWAP1 DIV PUSH20 0xFFFFFFFFFFFFFFFFFFFFFFFFFFFFFFFFFFFFFFFF AND PUSH20 0xFFFFFFFFFFFFFFFFFFFFFFFFFFFFFFFFFFFFFFFF AND PUSH4 0x89BDFDC3 DUP6 PUSH1 0x40 MLOAD DUP3 PUSH4 0xFFFFFFFF AND PUSH1 0xE0 SHL DUP2 MSTORE PUSH1 0x4 ADD PUSH2 0xFCF SWAP2 SWAP1 PUSH2 0x19B3 JUMP JUMPDEST PUSH1 0xA0 PUSH1 0x40 MLOAD DUP1 DUP4 SUB DUP2 DUP7 GAS STATICCALL ISZERO DUP1 ISZERO PUSH2 0xFEA JUMPI RETURNDATASIZE PUSH0 DUP1 RETURNDATACOPY RETURNDATASIZE PUSH0 REVERT JUMPDEST POP POP POP POP PUSH1 0x40 MLOAD RETURNDATASIZE PUSH1 0x1F NOT PUSH1 0x1F DUP3 ADD AND DUP3 ADD DUP1 PUSH1 0x40 MSTORE POP DUP2 ADD SWAP1 PUSH2 0x100E SWAP2 SWAP1 PUSH2 0x1CD3 JUMP JUMPDEST PUSH1 0x80 ADD MLOAD ISZERO ISZERO SUB PUSH2 0x119D JUMPI PUSH0 DUP1 SLOAD SWAP1 PUSH2 0x100 EXP SWAP1 DIV PUSH20 0xFFFFFFFFFFFFFFFFFFFFFFFFFFFFFFFFFFFFFFFF AND PUSH20 0xFFFFFFFFFFFFFFFFFFFFFFFFFFFFFFFFFFFFFFFF AND PUSH4 0xC328848A DUP5 PUSH1 0x1 DUP1 PUSH1 0x1 DUP1 PUSH1 0x40 MLOAD DUP7 PUSH4 0xFFFFFFFF AND PUSH1 0xE0 SHL DUP2 MSTORE PUSH1 0x4 ADD PUSH2 0x107B SWAP6 SWAP5 SWAP4 SWAP3 SWAP2 SWAP1 PUSH2 0x1DEB JUMP JUMPDEST PUSH0 PUSH1 0x40 MLOAD DUP1 DUP4 SUB DUP2 PUSH0 DUP8 DUP1 EXTCODESIZE ISZERO DUP1 ISZERO PUSH2 0x1092 JUMPI PUSH0 DUP1 REVERT JUMPDEST POP GAS CALL ISZERO DUP1 ISZERO PUSH2 0x10A4 JUMPI RETURNDATASIZE PUSH0 DUP1 RETURNDATACOPY RETURNDATASIZE PUSH0 REVERT JUMPDEST POP POP POP POP PUSH1 0x1 PUSH1 0x2 PUSH0 PUSH2 0x100 EXP DUP2 SLOAD DUP2 PUSH1 0xFF MUL NOT AND SWAP1 DUP4 ISZERO ISZERO MUL OR SWAP1 SSTORE POP PUSH0 DUP1 SLOAD SWAP1 PUSH2 0x100 EXP SWAP1 DIV PUSH20 0xFFFFFFFFFFFFFFFFFFFFFFFFFFFFFFFFFFFFFFFF AND PUSH20 0xFFFFFFFFFFFFFFFFFFFFFFFFFFFFFFFFFFFFFFFF AND PUSH4 0x89BDFDC3 DUP5 PUSH1 0x40 MLOAD DUP3 PUSH4 0xFFFFFFFF AND PUSH1 0xE0 SHL DUP2 MSTORE PUSH1 0x4 ADD PUSH2 0x111A SWAP2 SWAP1 PUSH2 0x19B3 JUMP JUMPDEST PUSH1 0xA0 PUSH1 0x40 MLOAD DUP1 DUP4 SUB DUP2 DUP7 GAS STATICCALL ISZERO DUP1 ISZERO PUSH2 0x1135 JUMPI RETURNDATASIZE PUSH0 DUP1 RETURNDATACOPY RETURNDATASIZE PUSH0 REVERT JUMPDEST POP POP POP POP PUSH1 0x40 MLOAD RETURNDATASIZE PUSH1 0x1F NOT PUSH1 0x1F DUP3 ADD AND DUP3 ADD DUP1 PUSH1 0x40 MSTORE POP DUP2 ADD SWAP1 PUSH2 0x1159 SWAP2 SWAP1 PUSH2 0x1CD3 JUMP JUMPDEST PUSH0 ADD MLOAD PUSH1 0x2 PUSH1 0x1 PUSH2 0x100 EXP DUP2 SLOAD DUP2 PUSH20 0xFFFFFFFFFFFFFFFFFFFFFFFFFFFFFFFFFFFFFFFF MUL NOT AND SWAP1 DUP4 PUSH20 0xFFFFFFFFFFFFFFFFFFFFFFFFFFFFFFFFFFFFFFFF AND MUL OR SWAP1 SSTORE POP JUMPDEST JUMPDEST JUMPDEST JUMPDEST PUSH2 0x1372 JUMP JUMPDEST PUSH1 0x2 DUP2 SUB PUSH2 0x1291 JUMPI PUSH0 DUP1 SLOAD SWAP1 PUSH2 0x100 EXP SWAP1 DIV PUSH20 0xFFFFFFFFFFFFFFFFFFFFFFFFFFFFFFFFFFFFFFFF AND PUSH20 0xFFFFFFFFFFFFFFFFFFFFFFFFFFFFFFFFFFFFFFFF AND PUSH4 0x905D0709 DUP5 PUSH1 0x40 MLOAD DUP3 PUSH4 0xFFFFFFFF AND PUSH1 0xE0 SHL DUP2 MSTORE PUSH1 0x4 ADD PUSH2 0x1205 SWAP2 SWAP1 PUSH2 0x19B3 JUMP JUMPDEST PUSH0 PUSH1 0x40 MLOAD DUP1 DUP4 SUB DUP2 PUSH0 DUP8 DUP1 EXTCODESIZE ISZERO DUP1 ISZERO PUSH2 0x121C JUMPI PUSH0 DUP1 REVERT JUMPDEST POP GAS CALL ISZERO DUP1 ISZERO PUSH2 0x122E JUMPI RETURNDATASIZE PUSH0 DUP1 RETURNDATACOPY RETURNDATASIZE PUSH0 REVERT JUMPDEST POP POP POP POP PUSH0 PUSH1 0x2 PUSH0 PUSH2 0x100 EXP DUP2 SLOAD DUP2 PUSH1 0xFF MUL NOT AND SWAP1 DUP4 ISZERO ISZERO MUL OR SWAP1 SSTORE POP PUSH0 PUSH1 0x2 PUSH1 0x1 PUSH2 0x100 EXP DUP2 SLOAD DUP2 PUSH20 0xFFFFFFFFFFFFFFFFFFFFFFFFFFFFFFFFFFFFFFFF MUL NOT AND SWAP1 DUP4 PUSH20 0xFFFFFFFFFFFFFFFFFFFFFFFFFFFFFFFFFFFFFFFF AND MUL OR SWAP1 SSTORE POP PUSH2 0x1371 JUMP JUMPDEST PUSH0 DUP1 SLOAD SWAP1 PUSH2 0x100 EXP SWAP1 DIV PUSH20 0xFFFFFFFFFFFFFFFFFFFFFFFFFFFFFFFFFFFFFFFF AND PUSH20 0xFFFFFFFFFFFFFFFFFFFFFFFFFFFFFFFFFFFFFFFF AND PUSH4 0x905D0709 DUP4 PUSH1 0x40 MLOAD DUP3 PUSH4 0xFFFFFFFF AND PUSH1 0xE0 SHL DUP2 MSTORE PUSH1 0x4 ADD PUSH2 0x12E9 SWAP2 SWAP1 PUSH2 0x19B3 JUMP JUMPDEST PUSH0 PUSH1 0x40 MLOAD DUP1 DUP4 SUB DUP2 PUSH0 DUP8 DUP1 EXTCODESIZE ISZERO DUP1 ISZERO PUSH2 0x1300 JUMPI PUSH0 DUP1 REVERT JUMPDEST POP GAS CALL ISZERO DUP1 ISZERO PUSH2 0x1312 JUMPI RETURNDATASIZE PUSH0 DUP1 RETURNDATACOPY RETURNDATASIZE PUSH0 REVERT JUMPDEST POP POP POP POP PUSH0 PUSH1 0x2 PUSH0 PUSH2 0x100 EXP DUP2 SLOAD DUP2 PUSH1 0xFF MUL NOT AND SWAP1 DUP4 ISZERO ISZERO MUL OR SWAP1 SSTORE POP PUSH0 PUSH1 0x2 PUSH1 0x1 PUSH2 0x100 EXP DUP2 SLOAD DUP2 PUSH20 0xFFFFFFFFFFFFFFFFFFFFFFFFFFFFFFFFFFFFFFFF MUL NOT AND SWAP1 DUP4 PUSH20 0xFFFFFFFFFFFFFFFFFFFFFFFFFFFFFFFFFFFFFFFF AND MUL OR SWAP1 SSTORE POP JUMPDEST JUMPDEST JUMPDEST POP POP POP JUMP JUMPDEST PUSH1 0x2 PUSH1 0x1 SWAP1 SLOAD SWAP1 PUSH2 0x100 EXP SWAP1 DIV PUSH20 0xFFFFFFFFFFFFFFFFFFFFFFFFFFFFFFFFFFFFFFFF AND DUP2 JUMP JUMPDEST PUSH0 DUP1 PUSH0 SWAP1 SLOAD SWAP1 PUSH2 0x100 EXP SWAP1 DIV PUSH20 0xFFFFFFFFFFFFFFFFFFFFFFFFFFFFFFFFFFFFFFFF AND SWAP1 POP SWAP1 JUMP JUMPDEST PUSH1 0x4 SLOAD DUP2 JUMP JUMPDEST PUSH1 0x2 PUSH1 0x1 SWAP1 SLOAD SWAP1 PUSH2 0x100 EXP SWAP1 DIV PUSH20 0xFFFFFFFFFFFFFFFFFFFFFFFFFFFFFFFFFFFFFFFF AND PUSH20 0xFFFFFFFFFFFFFFFFFFFFFFFFFFFFFFFFFFFFFFFF AND CALLER PUSH20 0xFFFFFFFFFFFFFFFFFFFFFFFFFFFFFFFFFFFFFFFF AND EQ PUSH2 0x145B JUMPI PUSH1 0x40 MLOAD PUSH32 0x8C379A000000000000000000000000000000000000000000000000000000000 DUP2 MSTORE PUSH1 0x4 ADD PUSH2 0x1452 SWAP1 PUSH2 0x1E86 JUMP JUMPDEST PUSH1 0x40 MLOAD DUP1 SWAP2 SUB SWAP1 REVERT JUMPDEST PUSH1 0x1 SLOAD PUSH1 0x40 MLOAD PUSH1 0x20 ADD PUSH2 0x146E SWAP2 SWAP1 PUSH2 0x1EC4 JUMP JUMPDEST PUSH1 0x40 MLOAD PUSH1 0x20 DUP2 DUP4 SUB SUB DUP2 MSTORE SWAP1 PUSH1 0x40 MSTORE DUP1 MLOAD SWAP1 PUSH1 0x20 ADD KECCAK256 DUP2 PUSH1 0x40 MLOAD PUSH1 0x20 ADD PUSH2 0x1495 SWAP2 SWAP1 PUSH2 0x1EC4 JUMP JUMPDEST PUSH1 0x40 MLOAD PUSH1 0x20 DUP2 DUP4 SUB SUB DUP2 MSTORE SWAP1 PUSH1 0x40 MSTORE DUP1 MLOAD SWAP1 PUSH1 0x20 ADD KECCAK256 SUB PUSH2 0x1558 JUMPI PUSH0 DUP1 SLOAD SWAP1 PUSH2 0x100 EXP SWAP1 DIV PUSH20 0xFFFFFFFFFFFFFFFFFFFFFFFFFFFFFFFFFFFFFFFF AND PUSH20 0xFFFFFFFFFFFFFFFFFFFFFFFFFFFFFFFFFFFFFFFF AND PUSH4 0xA168837E PUSH1 0x2 PUSH1 0x1 SWAP1 SLOAD SWAP1 PUSH2 0x100 EXP SWAP1 DIV PUSH20 0xFFFFFFFFFFFFFFFFFFFFFFFFFFFFFFFFFFFFFFFF AND PUSH1 0x40 MLOAD DUP3 PUSH4 0xFFFFFFFF AND PUSH1 0xE0 SHL DUP2 MSTORE PUSH1 0x4 ADD PUSH2 0x152A SWAP2 SWAP1 PUSH2 0x198B JUMP JUMPDEST PUSH0 PUSH1 0x40 MLOAD DUP1 DUP4 SUB DUP2 PUSH0 DUP8 DUP1 EXTCODESIZE ISZERO DUP1 ISZERO PUSH2 0x1541 JUMPI PUSH0 DUP1 REVERT JUMPDEST POP GAS CALL ISZERO DUP1 ISZERO PUSH2 0x1553 JUMPI RETURNDATASIZE PUSH0 DUP1 RETURNDATACOPY RETURNDATASIZE PUSH0 REVERT JUMPDEST POP POP POP POP JUMPDEST POP JUMP JUMPDEST PUSH1 0x3 PUSH0 SWAP1 SLOAD SWAP1 PUSH2 0x100 EXP SWAP1 DIV PUSH20 0xFFFFFFFFFFFFFFFFFFFFFFFFFFFFFFFFFFFFFFFF AND DUP2 JUMP JUMPDEST PUSH1 0x5 DUP2 DUP2 SLOAD DUP2 LT PUSH2 0x158F JUMPI PUSH0 DUP1 REVERT JUMPDEST SWAP1 PUSH0 MSTORE PUSH1 0x20 PUSH0 KECCAK256 ADD PUSH0 SWAP2 POP SLOAD SWAP1 PUSH2 0x100 EXP SWAP1 DIV PUSH20 0xFFFFFFFFFFFFFFFFFFFFFFFFFFFFFFFFFFFFFFFF AND DUP2 JUMP JUMPDEST PUSH0 DUP1 SLOAD SWAP1 PUSH2 0x100 EXP SWAP1 DIV PUSH20 0xFFFFFFFFFFFFFFFFFFFFFFFFFFFFFFFFFFFFFFFF AND DUP2 JUMP JUMPDEST PUSH8 0x4563918244F40000 CALLVALUE EQ PUSH2 0x161F JUMPI PUSH1 0x40 MLOAD PUSH32 0xE3AD4DB700000000000000000000000000000000000000000000000000000000 DUP2 MSTORE PUSH1 0x4 ADD PUSH1 0x40 MLOAD DUP1 SWAP2 SUB SWAP1 REVERT JUMPDEST PUSH1 0x1 ISZERO ISZERO PUSH1 0x6 PUSH0 CALLER PUSH20 0xFFFFFFFFFFFFFFFFFFFFFFFFFFFFFFFFFFFFFFFF AND PUSH20 0xFFFFFFFFFFFFFFFFFFFFFFFFFFFFFFFFFFFFFFFF AND DUP2 MSTORE PUSH1 0x20 ADD SWAP1 DUP2 MSTORE PUSH1 0x20 ADD PUSH0 KECCAK256 PUSH0 SWAP1 SLOAD SWAP1 PUSH2 0x100 EXP SWAP1 DIV PUSH1 0xFF AND ISZERO ISZERO SUB PUSH2 0x16A6 JUMPI PUSH1 0x40 MLOAD PUSH32 0x42EB30F500000000000000000000000000000000000000000000000000000000 DUP2 MSTORE PUSH1 0x4 ADD PUSH1 0x40 MLOAD DUP1 SWAP2 SUB SWAP1 REVERT JUMPDEST PUSH1 0x1 PUSH1 0x6 PUSH0 CALLER PUSH20 0xFFFFFFFFFFFFFFFFFFFFFFFFFFFFFFFFFFFFFFFF AND PUSH20 0xFFFFFFFFFFFFFFFFFFFFFFFFFFFFFFFFFFFFFFFF AND DUP2 MSTORE PUSH1 0x20 ADD SWAP1 DUP2 MSTORE PUSH1 0x20 ADD PUSH0 KECCAK256 PUSH0 PUSH2 0x100 EXP DUP2 SLOAD DUP2 PUSH1 0xFF MUL NOT AND SWAP1 DUP4 ISZERO ISZERO MUL OR SWAP1 SSTORE POP PUSH1 0x5 CALLER SWAP1 DUP1 PUSH1 0x1 DUP2 SLOAD ADD DUP1 DUP3 SSTORE DUP1 SWAP2 POP POP PUSH1 0x1 SWAP1 SUB SWAP1 PUSH0 MSTORE PUSH1 0x20 PUSH0 KECCAK256 ADD PUSH0 SWAP1 SWAP2 SWAP1 SWAP2 SWAP1 SWAP2 PUSH2 0x100 EXP DUP2 SLOAD DUP2 PUSH20 0xFFFFFFFFFFFFFFFFFFFFFFFFFFFFFFFFFFFFFFFF MUL NOT AND SWAP1 DUP4 PUSH20 0xFFFFFFFFFFFFFFFFFFFFFFFFFFFFFFFFFFFFFFFF AND MUL OR SWAP1 SSTORE POP PUSH0 DUP1 SLOAD SWAP1 PUSH2 0x100 EXP SWAP1 DIV PUSH20 0xFFFFFFFFFFFFFFFFFFFFFFFFFFFFFFFFFFFFFFFF AND PUSH20 0xFFFFFFFFFFFFFFFFFFFFFFFFFFFFFFFFFFFFFFFF AND PUSH4 0x6327B1A CALLER PUSH1 0x40 MLOAD DUP3 PUSH4 0xFFFFFFFF AND PUSH1 0xE0 SHL DUP2 MSTORE PUSH1 0x4 ADD PUSH2 0x17B3 SWAP2 SWAP1 PUSH2 0x198B JUMP JUMPDEST PUSH0 PUSH1 0x40 MLOAD DUP1 DUP4 SUB DUP2 PUSH0 DUP8 DUP1 EXTCODESIZE ISZERO DUP1 ISZERO PUSH2 0x17CA JUMPI PUSH0 DUP1 REVERT JUMPDEST POP GAS CALL ISZERO DUP1 ISZERO PUSH2 0x17DC JUMPI RETURNDATASIZE PUSH0 DUP1 RETURNDATACOPY RETURNDATASIZE PUSH0 REVERT JUMPDEST POP POP POP POP JUMP JUMPDEST PUSH1 0x2 PUSH0 SWAP1 SLOAD SWAP1 PUSH2 0x100 EXP SWAP1 DIV PUSH1 0xFF AND DUP2 JUMP JUMPDEST PUSH0 PUSH1 0x6 PUSH0 DUP4 PUSH20 0xFFFFFFFFFFFFFFFFFFFFFFFFFFFFFFFFFFFFFFFF AND PUSH20 0xFFFFFFFFFFFFFFFFFFFFFFFFFFFFFFFFFFFFFFFF AND DUP2 MSTORE PUSH1 0x20 ADD SWAP1 DUP2 MSTORE PUSH1 0x20 ADD PUSH0 KECCAK256 PUSH0 SWAP1 SLOAD SWAP1 PUSH2 0x100 EXP SWAP1 DIV PUSH1 0xFF AND SWAP1 POP SWAP2 SWAP1 POP JUMP JUMPDEST PUSH0 PUSH1 0x40 MLOAD SWAP1 POP SWAP1 JUMP JUMPDEST PUSH0 DUP1 REVERT JUMPDEST PUSH0 PUSH20 0xFFFFFFFFFFFFFFFFFFFFFFFFFFFFFFFFFFFFFFFF DUP3 AND SWAP1 POP SWAP2 SWAP1 POP JUMP JUMPDEST PUSH0 PUSH2 0x187C DUP3 PUSH2 0x1853 JUMP JUMPDEST SWAP1 POP SWAP2 SWAP1 POP JUMP JUMPDEST PUSH2 0x188C DUP2 PUSH2 0x1872 JUMP JUMPDEST DUP2 EQ PUSH2 0x1896 JUMPI PUSH0 DUP1 REVERT JUMPDEST POP JUMP JUMPDEST PUSH0 DUP2 CALLDATALOAD SWAP1 POP PUSH2 0x18A7 DUP2 PUSH2 0x1883 JUMP JUMPDEST SWAP3 SWAP2 POP POP JUMP JUMPDEST PUSH0 PUSH1 0x20 DUP3 DUP5 SUB SLT ISZERO PUSH2 0x18C2 JUMPI PUSH2 0x18C1 PUSH2 0x184F JUMP JUMPDEST JUMPDEST PUSH0 PUSH2 0x18CF DUP5 DUP3 DUP6 ADD PUSH2 0x1899 JUMP JUMPDEST SWAP2 POP POP SWAP3 SWAP2 POP POP JUMP JUMPDEST PUSH0 DUP2 ISZERO ISZERO SWAP1 POP SWAP2 SWAP1 POP JUMP JUMPDEST PUSH2 0x18EC DUP2 PUSH2 0x18D8 JUMP JUMPDEST DUP3 MSTORE POP POP JUMP JUMPDEST PUSH0 PUSH1 0x20 DUP3 ADD SWAP1 POP PUSH2 0x1905 PUSH0 DUP4 ADD DUP5 PUSH2 0x18E3 JUMP JUMPDEST SWAP3 SWAP2 POP POP JUMP JUMPDEST PUSH0 DUP2 SWAP1 POP SWAP2 SWAP1 POP JUMP JUMPDEST PUSH2 0x191D DUP2 PUSH2 0x190B JUMP JUMPDEST DUP2 EQ PUSH2 0x1927 JUMPI PUSH0 DUP1 REVERT JUMPDEST POP JUMP JUMPDEST PUSH0 DUP2 CALLDATALOAD SWAP1 POP PUSH2 0x1938 DUP2 PUSH2 0x1914 JUMP JUMPDEST SWAP3 SWAP2 POP POP JUMP JUMPDEST PUSH0 DUP1 PUSH1 0x40 DUP4 DUP6 SUB SLT ISZERO PUSH2 0x1954 JUMPI PUSH2 0x1953 PUSH2 0x184F JUMP JUMPDEST JUMPDEST PUSH0 PUSH2 0x1961 DUP6 DUP3 DUP7 ADD PUSH2 0x192A JUMP JUMPDEST SWAP3 POP POP PUSH1 0x20 PUSH2 0x1972 DUP6 DUP3 DUP7 ADD PUSH2 0x192A JUMP JUMPDEST SWAP2 POP POP SWAP3 POP SWAP3 SWAP1 POP JUMP JUMPDEST PUSH2 0x1985 DUP2 PUSH2 0x1872 JUMP JUMPDEST DUP3 MSTORE POP POP JUMP JUMPDEST PUSH0 PUSH1 0x20 DUP3 ADD SWAP1 POP PUSH2 0x199E PUSH0 DUP4 ADD DUP5 PUSH2 0x197C JUMP JUMPDEST SWAP3 SWAP2 POP POP JUMP JUMPDEST PUSH2 0x19AD DUP2 PUSH2 0x190B JUMP JUMPDEST DUP3 MSTORE POP POP JUMP JUMPDEST PUSH0 PUSH1 0x20 DUP3 ADD SWAP1 POP PUSH2 0x19C6 PUSH0 DUP4 ADD DUP5 PUSH2 0x19A4 JUMP JUMPDEST SWAP3 SWAP2 POP POP JUMP JUMPDEST PUSH0 DUP2 SWAP1 POP SWAP2 SWAP1 POP JUMP JUMPDEST PUSH2 0x19DE DUP2 PUSH2 0x19CC JUMP JUMPDEST DUP2 EQ PUSH2 0x19E8 JUMPI PUSH0 DUP1 REVERT JUMPDEST POP JUMP JUMPDEST PUSH0 DUP2 CALLDATALOAD SWAP1 POP PUSH2 0x19F9 DUP2 PUSH2 0x19D5 JUMP JUMPDEST SWAP3 SWAP2 POP POP JUMP JUMPDEST PUSH0 PUSH1 0x20 DUP3 DUP5 SUB SLT ISZERO PUSH2 0x1A14 JUMPI PUSH2 0x1A13 PUSH2 0x184F JUMP JUMPDEST JUMPDEST PUSH0 PUSH2 0x1A21 DUP5 DUP3 DUP6 ADD PUSH2 0x19EB JUMP JUMPDEST SWAP2 POP POP SWAP3 SWAP2 POP POP JUMP JUMPDEST PUSH0 PUSH1 0x20 DUP3 DUP5 SUB SLT ISZERO PUSH2 0x1A3F JUMPI PUSH2 0x1A3E PUSH2 0x184F JUMP JUMPDEST JUMPDEST PUSH0 PUSH2 0x1A4C DUP5 DUP3 DUP6 ADD PUSH2 0x192A JUMP JUMPDEST SWAP2 POP POP SWAP3 SWAP2 POP POP JUMP JUMPDEST PUSH0 DUP2 SWAP1 POP SWAP2 SWAP1 POP JUMP JUMPDEST PUSH0 PUSH2 0x1A78 PUSH2 0x1A73 PUSH2 0x1A6E DUP5 PUSH2 0x1853 JUMP JUMPDEST PUSH2 0x1A55 JUMP JUMPDEST PUSH2 0x1853 JUMP JUMPDEST SWAP1 POP SWAP2 SWAP1 POP JUMP JUMPDEST PUSH0 PUSH2 0x1A89 DUP3 PUSH2 0x1A5E JUMP JUMPDEST SWAP1 POP SWAP2 SWAP1 POP JUMP JUMPDEST PUSH0 PUSH2 0x1A9A DUP3 PUSH2 0x1A7F JUMP JUMPDEST SWAP1 POP SWAP2 SWAP1 POP JUMP JUMPDEST PUSH2 0x1AAA DUP2 PUSH2 0x1A90 JUMP JUMPDEST DUP3 MSTORE POP POP JUMP JUMPDEST PUSH0 PUSH1 0x20 DUP3 ADD SWAP1 POP PUSH2 0x1AC3 PUSH0 DUP4 ADD DUP5 PUSH2 0x1AA1 JUMP JUMPDEST SWAP3 SWAP2 POP POP JUMP JUMPDEST PUSH0 DUP3 DUP3 MSTORE PUSH1 0x20 DUP3 ADD SWAP1 POP SWAP3 SWAP2 POP POP JUMP JUMPDEST PUSH32 0x4E6577204368616C6C656E6765722069732053656C6563746564210000000000 PUSH0 DUP3 ADD MSTORE POP JUMP JUMPDEST PUSH0 PUSH2 0x1B0D PUSH1 0x1B DUP4 PUSH2 0x1AC9 JUMP JUMPDEST SWAP2 POP PUSH2 0x1B18 DUP3 PUSH2 0x1AD9 JUMP JUMPDEST PUSH1 0x20 DUP3 ADD SWAP1 POP SWAP2 SWAP1 POP JUMP JUMPDEST PUSH0 PUSH1 0x20 DUP3 ADD SWAP1 POP DUP2 DUP2 SUB PUSH0 DUP4 ADD MSTORE PUSH2 0x1B3A DUP2 PUSH2 0x1B01 JUMP JUMPDEST SWAP1 POP SWAP2 SWAP1 POP JUMP JUMPDEST PUSH0 DUP2 MLOAD SWAP1 POP PUSH2 0x1B4F DUP2 PUSH2 0x1914 JUMP JUMPDEST SWAP3 SWAP2 POP POP JUMP JUMPDEST PUSH0 PUSH1 0x20 DUP3 DUP5 SUB SLT ISZERO PUSH2 0x1B6A JUMPI PUSH2 0x1B69 PUSH2 0x184F JUMP JUMPDEST JUMPDEST PUSH0 PUSH2 0x1B77 DUP5 DUP3 DUP6 ADD PUSH2 0x1B41 JUMP JUMPDEST SWAP2 POP POP SWAP3 SWAP2 POP POP JUMP JUMPDEST PUSH0 DUP1 REVERT JUMPDEST PUSH0 PUSH1 0x1F NOT PUSH1 0x1F DUP4 ADD AND SWAP1 POP SWAP2 SWAP1 POP JUMP JUMPDEST PUSH32 0x4E487B7100000000000000000000000000000000000000000000000000000000 PUSH0 MSTORE PUSH1 0x41 PUSH1 0x4 MSTORE PUSH1 0x24 PUSH0 REVERT JUMPDEST PUSH2 0x1BCA DUP3 PUSH2 0x1B84 JUMP JUMPDEST DUP2 ADD DUP2 DUP2 LT PUSH8 0xFFFFFFFFFFFFFFFF DUP3 GT OR ISZERO PUSH2 0x1BE9 JUMPI PUSH2 0x1BE8 PUSH2 0x1B94 JUMP JUMPDEST JUMPDEST DUP1 PUSH1 0x40 MSTORE POP POP POP JUMP JUMPDEST PUSH0 PUSH2 0x1BFB PUSH2 0x1846 JUMP JUMPDEST SWAP1 POP PUSH2 0x1C07 DUP3 DUP3 PUSH2 0x1BC1 JUMP JUMPDEST SWAP2 SWAP1 POP JUMP JUMPDEST PUSH0 DUP2 MLOAD SWAP1 POP PUSH2 0x1C1A DUP2 PUSH2 0x1883 JUMP JUMPDEST SWAP3 SWAP2 POP POP JUMP JUMPDEST PUSH2 0x1C29 DUP2 PUSH2 0x18D8 JUMP JUMPDEST DUP2 EQ PUSH2 0x1C33 JUMPI PUSH0 DUP1 REVERT JUMPDEST POP JUMP JUMPDEST PUSH0 DUP2 MLOAD SWAP1 POP PUSH2 0x1C44 DUP2 PUSH2 0x1C20 JUMP JUMPDEST SWAP3 SWAP2 POP POP JUMP JUMPDEST PUSH0 PUSH1 0xA0 DUP3 DUP5 SUB SLT ISZERO PUSH2 0x1C5F JUMPI PUSH2 0x1C5E PUSH2 0x1B80 JUMP JUMPDEST JUMPDEST PUSH2 0x1C69 PUSH1 0xA0 PUSH2 0x1BF2 JUMP JUMPDEST SWAP1 POP PUSH0 PUSH2 0x1C78 DUP5 DUP3 DUP6 ADD PUSH2 0x1C0C JUMP JUMPDEST PUSH0 DUP4 ADD MSTORE POP PUSH1 0x20 PUSH2 0x1C8B DUP5 DUP3 DUP6 ADD PUSH2 0x1C36 JUMP JUMPDEST PUSH1 0x20 DUP4 ADD MSTORE POP PUSH1 0x40 PUSH2 0x1C9F DUP5 DUP3 DUP6 ADD PUSH2 0x1C36 JUMP JUMPDEST PUSH1 0x40 DUP4 ADD MSTORE POP PUSH1 0x60 PUSH2 0x1CB3 DUP5 DUP3 DUP6 ADD PUSH2 0x1C36 JUMP JUMPDEST PUSH1 0x60 DUP4 ADD MSTORE POP PUSH1 0x80 PUSH2 0x1CC7 DUP5 DUP3 DUP6 ADD PUSH2 0x1C36 JUMP JUMPDEST PUSH1 0x80 DUP4 ADD MSTORE POP SWAP3 SWAP2 POP POP JUMP JUMPDEST PUSH0 PUSH1 0xA0 DUP3 DUP5 SUB SLT ISZERO PUSH2 0x1CE8 JUMPI PUSH2 0x1CE7 PUSH2 0x184F JUMP JUMPDEST JUMPDEST PUSH0 PUSH2 0x1CF5 DUP5 DUP3 DUP6 ADD PUSH2 0x1C4A JUMP JUMPDEST SWAP2 POP POP SWAP3 SWAP2 POP POP JUMP JUMPDEST PUSH0 DUP2 PUSH1 0x60 SHL SWAP1 POP SWAP2 SWAP1 POP JUMP JUMPDEST PUSH0 PUSH2 0x1D14 DUP3 PUSH2 0x1CFE JUMP JUMPDEST SWAP1 POP SWAP2 SWAP1 POP JUMP JUMPDEST PUSH0 PUSH2 0x1D25 DUP3 PUSH2 0x1D0A JUMP JUMPDEST SWAP1 POP SWAP2 SWAP1 POP JUMP JUMPDEST PUSH2 0x1D3D PUSH2 0x1D38 DUP3 PUSH2 0x1872 JUMP JUMPDEST PUSH2 0x1D1B JUMP JUMPDEST DUP3 MSTORE POP POP JUMP JUMPDEST PUSH0 DUP2 SWAP1 POP SWAP2 SWAP1 POP JUMP JUMPDEST PUSH2 0x1D5D PUSH2 0x1D58 DUP3 PUSH2 0x190B JUMP JUMPDEST PUSH2 0x1D43 JUMP JUMPDEST DUP3 MSTORE POP POP JUMP JUMPDEST PUSH0 PUSH2 0x1D6E DUP3 DUP6 PUSH2 0x1D2C JUMP JUMPDEST PUSH1 0x14 DUP3 ADD SWAP2 POP PUSH2 0x1D7E DUP3 DUP5 PUSH2 0x1D4C JUMP JUMPDEST PUSH1 0x20 DUP3 ADD SWAP2 POP DUP2 SWAP1 POP SWAP4 SWAP3 POP POP POP JUMP JUMPDEST PUSH32 0x4E487B7100000000000000000000000000000000000000000000000000000000 PUSH0 MSTORE PUSH1 0x12 PUSH1 0x4 MSTORE PUSH1 0x24 PUSH0 REVERT JUMPDEST PUSH0 PUSH2 0x1DC5 DUP3 PUSH2 0x190B JUMP JUMPDEST SWAP2 POP PUSH2 0x1DD0 DUP4 PUSH2 0x190B JUMP JUMPDEST SWAP3 POP DUP3 PUSH2 0x1DE0 JUMPI PUSH2 0x1DDF PUSH2 0x1D8E JUMP JUMPDEST JUMPDEST DUP3 DUP3 MOD SWAP1 POP SWAP3 SWAP2 POP POP JUMP JUMPDEST PUSH0 PUSH1 0xA0 DUP3 ADD SWAP1 POP PUSH2 0x1DFE PUSH0 DUP4 ADD DUP9 PUSH2 0x19A4 JUMP JUMPDEST PUSH2 0x1E0B PUSH1 0x20 DUP4 ADD DUP8 PUSH2 0x18E3 JUMP JUMPDEST PUSH2 0x1E18 PUSH1 0x40 DUP4 ADD DUP7 PUSH2 0x18E3 JUMP JUMPDEST PUSH2 0x1E25 PUSH1 0x60 DUP4 ADD DUP6 PUSH2 0x18E3 JUMP JUMPDEST PUSH2 0x1E32 PUSH1 0x80 DUP4 ADD DUP5 PUSH2 0x18E3 JUMP JUMPDEST SWAP7 SWAP6 POP POP POP POP POP POP JUMP JUMPDEST PUSH32 0x4E6F742043686F73656E204F6E65000000000000000000000000000000000000 PUSH0 DUP3 ADD MSTORE POP JUMP JUMPDEST PUSH0 PUSH2 0x1E70 PUSH1 0xE DUP4 PUSH2 0x1AC9 JUMP JUMPDEST SWAP2 POP PUSH2 0x1E7B DUP3 PUSH2 0x1E3C JUMP JUMPDEST PUSH1 0x20 DUP3 ADD SWAP1 POP SWAP2 SWAP1 POP JUMP JUMPDEST PUSH0 PUSH1 0x20 DUP3 ADD SWAP1 POP DUP2 DUP2 SUB PUSH0 DUP4 ADD MSTORE PUSH2 0x1E9D DUP2 PUSH2 0x1E64 JUMP JUMPDEST SWAP1 POP SWAP2 SWAP1 POP JUMP JUMPDEST PUSH0 DUP2 SWAP1 POP SWAP2 SWAP1 POP JUMP JUMPDEST PUSH2 0x1EBE PUSH2 0x1EB9 DUP3 PUSH2 0x19CC JUMP JUMPDEST PUSH2 0x1EA4 JUMP JUMPDEST DUP3 MSTORE POP POP JUMP JUMPDEST PUSH0 PUSH2 0x1ECF DUP3 DUP5 PUSH2 0x1EAD JUMP JUMPDEST PUSH1 0x20 DUP3 ADD SWAP2 POP DUP2 SWAP1 POP SWAP3 SWAP2 POP POP JUMP INVALID LOG2 PUSH5 0x6970667358 0x22 SLT KECCAK256 PUSH1 0x58 0xC0 STOP CALLER SWAP9 DUP11 SHL 0xEC DUP7 PUSH25 0xA80CAEAE4BBE827E47A15C293E2831A59C96C1115B64736F6C PUSH4 0x4300081A STOP CALLER "
				},
				"gasEstimates": {
					"creation": {
						"codeDepositCost": "1591200",
						"executionCost": "infinite",
						"totalCost": "infinite"
					},
					"external": {
						"approach()": "infinite",
						"approached(address)": "2834",
						"casinoOwner()": "2508",
						"challengeCurrentOwner(bytes32)": "infinite",
						"challenger(uint256)": "4966",
						"challengingFee()": "2514",
						"getApproacher(address)": "2980",
						"getPrivilegedAddress()": "2582",
						"privileged()": "infinite",
						"qualifiedChallengerFound()": "2554",
						"theChallenger()": "2604",
						"upgradeChallengerAttribute(uint256,uint256)": "infinite"
					}
				},
				"methodIdentifiers": {
					"approach()": "d3db0a39",
					"approached(address)": "01080798",
					"casinoOwner()": "bc0f160a",
					"challengeCurrentOwner(bytes32)": "a75c654e",
					"challenger(uint256)": "cb54a31e",
					"challengingFee()": "6aecb8d9",
					"getApproacher(address)": "ec21eaf1",
					"getPrivilegedAddress()": "4edfa653",
					"privileged()": "ced99cce",
					"qualifiedChallengerFound()": "de7ff38a",
					"theChallenger()": "458393ab",
					"upgradeChallengerAttribute(uint256,uint256)": "36ef2335"
				}
			},
			"storageLayout": {
				"storage": [
					{
						"astId": 5,
						"contract": "Inju_Gambit/ChallengeManager.sol:ChallengeManager",
						"label": "privileged",
						"offset": 0,
						"slot": "0",
						"type": "t_contract(Privileged)804"
					},
					{
						"astId": 19,
						"contract": "Inju_Gambit/ChallengeManager.sol:ChallengeManager",
						"label": "masterKey",
						"offset": 0,
						"slot": "1",
						"type": "t_bytes32"
					},
					{
						"astId": 21,
						"contract": "Inju_Gambit/ChallengeManager.sol:ChallengeManager",
						"label": "qualifiedChallengerFound",
						"offset": 0,
						"slot": "2",
						"type": "t_bool"
					},
					{
						"astId": 23,
						"contract": "Inju_Gambit/ChallengeManager.sol:ChallengeManager",
						"label": "theChallenger",
						"offset": 1,
						"slot": "2",
						"type": "t_address"
					},
					{
						"astId": 25,
						"contract": "Inju_Gambit/ChallengeManager.sol:ChallengeManager",
						"label": "casinoOwner",
						"offset": 0,
						"slot": "3",
						"type": "t_address"
					},
					{
						"astId": 27,
						"contract": "Inju_Gambit/ChallengeManager.sol:ChallengeManager",
						"label": "challengingFee",
						"offset": 0,
						"slot": "4",
						"type": "t_uint256"
					},
					{
						"astId": 30,
						"contract": "Inju_Gambit/ChallengeManager.sol:ChallengeManager",
						"label": "challenger",
						"offset": 0,
						"slot": "5",
						"type": "t_array(t_address)dyn_storage"
					},
					{
						"astId": 34,
						"contract": "Inju_Gambit/ChallengeManager.sol:ChallengeManager",
						"label": "approached",
						"offset": 0,
						"slot": "6",
						"type": "t_mapping(t_address,t_bool)"
					}
				],
				"types": {
					"t_address": {
						"encoding": "inplace",
						"label": "address",
						"numberOfBytes": "20"
					},
					"t_array(t_address)dyn_storage": {
						"base": "t_address",
						"encoding": "dynamic_array",
						"label": "address[]",
						"numberOfBytes": "32"
					},
					"t_bool": {
						"encoding": "inplace",
						"label": "bool",
						"numberOfBytes": "1"
					},
					"t_bytes32": {
						"encoding": "inplace",
						"label": "bytes32",
						"numberOfBytes": "32"
					},
					"t_contract(Privileged)804": {
						"encoding": "inplace",
						"label": "contract Privileged",
						"numberOfBytes": "20"
					},
					"t_mapping(t_address,t_bool)": {
						"encoding": "mapping",
						"key": "t_address",
						"label": "mapping(address => bool)",
						"numberOfBytes": "32",
						"value": "t_bool"
					},
					"t_uint256": {
						"encoding": "inplace",
						"label": "uint256",
						"numberOfBytes": "32"
					}
				}
			},
			"userdoc": {
				"kind": "user",
				"methods": {},
				"version": 1
			}
		}
	}
}