{
	"Inju_Gambit/Hack.sol": {
		"Hack": {
			"abi": [
				{
					"inputs": [
						{
							"internalType": "address",
							"name": "_privileged",
							"type": "address"
						},
						{
							"internalType": "address",
							"name": "_challengemanager",
							"type": "address"
						}
					],
					"stateMutability": "nonpayable",
					"type": "constructor"
				},
				{
					"inputs": [],
					"name": "approach",
					"outputs": [],
					"stateMutability": "payable",
					"type": "function"
				},
				{
					"inputs": [],
					"name": "challengemanager",
					"outputs": [
						{
							"internalType": "contract ChallengeManager",
							"name": "",
							"type": "address"
						}
					],
					"stateMutability": "view",
					"type": "function"
				},
				{
					"inputs": [
						{
							"internalType": "uint256",
							"name": "_id",
							"type": "uint256"
						}
					],
					"name": "getChallenger",
					"outputs": [
						{
							"components": [
								{
									"internalType": "address",
									"name": "challenger",
									"type": "address"
								},
								{
									"internalType": "bool",
									"name": "isRich",
									"type": "bool"
								},
								{
									"internalType": "bool",
									"name": "isImportant",
									"type": "bool"
								},
								{
									"internalType": "bool",
									"name": "hasConnection",
									"type": "bool"
								},
								{
									"internalType": "bool",
									"name": "hasVIPCard",
									"type": "bool"
								}
							],
							"internalType": "struct Privileged.casinoOwnerChallenger",
							"name": "",
							"type": "tuple"
						}
					],
					"stateMutability": "view",
					"type": "function"
				},
				{
					"inputs": [],
					"name": "getContractAddress",
					"outputs": [
						{
							"internalType": "address",
							"name": "",
							"type": "address"
						}
					],
					"stateMutability": "view",
					"type": "function"
				},
				{
					"inputs": [],
					"name": "getTheChallenger",
					"outputs": [
						{
							"internalType": "address",
							"name": "",
							"type": "address"
						}
					],
					"stateMutability": "view",
					"type": "function"
				},
				{
					"inputs": [],
					"name": "privileged",
					"outputs": [
						{
							"internalType": "contract Privileged",
							"name": "",
							"type": "address"
						}
					],
					"stateMutability": "view",
					"type": "function"
				},
				{
					"inputs": [
						{
							"internalType": "uint256",
							"name": "_challengerId",
							"type": "uint256"
						},
						{
							"internalType": "uint256",
							"name": "_strangerId",
							"type": "uint256"
						}
					],
					"name": "setTheChallenger",
					"outputs": [],
					"stateMutability": "nonpayable",
					"type": "function"
				}
			],
			"devdoc": {
				"kind": "dev",
				"methods": {},
				"version": 1
			},
			"evm": {
				"assembly": "    /* \"Inju_Gambit/Hack.sol\":124:1310  contract Hack {... */\n  mstore(0x40, 0x80)\n    /* \"Inju_Gambit/Hack.sol\":229:408  constructor(address _privileged, address _challengemanager){... */\n  callvalue\n  dup1\n  iszero\n  tag_1\n  jumpi\n  0x00\n  dup1\n  revert\ntag_1:\n  pop\n  mload(0x40)\n  sub(codesize, bytecodeSize)\n  dup1\n  bytecodeSize\n  dup4\n  codecopy\n  dup2\n  dup2\n  add\n  0x40\n  mstore\n  dup2\n  add\n  swap1\n  tag_2\n  swap2\n  swap1\n  tag_3\n  jump\t// in\ntag_2:\n    /* \"Inju_Gambit/Hack.sol\":323:334  _privileged */\n  dup2\n    /* \"Inju_Gambit/Hack.sol\":299:309  privileged */\n  0x00\n  dup1\n    /* \"Inju_Gambit/Hack.sol\":299:335  privileged = Privileged(_privileged) */\n  0x0100\n  exp\n  dup2\n  sload\n  dup2\n  0xffffffffffffffffffffffffffffffffffffffff\n  mul\n  not\n  and\n  swap1\n  dup4\n  0xffffffffffffffffffffffffffffffffffffffff\n  and\n  mul\n  or\n  swap1\n  sstore\n  pop\n    /* \"Inju_Gambit/Hack.sol\":382:399  _challengemanager */\n  dup1\n    /* \"Inju_Gambit/Hack.sol\":346:362  challengemanager */\n  0x01\n  0x00\n    /* \"Inju_Gambit/Hack.sol\":346:400  challengemanager = ChallengeManager(_challengemanager) */\n  0x0100\n  exp\n  dup2\n  sload\n  dup2\n  0xffffffffffffffffffffffffffffffffffffffff\n  mul\n  not\n  and\n  swap1\n  dup4\n  0xffffffffffffffffffffffffffffffffffffffff\n  and\n  mul\n  or\n  swap1\n  sstore\n  pop\n    /* \"Inju_Gambit/Hack.sol\":229:408  constructor(address _privileged, address _challengemanager){... */\n  pop\n  pop\n    /* \"Inju_Gambit/Hack.sol\":124:1310  contract Hack {... */\n  jump(tag_6)\n    /* \"#utility.yul\":88:205   */\ntag_8:\n    /* \"#utility.yul\":197:198   */\n  0x00\n    /* \"#utility.yul\":194:195   */\n  dup1\n    /* \"#utility.yul\":187:199   */\n  revert\n    /* \"#utility.yul\":334:460   */\ntag_10:\n    /* \"#utility.yul\":371:378   */\n  0x00\n    /* \"#utility.yul\":411:453   */\n  0xffffffffffffffffffffffffffffffffffffffff\n    /* \"#utility.yul\":404:409   */\n  dup3\n    /* \"#utility.yul\":400:454   */\n  and\n    /* \"#utility.yul\":389:454   */\n  swap1\n  pop\n    /* \"#utility.yul\":334:460   */\n  swap2\n  swap1\n  pop\n  jump\t// out\n    /* \"#utility.yul\":466:562   */\ntag_11:\n    /* \"#utility.yul\":503:510   */\n  0x00\n    /* \"#utility.yul\":532:556   */\n  tag_20\n    /* \"#utility.yul\":550:555   */\n  dup3\n    /* \"#utility.yul\":532:556   */\n  tag_10\n  jump\t// in\ntag_20:\n    /* \"#utility.yul\":521:556   */\n  swap1\n  pop\n    /* \"#utility.yul\":466:562   */\n  swap2\n  swap1\n  pop\n  jump\t// out\n    /* \"#utility.yul\":568:690   */\ntag_12:\n    /* \"#utility.yul\":641:665   */\n  tag_22\n    /* \"#utility.yul\":659:664   */\n  dup2\n    /* \"#utility.yul\":641:665   */\n  tag_11\n  jump\t// in\ntag_22:\n    /* \"#utility.yul\":634:639   */\n  dup2\n    /* \"#utility.yul\":631:666   */\n  eq\n    /* \"#utility.yul\":621:684   */\n  tag_23\n  jumpi\n    /* \"#utility.yul\":680:681   */\n  0x00\n    /* \"#utility.yul\":677:678   */\n  dup1\n    /* \"#utility.yul\":670:682   */\n  revert\n    /* \"#utility.yul\":621:684   */\ntag_23:\n    /* \"#utility.yul\":568:690   */\n  pop\n  jump\t// out\n    /* \"#utility.yul\":696:839   */\ntag_13:\n    /* \"#utility.yul\":753:758   */\n  0x00\n    /* \"#utility.yul\":784:790   */\n  dup2\n    /* \"#utility.yul\":778:791   */\n  mload\n    /* \"#utility.yul\":769:791   */\n  swap1\n  pop\n    /* \"#utility.yul\":800:833   */\n  tag_25\n    /* \"#utility.yul\":827:832   */\n  dup2\n    /* \"#utility.yul\":800:833   */\n  tag_12\n  jump\t// in\ntag_25:\n    /* \"#utility.yul\":696:839   */\n  swap3\n  swap2\n  pop\n  pop\n  jump\t// out\n    /* \"#utility.yul\":845:1352   */\ntag_3:\n    /* \"#utility.yul\":924:930   */\n  0x00\n    /* \"#utility.yul\":932:938   */\n  dup1\n    /* \"#utility.yul\":981:983   */\n  0x40\n    /* \"#utility.yul\":969:978   */\n  dup4\n    /* \"#utility.yul\":960:967   */\n  dup6\n    /* \"#utility.yul\":956:979   */\n  sub\n    /* \"#utility.yul\":952:984   */\n  slt\n    /* \"#utility.yul\":949:1068   */\n  iszero\n  tag_27\n  jumpi\n    /* \"#utility.yul\":987:1066   */\n  tag_28\n  tag_8\n  jump\t// in\ntag_28:\n    /* \"#utility.yul\":949:1068   */\ntag_27:\n    /* \"#utility.yul\":1107:1108   */\n  0x00\n    /* \"#utility.yul\":1132:1196   */\n  tag_29\n    /* \"#utility.yul\":1188:1195   */\n  dup6\n    /* \"#utility.yul\":1179:1185   */\n  dup3\n    /* \"#utility.yul\":1168:1177   */\n  dup7\n    /* \"#utility.yul\":1164:1186   */\n  add\n    /* \"#utility.yul\":1132:1196   */\n  tag_13\n  jump\t// in\ntag_29:\n    /* \"#utility.yul\":1122:1196   */\n  swap3\n  pop\n    /* \"#utility.yul\":1078:1206   */\n  pop\n    /* \"#utility.yul\":1245:1247   */\n  0x20\n    /* \"#utility.yul\":1271:1335   */\n  tag_30\n    /* \"#utility.yul\":1327:1334   */\n  dup6\n    /* \"#utility.yul\":1318:1324   */\n  dup3\n    /* \"#utility.yul\":1307:1316   */\n  dup7\n    /* \"#utility.yul\":1303:1325   */\n  add\n    /* \"#utility.yul\":1271:1335   */\n  tag_13\n  jump\t// in\ntag_30:\n    /* \"#utility.yul\":1261:1335   */\n  swap2\n  pop\n    /* \"#utility.yul\":1216:1345   */\n  pop\n    /* \"#utility.yul\":845:1352   */\n  swap3\n  pop\n  swap3\n  swap1\n  pop\n  jump\t// out\n    /* \"Inju_Gambit/Hack.sol\":124:1310  contract Hack {... */\ntag_6:\n  dataSize(sub_0)\n  dup1\n  dataOffset(sub_0)\n  0x00\n  codecopy\n  0x00\n  return\nstop\n\nsub_0: assembly {\n        /* \"Inju_Gambit/Hack.sol\":124:1310  contract Hack {... */\n      mstore(0x40, 0x80)\n      jumpi(tag_1, lt(calldatasize, 0x04))\n      shr(0xe0, calldataload(0x00))\n      dup1\n      0xa6fe67dc\n      gt\n      tag_9\n      jumpi\n      dup1\n      0xa6fe67dc\n      eq\n      tag_5\n      jumpi\n      dup1\n      0xced99cce\n      eq\n      tag_6\n      jumpi\n      dup1\n      0xd3db0a39\n      eq\n      tag_7\n      jumpi\n      dup1\n      0xf804d6cf\n      eq\n      tag_8\n      jumpi\n      jump(tag_1)\n    tag_9:\n      dup1\n      0x32a2c5d0\n      eq\n      tag_2\n      jumpi\n      dup1\n      0x4e3b3cb3\n      eq\n      tag_3\n      jumpi\n      dup1\n      0x729f576c\n      eq\n      tag_4\n      jumpi\n    tag_1:\n      0x00\n      dup1\n      revert\n        /* \"Inju_Gambit/Hack.sol\":1086:1184  function getContractAddress() public view returns (address){... */\n    tag_2:\n      callvalue\n      dup1\n      iszero\n      tag_10\n      jumpi\n      0x00\n      dup1\n      revert\n    tag_10:\n      pop\n      tag_11\n      tag_12\n      jump\t// in\n    tag_11:\n      mload(0x40)\n      tag_13\n      swap2\n      swap1\n      tag_14\n      jump\t// in\n    tag_13:\n      mload(0x40)\n      dup1\n      swap2\n      sub\n      swap1\n      return\n        /* \"Inju_Gambit/Hack.sol\":180:220  ChallengeManager public challengemanager */\n    tag_3:\n      callvalue\n      dup1\n      iszero\n      tag_15\n      jumpi\n      0x00\n      dup1\n      revert\n    tag_15:\n      pop\n      tag_16\n      tag_17\n      jump\t// in\n    tag_16:\n      mload(0x40)\n      tag_18\n      swap2\n      swap1\n      tag_19\n      jump\t// in\n    tag_18:\n      mload(0x40)\n      dup1\n      swap2\n      sub\n      swap1\n      return\n        /* \"Inju_Gambit/Hack.sol\":928:1078  function getChallenger(uint _id) public view returns(Privileged.casinoOwnerChallenger memory){... */\n    tag_4:\n      callvalue\n      dup1\n      iszero\n      tag_20\n      jumpi\n      0x00\n      dup1\n      revert\n    tag_20:\n      pop\n      tag_21\n      0x04\n      dup1\n      calldatasize\n      sub\n      dup2\n      add\n      swap1\n      tag_22\n      swap2\n      swap1\n      tag_23\n      jump\t// in\n    tag_22:\n      tag_24\n      jump\t// in\n    tag_21:\n      mload(0x40)\n      tag_25\n      swap2\n      swap1\n      tag_26\n      jump\t// in\n    tag_25:\n      mload(0x40)\n      dup1\n      swap2\n      sub\n      swap1\n      return\n        /* \"Inju_Gambit/Hack.sol\":575:920  function setTheChallenger(uint _challengerId, uint _strangerId) public {... */\n    tag_5:\n      callvalue\n      dup1\n      iszero\n      tag_27\n      jumpi\n      0x00\n      dup1\n      revert\n    tag_27:\n      pop\n      tag_28\n      0x04\n      dup1\n      calldatasize\n      sub\n      dup2\n      add\n      swap1\n      tag_29\n      swap2\n      swap1\n      tag_30\n      jump\t// in\n    tag_29:\n      tag_31\n      jump\t// in\n    tag_28:\n      stop\n        /* \"Inju_Gambit/Hack.sol\":145:173  Privileged public privileged */\n    tag_6:\n      callvalue\n      dup1\n      iszero\n      tag_32\n      jumpi\n      0x00\n      dup1\n      revert\n    tag_32:\n      pop\n      tag_33\n      tag_34\n      jump\t// in\n    tag_33:\n      mload(0x40)\n      tag_35\n      swap2\n      swap1\n      tag_36\n      jump\t// in\n    tag_35:\n      mload(0x40)\n      dup1\n      swap2\n      sub\n      swap1\n      return\n        /* \"Inju_Gambit/Hack.sol\":416:567  function approach() payable public {... */\n    tag_7:\n      tag_37\n      tag_38\n      jump\t// in\n    tag_37:\n      stop\n        /* \"Inju_Gambit/Hack.sol\":1192:1307  function getTheChallenger() public view returns (address){... */\n    tag_8:\n      callvalue\n      dup1\n      iszero\n      tag_39\n      jumpi\n      0x00\n      dup1\n      revert\n    tag_39:\n      pop\n      tag_40\n      tag_41\n      jump\t// in\n    tag_40:\n      mload(0x40)\n      tag_42\n      swap2\n      swap1\n      tag_14\n      jump\t// in\n    tag_42:\n      mload(0x40)\n      dup1\n      swap2\n      sub\n      swap1\n      return\n        /* \"Inju_Gambit/Hack.sol\":1086:1184  function getContractAddress() public view returns (address){... */\n    tag_12:\n        /* \"Inju_Gambit/Hack.sol\":1137:1144  address */\n      0x00\n        /* \"Inju_Gambit/Hack.sol\":1171:1175  this */\n      address\n        /* \"Inju_Gambit/Hack.sol\":1156:1176  return address(this) */\n      swap1\n      pop\n        /* \"Inju_Gambit/Hack.sol\":1086:1184  function getContractAddress() public view returns (address){... */\n      swap1\n      jump\t// out\n        /* \"Inju_Gambit/Hack.sol\":180:220  ChallengeManager public challengemanager */\n    tag_17:\n      0x01\n      0x00\n      swap1\n      sload\n      swap1\n      0x0100\n      exp\n      swap1\n      div\n      0xffffffffffffffffffffffffffffffffffffffff\n      and\n      dup2\n      jump\t// out\n        /* \"Inju_Gambit/Hack.sol\":928:1078  function getChallenger(uint _id) public view returns(Privileged.casinoOwnerChallenger memory){... */\n    tag_24:\n        /* \"Inju_Gambit/Hack.sol\":981:1020  Privileged.casinoOwnerChallenger memory */\n      tag_44\n      tag_45\n      jump\t// in\n    tag_44:\n        /* \"Inju_Gambit/Hack.sol\":1039:1049  privileged */\n      0x00\n      dup1\n      sload\n      swap1\n      0x0100\n      exp\n      swap1\n      div\n      0xffffffffffffffffffffffffffffffffffffffff\n      and\n        /* \"Inju_Gambit/Hack.sol\":1039:1065  privileged.getRequirmenets */\n      0xffffffffffffffffffffffffffffffffffffffff\n      and\n      0x89bdfdc3\n        /* \"Inju_Gambit/Hack.sol\":1066:1069  _id */\n      dup4\n        /* \"Inju_Gambit/Hack.sol\":1039:1070  privileged.getRequirmenets(_id) */\n      mload(0x40)\n      dup3\n      0xffffffff\n      and\n      0xe0\n      shl\n      dup2\n      mstore\n      0x04\n      add\n      tag_47\n      swap2\n      swap1\n      tag_48\n      jump\t// in\n    tag_47:\n      0xa0\n      mload(0x40)\n      dup1\n      dup4\n      sub\n      dup2\n      dup7\n      gas\n      staticcall\n      iszero\n      dup1\n      iszero\n      tag_50\n      jumpi\n      returndatasize\n      0x00\n      dup1\n      returndatacopy\n      revert(0x00, returndatasize)\n    tag_50:\n      pop\n      pop\n      pop\n      pop\n      mload(0x40)\n      returndatasize\n      not(0x1f)\n      0x1f\n      dup3\n      add\n      and\n      dup3\n      add\n      dup1\n      0x40\n      mstore\n      pop\n      dup2\n      add\n      swap1\n      tag_51\n      swap2\n      swap1\n      tag_52\n      jump\t// in\n    tag_51:\n        /* \"Inju_Gambit/Hack.sol\":1032:1070  return privileged.getRequirmenets(_id) */\n      swap1\n      pop\n        /* \"Inju_Gambit/Hack.sol\":928:1078  function getChallenger(uint _id) public view returns(Privileged.casinoOwnerChallenger memory){... */\n      swap2\n      swap1\n      pop\n      jump\t// out\n        /* \"Inju_Gambit/Hack.sol\":575:920  function setTheChallenger(uint _challengerId, uint _strangerId) public {... */\n    tag_31:\n        /* \"Inju_Gambit/Hack.sol\":657:823  while (challengemanager.theChallenger() != address(this)) ... */\n    tag_54:\n        /* \"Inju_Gambit/Hack.sol\":708:712  this */\n      address\n        /* \"Inju_Gambit/Hack.sol\":664:713  challengemanager.theChallenger() != address(this) */\n      0xffffffffffffffffffffffffffffffffffffffff\n      and\n        /* \"Inju_Gambit/Hack.sol\":664:680  challengemanager */\n      0x01\n      0x00\n      swap1\n      sload\n      swap1\n      0x0100\n      exp\n      swap1\n      div\n      0xffffffffffffffffffffffffffffffffffffffff\n      and\n        /* \"Inju_Gambit/Hack.sol\":664:694  challengemanager.theChallenger */\n      0xffffffffffffffffffffffffffffffffffffffff\n      and\n      0x458393ab\n        /* \"Inju_Gambit/Hack.sol\":664:696  challengemanager.theChallenger() */\n      mload(0x40)\n      dup2\n      0xffffffff\n      and\n      0xe0\n      shl\n      dup2\n      mstore\n      0x04\n      add\n      0x20\n      mload(0x40)\n      dup1\n      dup4\n      sub\n      dup2\n      dup7\n      gas\n      staticcall\n      iszero\n      dup1\n      iszero\n      tag_57\n      jumpi\n      returndatasize\n      0x00\n      dup1\n      returndatacopy\n      revert(0x00, returndatasize)\n    tag_57:\n      pop\n      pop\n      pop\n      pop\n      mload(0x40)\n      returndatasize\n      not(0x1f)\n      0x1f\n      dup3\n      add\n      and\n      dup3\n      add\n      dup1\n      0x40\n      mstore\n      pop\n      dup2\n      add\n      swap1\n      tag_58\n      swap2\n      swap1\n      tag_59\n      jump\t// in\n    tag_58:\n        /* \"Inju_Gambit/Hack.sol\":664:713  challengemanager.theChallenger() != address(this) */\n      0xffffffffffffffffffffffffffffffffffffffff\n      and\n      eq\n        /* \"Inju_Gambit/Hack.sol\":657:823  while (challengemanager.theChallenger() != address(this)) ... */\n      tag_55\n      jumpi\n        /* \"Inju_Gambit/Hack.sol\":740:756  challengemanager */\n      0x01\n      0x00\n      swap1\n      sload\n      swap1\n      0x0100\n      exp\n      swap1\n      div\n      0xffffffffffffffffffffffffffffffffffffffff\n      and\n        /* \"Inju_Gambit/Hack.sol\":740:783  challengemanager.upgradeChallengerAttribute */\n      0xffffffffffffffffffffffffffffffffffffffff\n      and\n      0x36ef2335\n        /* \"Inju_Gambit/Hack.sol\":784:797  _challengerId */\n      dup4\n        /* \"Inju_Gambit/Hack.sol\":799:810  _strangerId */\n      dup4\n        /* \"Inju_Gambit/Hack.sol\":740:811  challengemanager.upgradeChallengerAttribute(_challengerId, _strangerId) */\n      mload(0x40)\n      dup4\n      0xffffffff\n      and\n      0xe0\n      shl\n      dup2\n      mstore\n      0x04\n      add\n      tag_60\n      swap3\n      swap2\n      swap1\n      tag_61\n      jump\t// in\n    tag_60:\n      0x00\n      mload(0x40)\n      dup1\n      dup4\n      sub\n      dup2\n      0x00\n      dup8\n      dup1\n      extcodesize\n      iszero\n      dup1\n      iszero\n      tag_62\n      jumpi\n      0x00\n      dup1\n      revert\n    tag_62:\n      pop\n      gas\n      call\n      iszero\n      dup1\n      iszero\n      tag_64\n      jumpi\n      returndatasize\n      0x00\n      dup1\n      returndatacopy\n      revert(0x00, returndatasize)\n    tag_64:\n      pop\n      pop\n      pop\n      pop\n        /* \"Inju_Gambit/Hack.sol\":657:823  while (challengemanager.theChallenger() != address(this)) ... */\n      jump(tag_54)\n    tag_55:\n        /* \"Inju_Gambit/Hack.sol\":887:891  this */\n      address\n        /* \"Inju_Gambit/Hack.sol\":843:892  challengemanager.theChallenger() == address(this) */\n      0xffffffffffffffffffffffffffffffffffffffff\n      and\n        /* \"Inju_Gambit/Hack.sol\":843:859  challengemanager */\n      0x01\n      0x00\n      swap1\n      sload\n      swap1\n      0x0100\n      exp\n      swap1\n      div\n      0xffffffffffffffffffffffffffffffffffffffff\n      and\n        /* \"Inju_Gambit/Hack.sol\":843:873  challengemanager.theChallenger */\n      0xffffffffffffffffffffffffffffffffffffffff\n      and\n      0x458393ab\n        /* \"Inju_Gambit/Hack.sol\":843:875  challengemanager.theChallenger() */\n      mload(0x40)\n      dup2\n      0xffffffff\n      and\n      0xe0\n      shl\n      dup2\n      mstore\n      0x04\n      add\n      0x20\n      mload(0x40)\n      dup1\n      dup4\n      sub\n      dup2\n      dup7\n      gas\n      staticcall\n      iszero\n      dup1\n      iszero\n      tag_66\n      jumpi\n      returndatasize\n      0x00\n      dup1\n      returndatacopy\n      revert(0x00, returndatasize)\n    tag_66:\n      pop\n      pop\n      pop\n      pop\n      mload(0x40)\n      returndatasize\n      not(0x1f)\n      0x1f\n      dup3\n      add\n      and\n      dup3\n      add\n      dup1\n      0x40\n      mstore\n      pop\n      dup2\n      add\n      swap1\n      tag_67\n      swap2\n      swap1\n      tag_59\n      jump\t// in\n    tag_67:\n        /* \"Inju_Gambit/Hack.sol\":843:892  challengemanager.theChallenger() == address(this) */\n      0xffffffffffffffffffffffffffffffffffffffff\n      and\n      eq\n        /* \"Inju_Gambit/Hack.sol\":835:912  require(challengemanager.theChallenger() == address(this), \"Still not lucky\") */\n      tag_68\n      jumpi\n      mload(0x40)\n      0x08c379a000000000000000000000000000000000000000000000000000000000\n      dup2\n      mstore\n      0x04\n      add\n      tag_69\n      swap1\n      tag_70\n      jump\t// in\n    tag_69:\n      mload(0x40)\n      dup1\n      swap2\n      sub\n      swap1\n      revert\n    tag_68:\n        /* \"Inju_Gambit/Hack.sol\":575:920  function setTheChallenger(uint _challengerId, uint _strangerId) public {... */\n      pop\n      pop\n      jump\t// out\n        /* \"Inju_Gambit/Hack.sol\":145:173  Privileged public privileged */\n    tag_34:\n      0x00\n      dup1\n      sload\n      swap1\n      0x0100\n      exp\n      swap1\n      div\n      0xffffffffffffffffffffffffffffffffffffffff\n      and\n      dup2\n      jump\t// out\n        /* \"Inju_Gambit/Hack.sol\":416:567  function approach() payable public {... */\n    tag_38:\n        /* \"Inju_Gambit/Hack.sol\":483:490  5 ether */\n      0x4563918244f40000\n        /* \"Inju_Gambit/Hack.sol\":470:479  msg.value */\n      callvalue\n        /* \"Inju_Gambit/Hack.sol\":470:490  msg.value == 5 ether */\n      eq\n        /* \"Inju_Gambit/Hack.sol\":462:505  require(msg.value == 5 ether, \"Need 5 Eth\") */\n      tag_72\n      jumpi\n      mload(0x40)\n      0x08c379a000000000000000000000000000000000000000000000000000000000\n      dup2\n      mstore\n      0x04\n      add\n      tag_73\n      swap1\n      tag_74\n      jump\t// in\n    tag_73:\n      mload(0x40)\n      dup1\n      swap2\n      sub\n      swap1\n      revert\n    tag_72:\n        /* \"Inju_Gambit/Hack.sol\":516:532  challengemanager */\n      0x01\n      0x00\n      swap1\n      sload\n      swap1\n      0x0100\n      exp\n      swap1\n      div\n      0xffffffffffffffffffffffffffffffffffffffff\n      and\n        /* \"Inju_Gambit/Hack.sol\":516:541  challengemanager.approach */\n      0xffffffffffffffffffffffffffffffffffffffff\n      and\n      0xd3db0a39\n        /* \"Inju_Gambit/Hack.sol\":549:556  5 ether */\n      0x4563918244f40000\n        /* \"Inju_Gambit/Hack.sol\":516:559  challengemanager.approach{value: 5 ether}() */\n      mload(0x40)\n      dup3\n      0xffffffff\n      and\n      0xe0\n      shl\n      dup2\n      mstore\n      0x04\n      add\n      0x00\n      mload(0x40)\n      dup1\n      dup4\n      sub\n      dup2\n      dup6\n      dup9\n      dup1\n      extcodesize\n      iszero\n      dup1\n      iszero\n      tag_75\n      jumpi\n      0x00\n      dup1\n      revert\n    tag_75:\n      pop\n      gas\n      call\n      iszero\n      dup1\n      iszero\n      tag_77\n      jumpi\n      returndatasize\n      0x00\n      dup1\n      returndatacopy\n      revert(0x00, returndatasize)\n    tag_77:\n      pop\n      pop\n      pop\n      pop\n      pop\n        /* \"Inju_Gambit/Hack.sol\":416:567  function approach() payable public {... */\n      jump\t// out\n        /* \"Inju_Gambit/Hack.sol\":1192:1307  function getTheChallenger() public view returns (address){... */\n    tag_41:\n        /* \"Inju_Gambit/Hack.sol\":1241:1248  address */\n      0x00\n        /* \"Inju_Gambit/Hack.sol\":1267:1283  challengemanager */\n      0x01\n      0x00\n      swap1\n      sload\n      swap1\n      0x0100\n      exp\n      swap1\n      div\n      0xffffffffffffffffffffffffffffffffffffffff\n      and\n        /* \"Inju_Gambit/Hack.sol\":1267:1297  challengemanager.theChallenger */\n      0xffffffffffffffffffffffffffffffffffffffff\n      and\n      0x458393ab\n        /* \"Inju_Gambit/Hack.sol\":1267:1299  challengemanager.theChallenger() */\n      mload(0x40)\n      dup2\n      0xffffffff\n      and\n      0xe0\n      shl\n      dup2\n      mstore\n      0x04\n      add\n      0x20\n      mload(0x40)\n      dup1\n      dup4\n      sub\n      dup2\n      dup7\n      gas\n      staticcall\n      iszero\n      dup1\n      iszero\n      tag_80\n      jumpi\n      returndatasize\n      0x00\n      dup1\n      returndatacopy\n      revert(0x00, returndatasize)\n    tag_80:\n      pop\n      pop\n      pop\n      pop\n      mload(0x40)\n      returndatasize\n      not(0x1f)\n      0x1f\n      dup3\n      add\n      and\n      dup3\n      add\n      dup1\n      0x40\n      mstore\n      pop\n      dup2\n      add\n      swap1\n      tag_81\n      swap2\n      swap1\n      tag_59\n      jump\t// in\n    tag_81:\n        /* \"Inju_Gambit/Hack.sol\":1260:1299  return challengemanager.theChallenger() */\n      swap1\n      pop\n        /* \"Inju_Gambit/Hack.sol\":1192:1307  function getTheChallenger() public view returns (address){... */\n      swap1\n      jump\t// out\n    tag_45:\n      mload(0x40)\n      dup1\n      0xa0\n      add\n      0x40\n      mstore\n      dup1\n      and(0xffffffffffffffffffffffffffffffffffffffff, 0x00)\n      dup2\n      mstore\n      0x20\n      add\n      iszero(iszero(0x00))\n      dup2\n      mstore\n      0x20\n      add\n      iszero(iszero(0x00))\n      dup2\n      mstore\n      0x20\n      add\n      iszero(iszero(0x00))\n      dup2\n      mstore\n      0x20\n      add\n      iszero(iszero(0x00))\n      dup2\n      mstore\n      pop\n      swap1\n      jump\t// out\n        /* \"#utility.yul\":7:133   */\n    tag_82:\n        /* \"#utility.yul\":44:51   */\n      0x00\n        /* \"#utility.yul\":84:126   */\n      0xffffffffffffffffffffffffffffffffffffffff\n        /* \"#utility.yul\":77:82   */\n      dup3\n        /* \"#utility.yul\":73:127   */\n      and\n        /* \"#utility.yul\":62:127   */\n      swap1\n      pop\n        /* \"#utility.yul\":7:133   */\n      swap2\n      swap1\n      pop\n      jump\t// out\n        /* \"#utility.yul\":139:235   */\n    tag_83:\n        /* \"#utility.yul\":176:183   */\n      0x00\n        /* \"#utility.yul\":205:229   */\n      tag_122\n        /* \"#utility.yul\":223:228   */\n      dup3\n        /* \"#utility.yul\":205:229   */\n      tag_82\n      jump\t// in\n    tag_122:\n        /* \"#utility.yul\":194:229   */\n      swap1\n      pop\n        /* \"#utility.yul\":139:235   */\n      swap2\n      swap1\n      pop\n      jump\t// out\n        /* \"#utility.yul\":241:359   */\n    tag_84:\n        /* \"#utility.yul\":328:352   */\n      tag_124\n        /* \"#utility.yul\":346:351   */\n      dup2\n        /* \"#utility.yul\":328:352   */\n      tag_83\n      jump\t// in\n    tag_124:\n        /* \"#utility.yul\":323:326   */\n      dup3\n        /* \"#utility.yul\":316:353   */\n      mstore\n        /* \"#utility.yul\":241:359   */\n      pop\n      pop\n      jump\t// out\n        /* \"#utility.yul\":365:587   */\n    tag_14:\n        /* \"#utility.yul\":458:462   */\n      0x00\n        /* \"#utility.yul\":496:498   */\n      0x20\n        /* \"#utility.yul\":485:494   */\n      dup3\n        /* \"#utility.yul\":481:499   */\n      add\n        /* \"#utility.yul\":473:499   */\n      swap1\n      pop\n        /* \"#utility.yul\":509:580   */\n      tag_126\n        /* \"#utility.yul\":577:578   */\n      0x00\n        /* \"#utility.yul\":566:575   */\n      dup4\n        /* \"#utility.yul\":562:579   */\n      add\n        /* \"#utility.yul\":553:559   */\n      dup5\n        /* \"#utility.yul\":509:580   */\n      tag_84\n      jump\t// in\n    tag_126:\n        /* \"#utility.yul\":365:587   */\n      swap3\n      swap2\n      pop\n      pop\n      jump\t// out\n        /* \"#utility.yul\":593:653   */\n    tag_85:\n        /* \"#utility.yul\":621:624   */\n      0x00\n        /* \"#utility.yul\":642:647   */\n      dup2\n        /* \"#utility.yul\":635:647   */\n      swap1\n      pop\n        /* \"#utility.yul\":593:653   */\n      swap2\n      swap1\n      pop\n      jump\t// out\n        /* \"#utility.yul\":659:801   */\n    tag_86:\n        /* \"#utility.yul\":709:718   */\n      0x00\n        /* \"#utility.yul\":742:795   */\n      tag_129\n        /* \"#utility.yul\":760:794   */\n      tag_130\n        /* \"#utility.yul\":769:793   */\n      tag_131\n        /* \"#utility.yul\":787:792   */\n      dup5\n        /* \"#utility.yul\":769:793   */\n      tag_82\n      jump\t// in\n    tag_131:\n        /* \"#utility.yul\":760:794   */\n      tag_85\n      jump\t// in\n    tag_130:\n        /* \"#utility.yul\":742:795   */\n      tag_82\n      jump\t// in\n    tag_129:\n        /* \"#utility.yul\":729:795   */\n      swap1\n      pop\n        /* \"#utility.yul\":659:801   */\n      swap2\n      swap1\n      pop\n      jump\t// out\n        /* \"#utility.yul\":807:933   */\n    tag_87:\n        /* \"#utility.yul\":857:866   */\n      0x00\n        /* \"#utility.yul\":890:927   */\n      tag_133\n        /* \"#utility.yul\":921:926   */\n      dup3\n        /* \"#utility.yul\":890:927   */\n      tag_86\n      jump\t// in\n    tag_133:\n        /* \"#utility.yul\":877:927   */\n      swap1\n      pop\n        /* \"#utility.yul\":807:933   */\n      swap2\n      swap1\n      pop\n      jump\t// out\n        /* \"#utility.yul\":939:1089   */\n    tag_88:\n        /* \"#utility.yul\":1013:1022   */\n      0x00\n        /* \"#utility.yul\":1046:1083   */\n      tag_135\n        /* \"#utility.yul\":1077:1082   */\n      dup3\n        /* \"#utility.yul\":1046:1083   */\n      tag_87\n      jump\t// in\n    tag_135:\n        /* \"#utility.yul\":1033:1083   */\n      swap1\n      pop\n        /* \"#utility.yul\":939:1089   */\n      swap2\n      swap1\n      pop\n      jump\t// out\n        /* \"#utility.yul\":1095:1274   */\n    tag_89:\n        /* \"#utility.yul\":1206:1267   */\n      tag_137\n        /* \"#utility.yul\":1261:1266   */\n      dup2\n        /* \"#utility.yul\":1206:1267   */\n      tag_88\n      jump\t// in\n    tag_137:\n        /* \"#utility.yul\":1201:1204   */\n      dup3\n        /* \"#utility.yul\":1194:1268   */\n      mstore\n        /* \"#utility.yul\":1095:1274   */\n      pop\n      pop\n      jump\t// out\n        /* \"#utility.yul\":1280:1550   */\n    tag_19:\n        /* \"#utility.yul\":1397:1401   */\n      0x00\n        /* \"#utility.yul\":1435:1437   */\n      0x20\n        /* \"#utility.yul\":1424:1433   */\n      dup3\n        /* \"#utility.yul\":1420:1438   */\n      add\n        /* \"#utility.yul\":1412:1438   */\n      swap1\n      pop\n        /* \"#utility.yul\":1448:1543   */\n      tag_139\n        /* \"#utility.yul\":1540:1541   */\n      0x00\n        /* \"#utility.yul\":1529:1538   */\n      dup4\n        /* \"#utility.yul\":1525:1542   */\n      add\n        /* \"#utility.yul\":1516:1522   */\n      dup5\n        /* \"#utility.yul\":1448:1543   */\n      tag_89\n      jump\t// in\n    tag_139:\n        /* \"#utility.yul\":1280:1550   */\n      swap3\n      swap2\n      pop\n      pop\n      jump\t// out\n        /* \"#utility.yul\":1556:1631   */\n    tag_90:\n        /* \"#utility.yul\":1589:1595   */\n      0x00\n        /* \"#utility.yul\":1622:1624   */\n      0x40\n        /* \"#utility.yul\":1616:1625   */\n      mload\n        /* \"#utility.yul\":1606:1625   */\n      swap1\n      pop\n        /* \"#utility.yul\":1556:1631   */\n      swap1\n      jump\t// out\n        /* \"#utility.yul\":1637:1754   */\n    tag_91:\n        /* \"#utility.yul\":1746:1747   */\n      0x00\n        /* \"#utility.yul\":1743:1744   */\n      dup1\n        /* \"#utility.yul\":1736:1748   */\n      revert\n        /* \"#utility.yul\":1883:1960   */\n    tag_93:\n        /* \"#utility.yul\":1920:1927   */\n      0x00\n        /* \"#utility.yul\":1949:1954   */\n      dup2\n        /* \"#utility.yul\":1938:1954   */\n      swap1\n      pop\n        /* \"#utility.yul\":1883:1960   */\n      swap2\n      swap1\n      pop\n      jump\t// out\n        /* \"#utility.yul\":1966:2088   */\n    tag_94:\n        /* \"#utility.yul\":2039:2063   */\n      tag_145\n        /* \"#utility.yul\":2057:2062   */\n      dup2\n        /* \"#utility.yul\":2039:2063   */\n      tag_93\n      jump\t// in\n    tag_145:\n        /* \"#utility.yul\":2032:2037   */\n      dup2\n        /* \"#utility.yul\":2029:2064   */\n      eq\n        /* \"#utility.yul\":2019:2082   */\n      tag_146\n      jumpi\n        /* \"#utility.yul\":2078:2079   */\n      0x00\n        /* \"#utility.yul\":2075:2076   */\n      dup1\n        /* \"#utility.yul\":2068:2080   */\n      revert\n        /* \"#utility.yul\":2019:2082   */\n    tag_146:\n        /* \"#utility.yul\":1966:2088   */\n      pop\n      jump\t// out\n        /* \"#utility.yul\":2094:2233   */\n    tag_95:\n        /* \"#utility.yul\":2140:2145   */\n      0x00\n        /* \"#utility.yul\":2178:2184   */\n      dup2\n        /* \"#utility.yul\":2165:2185   */\n      calldataload\n        /* \"#utility.yul\":2156:2185   */\n      swap1\n      pop\n        /* \"#utility.yul\":2194:2227   */\n      tag_148\n        /* \"#utility.yul\":2221:2226   */\n      dup2\n        /* \"#utility.yul\":2194:2227   */\n      tag_94\n      jump\t// in\n    tag_148:\n        /* \"#utility.yul\":2094:2233   */\n      swap3\n      swap2\n      pop\n      pop\n      jump\t// out\n        /* \"#utility.yul\":2239:2568   */\n    tag_23:\n        /* \"#utility.yul\":2298:2304   */\n      0x00\n        /* \"#utility.yul\":2347:2349   */\n      0x20\n        /* \"#utility.yul\":2335:2344   */\n      dup3\n        /* \"#utility.yul\":2326:2333   */\n      dup5\n        /* \"#utility.yul\":2322:2345   */\n      sub\n        /* \"#utility.yul\":2318:2350   */\n      slt\n        /* \"#utility.yul\":2315:2434   */\n      iszero\n      tag_150\n      jumpi\n        /* \"#utility.yul\":2353:2432   */\n      tag_151\n      tag_91\n      jump\t// in\n    tag_151:\n        /* \"#utility.yul\":2315:2434   */\n    tag_150:\n        /* \"#utility.yul\":2473:2474   */\n      0x00\n        /* \"#utility.yul\":2498:2551   */\n      tag_152\n        /* \"#utility.yul\":2543:2550   */\n      dup5\n        /* \"#utility.yul\":2534:2540   */\n      dup3\n        /* \"#utility.yul\":2523:2532   */\n      dup6\n        /* \"#utility.yul\":2519:2541   */\n      add\n        /* \"#utility.yul\":2498:2551   */\n      tag_95\n      jump\t// in\n    tag_152:\n        /* \"#utility.yul\":2488:2551   */\n      swap2\n      pop\n        /* \"#utility.yul\":2444:2561   */\n      pop\n        /* \"#utility.yul\":2239:2568   */\n      swap3\n      swap2\n      pop\n      pop\n      jump\t// out\n        /* \"#utility.yul\":2574:2682   */\n    tag_96:\n        /* \"#utility.yul\":2651:2675   */\n      tag_154\n        /* \"#utility.yul\":2669:2674   */\n      dup2\n        /* \"#utility.yul\":2651:2675   */\n      tag_83\n      jump\t// in\n    tag_154:\n        /* \"#utility.yul\":2646:2649   */\n      dup3\n        /* \"#utility.yul\":2639:2676   */\n      mstore\n        /* \"#utility.yul\":2574:2682   */\n      pop\n      pop\n      jump\t// out\n        /* \"#utility.yul\":2688:2778   */\n    tag_97:\n        /* \"#utility.yul\":2722:2729   */\n      0x00\n        /* \"#utility.yul\":2765:2770   */\n      dup2\n        /* \"#utility.yul\":2758:2771   */\n      iszero\n        /* \"#utility.yul\":2751:2772   */\n      iszero\n        /* \"#utility.yul\":2740:2772   */\n      swap1\n      pop\n        /* \"#utility.yul\":2688:2778   */\n      swap2\n      swap1\n      pop\n      jump\t// out\n        /* \"#utility.yul\":2784:2883   */\n    tag_98:\n        /* \"#utility.yul\":2855:2876   */\n      tag_157\n        /* \"#utility.yul\":2870:2875   */\n      dup2\n        /* \"#utility.yul\":2855:2876   */\n      tag_97\n      jump\t// in\n    tag_157:\n        /* \"#utility.yul\":2850:2853   */\n      dup3\n        /* \"#utility.yul\":2843:2877   */\n      mstore\n        /* \"#utility.yul\":2784:2883   */\n      pop\n      pop\n      jump\t// out\n        /* \"#utility.yul\":2979:4040   */\n    tag_99:\n        /* \"#utility.yul\":3152:3156   */\n      0xa0\n        /* \"#utility.yul\":3147:3150   */\n      dup3\n        /* \"#utility.yul\":3143:3157   */\n      add\n        /* \"#utility.yul\":3245:3249   */\n      0x00\n        /* \"#utility.yul\":3238:3243   */\n      dup3\n        /* \"#utility.yul\":3234:3250   */\n      add\n        /* \"#utility.yul\":3228:3251   */\n      mload\n        /* \"#utility.yul\":3264:3327   */\n      tag_159\n        /* \"#utility.yul\":3321:3325   */\n      0x00\n        /* \"#utility.yul\":3316:3319   */\n      dup6\n        /* \"#utility.yul\":3312:3326   */\n      add\n        /* \"#utility.yul\":3298:3310   */\n      dup3\n        /* \"#utility.yul\":3264:3327   */\n      tag_96\n      jump\t// in\n    tag_159:\n        /* \"#utility.yul\":3167:3337   */\n      pop\n        /* \"#utility.yul\":3421:3425   */\n      0x20\n        /* \"#utility.yul\":3414:3419   */\n      dup3\n        /* \"#utility.yul\":3410:3426   */\n      add\n        /* \"#utility.yul\":3404:3427   */\n      mload\n        /* \"#utility.yul\":3440:3497   */\n      tag_160\n        /* \"#utility.yul\":3491:3495   */\n      0x20\n        /* \"#utility.yul\":3486:3489   */\n      dup6\n        /* \"#utility.yul\":3482:3496   */\n      add\n        /* \"#utility.yul\":3468:3480   */\n      dup3\n        /* \"#utility.yul\":3440:3497   */\n      tag_98\n      jump\t// in\n    tag_160:\n        /* \"#utility.yul\":3347:3507   */\n      pop\n        /* \"#utility.yul\":3596:3600   */\n      0x40\n        /* \"#utility.yul\":3589:3594   */\n      dup3\n        /* \"#utility.yul\":3585:3601   */\n      add\n        /* \"#utility.yul\":3579:3602   */\n      mload\n        /* \"#utility.yul\":3615:3672   */\n      tag_161\n        /* \"#utility.yul\":3666:3670   */\n      0x40\n        /* \"#utility.yul\":3661:3664   */\n      dup6\n        /* \"#utility.yul\":3657:3671   */\n      add\n        /* \"#utility.yul\":3643:3655   */\n      dup3\n        /* \"#utility.yul\":3615:3672   */\n      tag_98\n      jump\t// in\n    tag_161:\n        /* \"#utility.yul\":3517:3682   */\n      pop\n        /* \"#utility.yul\":3773:3777   */\n      0x60\n        /* \"#utility.yul\":3766:3771   */\n      dup3\n        /* \"#utility.yul\":3762:3778   */\n      add\n        /* \"#utility.yul\":3756:3779   */\n      mload\n        /* \"#utility.yul\":3792:3849   */\n      tag_162\n        /* \"#utility.yul\":3843:3847   */\n      0x60\n        /* \"#utility.yul\":3838:3841   */\n      dup6\n        /* \"#utility.yul\":3834:3848   */\n      add\n        /* \"#utility.yul\":3820:3832   */\n      dup3\n        /* \"#utility.yul\":3792:3849   */\n      tag_98\n      jump\t// in\n    tag_162:\n        /* \"#utility.yul\":3692:3859   */\n      pop\n        /* \"#utility.yul\":3947:3951   */\n      0x80\n        /* \"#utility.yul\":3940:3945   */\n      dup3\n        /* \"#utility.yul\":3936:3952   */\n      add\n        /* \"#utility.yul\":3930:3953   */\n      mload\n        /* \"#utility.yul\":3966:4023   */\n      tag_163\n        /* \"#utility.yul\":4017:4021   */\n      0x80\n        /* \"#utility.yul\":4012:4015   */\n      dup6\n        /* \"#utility.yul\":4008:4022   */\n      add\n        /* \"#utility.yul\":3994:4006   */\n      dup3\n        /* \"#utility.yul\":3966:4023   */\n      tag_98\n      jump\t// in\n    tag_163:\n        /* \"#utility.yul\":3869:4033   */\n      pop\n        /* \"#utility.yul\":3121:4040   */\n      pop\n        /* \"#utility.yul\":2979:4040   */\n      pop\n      pop\n      jump\t// out\n        /* \"#utility.yul\":4046:4421   */\n    tag_26:\n        /* \"#utility.yul\":4215:4219   */\n      0x00\n        /* \"#utility.yul\":4253:4256   */\n      0xa0\n        /* \"#utility.yul\":4242:4251   */\n      dup3\n        /* \"#utility.yul\":4238:4257   */\n      add\n        /* \"#utility.yul\":4230:4257   */\n      swap1\n      pop\n        /* \"#utility.yul\":4267:4414   */\n      tag_165\n        /* \"#utility.yul\":4411:4412   */\n      0x00\n        /* \"#utility.yul\":4400:4409   */\n      dup4\n        /* \"#utility.yul\":4396:4413   */\n      add\n        /* \"#utility.yul\":4387:4393   */\n      dup5\n        /* \"#utility.yul\":4267:4414   */\n      tag_99\n      jump\t// in\n    tag_165:\n        /* \"#utility.yul\":4046:4421   */\n      swap3\n      swap2\n      pop\n      pop\n      jump\t// out\n        /* \"#utility.yul\":4427:4901   */\n    tag_30:\n        /* \"#utility.yul\":4495:4501   */\n      0x00\n        /* \"#utility.yul\":4503:4509   */\n      dup1\n        /* \"#utility.yul\":4552:4554   */\n      0x40\n        /* \"#utility.yul\":4540:4549   */\n      dup4\n        /* \"#utility.yul\":4531:4538   */\n      dup6\n        /* \"#utility.yul\":4527:4550   */\n      sub\n        /* \"#utility.yul\":4523:4555   */\n      slt\n        /* \"#utility.yul\":4520:4639   */\n      iszero\n      tag_167\n      jumpi\n        /* \"#utility.yul\":4558:4637   */\n      tag_168\n      tag_91\n      jump\t// in\n    tag_168:\n        /* \"#utility.yul\":4520:4639   */\n    tag_167:\n        /* \"#utility.yul\":4678:4679   */\n      0x00\n        /* \"#utility.yul\":4703:4756   */\n      tag_169\n        /* \"#utility.yul\":4748:4755   */\n      dup6\n        /* \"#utility.yul\":4739:4745   */\n      dup3\n        /* \"#utility.yul\":4728:4737   */\n      dup7\n        /* \"#utility.yul\":4724:4746   */\n      add\n        /* \"#utility.yul\":4703:4756   */\n      tag_95\n      jump\t// in\n    tag_169:\n        /* \"#utility.yul\":4693:4756   */\n      swap3\n      pop\n        /* \"#utility.yul\":4649:4766   */\n      pop\n        /* \"#utility.yul\":4805:4807   */\n      0x20\n        /* \"#utility.yul\":4831:4884   */\n      tag_170\n        /* \"#utility.yul\":4876:4883   */\n      dup6\n        /* \"#utility.yul\":4867:4873   */\n      dup3\n        /* \"#utility.yul\":4856:4865   */\n      dup7\n        /* \"#utility.yul\":4852:4874   */\n      add\n        /* \"#utility.yul\":4831:4884   */\n      tag_95\n      jump\t// in\n    tag_170:\n        /* \"#utility.yul\":4821:4884   */\n      swap2\n      pop\n        /* \"#utility.yul\":4776:4894   */\n      pop\n        /* \"#utility.yul\":4427:4901   */\n      swap3\n      pop\n      swap3\n      swap1\n      pop\n      jump\t// out\n        /* \"#utility.yul\":4907:5051   */\n    tag_100:\n        /* \"#utility.yul\":4975:4984   */\n      0x00\n        /* \"#utility.yul\":5008:5045   */\n      tag_172\n        /* \"#utility.yul\":5039:5044   */\n      dup3\n        /* \"#utility.yul\":5008:5045   */\n      tag_87\n      jump\t// in\n    tag_172:\n        /* \"#utility.yul\":4995:5045   */\n      swap1\n      pop\n        /* \"#utility.yul\":4907:5051   */\n      swap2\n      swap1\n      pop\n      jump\t// out\n        /* \"#utility.yul\":5057:5224   */\n    tag_101:\n        /* \"#utility.yul\":5162:5217   */\n      tag_174\n        /* \"#utility.yul\":5211:5216   */\n      dup2\n        /* \"#utility.yul\":5162:5217   */\n      tag_100\n      jump\t// in\n    tag_174:\n        /* \"#utility.yul\":5157:5160   */\n      dup3\n        /* \"#utility.yul\":5150:5218   */\n      mstore\n        /* \"#utility.yul\":5057:5224   */\n      pop\n      pop\n      jump\t// out\n        /* \"#utility.yul\":5230:5488   */\n    tag_36:\n        /* \"#utility.yul\":5341:5345   */\n      0x00\n        /* \"#utility.yul\":5379:5381   */\n      0x20\n        /* \"#utility.yul\":5368:5377   */\n      dup3\n        /* \"#utility.yul\":5364:5382   */\n      add\n        /* \"#utility.yul\":5356:5382   */\n      swap1\n      pop\n        /* \"#utility.yul\":5392:5481   */\n      tag_176\n        /* \"#utility.yul\":5478:5479   */\n      0x00\n        /* \"#utility.yul\":5467:5476   */\n      dup4\n        /* \"#utility.yul\":5463:5480   */\n      add\n        /* \"#utility.yul\":5454:5460   */\n      dup5\n        /* \"#utility.yul\":5392:5481   */\n      tag_101\n      jump\t// in\n    tag_176:\n        /* \"#utility.yul\":5230:5488   */\n      swap3\n      swap2\n      pop\n      pop\n      jump\t// out\n        /* \"#utility.yul\":5494:5612   */\n    tag_102:\n        /* \"#utility.yul\":5581:5605   */\n      tag_178\n        /* \"#utility.yul\":5599:5604   */\n      dup2\n        /* \"#utility.yul\":5581:5605   */\n      tag_93\n      jump\t// in\n    tag_178:\n        /* \"#utility.yul\":5576:5579   */\n      dup3\n        /* \"#utility.yul\":5569:5606   */\n      mstore\n        /* \"#utility.yul\":5494:5612   */\n      pop\n      pop\n      jump\t// out\n        /* \"#utility.yul\":5618:5840   */\n    tag_48:\n        /* \"#utility.yul\":5711:5715   */\n      0x00\n        /* \"#utility.yul\":5749:5751   */\n      0x20\n        /* \"#utility.yul\":5738:5747   */\n      dup3\n        /* \"#utility.yul\":5734:5752   */\n      add\n        /* \"#utility.yul\":5726:5752   */\n      swap1\n      pop\n        /* \"#utility.yul\":5762:5833   */\n      tag_180\n        /* \"#utility.yul\":5830:5831   */\n      0x00\n        /* \"#utility.yul\":5819:5828   */\n      dup4\n        /* \"#utility.yul\":5815:5832   */\n      add\n        /* \"#utility.yul\":5806:5812   */\n      dup5\n        /* \"#utility.yul\":5762:5833   */\n      tag_102\n      jump\t// in\n    tag_180:\n        /* \"#utility.yul\":5618:5840   */\n      swap3\n      swap2\n      pop\n      pop\n      jump\t// out\n        /* \"#utility.yul\":5846:5963   */\n    tag_103:\n        /* \"#utility.yul\":5955:5956   */\n      0x00\n        /* \"#utility.yul\":5952:5953   */\n      dup1\n        /* \"#utility.yul\":5945:5957   */\n      revert\n        /* \"#utility.yul\":5969:6071   */\n    tag_104:\n        /* \"#utility.yul\":6010:6016   */\n      0x00\n        /* \"#utility.yul\":6061:6063   */\n      0x1f\n        /* \"#utility.yul\":6057:6064   */\n      not\n        /* \"#utility.yul\":6052:6054   */\n      0x1f\n        /* \"#utility.yul\":6045:6050   */\n      dup4\n        /* \"#utility.yul\":6041:6055   */\n      add\n        /* \"#utility.yul\":6037:6065   */\n      and\n        /* \"#utility.yul\":6027:6065   */\n      swap1\n      pop\n        /* \"#utility.yul\":5969:6071   */\n      swap2\n      swap1\n      pop\n      jump\t// out\n        /* \"#utility.yul\":6077:6257   */\n    tag_105:\n        /* \"#utility.yul\":6125:6202   */\n      0x4e487b7100000000000000000000000000000000000000000000000000000000\n        /* \"#utility.yul\":6122:6123   */\n      0x00\n        /* \"#utility.yul\":6115:6203   */\n      mstore\n        /* \"#utility.yul\":6222:6226   */\n      0x41\n        /* \"#utility.yul\":6219:6220   */\n      0x04\n        /* \"#utility.yul\":6212:6227   */\n      mstore\n        /* \"#utility.yul\":6246:6250   */\n      0x24\n        /* \"#utility.yul\":6243:6244   */\n      0x00\n        /* \"#utility.yul\":6236:6251   */\n      revert\n        /* \"#utility.yul\":6263:6544   */\n    tag_106:\n        /* \"#utility.yul\":6346:6373   */\n      tag_185\n        /* \"#utility.yul\":6368:6372   */\n      dup3\n        /* \"#utility.yul\":6346:6373   */\n      tag_104\n      jump\t// in\n    tag_185:\n        /* \"#utility.yul\":6338:6344   */\n      dup2\n        /* \"#utility.yul\":6334:6374   */\n      add\n        /* \"#utility.yul\":6476:6482   */\n      dup2\n        /* \"#utility.yul\":6464:6474   */\n      dup2\n        /* \"#utility.yul\":6461:6483   */\n      lt\n        /* \"#utility.yul\":6440:6458   */\n      0xffffffffffffffff\n        /* \"#utility.yul\":6428:6438   */\n      dup3\n        /* \"#utility.yul\":6425:6459   */\n      gt\n        /* \"#utility.yul\":6422:6484   */\n      or\n        /* \"#utility.yul\":6419:6507   */\n      iszero\n      tag_186\n      jumpi\n        /* \"#utility.yul\":6487:6505   */\n      tag_187\n      tag_105\n      jump\t// in\n    tag_187:\n        /* \"#utility.yul\":6419:6507   */\n    tag_186:\n        /* \"#utility.yul\":6527:6537   */\n      dup1\n        /* \"#utility.yul\":6523:6525   */\n      0x40\n        /* \"#utility.yul\":6516:6538   */\n      mstore\n        /* \"#utility.yul\":6306:6544   */\n      pop\n        /* \"#utility.yul\":6263:6544   */\n      pop\n      pop\n      jump\t// out\n        /* \"#utility.yul\":6550:6679   */\n    tag_107:\n        /* \"#utility.yul\":6584:6590   */\n      0x00\n        /* \"#utility.yul\":6611:6631   */\n      tag_189\n      tag_90\n      jump\t// in\n    tag_189:\n        /* \"#utility.yul\":6601:6631   */\n      swap1\n      pop\n        /* \"#utility.yul\":6640:6673   */\n      tag_190\n        /* \"#utility.yul\":6668:6672   */\n      dup3\n        /* \"#utility.yul\":6660:6666   */\n      dup3\n        /* \"#utility.yul\":6640:6673   */\n      tag_106\n      jump\t// in\n    tag_190:\n        /* \"#utility.yul\":6550:6679   */\n      swap2\n      swap1\n      pop\n      jump\t// out\n        /* \"#utility.yul\":6808:6930   */\n    tag_109:\n        /* \"#utility.yul\":6881:6905   */\n      tag_193\n        /* \"#utility.yul\":6899:6904   */\n      dup2\n        /* \"#utility.yul\":6881:6905   */\n      tag_83\n      jump\t// in\n    tag_193:\n        /* \"#utility.yul\":6874:6879   */\n      dup2\n        /* \"#utility.yul\":6871:6906   */\n      eq\n        /* \"#utility.yul\":6861:6924   */\n      tag_194\n      jumpi\n        /* \"#utility.yul\":6920:6921   */\n      0x00\n        /* \"#utility.yul\":6917:6918   */\n      dup1\n        /* \"#utility.yul\":6910:6922   */\n      revert\n        /* \"#utility.yul\":6861:6924   */\n    tag_194:\n        /* \"#utility.yul\":6808:6930   */\n      pop\n      jump\t// out\n        /* \"#utility.yul\":6936:7079   */\n    tag_110:\n        /* \"#utility.yul\":6993:6998   */\n      0x00\n        /* \"#utility.yul\":7024:7030   */\n      dup2\n        /* \"#utility.yul\":7018:7031   */\n      mload\n        /* \"#utility.yul\":7009:7031   */\n      swap1\n      pop\n        /* \"#utility.yul\":7040:7073   */\n      tag_196\n        /* \"#utility.yul\":7067:7072   */\n      dup2\n        /* \"#utility.yul\":7040:7073   */\n      tag_109\n      jump\t// in\n    tag_196:\n        /* \"#utility.yul\":6936:7079   */\n      swap3\n      swap2\n      pop\n      pop\n      jump\t// out\n        /* \"#utility.yul\":7085:7201   */\n    tag_111:\n        /* \"#utility.yul\":7155:7176   */\n      tag_198\n        /* \"#utility.yul\":7170:7175   */\n      dup2\n        /* \"#utility.yul\":7155:7176   */\n      tag_97\n      jump\t// in\n    tag_198:\n        /* \"#utility.yul\":7148:7153   */\n      dup2\n        /* \"#utility.yul\":7145:7177   */\n      eq\n        /* \"#utility.yul\":7135:7195   */\n      tag_199\n      jumpi\n        /* \"#utility.yul\":7191:7192   */\n      0x00\n        /* \"#utility.yul\":7188:7189   */\n      dup1\n        /* \"#utility.yul\":7181:7193   */\n      revert\n        /* \"#utility.yul\":7135:7195   */\n    tag_199:\n        /* \"#utility.yul\":7085:7201   */\n      pop\n      jump\t// out\n        /* \"#utility.yul\":7207:7344   */\n    tag_112:\n        /* \"#utility.yul\":7261:7266   */\n      0x00\n        /* \"#utility.yul\":7292:7298   */\n      dup2\n        /* \"#utility.yul\":7286:7299   */\n      mload\n        /* \"#utility.yul\":7277:7299   */\n      swap1\n      pop\n        /* \"#utility.yul\":7308:7338   */\n      tag_201\n        /* \"#utility.yul\":7332:7337   */\n      dup2\n        /* \"#utility.yul\":7308:7338   */\n      tag_111\n      jump\t// in\n    tag_201:\n        /* \"#utility.yul\":7207:7344   */\n      swap3\n      swap2\n      pop\n      pop\n      jump\t// out\n        /* \"#utility.yul\":7397:8552   */\n    tag_113:\n        /* \"#utility.yul\":7495:7500   */\n      0x00\n        /* \"#utility.yul\":7539:7543   */\n      0xa0\n        /* \"#utility.yul\":7527:7536   */\n      dup3\n        /* \"#utility.yul\":7522:7525   */\n      dup5\n        /* \"#utility.yul\":7518:7537   */\n      sub\n        /* \"#utility.yul\":7514:7544   */\n      slt\n        /* \"#utility.yul\":7511:7628   */\n      iszero\n      tag_203\n      jumpi\n        /* \"#utility.yul\":7547:7626   */\n      tag_204\n      tag_103\n      jump\t// in\n    tag_204:\n        /* \"#utility.yul\":7511:7628   */\n    tag_203:\n        /* \"#utility.yul\":7646:7667   */\n      tag_205\n        /* \"#utility.yul\":7662:7666   */\n      0xa0\n        /* \"#utility.yul\":7646:7667   */\n      tag_107\n      jump\t// in\n    tag_205:\n        /* \"#utility.yul\":7637:7667   */\n      swap1\n      pop\n        /* \"#utility.yul\":7732:7733   */\n      0x00\n        /* \"#utility.yul\":7772:7832   */\n      tag_206\n        /* \"#utility.yul\":7828:7831   */\n      dup5\n        /* \"#utility.yul\":7819:7825   */\n      dup3\n        /* \"#utility.yul\":7808:7817   */\n      dup6\n        /* \"#utility.yul\":7804:7826   */\n      add\n        /* \"#utility.yul\":7772:7832   */\n      tag_110\n      jump\t// in\n    tag_206:\n        /* \"#utility.yul\":7765:7769   */\n      0x00\n        /* \"#utility.yul\":7758:7763   */\n      dup4\n        /* \"#utility.yul\":7754:7770   */\n      add\n        /* \"#utility.yul\":7747:7833   */\n      mstore\n        /* \"#utility.yul\":7677:7844   */\n      pop\n        /* \"#utility.yul\":7905:7907   */\n      0x20\n        /* \"#utility.yul\":7946:8003   */\n      tag_207\n        /* \"#utility.yul\":7999:8002   */\n      dup5\n        /* \"#utility.yul\":7990:7996   */\n      dup3\n        /* \"#utility.yul\":7979:7988   */\n      dup6\n        /* \"#utility.yul\":7975:7997   */\n      add\n        /* \"#utility.yul\":7946:8003   */\n      tag_112\n      jump\t// in\n    tag_207:\n        /* \"#utility.yul\":7939:7943   */\n      0x20\n        /* \"#utility.yul\":7932:7937   */\n      dup4\n        /* \"#utility.yul\":7928:7944   */\n      add\n        /* \"#utility.yul\":7921:8004   */\n      mstore\n        /* \"#utility.yul\":7854:8015   */\n      pop\n        /* \"#utility.yul\":8081:8083   */\n      0x40\n        /* \"#utility.yul\":8122:8179   */\n      tag_208\n        /* \"#utility.yul\":8175:8178   */\n      dup5\n        /* \"#utility.yul\":8166:8172   */\n      dup3\n        /* \"#utility.yul\":8155:8164   */\n      dup6\n        /* \"#utility.yul\":8151:8173   */\n      add\n        /* \"#utility.yul\":8122:8179   */\n      tag_112\n      jump\t// in\n    tag_208:\n        /* \"#utility.yul\":8115:8119   */\n      0x40\n        /* \"#utility.yul\":8108:8113   */\n      dup4\n        /* \"#utility.yul\":8104:8120   */\n      add\n        /* \"#utility.yul\":8097:8180   */\n      mstore\n        /* \"#utility.yul\":8025:8191   */\n      pop\n        /* \"#utility.yul\":8259:8261   */\n      0x60\n        /* \"#utility.yul\":8300:8357   */\n      tag_209\n        /* \"#utility.yul\":8353:8356   */\n      dup5\n        /* \"#utility.yul\":8344:8350   */\n      dup3\n        /* \"#utility.yul\":8333:8342   */\n      dup6\n        /* \"#utility.yul\":8329:8351   */\n      add\n        /* \"#utility.yul\":8300:8357   */\n      tag_112\n      jump\t// in\n    tag_209:\n        /* \"#utility.yul\":8293:8297   */\n      0x60\n        /* \"#utility.yul\":8286:8291   */\n      dup4\n        /* \"#utility.yul\":8282:8298   */\n      add\n        /* \"#utility.yul\":8275:8358   */\n      mstore\n        /* \"#utility.yul\":8201:8369   */\n      pop\n        /* \"#utility.yul\":8434:8437   */\n      0x80\n        /* \"#utility.yul\":8476:8533   */\n      tag_210\n        /* \"#utility.yul\":8529:8532   */\n      dup5\n        /* \"#utility.yul\":8520:8526   */\n      dup3\n        /* \"#utility.yul\":8509:8518   */\n      dup6\n        /* \"#utility.yul\":8505:8527   */\n      add\n        /* \"#utility.yul\":8476:8533   */\n      tag_112\n      jump\t// in\n    tag_210:\n        /* \"#utility.yul\":8469:8473   */\n      0x80\n        /* \"#utility.yul\":8462:8467   */\n      dup4\n        /* \"#utility.yul\":8458:8474   */\n      add\n        /* \"#utility.yul\":8451:8534   */\n      mstore\n        /* \"#utility.yul\":8379:8545   */\n      pop\n        /* \"#utility.yul\":7397:8552   */\n      swap3\n      swap2\n      pop\n      pop\n      jump\t// out\n        /* \"#utility.yul\":8558:8986   */\n    tag_52:\n        /* \"#utility.yul\":8666:8672   */\n      0x00\n        /* \"#utility.yul\":8715:8718   */\n      0xa0\n        /* \"#utility.yul\":8703:8712   */\n      dup3\n        /* \"#utility.yul\":8694:8701   */\n      dup5\n        /* \"#utility.yul\":8690:8713   */\n      sub\n        /* \"#utility.yul\":8686:8719   */\n      slt\n        /* \"#utility.yul\":8683:8803   */\n      iszero\n      tag_212\n      jumpi\n        /* \"#utility.yul\":8722:8801   */\n      tag_213\n      tag_91\n      jump\t// in\n    tag_213:\n        /* \"#utility.yul\":8683:8803   */\n    tag_212:\n        /* \"#utility.yul\":8842:8843   */\n      0x00\n        /* \"#utility.yul\":8867:8969   */\n      tag_214\n        /* \"#utility.yul\":8961:8968   */\n      dup5\n        /* \"#utility.yul\":8952:8958   */\n      dup3\n        /* \"#utility.yul\":8941:8950   */\n      dup6\n        /* \"#utility.yul\":8937:8959   */\n      add\n        /* \"#utility.yul\":8867:8969   */\n      tag_113\n      jump\t// in\n    tag_214:\n        /* \"#utility.yul\":8857:8969   */\n      swap2\n      pop\n        /* \"#utility.yul\":8813:8979   */\n      pop\n        /* \"#utility.yul\":8558:8986   */\n      swap3\n      swap2\n      pop\n      pop\n      jump\t// out\n        /* \"#utility.yul\":8992:9343   */\n    tag_59:\n        /* \"#utility.yul\":9062:9068   */\n      0x00\n        /* \"#utility.yul\":9111:9113   */\n      0x20\n        /* \"#utility.yul\":9099:9108   */\n      dup3\n        /* \"#utility.yul\":9090:9097   */\n      dup5\n        /* \"#utility.yul\":9086:9109   */\n      sub\n        /* \"#utility.yul\":9082:9114   */\n      slt\n        /* \"#utility.yul\":9079:9198   */\n      iszero\n      tag_216\n      jumpi\n        /* \"#utility.yul\":9117:9196   */\n      tag_217\n      tag_91\n      jump\t// in\n    tag_217:\n        /* \"#utility.yul\":9079:9198   */\n    tag_216:\n        /* \"#utility.yul\":9237:9238   */\n      0x00\n        /* \"#utility.yul\":9262:9326   */\n      tag_218\n        /* \"#utility.yul\":9318:9325   */\n      dup5\n        /* \"#utility.yul\":9309:9315   */\n      dup3\n        /* \"#utility.yul\":9298:9307   */\n      dup6\n        /* \"#utility.yul\":9294:9316   */\n      add\n        /* \"#utility.yul\":9262:9326   */\n      tag_110\n      jump\t// in\n    tag_218:\n        /* \"#utility.yul\":9252:9326   */\n      swap2\n      pop\n        /* \"#utility.yul\":9208:9336   */\n      pop\n        /* \"#utility.yul\":8992:9343   */\n      swap3\n      swap2\n      pop\n      pop\n      jump\t// out\n        /* \"#utility.yul\":9349:9681   */\n    tag_61:\n        /* \"#utility.yul\":9470:9474   */\n      0x00\n        /* \"#utility.yul\":9508:9510   */\n      0x40\n        /* \"#utility.yul\":9497:9506   */\n      dup3\n        /* \"#utility.yul\":9493:9511   */\n      add\n        /* \"#utility.yul\":9485:9511   */\n      swap1\n      pop\n        /* \"#utility.yul\":9521:9592   */\n      tag_220\n        /* \"#utility.yul\":9589:9590   */\n      0x00\n        /* \"#utility.yul\":9578:9587   */\n      dup4\n        /* \"#utility.yul\":9574:9591   */\n      add\n        /* \"#utility.yul\":9565:9571   */\n      dup6\n        /* \"#utility.yul\":9521:9592   */\n      tag_102\n      jump\t// in\n    tag_220:\n        /* \"#utility.yul\":9602:9674   */\n      tag_221\n        /* \"#utility.yul\":9670:9672   */\n      0x20\n        /* \"#utility.yul\":9659:9668   */\n      dup4\n        /* \"#utility.yul\":9655:9673   */\n      add\n        /* \"#utility.yul\":9646:9652   */\n      dup5\n        /* \"#utility.yul\":9602:9674   */\n      tag_102\n      jump\t// in\n    tag_221:\n        /* \"#utility.yul\":9349:9681   */\n      swap4\n      swap3\n      pop\n      pop\n      pop\n      jump\t// out\n        /* \"#utility.yul\":9687:9856   */\n    tag_114:\n        /* \"#utility.yul\":9771:9782   */\n      0x00\n        /* \"#utility.yul\":9805:9811   */\n      dup3\n        /* \"#utility.yul\":9800:9803   */\n      dup3\n        /* \"#utility.yul\":9793:9812   */\n      mstore\n        /* \"#utility.yul\":9845:9849   */\n      0x20\n        /* \"#utility.yul\":9840:9843   */\n      dup3\n        /* \"#utility.yul\":9836:9850   */\n      add\n        /* \"#utility.yul\":9821:9850   */\n      swap1\n      pop\n        /* \"#utility.yul\":9687:9856   */\n      swap3\n      swap2\n      pop\n      pop\n      jump\t// out\n        /* \"#utility.yul\":9862:10027   */\n    tag_115:\n        /* \"#utility.yul\":10002:10019   */\n      0x5374696c6c206e6f74206c75636b790000000000000000000000000000000000\n        /* \"#utility.yul\":9998:9999   */\n      0x00\n        /* \"#utility.yul\":9990:9996   */\n      dup3\n        /* \"#utility.yul\":9986:10000   */\n      add\n        /* \"#utility.yul\":9979:10020   */\n      mstore\n        /* \"#utility.yul\":9862:10027   */\n      pop\n      jump\t// out\n        /* \"#utility.yul\":10033:10399   */\n    tag_116:\n        /* \"#utility.yul\":10175:10178   */\n      0x00\n        /* \"#utility.yul\":10196:10263   */\n      tag_225\n        /* \"#utility.yul\":10260:10262   */\n      0x0f\n        /* \"#utility.yul\":10255:10258   */\n      dup4\n        /* \"#utility.yul\":10196:10263   */\n      tag_114\n      jump\t// in\n    tag_225:\n        /* \"#utility.yul\":10189:10263   */\n      swap2\n      pop\n        /* \"#utility.yul\":10272:10365   */\n      tag_226\n        /* \"#utility.yul\":10361:10364   */\n      dup3\n        /* \"#utility.yul\":10272:10365   */\n      tag_115\n      jump\t// in\n    tag_226:\n        /* \"#utility.yul\":10390:10392   */\n      0x20\n        /* \"#utility.yul\":10385:10388   */\n      dup3\n        /* \"#utility.yul\":10381:10393   */\n      add\n        /* \"#utility.yul\":10374:10393   */\n      swap1\n      pop\n        /* \"#utility.yul\":10033:10399   */\n      swap2\n      swap1\n      pop\n      jump\t// out\n        /* \"#utility.yul\":10405:10824   */\n    tag_70:\n        /* \"#utility.yul\":10571:10575   */\n      0x00\n        /* \"#utility.yul\":10609:10611   */\n      0x20\n        /* \"#utility.yul\":10598:10607   */\n      dup3\n        /* \"#utility.yul\":10594:10612   */\n      add\n        /* \"#utility.yul\":10586:10612   */\n      swap1\n      pop\n        /* \"#utility.yul\":10658:10667   */\n      dup2\n        /* \"#utility.yul\":10652:10656   */\n      dup2\n        /* \"#utility.yul\":10648:10668   */\n      sub\n        /* \"#utility.yul\":10644:10645   */\n      0x00\n        /* \"#utility.yul\":10633:10642   */\n      dup4\n        /* \"#utility.yul\":10629:10646   */\n      add\n        /* \"#utility.yul\":10622:10669   */\n      mstore\n        /* \"#utility.yul\":10686:10817   */\n      tag_228\n        /* \"#utility.yul\":10812:10816   */\n      dup2\n        /* \"#utility.yul\":10686:10817   */\n      tag_116\n      jump\t// in\n    tag_228:\n        /* \"#utility.yul\":10678:10817   */\n      swap1\n      pop\n        /* \"#utility.yul\":10405:10824   */\n      swap2\n      swap1\n      pop\n      jump\t// out\n        /* \"#utility.yul\":10830:10990   */\n    tag_117:\n        /* \"#utility.yul\":10970:10982   */\n      0x4e65656420352045746800000000000000000000000000000000000000000000\n        /* \"#utility.yul\":10966:10967   */\n      0x00\n        /* \"#utility.yul\":10958:10964   */\n      dup3\n        /* \"#utility.yul\":10954:10968   */\n      add\n        /* \"#utility.yul\":10947:10983   */\n      mstore\n        /* \"#utility.yul\":10830:10990   */\n      pop\n      jump\t// out\n        /* \"#utility.yul\":10996:11362   */\n    tag_118:\n        /* \"#utility.yul\":11138:11141   */\n      0x00\n        /* \"#utility.yul\":11159:11226   */\n      tag_231\n        /* \"#utility.yul\":11223:11225   */\n      0x0a\n        /* \"#utility.yul\":11218:11221   */\n      dup4\n        /* \"#utility.yul\":11159:11226   */\n      tag_114\n      jump\t// in\n    tag_231:\n        /* \"#utility.yul\":11152:11226   */\n      swap2\n      pop\n        /* \"#utility.yul\":11235:11328   */\n      tag_232\n        /* \"#utility.yul\":11324:11327   */\n      dup3\n        /* \"#utility.yul\":11235:11328   */\n      tag_117\n      jump\t// in\n    tag_232:\n        /* \"#utility.yul\":11353:11355   */\n      0x20\n        /* \"#utility.yul\":11348:11351   */\n      dup3\n        /* \"#utility.yul\":11344:11356   */\n      add\n        /* \"#utility.yul\":11337:11356   */\n      swap1\n      pop\n        /* \"#utility.yul\":10996:11362   */\n      swap2\n      swap1\n      pop\n      jump\t// out\n        /* \"#utility.yul\":11368:11787   */\n    tag_74:\n        /* \"#utility.yul\":11534:11538   */\n      0x00\n        /* \"#utility.yul\":11572:11574   */\n      0x20\n        /* \"#utility.yul\":11561:11570   */\n      dup3\n        /* \"#utility.yul\":11557:11575   */\n      add\n        /* \"#utility.yul\":11549:11575   */\n      swap1\n      pop\n        /* \"#utility.yul\":11621:11630   */\n      dup2\n        /* \"#utility.yul\":11615:11619   */\n      dup2\n        /* \"#utility.yul\":11611:11631   */\n      sub\n        /* \"#utility.yul\":11607:11608   */\n      0x00\n        /* \"#utility.yul\":11596:11605   */\n      dup4\n        /* \"#utility.yul\":11592:11609   */\n      add\n        /* \"#utility.yul\":11585:11632   */\n      mstore\n        /* \"#utility.yul\":11649:11780   */\n      tag_234\n        /* \"#utility.yul\":11775:11779   */\n      dup2\n        /* \"#utility.yul\":11649:11780   */\n      tag_118\n      jump\t// in\n    tag_234:\n        /* \"#utility.yul\":11641:11780   */\n      swap1\n      pop\n        /* \"#utility.yul\":11368:11787   */\n      swap2\n      swap1\n      pop\n      jump\t// out\n\n    auxdata: 0xa26469706673582212200ba91cea9afb91518da69b67a76864ad5ff99206693184741c01aa2be602a33b64736f6c634300081a0033\n}\n",
				"bytecode": {
					"linkReferences": {},
					"object": "608060405234801561000f575f80fd5b50604051610d54380380610d5483398181016040528101906100319190610115565b815f806101000a81548173ffffffffffffffffffffffffffffffffffffffff021916908373ffffffffffffffffffffffffffffffffffffffff1602179055508060015f6101000a81548173ffffffffffffffffffffffffffffffffffffffff021916908373ffffffffffffffffffffffffffffffffffffffff1602179055505050610153565b5f80fd5b5f73ffffffffffffffffffffffffffffffffffffffff82169050919050565b5f6100e4826100bb565b9050919050565b6100f4816100da565b81146100fe575f80fd5b50565b5f8151905061010f816100eb565b92915050565b5f806040838503121561012b5761012a6100b7565b5b5f61013885828601610101565b925050602061014985828601610101565b9150509250929050565b610bf4806101605f395ff3fe60806040526004361061006f575f3560e01c8063a6fe67dc1161004d578063a6fe67dc14610103578063ced99cce1461012b578063d3db0a3914610155578063f804d6cf1461015f5761006f565b806332a2c5d0146100735780634e3b3cb31461009d578063729f576c146100c7575b5f80fd5b34801561007e575f80fd5b50610087610189565b60405161009491906106b9565b60405180910390f35b3480156100a8575f80fd5b506100b1610190565b6040516100be919061072d565b60405180910390f35b3480156100d2575f80fd5b506100ed60048036038101906100e89190610786565b6101b5565b6040516100fa9190610840565b60405180910390f35b34801561010e575f80fd5b5061012960048036038101906101249190610859565b61025b565b005b348015610136575f80fd5b5061013f6104a9565b60405161014c91906108b7565b60405180910390f35b61015d6104cc565b005b34801561016a575f80fd5b5061017361059e565b60405161018091906106b9565b60405180910390f35b5f30905090565b60015f9054906101000a900473ffffffffffffffffffffffffffffffffffffffff1681565b6101bd610632565b5f8054906101000a900473ffffffffffffffffffffffffffffffffffffffff1673ffffffffffffffffffffffffffffffffffffffff166389bdfdc3836040518263ffffffff1660e01b815260040161021591906108df565b60a060405180830381865afa158015610230573d5f803e3d5ffd5b505050506040513d601f19601f820116820180604052508101906102549190610a61565b9050919050565b5b3073ffffffffffffffffffffffffffffffffffffffff1660015f9054906101000a900473ffffffffffffffffffffffffffffffffffffffff1673ffffffffffffffffffffffffffffffffffffffff1663458393ab6040518163ffffffff1660e01b8152600401602060405180830381865afa1580156102dd573d5f803e3d5ffd5b505050506040513d601f19601f820116820180604052508101906103019190610a8c565b73ffffffffffffffffffffffffffffffffffffffff16146103aa5760015f9054906101000a900473ffffffffffffffffffffffffffffffffffffffff1673ffffffffffffffffffffffffffffffffffffffff166336ef233583836040518363ffffffff1660e01b8152600401610378929190610ab7565b5f604051808303815f87803b15801561038f575f80fd5b505af11580156103a1573d5f803e3d5ffd5b5050505061025c565b3073ffffffffffffffffffffffffffffffffffffffff1660015f9054906101000a900473ffffffffffffffffffffffffffffffffffffffff1673ffffffffffffffffffffffffffffffffffffffff1663458393ab6040518163ffffffff1660e01b8152600401602060405180830381865afa15801561042b573d5f803e3d5ffd5b505050506040513d601f19601f8201168201806040525081019061044f9190610a8c565b73ffffffffffffffffffffffffffffffffffffffff16146104a5576040517f08c379a000000000000000000000000000000000000000000000000000000000815260040161049c90610b38565b60405180910390fd5b5050565b5f8054906101000a900473ffffffffffffffffffffffffffffffffffffffff1681565b674563918244f400003414610516576040517f08c379a000000000000000000000000000000000000000000000000000000000815260040161050d90610ba0565b60405180910390fd5b60015f9054906101000a900473ffffffffffffffffffffffffffffffffffffffff1673ffffffffffffffffffffffffffffffffffffffff1663d3db0a39674563918244f400006040518263ffffffff1660e01b81526004015f604051808303818588803b158015610585575f80fd5b505af1158015610597573d5f803e3d5ffd5b5050505050565b5f60015f9054906101000a900473ffffffffffffffffffffffffffffffffffffffff1673ffffffffffffffffffffffffffffffffffffffff1663458393ab6040518163ffffffff1660e01b8152600401602060405180830381865afa158015610609573d5f803e3d5ffd5b505050506040513d601f19601f8201168201806040525081019061062d9190610a8c565b905090565b6040518060a001604052805f73ffffffffffffffffffffffffffffffffffffffff1681526020015f151581526020015f151581526020015f151581526020015f151581525090565b5f73ffffffffffffffffffffffffffffffffffffffff82169050919050565b5f6106a38261067a565b9050919050565b6106b381610699565b82525050565b5f6020820190506106cc5f8301846106aa565b92915050565b5f819050919050565b5f6106f56106f06106eb8461067a565b6106d2565b61067a565b9050919050565b5f610706826106db565b9050919050565b5f610717826106fc565b9050919050565b6107278161070d565b82525050565b5f6020820190506107405f83018461071e565b92915050565b5f604051905090565b5f80fd5b5f819050919050565b61076581610753565b811461076f575f80fd5b50565b5f813590506107808161075c565b92915050565b5f6020828403121561079b5761079a61074f565b5b5f6107a884828501610772565b91505092915050565b6107ba81610699565b82525050565b5f8115159050919050565b6107d4816107c0565b82525050565b60a082015f8201516107ee5f8501826107b1565b50602082015161080160208501826107cb565b50604082015161081460408501826107cb565b50606082015161082760608501826107cb565b50608082015161083a60808501826107cb565b50505050565b5f60a0820190506108535f8301846107da565b92915050565b5f806040838503121561086f5761086e61074f565b5b5f61087c85828601610772565b925050602061088d85828601610772565b9150509250929050565b5f6108a1826106fc565b9050919050565b6108b181610897565b82525050565b5f6020820190506108ca5f8301846108a8565b92915050565b6108d981610753565b82525050565b5f6020820190506108f25f8301846108d0565b92915050565b5f80fd5b5f601f19601f8301169050919050565b7f4e487b71000000000000000000000000000000000000000000000000000000005f52604160045260245ffd5b610942826108fc565b810181811067ffffffffffffffff821117156109615761096061090c565b5b80604052505050565b5f610973610746565b905061097f8282610939565b919050565b61098d81610699565b8114610997575f80fd5b50565b5f815190506109a881610984565b92915050565b6109b7816107c0565b81146109c1575f80fd5b50565b5f815190506109d2816109ae565b92915050565b5f60a082840312156109ed576109ec6108f8565b5b6109f760a061096a565b90505f610a068482850161099a565b5f830152506020610a19848285016109c4565b6020830152506040610a2d848285016109c4565b6040830152506060610a41848285016109c4565b6060830152506080610a55848285016109c4565b60808301525092915050565b5f60a08284031215610a7657610a7561074f565b5b5f610a83848285016109d8565b91505092915050565b5f60208284031215610aa157610aa061074f565b5b5f610aae8482850161099a565b91505092915050565b5f604082019050610aca5f8301856108d0565b610ad760208301846108d0565b9392505050565b5f82825260208201905092915050565b7f5374696c6c206e6f74206c75636b7900000000000000000000000000000000005f82015250565b5f610b22600f83610ade565b9150610b2d82610aee565b602082019050919050565b5f6020820190508181035f830152610b4f81610b16565b9050919050565b7f4e656564203520457468000000000000000000000000000000000000000000005f82015250565b5f610b8a600a83610ade565b9150610b9582610b56565b602082019050919050565b5f6020820190508181035f830152610bb781610b7e565b905091905056fea26469706673582212200ba91cea9afb91518da69b67a76864ad5ff99206693184741c01aa2be602a33b64736f6c634300081a0033",
					"opcodes": "PUSH1 0x80 PUSH1 0x40 MSTORE CALLVALUE DUP1 ISZERO PUSH2 0xF JUMPI PUSH0 DUP1 REVERT JUMPDEST POP PUSH1 0x40 MLOAD PUSH2 0xD54 CODESIZE SUB DUP1 PUSH2 0xD54 DUP4 CODECOPY DUP2 DUP2 ADD PUSH1 0x40 MSTORE DUP2 ADD SWAP1 PUSH2 0x31 SWAP2 SWAP1 PUSH2 0x115 JUMP JUMPDEST DUP2 PUSH0 DUP1 PUSH2 0x100 EXP DUP2 SLOAD DUP2 PUSH20 0xFFFFFFFFFFFFFFFFFFFFFFFFFFFFFFFFFFFFFFFF MUL NOT AND SWAP1 DUP4 PUSH20 0xFFFFFFFFFFFFFFFFFFFFFFFFFFFFFFFFFFFFFFFF AND MUL OR SWAP1 SSTORE POP DUP1 PUSH1 0x1 PUSH0 PUSH2 0x100 EXP DUP2 SLOAD DUP2 PUSH20 0xFFFFFFFFFFFFFFFFFFFFFFFFFFFFFFFFFFFFFFFF MUL NOT AND SWAP1 DUP4 PUSH20 0xFFFFFFFFFFFFFFFFFFFFFFFFFFFFFFFFFFFFFFFF AND MUL OR SWAP1 SSTORE POP POP POP PUSH2 0x153 JUMP JUMPDEST PUSH0 DUP1 REVERT JUMPDEST PUSH0 PUSH20 0xFFFFFFFFFFFFFFFFFFFFFFFFFFFFFFFFFFFFFFFF DUP3 AND SWAP1 POP SWAP2 SWAP1 POP JUMP JUMPDEST PUSH0 PUSH2 0xE4 DUP3 PUSH2 0xBB JUMP JUMPDEST SWAP1 POP SWAP2 SWAP1 POP JUMP JUMPDEST PUSH2 0xF4 DUP2 PUSH2 0xDA JUMP JUMPDEST DUP2 EQ PUSH2 0xFE JUMPI PUSH0 DUP1 REVERT JUMPDEST POP JUMP JUMPDEST PUSH0 DUP2 MLOAD SWAP1 POP PUSH2 0x10F DUP2 PUSH2 0xEB JUMP JUMPDEST SWAP3 SWAP2 POP POP JUMP JUMPDEST PUSH0 DUP1 PUSH1 0x40 DUP4 DUP6 SUB SLT ISZERO PUSH2 0x12B JUMPI PUSH2 0x12A PUSH2 0xB7 JUMP JUMPDEST JUMPDEST PUSH0 PUSH2 0x138 DUP6 DUP3 DUP7 ADD PUSH2 0x101 JUMP JUMPDEST SWAP3 POP POP PUSH1 0x20 PUSH2 0x149 DUP6 DUP3 DUP7 ADD PUSH2 0x101 JUMP JUMPDEST SWAP2 POP POP SWAP3 POP SWAP3 SWAP1 POP JUMP JUMPDEST PUSH2 0xBF4 DUP1 PUSH2 0x160 PUSH0 CODECOPY PUSH0 RETURN INVALID PUSH1 0x80 PUSH1 0x40 MSTORE PUSH1 0x4 CALLDATASIZE LT PUSH2 0x6F JUMPI PUSH0 CALLDATALOAD PUSH1 0xE0 SHR DUP1 PUSH4 0xA6FE67DC GT PUSH2 0x4D JUMPI DUP1 PUSH4 0xA6FE67DC EQ PUSH2 0x103 JUMPI DUP1 PUSH4 0xCED99CCE EQ PUSH2 0x12B JUMPI DUP1 PUSH4 0xD3DB0A39 EQ PUSH2 0x155 JUMPI DUP1 PUSH4 0xF804D6CF EQ PUSH2 0x15F JUMPI PUSH2 0x6F JUMP JUMPDEST DUP1 PUSH4 0x32A2C5D0 EQ PUSH2 0x73 JUMPI DUP1 PUSH4 0x4E3B3CB3 EQ PUSH2 0x9D JUMPI DUP1 PUSH4 0x729F576C EQ PUSH2 0xC7 JUMPI JUMPDEST PUSH0 DUP1 REVERT JUMPDEST CALLVALUE DUP1 ISZERO PUSH2 0x7E JUMPI PUSH0 DUP1 REVERT JUMPDEST POP PUSH2 0x87 PUSH2 0x189 JUMP JUMPDEST PUSH1 0x40 MLOAD PUSH2 0x94 SWAP2 SWAP1 PUSH2 0x6B9 JUMP JUMPDEST PUSH1 0x40 MLOAD DUP1 SWAP2 SUB SWAP1 RETURN JUMPDEST CALLVALUE DUP1 ISZERO PUSH2 0xA8 JUMPI PUSH0 DUP1 REVERT JUMPDEST POP PUSH2 0xB1 PUSH2 0x190 JUMP JUMPDEST PUSH1 0x40 MLOAD PUSH2 0xBE SWAP2 SWAP1 PUSH2 0x72D JUMP JUMPDEST PUSH1 0x40 MLOAD DUP1 SWAP2 SUB SWAP1 RETURN JUMPDEST CALLVALUE DUP1 ISZERO PUSH2 0xD2 JUMPI PUSH0 DUP1 REVERT JUMPDEST POP PUSH2 0xED PUSH1 0x4 DUP1 CALLDATASIZE SUB DUP2 ADD SWAP1 PUSH2 0xE8 SWAP2 SWAP1 PUSH2 0x786 JUMP JUMPDEST PUSH2 0x1B5 JUMP JUMPDEST PUSH1 0x40 MLOAD PUSH2 0xFA SWAP2 SWAP1 PUSH2 0x840 JUMP JUMPDEST PUSH1 0x40 MLOAD DUP1 SWAP2 SUB SWAP1 RETURN JUMPDEST CALLVALUE DUP1 ISZERO PUSH2 0x10E JUMPI PUSH0 DUP1 REVERT JUMPDEST POP PUSH2 0x129 PUSH1 0x4 DUP1 CALLDATASIZE SUB DUP2 ADD SWAP1 PUSH2 0x124 SWAP2 SWAP1 PUSH2 0x859 JUMP JUMPDEST PUSH2 0x25B JUMP JUMPDEST STOP JUMPDEST CALLVALUE DUP1 ISZERO PUSH2 0x136 JUMPI PUSH0 DUP1 REVERT JUMPDEST POP PUSH2 0x13F PUSH2 0x4A9 JUMP JUMPDEST PUSH1 0x40 MLOAD PUSH2 0x14C SWAP2 SWAP1 PUSH2 0x8B7 JUMP JUMPDEST PUSH1 0x40 MLOAD DUP1 SWAP2 SUB SWAP1 RETURN JUMPDEST PUSH2 0x15D PUSH2 0x4CC JUMP JUMPDEST STOP JUMPDEST CALLVALUE DUP1 ISZERO PUSH2 0x16A JUMPI PUSH0 DUP1 REVERT JUMPDEST POP PUSH2 0x173 PUSH2 0x59E JUMP JUMPDEST PUSH1 0x40 MLOAD PUSH2 0x180 SWAP2 SWAP1 PUSH2 0x6B9 JUMP JUMPDEST PUSH1 0x40 MLOAD DUP1 SWAP2 SUB SWAP1 RETURN JUMPDEST PUSH0 ADDRESS SWAP1 POP SWAP1 JUMP JUMPDEST PUSH1 0x1 PUSH0 SWAP1 SLOAD SWAP1 PUSH2 0x100 EXP SWAP1 DIV PUSH20 0xFFFFFFFFFFFFFFFFFFFFFFFFFFFFFFFFFFFFFFFF AND DUP2 JUMP JUMPDEST PUSH2 0x1BD PUSH2 0x632 JUMP JUMPDEST PUSH0 DUP1 SLOAD SWAP1 PUSH2 0x100 EXP SWAP1 DIV PUSH20 0xFFFFFFFFFFFFFFFFFFFFFFFFFFFFFFFFFFFFFFFF AND PUSH20 0xFFFFFFFFFFFFFFFFFFFFFFFFFFFFFFFFFFFFFFFF AND PUSH4 0x89BDFDC3 DUP4 PUSH1 0x40 MLOAD DUP3 PUSH4 0xFFFFFFFF AND PUSH1 0xE0 SHL DUP2 MSTORE PUSH1 0x4 ADD PUSH2 0x215 SWAP2 SWAP1 PUSH2 0x8DF JUMP JUMPDEST PUSH1 0xA0 PUSH1 0x40 MLOAD DUP1 DUP4 SUB DUP2 DUP7 GAS STATICCALL ISZERO DUP1 ISZERO PUSH2 0x230 JUMPI RETURNDATASIZE PUSH0 DUP1 RETURNDATACOPY RETURNDATASIZE PUSH0 REVERT JUMPDEST POP POP POP POP PUSH1 0x40 MLOAD RETURNDATASIZE PUSH1 0x1F NOT PUSH1 0x1F DUP3 ADD AND DUP3 ADD DUP1 PUSH1 0x40 MSTORE POP DUP2 ADD SWAP1 PUSH2 0x254 SWAP2 SWAP1 PUSH2 0xA61 JUMP JUMPDEST SWAP1 POP SWAP2 SWAP1 POP JUMP JUMPDEST JUMPDEST ADDRESS PUSH20 0xFFFFFFFFFFFFFFFFFFFFFFFFFFFFFFFFFFFFFFFF AND PUSH1 0x1 PUSH0 SWAP1 SLOAD SWAP1 PUSH2 0x100 EXP SWAP1 DIV PUSH20 0xFFFFFFFFFFFFFFFFFFFFFFFFFFFFFFFFFFFFFFFF AND PUSH20 0xFFFFFFFFFFFFFFFFFFFFFFFFFFFFFFFFFFFFFFFF AND PUSH4 0x458393AB PUSH1 0x40 MLOAD DUP2 PUSH4 0xFFFFFFFF AND PUSH1 0xE0 SHL DUP2 MSTORE PUSH1 0x4 ADD PUSH1 0x20 PUSH1 0x40 MLOAD DUP1 DUP4 SUB DUP2 DUP7 GAS STATICCALL ISZERO DUP1 ISZERO PUSH2 0x2DD JUMPI RETURNDATASIZE PUSH0 DUP1 RETURNDATACOPY RETURNDATASIZE PUSH0 REVERT JUMPDEST POP POP POP POP PUSH1 0x40 MLOAD RETURNDATASIZE PUSH1 0x1F NOT PUSH1 0x1F DUP3 ADD AND DUP3 ADD DUP1 PUSH1 0x40 MSTORE POP DUP2 ADD SWAP1 PUSH2 0x301 SWAP2 SWAP1 PUSH2 0xA8C JUMP JUMPDEST PUSH20 0xFFFFFFFFFFFFFFFFFFFFFFFFFFFFFFFFFFFFFFFF AND EQ PUSH2 0x3AA JUMPI PUSH1 0x1 PUSH0 SWAP1 SLOAD SWAP1 PUSH2 0x100 EXP SWAP1 DIV PUSH20 0xFFFFFFFFFFFFFFFFFFFFFFFFFFFFFFFFFFFFFFFF AND PUSH20 0xFFFFFFFFFFFFFFFFFFFFFFFFFFFFFFFFFFFFFFFF AND PUSH4 0x36EF2335 DUP4 DUP4 PUSH1 0x40 MLOAD DUP4 PUSH4 0xFFFFFFFF AND PUSH1 0xE0 SHL DUP2 MSTORE PUSH1 0x4 ADD PUSH2 0x378 SWAP3 SWAP2 SWAP1 PUSH2 0xAB7 JUMP JUMPDEST PUSH0 PUSH1 0x40 MLOAD DUP1 DUP4 SUB DUP2 PUSH0 DUP8 DUP1 EXTCODESIZE ISZERO DUP1 ISZERO PUSH2 0x38F JUMPI PUSH0 DUP1 REVERT JUMPDEST POP GAS CALL ISZERO DUP1 ISZERO PUSH2 0x3A1 JUMPI RETURNDATASIZE PUSH0 DUP1 RETURNDATACOPY RETURNDATASIZE PUSH0 REVERT JUMPDEST POP POP POP POP PUSH2 0x25C JUMP JUMPDEST ADDRESS PUSH20 0xFFFFFFFFFFFFFFFFFFFFFFFFFFFFFFFFFFFFFFFF AND PUSH1 0x1 PUSH0 SWAP1 SLOAD SWAP1 PUSH2 0x100 EXP SWAP1 DIV PUSH20 0xFFFFFFFFFFFFFFFFFFFFFFFFFFFFFFFFFFFFFFFF AND PUSH20 0xFFFFFFFFFFFFFFFFFFFFFFFFFFFFFFFFFFFFFFFF AND PUSH4 0x458393AB PUSH1 0x40 MLOAD DUP2 PUSH4 0xFFFFFFFF AND PUSH1 0xE0 SHL DUP2 MSTORE PUSH1 0x4 ADD PUSH1 0x20 PUSH1 0x40 MLOAD DUP1 DUP4 SUB DUP2 DUP7 GAS STATICCALL ISZERO DUP1 ISZERO PUSH2 0x42B JUMPI RETURNDATASIZE PUSH0 DUP1 RETURNDATACOPY RETURNDATASIZE PUSH0 REVERT JUMPDEST POP POP POP POP PUSH1 0x40 MLOAD RETURNDATASIZE PUSH1 0x1F NOT PUSH1 0x1F DUP3 ADD AND DUP3 ADD DUP1 PUSH1 0x40 MSTORE POP DUP2 ADD SWAP1 PUSH2 0x44F SWAP2 SWAP1 PUSH2 0xA8C JUMP JUMPDEST PUSH20 0xFFFFFFFFFFFFFFFFFFFFFFFFFFFFFFFFFFFFFFFF AND EQ PUSH2 0x4A5 JUMPI PUSH1 0x40 MLOAD PUSH32 0x8C379A000000000000000000000000000000000000000000000000000000000 DUP2 MSTORE PUSH1 0x4 ADD PUSH2 0x49C SWAP1 PUSH2 0xB38 JUMP JUMPDEST PUSH1 0x40 MLOAD DUP1 SWAP2 SUB SWAP1 REVERT JUMPDEST POP POP JUMP JUMPDEST PUSH0 DUP1 SLOAD SWAP1 PUSH2 0x100 EXP SWAP1 DIV PUSH20 0xFFFFFFFFFFFFFFFFFFFFFFFFFFFFFFFFFFFFFFFF AND DUP2 JUMP JUMPDEST PUSH8 0x4563918244F40000 CALLVALUE EQ PUSH2 0x516 JUMPI PUSH1 0x40 MLOAD PUSH32 0x8C379A000000000000000000000000000000000000000000000000000000000 DUP2 MSTORE PUSH1 0x4 ADD PUSH2 0x50D SWAP1 PUSH2 0xBA0 JUMP JUMPDEST PUSH1 0x40 MLOAD DUP1 SWAP2 SUB SWAP1 REVERT JUMPDEST PUSH1 0x1 PUSH0 SWAP1 SLOAD SWAP1 PUSH2 0x100 EXP SWAP1 DIV PUSH20 0xFFFFFFFFFFFFFFFFFFFFFFFFFFFFFFFFFFFFFFFF AND PUSH20 0xFFFFFFFFFFFFFFFFFFFFFFFFFFFFFFFFFFFFFFFF AND PUSH4 0xD3DB0A39 PUSH8 0x4563918244F40000 PUSH1 0x40 MLOAD DUP3 PUSH4 0xFFFFFFFF AND PUSH1 0xE0 SHL DUP2 MSTORE PUSH1 0x4 ADD PUSH0 PUSH1 0x40 MLOAD DUP1 DUP4 SUB DUP2 DUP6 DUP9 DUP1 EXTCODESIZE ISZERO DUP1 ISZERO PUSH2 0x585 JUMPI PUSH0 DUP1 REVERT JUMPDEST POP GAS CALL ISZERO DUP1 ISZERO PUSH2 0x597 JUMPI RETURNDATASIZE PUSH0 DUP1 RETURNDATACOPY RETURNDATASIZE PUSH0 REVERT JUMPDEST POP POP POP POP POP JUMP JUMPDEST PUSH0 PUSH1 0x1 PUSH0 SWAP1 SLOAD SWAP1 PUSH2 0x100 EXP SWAP1 DIV PUSH20 0xFFFFFFFFFFFFFFFFFFFFFFFFFFFFFFFFFFFFFFFF AND PUSH20 0xFFFFFFFFFFFFFFFFFFFFFFFFFFFFFFFFFFFFFFFF AND PUSH4 0x458393AB PUSH1 0x40 MLOAD DUP2 PUSH4 0xFFFFFFFF AND PUSH1 0xE0 SHL DUP2 MSTORE PUSH1 0x4 ADD PUSH1 0x20 PUSH1 0x40 MLOAD DUP1 DUP4 SUB DUP2 DUP7 GAS STATICCALL ISZERO DUP1 ISZERO PUSH2 0x609 JUMPI RETURNDATASIZE PUSH0 DUP1 RETURNDATACOPY RETURNDATASIZE PUSH0 REVERT JUMPDEST POP POP POP POP PUSH1 0x40 MLOAD RETURNDATASIZE PUSH1 0x1F NOT PUSH1 0x1F DUP3 ADD AND DUP3 ADD DUP1 PUSH1 0x40 MSTORE POP DUP2 ADD SWAP1 PUSH2 0x62D SWAP2 SWAP1 PUSH2 0xA8C JUMP JUMPDEST SWAP1 POP SWAP1 JUMP JUMPDEST PUSH1 0x40 MLOAD DUP1 PUSH1 0xA0 ADD PUSH1 0x40 MSTORE DUP1 PUSH0 PUSH20 0xFFFFFFFFFFFFFFFFFFFFFFFFFFFFFFFFFFFFFFFF AND DUP2 MSTORE PUSH1 0x20 ADD PUSH0 ISZERO ISZERO DUP2 MSTORE PUSH1 0x20 ADD PUSH0 ISZERO ISZERO DUP2 MSTORE PUSH1 0x20 ADD PUSH0 ISZERO ISZERO DUP2 MSTORE PUSH1 0x20 ADD PUSH0 ISZERO ISZERO DUP2 MSTORE POP SWAP1 JUMP JUMPDEST PUSH0 PUSH20 0xFFFFFFFFFFFFFFFFFFFFFFFFFFFFFFFFFFFFFFFF DUP3 AND SWAP1 POP SWAP2 SWAP1 POP JUMP JUMPDEST PUSH0 PUSH2 0x6A3 DUP3 PUSH2 0x67A JUMP JUMPDEST SWAP1 POP SWAP2 SWAP1 POP JUMP JUMPDEST PUSH2 0x6B3 DUP2 PUSH2 0x699 JUMP JUMPDEST DUP3 MSTORE POP POP JUMP JUMPDEST PUSH0 PUSH1 0x20 DUP3 ADD SWAP1 POP PUSH2 0x6CC PUSH0 DUP4 ADD DUP5 PUSH2 0x6AA JUMP JUMPDEST SWAP3 SWAP2 POP POP JUMP JUMPDEST PUSH0 DUP2 SWAP1 POP SWAP2 SWAP1 POP JUMP JUMPDEST PUSH0 PUSH2 0x6F5 PUSH2 0x6F0 PUSH2 0x6EB DUP5 PUSH2 0x67A JUMP JUMPDEST PUSH2 0x6D2 JUMP JUMPDEST PUSH2 0x67A JUMP JUMPDEST SWAP1 POP SWAP2 SWAP1 POP JUMP JUMPDEST PUSH0 PUSH2 0x706 DUP3 PUSH2 0x6DB JUMP JUMPDEST SWAP1 POP SWAP2 SWAP1 POP JUMP JUMPDEST PUSH0 PUSH2 0x717 DUP3 PUSH2 0x6FC JUMP JUMPDEST SWAP1 POP SWAP2 SWAP1 POP JUMP JUMPDEST PUSH2 0x727 DUP2 PUSH2 0x70D JUMP JUMPDEST DUP3 MSTORE POP POP JUMP JUMPDEST PUSH0 PUSH1 0x20 DUP3 ADD SWAP1 POP PUSH2 0x740 PUSH0 DUP4 ADD DUP5 PUSH2 0x71E JUMP JUMPDEST SWAP3 SWAP2 POP POP JUMP JUMPDEST PUSH0 PUSH1 0x40 MLOAD SWAP1 POP SWAP1 JUMP JUMPDEST PUSH0 DUP1 REVERT JUMPDEST PUSH0 DUP2 SWAP1 POP SWAP2 SWAP1 POP JUMP JUMPDEST PUSH2 0x765 DUP2 PUSH2 0x753 JUMP JUMPDEST DUP2 EQ PUSH2 0x76F JUMPI PUSH0 DUP1 REVERT JUMPDEST POP JUMP JUMPDEST PUSH0 DUP2 CALLDATALOAD SWAP1 POP PUSH2 0x780 DUP2 PUSH2 0x75C JUMP JUMPDEST SWAP3 SWAP2 POP POP JUMP JUMPDEST PUSH0 PUSH1 0x20 DUP3 DUP5 SUB SLT ISZERO PUSH2 0x79B JUMPI PUSH2 0x79A PUSH2 0x74F JUMP JUMPDEST JUMPDEST PUSH0 PUSH2 0x7A8 DUP5 DUP3 DUP6 ADD PUSH2 0x772 JUMP JUMPDEST SWAP2 POP POP SWAP3 SWAP2 POP POP JUMP JUMPDEST PUSH2 0x7BA DUP2 PUSH2 0x699 JUMP JUMPDEST DUP3 MSTORE POP POP JUMP JUMPDEST PUSH0 DUP2 ISZERO ISZERO SWAP1 POP SWAP2 SWAP1 POP JUMP JUMPDEST PUSH2 0x7D4 DUP2 PUSH2 0x7C0 JUMP JUMPDEST DUP3 MSTORE POP POP JUMP JUMPDEST PUSH1 0xA0 DUP3 ADD PUSH0 DUP3 ADD MLOAD PUSH2 0x7EE PUSH0 DUP6 ADD DUP3 PUSH2 0x7B1 JUMP JUMPDEST POP PUSH1 0x20 DUP3 ADD MLOAD PUSH2 0x801 PUSH1 0x20 DUP6 ADD DUP3 PUSH2 0x7CB JUMP JUMPDEST POP PUSH1 0x40 DUP3 ADD MLOAD PUSH2 0x814 PUSH1 0x40 DUP6 ADD DUP3 PUSH2 0x7CB JUMP JUMPDEST POP PUSH1 0x60 DUP3 ADD MLOAD PUSH2 0x827 PUSH1 0x60 DUP6 ADD DUP3 PUSH2 0x7CB JUMP JUMPDEST POP PUSH1 0x80 DUP3 ADD MLOAD PUSH2 0x83A PUSH1 0x80 DUP6 ADD DUP3 PUSH2 0x7CB JUMP JUMPDEST POP POP POP POP JUMP JUMPDEST PUSH0 PUSH1 0xA0 DUP3 ADD SWAP1 POP PUSH2 0x853 PUSH0 DUP4 ADD DUP5 PUSH2 0x7DA JUMP JUMPDEST SWAP3 SWAP2 POP POP JUMP JUMPDEST PUSH0 DUP1 PUSH1 0x40 DUP4 DUP6 SUB SLT ISZERO PUSH2 0x86F JUMPI PUSH2 0x86E PUSH2 0x74F JUMP JUMPDEST JUMPDEST PUSH0 PUSH2 0x87C DUP6 DUP3 DUP7 ADD PUSH2 0x772 JUMP JUMPDEST SWAP3 POP POP PUSH1 0x20 PUSH2 0x88D DUP6 DUP3 DUP7 ADD PUSH2 0x772 JUMP JUMPDEST SWAP2 POP POP SWAP3 POP SWAP3 SWAP1 POP JUMP JUMPDEST PUSH0 PUSH2 0x8A1 DUP3 PUSH2 0x6FC JUMP JUMPDEST SWAP1 POP SWAP2 SWAP1 POP JUMP JUMPDEST PUSH2 0x8B1 DUP2 PUSH2 0x897 JUMP JUMPDEST DUP3 MSTORE POP POP JUMP JUMPDEST PUSH0 PUSH1 0x20 DUP3 ADD SWAP1 POP PUSH2 0x8CA PUSH0 DUP4 ADD DUP5 PUSH2 0x8A8 JUMP JUMPDEST SWAP3 SWAP2 POP POP JUMP JUMPDEST PUSH2 0x8D9 DUP2 PUSH2 0x753 JUMP JUMPDEST DUP3 MSTORE POP POP JUMP JUMPDEST PUSH0 PUSH1 0x20 DUP3 ADD SWAP1 POP PUSH2 0x8F2 PUSH0 DUP4 ADD DUP5 PUSH2 0x8D0 JUMP JUMPDEST SWAP3 SWAP2 POP POP JUMP JUMPDEST PUSH0 DUP1 REVERT JUMPDEST PUSH0 PUSH1 0x1F NOT PUSH1 0x1F DUP4 ADD AND SWAP1 POP SWAP2 SWAP1 POP JUMP JUMPDEST PUSH32 0x4E487B7100000000000000000000000000000000000000000000000000000000 PUSH0 MSTORE PUSH1 0x41 PUSH1 0x4 MSTORE PUSH1 0x24 PUSH0 REVERT JUMPDEST PUSH2 0x942 DUP3 PUSH2 0x8FC JUMP JUMPDEST DUP2 ADD DUP2 DUP2 LT PUSH8 0xFFFFFFFFFFFFFFFF DUP3 GT OR ISZERO PUSH2 0x961 JUMPI PUSH2 0x960 PUSH2 0x90C JUMP JUMPDEST JUMPDEST DUP1 PUSH1 0x40 MSTORE POP POP POP JUMP JUMPDEST PUSH0 PUSH2 0x973 PUSH2 0x746 JUMP JUMPDEST SWAP1 POP PUSH2 0x97F DUP3 DUP3 PUSH2 0x939 JUMP JUMPDEST SWAP2 SWAP1 POP JUMP JUMPDEST PUSH2 0x98D DUP2 PUSH2 0x699 JUMP JUMPDEST DUP2 EQ PUSH2 0x997 JUMPI PUSH0 DUP1 REVERT JUMPDEST POP JUMP JUMPDEST PUSH0 DUP2 MLOAD SWAP1 POP PUSH2 0x9A8 DUP2 PUSH2 0x984 JUMP JUMPDEST SWAP3 SWAP2 POP POP JUMP JUMPDEST PUSH2 0x9B7 DUP2 PUSH2 0x7C0 JUMP JUMPDEST DUP2 EQ PUSH2 0x9C1 JUMPI PUSH0 DUP1 REVERT JUMPDEST POP JUMP JUMPDEST PUSH0 DUP2 MLOAD SWAP1 POP PUSH2 0x9D2 DUP2 PUSH2 0x9AE JUMP JUMPDEST SWAP3 SWAP2 POP POP JUMP JUMPDEST PUSH0 PUSH1 0xA0 DUP3 DUP5 SUB SLT ISZERO PUSH2 0x9ED JUMPI PUSH2 0x9EC PUSH2 0x8F8 JUMP JUMPDEST JUMPDEST PUSH2 0x9F7 PUSH1 0xA0 PUSH2 0x96A JUMP JUMPDEST SWAP1 POP PUSH0 PUSH2 0xA06 DUP5 DUP3 DUP6 ADD PUSH2 0x99A JUMP JUMPDEST PUSH0 DUP4 ADD MSTORE POP PUSH1 0x20 PUSH2 0xA19 DUP5 DUP3 DUP6 ADD PUSH2 0x9C4 JUMP JUMPDEST PUSH1 0x20 DUP4 ADD MSTORE POP PUSH1 0x40 PUSH2 0xA2D DUP5 DUP3 DUP6 ADD PUSH2 0x9C4 JUMP JUMPDEST PUSH1 0x40 DUP4 ADD MSTORE POP PUSH1 0x60 PUSH2 0xA41 DUP5 DUP3 DUP6 ADD PUSH2 0x9C4 JUMP JUMPDEST PUSH1 0x60 DUP4 ADD MSTORE POP PUSH1 0x80 PUSH2 0xA55 DUP5 DUP3 DUP6 ADD PUSH2 0x9C4 JUMP JUMPDEST PUSH1 0x80 DUP4 ADD MSTORE POP SWAP3 SWAP2 POP POP JUMP JUMPDEST PUSH0 PUSH1 0xA0 DUP3 DUP5 SUB SLT ISZERO PUSH2 0xA76 JUMPI PUSH2 0xA75 PUSH2 0x74F JUMP JUMPDEST JUMPDEST PUSH0 PUSH2 0xA83 DUP5 DUP3 DUP6 ADD PUSH2 0x9D8 JUMP JUMPDEST SWAP2 POP POP SWAP3 SWAP2 POP POP JUMP JUMPDEST PUSH0 PUSH1 0x20 DUP3 DUP5 SUB SLT ISZERO PUSH2 0xAA1 JUMPI PUSH2 0xAA0 PUSH2 0x74F JUMP JUMPDEST JUMPDEST PUSH0 PUSH2 0xAAE DUP5 DUP3 DUP6 ADD PUSH2 0x99A JUMP JUMPDEST SWAP2 POP POP SWAP3 SWAP2 POP POP JUMP JUMPDEST PUSH0 PUSH1 0x40 DUP3 ADD SWAP1 POP PUSH2 0xACA PUSH0 DUP4 ADD DUP6 PUSH2 0x8D0 JUMP JUMPDEST PUSH2 0xAD7 PUSH1 0x20 DUP4 ADD DUP5 PUSH2 0x8D0 JUMP JUMPDEST SWAP4 SWAP3 POP POP POP JUMP JUMPDEST PUSH0 DUP3 DUP3 MSTORE PUSH1 0x20 DUP3 ADD SWAP1 POP SWAP3 SWAP2 POP POP JUMP JUMPDEST PUSH32 0x5374696C6C206E6F74206C75636B790000000000000000000000000000000000 PUSH0 DUP3 ADD MSTORE POP JUMP JUMPDEST PUSH0 PUSH2 0xB22 PUSH1 0xF DUP4 PUSH2 0xADE JUMP JUMPDEST SWAP2 POP PUSH2 0xB2D DUP3 PUSH2 0xAEE JUMP JUMPDEST PUSH1 0x20 DUP3 ADD SWAP1 POP SWAP2 SWAP1 POP JUMP JUMPDEST PUSH0 PUSH1 0x20 DUP3 ADD SWAP1 POP DUP2 DUP2 SUB PUSH0 DUP4 ADD MSTORE PUSH2 0xB4F DUP2 PUSH2 0xB16 JUMP JUMPDEST SWAP1 POP SWAP2 SWAP1 POP JUMP JUMPDEST PUSH32 0x4E65656420352045746800000000000000000000000000000000000000000000 PUSH0 DUP3 ADD MSTORE POP JUMP JUMPDEST PUSH0 PUSH2 0xB8A PUSH1 0xA DUP4 PUSH2 0xADE JUMP JUMPDEST SWAP2 POP PUSH2 0xB95 DUP3 PUSH2 0xB56 JUMP JUMPDEST PUSH1 0x20 DUP3 ADD SWAP1 POP SWAP2 SWAP1 POP JUMP JUMPDEST PUSH0 PUSH1 0x20 DUP3 ADD SWAP1 POP DUP2 DUP2 SUB PUSH0 DUP4 ADD MSTORE PUSH2 0xBB7 DUP2 PUSH2 0xB7E JUMP JUMPDEST SWAP1 POP SWAP2 SWAP1 POP JUMP INVALID LOG2 PUSH5 0x6970667358 0x22 SLT KECCAK256 SIGNEXTEND 0xA9 SHR 0xEA SWAP11 0xFB SWAP2 MLOAD DUP14 0xA6 SWAP12 PUSH8 0xA76864AD5FF99206 PUSH10 0x3184741C01AA2BE602A3 EXTCODESIZE PUSH5 0x736F6C6343 STOP ADDMOD BYTE STOP CALLER "
				},
				"gasEstimates": {
					"creation": {
						"codeDepositCost": "612000",
						"executionCost": "infinite",
						"totalCost": "infinite"
					},
					"external": {
						"approach()": "infinite",
						"challengemanager()": "infinite",
						"getChallenger(uint256)": "infinite",
						"getContractAddress()": "380",
						"getTheChallenger()": "infinite",
						"privileged()": "infinite",
						"setTheChallenger(uint256,uint256)": "infinite"
					}
				},
				"methodIdentifiers": {
					"approach()": "d3db0a39",
					"challengemanager()": "4e3b3cb3",
					"getChallenger(uint256)": "729f576c",
					"getContractAddress()": "32a2c5d0",
					"getTheChallenger()": "f804d6cf",
					"privileged()": "ced99cce",
					"setTheChallenger(uint256,uint256)": "a6fe67dc"
				}
			},
			"storageLayout": {
				"storage": [
					{
						"astId": 477,
						"contract": "Inju_Gambit/Hack.sol:Hack",
						"label": "privileged",
						"offset": 0,
						"slot": "0",
						"type": "t_contract(Privileged)804"
					},
					{
						"astId": 480,
						"contract": "Inju_Gambit/Hack.sol:Hack",
						"label": "challengemanager",
						"offset": 0,
						"slot": "1",
						"type": "t_contract(ChallengeManager)470"
					}
				],
				"types": {
					"t_contract(ChallengeManager)470": {
						"encoding": "inplace",
						"label": "contract ChallengeManager",
						"numberOfBytes": "20"
					},
					"t_contract(Privileged)804": {
						"encoding": "inplace",
						"label": "contract Privileged",
						"numberOfBytes": "20"
					}
				}
			},
			"userdoc": {
				"kind": "user",
				"methods": {},
				"version": 1
			}
		}
	}
}